:1000000000800010FD000000E90D0000EB0D000075
:1000100000000000000000000000000000000000E0
:10002000000000000000000000000000ED0D0000D6
:100030000000000000000000EF0D00006548000017
:10004000F10D0000F10D0000F10D0000F10D0000B8
:10005000F10D0000F10D0000F10D0000F10D0000A8
:10006000F10D0000F10D0000F10D0000F10D000098
:10007000F10D0000F10D0000F10D0000F10D000088
:10008000F10D0000F10D0000F10D0000F10D000078
:10009000F10D0000F10D0000F10D0000F10D000068
:1000A000F10D0000F10D0000F10D0000F10D000058
:1000B000F10D0000F10D0000F10D00000000000046
:1000C000A4870000000100108C000000A48700003D
:1000D0000000002000000000A48700000040002075
:1000E000000000008C010010401A000000000020F9
:1000F00000000000004000200000000010B5114C7E
:10010000114B9C4207D2206861680C34231F1A6887
:1001100000F06FFEF4E70D4B9C4205D22068616849
:1001200000F070FE0834F6E700F0CCFD084B002B21
:1001300002D000E000BFFEE704F006FD00F03AF850
:10014000F9E7C046C0000000E4000000FC00000029
:100150000000000010B5064C2378002B07D1054B9A
:10016000002B02D0044800E000BF0123237010BD23
:100170008C01001000000000A487000008B5084BA7
:10018000002B03D00748084900E000BF0748036878
:10019000002B03D0064B002B00D0984708BDC0466B
:1001A00000000000A4870000900100108C010010E6
:1001B0000000000007B502F039F80D4803F018FC04
:1001C0000C4B00221A8001F0BDFF00280FD05823ED
:1001D00000200093011C021C6E2302F039F9002854
:1001E000F1D00020011C044A03F0A0FAEBE70EBD99
:1001F0004E690000B00400107C66000008B502489B
:1002000001F04CFB08BDC046A801001008B5011C58
:10021000014800F0F7FC08BD5802001008B503487B
:10022000FF2100F0EFFCC0B208BDC046580200102C
:10023000F8B543B2041C0D1C002B07DA772000210F
:10024000FFF7F6FF012832D87F231C40A026882321
:100250009B0136068027F750FFF7E0FF8A239B01BA
:10026000F750FFF7DBFF201CFFF7D0FF280EFFF74A
:10027000CDFF280CC0B2FFF7C9FF280AC0B2FFF7B4
:10028000C5FFE8B2FFF7C2FF402C04D08720482CFE
:1002900002D0012000E09520FFF7B8FF0A24FFF705
:1002A000BDFF030603D5013CE4B2002CF7D1F8BD35
:1002B00073B58823404DA0249B0180222406E25080
:1002C000281C3E4900F094FC281C0821002200F064
:1002D00083FC84239B01E3586425013DEDB2FFF7C5
:1002E0009DFF002DF9D14020291CFFF7A1FF041E1E
:1002F000012C35D1D52148204900FFF799FF01286D
:1003000015D1FFF78BFF01AEA8550135042DF8D1AB
:10031000B378012B24D1F378AA2B21D1284C80214A
:10032000C905E920FFF784FF011E3BD11AE0E9204F
:10033000291CFFF77DFF4126012801D80224E92668
:10034000204D301C0021FFF773FF00282FD1002D16
:1003500006D0802150208900FFF76AFF002813D0C3
:10036000002411E0002CFBD07A20FFF761FF002869
:10037000F6D1041CFFF752FF30550134042CF9D19B
:1003800033785A0600D50C240F4BA0221C7088230A
:1003900080219B011206D150FFF740FF604260416F
:1003A000C0B276BD013CA4B2002CD9D0B7E7013D64
:1003B000ADB2002DD4D0C4E758020010801A060058
:1003C000E02E0000A8610000A9010010F8B51D1C76
:1003D000234B071C1B78141C1A0700D44902512018
:1003E000FFF726FF002801D001262FE01D4EFFF762
:1003F00015FFFF2804D1013EB6B2002EF4D0F6E777
:10040000FE28F1D1184E761B361BB6B2002C02D155
:100410003C1E05D10EE0013CFFF700FFA4B2F5E75A
:10042000FFF7FCFE7A192070013492B2A3B29A420F
:10043000F6D105E0013DADB2FFF7F0FE002DF9D198
:10044000013EB6B2FFF7EAFE002EF9D18823A022C2
:1004500080219B011206D150FFF7E0FE301CF8BD51
:10046000A90100103075000002020000064B821E38
:100470001B680020D96802398A4203D258789B69E8
:100480005043C0187047C046AC0100100F4B10B568
:100490001A68002303808368041C012B14D0D168E0
:1004A00001208B4211D2002B03D11178032900D1F6
:1004B0005369E360002B03D0181CFFF7D7FF00E05F
:1004C00050692061002000E0181C10BDAC01001034
:1004D000F0B5324B85B0041C1D6801285AD9EA6872
:1004E000904257D22E78022E32D0032E40D0012EC9
:1004F00050D183B25A08D3189BB2DA055B0A019334
:10050000274BD20D03AF29699A4204D0019B381CB6
:10051000591802230EE0019B381C5918331CFFF7B1
:1005200055FF021E36D12969019B01316846C91861
:100530000D30331CFFF74AFF00282BD17B78387829
:100540001B0203431811E20725D41805000D22E011
:100550002B69010AC4B203AFC9186200381C331CEE
:10056000FFF734FF002815D178783B7800020FE0C0
:100570002B697F22C10903AE1440C918A200301CA8
:100580000423FFF723FF002804D17078337800029A
:10059000184300E0012005B0F0BDC046AC010010DA
:1005A000FF01000070B50588154B0135ADB2041C84
:1005B0001E68002D01D1032021E00369002BFAD031
:1005C0002A0718D101330361C068002803D1B3881A
:1005D000AB42F0D90FE072782B09013A1A420AD1E6
:1005E000FFF776FF012809D9F3689842E3D2E0606B
:1005F000FFF73CFF20612580002000E0012070BD56
:10060000AC010010F8B5041C0D1C2B78202B01D177
:100610000135FAE72F3B5A4253410026ED18A660F8
:100620002B78202B2BD8201CFFF730FF3E4B1B686C
:100630009B681E7076E03378002B65D0F27A082331
:1006400013405AD16268F15C0133D0180138007848
:10065000884252D10B2BF6D1D37A002B61D13B6863
:100660009B68DA7AD1065AD55A7D197D12020A435F
:10067000D97E9B7E090212040B431343A36060687A
:10068000021C031C0B32934203D02021197001334A
:10069000F9E70022131C08215E1CEB5CF6B2202B4C
:1006A00010D92F2B0ED02E2B34D08A420AD21F1CE9
:1006B000613F192F01D8203BDBB2571C8354FAB29B
:1006C000331CE9E70022202199425241C272201CCA
:1006D000AD19FFF7DBFE002814D1134F3B689E686D
:1006E00022880F231A405201301C21692023FFF772
:1006F0006DFE00289FD0012014E0201CFFF752FF60
:100700000028EDD003280DD16368D87A43425841C0
:10071000033007E00829D5D10A1C0B21D0E70420BB
:1007200000E00020F8BDC046AC01001030B51B4B06
:10073000011C1D6891B00620002D2CD0002308ACB0
:10074000AB70AC6000AB03A80493FFF75BFF00281D
:1007500021D123780320002B1DD0E27A10231340EF
:1007600019D1617D227D09021143E27EA07E120231
:10077000090402430A436A62E17FA27F0906120468
:100780000A43217F181C0A43617FEB6109020A4377
:100790002A620122AA7011B030BDC046AC0100101F
:1007A000F7B5314B01901C6800230D1C171C1380FA
:1007B0009C4257D0A3780520D90754D5226AE16915
:1007C000531A9D4200D99DB2019A0092002D43D048
:1007D000E669F3051BD1700A617804F08BFA0029F1
:1007E0000BD1002E01D1606A02E0A06AFFF770FE13
:1007F000012833D90023A062E370A06AFFF736FE18
:1008000000282BD0E3785A1CC318E270E362E36936
:100810002E1CDA058023D10D9B005B1A9BB29D42F2
:1008200000D91E1C01980099431E9841B6B240425F
:100830000840D20DE16A331CFFF7C8FD00280DD136
:10084000E269AD1B9319E361009BADB29B19009364
:100850003B88F6183E80B9E7281C04E00023A3700B
:10086000012000E00620FEBDAC0100102A4BF7B5C8
:100870001C68002C4CD0A2780523D10749D5236AE7
:10088000051E9D4200D91D1C0022E369E2619542CC
:1008900038D066787602002B12D0311C681E5F1E9D
:1008A00004F0E4F9311C0190381C04F0DFF9019ADE
:1008B000824205D373423B40E361ED1AA06A0EE029
:1008C000606AA0620BE0FFF703FE01281CD9E36811
:1008D000984219D2E169A0628B19E361AD1BB54260
:1008E000F1D8E2695319E361FFF7C0FD00280BD08E
:1008F0006B0ADAB2ED0501D1E27003E0013218189B
:10090000E270E062002304E00023A370012300E012
:100910000623181CFEBDC046AC01001030B5154BB7
:10092000051C1B688DB00620002B20D004AC9C60F9
:1009300001AB6B60281CFFF765FE002814D12378FB
:10094000002B0ED0E37A0420DA0610D5627D237DD9
:1009500012021A43E37EA17E1B0212040B431343CF
:10096000AB60281CFFF792FD032800D104200DB0D6
:1009700030BDC046AC01001038B5051C0C1C131C62
:10098000291C0248221C00F003F838BD62690000EF
:100990000FB404B0704770B50D1C041C161C00F099
:1009A00087FA013507D0201C002100F0A9FA201C8D
:1009B000311C00F09FFA70BD08B50122FFF7EBFF74
:1009C00008BD000010B5044B041C083303601C3044
:1009D00000F06EFB201C10BD9869000010B5041CCF
:1009E000FFF7F0FF201C00F017FA201C10BD0000DC
:1009F0000F4B70B50833051C08C5041C0E1C281CC1
:100A00000021182204F0D0F80023201C311CE361DF
:100A100023626363A363E364064A231C1C3000F073
:100A2000E5FA281C311CFFF7C7FF201C70BDC0462B
:100A300098690000990A000008B50A1C031C1C30C4
:100A4000002905D00022196201215A630A1C00E026
:100A5000012100F041FB08BD08B50A1C031C1C3035
:100A6000002905D000229963DA640221012200E006
:100A7000022100F031FB08BD08B54369011C002BC1
:100A800004D10368002B06D0984704E000680028D2
:100A900001D00431984708BD08B5012903D00229C7
:100AA00004D1383000E02030FFF7E6FF08BD000039
:100AB00010B5041C421C12D00B685A1C0CD0A34267
:100AC00008D1201C896800F02DFB201C002100F0BB
:100AD00045FB04E00C31EFE70148FFF759FF10BD7B
:100AE000A869000008B588420AD0431C07D001312C
:100AF00006D00448FFF74CFF0120404200E0081CEC
:100B000008BDC046B96900000B685A1C05D0834275
:100B100001D1486802E00C31F6E7181C704700006C
:100B200010B5041C431C07D0FFF7EEFF041C431C48
:100B300002D10248FFF72CFF201C10BDCA6900003B
:100B4000014B083303607047086A000010B5044B7E
:100B5000041C0833036000F05FF9201C10BDC04680
:100B6000086A000073B5041C0E4800250830206098
:100B70000820E0600C48261D6061069865602572BB
:100B800025610090301C00F027FC301C2B1CE16814
:100B9000226900F0A1FC301C616900F0D3FC201C2C
:100BA00076BDC046086A000040420F0070B5094D8E
:100BB000041C2B6883420BD0061D301CE16822699F
:100BC000002300F089FC301C616900F0BBFC2C6044
:100BD00070BDC046B001001008B5044B0261C16091
:100BE00000221A60FFF7E2FF08BDC046B001001006
:100BF00008B5034B002241611A60FFF7D7FF08BD1B
:100C0000B001001038B50D1C041CFFF7CFFF291CE4
:100C1000201D00F0DDFC38BD38B50368041CDB681E
:100C2000984763685A682368002A02D19B689847EE
:100C300014E05B681568984763682D1A002D08DC7E
:100C40005A68916859601B68002BEAD05068984731
:100C5000E7E75B68226818681369984738BD0000A9
:100C600008B50248FFF7D8FF08BDC046346A000047
:100C700038B5041C00F0E8FC051C00F0E5FC401B46
:100C8000A042FAD338BD08B5FA239B005843FFF7BA
:100C9000EFFF08BD0A4A70B5956893682C1C002BBD
:100CA0000AD1802676059C195E5904332660C02B34
:100CB000F7D180246405946010308000015170BD2C
:100CC00000ED00E07FB53E4A8021D06F49023D4BE8
:100CD0000143D16723223C499A6001220A603B49C3
:100CE0003B4D0A6000228E211A6289005858202448
:100CF000284001900198A0430190019CC820000267
:100D00002043585000920099324A914203D8C0467D
:100D1000009A0132F6E7012200211A645A645964EC
:100D20005A64596C274AC807FBD58E218900505850
:100D3000802428400290029820430290029EC820FE
:100D400000020643565023269660565835400395B8
:100D5000039DA5430395039C20435050D86801216F
:100D6000184A0842FAD003201067002051675067E4
:100D70005167586F0121134A0842FAD08E209167BB
:100D800080001558144C2C4014501558134C2C400E
:100D9000145000209164D164D064D164DA6CD1071E
:100DA000FCD5084A23211161596901221142FBD067
:100DB0000B4B0021196019600A4B1A607FBDC046B9
:100DC0000480044000800440F0400440F4400440AB
:100DD000FF250000C3090000FFFBFFFFFFFEFFFF30
:100DE000C0800440C8800440704770477047704717
:100DF000704710B50023934203D21C585C50043353
:100E0000F9E710BD00238B4203D200221A500433AD
:100E1000F9E770470020704708B503F0BBFE08BD36
:100E200010B5041C421C04D1164817491E22FFF7B6
:100E3000A3FD164B1A68002A06D101221A60144B32
:100E40001449DA6F0A43DA670121002C12D0124BE1
:100E50009C420FD0114B9C420CD0114B9C4209D0AC
:100E6000104B9C4206D0104B9C4203D00F4BE11814
:100E70004B425941201CA40400F054F9E40E012017
:100E8000A04010BD886A00003C6A0000BC01001050
:100E90000480044040000100281400002C160000CB
:100EA00030180000341A0000381C0000C4E1FFFFB5
:100EB00038B5041C0D1C21604A1C11D0081CFFF71A
:100EC000AFFF2D14074AAD00AB18074AE360AB181B
:100ED000064A2361AB186361054B6060ED18A5609D
:100EE00038BDC046002200A0802200A0002100A042
:100EF000002000A008B5006800F030F908BD00002F
:100F000038B50368041C0D1C013304D109480A4993
:100F10004322FFF731FD002D06D0012D09D1A36832
:100F2000626819680A4303E0A36861681A688A4323
:100F30001A6038BD836A00003C6A0000F8B5144DA1
:100F400001210C1C6B6A8440234220D0114B870086
:100F5000F85800281BD02B68234218D16B68234215
:100F600006D0EB69234203D00B4B1B689847EC611A
:100F70002B69074E234209D0336A234206D0054B22
:100F80000221D859044B1B68984734626C62F8BD43
:100F9000004000A0C4010010C001001008B50020EE
:100FA000FFF7CCFF08BD08B50120FFF7C7FF08BD5C
:100FB00008B50220FFF7C2FF08BD08B50320FFF700
:100FC000BDFF08BD08B50420FFF7B8FF08BD08B590
:100FD0000520FFF7B3FF08BD08B50620FFF7AEFFF9
:100FE00008BD08B50720FFF7A9FF08BDF0B5061C2E
:100FF000274885B0814202DD0120404246E0254875
:1010000002600022244895002C580294002C39D10B
:101010002B5022483260C46F214F224B3C43C4679F
:101020008803800F1824444349121F270F40111CC6
:10103000BC465E31644489000090CC508121890017
:1010400001245858271C9740384358500099A02332
:1010500088001B06C01880239B01C7586146039770
:10106000271C8F400399B943C1500F4B50B2E95828
:10107000FFF710FE33681F2213409C400B4B029871
:101080001C6003E00132082ABCD1B5E705B0F0BD11
:1010900013110200C0010010C401001004800440BC
:1010A00080000900008004409C6A000000E100E02C
:1010B000036800219A00064B10B5D150054A8123E0
:1010C0009B000068D15801248440A143D15010BD39
:1010D000C401001000800440036870B5104D012069
:1010E00098402B68034200D168622E68C4432640B2
:1010F0000B4B2E60012909D1002A03D05A681043F6
:1011000058600CE05A6814405C6008E0002A03D084
:101110001A691043186102E01A6914401C6170BD1D
:10112000004000A038B5041C0D1C431C04D1084825
:1011300008491522FFF720FC074BE405E40DE418ED
:10114000226807239A431D40131C2B43236038BD9C
:10115000886A0000BC6A00000040044038B5041CE6
:101160000D1C431C05D1114811491D22FFF704FC39
:1011700006E081231B01984216D00E4B984213D0F3
:10118000E4050D4BE40DE4182268042D04D18023FE
:10119000DB001343236007E018239A4303231D4019
:1011A000EB00151C1D43256038BDC046886A000051
:1011B000BC6A0000140A00000040044038B5051C59
:1011C0000C1C081C002103F051FE002809D1FE214F
:1011D000201C890503F05EFE002803D0FE24A40530
:1011E00000E000242D6880239B00E85804F0EAFC0E
:1011F000211C04F0CBF903F061FE81239B00E85031
:1012000038BDF7B580238122046895009B00E7581C
:10121000081C6659E15004F079FC0190301C04F080
:10122000D1FC061C381C04F0CDFC011C301C03F062
:10123000C9FF011C019804F0A9F903F03FFE6051B9
:10124000F7BD0000F7B5041C0F1C081C5149FFF73F
:1012500067FCC3B2061CFF2B02D14F48FFF798FB77
:101260004E4801230178051C0A1C1A4000D18EE06B
:101270001941194200D084E02A78012199400A439B
:101280002A70474A99008958636021604549802542
:10129000C86F454A01902806019D09330543CD6773
:1012A000012051689840031C0B435360381C394996
:1012B000FFF7FEFB27683D4A3B683D4913433B600F
:1012C0007B680C2213437B607A683A4B13407B6047
:1012D000394B7D68186803F0C9FC7F23013818403A
:1012E000400128437860F0B2012507281DD803F09B
:1012F000B3FC040A1016040A1016A023DB00FD50EC
:1013000002222E4B10E0A123DB00FD5002222C4BC9
:101310000AE0A223DB00FD5002222A4B04E0A323B3
:10132000DB00FD50284B0222FA508022C1235201DB
:101330009B00FA500123C0225B429200BB5023491C
:10134000C3229200B95080252149C222AD009200EB
:10135000BB5079517B598126B6009B08BB517B68F5
:10136000042293437B60201CFFF74BFF24686059E5
:1013700004F028FC002104F009F903F09FFDA051BE
:10138000F7BD1448FFF704FB01235B4274E7131C0D
:1013900072E7C046046B0000706B0000E4010010AF
:1013A0009C6B0000048004400080044001000600A3
:1013B00040420F001FF0FFFF040100100405000071
:1013C0000C050000140500001C05000001100000C1
:1013D000204E00008A6B0000F0B587B0041C00911D
:1013E000081C314901920293FFF79AFB2F49071C11
:1013F0000198FFF795FB2E4D0390291C0298FFF7EB
:101400008FFB2C4E0490311C0C98FFF789FB03993D
:101410000590381CFFF766FB0599071C0498FFF739
:1014200061FB011C381CFFF75DFB204F2060013081
:1014300004D1214821494822FFF79EFA2368204A17
:1014400093420FD01F4A934219D11F4A8021D06F77
:10145000C9020143D1671D4A01211D4B11605A6821
:1014600004210AE0184A8021D06F09010143D167A5
:101470001849174B01220A6059680A435A600098BC
:101480000949FFF715FB0198391CFFF711FB02987A
:10149000291CFFF70DFB0C9B013303D00C98311C6A
:1014A000FFF706FB07B0F0BDE86C0000A46B00007E
:1014B000E06B0000246D0000286C00003C6C000014
:1014C0000000044000800540048004409C800440EB
:1014D0000080044094800440F8B51F1C0368151C6C
:1014E0005A680E1C02218A435A60331F041C0C2BBD
:1014F00006D9032D04D9114811496522FFF73CFA9A
:1015000023680122281C1968D5401040C0012A40D8
:10151000013E06439201090C090416430E431E6066
:101520005A680D218A43791E8F41BF0017435F60BF
:10153000236802215A680A435A60F8BD826C000091
:101540003C6C0000F7B5036802245A68051CA243EE
:101550005A601C4B0E1C1B680193211C019803F060
:1015600085FB04F0D3FA071C301C04F0CFFA011CF1
:10157000381C03F027FEFC21890503F0B7FC05F0B9
:101580000DF803F029FA04F0D5FFFF2810DC2B68D2
:101590000D4A1C61196801380A401A601A68000275
:1015A000104318602B6802215A680A435A6007E00A
:1015B000802302345B009C42CFD10448FFF7E8F956
:1015C000F7BDC04604010010FF0000FFC06C000022
:1015D00010B50368DA689407FCD599600368DA6887
:1015E0005107FCD5986810BD38B5104B1A68002A11
:1015F0001AD101251D600E4B8022D96FD2000A43FB
:10160000DA670C4B0C4C1868022363600B4903F03B
:101610002DFB0138E0600A4965601320FFF73AFBB3
:101620008022084B12031A6038BDC046E801001042
:1016300004800440040100100080014040420F007B
:10164000610C000000E100E008B5044B1B68002BB2
:1016500001D1FFF7C9FF024B986808BDE8010010EF
:1016600000800140034B012198615A690A435A6185
:101670007047C04600800140024B01215A698A43ED
:101680005A61704700800140014B01221A60704787
:10169000008001407047704770477047014BFF2240
:1016A0001A707047EE01001008B502F0B1FA08BDDB
:1016B0000023094AD15C094A002902D0D15C0131DA
:1016C00005E0D05C002803D0FF2800D0FF21D154D2
:1016D0000133072BEDD17047301A0010F1010010D3
:1016E00010B51E4B002219781A701D4A5078002838
:1016F00001D001201870D078002803D01878022477
:10170000204318701078002803D018780424204350
:1017100018709078002803D0187808242043187097
:101720001079002803D018781024204318705079BD
:10173000002803D018782024204318709279002ABA
:1017400003D01A78402002431A701B78081C1840F6
:101750009943044A044B1070197010BDF001001039
:10176000301A0010F9010010F8010010014B18792F
:101770007047C046301A0010014B58787047C04679
:10178000301A0010014BD8787047C046301A00104C
:10179000094A00231380094A1370094A1370094A41
:1017A0001370094B012252421A80084A084B1A60F2
:1017B000084B09221A70704700020010FF01001048
:1017C00008020010FA010010FC0100102C77000044
:1017D00004020010FE01001008B50248FFF7D8FF10
:1017E00008BDC046FB01001037B572B6244B00217E
:1017F00059601961234B04221A60234B8E229200F8
:101800009D588024E4002C439C509D588024640003
:101810002C439C5001225A671C1C5967616F01239D
:10182000194A1940FAD1116753675167616F012353
:10183000154A0B40FAD15364516C8E219360890094
:10184000136753605558114C2C400194019C80251E
:101850002C430194019DC82424022C435450A022FF
:1018600084211206890153500949535009495350A4
:10187000094B9860001C01688D464068804737BD61
:10188000004000A010E000E000800440FF250000C0
:10189000042100000821000000ED00E07047000076
:1018A000F0B5C1B00E1C00F069FE00F073FE80239D
:1018B000DB029B1B051E9D4200D91D1C00F054FE3F
:1018C000134802F081F80024AC421DD280277F002B
:1018D0006846391C00F02CFEFF2804D82B1BBB42A5
:1018E00001D90C4806E0A019694602F0FBFE002869
:1018F00004D0094802F068F8012006E001340748E6
:10190000FF3401F0E5FFDFE7002041B0F0BDC04645
:1019100096780000A2780000BD7800000F790000E2
:10192000534B73B501261E70524B00241C80524D40
:10193000FC23DB002B8000F04FFE211C201C00F05C
:101940007BFE301C01F01AFF0094019406F041FD6B
:101950004A48042100F0C6FDA0420FD100F00EFE5F
:101960000820404200F0ECFD0421684600F0E0FD54
:10197000042101A800F0DCFD00F0F6FD404C414BD5
:1019800022689A4200D0404C22689A4200D03F4CD4
:1019900022689A4200D03E4C22689A4217D02023F7
:1019A0005B423C482B8002F00FF8009B002B03D0D9
:1019B000394B019A9A4242D8384802F005F8384823
:1019C00002F002F8FC23DB002B80364822E0364B85
:1019D00036482B8001F07CFF01235B4260680A21BE
:1019E0002B8001F0F7FF009B6268934227D8A06824
:1019F000FFF7FAFE17E0FFF7C5FE002836D1FFF724
:101A0000BBFE0028F7D000980199FFF749FF002896
:101A100028D0274801F0D8FF05E0FFF761FEFFF767
:101A2000A5FE002804D1FFF7A1FE0028F5D01DE097
:101A3000FFF79CFE002819D0FFF752FEF8E71D4B78
:101A40001D482B8001F044FF01235B4200980A21CE
:101A50002B8001F0BFFFFC23DB0018482B8001F036
:101A6000B3FFCCE7164801F0AFFF87E773BDC04670
:101A700012010010220500100A01001083790000F5
:101A8000F4FF03001EAB07B004FF030004FE0300D5
:101A900004F003008B790000FF7F03009F790000B2
:101AA00092690000B6790000FF070000D1790000BC
:101AB000DB7900001FF8FFFF017A0000157A0000B3
:101AC000F7790000F8B5012001F058FE454B0026DB
:101AD0001E8000F081FD444C444B4548238001F0BA
:101AE000CFFB444D01232B70434BFC271E70434B0F
:101AF0003021FF0060201E70278001F0EDFE40487D
:101B000001F0E6FE3821602001F0E6FE3D4801F0DC
:101B1000DFFE4021602001F0DFFE3B4801F0D8FEEF
:101B20004821602001F0D8FE384801F0D1FE602144
:101B3000282001F0D1FE0126354801F0C9FE764289
:101B40003448268001F0C4FE3348278001F0C0FEEF
:101B5000022326802B7002F09DFE032486B2FFF73D
:101B6000BFFD6820782101F0B7FE201C0A2101F09A
:101B700011FF02F08FFEFA229200B318984203D9A7
:101B800002F088FE013C86B202F0BAF8002808D0C4
:101B900002F0B6F8041E02D0FFF7A2FDF8E7FFF747
:101BA000BFFE02F0A1F8002807D002F09DF800283F
:101BB00002D0FFF795FDF8E7041C02F09BF800281F
:101BC00006D002F097F8002804D0FFF789FDF8E767
:101BD000002CC4D101232B7000F0FEFC002001F08A
:101BE000CDFDF8BD220500100A01001000F8FFFF2E
:101BF000C873000012010010130100100E01001044
:101C00003A7A00003F7A0000447A0000497A0000E6
:101C10004E7A0000547A0000587A0000F0B56E4EFB
:101C20008BB004923288071C0D1C1C1C099206D034
:101C3000002132220091081C131C00F0F1FCFC234F
:101C4000DB003380002C16D001F090FD041C012035
:101C500001F094FD01F06AFF291C021C1439781E62
:101C6000C0B2C9B20A2301F099FE5C4801F030FE0F
:101C7000201C01F083FD049B574C0B2B01DC584BBF
:101C80002380ADB2574E039501232DB2321C38B2DA
:101C90000093291C00F0DAFC049A0795172A01DC4E
:101CA0004F4B2380BFB20597083701253FB2381C40
:101CB0000799321C2B1C009500F0C8FC039B009573
:101CC000043B1AB20692111C2B1C381C321C00F06B
:101CD000BDFC049B2F2B01DD434B00E0404B059ED8
:101CE000404D1036238036B20124301C07992A1C3F
:101CF000231C009400F0AAFC301C06992A1C231C0B
:101D0000009400F0A3FC039B0094083B1AB20892D5
:101D1000111C231C301C2A1C00F098FC049B5F2B18
:101D200002DC2F4A2C4B1A80059F012418373FB242
:101D3000381C07992A1C231C009400F087FC381CCF
:101D400006992A1C231C009400F080FC381C08997A
:101D50002A1C231C009400F079FC039E2A1C0C3ED4
:101D600036B20094381C311C231C00F06FFC049A1E
:101D70009F2A02DC1A4A184B1A80059F194D2037FA
:101D800001243FB2381C07992A1C231C009400F040
:101D90005DFC381C06992A1C231C009400F056FC9C
:101DA000381C08992A1C231C009400F04FFC381C96
:101DB000311C2A1C231C009400F048FC03992A1CA7
:101DC0001039231C09B20094381C00F03FFC024B70
:101DD000099A1A800BB0F0BD0A010010E77A0000E2
:101DE0008A520000A480000000F8FFFFF7B5012030
:101DF00001F0C4FCAE4B00221A7001F097FEFA20ED
:101E0000000102F01DFD03F0DDFE8421C905041C64
:101E100003F040F8002801D0FF2000E0202001F06E
:101E200055FE0025281C03F071FE211C03F01EF84E
:101E3000002805D028B2013501F038FEEDB2F1E7F7
:101E40009C4B0126187001259B4B1B78002B00D161
:101E50000CE1002D00D109E1012D00D095E0974D56
:101E6000002E36D000F0B8FB01235B421021202069
:101E70002B8000F0E1FB924801F02AFD99212820F7
:101E800000F0DAFBFC278F4801F022FDFF008E48AE
:101E90002F8001F01DFD01235B428C482B8001F057
:101EA00017FD582100202F8000F0C6FB884801F064
:101EB0008BFD884F381C01F087FD381C01F084FD34
:101EC000381C01F081FD381C01F07EFD824801F0D4
:101ED0007BFD3020992100F0AFFB01F027FE252883
:101EE00002DC01235B4200E07C4B2B8002237C4A16
:101EF0000093A4200123302100F0A8FB36211820F4
:101F000000F09AFB774801F0E3FC1820422100F032
:101F100093FB01F00BFE282801DD734800E07348B5
:101F2000FC2701F0D5FCFF000223714A2F80A4207A
:101F300000936021012300F089FB6621182000F046
:101F40007BFB6C4801F0C4FC1820722100F074FB8C
:101F500001F0ECFD252802DD604B2B8000E02F8096
:101F600001F0E4FD0A2101F015FD634801F0B0FC29
:101F7000FC23DB002B8001F0D9FD7621021C00231D
:101F80007020FFF74BFE02255EE7022D00D05DE7D3
:101F9000FFF7A6FB01F0A8FE002808D001F0A4FE80
:101FA000002802D0FFF79CFBF8E7051C4CE701F086
:101FB000B3FE00282ED08421201CC90502F074FF36
:101FC000002808D0201C4D4902F050FF002809D0FD
:101FD000201C4B490BE08421201CC90502F064FF42
:101FE000002802D0201C474901E04749201C02F08C
:101FF0007DFF4649041C02F04DFF002802D0FF205F
:1020000001F064FD201C424902F044FF002825D065
:102010003F4C23E001F07AFE002800D114E7842130
:10202000201CC90502F040FF002802D0201C3549C1
:1020300001E03549201C03F0D3FB8421C905041CB1
:1020400002F01EFF002802D0202001F03FFD201CDE
:10205000002102F00BFF002800D00024201C03F018
:1020600035FD00B201F022FD0026ECE6FA20000169
:1020700002F0E6FB03F04AFD011C201C02F0F0FE1A
:10208000002807D1201C02F019FFC1B2FA2000017C
:1020900002F0DFFB201C03F019FD00B201F006FD89
:1020A00001F028FD0020011C00F0C6FAF7BDC04673
:1020B000130100101A020010180200100A0100108B
:1020C000637A00007C790000777A0000797A00005A
:1020D000847A00009F7A0000BA7A000000F8FFFFBF
:1020E0006080000037790000D57A0000DF7A0000B8
:1020F00082800000EA7A0000E77A000000000442D3
:10210000CDCC4C3C00004841000020400000504233
:1021100000007F4308B5094B012200201A7001F02E
:102120002DFB074801F0ACF802F0A4FB02F0BAFB6B
:1021300001F06EFD02F0B4FB08BDC04618020010AD
:10214000606D0000014B18787047C04618020010FF
:1021500037B50024251C02F09DFB274B1A689042DE
:10216000F9D91E301860012C0BD0002C02D0022CA3
:1021700023D039E0214B201C1C8000F03BFA0124C5
:1021800032E0FC21EAB2C900002001F063FC1C4BE4
:102190001C4A1880107851786E234008181A490894
:1021A00058231C35591A0094231CADB200F04EFA86
:1021B000FE2D19D90025022416E0114BFC22D20075
:1021C0001A80104A6E23107851784008181A49086E
:1021D0005823591A0123009300F038FA3F350A4B6F
:1021E000ADB29D4200D9FF24FFF7C0FA002801D10B
:1021F000292CB0D937BDC046BC1B001022050010E9
:102200000A010010567B0000FF03000008B52020E3
:1022100001F05CFC034B10221A80034BFF221A7062
:1022200008BDC0464618001010020010F8B5FFF7B0
:1022300071FF254B32221A70244B01241C60244B61
:10224000FF251D70FFF7E2FFFFF724FA281CFFF7B8
:1022500022FAFFF729FAFFF72BFAFFF71EFA00F030
:10226000E6F9FFF775FF201C01F088FA194F0025E9
:102270003D8000F0B1F9184E301C01F001F8201C2F
:1022800001F07CFA154BFC22D2001A803D8000F050
:10229000A3F9301C00F0F4FF114F124E3D70347062
:1022A000FFF710FCFFF7A2FD01F024FC281C01F051
:1022B00065FA0D4B0D481C700D4B3C7034701C7052
:1022C00000F0DEFFF8BDC046190200101C0200102D
:1022D0001002001022050010C87300000A0100104F
:1022E000130100100E0100101201001064700000B4
:1022F00009010010F7B5284B284E1B786F22D31A1E
:1023000037883380264B274C1B7800212588218075
:10231000042B34D8181C02F09FFC03212A2A2A001F
:1023200001F0C2FB0020FFF7B6F900F0A5FB1E4B41
:1023300001221E481A7001F0CBFA1D4B0A211888A1
:1023400001F028FB1B4801F0C3FA0020582300933A
:10235000011C021C6E2300F0C1FB17E0164B072086
:102360001A680F231340072B07D9782005E0134A7A
:102370001278002A0AD00533D8B2002104E00F4BAE
:102380001B78002B02D02F2001F000FBFF231F4001
:102390001D4037802580F7BDAF040010B804001041
:1023A000EE010010AC04001012010010F57A0000DC
:1023B000EC010010027B00000C020010EF01001085
:1023C000F7B51D4A1378002B34D000240B2B02D80C
:1023D0000C24E41AE4B2194B012700201F7000F00E
:1023E0009BFB174D55262B780322F11A61180333F6
:1023F00000920020542200F006FF381C00F08CFBF5
:102400002B780322F61AA1190333009200205422DC
:1024100000F095FE0B4B04221A802B78E41A0A4B2D
:1024200057341C80094B186801F052FA024A13789D
:10243000013B1370F7BDC0462402001012010010CA
:1024400095020010B8040010AC0400101402001033
:10245000F0B587B005930CAB039104921F78061C6E
:1024600002F018FA174B1A78174B1C68211A174CF0
:10247000914212D9216800290FD082181A60144B9A
:1024800001251A6801321A6000232360FFF704F95E
:10249000FFF70EF9FFF702F910E022680025AA42C3
:1024A0000CD1FFF78DFFFFF725FF059B0097301C30
:1024B0000399049A00F012FB01232360281C07B043
:1024C000F0BDC04619020010200200101C020010CE
:1024D0000C02001008B5024800F0E4FE08BDC0463A
:1024E0001B02001070B50F4C061C23780D1C102B1E
:1024F0000BD0301C2570FEF719F9051E0CD10A48C7
:10250000311C02F0A1FB2B1C09E0084805F09EFEDF
:1025100001230028EDD002E0082323700123181CBA
:1025200070BDC046080100107002001028020010A3
:1025300013B56C460634221CFEF732F9208816BD0E
:1025400008B5074B002804DADA6941428A4200D212
:102550005042DB69C018FEF789F9024B187008BDBC
:10256000280200107F02001008B50020FEF77EF957
:10257000014B187008BDC0467F02001008B5034B20
:10258000186AFEF773F9024B187008BD2802001094
:102590007F020010014BD8697047C0462802001026
:1025A00013B50123074C5B4281220093201C064B8C
:1025B00006495201FEF7D6FA201C0549054AFEF7E6
:1025C00029FC13BD58020010180C00002412000052
:1025D000410B00000001001008B5002001F074FC60
:1025E000024A00231380024A138008BDB804001079
:1025F000AC04001008B501F067FC08BD064B10B52F
:102600001B880F2B04D8054C5B001B5B934201D049
:1026100001F0D0FD10BDC04618010010A00200104E
:1026200013B504AC2488009401F0F6FD13BD08B581
:1026300001F0B4FC08BD0000024B1880024B198069
:102640007047C046B8040010AC040010F0B593B059
:102650000B9118A909780E900C9111780A91517874
:1026600002320D910792012B74D10A9B002207338D
:10267000DB100893019201990A9A0BB2934200DB96
:1026800002E1DA17520FD218D210D2B209927F4A61
:10269000134004D50822013B5242134301331BB2BD
:1026A00080221A410E9B01999BB289B20293039139
:1026B0004B0002999BB20F925A1892B210920A1CC8
:1026C00001329B189BB2119300240D9923B28B42C7
:1026D0003DDA089A099953434AB20799CB189B5C93
:1026E0000F9A1A4231D00C9B694D012B08D10399E6
:1026F000029A0B9B8818E11800B209B22A8822E0DE
:102700000B9963008EB29BB2109A9F1904933FB24B
:1027100013B2181C2A88391C0593FFF76FFF119913
:102720002A880BB2181C391C0693FFF767FF049A1E
:102730000136961936B22A880598311CFFF75EFFDC
:102740002A880698311CFFF759FF0134BDE7019A2A
:1027500001328FE7042B00D096E000230393039906
:102760000D9A0BB2934200DB8EE00B9B89B29BB2B9
:102770000593059A4B00D3189BB206910E9A99B215
:1027800001339BB292B20993002308910492029202
:10279000019301990A9A0BB2934272DA07993D4B61
:1027A0000A781B6812115200D45A0C9A022A1ED1C0
:1027B000019B04995E00089A8E19B6B235B217B221
:1027C000013636B2281C391C221CFFF717FF301CBB
:1027D000391C221CFFF712FF0999301C0BB21E1C7A
:1027E000191C221CFFF70AFF281C311C05E0029A65
:1027F000069B10B2059A991809B2221CFFF7FEFE3B
:10280000079B0C991A780F231A40224B52001B6821
:10281000D45A02291FD1019A049B56009E19089987
:10282000B6B2B51C2DB20FB2033636B2281C391C15
:10283000221CFFF7E3FE301C391C221CFFF7DEFED2
:10284000099A301C13B21E1C191C221CFFF7D6FE5D
:10285000281C311C06E00298069B059A0130991845
:1028600000B209B2221CFFF7C9FE079B0133079390
:10287000019B02339BB20193029B02339BB20293F2
:1028800087E7039B013369E713B0F0BD07000080C1
:102890000A010010A8040010F0B5704B8FB01B683F
:1028A0000D905C78019118780094082C05D0211CBB
:1028B00010394C1EA141C9B200E00021009DEC106E
:1028C0000C19211C414301314A4304329B185F1CFF
:1028D0001B78089400240C930694069C0C9D62B20D
:1028E0006BB29A4200DBAFE0089D3B78022D02D02C
:1028F0000137059304E07A78023712021A430592F1
:10290000069D0D9CADB2A4B26B00E3189BB202947D
:102910009CB2013303959BB2002509940A93079555
:10292000079D009C6EB2A64200DB89E0059CE4078F
:102930003BD54B4B4B4C1B78022B1ED1019D760097
:1029400076190999B6B232B20DB20492281C2288C7
:102950000499FFF753FE0A9901360BB2181C22881E
:10296000049936B20B93FFF749FE2288281C311CCC
:10297000FFF744FE22880B9840E03B4B1B78002B6E
:102980000AD00098019D01384019029A039D861BC8
:10299000A91830B209B206E0039D02996818019D9A
:1029A00000B2761931B2228840E0304C304B228898
:1029B0001B8893423CD02A4B1B78022B20D1019DCF
:1029C0007600099C7619B6B225B234B2281C211CB7
:1029D0000494FFF713FE0A99244B0CB21A88201CAA
:1029E0000499FFF70BFE0136204936B20A88281CED
:1029F000311CFFF703FE1D4D201C2A88311C15E0F9
:102A0000194B1B78002B0AD00098019C0138001943
:102A1000039D029C861B291930B209B206E0039D72
:102A2000029C2819019D00B2761931B2FFF7E6FD2C
:102A3000079B059C01336408DBB2059407936FE79D
:102A4000069D0135069548E70A4A00201056044ABB
:102A50001B18107858430FB0F0BDC046B4040010E6
:102A6000120100100A0100102005001022050010BC
:102A7000180100101301001008B51249124B097813
:102A80001B88DAB2012903D1FF21002B09D00DE008
:102A9000022906D103210A4091000A431101114382
:102AA00004E011010F2213400B43D9B2074B084A2F
:102AB000186802F079F8074A00231380064A138049
:102AC00008BDC0460F010010B004001098020010AD
:102AD0001F130000B8040010AC04001008B5002853
:102AE00005D1064B1868064B196801F0F3FB054B3E
:102AF0001B78002B01D1FFF7BFFF08BD9802001023
:102B0000A8040010A404001008B5024800F08AFFD1
:102B100008BDC046667800000F231840014B18809E
:102B20007047C04610010010114B30B51B8893420E
:102B30001DD0104B84B21B789C4218D20E4D89B226
:102B40002D788D4213D95B1059430C4B401040181F
:102B50001B6880B2181801780F23E50702D5994346
:102B60000A4303E00B4012011A43D2B2027030BD97
:102B700018010010160100101A0100109802001030
:102B8000F0B5284B87B01B6803905E7805911878E4
:102B9000082E05D0311C10394C1EA141C9B200E0ED
:102BA0000021F4100C19211C414301314A43043225
:102BB0009B18029403995C1C1B788DB204930399B3
:102BC0006A1A049952B24BB29A4224DA029B2778CD
:102BD000022B01D0013403E0637802341B021F434F
:102BE00000210191019B59B2B14211DC059B28B231
:102BF000C91809B2FB0701D50B4B00E00B4B1A7843
:102C0000FFF792FF019B7F080133DBB20193E9E7F5
:102C10000135ADB2D3E7064A00201056181807B0A8
:102C2000F0BDC046B404001010010010B004001044
:102C30001301001030B5114B84B21B789C421BD29B
:102C40000F4A89B212788A4216D95B1059430D4B4C
:102C5000401040181B6880B2181803780F210A4AE8
:102C6000E50703D512788B43134304E012880B4029
:102C700012011343DBB2037030BDC04616010010D1
:102C80001A010010980200101001001070B50F4BCF
:102C9000141C1B788AB2061C9A4202D3A2B29A4232
:102CA00012D20B4B1A78B3B29A420DD9A14202DD6F
:102CB0000B1C211C1C1C0D1CA54205DC29B2301C60
:102CC000FFF7B8FF0135F7E770BDC0461A010010E5
:102CD0001601001070B50F4B161C1B7882B20C1C2D
:102CE0009A4202D38AB29A4212D20B4B1A78B3B2EA
:102CF0009A420DD9A04202DD031C201C1C1C051C9D
:102D0000A54205DC28B2311CFFF794FF0135F7E737
:102D100070BDC046160100101A01001008B5002A47
:102D200004DA92B25118524209B212B2521812B2D7
:102D3000FFF7ACFF08BD10B50C1C002A04DA93B2F3
:102D400018185A4200B212B28118013909B2221C75
:102D5000FFF7C0FF10BDF8B5CE18041C171C36B223
:102D6000E7190D1C3FB2321CFFF790FF381C291CDD
:102D7000321CFFF78BFF391C2A1C201CFFF7AAFF0F
:102D8000391C321C201CFFF7A5FFF8BDF8B58418CC
:102D9000CD1824B22DB2002801DA002C2BDB164B03
:102DA0001B78984201DB9C4225DA002901DA002DCC
:102DB00021DB124B1B78994201DB9D421BDAA042BA
:102DC00002DD031C201C1C1CA94202DD0B1C291C5B
:102DD0001D1CC643CF43F617FF173040394006B2DB
:102DE0000FB2A64207DA301C391C2A1C0136FFF745
:102DF0004DFF36B2F5E7F8BD160100101A010010BC
:102E0000F0B5031C85B0002876D03C4A1078834288
:102E100001DB431E1BB23A4A1278042A06D1394913
:102E200009785943CC0F6118491008E0022A63D190
:102E300034490C785C43E117890F09198910324C29
:102E4000304E258889B20395304DB4462D882580B3
:102E5000002B28DD34780025E40862432C1C019205
:102E6000C21A954217DA221C0E1BB618B6B200968B
:102E7000171B019EBFB2B74208DA561C244F0296B8
:102E8000009EBE5DBE54029FBAB2EDE70135ADB201
:102E90000099141CE4E71F4B0027D95F63461A789A
:102EA00003B2002023E034789DB26243D210019235
:102EB0000024854217D2221C0E1BB618B6B200960B
:102EC000171B019EBFB2B74208DA571C0297104F7A
:102ED000009EBA5CBA55029FBAB2EDE70135ADB2B9
:102EE0000099141CE5E7674600203A78011CFFF7BB
:102EF0004DFF054B039C1C8005B0F0BD1A0100106E
:102F00000F0100101601001010010010B004001095
:102F100026050010AC040010F0B589B001920693AC
:102F200093B20122D21A5B0092B25B4202929BB230
:102F300000220490059107930392039A13B2019A19
:102F4000934278DA029A13B2002B0CDB019B013B0F
:102F50001AB2079B019202339BB29AB20792029A6D
:102F60009B189BB20293039B029A9CB263000333AB
:102F7000D3189BB20293069B5B0713D5049A059B5B
:102F800096B2019A9DB297B2701C2018791900B2BE
:102F900009B2FFF74FFE691CBE19611830B209B2C1
:102FA000FFF748FE069B9B0713D5049A059B96B234
:102FB000019A9DB297B2701C2018E91B00B209B2A9
:102FC000FFF738FE691EBE19091B30B209B2FFF7C0
:102FD00031FE069B1B0713D5049A019B97B2059AF5
:102FE0009EB295B2691CB81B611800B209B2FFF716
:102FF00021FE781E001B751900B229B2FFF71AFED8
:10300000069BDB0713D5049A019B97B2059A9DB2E4
:1030100096B2711E781B091B013F00B209B23C1B1E
:10302000751BFFF707FE20B229B2FFF703FE039BD3
:103030000133039381E709B0F0BDF0B58BB008937D
:1030400010AB009207910022995E0122099100992C
:1030500006908BB2D21A5B0092B25B4201929BB295
:10306000002205930392039A009913B28B4264DA0B
:1030700001990BB2002B0CDB009B013B1AB2059BA4
:1030800000920233019A9BB299B29B189BB20591B0
:103090000193039B01999BB25D00ADB202932B1C7F
:1030A0000333CB18089A9BB204950193D2071ED51F
:1030B000069B0799009A9FB2099B8EB294B202991F
:1030C0009DB26200781C0818AA18311B00B209B220
:1030D00012B2FFF723FE029A711E049B891AAA1CE2
:1030E000E4199A1820B209B212B2FFF717FE089934
:1030F00089071ED5069A079B009997B2099A9EB236
:103100008CB2029B95B2781E6200C01A311BAA18BD
:1031100000B209B212B2FFF701FE029A711E049BBF
:10312000891AAA1C3C1B9A1820B209B212B2FFF7E6
:10313000F5FD03990131039195E70BB0F0BDF0B5B2
:1031400089B01F1C0EAB061C00201C5E0D1C012C40
:1031500004DC301C3B1CFFF7FEFD52E0B1B2A3B211
:103160000391019359185B005B4292B29BB20593A5
:103170009B1808B219B207910492291C079ABFB292
:103180000290ADB2FFF7D7FD7B1EEB189BB219B2D0
:103190000298079A0693FFF7CEFD059B019ADF1967
:1031A00055192DB23FB2301C291C3A1CFFF7B6FD51
:1031B000049E0398013E8619B6B230B2291C3A1C0F
:1031C000FFF7ACFD291C0298221C0123FFF7A4FE87
:1031D0000199221C761A36B2291C301C0223FFF7F3
:1031E0009BFE069A019B301CD51A2DB2291C221C6D
:1031F0000423FFF791FE0298291C221C0823FFF7E5
:103200008BFE09B0F0BDF0B587B00E1C0CA90025EF
:103210004C5F012C03DC311CFFF7B8FD2EE0A5B29A
:1032200092B203926A0080B2039952422F1892B26E
:10323000013B04929BB23FB252180290311C05939D
:1032400012B21BB2381CFFF7A1FD049A059903982E
:103250005318029A01381018AE19451B28B236B21D
:103260001DB2311C221C01230095FFF7E6FE0095DC
:10327000381C311C221C0223FFF7DFFE07B0F0BD13
:10328000054B18600278054B01321A704278044BE6
:1032900001321A707047C046B4040010AF04001029
:1032A00095020010124A134B10B5041C1A60FFF768
:1032B0002BFC114B01221A70104BDC221A80104B90
:1032C000B02210481A80FFF7DBFF0F4B11221A8043
:1032D0000E4A002313800E4A042111700D4A201C4F
:1032E00013600D4A136093611363936410BDC0466D
:1032F00026050010980200101C0500109E02001008
:10330000BA040010606D000018010010B004001035
:103310009C020010A0040010BC040010F0B589B09D
:1033200004935B42041C01910292994200DAF7E196
:10333000CD4B1A78914200DDF2E1029D6B4298423A
:1033400000DAEDE1C94B1B78984200DDE8E1C8499D
:10335000097801292AD82B1C0733DB100393002698
:10336000B2B2029D13B2AB4200DBD9E10727DB10FA
:103370003A409BB2802705931741002504982BB251
:10338000834211DA039A05986A430E9903B28A18A8
:10339000D35C1F4206D0019A3019A91800B209B2B5
:1033A000FFF748FC0135E9E70136D9E7032900D9E1
:1033B000B0E0B04B0026995F002973DDAE4BA5B29B
:1033C00000201A5E0395251C944200DA151C039E0A
:1033D000AA4BAD1B00201B5E029ED218A419ADB2F1
:1033E000944200DD141C039EA54BA41B00201B5E11
:1033F000019EA4B20594B7B2321C9E4200DA1A1C98
:10340000D21B019E049892B206925A183318934226
:1034100000DD131C029EDB1B9BB2B61001930296CB
:10342000059E2BB232B2934200DB79E1DA17920F9C
:10343000D2189210934E92B204921E4004D50423E7
:10344000013E5B421E43013636B27600C023334153
:10345000DBB2069C0793019823B202B293421EDAB4
:103460000298049943430E980AB2C3189B5C0799CB
:1034700006220B40921B1341834A11889AB2914253
:103480000AD00F221340814A39191380039A09B2D6
:10349000501900B2FFF7CEFB0134A4B2DBE70135CF
:1034A000ADB2BDE7029DAD1005950025ABB2029E01
:1034B0001FB2B74200DB33E1032213405B000393EA
:1034C000039EC02333410E9EDBB2BF10F719069353
:1034D0000026049833B283421ADA03993B7806989F
:1034E0000622521A03401341674A11889AB2914248
:1034F0000AD00F221340654A28191380019A00B29E
:10350000B11809B2FFF796FB059B0136FF18E0E7FB
:103510000135CBE7019D049EA919002D0BDA0DB2F0
:10352000029E0495019D72106A430E9E0025B61AF4
:103530000E96019507E0914205DD049E019D9219CA
:10354000521B16B20496002C12DA029DA2B201217F
:103550001140644252190E9D6410A0B22D19490009
:1035600016B200248FB2029603900E95A44618E07E
:10357000029EA119994210DDA2B20120151C05403E
:103580008540C91A20408446491061449A1AAFB256
:1035900089B215B20391029503E00026B446039662
:1035A000371C019D5B106B4362109B18384A0695CF
:1035B0001268D318069E049D7219019E964200DB84
:1035C000AEE0294A019E1278964200DBA8E038B2AC
:1035D0000590221C201CE10700D57AE0029D059E83
:1035E0002A19921B904226DA0E9D2978002F04D0CA
:1035F0006D7809012D112943C9B2234D1A782E88FF
:103600000D11B54208D00F25154000950A1C0F2555
:10361000AA43151C009A2A430F252940B14202D023
:10362000AA430A43D2B20E9E023001361A700E9699
:10363000013300B2D2E7002F13D0ED070DD50E9D58
:1036400011482A7800880F21151C0D40854204D0AE
:10365000187812010140114319700E9E0133013692
:103660000E96039802B24CE01A01001016010010E9
:103670009C020010140100101E0500100C01001027
:103680002405001003000080180100101001001034
:10369000980200100E9E19783078224E0511368857
:1036A000B54202D00F26B14329431E4E1970368809
:1036B00001330F2519780540B54204D00F260001CB
:1036C00031400143C9B20E9D0232013519700E9589
:1036D00012B2029E05983119091A8A42DADB002FCC
:1036E0000DD0F6070BD50E9D0E492A7809881211C8
:1036F000914204D019780F20814311431970039E21
:1037000032B20E9D029EAD18074A0E951278921B9A
:10371000521062449B18019A013215B2019549E793
:1037200009B0F0BD180100101601001013B514788F
:10373000537802320092221CFFF7F0FD13BD000007
:1037400008B5084B00B21B6809B29B78D21A064B29
:10375000D2B21B78002B02D0FFF79EF801E0FFF7F2
:103760000FFA08BDB40400101C050010024B1878B5
:10377000431E9841C0B270471C05001009490A4A0F
:103780000A4B002805D001200870DC211180B022EE
:1037900005E00870064909781180064A12781A80F7
:1037A0007047C0461C0500109E020010BA040010AD
:1037B000160100101A01001038B50B4B0B481B689E
:1037C00004885B780A4A5800241A0A48118800784D
:1037D0000DB240B2A54203DDC018FFF711FB02E0B5
:1037E000C3185918118038BDB4040010BA04001071
:1037F000AC0400100E01001038B52A4B041C1B68E5
:10380000DA78002A03D0602801D9203CE4B20E2CDB
:1038100021D8201C01F020FA441F1F1F1F1F1F1F4B
:103820000E1F081F1F1B44001F4B00221A80FFF7AA
:10383000C3FF35E01C4A1B781088C01A1B4B80B2AE
:10384000108019782022C0B2FFF77AFF28E0164BCB
:1038500000221A8024E0144D1549288809881B7815
:1038600002B2CB1A9A4209DB00232B80114B1B7842
:10387000002B15D0FFF7A0FF287800E0C0B20B4B5B
:10388000221C1978FFF75CFF202C06D10A4B1B780D
:103890005BB2002B01D0401001302B88C01828806B
:1038A00038BDC046B4040010B8040010AC040010C9
:1038B0009E020010090100101301001010B5041C35
:1038C0002078002803D00134FFF796FFF8E710BDF9
:1038D00008B5FFF7F3FF08BD024B1880024B1980B3
:1038E0007047C046B8040010AC040010F0B50024C6
:1038F00089B0051C0E1CA04203D13020FFF77CFFCD
:103900001BE000AB281C0134311C1F1901F0F2F937
:10391000013F3970281C311C01F0A8F9051EF0D1B7
:10392000013C6B46185D092801D8303000E0373083
:10393000C0B2FFF761FF002CF2D109B0F0BD08B5AD
:10394000002903D1C0B2FFF757FF02E0C9B2FFF769
:10395000CDFF08BD10B5041E03DA2D20FFF74CFF84
:103960006442201C0A21FFF7C1FF10BD08B50029E1
:1039700003D1C0B2FFF740FF07E00A2902D1FFF7E9
:10398000E9FF02E0C9B2FFF7B1FF08BD08B5FFF7D4
:10399000EDFF08BD08B5FFF7E9FF08BD10B5044C01
:1039A000208004480180101C191CFFF7DFFF10BDA8
:1039B000B8040010AC04001008B50D20FFF71CFF80
:1039C0000A20FFF719FF08BD08B5FFF777FFFFF7DB
:1039D000F3FF08BD08B5FFF7B2FFFFF7EDFF08BD25
:1039E00008B50248FDF75AFF08BDC046AE040010F6
:1039F0000023C15A044AD1528021023389008B42EC
:103A0000F7D1024B1A607047A0020010A804001002
:103A10008910D21049011143C010C302081C184379
:103A20007047000038B5041C0025A2782078617822
:103A3000FFF7EEFF054B8022585302350334920006
:103A40009542F2D1024A136038BDC046A002001070
:103A5000A804001070B5031C1F2423400C40E41A76
:103A600024B2544324124E111C193F2543112B40FC
:103A7000C00A3540C912091AED1A55434A431212B9
:103A80008018C243A4B2D217104022B2D2432D12E2
:103A9000D2175B191440C0022043DC43E4172340D3
:103AA0005B01184380B270BD70470000C343DB1751
:103AB0001840044B1B88984200DD18B2024B188056
:103AC0007047C0461C0100104618001008B50028B9
:103AD00003DBFF2802DDFF2000E00020034B1880FD
:103AE000034B0022985EFFF7E1FF08BD1C010010A8
:103AF0004618001008B5054B1888202801D9103049
:103B000000E0083000B2FFF7D1FF08BD46180010F2
:103B100008B5054B1888202801D9203800E008385E
:103B200000B2FFF7C3FF08BD46180010014B18880C
:103B30007047C0464618001008B50248FDF7AEFEB3
:103B400008BDC04648180010014B01221A71704789
:103B5000301A0010014B00221A717047301A001001
:103B6000014B01225A717047301A0010014B00229C
:103B70005A717047301A0010014B01229A71704738
:103B8000301A0010014B00229A717047301A001051
:103B9000014B01225A707047301A0010014B00226D
:103BA0005A707047301A0010014B0122DA707047CA
:103BB000301A0010014B0022DA707047301A0010E2
:103BC000014B00229A707047301A0010014B0022FE
:103BD0001A707047301A001008B5054B9A79002A00
:103BE00002D0FFF787FF01E001229A7008BDC046AE
:103BF000301A001008B5054B9A79002A02D0FFF759
:103C000087FF01E001221A7008BDC046301A00107B
:103C100010B5204C2049201CFCF71EFF201C1F491A
:103C2000FCF70AFF1E4C1F49201CFCF715FF201C47
:103C30001D49FCF701FF1D4C1D49201CFCF70CFF22
:103C4000201C1C49FCF7F8FE1B4C1C49201CFCF7EF
:103C500003FF201C1A49FCF7EFFE1A4C1A49201CDE
:103C6000FCF7FAFE201C1949FCF7E6FE184C19492E
:103C7000201CFCF7F1FE201C1749FCF7DDFE174C59
:103C80001749201CFCF7E8FE201C1649FCF7D4FE5F
:103C900010BDC046381A0010553B0000493B0000DB
:103CA000E01900106D3B0000613B00004C18001053
:103CB000853B0000793B0000901900109D3B0000FF
:103CC000913B00009C180010B53B0000A93B000090
:103CD000F0180010CD3B0000F53B0000401900102B
:103CE000C13B0000D93B0000014B18797047C0462A
:103CF000301A0010014B58797047C046301A001036
:103D0000014B98797047C046301A0010014B187863
:103D10007047C046301A0010014B98787047C04673
:103D2000301A001070B52648FFF7BCFA254E264918
:103D3000301CFCF75DFE254D254C291C221C301C37
:103D4000FDF768F8234E2449301CFCF751FE291C6E
:103D5000221C301CFDF75EF8204E2149301CFCF778
:103D600047FE291C221C301CFDF754F81D4E1E492D
:103D7000301CFCF73DFE291C221C301CFDF74AF8C4
:103D80001A4E1B49301CFCF733FE291C221C301C28
:103D9000FDF740F8174E1849301CFCF729FE291C86
:103DA000221C301CFDF736F8144E1549301CFCF768
:103DB0001FFE301C291C221CFDF72CF870BDC046CC
:103DC000EC180010381A001084120100C509000018
:103DD00000010010E0190010700801004C180010DC
:103DE0008814010090190010941A01009C1800100A
:103DF0006C060100F0180010C432010040190010D8
:103E00007C0E0100074B1A8882420AD01880064AAD
:103E10000649A0231B0699500549C00058500021AF
:103E200099507047881A0010882000000700F8FF9A
:103E30008821000038B5A0248A23240604229B018F
:103E4000E250074D80235B046351FFF7DBFF054A17
:103E500080235B01A350C046C046635138BDC046B5
:103E6000042200008422000038B5A0248823240600
:103E700004229B01E250074D80235B046351FFF74E
:103E8000C1FF054A80235B01A350C046C046635171
:103E900038BDC046042200008422000010B5074C43
:103EA0000749201CFDF7CEF9201C0521FDF7A9F9D3
:103EB000201C0449FDF782F910BDC0468C1A001081
:103EC000FC0402009A99993E10B5041C2020FFF7CB
:103ED000B1FF0020FFF7C8FF2120FFF7ABFF002054
:103EE000FFF7C2FF2220FFF7A5FF201CFFF78AFF84
:103EF000A02388221B060421920199500A4A80219E
:103F000049049950802149019950084B084CA0213F
:103F10008020090640010851C046C046013B885038
:103F2000002BF3D110BDC0460422000040970000D2
:103F30008422000010B52020FFF77CFF0020FFF74F
:103F400093FF2120FFF776FF0020FFF78DFF22204F
:103F5000FFF770FF0020FFF755FFA02388221B0604
:103F60000421920199500A4A8021490499508021E4
:103F700049019950074B084CA021802009064001B7
:103F80000851C046C046013B8850002BF3D110BDFC
:103F900004220000409700008422000070B5794E92
:103FA000A02501242D06FFF779FFAC510A20FCF76C
:103FB0006AFE754B0A20EC50FCF765FEAC510A20F6
:103FC000FCF761FE201CFFF735FF8E20A040FFF7B5
:103FD0004BFF0220FFF72EFF8020A040FFF744FF99
:103FE0000320FFF727FF6948FFF73EFF0820FFF790
:103FF00021FF6748FFF738FF0C20FFF71BFF002069
:10400000FFF732FF0F20FFF715FF201CFFF72CFFF3
:104010002020FFF70FFF0020FFF726FF2120FFF7EA
:1040200009FF0020FFF720FF1020FFF703FF00200B
:10403000FFF71AFF1120FFF7FDFE80204001FFF778
:1040400013FF0A20FCF71FFE3020FFF7F3FE0020CD
:10405000FFF70AFF3120FFF7EDFEDB20FFF704FF3B
:104060003220FFF7E7FE0020FFF7FEFE3320FFF7C8
:10407000E1FE0020FFF7F8FE3420FFF7DBFEDB2037
:10408000FFF7F2FE3520FFF7D5FE0020FFF7ECFE2C
:104090003620FFF7CFFEAF20FFF7E6FE3720FFF711
:1040A000C9FE0020FFF7E0FE3820FFF7C3FEDB204B
:1040B000FFF7DAFE3920FFF7BDFE0020FFF7D4FE40
:1040C0000A20FCF7E0FDFF20FFF7B4FE0320FFF716
:1040D000CBFE5020FFF7AEFE2E48FFF7C5FE512065
:1040E000FFF7A8FE2C48FFF7BFFE5220FFF7A2FE05
:1040F0002A4D0520FFF7B8FE5320FFF79BFE281C32
:10410000FFF7B2FE5420FFF795FE2548FFF7ACFEFF
:104110005520FFF78FFE234C0320FFF7A5FE562006
:10412000FFF788FE201CFFF79FFE5720FFF782FE57
:104130001D48FFF799FE5820FFF77CFE281CFFF76B
:1041400093FE5920FFF776FE201CFFF78DFEB0206E
:10415000FFF770FE1548FFF787FEFF20FFF76AFEA6
:104160000020FFF781FE0720FFF764FE1048FFF7ED
:104170007BFEC820FCF787FD2220FFF75BFEFFF7E0
:10418000D9FE70BD0422000084220000301000001F
:104190000808000003020000090A000021100000C6
:1041A00002060000030700000705000001250000CB
:1041B00017100000F8B584B2171CDB2C26D88DB27E
:1041C000AF2D23D82020FFF735FE281CFFF74CFE2B
:1041D0002120FFF72FFE201CFFF746FE2220FFF7CD
:1041E00029FEA0248823240604229B01E250084DC6
:1041F000802380265B0476016351381C6651FFF7EB
:1042000001FE044BE650C046C0466651F8BDC046AC
:104210000422000084220000F7B51C1C08AB1B8898
:104220000193904202DD031C101C1A1CA14202DD06
:104230000B1C211C1C1CDC2847DCB02945DC131C92
:10424000DC2A00DDDC231AB20092B02C00DDDC2475
:10425000CE43F617C743FF17314007400EB2009A0E
:10426000974232DC2020FFF7E5FDB0B2FFF7FCFDFE
:10427000BFB22120FFF7DEFD381CFFF7F5FD22203D
:10428000FFF7D8FDA0228823120604219B01D150FC
:104290000E4B80214904D15080214901D150351C59
:1042A000A5420FDA0198FFF7ADFD0949A02380224E
:1042B0001B0652015A50C046C046044901355A50A7
:1042C0002DB2EDE701373FB2C9E7F7BD0422000088
:1042D00084220000F0B5DFB0059020200491FFF7A4
:1042E000A9FD0020FFF7C0FD2120FFF7A3FD00205E
:1042F000FFF7BAFD2220FFF79DFDA02388221B06B1
:10430000920104219950BB4C802252041A51802200
:10431000520100251A510395039E059D7210AA189B
:1043200000231178049E08114000805B1825ED18C9
:104330006E46A85306ADE8180F252940049E490093
:10434000895BB030023301803732B02BE9D10025D0
:104350000295029D06AEA85B8027A74DA0263606D3
:104360007F01FFF74FFD7751C046C0463751775167
:10437000C046C046029B06AAD21837515088019207
:10438000FFF740FD7751C046C04637517751C046D0
:10439000C046019A37519088FFF734FD7751C046E7
:1043A000C04637517751C046C046019B3751D88827
:1043B000FFF728FD7751C046C04637517751C046B8
:1043C000C046019A37511089FFF71CFD7751C0464E
:1043D000C04637517751C046C046019B3751588976
:1043E000FFF710FD7751C046C04637517751C046A0
:1043F000C046019A37519089FFF704FD7751C046B6
:10440000C04637517751C046C046019B3751D889C5
:10441000FFF7F8FC7751C046C04637517751C04688
:10442000C0463751029E10360296B02E00D090E75B
:1044300000260296029E06AAB05A8027A0263606BB
:104440007F01FFF7DFFC7751C046C04637517751F7
:10445000C046C046029B06AAD21837515088019226
:10446000FFF7D0FC7751C046C04637517751C04660
:10447000C046019A37519088FFF7C4FC7751C04677
:10448000C04637517751C046C046019B3751D88846
:10449000FFF7B8FC7751C046C04637517751C04648
:1044A000C046019A37511089FFF7ACFC7751C046DE
:1044B000C04637517751C046C046019B3751588995
:1044C000FFF7A0FC7751C046C04637517751C04630
:1044D000C046019A37519089FFF794FC7751C04646
:1044E000C04637517751C046C046019B3751D889E5
:1044F000FFF788FC7751C046C04637517751C04618
:10450000C0463751029E10360296B02E00D091E779
:104510005EAE029632AE0196019E80273088A026BC
:1045200036067F01FFF76EFC7751C046C046375113
:104530007751C046C046019A37515088FFF762FC58
:104540007751C046C04637517751C046C046019B9F
:1045500037519888FFF756FC7751C046C04637510F
:104560007751C046C046019A3751D088FFF74AFCC0
:104570007751C046C04637517751C046C046019B6F
:1045800037511889FFF73EFC7751C046C046375176
:104590007751C046C046019A37515089FFF732FC27
:1045A0007751C046C04637517751C046C046019B3F
:1045B00037519889FFF726FC7751C046C0463751DE
:1045C0007751C046C046019A3751D089FFF71AFC8F
:1045D0007751C046C04637517751C046C046375123
:1045E000019E029A10360196964200D094E732AEB0
:1045F000019603E00422000084220000019E80272F
:104600003088A02636067F01FFF7FCFB7751C046B5
:10461000C04637517751C046C046019A375150883D
:10462000FFF7F0FB7751C046C04637517751C0467F
:10463000C046019B37519888FFF7E4FB7751C0468D
:10464000C04637517751C046C046019A3751D0888D
:10465000FFF7D8FB7751C046C04637517751C04667
:10466000C046019B37511889FFF7CCFB7751C046F4
:10467000C04637517751C046C046019A37515089DC
:10468000FFF7C0FB7751C046C04637517751C0464F
:10469000C046019B37519889FFF7B4FB7751C0465C
:1046A000C04637517751C046C046019A3751D0892C
:1046B000FFF7A8FB7751C046C04637517751C04637
:1046C000C0463751019E029A10360196964200D09C
:1046D00094E7039D023503956E2D00D01CE65FB074
:1046E000F0BDC046F0B585B0061C039172B6494BCB
:1046F000984202D8050B2B0314E0474B1C25984227
:104700000DD8464B1B25984209D8454B1A2598428F
:1047100005D8444B002583426D4119235D1B424A55
:10472000AB189B03F31A414C414F5A425341DBB241
:104730003222029322606560A560201C391C3D4B2B
:1047400098473A68002A01D0012060E0029B002BC4
:1047500004D1E4239B029E4220D040E0364A342319
:104760001268FA21101C236089006560A56001921F
:1047700000F07CFA391CE0602E4B201C98473A6808
:10478000002AE1D1322323606560A560201C391C1A
:10479000284A90473B68002BDBD0D5E73B232360BA
:1047A000E0239B006360254BFA21A360224B890024
:1047B000186800F05BFA1E4FE060391C201C1D4A8F
:1047C00090473B68002BBFD1322323606560194BB3
:1047D000A560201C391C98473B68002BB4D13323BB
:1047E0002360039B144AA36080235B00FA21E360EB
:1047F00010688900666000F039FA0D4D2061291CAF
:10480000201C0C4B9847286800289DD162B605B043
:10481000F0BDC046FF7F0100FF7F0300FFFF0200E5
:10482000FF7F0200FFFF0100EEFF0300941B00105A
:10483000A81B0010F11FFF1F04010010FF03000060
:1048400013B56C460734211C012203F099FE207831
:1048500016BD07B56B46D9710733191C012203F049
:1048600069FE07BD024B1A680A321A607047C046DB
:10487000B81B0010044B054A07215A6000229A60B9
:104880001960034B1A60704710E000E0FF52070008
:10489000B81B0010014B18687047C046B81B0010C9
:1048A0007047000008B58022A0231B06920199588A
:1048B0000420014399502A4A802198584901014314
:1048C00099509858802149040143995099580120E2
:1048D00001439950234A2448995801439950234849
:1048E0000021FCF73BFC22480021FCF737FC214863
:1048F0000021FCF733FC20480021FCF72FFC1F4867
:104900000021FCF72BFC1E480021FCF727FC1D486A
:104910000021FCF723FC1C480021FCF71FFC1B486E
:104920000021FCF71BFC1A480021FCF717FC194872
:104930000021FCF713FC18480021FCF70FFC174876
:104940000021FCF70BFC16480021FCF707FC15487A
:104950000021FCF703FC14480021FCF7FFFB08BD15
:104960000420000008200000F8FF070000070200F4
:1049700004090200080B02000C0D0200100F0200D7
:1049800014110200181302001C1502002017020067
:1049900024190200281B02002C1D0200301F0200F7
:1049A00034210200382302003C25020008B5064BE2
:1049B0000648197800F0A8F9054B186039235843C8
:1049C000044B188008BDC04624010010983A00002E
:1049D000C41B0010C01B0010F0B556464D4644469F
:1049E0005F46F0B4524A4F007F0D83B0BE18041CDE
:1049F0000D1C89468A4680460197132E2ADC002E1C
:104A000056DB4C4F021C37413B1C0B4003439C467A
:104A1000BB4667460B1C002F13D0424B404A01F0A7
:104A200021F9414A414B00F0FBF9002807D0002D45
:104A30004EDB53465F46BB430022994690464B46A9
:104A40004246101C191C03B03CBC90469946A24635
:104A5000AB46F0BD332E0BDD0B1C8021021CC900C0
:104A60008E42EED1291C01F0FDF8021C0B1CE8E778
:104A7000019F314ABB1801225242DA4093465F46F9
:104A8000021C0B1C0742DCD0264B254A01F0EAF839
:104A9000254A264B00F0C4F90028D0D0002D1DDB9C
:104AA00042465B469A439046D1464B464246C8E74B
:104AB0001C4B1B4A01F0D6F81B4A1C4B00F0B0F906
:104AC0000028BCD0002D17DB0027B846B946B6E752
:104AD00080235B0333415E19B246AAE7142E19D036
:104AE000164B019A9F1A0123BB401B199C420FD9F8
:104AF0006F1CBA469846D3E76B005B081C4302D193
:104B00000027B8469BE70E4F00239846B94696E724
:104B10009846C5E76B1C9A46C2E7C046C046C046E9
:104B20009C7500883CE4377E000000000000000017
:104B300001FCFFFFFFFF0F00EDFBFFFF3304000050
:104B40000000F0BFC046C04670B50E4B0E4D0024AD
:104B5000ED1AAD101E1CAC4204D0A300F3589847C8
:104B60000134F8E703F012FB084B094D0024ED1A5D
:104B7000AD101E1CAC4204D0A300F358984701347A
:104B8000F8E770BD988100009881000098810000CE
:104B9000BC81000008B5034B011C186800F00CF83C
:104BA00008BDC04688010010031C8218934202D041
:104BB00019700133FAE7704730B5002940D0043945
:104BC0000B68002B00DAC9181E4A1368141C002B4E
:104BD00002D14B60116033E099420FD208680A1885
:104BE0009A4205D113685268C01808604A6000E014
:104BF0004B60216024E08A4203D8131C5A68002AC3
:104C0000F9D11D685C198C420BD1096869185818D4
:104C10001960904214D114685268091919605A60D9
:104C20000EE08C4202D90C23036009E008680C18DE
:104C3000944203D114685268001908604A605960B0
:104C400030BDC046C81B0010031C0A7801311A7021
:104C50000133002AF9D1704702B47146490849006E
:104C6000095C49008E4402BC7047C046002934D01C
:104C70000123002210B488422CD301242407A1422E
:104C800004D2814202D209011B01F8E7E400A142EB
:104C900004D2814202D249005B00F8E7884201D386
:104CA000401A1A434C08A04202D3001B5C0822435E
:104CB0008C08A04202D3001B9C082243CC08A042CF
:104CC00002D3001BDC082243002803D01B0901D0BB
:104CD0000909E3E7101C10BC7047002801D0002030
:104CE000C04307B4024802A14018029003BDC04669
:104CF000D90000000029F0D003B5FFF7B9FF0EBCC2
:104D00004243891A1847C046002941D010B4041CF8
:104D10004C40A44601230022002900D54942002826
:104D200000D5404288422CD301242407A14204D25A
:104D3000814202D209011B01F8E7E400A14204D23A
:104D4000814202D249005B00F8E7884201D3401A51
:104D50001A434C08A04202D3001B5C0822438C0873
:104D6000A04202D3001B9C082243CC08A04202D3DD
:104D7000001BDC082243002803D01B0901D00909CD
:104D8000E3E7101C6446002C00D5404210BC70477D
:104D9000002806D003DB0020C043400801E080204B
:104DA000000607B4024802A14018029003BDC046A5
:104DB000190000000029EBD003B5FFF7A7FF0EBCD8
:104DC0004243891A1847C0467047C0468446101CA3
:104DD00062468C46191C634600E0C0461FB501F0D0
:104DE0002BFB002801D40021C8421FBD10B501F0E3
:104DF0005BFA4042013010BD10B501F01DFB0028E8
:104E000001DB002010BD012010BDC04610B501F02F
:104E100013FB002801DD002010BD012010BDC0469D
:104E200010B501F08BFA002801DC002010BD012034
:104E300010BDC04610B501F081FA002801DA00204B
:104E400010BD012010BDC0468446081C6146FFE726
:104E50001FB500F04FFB002801D40021C8421FBD40
:104E600010B500F0D5FA4042013010BD10B500F089
:104E700041FB002801DB002010BD012010BDC04611
:104E800010B500F037FB002801DD002010BD012027
:104E900010BDC04610B500F0E5FA002801DC002086
:104EA00010BD012010BDC04610B500F0DBFA00288F
:104EB00001DA002010BD012010BDC0469E2110B5B2
:104EC000C905041CFFF7F0FF002803D1201C00F0E7
:104ED000FDFD10BD9E21C905201C00F081FC00F0E5
:104EE000F5FD80231B06C018F3E7C046F8B5430262
:104EF0004400C50F4E024800240E2A1C9B09000ED8
:104F0000C90FB6098D425BD0221A002A00DC89E065
:104F100000281DD1002E00D075E0580704D00F22C4
:104F20001A40042A00D004338021C90419402A1CE5
:104F300000293AD00134FF2C00D17FE09B015B0AAD
:104F40005B02E4B2E405580AD20720431043F8BDDF
:104F5000FF2CE2D08021C9040E431B2A00DD2DE185
:104F6000311C2020D140821A9640721E96410E4379
:104F70009B1B5801D1D59B019F09381C01F060FB98
:104F8000421F974094425BDC141B1F231B1B3A1CDF
:104F90009F40611C3B1CCA405F1EBB411343002461
:104FA000BBE7131EB9D100230022DB08FF2C04D17C
:104FB000002B43D08020C00303435B025B0ABFE7A2
:104FC000211A002940DD002823D0FF2CA5D0802005
:104FD000C00406431B2900DDEEE0301C2027C8403A
:104FE000791A8E40711E8E4106439B19590100D4D7
:104FF00093E70134FF2C55D0714901221A400B4030
:105000005B08134389E7013A002AB1D0FF2CA4D1F1
:1050100083E7002E00D180E701390029E5D0FF2C7D
:10502000D8D17AE7002A1BD1621CD2B2012A4BDD0B
:105030009F1B7A0123D5F71A0D1C9EE700237FE7FB
:105040005F4BA41A3B4068E7002946D1611CC8B2F7
:10505000012829DDFF2924D0F3185B080C1C5CE72C
:10506000002C13D0FF2818D08024E404524223439C
:105070001B2A4DDD0123F31A041C0D1C79E7002FB8
:1050800000D07AE70023002200248EE7002B3BD0DB
:10509000D243002AEFD0FF28EAD1331CFF240D1C95
:1050A0003BE7FF24002380E7002C5CD1002B00D1DC
:1050B00080E0002E00D130E79B19580100D42CE786
:1050C0003F4A0124134028E7002C15D1002B40D182
:1050D000002E63D0331C0D1C1FE7002C21D1002BA8
:1050E00054D0C943002904D0FF284CD01B2958DDD7
:1050F00001239B19041C79E7002B19D1002E48D0FD
:10510000331C0D1CFF2408E7331C041C0D1C04E792
:105110001C1C2025D440AA1A93405A1E93412343B5
:10512000A9E7FF282FD08024E40449422343DDE788
:10513000FF24002E00D1F0E68022DB08D2031342C8
:1051400004D0F608164201D1331C0D1CDB00FF24ED
:10515000E3E6002E00D1E0E69A1B500100D420E7E0
:10516000F31A0D1CD9E6002B0DD0FF24002E00D120
:10517000D3E68022DB08D2031342E7D0F6081642BA
:10518000E4D1331CE2E7331CFF24C6E6331C041CC5
:10519000C3E6802300229B04FF2406E7231C002291
:1051A00003E71C1C2027CC40791A8B40591E8B41E9
:1051B00023439EE7331CB0E6012616E70126D7E617
:1051C000FFFFFFFBF0B55F4656464D464446F0B440
:1051D00046024500C00F85B00F1C760A2D0E804692
:1051E00041D0FF2D26D08024240400212643F60040
:1051F0007F3D89468B46F90F7C027800640A000ED9
:1052000000918A463CD0FF2834D080231B041C43E5
:105210000023E4007F380193009F4346019A7B40BE
:1052200049469C4611430F2900D971E0764F890009
:105230007F58BF46002E3ED10822022391469B464E
:10524000D9E75A46341CC24601920199022937D047
:10525000032900D1CFE0012900D0ABE053460B4039
:105260000022002632E0002E19D1042101228946B5
:105270009346C0E7221C531E9A4102320192CBE7AB
:1052800001270197002CC7D0201C01F0D9F9431F3A
:105290009C4076235B420021181A0191BCE7301C28
:1052A00001F0CEF97625431F9E406D4200232D1A52
:1052B00099469B469FE70C23032199468B469AE724
:1052C000D446012367463B40FF2200267602D205E2
:1052D000700ADB071043184305B03CBC9046994662
:1052E000A246AB46F0BD80260023F603FF22EDE781
:1052F00000220026EAE78020C00306423BD0044299
:1053000039D1061C26437602760A009BFF22DDE790
:10531000281A039076016401A64239D3361B1A225B
:1053200001230120311C5B007600002901DBB4421F
:1053300001D8361B0343013A002AF3DC741EA64150
:10534000341C1C43039A7F32002A27DD630704D0F4
:105350000F232340042B00D00434270103D52B4B0B
:10536000039A1C408032FE2A0BDD012361460B406C
:10537000FF220026AAE706437602760A4346FF226A
:10538000A4E7A40101236746660AD2B23B409DE729
:10539000039F1B22013F03970023C2E77E23039F45
:1053A0005B42DB1B1B2B07DD012361460B40002208
:1053B00000268BE7D446C5E7221CDA40039B9E33C8
:1053C0009C40231C5C1EA34113435A0704D00F22A8
:1053D0001A40042A00D004335F0105D50123614639
:1053E0000B400122002671E79E0162460123134013
:1053F000760A00226AE78026F60326437602760ABA
:105400005346FF2262E7C0460C810000FFFFFFF712
:105410004A02430270B55C0A550A43004A001B0E5B
:10542000C60F120EC90FFF2B05D0FF2A08D001208E
:1054300093420BD070BD0120002CFBD1FF2AF6D186
:105440000120002DF6D101209342F3D1AC42F1D1DD
:105450008E4205D0002BEDD1201C441EA041E9E76F
:105460000020E7E74A024302F0B55C0A550A430010
:105470004A001B0EC60F120EC90FFF2B31D0FF2A98
:1054800034D0002B16D1604260418446002A14D0EB
:10549000002820D18E4217D1934215DC04DBAC42A8
:1054A00012D80020AC4212D2704270414042012317
:1054B00018430CE0002AEDD194466F426F416046DC
:1054C000002805D1002FE5D0704201231843F0BD1C
:1054D0000020002FFBD1484248414042012318439D
:1054E000F5E7002CCBD002204042F0E7002DC8D0D9
:1054F000F9E7C0464A024302F0B55C0A550A430088
:105500004A001B0EC60F120EC90FFF2B27D0FF2A11
:1055100029D0002B10D0002A15D194466F426F413C
:105520006046002815D00020002F04D14842484191
:10553000404201231843F0BD604260418446002A86
:10554000ECD00028F2D18E4211D0704201231843D2
:10555000F1E7002FF7D0704201231843EBE7022058
:10556000002CE8D1D3E70220002DE4D1D1E793420B
:10557000EBDC04DBAC42E8D80020AC42DBD270426A
:105580007041404201231843D5E7C046F0B55F465D
:1055900056464D464446F0B44402460083B00F1CC4
:1055A000640A360EC50F002E41D0FF2E22D0802374
:1055B0001B0400201C43E4007F3E82468046391CC9
:1055C0004B007F02C90F7F0A1B0E8B463BD0FF2B7F
:1055D00034D0802212041743FF007F3B00215A463B
:1055E0006A40019252460A430F2A63D87A489200D1
:1055F00082589746002C3FD10822022392469846B3
:10560000DDE70195404602282AD1019A012515407F
:10561000FF2300246402DB05600AED0718432843DA
:1056200003B03CBC90469946A246AB46F0BD002C68
:1056300027D10420012282469046C0E7391C4A1E29
:1056400091410231CBE70121002FC8D0381C00F076
:10565000F7FF431F9F4076235B421B1A0021BEE7E2
:10566000032800D1AEE001284FD1019842461040F6
:10567000C5B200230024CDE70C2303209A468046C0
:105680009DE7201C00F0DCFF7626431F9C407642FD
:105690000023361A9A46984691E780240025E403B1
:1056A000FF23B7E75B463C1C01938846AAE73C1CF6
:1056B0008846A7E7250C24043A0C240C3F04F6186E
:1056C0003F0C211C231C794353436F435543FB1864
:1056D0000A0C9B18B1469F4202D980225202AD1893
:1056E00009041A04090C521894011B0C611E8C4108
:1056F000920EED181443AD012C43230105D5012270
:1057000063080120144081441C434B467F33002B27
:105710002DDD600704D00F222240042A00D004347B
:10572000220103D52D4B1C404B468033FE2B17DD49
:10573000019B01251D400024FF236BE78020C0034F
:10574000044208D0074206D1041C3C436402640AA8
:105750005D46FF235EE704436402640AFF2359E7C2
:105760000198A4010125640ADBB2054052E77E23BB
:105770005B424A469B1A1B2B05DD019B01251D4000
:105780000024002346E7221CDA404B469E339C400F
:10579000231C5C1EA3411343580704D00F221A4058
:1057A000042A00D004335A0105D5019B01251D4070
:1057B000002401232EE701989C010125640A05407D
:1057C000002327E78027FF03019B3C436402012558
:1057D0001D40640AFF231DE74C810000FFFFFFF717
:1057E000F8B5C20F430244004D024800240E161CB7
:1057F0009B09000EC90FAD09FF2800D183E00127E6
:1058000079408A425CD0221A002A00DC8EE000280F
:105810001ED1002D00D07AE0580704D00F221A4084
:10582000042A00D004338021C904012219403240E7
:1058300000293AD00134FF2C00D183E09B015B0AA0
:105840005B02E4B2E405580AD20720431043F8BDD6
:10585000FF2CE1D08021C9040D431B2A00DD31E17A
:10586000291C2020D140821A95406A1E95410D4383
:105870005B1B5801D0D59B019F09381C00F0E0FE4E
:10588000421F974094425FDC141B1F231B1B3A1CD2
:105890009F40611C3B1CCA405F1EBB411343002458
:1058A000BAE7131EB8D100230022DB08FF2C04D175
:1058B000002B47D08020C00303435B025B0ABFE795
:1058C000211A002944DD002827D0FF2CA4D08020F5
:1058D000C00405431B2900DDF2E0281C2027C84036
:1058E000791A8D40691E8D4105435B19590100D419
:1058F00092E70134FF2C59D0734901221A400B4022
:105900005B08134388E7002D00D07AE777E7013A78
:10591000002AADD0FF2CA0D17EE7002D00D17BE77F
:1059200001390029E1D0FF2CD4D175E7002A1BD121
:10593000621CD2B2012A4BDD5F1B7A0123D5EF1A1C
:105940000E1C9AE700237BE75F4BA41A3B4063E7FA
:10595000002946D1611CC8B2012829DDFF2924D0C5
:10596000EB185B080C1C57E7002C13D0FF2818D04D
:105970008024E404524223431B2A4DDD0123EB1A09
:10598000041C0E1C75E7002F00D076E700230022D0
:1059900000248AE7002B3BD0D243002AEFD0FF2817
:1059A000EAD12B1CFF240E1C36E7FF2400237CE7E2
:1059B000002C5CD1002B00D180E0002D00D12BE722
:1059C0005B19580100D427E73F4A0124134023E71D
:1059D000002C15D1002B40D1002D63D02B1C0E1CA8
:1059E0001AE7002C21D1002B54D0C943002904D040
:1059F000FF284CD01B2958DD01235B19041C75E7D7
:105A0000002B19D1002D48D02B1C0E1CFF2403E7BE
:105A10002B1C041C0E1CFFE61C1C2026D440B21AB2
:105A200093405A1E93412343A9E7FF282FD0802497
:105A3000E40449422343DDE7FF24002D00D1EBE6D7
:105A40008022DB08D203134204D0ED08154201D1B5
:105A50002B1C0E1CDB00FF24DEE6002D00D1DBE654
:105A60005A1B500100D41CE7EB1A0E1CD4E6002B85
:105A70000DD0FF24002D00D1CEE68022DB08D2031A
:105A80001342E7D0ED081542E4D12B1CE2E72B1CB2
:105A9000FF24C1E62B1C041CBEE6802300229B04CD
:105AA000FF2402E7231C0022FFE61C1C2027CC4019
:105AB000791A8B40591E8B4123439EE72B1CABE682
:105AC000012512E70125D3E6FFFFFFFB4302590A38
:105AD0004300C20F1B0E00207E2B0DDD9D2B0CDC26
