:1000000000800010FD000000CF390000D139000051
:10001000000000000000000000000000630BFFEF84
:10002000000000000000000000000000D3390000C4
:100030000000000000000000D5390000A980000089
:10004000CD390000CD390000CD390000CD39000098
:10005000CD390000CD390000CD390000CD39000088
:10006000CD390000CD390000CD390000CD39000078
:10007000CD390000CD390000CD390000CD39000068
:10008000CD390000CD390000CD390000CD39000058
:10009000CD390000CD390000CD390000CD39000048
:1000A000CD390000CD390000CD390000CD39000038
:1000B000CD390000CD390000CD390000000000002E
:1000C0006838010000010010B40000006838010029
:1000D00000000020000000006838010000400020FF
:1000E00000000000B8010010245F000000000020A4
:1000F00000000000004000200000000010B5104C7F
:10010000104B9C4206D2A2686168206803F063FC31
:100110000C34F5E70C4B9C4205D26168206803F073
:1001200063FC0834F6E703F0BBFB084B002B02D05E
:1001300000E000BF03E009F047FA02F093FCFEE79D
:10014000C0000000E4000000FC000000000000000F
:1001500010B5064C2378002B07D1054B002B02D09D
:10016000044800E000BF0123237010BDB801001057
:100170000000000068380100084B10B5002B03D0C8
:100180000749084800E000BF07480368002B00D17A
:1001900010BD064B002BFBD09847F9E7000000008C
:1001A000BC01001068380100B4010010000000001C
:1001B00010B50400012001F089FF0BF01DF8A36BBE
:1001C000206463640023A364013BA360E3600B33FA
:1001D0002361636110BDFFFF10B50400034B0833BA
:1001E000036001F029FC200010BDC04644D000008F
:1001F00010B50400FFF7F0FF200003F003FC20001F
:1002000010BDC36A73B50400162B1AD1016C836B41
:10021000081C9E1D0AF0F4F90AF0CCFF03210AF035
:100220002FF800250D3108002B003200616B00957E
:1002300000F060FD00952B00A26B616BE06A00F09E
:1002400059FD73BDF8B5C36A0400162B31D1006C9B
:100250000CF0EEFD1B4A1C4B0BF054F80CF03CFE6E
:10026000051C2064606C0CF0A1FD0600281C0F002A
:100270000CF0DEFD08F0CAF802000B000BF042F8AB
:1002800032003B000BF03EF80CF05AFD0023A06357
:100290001A000621200001F01BFC002811D00B4B96
:1002A000026C1B689A420CDA03640023E3623C335D
:1002B00003E0836C002B02DD013BA36401E0162305
:1002C000C362F8BD7B14AE47E17AA43F6C02001014
:1002D00010B50400082101F0C9FB034B20000833CE
:1002E00023601623E36210BD44D0000000231022D7
:1002F00003640261436470477047FFFF73B5066C87
:100300000400002E1DD108233200062101F0E0FB7D
:10031000051E05D00122310001F033FC00283AD13E
:100320000025A26B2B00616B0095602000F0E2FCC1
:10033000616B009508312B00A26B612000F0DAFCA4
:1003400016E0012E14D1436C013B4364002B0FDAFD
:1003500002230364402003F051FB050001F098FDE7
:10036000A26B616B280000F08FFF00220F4B1A7008
:100370000025A26B2B000095616B0832702000F005
:10038000B9FCA26B616B00952B000832083171201B
:1003900000F0B0FC73BD0123044A13700022AA616F
:1003A000EA6123643B336364BAE7C046700200101D
:1003B00010B50400034B0833036001F03DFB20003F
:1003C00010BDC04664D0000010B50400FFF7F0FF78
:1003D000200003F017FB200010BDFFFF10B5040044
:1003E000092101F043FB024B20000833236010BDBC
:1003F00064D00000436B043B4363036414234364F1
:100400007047FFFF10B50400034B0833036001F091
:1004100013FB200010BDC04684D0000010B50400BE
:10042000FFF7F0FF200003F0EDFA200010BDFFFF02
:10043000114B70B51B780400002B1BD0436C013BA3
:100440004364036C03205D1E01F040FE636C45199C
:100450006563002B0EDC482003F0D0FA050000F0A5
:1004600007FBA36B28001A1F616B00F00DFF200033
:1004700000F0A2FE70BDC0466802001010B5040076
:100480000F2101F0F3FA054B0122083323601423F6
:10049000E36223003C3320001A7010BD84D00000BA
:1004A00000238360C3601033036143617047FFFF23
:1004B000122370B5012603614361002376428660F2
:1004C000C6601A000621040001F002FB051E20D0C0
:1004D000436E002B1DDD806900F064FC8023FF214A
:1004E0001B068905C0180AF0CBFB0D4BA861EB6118
:1004F0002E66200000F060FE482003F07FFA050021
:1005000000F0B6FAA36B28001A1D636B191D00F0EA
:10051000BBFE0023A360E36010332361636170BD01
:100520000000C0BF37B50024050000942300826B93
:10053000416B402000F0DEFB696BAA6B23000831A1
:100540000094412000F0D6FBAA6B696B23000832AF
:100550000094502000F0CEFBAA6B696B0832083182
:1005600000942300512000F0C5FB37BD10B50400F6
:10057000034B0833036001F05FFA200010BDC04652
:10058000A4D0000010B50400FFF7F0FF200003F036
:1005900039FA200010BDFFFF10B50400032101F05F
:1005A00065FA054B0122083323604023E3622300F0
:1005B0003C3320001A7010BDA4D000000023036457
:1005C0004364704710B50400034B0833036001F027
:1005D00033FA200010BDC046C4D0000010B504009E
:1005E000FFF7F0FF200003F00DFA200010BD036CB0
:1005F00013B50400002B04D10093826B416B1720CC
:100600000CE0012B0CD10F20636C0521C01A09F0FE
:1006100051FD0023A26B616B1730009300F06AFB61
:1006200013BDFFFF10B50400052101F01FFA024BB6
:1006300020000833236010BDC4D00000026C10B548
:10064000002A0BD1012303640E3343640221103BC3
:1006500001F03EFA002801D002F000FA10BD026C51
:1006600010B50400002A16D1012306215B4201F0D7
:1006700081FA031E2DD1012206215242200001F0F1
:1006800079FA031E25D101220621200001F072FA19
:1006900000281ED122E0012A0AD1436C013B4364A9
:1006A000002B1BDC022303643A334364002314E071
:1006B000022A13D1436C013B4364002B0EDC002360
:1006C00006211A0001F056FA002807D12064012300
:1006D00003E02000FFF7B2FF00E0237110BDFFFF31
:1006E000436B02000533436300234432064903642D
:1006F0001370CA5C002A02D0026C0132026401331A
:10070000202BF6D17047C0463807001010B5040002
:10071000034B0833036001F08FF9200010BDC04681
:10072000E4D0000010B50400FFF7F0FF200003F054
:1007300069F9200010BDFFFF70B50400264B86B09C
:100740001868052109F0B6FC032109F099FD002580
:10075000260076310800E162A26B00952B00616BE8
:10076000443600F0C7FA3278AA4229D000951F23F8
:1007700060220221202001F0E7FB2B0000950622D9
:1007800037211A2000F0B6FA226C144902A809F0A9
:100790003FFA0723092202A8402101F093FB102110
:1007A000312000F0A7FC0E4B0E491A6802A809F090
:1007B0002FFA07231822302102A801F083FB08E05A
:1007C00013000621200001F0D5F9002801D00123F3
:1007D000337006B070BDC0465C02001004D100004A
:1007E000D401001008D1000010B50400112101F05F
:1007F0003DF9024B20000833236010BDE4D0000017
:10080000836B02000364002344321370FC229205C0
:10081000826443717047FFFF030073B544331B7854
:100820000400002B01D000201DE0806C0CF000FBC8
:1008300007F0ECFD0CF050FB002109F077FD0028DB
:10084000F1D0A36B226C981A00F0A3FA002808DB01
:10085000A36B226C981A00F09CFA01300AF0CCFCD1
:1008600001E0FE208005104909F0CAFE0AF0A2FC52
:1008700000250600A36B00959A1E636B991F012348
:1008800000F038FA2B000095A26B616BE06A00F073
:1008900031FAA36B616B9A1E00952B003000063174
:1008A00000F028FA73BDC0460000344210B50400C1
:1008B000034B0833036001F0BFF8200010BDC046B1
:1008C00014D1000010B50400FFF7F0FF200003F082
:1008D00099F8200010BDFFFF10B504000C2101F0B5
:1008E000C5F8054B0122083323601C23E362230073
:1008F0003C3320001A7010BD14D1000070B5040004
:1009000001F01DFA230044331A78002A0DD0FA2290
:1009100021499205E06900F01DFAA36BE0611033F4
:100920001ADA200000F048FC16E01C4A1278002A6F
:1009300012D00122FC211A70A06C890509F060FE1A
:10094000A0640CF075FA07F061FD0022144B0BF067
:1009500029FC0CF0C1FAE061002306211A002000F6
:1009600001F0B6F8002816D00E4B1B68036400F0A7
:10097000FBFB0D4B181801234370482003F03EF891
:10098000050000F0B5FF2800A26B616B00F07CFC55
:10099000200000F011FC70BD000060C07802001063
:1009A0000000E03F6C02001038070010836B036406
:1009B000002343647047FFFFF8B5002306211A00A7
:1009C000040001F085F8002816D01A4B1B68036458
:1009D00000F0CAFB184B181801234370482003F09D
:1009E0000DF8050000F084FF2800A26B616B00F099
:1009F0004BFC200000F0E0FB636C206C5D1C656428
:100A00000CF0D4F90F00060028000AF0F5FB0B49A2
:100A100009F06CFF0CF00CFA07F0F8FC0022084B10
:100A20000BF0C0FB32003B000AF06CFC0CF088F9C4
:100A3000A063F8BD6C020010380700100000A04150
:100A40000000044010B50400034B0833036000F0BD
:100A5000F3FF200010BDC04634D1000010B50400E3
:100A6000FFF7F0FF200002F0CDFF200010BDFFFFD8
:100A700010B504000B2100F0F9FF054B01220833EB
:100A800023601A23E36223003C3320001A7010BD58
:100A900034D10000024B1860002303707047C04639
:100AA000080C001010B50024084B1A68944209DAAB
:100AB000074BA200D058002802D003685B68984713
:100AC0000134F1E700221A6010BDC046340700105F
:100AD00058070010002001000A4A70B513680A4C3C
:100AE00099420ADA8D002E59002E04D1013B98005C
:100AF0000059285101200131F2E7002800D013608D
:100B000070BDC0462C0700107C020010F0B56C4B85
:100B100089B01A686B4B0790134004D50821013B3C
:100B200049420B430133DBB2D6100593F3B206936F
:100B30001F2A27D1059B10241B01DBB20593069BBE
:100B400001941E01042302930023F6B21A000094BC
:100B50003100059801F054FA022302930023019416
:100B60001A0000943100059801F04AFA0823029314
:100B70000023019400941A003100059801F040FA16
:100B8000002433E03F260C274F4C217923680D1DAC
:100B9000AC460125A2689818E2682060D31733405C
:100BA0009B189B115B4201337B43C0B263448218A4
:100BB000DBB2D2B2009501F0C7F9E36822689A1857
:100BC0007F2A05DD5B422360742001F07FFA6060BC
:100BD0003E4B10349C42D8D1ACE73D4BA200D058DC
:100BE000002802D003681B6998470134394B1B6801
:100BF0009C42F2DB384A1368002B1FDC079B1A78F3
:100C0000002A57D110230292019300933100130060
:100C1000059801F0F5F9052350223A212F4801F0FB
:100C200051F9052360222A212D4801F04BF90523B3
:100C300066222E212B4801F045F93BE0013B2A4C6E
:100C4000136020680AF0D8FAA16809F0D9FC0AF00C
:100C5000B1FA0700206060680AF0CEFAE16809F096
:100C6000CFFC0AF0A7FA1C4B05001B686060052149
:100C70001800069309F01EFAEDB2C0B2FFB2431994
:100C80002D1A3A18E9B2381A184D069FDBB2D2B2C3
:100C9000C0B23D4004D50227013D7F423D430135AE
:100CA0000E35EDB2009501F04FF9114B1034A3420F
:100CB000C7D1A3E7FFF7F6FEFFF70CFF09B0F0BDC1
:100CC000100D001007000080100C0010100D001017
:100CD0007C0200102C0700100C0C001054D10000F6
:100CE0005BD1000068D10000D80100100100008035
:100CF00058020010F7B508AC277800281EDB183220
:100D00002E310F4E14000D00002B0ED00123002FAA
:100D100001D002221343222250430093321821B201
:100D200028B2002306F021F808E0002FF1D1222399
:100D3000584321B2321828B205F006FEF7BDC0466E
:100D400082D10000824200DD020010008A4200DAF7
:100D50000800704770B50D1C161C041C09F0FAFA47
:100D6000311C002808D0201C0AF09EF8041C011C2D
:100D7000281C09F0DBFA07E0201C09F041FC041CE8
:100D8000011C281C09F0E6FA002800D12C1C201CAC
:100D900070BD002802DB431E984101E00120404263
:100DA0007047FFFF10B50021041C09F0BFFA0028AE
:100DB00007D10021201C09F0CDFA002803D1002022
:100DC00003E0024801E0FE20800510BD000080BF66
:100DD0000A4B10B51B68DA1012015118084AC9B243
:100DE000134004D50822013B5242134301331B0137
:100DF0001B18D8B201F0FCF810BDC046100D001051
:100E000007000080F0B585B002930AAB1B7815008F
:100E10000393019100900AF0EFF9F821890509F098
:100E20002FFF0CF005F806000F0007F057FA00221C
:100E3000002309F041FA0024A04206D13000390015
:100E400007F04CFA0BF07CFF0400009B5D19681E54
:100E50000AF0D2F9F821890509F012FF2C49051C86
:100E600009F078FA002802D0294B009300E00095A1
:100E700020000AF0C1F9011C009809F075FA002859
:100E800043D001980AF0B8F9F821890509F0F8FE75
:100E90000BF0CEFF06000F0007F020FA002200231F
:100EA00009F00AFA0025A84206D13000390007F0FF
:100EB00015FA0BF045FF0500019B029A98180138BE
:100EC0000AF09AF9F821890509F0DAFE1049061CA2
:100ED00009F040FA002800D00D4E28000AF08CF9E5
:100EE000011C301C09F040FA00280BD0290020001A
:100EF000FFF76EFF0399C0B200F0D6FF002803D1C0
:100F00000135EAE70134B3E7012005B0F0BDC04682
:100F10000000704113B500240094FFF773FF16BD65
:100F200013B504240094FFF76DFF16BDF0B58BB028
:100F300017000193059106000AF05EF9F821890572
:100F400009F09EFE0BF074FF04000D0007F0C6F9D7
:100F50000023002209F0B0F900230093984206D143
:100F60002000290007F0BAF90BF0EAFE0090F3190F
:100F70005D1E280006930AF03FF9F821890509F063
:100F80007FFE059A019B944663440893013B0793B7
:100F90001300564F041C3B40019307D5013B0193BE
:100FA0000823019A5B421343013301933E400296AA
:100FB000331E07DA013B02930823029A5B42134374
:100FC000013302933D4003952B1E05DA0825013BB2
:100FD0006D421D436B1C0393079B1F4004D50823E0
:100FE000013F5B421F430137009B41490133DB0056
:100FF000201C049309F0AEF9002802D03C4B099361
:1010000000E0099400980AF0F7F8011C099809F02B
:10101000A1F9002867D005980AF0EEF8F8218905B3
:1010200009F02EFE0BF004FF04000D0007F056F946
:101030000022002309F040F90026B04206D120002A
:10104000290007F04BF90BF07BFE060007980AF029
:10105000D3F8F821890509F013FE741C2449051CF6
:10106000E40009F077F9002800D0214D30000AF0A3
:10107000C3F8011C281C09F06DF900282BD03100A1
:101080000098FFF7A5FE112806D1052F02DC089B6A
:10109000A3421DD1119B19E01B2804D1019B022BF7
:1010A00016DC119B05E02B2806D1029B022B0FDCDE
:1010B000109B002B0CDC15E03B2809D1039B052B72
:1010C00003DC069B049A934202D1109B002B09DAA1
:1010D00001360834CAE7009B01330093049B0833B0
:1010E00004938FE701200BB0F0BDC04607000080DD
:1010F00000007041F0B5194B0F001E68184BC9B2C3
:101100001D6804004B1DC0B285B0DBB20200039322
:101110000023203201390138D2B2C9B20093C0B2E3
:10112000039B00F011FF072004F08EFD39002E34E0
:10113000183120B209B204F045FA28003C2109F028
:101140009FF828000C003C2108F0B4FF3300010098
:101150002200044806F078F905B0F0BD74020010D2
:101160003007001073D10000014B18687047C0466B
:10117000100D0010024B034A1B68013313607047C7
:10118000100D0010040100100122034B1A70034BD4
:101190000E321A607047C0466002001064020010F0
:1011A000034A1368591C1160024A9B00985070470B
:1011B0002C0700107C0200100B4B30B51C6800237C
:1011C0000A4AA3420FDA99008D58854209D1084C8A
:1011D00023685D1C2560074C9B0018510023535069
:1011E00001E00133EDE730BD2C0700107C02001058
:1011F000340700105807001073B500251D4A06007B
:10120000136801331360FFF7D7FF1B4C0434736B73
:10121000221F04331360B36B28000433236009F0EA
:10122000EBFFF821890509F02BFD144909F028FD91
:101230000BF0FEFD0090019107F0E8F80022104B42
:101240000AF0B0FF0BF048FE60600098019906F0CC
:10125000FBFF00220A4B0AF0A5FF0BF03DFE013513
:10126000A0601034082DD2D10A22064B1A60FFF775
:101270008BFF73BDD4010010D80100100000B443EF
:10128000000008400C0C0010030010B53C331B7824
:101290000400002B06D0094B09481B68C3185B7873
:1012A000002B0AD1236820005B699847236820003F
:1012B0009B6898472000FFF773FF10BD100D0010CA
:1012C00038070010F0B50024744B754F1C70754B37
:1012D00087B01C70396004F057FC734B1A68944255
:1012E00009DA724BA200D058002802D003685B686C
:1012F00098470134F1E700241C60FFF7D3FB039407
:101300000026039BDB0004933B68039AD910090174
:1013100067488918C9B2184004D5082301385B42D0
:101320001843013000018019C0B200F061FEF300E3
:10133000050005931A286DD027D80C2853D00DD856
:10134000082842D00B2847D0012800D084E088200C
:1013500002F054FB040001F029FA75E014284BD088
:1013600008D8122878D14C2002F048FB040001F084
:1013700067FB69E0162846D017286DD1482002F097
:101380003DFB0400FFF74EF95EE0602856D00CD814
:10139000402846D056284AD01C285DD14C2002F067
:1013A0002DFB0400FFF798FA4EE0712804D870284E
:1013B00051D261284FD04FE076284DD1482002F01D
:1013C0001DFB0400FFF710FA3EE0442002F016FB7C
:1013D000040000F035FA37E0482002F00FFB01214D
:1013E0000400494204E0482002F008FB0121040007
:1013F000200000F0A5FE27E0482002F0FFFA0400DC
:10140000FFF73CF820E04C2002F0F8FA0400FEF769
:101410005FFF19E0482002F0F1FA0400FFF728FB13
:1014200012E002F0EBFA0400FFF7B6F80CE04820F7
:1014300002F0E4FA040000F0EDFA05E0482002F0C2
:10144000DDFA0400FEF7CAFF002C05D0049AF10073
:101450002000FFF719FF00250023F1000093049AF4
:1014600028000136FFF746FC102E00D04CE7039B06
:1014700001330393102B00D042E73B681F2B0AD0A7
:10148000442002F0BBFA040001F05AFA00222000C6
:101490001100FFF7F9FE07B0F0BDC046780200105A
:1014A000100D0010680200102C0700107C020010C4
:1014B0000700008070B50600144D2C1D0535FF3562
:1014C000802000F003FE231F1860742000F0FEFD52
:1014D0002060042000F0FAFD01306060202000F060
:1014E000F5FD2030A0601034AC42E9D10023190092
:1014F000074A99540133202BFBD130001F21FFF7FD
:10150000E1FE0122034B1A6070BDC046100C0010B2
:10151000380700106C02001070B5384D04002968BF
:101520004B1C04D0FFF7CEFE01235B422B6003F07F
:101530002BF8002804D0324B20001968FFF7C2FEB8
:10154000217802293FD12F4D1C312B68581C08F0FF
:1015500097FE2960002910D1294B1B681D2B0CDC3C
:10156000294D3C212B68581C08F08AFE296000296F
:1015700003D1264A136801331360254A1368002BF0
:1015800002DD013B136037E0224A1378002B0DD0B7
:1015900021490B68002B09DD013B0B60002B05D1B5
:1015A0001370174B20001968FFF78CFE00241B4BAB
:1015B0001B689C4220DA1A4BA200D0580134036801
:1015C000DB689847F3E700290AD1042000F00BFDFF
:1015D000011E0FD1052000F006FD00280AD10BE006
:1015E000012909D10021074B20001960FFF76AFE8D
:1015F000022300E00123237070BDC04604010010E7
:10160000100D00105C020010740200103007001072
:101610005802001060020010640200102C07001035
:101620007C020010704770B50400486B0E0009F092
:10163000E3FD051CB06B09F0DFFD0223A3606361CD
:10164000013B2560E560A5616562256360602061FE
:10165000E0612362A062E3626063A36370BDFFFF89
:10166000F0B51600082285B005000C000192012B90
:1016700013D004320192022B0FD13B4B0321186887
:1016800008F018FD394B184004D5022301385B429D
:10169000184301308000C31D0193636B760004334F
:1016A000981B09F0A9FD0021061C0320A46B00F083
:1016B0009AFC431E98410330001909F09DFD2B0050
:1016C0002C003033029003932568301C291C09F04C
:1016D000EBFB0BF0ADFB0022254B0AF03FF90600B7
:1016E000281C0F000BF0A4FB02000B003000390097
:1016F00009F008FE0BF0F0FB071C206060680BF09F
:1017000097FB05000E0002980BF092FB0022194B8C
:1017100009F0F8FD2A0033000AF0BEFF0022144B46
:101720000AF01CF92A00330009F0ECFD0BF0D4FBA1
:101730006B4660601E7908F06DFEC3B2381C0293E0
:1017400008F068FE257A3300C0B22A00029900F042
:10175000DBFB039BA34204D06368266802930C342E
:10176000B2E705B0F0BDC0465C0200100100008089
:101770000000F83F0000E03FD0B50400006C0BF023
:1017800057FB06F0ABFD1E4B060018680F0009F072
:1017900033FD1C4909F0AAF80BF04AFB06F036FEAF
:1017A0000022194B09F0AEFD0022184B09F0AAFDEA
:1017B0000BF092FB20640BF03BFB06F08FFD0BF06F
:1017C000BFFAE0620A280BD1300039000BF0B8FAFA
:1017D0000A2805D022000121303213784B401370C3
:1017E000002306211A00200000F0C4F9002805D0CB
:1017F0002000FFF7E1FC0122054B1A70D0BDC04666
:101800005C0200100000F0410000E03F00002240B8
:101810006802001010B50400034B0833036000F0A9
:101820000BF9200010BDC04684E2000010B5040092
:10183000FFF7F0FF200002F0E5F8200010BDFFFFE9
:1018400010B504000E2100F011F9064B01220833F7
:1018500023600823E36223003C331A700023200036
:10186000236410BD84E20000064BC3611E230364A1
:10187000436B023B4363836B043B836300234364FA
:1018800043717047000080BE436C10B50133DA0F1E
:101890004364D318094A5B10134004D50222013B6C
:1018A000524213430133416B826B07330239DBB27F
:1018B000D2B2C9B2024800F005FB10BD01000080A1
:1018C000A4E2000010B50400034B0833036000F0ED
:1018D000B3F8200010BDC046ACE2000010B5040013
:1018E000FFF7F0FF200002F08DF8200010BDFFFF91
:1018F00010B504000D2100F0B9F8024B20000833A8
:10190000236010BDACE2000010B5040000F017FA2F
:10191000236C013B2364002B02DC2000FFF74CFC0E
:1019200010BDFFFF10B50400034B0833036000F047
:1019300083F8200010BDC046CCE2000010B50400C2
:10194000FFF7F0FF200002F05DF8200010BDFFFF60
:10195000F0B50024050085B00094826B416B230034
:10196000C06AFFF7C7F9230004220621280000F00F
:1019700001F9A04243D06B6C412B0BDC224A126868
:10198000D20701D501336B642B6C6A6C934201DA88
:1019900001332B64602300260393162272436B6C81
:1019A000934228DD162464427443E418162C00DDAB
:1019B0001624164BB1002200C958154807F049FEFD
:1019C0000022134B07201A556B461F7BA4003B00D7
:1019D00016340833B91EDBB2E2B2C9B200900B3044
:1019E00000F0B2FA00233A001421094800F06AFA24
:1019F000039B073303930136032ECED101E06864C5
:101A0000286405B0F0BDC0465C020010080100105B
:101A1000140D001010B50400102100F027F8054B3C
:101A20002000083323605623E362002323646364A9
:101A300010BDC046CCE2000070474163826370472E
:101A4000704710B5040001F0DDFF200010BD07B5A0
:101A5000020003003132127830331B780092826B1F
:101A6000416BC06AFFF746F907BDFFFF0F4B02004D
:101A70000833036003002833197000238361C361B6
:101A800003624362002330321370537008220261F4
:101A90004261073A0271427102003C328360C360C6
:101AA0001370C362436383637047C04634E300002E
:101AB00010B504000B00816BC06809188918A06874
:101AC000626B1018C01822696369FFF729FA10BD0C
:101AD000F0B587B0049100211700244A02931268E0
:101AE0000392039A91423BDA214C8A00A258002AC1
:101AF00034D0140028342478049DAC422ED1824284
:101B00002CD01479002C29D09568546BAC466444D1
:101B1000A4468568446B66191469F5196444AC429F
:101B20001CDD946BD56863190193856BC368019CB8
:101B3000ED185369E3181C00029BEB180593059BF5
:101B40009C420BDD0369F618F619B44506DA4369C1
:101B5000ED18029BED18019BAB4203DB0131C0E79E
:101B6000002000E0100007B0F0BDC0462C070010B8
:101B70007C02001010B5FFF7ABFF431E9841C0B2C6
:101B800010BD70B504000D00161E0FDD00230A0005
:101B90001900FFF7EFFF011E08D133002A002000D3
:101BA000FFF7E8FF002801D001201BE0A36BE268EB
:101BB0009918636BA268891998184019636922699A
:101BC000FFF7A8F90028EFD133002A0005212000F3
:101BD000FFF7D0FF0028E7D133002A0003212000BF
:101BE000FFF7C8FF70BDF7B5437904000D1C161C44
:101BF000002B29D0081CFFF7D5F809F0DBFA070005
:101C0000301C09F0D7FA0600281C0BF011F906F079
:101C100061FB0090019130000BF0C8F8009A019B25
:101C200008F054FB002818D0002239002000FFF7EC
:101C3000A8FF002804D1636B0136DB196363E3E777
:101C40000023A361236208E0406B09F0D5FA291C48
:101C500008F0D6FC09F0AEFA6063F7BDF7B543793A
:101C600004000D1C002B29D0081CFFF79BF809F07D
:101C7000A1FA00230190281C00930BF0D9F806F07C
:101C800029FB06000F0000980BF090F832003B0093
:101C900008F01CFB00281AD0019A00212000FFF751
:101CA00070FF002806D1A36B019A9B18A363009BC9
:101CB0000133E0E70023E361636208E0806B09F031
:101CC0009BFA291C08F09CFC09F074FAA063F7BD8C
:101CD00070B50400081C216A161C08F091FCFC2158
:101CE0002062890508F08CFC0BF0A2F806F0F6FAE9
:101CF0000BF0F2F8051C011C206A09F0D5F800224F
:101D00002062291C2000FFF76EFF616A301C08F07A
:101D100077FCFC216062890508F072FC0BF088F802
:101D200006F0DCFA0BF0D8F8051C011C606A09F01B
:101D3000BBF8291C60622000FFF790FF70BD10B552
:101D4000C2698169FFF7C4FF10BDFFFF024BC36189
:101D5000002343717047C046000080C0FC22F0B5EC
:101D6000920504008BB00021C069FEF7F3FF002349
:101D7000E06106211A002000FFF7AAFE00210500FD
:101D8000E06908F0CDFA00280BD0002D09D00A2216
:101D90002F4B20001A60FFF70FFA02232D4A2B6405
:101DA00013600025A26B2B00616B66200095FEF787
:101DB000A1FF294B1E21186808F07CF909F01CFAD4
:101DC0000390636B181D0AF0F1FF04900591280041
:101DD00009F012FAF821890508F052FF039908F07A
:101DE0000FFC1E4908F04CFF0BF022F806000F0014
:101DF00006F02AFAA36B06900791181D0AF0D6FF89
:101E0000089009913000390006F000FB0022144BC5
:101E10000AF0C8F9089A099B09F074FA08F012FB55
:101E20000022C6B20E4B069807990AF0BBF9049A35
:101E3000059B09F067FA08F005FB0135C0B20723DE
:101E40000122310000F060F8082DBAD10BB0F0BDCE
:101E5000580200106C0200105C0200100000B44335
:101E60000000204010B50400034B08330360FFF767
:101E7000E3FD200010BDC04654E3000010B504008F
:101E8000FFF7F0FF200001F0BDFD200010BDFFFFB7
:101E900010B504000A21FFF7E9FD024B20000833CA
:101EA000236010BD54E30000054B072905D801222B
:101EB0008A401B5C1A40100000E0185C7047C04666
:101EC00074F4000070B50C001D000C4B060019885E
:101ED0000B4B511A18881831201A2E3000B209B253
:101EE00003F070FB2800FF2D01D1064B187803F09A
:101EF000ABFE300005F0A0F870BDC0462E0D0010FE
:101F00002C0D00101401001070B504000D00160017
:101F1000FF2B01D1094B1B78180003F095FE084BED
:101F200032B21988074B691A18881831201A2E30D6
:101F300009B200B204F0F9F870BDC04614010010F7
:101F40002E0D00102C0D0010F7B51E0008AB04007C
:101F500018780F001500FF2801D10F4B187803F0F7
:101F600073FE0E4B281B00229B5E00930C4B1B88BC
:101F7000FB1A18331BB2019307F022FB0500F01B7C
:101F800007F01EFB009903B2601A2E302AB200B28D
:101F9000019903F0CBFFF7BD140100102C0D0010C8
:101FA0002E0D001010B506281CD807F0EFFF04070F
:101FB0000A0D1013160002F0EDFA10E002F0F0FA2C
:101FC0000DE002F0F3FA0AE002F0F6FA07E002F0A0
:101FD000CFFA04E002F0D2FA01E002F0D5FA431E93
:101FE0009841C0B210BD10B5FFF7DCFF10BDFFFF78
:101FF000024BC9015918085C7047C046F4F4000050
:10200000F0B58DB0099119000026089012AB13A805
:1020100000781B782E320A90DB0014A80078D318C1
:1020200018319BB205900291049207930A9B9E423D
:1020300044D06B4608229B5E089A0393099B049F39
:102040009B19DB019B181E4AD3180193079B9F42E3
:102050002ED0019B1C78002C23D03BB20693059B0D
:10206000002B08D122335C43164A039912190698B3
:1020700004F06AFC15E00025134B059A1B5D1A401D
:102080000B920B9B01222B41134207D02223634367
:102090000C4A0399D218069804F056FC0135082D15
:1020A000EFD13B0008339FB2019B01330193CDE791
:1020B000029B013608339BB20293B7E70DB0F0BD27
:1020C000F4F4000074E3000074F4000010B502F0B2
:1020D0000BFB00B210BD0022436B4271043B103277
:1020E000436302614364704737B500240500836B86
:1020F00000945A1E416B23000B20FEF7FBFDAB6BD7
:10210000696B5A1E0831009423000C20FEF7F2FD83
:1021100037BDFFFF10B50400034B08330360FFF722
:102120008BFC200010BDC046F414010010B5040063
:10213000FFF7F0FF200001F065FC200010BDFFFF5D
:1021400070B504000D000021FFF790FC024B2564E0
:1021500008332000236070BDF414010070B5040042
:10216000FFF7EDFD206C0AF021FE184A184B0AF02B
:1021700019F80AF0B1FE636BA0611A00103201DA9F
:10218000802303E0802B02DD10235B426363002386
:1021900006211A002000FFF7EDFC021E12D10123D8
:1021A00006215B422000FFF793FC051E0AD0626CFB
:1021B000636B981A09F020F8FE22011C9205280092
:1021C000FFF711FD636B636470BDC046CDCCCCCC12
:1021D000CCCCE43F02000023543210B5137053708E
:1021E0000E4A83651268C365026403664366012272
:1021F0000023010043648364C364036583668260D3
:102200000320C86000180861013848610800CA62EC
:102210008B61CB617030FFF706FA10BD6C020010C5
:1022200037B50400406B431C7A2B07D90121792272
:102230004942FEF787FD00236063A3612500303526
:102240002A782000531E9A41012352421A4321004A
:10225000236C7030FFF704FA2200313212782B78A9
:10226000616B0092E06AA26BFEF744FD37BDFFFF91
:1022700010B50400034B08330360FFF7DDFB2000BB
:1022800010BDC0461415010010B50400FFF7F0FFA3
:10229000200001F0B7FB200010BDFFFF10B50400C7
:1022A0000621FFF7E3FB2000034B70300833236067
:1022B000FFF7B8F9200010BD14150100F0B5CB4BA5
:1022C00087B01D780400002D00D01DE2FFF737FD18
:1022D00029000120FFF787FE0127002803D1010014
:1022E000FFF781FE4742A36BE268E0699E18636BCB
:1022F000A2689D1808F05EFF0190A06908F05AFFDF
:1023000000906369280022693100FEF70FFE051E68
:1023100003D02000FEF770FFF6E1A36B802BF8DC02
:10232000010001222000FFF72CFC0122039029006C
:102330002000FFF7BDFB039B0490002B0ED0230071
:102340006C331B78002B09D10722A36BD9170A40E5
:10235000D318DB10DB00A3630023E361002104201A
:102360002600FFF740FE00255436A84202D03378FD
:1023700001355D4000210420FFF735FE0423307055
:10238000002D03D1E36D002B01DD013BE36500214E
:102390000520FFF728FE25000023553505939842B8
:1023A00003D001222B785A40059200210520FFF727
:1023B0001AFE039B2870002B08D00623A3658C4BC4
:1023C000226C1B689A4206DA236404E0A36D002B9A
:1023D00001DD013BA365636E013B6366236E002B49
:1023E0000EDD013B2366E26C616CA069FEF7B2FC76
:1023F000226DA061A16CE069FEF7ACFCE061AEE08B
:10240000039B002B04D0049B002B03D0794D02E0EA
:10241000794D00E0794DA0690AF00AFD05F05AFFF8
:102420000022774B07F05CFF002807D0A569281C25
:10243000FEF7B8FC734A011C281C05E0380008F0C0
:10244000DBFE011CA0692A1CFEF784FCA061A369C5
:102450000021181C049307F063FF002600280AD10E
:10246000311C0498012507F061FF002800D1051CEC
:10247000230030331D70E0690AF0DAFC05F02AFF12
:10248000614A624B07F022FF002801D0604D00E056
:10249000604D002F00D195E0002239002000FFF7A9
:1024A00070FB002800D18DE0002239002000FFF7EA
:1024B000FFFA002800D085E04F49039B002B04D190
:1024C0002A1CE069FEF746FCE061E36D002B17DD96
:1024D000A36D002B06DD0023E365A365C0231B0667
:1024E000E3610DE00321002249422000FFF749FB90
:1024F000021E6AD103212000FFF743FB002867D1A9
:10250000236C002B2BDD059A002A28D0013B236485
:10251000042301252366404B00211D700A2302205D
:102520006366FFF760FD011E00D0D4E00320FFF7D3
:102530005AFD002800D0D0E072E00021281C07F0EE
:10254000EFFE002800D1A2E00021A06907F0E8FE1C
:10255000002804D1E06C314908F092FBE064FA21D4
:10256000A06E890508F04CF8039BA066002B0AD1E9
:102570001A0039002000FFF704FB0523002800D0D3
:1025800089E0032387E000210320FFF72CFD0623C9
:10259000011E00D07FE00220FFF725FD0723002861
:1025A00079D10021A06907F0BBFE002872D101009B
:1025B000FFF719FD011E7BD10120FFF714FD002854
:1025C00076D167E08021C90577E70120404200E02D
:1025D00001200023E365C0231B06E361404208F0AD
:1025E0000BFE011C08F00CF8A06189E770020010D6
:1025F0006C020010CDCC4C3DCDCCCC3E9A99193F0D
:102600000000F03F9A99193E333333333333C33FDD
:102610003D0AD73D3D0A573E780200107BB58351F5
:10262000002F07D0380008F0E7FD384908F028FBF4
:10263000A06107E0230030331B78002B49D1FE2333
:102640009B05A361E6610222314BA0691A60FEF787
:10265000A9FB011C07F0D4FF6064E069FEF7A2FB50
:10266000011C07F0CDFFFF23E5699B05061CA06454
:10267000E36423650021281C07F058FE002800D1E0
:102680005BE7FD21301C890508F0FAFAA064214BB4
:10269000E36459E70123E362A36B043303DAFEF733
:1026A00063FD1D2812DD6B461B7B6C3423702BE011
:1026B000A06E08F07FFD184B184004D504230138A4
:1026C0005B42184301300130E062E5E7FEF752FD5E
:1026D000E9E7124BB5E701256D42002F0BD038001A
:1026E00008F08AFD0E4908F0CBFAA061280008F036
:1026F00083FD0B4904E0A661280008F07DFD034935
:1027000008F0BEFAE0619EE707B0F0BD0000A0400F
:10271000580200103890C55103000080000080BFAF
:1027200030466240416342647047FFFF0323C36247
:102730007D338363054B10B5C3610023010003643F
:10274000836443714C30FEF76EFF10BD000080C003
:1027500013B50400094B21004C301B680122FEF721
:102760007FFF220023003132127830331B78616BF7
:102770000092E06AA26BFEF7BDFA13BD6C02001076
:1027800010B50400034B08330360FFF755F9200030
:1027900010BDC0463415010010B50400FFF7F0FF6E
:1027A000200001F02FF9200010BDFFFF10B504003C
:1027B0000421FFF75BF92000054B4C300833236000
:1027C000FEF730FF0023200023646364A36410BD80
:1027D0003415010070B50400FFF7B1FA236C002B2B
:1027E00008D1636CA26B0F33934241DB0123236456
:1027F000023324E0012B24D1FC21E069890507F094
:10280000FFFE0025E061291C07F0A4FD002805D08B
:10281000A36C002B02DD013BE561A3640025E069A8
:10282000291C07F097FD002822D0636CA26B9A4206
:102830001EDDA3630223A5612364E5610333A36462
:1028400016E0022B14D10622A36CE262013BA364C2
:10285000002B0DDA2000FEF7AFFCAC2001F0CEF823
:102860000500FFF71BFDA26B616B2800FEF70CFD56
:1028700070BD05230364704710B50400034B083393
:102880000360FFF7D9F8200010BDC04654150100C1
:1028900010B50400FFF7F0FF200001F0B3F82000AE
:1028A00010BDFFFF036C30B5013B1A0085B0036417
:1028B0001E3202DAFEF780FC38E0002B36DA002503
:1028C000462368223A2118200095FFF73DFBFEF7CA
:1028D0004BFC0B2804D107233E22302114481FE073
:1028E000FEF742FC1E2804D107233E223421114862
:1028F00016E0FEF739FC6423441C5C4308222900DF
:1029000002A806F0C4FE0C49220002A807F080F9D4
:102910000A4B36219C4200DD023907233E2202A8E1
:10292000FFF7D0FA04210800FEF7E4FB05B030BD44
:10293000741501007D15010084150100E7030000F6
:1029400010B504000721FFF791F8024B200008336F
:10295000236010BD541501000023036443647047D5
:10296000436C70B50400002B07DD013B4364002B72
:102970003DD112228364C26239E0C36A122B2DD189
:10298000002306211A00FFF7A3F8051E2FD000210F
:10299000C06907F0E9FC002829D01323E362A36B88
:1029A000A869043BAB630AF043FA164A164B09F0D8
:1029B000F9FB0AF091FA154BA861EB61144B002268
:1029C0001B6805212B640A232000A364093BFFF741
:1029D0007FF800280BD0FDF731FE08E0836C002B58
:1029E00005DD013B8364002B01D11233C362236CEC
:1029F000002B06DD013B2364002B02D13C22E36265
:102A0000626470BD9A9999999999C93F000040C034
:102A10006C02001010B50400034B08330360FFF78D
:102A20000BF8200010BDC0468C15010010B5040045
:102A3000FFF7F0FF200000F0E5FF200010BDFFFFD2
:102A400010B504000221FFF711F8034B20000833F2
:102A500023601223E36210BD8C1501000F23036471
:102A60007047FFFF37B502F04DFB114803F014FC2F
:102A7000104804F077FB002003F0EEF80E4CB02570
:102A80002000FEF717FD02F0CBFA00280FD000223D
:102A90000095DC231100100002F00CFC0028F2D09D
:102AA0002000FEF739FD2000FEF730F8EBE73EBDD1
:102AB000F01A01002A280100310D001010B503485A
:102AC000FDF7E8FF024801F015FE10BD310D0010C2
:102AD000300D0010022307490A7806481A42FBD03D
:102AE000FF22054B1A70FB3A01781142FCD018788E
:102AF000C0B270470C00044008000440022307499C
:102B00000A7806481A42FBD0FF22054B1A70FB3A9E
:102B100001781142FCD01878C0B270470C00044014
:102B20000800044010B50100014800F05BFE10BD34
:102B3000EC0E0010F8B543B204000D00002B07DACC
:102B400000217720FFF7F6FF012831D87F231C40B2
:102B5000A026882380279B013606F750FFF7BAFF8F
:102B60008A239B01F750FFF7B5FF2000FFF7DAFF3C
:102B7000280EFFF7D7FF280CC0B2FFF7D3FF280AB3
:102B8000C0B2FFF7CFFFE8B2FFF7CCFF9520402C93
:102B900003D09438482C00D18630FFF7C3FF0A24B5
:102BA000FFF798FF030603D5013CE4B2002CF7D1F0
:102BB000F8BDFFFFF8B51D002F4B07001B7816006E
:102BC0001B0700D449025120FFF7B4FF002801D0B1
:102BD000012447E0294CFFF77DFFFF2804D1013C89
:102BE000A4B2002CF7D1F3E7FE28F1D1244C641BEA
:102BF000A41BA4B2002E06D1224B002F1AD02248CB
:102C00000426007811E0013EFFF778FFB6B2F1E745
:102C10001E4A10701A783242FCD01C4A013D1278CC
:102C2000ADB23A700137002D16D002211A780A424F
:102C3000FBD0EDE702210427134A144816781A78CE
:102C40000A42FCD006701A783A42FCD00F4A013D85
:102C5000ADB21278002DF2D1013CA4B2FFF74EFFC5
:102C6000002CF9D18823A02280219B011206D1508B
:102C7000FFF730FF2000F8BD340E00103075000063
:102C8000020200000C000440AC15010008000440E2
:102C9000144B10B51C880234A4B2002C04D00020C0
:102CA000FFF740FF013CF7E7FFF714FF1F23012464
:102CB000184005280CD10C4CFFF70CFFFF2804D05E
:102CC000002C02D0013CA4B2F6E763425C41E4B2BE
:102CD0008823A02280219B011206D150FFF7FAFE23
:102CE000200010BD320E0010E8FD000073B58823EF
:102CF000A0258024404E9B012D06EC503F4930001A
:102D000000F066FD00220821300000F055FD84230C
:102D10009B01EB58234201D1FFF7BAFF6425013D27
:102D2000EDB2FFF7D7FE002DF9D129004020FFF7C3
:102D300001FF0400012848D1D52148204900FFF7B0
:102D4000F9FE012815D1FFF7C5FE01AC2855013564
:102D5000042DF8D1A378012B37D1E378AA2B34D1F5
:102D6000274D8021E920C905FFF7E4FE011E11D19E
:102D700015E02900E920FFF7DDFE4126012801D8F2
:102D80000224E9261F4D00213000FFF7D3FE002862
:102D900017D11CE0013DADB2002D16D0E1E77A203D
:102DA000FFF7C8FE002810D10500FFF793FE60551D
:102DB0000135042DF9D123780C245B060ED42C00A8
:102DC0000CE0013DADB2002DDDD1002406E08021F4
:102DD00050208900FFF7AEFE0028F6D10A4BA02252
:102DE0001C70882380219B011206D150FFF772FED0
:102DF00060426041C0B276BDEC0E0010002D310182
:102E0000E02E0000A8610000340E0010064B1A6886
:102E1000831ED168002002398B4203D2507843438D
:102E2000906918187047C046380E00100F4B10B547
:102E30001A6800230380836804001800012B13D054
:102E4000D16801208B420FD2002B03D111780329C6
:102E500000D15369E360002B03D01800FFF7D6FFC1
:102E600000E050692061002010BDC046380E0010FF
:102E7000F0B5040085B0012854D92C4B1D68EB68CF
:102E800098424FD22E78022E32D0032E38D0012E07
:102E900048D181B24B08C91889B24B0A0193244B1F
:102EA000CA05D20D296903AF9A4204D0019B3800AC
:102EB000591802230EE0019B380059183300FFF720
:102EC00079FE021E2ED12969019B0131C9183300F8
:102ED00002A80530FFF76EFE002823D17B783878F2
:102EE0001B0203431811E2071DD41805000D1AE058
:102EF0002B69C2B2010AC918520003AD330007E0C2
:102F00007F22042329690240C4099200611803AD9D
:102F10002800FFF74FFE002804D168782B780002C4
:102F2000184300E0012005B0F0BDC046380E001087
:102F3000FF01000070B5048805000134A4B2002C24
:102F400001D1032322E00369002BFAD022071BD111
:102F500001330F4A0361C0681668002803D1B388A3
:102F6000A342EED910E073782209013B1A420BD13B
:102F7000FFF77EFF0123984208D9F3689842E0D218
:102F8000E860FFF743FF286100232C80180070BD24
:102F9000380E0010FF2270B50223520004000D000D
:102FA000FFF708FE032300282AD162782378120253
:102FB0001A43144912B202238A4221D1362229002F
:102FC0002000FFF7F7FD002809D1637822781B0263
:102FD00013430D4A1BB2934201D1002310E0022398
:102FE000522229002000FFF7E5FD002807D1637871
:102FF00022781B021343044A1BB29342EDD00123F3
:10300000180070BD55AAFFFF46410000F7B5040047
:103010000D002B78202B01D10135FAE72F3B5A42C6
:1030200053410027ED18A7602B78202B01D9019779
:103030002EE02000FFF7FAFE404B06001B689B685D
:103040001F7078E0009B1B78002B68D00822009B43
:10305000DB7A13405BD162680099581CC95CD35C71
:10306000994254D103000B28F6D1D37A002B62D1B8
:103070003B689868C37ADB0656D5437D017D1B0209
:103080000B43C27E1904837E120213430B43A360D9
:103090006068020003000B32934203D10022082132
:1030A000130013E0202119700133F5E72F2B12D004
:1030B0002E2B3BD091420ED91F00613F192F01D812
:1030C000203BDBB2571C8354FAB233005E1CEB5C2E
:1030D000F6B2202BEAD8AD192026019A9E42524121
:1030E000C2722000FFF7A2FE061E16D1134F3B68E6
:1030F0009B6800930F23228821691A4052011133E3
:103100000098FFF757FD00289CD0012613E020000F
:10311000FFF710FF0028EDD00600032E0BD16368E7
:103120000326DB7A002B06D1042604E00829D2D13D
:103130000A000331C9E73000FEBDC046380E00105A
:103140000022F0B5504B8DB006001A60904200D1BD
:1031500097E0FFF7CBFD0123184005000220002D6A
:1031600000D08EE003AF29003800FFF713FF0128DD
:1031700014D1DF221023520029003800FFF71AFD76
:10318000002801D001207CE03B79002B01D10720F1
:1031900077E0059D38002900FFF7FCFE0328F1D0F9
:1031A0000028F4D124230D2229003800FFF702FD66
:1031B0000028E7D1BC7A7B7A24021C430ED102ABF3
:1031C0001B30C0184378017884781B020B43240419
:1031D0001A002300C478134324061C43FB78B878F4
:1031E0005C437B780002184339782D183561717083
:1031F0007A793B7912021A436B4601929B88B3801D
:10320000FB79BF791B023B430ED102AA17339B18EF
:103210001F78BC4662465F783F0217439A78DB7896
:10322000120417431B063B43019A181A1709001B87
:10323000C01B06F0B5FE154A0230F0600123904233
:1032400004D9134A82429B415B4202333370032B01
:103250000ED102AA20339B185A7818781202024322
:1032600011009A78DB7812040A431B06134300E02E
:10327000631900207361ED19034B2C19B461B07010
:103280001E600DB0F0BDC046380E0010F60F0000F5
:10329000F6FF000070B5164B01001C6890B00620C8
:1032A000002C23D00023A3706B4608ADA56003A8B3
:1032B0000493FFF7ABFE002818D12B780330002BC6
:1032C00014D01023EE7A1E4010D16B7D297D1B0295
:1032D000EA7E0B431904AB7E120213430B43636275
:1032E0000F9B300023620123E661A37010B070BD14
:1032F000380E00102F4BF7B51C68002307000D0097
:103300000192138006209C4253D0A3780138DB073A
:103310004FD5236AE2699B1A8B4200D29DB2009777
:10332000002D45D0E669F3051BD1700A617806F0DF
:10333000BDFE00290BD1002E01D1606A02E0A06A17
:10334000FFF796FD01282FD90023A062E370A06A41
:10335000FFF75CFD002827D0E3785A1C1818E270AC
:10336000E062E3692E1CDA058023D20D9B009B1AD4
:103370009BB29D4200D91E1CB6B2381E00D00098E8
:103380003300E16AFFF716FC00280DD1E369AD1B9D
:103390009B19E361009BADB29B190093019B1B88B5
:1033A000F618019B1E80BBE700230120A37000E0FC
:1033B0002800FEBD380E0010294BF7B51C68062307
:1033C000002C4AD0A278013BD20746D5256A854217
:1033D00000D905000022E369E261954238D06678A1
:1033E0007602002B12D03100681E5F1E06F0D8FD59
:1033F00031000190380006F0D3FD019B834205D3D4
:1034000073423B40E361ED1AA06A01E0606AA0628A
:10341000B5420CD9FFF72CFD01281BD9E36898426F
:1034200018D2E369A0629B19E361AD1BF0E7E36981
:103430005B19E361FFF7EAFC00280BD06B0ADAB2F4
:10344000ED0501D1E27003E00132C318E270E362DE
:10345000002302E00023A37001331800FEBDC04624
:10346000380E001030B5154B04001B688DB00620D7
:10347000002B20D004AD9D6001AB63602000FFF7FE
:10348000C5FD002815D12B78002B0FD0EB7ADB0679
:1034900001D404200FE06B7D297D1B020B43EA7EE3
:1034A0001904AB7E120213430B43A3602000FFF705
:1034B000BDFC0328EDD00DB030BDC046380E001065
:1034C00010B513000A000100014800F003F810BD18
:1034D000AD1501000FB404B0704770B50D000400C5
:1034E000160000F083FB6B1C07D00021200000F0C9
:1034F000A5FB3100200000F09BFB70BD10B5012240
:10350000FFF7EBFF10BDFFFF10B50400034B0833BE
:1035100003601C3000F06CFC200010BDE0150100C1
:1035200010B50400FFF7F0FF200000F06BFA200058
:1035300010BDFFFF036810B50400013304D12C2235
:1035400005490648FFF7BCFF636960681B681840BF
:10355000431E984110BDC046F01501003A16010007
:1035600070B5050004000E4B0E00083308C5280096
:103570001822002106F08BF8002320003100E361BF
:1035800023626363A363E364064A23001C3000F0F4
:10359000CDFB28003100FFF7B1FF200070BDC04611
:1035A000E01501000D36000010B50430FFF7C2FF32
:1035B00010BD03000A0010B51C300121002A04D000
:1035C0001A6200225A630132110000F025FC10BD7E
:1035D000030010B50A001C30002903D000229963B3
:1035E000DA640132022100F017FC10BD436910B506
:1035F0000100002B04D10368002B06D0984704E09B
:103600000068002801D00431984710BD10B5012989
:1036100003D0022904D1383000E02030FFF7E6FF64
:1036200010BDFFFF10B50400431C12D00B685A1CDC
:103630000CD09C4208D12000896800F013FC0021C6
:10364000200000F02BFC04E00C31EFE70148FFF70D
:1036500041FF10BD5216010010B5030088420AD088
:103660000B00421C07D003004A1C04D00348FFF79C
:1036700031FF01235B42180010BDC04663160100F4
:103680000B685A1C05D0834201D1486802E00C3116
:10369000F6E718007047FFFF10B50400431C07D081
:1036A000FFF7EEFF0400431C02D10248FFF712FFB0
:1036B000200010BD74160100074A13681818EFF3B4
:1036C0000881884205D30C220120044B40421A6035
:1036D00001E010601800704718010010D860001059
:1036E000064B10B51B680400002B00D09847044B14
:1036F0001B68002B01D02000984710BD1C01001052
:1037000028010010094B10B51B680400002B04D0E1
:103710009847002801D1FFF7E3FF054B1B68181EEF
:1037200000D09847002C00D0206010BD2001001070
:1037300024010010704710B5040000F063F9200068
:1037400010BDFFFF73B504000E480025083020604F
:103750000820E0600C48261D6061069865602572AF
:1037600025610090300000F00FFD2B003000226931
:10377000E16800F089FD3000616900F0BBFD2000C8
:1037800076BDC046B416010040420F0070B5094D29
:1037900004002B6883420BD0061D0269C168002318
:1037A000300000F071FD6169300000F0A3FD2C6075
:1037B00070BDC0463C0E00100261002210B5034BE4
:1037C000C1601A60FFF7E2FF10BDC0463C0E00105A
:1037D000002210B5024B41611A60FFF7D7FF10BD00
:1037E0003C0E001070B50D000400FFF7CFFF29005C
:1037F000201D00F0C3FD70BD036870B5DB680400D8
:10380000984763685A682368002A02D19B689847E2
:1038100013E05B681568984763682D1A5A68002D95
:1038200007DC916859601B68002BEAD05068984704
:10383000E7E7236810681B69984770BD10B5024818
:10384000FFF7DAFF10BDC046DC16010070B50400BA
:1038500000F0D0FD050000F0CDFD401BA042FAD3E2
:1038600070BDFA2310B59B005843FFF7EFFF10BD62
:1038700070B50A4CA568A3682A00002B0AD18022E3
:103880005E5952059A1804331660C02BF7D1802276
:103890005205A26010308000815070BD00ED00E044
:1038A0007FB580203F494002CA6F8E240243CA6719
:1038B0002522002020253C4B3C499A60243A0A608E
:1038C0003B49A4000A60186219593A4A1140019113
:1038D0000199A943C825019101992D022943195144
:1038E000009035480099814204D8C04600990131C2
:1038F0000091F7E701210020196459645864596464
:103900005C6C29480C42FBD08E218026C82589009A
:1039100044582D0214400394039C34430394039CA5
:103920002C43445025248460445822400292029C37
:10393000B4430294029A2A4342500120DC681A4997
:1039400001220442FAD00320086700204A67486732
:1039500010004A675C6F144A01210442FAD08E209D
:10396000916780001558154C2C4014501558144C74
:103970002C40145000209164D164D064D164DA6C7E
:103980000A42FCD02521084A1161012259691142DD
:10399000FCD000220B4B1A601A600B4B01321A60EC
:1039A0007FBDC0460480044000800440F0400440D5
:1039B000F4400440FF250000C3090000FFFBFFFFA7
:1039C000FFFEFFFFC0800440C8800440704770477E
:1039D000704770477047002310B5934203D21C58BC
:1039E0005C500433F9E710BD00231A008B4202D269
:1039F0001A500433FAE770470020704710B505F0FD
:103A000009FE10BD10B505F00FFE10BD13B5012164
:103A10000F4B9A68120B12039A6002789C689140CF
:103A20002143996099680B480143996018690849D6
:103A3000019001980028F9DA083292005358019356
:103A40008B685B005B088B6001980004000D16BD5D
:103A500000C001400000088470B50600FFF7D6FFE3
:103A600004003000FFF7D2FF05003000FFF7CEFF63
:103A7000AC4202D923002C001D000300A84200D94B
:103A80002B0020009C4200D2180070BD73B50C00C2
:103A9000214D060029002000FFF7FEFDC0B2307066
:103AA000FF2804D135221D491D48FFF709FD2000DC
:103AB0002900FFF7B7FD80221A4BE405E40DE41856
:103AC000236819499343B9322360FF328858174B52
:103AD000034010200193019B8343C8200193019B65
:103AE000000203438B508021114A8901D36F0B439D
:103AF000D367104B1049186806F052FA8023DB0593
:103B00001A000138C0B20D49184308600B68134011
:103B1000FCD10A4A136073BD48170100E416010086
:103B20002F1701000040044000800440FF250000E2
:103B3000048004402C01001020A1070000C00140B7
:103B400010B5FFF789FF07F09FFB024907F098F8CF
:103B500010BDC0460108803910B50400431C04D1D3
:103B60001E2217491748FFF7ABFC174B1A68002AAB
:103B700006D101321A60154A1549D36F0B43D3673A
:103B80000122002C12D0134B9C420FD0124B9C42AE
:103B90000CD0124B9C4209D0114B9C4206D0114BC9
:103BA0009C4203D0104BE1184A424A4120001100C8
:103BB00000F058F90120A404E40EA04010BDC04656
:103BC000E41701003F160100480E00100480044075
:103BD00040000100281400002C16000030180000DE
:103BE000341A0000381C0000C4E1FFFF70B5050066
:103BF0000C0029604B1C11D00800FFF7ADFF241406
:103C0000074BA400E318EB60064B6860E3182B61D8
:103C1000054BE3186B61054BE418AC6070BDC04602
:103C2000002200A0802200A0002100A0002000A00F
:103C300010B5006800F032F910BDFFFF036870B5E1
:103C400004000D00013304D1432209490948FFF75C
:103C500037FC002D06D0012D09D1A26863681168D8
:103C60000B4303E0A268616813688B43136070BD67
:103C7000E41701003A160100F7B501210D00854057
:103C8000134C636A2B4221D0124B8600F0580193EB
:103C900000281BD023682B4218D163682B4206D022
:103CA000E3692B4203D00C4B1B689847E5612369FD
:103CB000074F2B4209D03B6A2B4206D0064B019A94
:103CC0001B680221905998473D626562F7BDC04666
:103CD000004000A0500E00104C0E001010B5002047
:103CE000FFF7CAFF10BD10B50120FFF7C5FF10BDDB
:103CF00010B50220FFF7C0FF10BD10B50320FFF77D
:103D0000BBFF10BD10B50420FFF7B6FF10BD10B506
:103D10000520FFF7B1FF10BD10B50620FFF7ACFF7F
:103D200010BD10B50720FFF7A7FF10BDF7B50500C0
:103D30002748814202DD0120404248E02548264CC8
:103D400002600020820016590096002E3BD11351CC
:103D5000224C2860E36F224F224E3B43E3671F242F
:103D60008B0349120C401821A44604009B0F5943B1
:103D70005E346144A400A15181210124890071585D
:103D80009B000F00210081400F4339008127BF00B5
:103D9000F151A021802609065B18B6019959270028
:103DA000019161468F40019940B2B94399510E4B40
:103DB000D158FFF75DFD1F222B68009813409C40EF
:103DC0000A4B1C6003E001300828BBD1B3E7FEBDFD
:103DD000131102004C0E0010500E0010048004401D
:103DE00080000900008004402C18010000E100E080
:103DF00000210368064A9B0010B5995001228121D9
:103E00000068044C8240890063589343635010BD9E
:103E1000500E00100080044003680120984070B5E7
:103E20000F4C2368034200D16062C54326680C4BE7
:103E30002E402660012909D1002A03D05A68104378
:103E400058600CE05A6815405D6008E0002A03D015
:103E50001A691043186102E01A6915401D6170BDAE
:103E6000004000A070B504000D00431C04D11522D1
:103E700007490848FFF724FB074BE405E40DE41865
:103E8000072322681D409A431543256070BDC04634
:103E90004C1801003F1601000040044070B50400BA
:103EA0000D00431C05D11D220F491048FFF708FBE8
:103EB00006E081231B01984214D00D4B984211D08B
:103EC0000C4BE405E40DE4182368042D04D1802292
:103ED000D2001343236005E01822ED009343154000
:103EE0001D43256070BDC0464C1801003F160100FF
:103EF000140A00000040044070B50D1C0468002145
:103F0000281C06F013FA002809D1FE21281C890577
:103F100006F020FA002803D0FE25AD0500E00025BC
:103F200080239B00E058013007F0AEF9291C06F011
:103F3000A7FE06F06FFA002808D0812304229B0018
:103F40000138E05063689343636004E00C226368C7
:103F500013436360206570BDF7B580260468B60022
:103F6000A3590A00019381239B00E758194B186855
:103F7000CB17002106F022FA174A002306F0FEF9BB
:103F80000500781C07F080F9019B071C581C07F0FE
:103F90007BF9011C381C06F0A9FC071C280007F05F
:103FA00073F9011C381C06F06BFE06F033FA013D74
:103FB000A551002808D0812304229B000138E0503D
:103FC00063689343636004E00C2263681343636097
:103FD0002065F7BD2C01001040420F00F7B50F001F
:103FE000060040493800FFF757FBC3B20500FF2B1E
:103FF00002D13D48FFF76EFA3C4B01211A7801933C
:1040000010000840031E03D00A410B000A4262D18F
:10401000012421009940019A3548127873600A43BF
:1040200001990A70334A99008A5809333260C26F85
:104030001100802212061143C1672000984003003E
:104040002D4A28495268380013432B4A5360FFF722
:10405000E9FA336829491A68E8B20A430C211A6060
:104060005A680A435A6007281DD805F08FFF040AD2
:104070001016040A1016A022D2009C500221204AD9
:1040800010E0A122D2009C5002211E4A0AE0A22286
:10409000D2009C5002211C4A04E0A3220221D2003B
:1040A0009C501A4A99508021C1224901920099508E
:1040B0000122C0215242890015485A500C315850F3
:1040C00004395A5030001349FFF746FF30000021F1
:1040D000FFF712FFF7BD1048FFF7FCF901235B4221
:1040E00096E7C0469418010000190100700E0010F8
:1040F000048004402C1901000080044001000600E7
:10410000040500000C050000140500001C0500005B
:1041100001100000204E00001A19010080210A4AF7
:10412000C905D36F80200B430121D367074B1A6861
:104130000A431A6000229A601A6802431A601A68D9
:104140008A431A607047C046048004400040024021
:10415000024B18680006C00F7047C046004002407E
:10416000014B98687047C0460040024010B580245B
:10417000044B1968A143196098601A6822431A60B9
:1041800010BDC04600400240F0B5334E87B00091EC
:1041900004003100009801920293FFF77DFA2F4D41
:1041A000070029000198FFF777FA2D49039002983C
:1041B000FFF772FA2B4904900C98FFF76DFA0399F8
:1041C00005903800FFF748FA059907000498FFF7B3
:1041D00043FA01003800FFF73FFA2060431C04D186
:1041E000482221492148FFF76BF92368204A93426E
:1041F0000FD0204A934219D180201F49C002CB6FB3
:104200001E4A0343CB6701211D4B196053680331DC
:104210000AE0802018490001CB6F184A0343CB679E
:104220000121184B196053680B435360310000980B
:10423000FFF7F8F929000198FFF7F4F90849029807
:10424000FFF7F0F90C9B013303D006490C98FFF7F8
:10425000E9F907B0F0BDC046781A01003419010031
:1042600070190100B41A0100B8190100FE1901000B
:1042700000000440008005400480044000800440A9
:104280009C80044094800440F8B50E000221140084
:1042900002681D00536807008B435360331F0C2BCB
:1042A00006D9032C04D9652210491148FFF708F9F3
:1042B0008023E0010340013E1E43A3073400396818
:1042C000DB0F0A689B01120C12041C4314430D22DD
:1042D0000C604B6893436A1E95410222AD001D435A
:1042E0004D604B6813434B60F8BDC046B8190100E0
:1042F000121A0100F7B5022405000E000268536887
:10430000A34353601A4B1B6801932100019805F0E9
:1043100047FE06F0B9FF071C300006F06DFF011CD8
:10432000381C06F0E3FAFC21890506F069F908F06B
:104330007FFD03F0D3FF08F003FDFF280FDC2B689F
:104340000C4A1C61196801380A4002211A601A6877
:104350000002104318605A680A435A6007E080233D
:1043600002345B009C42D0D10348FFF7B3F8F7BD9D
:104370002C010010FF0000FF501A01000222036808
:10438000D8681042FCD004229960D9681142FCD050
:1043900098687047104B70B51A68002A1AD1012529
:1043A00080210E4A1D60D36FC9000B43D3670C4BAD
:1043B0000C4C186802230C49636005F0F1FD0138CC
:1043C000E0600A4965601320FFF752FA8022084B2B
:1043D00012031A6070BDC046740E001004800440C1
:1043E0002C0100100080014040420F003D380000C9
:1043F00000E100E0044B10B51B68002B01D1FFF772
:10440000C9FF024B986810BD740E00100080014077
:104410000121034B98615A690A435A617047C046AB
:10442000008001400121024A53698B435361704768
:10443000008001400122014B1A607047008001405A
:10444000704770477047FFFF10B50548FFF778FBCE
:10445000044906F015FC05F0DDFF034B187010BD94
:10446000790E001000007F43780E001010B5FFF7A2
:10447000EBFF10BD10B502490248FFF707FB10BD66
:104480005C2E0000790E001010B503F04DF910BD40
:1044900070B50023FF2402250B480C4AC15C00299B
:1044A00006D0D15C0131C9B2FF2906D1D55407E04D
:1044B000D65C002E04D0FF2E01D1D15400E0D4549C
:1044C0000133072BEAD170BDF15E00107B0E0010A6
:1044D000034B185C013843425841C0B27047C04694
:1044E0007B0E0010002210B51D4B19781A701D4A62
:1044F0005078002801D001201870D078002803D00F
:1045000002241878204318701078002803D004245F
:104510001878204318709078002803D00824187861
:10452000204318701079002803D0102418782043F5
:1045300018705079002803D0202418782043187070
:104540009279002A03D040201A7802431A701B780F
:10455000054A180008409943044B1070197010BDAB
:104560007A0E0010F15E0010830E0010820E001013
:10457000014B18797047C046F15E0010014B587925
:104580007047C046F15E0010014B98797047C046F5
:10459000F15E0010014B18787047C046F15E0010C4
:1045A000014B98787047C046F15E0010014B587877
:1045B0007047C046F15E0010014BD8787047C04686
:1045C000F15E00100023094A1380094A1370094A5A
:1045D0001370094A13700122084B52421A80084A8C
:1045E000084B1A600922084B1A7070478A0E001097
:1045F000890E0010900E0010840E0010860E001020
:10460000C02601008C0E0010880E001010B5024864
:10461000FFF7D8FF10BDC046850E001037B572B643
:1046200000210422244B802559601961234BED00A1
:104630001A608E22224B92009C582C4380259C505D
:104640009C586D002C439C5001225A6714005967F6
:1046500019004B6F1A4D01222340FAD114002B6729
:104660006A676B674B6F164A2340FBD18E245364F5
:10467000516CA40093601367536015591149294088
:104680008025019101992943C825019101992D02A5
:1046900029431151A02284211206890153500A494D
:1046A00053500A4953500A4B9860001C01688D46CC
:1046B0004068804737BDC046004000A010E000E0E1
:1046C00000800440FF2500000421000008210000B4
:1046D00000ED00E070B504000D0005F04BFA291B59
:1046E00005F0CEFD081970BD10B501000020FFF7E0
:1046F000F1FF10BD7047FFFFF0B5C1B00E0000F034
:10470000CDFE00F0D7FE8023DB029B1B0400984205
:1047100000D91C0000F0B8FE8027134802F098FC76
:1047200000257F00A5421CD280216846490000F088
:104730008FFEFF2804D8631BBB4201D90B4806E05B
:10474000A819694603F0ECFB002804D0084802F0E1
:104750007FFC012006E001350648FF3502F06CFCC5
:10476000E0E7002041B0F0BD5A28010066280100B2
:1047700081280100662B0100F7B501260024514B6A
:10478000514D1E70514B1C80FC23DB002B8000F030
:10479000E9FE2100200000F015FF300002F00EFBC2
:1047A0000094019400F00CFE0421494800F02AFE18
:1047B000A0420FD100F072FE0820404200F050FEEF
:1047C0000421684600F044FE042101A800F040FEE8
:1047D00000F05AFE01273F4E7F423F4C2368B34210
:1047E00000D03E4C2368B34200D03D4C2368B34216
:1047F00000D03C4C2368B34217D020233A485B4298
:104800002B8002F025FC009B002B03D0374B019A34
:104810009A4240D8364802F01BFC364802F018FC99
:10482000FC23DB002B80344820E0344B34482B80C1
:1048300002F002FC0A2160682F8002F07CFC6368B1
:10484000009A934227D3A068FFF7E8FE17E0FFF72E
:10485000B3FE002834D1FFF7A9FE0028F7D0019954
:104860000098FFF749FF002826D0264802F0F0FB09
:1048700005E0FFF737FEFFF77BFE002804D1FFF7C6
:1048800077FE0028F5D01BE0FFF772FE002817D056
:10489000FFF728FEF8E71C4B1C482B8002F0CCFBEE
:1048A00000980A212F8002F046FCFC231848DB0008
:1048B0002B8002F0CDFBCEE7164802F0C9FB8CE757
:1048C000F7BDC0463701001032010010AE110010D4
:1048D000472901001EAB07B0F4FF030004FF0300EB
:1048E00004FE030004F003004F290100FF7F0300D2
:1048F00063290100DD1501007A290100FF0700008E
:10490000952901009F2901001FF8FFFFC52901001B
:10491000D9290100BB290100F8B50024012002F0CB
:104920004DFA484BFC271C8000F01CFE464D474BBF
:1049300047482B8001F0B0FC0123464E30213370F4
:10494000454BFF001C70454B60201C702F8002F00F
:1049500085FB434802F070FB3821602002F07EFBAB
:10496000404802F069FB4021602002F077FB3E489E
:1049700002F062FB4821602002F070FB3B4802F02D
:104980005BFB6021282002F069FB394802F054FBF0
:10499000013C38482C8002F04FFB37482F8002F052
:1049A0004BFB022335482C80337003F06BFB03195B
:1049B0000434042B00D8040003F08EFB85B2002CD5
:1049C00038D0FFF78FFD7821682002F047FB0A21DD
:1049D000200002F093FB03F07FFBFA239B00EB180F
:1049E000984203D903F078FB013C85B202F03EFF08
:1049F000002808D002F03AFF041E02D0FFF772FD33
:104A0000F8E7FFF7B9FE02F025FF002807D002F013
:104A100021FF002802D0FFF765FDF8E7040002F04F
:104A20001FFF0028CBD002F01BFF002802D0FFF7A9
:104A300059FDF8E70123337000F094FD002002F0E7
:104A4000BDF9F8BDAE1100103201001000F8FFFFF3
:104A50005C23010037010010310100103601001005
:104A6000332B01003A2B0100412B0100482B0100A0
:104A7000FE290100042A0100082A0100A20F0000FB
:104A8000F0B5984D1E002B888BB00400049109935B
:104A90005711002E06D00020322300901A0001008A
:104AA00000F084FD6A461021525E8E4B029222B2C3
:104AB0000392032F02DCFC22D20022E0042F1DD13E
:104AC00020235B422B80002E00D102E102F06EF920
:104AD0000500012002F072F902F010FD04990200B5
:104AE0001439601EC9B20A23C0B202F00BFB7E4823
:104AF00002F0A2FA280002F061F905E0042F01DDBE
:104B00007A4A1A80002EE1D1002F02DC784A754BD8
:104B10001A800123774A00930299039800F05CFD04
:104B2000012F02DC724A6F4B1A80A3B21D000126CE
:104B3000704C08352DB203932200330002992800EF
:104B4000009600F049FD6B461B8A22000493043B4B
:104B50001BB20593009633000599280000F03CFD38
:104B6000022F02DC624A5F4B1A800125039E2B0054
:104B7000103636B2220002993000009500F02CFD6C
:104B80002B00220005993000009500F025FD049BC4
:104B90000095083B1BB2069322002B0006993000BB
:104BA00000F01AFD032F02DC514A4E4B1A800124FB
:104BB000039D504E18352DB2230032000299280073
:104BC000009400F009FD23003200059928000094AC
:104BD00000F002FD2300320006992800009400F046
:104BE000FBFC049B00940C3B1BB207933200230098
:104BF0000799280000F0F0FC042F02DC3C4A394BF6
:104C00001A800124039D3B4E20352DB22300320033
:104C100002992800009400F0DFFC2300320005997F
:104C20002800009400F0D8FC2300320006992800E8
:104C3000009400F0D1FC2300320007992800009472
:104C400000F0CAFC049B0094103B1BB20893320096
:104C500023000899280000F0BFFC052F02DC244B3C
:104C6000204A13800125039C224E283424B22B00B5
:104C7000320002992000009500F0AEFC2B003200BB
:104C800005992000009500F0A7FC2B003200069942
:104C90002000009500F0A0FC2B00320007992000B6
:104CA000009500F099FC2B00320008992000009537
:104CB00000F092FC04992B001439320009B20095DF
:104CC000200000F089FC6A46064B928C1A800BB0DB
:104CD000F0BD0123074A00930299039800F07CFC81
:104CE00023E7C04632010010972A010000F8FFFFB9
:104CF0008A520000DE300100F0B5012087B002F0DA
:104D00005DF80022A14B1A7002F0F8FBFA200001B6
:104D100003F0B8F9040006F0B7FA9D4B9D491C80DA
:104D2000051C05F017FB002801D0FF2000E07F20C4
:104D300002F0D0FBFA21281C890505F0A1FF06F03E
:104D400039FA00B202F08AFBFC21281C890505F023
:104D500097FF06F02FFA00B202F080FB20B202F0BB
:104D60007DFB00228C4B64111C708C4B8C481A709C
:104D700003F088F9431E0400092B00D9894C03F085
:104D8000ABF983B204930123FC271D000393FF00BA
:104D9000854B1B78002B00D1D5E0002D00D1D2E04F
:104DA000002C00D1CFE003F097F9FA22049B920087
:104DB0009B18984208D903F08FF983B204937B4B78
:104DC000E3185A1E9341E41A012D03D0022D00D19D
:104DD00098E0DDE7039B764D002B32D0012600F0F2
:104DE000C1FB7642102120202E8000F0EBFB7148A1
:104DF00002F022F99921282000F0E4FB6E4802F02D
:104E00001BF96E482F8002F017F96D482E8002F0D2
:104E100013F9582100202F8000F0D4FB694802F0DC
:104E200017F9694E300002F013F9300002F010F962
:104E3000300002F00DF9300002F00AF9634802F088
:104E400007F99921302000F0BDFB534E3378032B36
:104E500002D801235B4200E05D4B2B8002235D4AB8
:104E600000933021013BA42000F0B6FB362118202E
:104E700000F0A8FB584802F0DFF81820422100F0AB
:104E8000A1FB33785548032B00D8554802F0D4F8DD
:104E90000223544A2F8060210093A420013B00F09C
:104EA0009BFB6621182000F08DFB4F4802F0C4F8F0
:104EB0007221182000F086FB02F020FB7F2802DD23
:104EC000434B2B8000E02F80334B394D1A78042A56
:104ED00002D1243A2A8003E0072A01D1013A1A704C
:104EE00018780A2102F00AF9404802F0A5F82F804C
:104EF00002F004FB0023020077217020FFF7C0FDC1
:104F0000022545E7FFF7EEFAFFF7C2FA02F0A2FC2E
:104F10000590002801D000253AE72800FFF7D8FACD
:104F2000061E05D002F0A8FA059B1E4C039308E06C
:104F3000FFF7CEFA002800D12AE71A4C02F0B4FAA3
:104F40000396012524E702F0D9FA0400FA200001B3
:104F500003F098F80600200006F096F9051C3000D2
:104F600006F04AF9011C281C05F0DAF9002804D1E2
:104F7000FA20E1B2000103F08EF820B202F06EFADE
:104F80000021080000F01EFB07B0F0BD3101001049
:104F9000585D00100000FE425A5D00109B0E00108C
:104FA000A30F0000FFFF0000990E00100100FFFF9B
:104FB00032010010132A010040290100272A0100B4
:104FC000292A0100342A01004F2A01006A2A01001F
:104FD00000F8FFFF9A300100FB280100852A01003C
:104FE0008F2A0100BC3001009A2A0100972A010093
:104FF000012210B5084B00201A7001F0DFFE0748AF
:1050000001F04AF903F058F803F07CF802F08CFB49
:1050100003F068F810BDC046990E0010F41C0100A2
:10502000014B18787047C046990E0010F7B5002460
:10503000FC2725005826FF00292D48D803F04CF8FE
:10504000234B1A689042F7D91E301860012D0BD0FF
:10505000002D02D0022D22D035E01E4B28001D80ED
:1050600000F08EFA01252EE0FC21E2B2C9000020FA
:1050700002F08EF8184B194A18806E235178107878
:10508000490840081C34181A711A00952B00A4B264
:1050900000F0A2FAFE2C16D90024022513E00E4BD4
:1050A0000E4A1F806E23107851784008181A49085C
:1050B0006D3B0093711A00F08FFA3F34084BA4B295
:1050C0009C4200D9FF25FFF753FA0028B4D0F7BD62
:1050D000C8600010AE11001032010010902B0100CA
:1050E000FF03000010B57F2002F0F4F97F22034B8C
:1050F0001A80034B80321A7010BDC046585D0010F4
:10510000980E0010F7B5FFF773FF05220125FF2465
:10511000354B1A70354B1D60354B1C70FFF7E2FFA5
:10512000FFF78EF92000FFF78CF9FFF7ADF9FFF7D5
:10513000AFF9FFF79BF900F040FA2E4802F0A2FF0A
:105140000400830704D5290081432A4802F0A3FF05
:1051500001231C4001D1FFF769FF0026012001F067
:105160002DFE254F3E8000F0FDF9244D280001F072
:1051700093F8012001F022FEFC22214BD2002800EE
:105180003E801A8001F088F801231E4D2E701E4EBD
:105190003370002C14D1FFF7BFFBFFF7ADFD00F01B
:1051A000F3FCB0232200009321002C33200001F0F7
:1051B000B1FE164B1B79002B07D0FFF769F9F8E712
:1051C00002F09CF900B202F049F9002001F0F6FD6E
:1051D00001230F4A0F4813700F4A2B70337013705E
:1051E00001F05AF8F7BDC0469A0E0010A00E00104C
:1051F000980E0010B40F0000AE1100105C230100E7
:105200003201001031010010360100107B0E001039
:1052100037010010F81F010039010010F0B51F4BD5
:1052200085B01A780393002A36D000240B2A02D8BE
:105230000C239C1AE4B20127194B0020AD251F70E6
:1052400000F002FD0322174EA4B231780020CB1CDF
:10525000691A61180092513200F0E1FF380000F045
:10526000F3FC032231780020CB1C691A61180092EC
:10527000513200F06EFF04220B4B1A803378E41A8F
:105280000A4BAF341C800A4B186801F0D5FE039B13
:10529000039A1B78013B137005B0F0BDB80E0010E7
:1052A000370100102A0F0010A6110010381100104D
:1052B000AC0E0010F0B587B005930CAB03910492CF
:1052C0001F78060002F008FF244B25491B780A6866
:1052D0000400121A234D9A422DD92A68002A2AD096
:1052E0000026214AC3180B6013682E600133136037
:1052F000FFF7A8F8FFF7CCF8FFF7A6F81B4D1C4FF7
:105300002B683968581C0123286002938C4222D9EB
:10531000FA239B005843174B611AC91804F040FE4A
:105320006A46154B127A1860124B2E60E3183B60E8
:10533000124B1A700FE0002302932B68002B0AD146
:10534000FFF76CFF059B0097049A0399300001F06A
:10535000E1FD01232B60029807B0F0BD9A0E00100A
:10536000B40E0010A00E0010940E0010A40E001039
:10537000B00E0010B80B0000A80E00109C0E00101C
:1053800010B5024800F09AFF10BDC0469D0E0010F7
:10539000A0228023802012069B01D1588000014367
:1053A000D150D1580138FF380143D150D158C038BD
:1053B0000143D150D15840300143D1507047FFFFD5
:1053C00010B5FFF7E5FFFDF791FC094C2070094887
:1053D000FDF7B6FE084920700848FEF743F8084B71
:1053E00020700022002800D101221A7010BDC04692
:1053F000130F0010BC0E0010DD150100140F00107B
:10540000280F001070B50F4D06002B780C00102BE4
:105410000BD030002C70FDF73DFF041E0DD1310084
:10542000094804F017FC20000AE00848FDF788FE50
:1054300003000120002BECD002E0082301202B7098
:1054400070BDC04630010010040F0010BC0E0010EB
:1054500013B56B469C1D2200FDF74CFF208816BD3E
:1054600010B5074B002804DADA6941428A4200D2BB
:105470005042DB69C018FDF79FFF024B187010BD4A
:10548000BC0E0010130F001010B50020FDF794FFA4
:10549000014B187010BDC046130F0010034B10B520
:1054A000186AFDF789FF024B187010BDBC0E001082
:1054B000130F0010014BD8697047C046BC0E001096
:1054C0000123812213B5074C5B4200935201064B26
:1054D00006492000FEF736F9054A06492000FEF786
:1054E0008BFA13BDEC0E0010180C00002412000003
:1054F00000010010353700007047FFFF10B50B4B5F
:105500001B785B1059434310C918094B89B21B68BB
:1055100059180C780F23C00702D59C43224303E09F
:10552000234012011A43D2B20A7010BD3E0100108E
:105530002C0F0010084B10B51B8893420BD0074B63
:105540001C7883B29C4206D9054B1C788BB29C42D6
:1055500001D9FFF7D3FF10BD400100103E0100103C
:105560004201001010B5002002F050FA0023024A58
:105570001380024A138010BDA611001038110010CC
:1055800010B502F043FA10BD064B10B51B880F2B67
:1055900004D8054C5B001B5B934201D002F0A2FBD8
:1055A00010BDC04640010010300F001013B504AC10
:1055B0002488009402F0C6FB13BD10B502F086FAF1
:1055C00010BDFFFF024B1880024B19807047C04688
:1055D000A611001038110010F0B58FB00B9114A96E
:1055E00009780A9008911178059151780232099151
:1055F0000092012B76D1059B0733DB100C936B4691
:105600001B8D07930493002303936B460C21595E73
:10561000059B8B4200DCF0E00723CA171A405218A2
:10562000D21053B20A93764B0B4004D50822013BAB
:1056300052421343013380221BB21A416B469B8DA9
:105640000D9206930293002301936B4604229B5E06
:10565000099A93423EDA0C9A0A995343009A5218D7
:10566000D35C0D9A1A422DD0089B664C012B09D1B0
:10567000069B019903985918079B2288181809B2AC
:1056800000B21DE06B461027DF5F6B4608269E5F69
:10569000228831003800FFF777FF049B31005D1C42
:1056A0002DB222882800FFF76FFF029B22885E1C24
:1056B00036B231003800FFF767FF3100280022883A
:1056C000FFF762FF019B01330193029B02339BB200
:1056D0000293BAE7039B01330393049B02339BB20B
:1056E000049392E7042B00D087E00023099A9342A9
:1056F00000DB82E09BB202936B469B8D00250793F3
:10570000029B079A5B00D3189BB21AB201331BB2FB
:1057100004936B461B8D039206930193059BAB424A
:1057200067DD009B384A1B7812681B115B009E5A8C
:10573000089B022B19D1069B6C001C19A4B227B23E
:10574000013432000399380024B2FFF71DFF320004
:1057500003992000FFF718FF320004992000FFF79B
:1057600013FF32000499380007E0029B079A99184A
:105770006B4632000420185E09B2FFF705FF0F22C6
:10578000009B1B781340204A5B0012689E5A089BBE
:10579000022B1AD1069B6C001C19A4B2A71C3FB2A5
:1057A000033432000399380024B2FFF7EDFE3200D3
:1057B00003992000FFF7E8FE320004992000FFF76C
:1057C000E3FE32000499380007E0029B079A99181B
:1057D0003200019B09B2581C00B2FFF7D5FE009BB6
:1057E000023501330093019B2DB202339BB201932A
:1057F00094E7029B01331BB278E70FB0F0BDC046BF
:10580000070000803201001034110010F0B51300C1
:10581000574A8DB014680F00627811000192F72288
:1058200008390A40511E8A410199C910521808923C
:10583000089922784A43511C4B431A00A218127946
:10584000053352B2099282B20B9206920022E318FB
:1058500005926A46127D099952B2914200DC7CE0C1
:1058600008991A78022903D00133079393B204E010
:10587000991C5B7807911B02134300240293059B3C
:105880000B9A5B00D3189BB21AB201331BB203927E
:105890000493019BA34257DD0122029B134217D0C0
:1058A000344B1B78022B07D16500ED19ADB2324E97
:1058B0002BB20A9332881AE06946304B18254D5FA7
:1058C0001A782D4B002A01D01A882BE01A8830E074
:1058D0002B4E2C4B32881B8893422FD0254B1B78A4
:1058E000022B18D16500ED19ADB22BB20A93190045
:1058F00003980135FFF748FE2DB232880A990498C3
:10590000FFF742FE328829000398FFF73DFE3288F8
:105910002900049810E06946184B18254D5F1B7844
:10592000002B06D0019B2900581EC019031B18B27A
:1059300002E02800E11909B2FFF726FE029B0134BC
:105940005B08029364B2A4E7059B01330593069BB1
:1059500001339BB20693079B7BE700200A4B185646
:10596000099BC018034B1B7858430DB0F0BDC046CF
:105970003C1100103701001032010010AC11001072
:10598000AE1100104001001031010010F0B51300FD
:10599000724A91B00691116802904A781000019203
:1059A000F72208380240501E82410198C010121898
:1059B00008780792424301325A43531D8A181279DC
:1059C000CB1852B20592664A1178022901D0012102
:1059D0001170029C6349002C21DB069C002C1EDB0D
:1059E0001278029C504300195F4C2478A04216DACA
:1059F000019801304243069812185C4800788242B0
:105A00000DDA5B4A088811885A4A814200D05A4A06
:105A10005A490C88574984420ED057490CE0544AE1
:105A200008881188534A814200D0554A53490C884E
:105A30005049844200D052490E9150490F92098832
:105A40000DAA11704A49029D098800275170444AE5
:105A50001278022A30D0029A0599AA1A52B29142BB
:105A600022DD079A1C78022A02D05F1CA4B203E050
:105A70009F1C5B781B021C430026019BB3420FDB7B
:105A80000123069923400DAAD25C71180EA89B0031
:105A90001B5809B2280001369847640876B2ECE733
:105AA00001352DB23B00D6E70020364B1856059B3A
:105AB000C01850E0089B013705997AB2914244DD45
:105AC00007991A78022903D00133089393B204E0AE
:105AD000991C5B7808911B021343029A04937B0084
