:1000000000800010FD000000510F0000530F0000A1
:1000100000000000000000000000000000000000E0
:10002000000000000000000000000000550F00006C
:100030000000000000000000570F0000B159000050
:10004000590F0000590F0000590F0000590F000010
:10005000590F0000590F0000590F0000590F000000
:10006000590F0000590F0000590F0000590F0000F0
:10007000590F0000590F0000590F0000590F0000E0
:10008000590F0000590F0000590F0000590F0000D0
:10009000590F0000590F0000590F0000590F0000C0
:1000A000590F0000590F0000590F0000590F0000B0
:1000B000590F0000590F0000590F00000000000008
:1000C0004CC5000000010010A40000004CC5000059
:1000D00000000020000000004CC50000004000208F
:1000E00000000000A4010010282D000000000020E6
:1000F00000000000004000200000000010B5114C7E
:10010000114B9C4207D2206861680C34231F1A6887
:1001100000F023FFF4E70D4B9C4205D22068616894
:1001200000F024FF0834F6E700F080FE084B002BB7
:1001300002D000E000BFFEE705F0B6FD00F03AF89F
:10014000F9E7C046C0000000E4000000FC00000029
:100150000000000010B5064C2378002B07D1054B9A
:10016000002B02D0044800E000BF0123237010BD23
:10017000A4010010000000004CC5000008B5084BA9
:10018000002B03D00748084900E000BF0748036878
:10019000002B03D0064B002B00D0984708BDC0466B
:1001A000000000004CC50000A8010010A4010010D0
:1001B00000000000F0B5574C89B0002515216943B7
:1001C0002023A380E380042323816381524B89B2DF
:1001D000AA00D25801260BB221806180E8B20093B8
:1001E00001964E49AD1903F03FFE0C34042DE5D1C4
:1001F0004B4B4C4A1E704C4B02251A804B4A5A807E
:100200004B4A9A8022225242DA8002F0BFF86420E0
:1002100002F0CEF902F046F8002878D0B02300931F
:10022000002D0FD00020011C021CDC2302F05AF923
:100230000028EFD00020011C3E4A013D03F0F2FBF4
:10024000EDB2E7E70120291C2A1CDC2302F04AF961
:100250000028DFD0049505952E4B049A9C18A2889F
:1002600026890692E2880792049AD35A6289F61880
:100270006388B6B2D3189BB237B203933B1C2033CA
:1002800003DA042323812C4E10E002F02BFA069AA5
:1002900013B2C01A1F30B84208DA02F023FA069BE4
:1002A000C61A04231F365B42B6B22381039A17B2E3
:1002B0003B1C203304DA204A04236381039211E0BB
:1002C00002F016FA079A13B2C01A1F30B84209DAC0
:1002D00002F00EFA079BC01A1F30042380B25B4263
:1002E00003906381059A039BD0B231B21AB203F036
:1002F000CDFD049A074BD652039B059A6380049B5D
:1003000001320C3305920493042AA5D182E709B087
:10031000F0BDC046C0010010040100105EA5000041
:10032000B92800100BEDFFFFC4280010C380FFFFA9
:10033000A4C1FFFF8C7F0000E0FF000008B5024869
:1003400001F060FB08BDC046F001001008B5011CBB
:10035000014800F00BFD08BDAC02001008B50348D1
:10036000FF2100F003FDC0B208BDC046AC02001082
:10037000F8B543B2041C0D1C002B07DA77200021CE
:10038000FFF7F6FF012832D87F231C40A0268823E0
:100390009B0136068027F750FFF7E0FF8A239B0179
:1003A000F750FFF7DBFF201CFFF7D0FF280EFFF709
:1003B000CDFF280CC0B2FFF7C9FF280AC0B2FFF773
:1003C000C5FFE8B2FFF7C2FF402C04D08720482CBD
:1003D00002D0012000E09520FFF7B8FF0A24FFF7C4
:1003E000BDFF030603D5013CE4B2002CF7D1F8BDF4
:1003F00073B58823404DA0249B0180222406E2503F
:10040000281C3E4900F0A8FC281C0821002200F00E
:1004100097FC84239B01E3586425013DEDB2FFF76F
:100420009DFF002DF9D14020291CFFF7A1FF041EDC
:10043000012C35D1D52148204900FFF799FF01282B
:1004400015D1FFF78BFF01AEA8550135042DF8D16A
:10045000B378012B24D1F378AA2B21D1284C802109
:10046000C905E920FFF784FF011E3BD11AE0E9200E
:10047000291CFFF77DFF4126012801D80224E92627
:10048000204D301C0021FFF773FF00282FD1002DD5
:1004900006D0802150208900FFF76AFF002813D082
:1004A000002411E0002CFBD07A20FFF761FF002828
:1004B000F6D1041CFFF752FF30550134042CF9D15A
:1004C00033785A0600D50C240F4BA0221C708823C9
:1004D00080219B011206D150FFF740FF604260412E
:1004E000C0B276BD013CA4B2002CD9D0B7E7013D23
:1004F000ADB2002DD4D0C4E7AC020010002D310104
:10050000E02E0000A8610000F1010010F8B51D1CEC
:10051000234B071C1B78141C1A0700D449025120D6
:10052000FFF726FF002801D001262FE01D4EFFF720
:1005300015FFFF2804D1013EB6B2002EF4D0F6E735
:10054000FE28F1D1184E761B361BB6B2002C02D114
:100550003C1E05D10EE0013CFFF700FFA4B2F5E719
:10056000FFF7FCFE7A192070013492B2A3B29A42CE
:10057000F6D105E0013DADB2FFF7F0FE002DF9D157
:10058000013EB6B2FFF7EAFE002EF9D18823A02281
:1005900080219B011206D150FFF7E0FE301CF8BD10
:1005A000F10100103075000002020000064B821EAF
:1005B0001B680020D96802398A4203D258789B69A7
:1005C0005043C0187047C046F40100100F4B10B5DF
:1005D0001A68002303808368041C012B14D0D1689F
:1005E00001208B4211D2002B03D11178032900D1B5
:1005F0005369E360002B03D0181CFFF7D7FF00E01E
:1006000050692061002000E0181C10BDF4010010AA
:10061000F0B5324B85B0041C1D6801285AD9EA6830
:10062000904257D22E78022E32D0032E40D0012E87
:1006300050D183B25A08D3189BB2DA055B0A0193F2
:10064000274BD20D03AF29699A4204D0019B381C75
:10065000591802230EE0019B381C5918331CFFF770
:1006600055FF021E36D12969019B01316846C91820
:100670000D30331CFFF74AFF00282BD17B783878E8
:100680001B0203431811E20725D41805000D22E0D0
:100690002B69010AC4B203AFC9186200381C331CAD
:1006A000FFF734FF002815D178783B7800020FE07F
:1006B0002B697F22C10903AE1440C918A200301C67
:1006C0000423FFF723FF002804D170783378000259
:1006D000184300E0012005B0F0BDC046F401001051
:1006E000FF01000070B50588154B0135ADB2041C43
:1006F0001E68002D01D1032021E00369002BFAD0F0
:100700002A0718D101330361C068002803D1B388D8
:10071000AB42F0D90FE072782B09013A1A420AD1A4
:10072000FFF776FF012809D9F3689842E3D2E06029
:10073000FFF73CFF20612580002000E0012070BD14
:10074000F4010010F8B5041C0D1C2B78202B01D1EE
:100750000135FAE72F3B5A4253410026ED18A660B7
:100760002B78202B2BD8201CFFF730FF3E4B1B682B
:100770009B681E7076E03378002B65D0F27A0823F0
:1007800013405AD16268F15C0133D0180138007807
:10079000884252D10B2BF6D1D37A002B61D13B6822
:1007A0009B68DA7AD1065AD55A7D197D12020A431E
:1007B000D97E9B7E090212040B431343A360606839
:1007C000021C031C0B32934203D020211970013309
:1007D000F9E70022131C08215E1CEB5CF6B2202B0B
:1007E00010D92F2B0ED02E2B34D08A420AD21F1CA8
:1007F000613F192F01D8203BDBB2571C8354FAB25A
:10080000331CE9E70022202199425241C272201C88
:10081000AD19FFF7DBFE002814D1134F3B689E682B
:1008200022880F231A405201301C21692023FFF730
:100830006DFE00289FD0012014E0201CFFF752FF1E
:100840000028EDD003280DD16368D87A434258417F
:10085000033007E00829D5D10A1C0B21D0E704207A
:1008600000E00020F8BDC046F401001030B51B4B7D
:10087000011C1D6891B00620002D2CD0002308AC6F
:10088000AB70AC6000AB03A80493FFF75BFF0028DC
:1008900021D123780320002B1DD0E27A10231340AE
:1008A00019D1617D227D09021143E27EA07E1202F0
:1008B000090402430A436A62E17FA27F0906120427
:1008C0000A43217F181C0A43617FEB6109020A4336
:1008D0002A620122AA7011B030BDC046F401001096
:1008E000F7B5314B01901C6800230D1C171C1380B9
:1008F0009C4257D0A3780520D90754D5226AE169D4
:10090000531A9D4200D99DB2019A0092002D43D006
:10091000E669F3051BD1700A617805F063FE0029D2
:100920000BD1002E01D1606A02E0A06AFFF770FED1
:10093000012833D90023A062E370A06AFFF736FED6
:1009400000282BD0E3785A1CC318E270E362E369F5
:100950002E1CDA058023D10D9B005B1A9BB29D42B1
:1009600000D91E1C01980099431E9841B6B240421E
:100970000840D20DE16A331CFFF7C8FD00280DD1F5
:10098000E269AD1B9319E361009BADB29B19009323
:100990003B88F6183E80B9E7281C04E00023A370CA
:1009A000012000E00620FEBDF40100102A4BF7B53F
:1009B0001C68002C4CD0A2780523D10749D5236AA6
:1009C000051E9D4200D91D1C0022E369E26195428B
:1009D00038D066787602002B12D0311C681E5F1E5C
:1009E00005F0BCFD311C0190381C05F0B7FD019AE3
:1009F000824205D373423B40E361ED1AA06A0EE0E8
:100A0000606AA0620BE0FFF703FE01281CD9E368CF
:100A1000984219D2E169A0628B19E361AD1BB5421E
:100A2000F1D8E2695319E361FFF7C0FD00280BD04C
:100A30006B0ADAB2ED0501D1E27003E00132181859
:100A4000E270E062002304E00023A370012300E0D1
:100A50000623181CFEBDC046F401001030B5154B2E
:100A6000051C1B688DB00620002B20D004AC9C60B8
:100A700001AB6B60281CFFF765FE002814D12378BA
:100A8000002B0ED0E37A0420DA0610D5627D237D98
:100A900012021A43E37EA17E1B0212040B4313438E
:100AA000AB60281CFFF792FD032800D104200DB095
:100AB00030BDC046F401001038B5051C0C1C131CD9
:100AC000291C0248221C00F003F838BD60A6000073
:100AD0000FB404B0704770B50D1C041C161C00F058
:100AE0009BFA013507D0201C002100F0BDFA201C24
:100AF000311C00F0B3FA70BD08B50122FFF7EBFF1F
:100B000008BD000010B5044B041C083303601C3002
:100B100000F082FB201C10BD98A6000010B5041C3C
:100B2000FFF7F0FF201C00F02BFA201C10BD000086
:100B30000F4B70B50833051C08C5041C0E1C281C7F
:100B40000021182205F00DF90023201C311CE3615F
:100B500023626363A363E364064A231C1C3000F032
:100B6000F9FA281C311CFFF7C7FF201C70BDC046D6
:100B700098A60000D90B000008B50A1C031C1C3005
:100B8000002905D00022196201215A630A1C00E0E5
:100B9000012100F055FB08BD08B50A1C031C1C30E0
:100BA000002905D000229963DA640221012200E0C5
:100BB000022100F045FB08BD08B54369011C002B6C
:100BC00004D10368002B06D0984704E00068002891
:100BD00001D00431984708BD08B5012903D0022986
:100BE00004D1383000E02030FFF7E6FF08BD0000F8
:100BF00010B5041C421C12D00B685A1C0CD0A34226
:100C000008D1201C896800F041FB201C002100F065
:100C100059FB04E00C31EFE70148FFF759FF10BD25
:100C2000A8A6000008B588420AD0431C07D00131AD
:100C300006D00448FFF74CFF0120404200E0081CAA
:100C400008BDC046B9A600000B685A1C05D08342F7
:100C500001D1486802E00C31F6E7181C704700002B
:100C600010B5041C431C07D0FFF7EEFF041C431C07
:100C700002D10248FFF72CFF201C10BDCAA60000BD
:100C8000074A13681818EFF30881884205D3054B0B
:100C90000C2201201A60404201E01060181C7047CD
:100CA00014010010C82E0010014B08330360704778
:100CB00008A7000010B5044B041C0833036000F0C3
:100CC0005FF9201C10BDC04608A7000073B5041CC6
:100CD0000E480025083020600820E0600C48261DE2
:100CE000606106986560257225610090301C00F0F7
:100CF00027FC301C2B1CE168226900F0A1FC301C91
:100D0000616900F0D3FC201C76BDC04608A7000036
:100D100040420F0070B5094D041C2B6883420BD074
:100D2000061D301CE1682269002300F089FC301C9C
:100D3000616900F0BBFC2C6070BDC046F80100107A
:100D400008B5044B0261C16000221A60FFF7E2FFA0
:100D500008BDC046F801001008B5034B00224161F0
:100D60001A60FFF7D7FF08BDF801001038B50D1C59
:100D7000041CFFF7CFFF291C201D00F0DDFC38BD4F
:100D800038B50368041CDB68984763685A682368B1
:100D9000002A02D19B68984714E05B681568984761
:100DA00063682D1A002D08DC5A68916859601B6829
:100DB000002BEAD050689847E7E75B68226818681C
:100DC0001369984738BD000008B50248FFF7D8FFFF
:100DD00008BDC04634A7000038B5041C00F0E8FC8C
:100DE000051C00F0E5FC401BA042FAD338BD08B555
:100DF000FA239B005843FFF7EFFF08BD0A4A70B57E
:100E0000956893682C1C002B0AD1802676059C19C6
:100E10005E5904332660C02BF7D1802464059460AA
:100E200010308000015170BD00ED00E07FB53E4AFA
:100E30008021D06F49023D4B0143D16723223C49B9
:100E40009A6001220A603B493B4D0A6000228E21D4
:100E50001A62890058582024284001900198A04324
:100E60000190019CC8200002204358500092009934
:100E7000324A914203D8C046009A0132F6E7012275
:100E800000211A645A6459645A64596C274AC80785
:100E9000FBD58E218900505880242840029002986A
:100EA00020430290029EC82000020643565023268B
:100EB0009660565835400395039DA5430395039CC2
:100EC00020435050D8680121184A0842FAD0032024
:100ED00010670020516750675167586F0121134A0E
:100EE0000842FAD08E20916780001558144C2C408F
:100EF00014501558134C2C40145000209164D164A8
:100F0000D064D164DA6CD107FCD5084A2321116181
:100F1000596901221142FBD00B4B00211960196065
:100F20000A4B1A607FBDC046048004400080044024
:100F3000F0400440F4400440FF250000C3090000D5
:100F4000FFFBFFFFFFFEFFFFC0800440C88004409E
:100F50007047704770477047704710B50023934241
:100F600003D21C585C500433F9E710BD00238B42B8
:100F700003D200221A500433F9E77047002070476B
:100F800008B504F0B7FE08BD10B5041C421C04D11E
:100F9000164817491E22FFF78FFD164B1A68002AC4
:100FA00006D101221A60144B1449DA6F0A43DA673A
:100FB0000121002C12D0124B9C420FD0114B9C42AD
:100FC0000CD0114B9C4209D0104B9C4206D0104BC8
:100FD0009C4203D00F4BE1184B425941201CA40402
:100FE00000F054F9E40E0120A04010BD88A70000D5
:100FF0003CA70000040200100480044040000100EF
:10100000281400002C16000030180000341A0000CC
:10101000381C0000C4E1FFFF38B5041C0D1C216022
:101020004A1C11D0081CFFF7AFFF2D14074AAD0072
:10103000AB18074AE360AB18064A2361AB1863613B
:10104000054B6060ED18A56038BDC046002200A0C9
:10105000802200A0002100A0002000A008B50068A8
:1010600000F030F908BD000038B50368041C0D1C01
:10107000013304D109480A494322FFF71DFD002D21
:1010800006D0012D09D1A368626819680A4303E0FC
:10109000A36861681A688A431A6038BD83A7000094
:1010A0003CA70000F8B5144D01210C1C6B6A84406C
:1010B000234220D0114B8700F85800281BD02B6802
:1010C000234218D16B68234206D0EB69234203D038
:1010D0000B4B1B689847EC612B69074E234209D0E4
:1010E000336A234206D0054B0221D859044B1B68B2
:1010F000984734626C62F8BD004000A00C020010FA
:101100000802001008B50020FFF7CCFF08BD08B5A5
:101110000120FFF7C7FF08BD08B50220FFF7C2FF97
:1011200008BD08B50320FFF7BDFF08BD08B50420C2
:10113000FFF7B8FF08BD08B50520FFF7B3FF08BDEE
:1011400008B50620FFF7AEFF08BD08B50720FFF77A
:10115000A9FF08BDF0B5061C274885B0814202DD15
:101160000120404246E025480260002224489500C4
:101170002C580294002C39D12B5022483260C46F75
:10118000214F224B3C43C4678803800F18244443FB
:1011900049121F270F40111CBC465E316444890070
:1011A0000090CC508121890001245858271C974079
:1011B000384358500099A02388001B06C01880238C
:1011C0009B01C75861460397271C8F400399B94379
:1011D000C1500F4B50B2E958FFF710FE33681F2281
:1011E00013409C400B4B02981C6003E00132082A1C
:1011F000BCD1B5E705B0F0BD131102000802001024
:101200000C020010048004408000090000800440AB
:101210009CA7000000E100E0036800219A00064B53
:1012200010B5D150054A81239B000068D158012494
:101230008440A143D15010BD0C0200100080044036
:10124000036870B5104D012098402B68034200D10F
:1012500068622E68C44326400B4B2E60012909D1D9
:10126000002A03D05A68104358600CE05A681440B2
:101270005C6008E0002A03D01A691043186102E09C
:101280001A6914401C6170BD004000A038B5041CF0
:101290000D1C431C04D1084808491522FFF70CFC1B
:1012A000074BE405E40DE418226807239A431D4028
:1012B000131C2B43236038BD88A70000BCA7000087
:1012C0000040044038B5041C0D1C431C05D11148D6
:1012D00011491D22FFF7F0FB06E081231B01984214
:1012E00016D00E4B984213D0E4050D4BE40DE418D4
:1012F0002268042D04D18023DB001343236007E020
:1013000018239A4303231D40EB00151C1D43256041
:1013100038BDC04688A70000BCA70000140A000022
:101320000040044038B5051C0C1C081C002105F0C9
:1013300015FA002809D1FE21201C890505F022FAA2
:10134000002803D0FE24A40500E000242D6880239B
:101350009B00E85806F0AEF8211C05F08FFD05F063
:1013600025FA81239B00E85038BDF7B58023812200
:10137000046895009B00E758081C6659E15006F088
:101380003DF80190301C06F095F8061C381C06F05C
:1013900091F8011C301C05F08DFB011C019805F033
:1013A0006DFD05F003FA6051F7BD0000F7B5041CB0
:1013B0000F1C081C5149FFF753FCC3B2061CFF2B3E
:1013C00002D14F48FFF784FB4E4801230178051CEA
:1013D0000A1C1A4000D18EE01941194200D084E065
:1013E0002A78012199400A432A70474A990089586E
:1013F0006360216045498025C86F454A01902806F1
:10140000019D09330543CD67012051689840031CB5
:101410000B435360381C3949FFF7EAFB27683D4A04
:101420003B683D4913433B607B680C2213437B6060
:101430007A683A4B13407B60394B7D68186805F039
:101440008DF87F2301381840400128437860F0B2BE
:10145000012507281DD805F077F8040A1016040A9C
:101460001016A023DB00FD5002222E4B10E0A1231A
:10147000DB00FD5002222C4B0AE0A223DB00FD50D2
:1014800002222A4B04E0A323DB00FD50284B02225A
:10149000FA508022C12352019B00FA500123C0223E
:1014A0005B429200BB502349C3229200B950802571
:1014B0002149C222AD009200BB5079517B5981264F
:1014C000B6009B08BB517B68042293437B60201CC1
:1014D000FFF74BFF2468605905F0ECFF002105F091
:1014E000CDFC05F063F9A051F7BD1448FFF7F0FA01
:1014F00001235B4274E7131C72E7C04604A8000096
:1015000070A800002C0200109CA800000480044079
:10151000008004400100060040420F001FF0FFFF62
:1015200018010010040500000C050000140500005F
:101530001C05000001100000204E00008AA80000D9
:10154000F0B587B0041C0091081C31490192029348
:10155000FFF786FB2F49071C0198FFF781FB2E4DF3
:101560000390291C0298FFF77BFB2C4E0490311C42
:101570000C98FFF775FB03990590381CFFF752FB99
:101580000599071C0498FFF74DFB011C381CFFF759
:1015900049FB204F2060013004D1214821494822D5
:1015A000FFF78AFA2368204A93420FD01F4A9342DA
:1015B00019D11F4A8021D06FC9020143D1671D4A4A
:1015C00001211D4B11605A6804210AE0184A80214C
:1015D000D06F09010143D1671849174B01220A60F6
:1015E00059680A435A6000980949FFF701FB0198BE
:1015F000391CFFF7FDFA0298291CFFF7F9FA0C9B3A
:10160000013303D00C98311CFFF7F2FA07B0F0BD9C
:10161000E8A90000A4A80000E0A8000024AA000097
:1016200028A900003CA900000000044000800540FB
:10163000048004409C800440008004409480044066
:10164000F8B51F1C0368151C5A680E1C02218A433A
:101650005A60331F041C0C2B06D9032D04D91148E2
:1016600011496522FFF728FA23680122281C19680E
:10167000D5401040C0012A40013E06439201090CAA
:10168000090416430E431E605A680D218A43791ED1
:101690008F41BF0017435F60236802215A680A43E5
:1016A0005A60F8BD82A900003CA90000F7B50368A4
:1016B00002245A68051CA2435A601C4B0E1C1B686E
:1016C0000193211C019804F049FF05F097FE071CC7
:1016D000301C05F093FE011C381C05F0EBF9FC21D1
:1016E000890505F07BF806F0D1FB04F025FA06F039
:1016F00099FBFF2810DC2B680D4A1C611968013822
:101700000A401A601A680002104318602B68022110
:101710005A680A435A6007E0802302345B009C4207
:10172000CFD10448FFF7D4F9F7BDC0461801001027
:10173000FF0000FFC0A9000010B50368DA68940735
:10174000FCD599600368DA685107FCD5986810BD2C
:1017500038B5104B1A68002A1AD101251D600E4BAE
:101760008022D96FD2000A43DA670C4B0C4C186800
:10177000022363600B4904F0F1FE0138E0600A497E
:1017800065601320FFF73AFB8022084B12031A60B2
:1017900038BDC0463002001004800440180100101B
:1017A0000080014040420F00C90D000000E100E050
:1017B00008B5044B1B68002B01D1FFF7C9FF024B92
:1017C000986808BD3002001000800140034B0121E1
:1017D00098615A690A435A617047C04600800140C7
:1017E000024B01215A698A435A61704700800140C7
:1017F000014B01221A60704700800140704770471A
:1018000070477047014BFF221A7070473402001076
:1018100008B502F055FC08BD0023094AD15C094A0D
:10182000002902D0D15C013105E0D05C002803D052
:10183000FF2800D0FF21D1540133072BEDD1704791
:10184000302D00103602001010B51E4B0022197802
:101850001A701D4A5078002801D001201870D078E5
:10186000002803D01878022420431870107800282C
:1018700003D018780424204318709078002803D0EF
:1018800018780824204318701079002803D018789D
:101890001024204318705079002803D01878202491
:1018A000204318709279002A03D01A78402002430E
:1018B0001A701B78081C18409943044A044B107096
:1018C000197010BD35020010302D00103E020010BE
:1018D0003D020010014B18797047C046302D0010B2
:1018E000014B58787047C046302D0010014BD87816
:1018F0007047C046302D0010094A00231380094A62
:101900001370094A1370094A1370094B012252429D
:101910001A80084A084B1A60084B09221A7070474F
:1019200046020010450200104C0200103F02001059
:10193000420200102CB400004802001044020010C3
:1019400008B50248FFF7D8FF08BDC04640020010A6
:1019500037B572B6244B002159601961234B04221C
:101960001A60234B8E2292009D588024E4002C4361
:101970009C509D58802464002C439C5001225A673F
:101980001C1C5967616F0123194A1940FAD111676C
:1019900053675167616F0123154A0B40FAD15364B5
:1019A000516C8E2193608900136753605558114C18
:1019B0002C400194019C80252C430194019DC82456
:1019C00024022C435450A022842112068901535032
:1019D0000949535009495350094B9860001C01684C
:1019E0008D464068804737BD004000A010E000E011
:1019F00000800440FF2500000421000008210000B1
:101A000000ED00E070470000F0B5C1B00E1C00F022
:101A10003BFE00F045FE8023DB029B1B051E9D4222
:101A200000D91D1C00F026FE134802F0E5F9002441
:101A3000AC421DD280277F006846391C00F0FEFDB5
:101A4000FF2804D82B1BBB4201D90C4806E0A01983
:101A5000694603F0EDFE002804D0094802F0CCF9F5
:101A6000012006E001340748FF3402F04DF9DFE7BA
:101A7000002041B0F0BDC04696B50000A2B5000000
:101A8000BDB50000BBB80000534B73B501261E70F6
:101A9000524B00241C80524DFC23DB002B8000F0B5
:101AA0002DFE211C201C00F059FE301C01F0E2FF2D
:101AB000009401940AF061FB4A48042100F098FD6B
:101AC000A0420FD100F0E0FD0820404200F0BEFD32
:101AD0000421684600F0B2FD042101A800F0AEFD2B
:101AE00000F0C8FD404C414B22689A4200D0404C67
:101AF00022689A4200D03F4C22689A4200D03E4C65
:101B000022689A4217D020235B423C482B8002F087
:101B100073F9009B002B03D0394B019A9A4242D8AB
:101B2000384802F069F9384802F066F9FC23DB0016
:101B30002B80364822E0364B36482B8002F0E4F802
:101B400001235B4260680A212B8002F05BF9009B55
:101B50006268934227D8A068FFF7FAFE17E0FFF704
:101B6000C5FE002836D1FFF7BBFE0028F7D000984D
:101B70000199FFF749FF002828D0274802F03CF9D7
:101B800005E0FFF761FEFFF7A5FE002804D1FFF78F
:101B9000A1FE0028F5D01DE0FFF79CFE002819D01B
:101BA000FFF752FEF8E71D4B1D482B8002F0ACF802
:101BB00001235B4200980A212B8002F023F9FC23C9
:101BC000DB0018482B8002F017F9CCE7164802F02A
:101BD00013F987E773BDC04623010010422B0010A4
:101BE0001E01001083B60000F4FF03001EAB07B017
:101BF00004FF030004FE030004F003008BB60000A2
:101C0000FF7F03009FB6000090A60000B6B600005C
:101C1000FF070000D1B60000DBB600001FF8FFFF91
:101C200001B7000015B70000F7B60000F8B50120B5
:101C300001F020FF454B00261E8000F05FFD444C64
:101C4000444B4548238001F0DBFB444D01232B70BE
:101C5000434BFC271E70434B3021FF0060201E7059
:101C6000278002F055F8404802F04EF838216020F5
:101C700002F04EF83D4802F047F84021602002F0A3
:101C800047F83B4802F040F84821602002F040F855
:101C9000384802F039F86021282002F039F801268E
:101CA000354802F031F876423448268002F02CF8AC
:101CB0003348278002F028F8022326802B7003F097
:101CC0008FFE032486B2FFF7BFFD6820782102F063
:101CD0001FF8201C0A2102F075F803F081FEFA2299
:101CE0009200B318984203D903F07AFE013C86B201
:101CF00002F05EFA002808D002F05AFA041E02D060
:101D0000FFF7A2FDF8E7FFF7BFFE02F045FA002853
:101D100007D002F041FA002802D0FFF795FDF8E75E
:101D2000041C02F03FFA002806D002F03BFA00281B
:101D300004D0FFF789FDF8E7002CC4D101232B70F4
:101D400000F0DCFC002001F095FEF8BD422B0010F5
:101D50001E01001000F8FFFFC8B0000023010010B2
:101D600029010010220100106FB8000076B80000B1
:101D70007DB8000084B800003AB7000040B700000A
:101D800044B70000F0B56E4E8BB004923288071C49
:101D90000D1C1C1C099206D0002132220091081C47
:101DA000131C00F0CFFCFC23DB003380002C16D08A
:101DB00001F058FE041C012001F05CFE02F00EF957
:101DC000291C021C1439781EC0B2C9B20A2301F0C2
:101DD000FDFF5C4801F098FF201C01F04BFE049BC6
:101DE000574C0B2B01DC584B2380ADB2574E03955B
:101DF00001232DB2321C38B20093291C00F0B8FC2C
:101E0000049A0795172A01DC4F4B2380BFB2059730
:101E1000083701253FB2381C0799321C2B1C00954E
:101E200000F0A6FC039B0095043B1AB20692111C1D
:101E30002B1C381C321C00F09BFC049B2F2B01DD5B
:101E4000434B00E0404B059E404D1036238036B298
:101E50000124301C07992A1C231C009400F088FCE4
:101E6000301C06992A1C231C009400F081FC039B63
:101E70000094083B1AB20892111C231C301C2A1C27
:101E800000F076FC049B5F2B02DC2F4A2C4B1A805F
:101E9000059F012418373FB2381C07992A1C231CC0
:101EA000009400F065FC381C06992A1C231C009441
:101EB00000F05EFC381C08992A1C231C009400F0DA
:101EC00057FC039E2A1C0C3E36B20094381C311C71
:101ED000231C00F04DFC049A9F2A02DC1A4A184B7E
:101EE0001A80059F194D203701243FB2381C0799ED
:101EF0002A1C231C009400F03BFC381C06992A1C69
:101F0000231C009400F034FC381C08992A1C231C64
:101F1000009400F02DFC381C311C2A1C231C00945A
:101F200000F026FC03992A1C1039231C09B20094E6
:101F3000381C00F01DFC024B099A1A800BB0F0BD52
:101F40001E010010D3B700008A5200001ABE000024
:101F500000F8FFFFF7B5012001F08CFDAC4B00222B
:101F60001A7002F03BF8FA20000103F00FFD05F0B3
:101F7000A1FAA849041C04F005FC002801D0FF20A8
:101F800000E07F2001F0FAFF0025281C05F036FA5A
:101F9000211C04F0E3FB002805D028B2013501F034
:101FA000D5FFEDB2F1E79C4B0126187001259B4B44
:101FB0001B78002B00D109E1002D00D106E1012D95
:101FC00000D095E0964D002E36D000F097FB01230F
:101FD0005B42102120202B8000F0C0FB914801F0D3
:101FE00093FE9921282000F0B9FBFC278E4801F0D0
:101FF0008BFEFF008D482F8001F086FE01235B429F
:102000008B482B8001F080FE582100202F8000F0AB
:10201000A5FB884801F0F0FE874F381C01F0ECFE6C
:10202000381C01F0E9FE381C01F0E6FE381C01F016
:10203000E3FE824801F0E0FE3020992100F08EFBA3
:1020400001F0CCFF842802DC01235B4200E07C4BE2
:102050002B8002237B4A0093A4200123302100F02F
:1020600087FB3621182000F079FB774801F04CFE01
:102070001820422100F072FB01F0B0FF872801DD3B
:10208000724800E07248FC2701F03EFEFF00022388
:10209000704A2F80A42000936021012300F068FB88
:1020A0006621182000F05AFB6B4801F02DFE182025
:1020B000722100F053FB01F091FF842802DD604B98
:1020C0002B8000E02F8001F089FF0A2101F07AFEC9
:1020D000624801F019FEFC23DB002B8001F07EFF3B
:1020E0007621021C00237020FFF74CFE02255EE7DC
:1020F000022D00D05DE7FFF7A7FB02F04DF80028A6
:1021000008D002F049F8002802D0FFF79DFBF8E75D
:10211000051C4CE702F058F800282DD0201C3D4942
:1021200004F03AFB002809D08621201CC90504F0E0
:1021300015FB002808D0201C49490AE0201C35491D
:1021400004F02AFB002802D0201C464901E0464941
:10215000201C04F043FB4549041C04F013FB002839
:1021600002D0FF2001F00AFF201C414904F00AFBC5
:10217000002823D03E4C21E002F020F8002800D1B6
:1021800015E7201C234904F007FB002802D0201C7F
:10219000344901E03449201C04F09AFF1D49041C15
:1021A00004F0E6FA002802D07F2001F0E7FE201CB0
:1021B000002104F0D3FA002800D00024201C05F0F0
:1021C000FDF800B201F0C2FE0026EFE6FA200001A1
:1021D00003F0DCFB05F012F9011C201C04F0B8FA36
:1021E000002807D1201C04F0E1FAC1B2FA20000156
:1021F00003F0D5FB201C05F0E1F800B201F0A6FECB
:1022000001F0D0FE0020011C00F0A8FAF7BDC04686
:10221000290100100000FE425E0200105C02001066
:102220001E0100104FB700007CB6000063B700002D
:1022300065B7000070B700008BB70000A6B70000BC
:1022400000F8FFFFD6BD000037B60000C1B70000A0
:10225000CBB70000F8BD0000D6B70000D3B7000030
:10226000CDCC4C3C0000484100002040000013430E
:1022700000007F4308B5094B012200201A7001F0CD
:10228000F9FB074801F0BCF803F09AFB03F0B0FB40
:1022900001F016FF03F0AAFB08BDC0465C02001067
:1022A00060AA0000014B18787047C0465C0200101D
:1022B00037B50024251C03F093FB274B1A68904286
:1022C000F9D91E301860012C0BD0002C02D0022C42
:1022D00023D039E0214B201C1C8000F01DFA012482
:1022E00032E0FC21EAB2C900002001F005FE1C4BDF
:1022F0001C4A1880107851786E234008181A490833
:1023000058231C35591A0094231CADB200F030FA42
:10231000FE2D19D90025022416E0114BFC22D20013
:102320001A80104A6E23107851784008181A49080C
:102330005823591A0123009300F01AFA3F350A4B2B
:10234000ADB29D4200D9FF24FFF7C4FA002801D1A5
:10235000292CB0D937BDC046B82E0010422B001032
:102360001E010010CCB80000FF03000008B57F205C
:1023700001F004FE034B7F221A80034BFF221A70E8
:1023800008BDC046482B001054020010F8B5FFF7F6
:1023900071FF254B32221A70244B01241C60244B00
:1023A000FF251D70FFF7E2FFFFF728FA281CFFF753
:1023B00026FAFFF72DFAFFF72FFAFFF722FA00F0BF
:1023C000C8F9FFF775FF201C01F054FB194F0025D9
:1023D0003D8000F093F9184E301C01F011F8201CDC
:1023E00001F048FB154BFC22D2001A803D8000F022
:1023F00085F9301C01F004F8114F124E3D70347015
:10240000FFF714FCFFF7A6FD01F0CCFD281C01F03E
:1024100031FB0D4B0D481C700D4B3C7034701C7023
:1024200000F0EEFFF8BDC0465D020010640200102F
:1024300054020010422B0010C8B000001E01001012
:1024400029010010220100102301001064AD0000DA
:1024500028010010F7B51D4A1378002B34D0002452
:102460000B2B02D80C24E41AE4B2194B01270020EC
:102470001F7000F0F1FB174DAD262B780322F11AE7
:102480006118033300920020542200F07CFF381CB6
:1024900000F0E2FB2B780322F61AA1190333009215
:1024A0000020542200F00BFF0B4B04221A802B78E3
:1024B000E41A0A4BAF341C80094B186801F024FC65
:1024C000024A1378013B1370F7BDC0467802001032
:1024D00023010010BA280010D82A0010CC2A0010BE
:1024E00058020010F0B587B005930CAB039104922D
:1024F0001F78061C03F074FA244B041C1A78244B32
:10250000244D1868011B91422CD92968002929D033
:10251000A2181A60204B00261A682E6001321A6039
:10252000FFF76EF9FFF778F9FFF76CF91B4D1C4FB9
:102530002B683968013301222B6002928C4221D929
:10254000FA2080005843174B611AC91804F006F8A6
:10255000154B0299186013482E6023183B60134BEB
:1025600019700FE02B680022029293420AD1FFF704
:1025700071FF059B0097301C0399049A01F024FB1E
:1025800001232B60029807B0F0BDC0465D02001029
:102590007402001064020010500200106802001063
:1025A00070020010B80B00006C0200105F020010F7
:1025B00010B5041CFA20211C800004F01DF8064B05
:1025C00014211870201C03F0C9FFC0B2002800D1EC
:1025D0000120024B187010BD5D0200104B2B001043
:1025E00008B5024800F01EFF08BDC046600200109A
:1025F00070B50F4C061C23780D1C102B0BD0301C13
:102600002570FEF733F9051E0CD10A48311C03F082
:1026100081FC2B1C09E0084809F0ECFC0123002890
:10262000EDD002E0082323700123181C70BDC046C2
:102630001C010010C40200107C02001013B56C468F
:102640000634221CFEF74CF9208816BD08B5074B4E
:10265000002804DADA6941428A4200D25042DB693A
:10266000C018FEF7A3F9024B187008BD7C020010D9
:10267000D302001008B50020FEF798F9014B18703E
:1026800008BDC046D302001008B5034B186AFEF718
:102690008DF9024B187008BD7C020010D3020010A7
:1026A000014BD8697047C0467C02001013B5012366
:1026B000074C5B4281220093201C064B06495201C5
:1026C000FEF704FB201C0549054AFEF757FC13BD25
:1026D000AC020010180C000024120000A90C00002D
:1026E00000010010014B18787047C0462C01001003
:1026F000014B18787047C0463001001008B5002023
:1027000001F054FE024A00231380024A138008BDE0
:10271000D82A0010CC2A001008B501F047FE08BDE9
:10272000064B10B51B880F2B04D8054C5B001B5BB8
:10273000934201D001F0AEFF10BDC0462E01001043
:10274000C428001013B504AC2488009401F0D2FF13
:1027500013BD08B501F092FE08BD0000024B1880C1
:10276000024B19807047C046D82A0010CC2A0010AE
:10277000F0B593B00B9118A909780E900C911178CF
:102780000A91517802320D910792012B74D10A9B64
:1027900000220733DB100893019201990A9A0BB2C9
:1027A000934200DB02E1DA17520FD218D210D2B2F4
:1027B00009927F4A134004D50822013B5242134339
:1027C00001331BB280221A410E9B01999BB289B240
:1027D000029303914B0002999BB20F925A1892B246
:1027E00010920A1C01329B189BB2119300240D9980
:1027F00023B28B423DDA089A099953434AB20799AA
:10280000CB189B5C0F9A1A4231D00C9B694D012B5F
:1028100008D10399029A0B9B8818E11800B209B2FB
:102820002A8822E00B9963008EB29BB2109A9F19FE
:1028300004933FB213B2181C2A88391C0593FFF782
:102840006FFF11992A880BB2181C391C0693FFF7E9
:1028500067FF049A0136961936B22A880598311C0A
:10286000FFF75EFF2A880698311CFFF759FF0134F5
:10287000BDE7019A01328FE7042B00D096E00023D8
:10288000039303990D9A0BB2934200DB8EE00B9BEE
:1028900089B29BB20593059A4B00D3189BB206915F
:1028A0000E9A99B201339BB292B209930023089118
:1028B00004920292019301990A9A0BB2934272DA3E
:1028C00007993D4B0A781B6812115200D45A0C9A92
:1028D000022A1ED1019B04995E00089A8E19B6B295
:1028E00035B217B2013636B2281C391C221CFFF74C
:1028F00017FF301C391C221CFFF712FF0999301CEE
:102900000BB21E1C191C221CFFF70AFF281C311CCD
:1029100005E0029A069B10B2059A991809B2221C8A
:10292000FFF7FEFE079B0C991A780F231A40224BE3
:1029300052001B68D45A02291FD1019A049B5600E9
:102940009E190899B6B2B51C2DB20FB2033636B235
:10295000281C391C221CFFF7E3FE301C391C221CEA
:10296000FFF7DEFE099A301C13B21E1C191C221C34
:10297000FFF7D6FE281C311C06E00298069B059A3C
:102980000130991800B209B2221CFFF7C9FE079B5B
:1029900001330793019B02339BB20193029B0233E5
:1029A0009BB2029387E7039B013369E713B0F0BD45
:1029B000070000801E010010C82A0010F0B5704BFF
:1029C0008FB01B680D905C78019118780094082CEA
:1029D00005D0211C10394C1EA141C9B200E00021D4
:1029E000009DEC100C19211C414301314A43043273
:1029F0009B185F1C1B78089400240C930694069C7B
:102A00000C9D62B26BB29A4200DBAFE0089D3B784E
:102A1000022D02D00137059304E07A7802371202C2
:102A20001A430592069D0D9CADB2A4B26B00E3184B
:102A30009BB202949CB2013303959BB2002509948A
:102A40000A930795079D009C6EB2A64200DB89E0C1
:102A5000059CE4073BD54B4B4B4C1B78022B1ED1FE
:102A6000019D760076190999B6B232B20DB2049280
:102A7000281C22880499FFF753FE0A9901360BB2ED
:102A8000181C2288049936B20B93FFF749FE22885E
:102A9000281C311CFFF744FE22880B9840E03B4B7A
:102AA0001B78002B0AD00098019D01384019029A2A
:102AB000039D861BA91830B209B206E0039D029956
:102AC0006818019D00B2761931B2228840E0304C7E
:102AD000304B22881B8893423CD02A4B1B78022B18
:102AE00020D1019D7600099C7619B6B225B234B288
:102AF000281C211C0494FFF713FE0A99244B0CB2E6
:102B00001A88201C0499FFF70BFE0136204936B2C3
:102B10000A88281C311CFFF703FE1D4D201C2A8843
:102B2000311C15E0194B1B78002B0AD00098019C32
:102B300001380019039D029C861B291930B209B285
:102B400006E0039D029C2819019D00B2761931B25E
:102B5000FFF7E6FD079B059C01336408DBB2059493
:102B600007936FE7069D0135069548E70A4A00205E
:102B70001056044A1B18107858430FB0F0BDC046D9
:102B8000D42A0010230100101E010010402B001059
:102B9000422B00102E01001029010010F8B5234A25
:102BA000234F12783B88234CD8B2234E234D012A61
:102BB00003D1FF21002B31D12BE0022A06D10321C2
:102BC0000840810008430101014327E0032A20D186
:102BD00001211940206800D0FF21194A03F0C1F8F3
:102BE0003988022319402268154BD018002900D0DB
:102BF000FF211A1C03F0B5F8398804231940206816
:102C000003D0104AFF21801801E00E4BC0180C4A77
:102C100006E001010F2003400B43D9B22068094AA6
:102C200003F09FF8002333802B80F8BD24010010AF
:102C3000D02A0010BC280010D82A0010CC2A00107E
:102C4000E8120000D025000008B5024801F03CF968
:102C500008BDC04666B5000003231840014B18802C
:102C60007047C046260100101A4B10B51B889342CE
:102C70002ED0194B84B21B789C4229D2174C89B2B2
:102C800024788C4224D9002A01D0032422409B10AE
:102C90005943134B841061181B6889B259180324D7
:102CA0000B782040A04202D183431A430FE0022850
:102CB00002D192000C2003E0012803D11201302040
:102CC000834302E03F20920103401A43D2B20A70CC
:102CD00010BDC0462E0100102C0100103001001064
:102CE000BC280010F0B5284B87B01B6803905E78B5
:102CF00005911878082E05D0311C10394C1EA141C1
:102D0000C9B200E00021F4100C19211C414301312B
:102D10004A4304329B18029403995C1C1B788DB2C1
:102D2000049303996A1A049952B24BB29A4224DA74
:102D3000029B2778022B01D0013403E06378023430
:102D40001B021F4300210191019B59B2B14211DCCA
:102D5000059B28B2C91809B2FB0701D50B4B00E04F
:102D60000B4B1A78FFF780FF019B7F080133DBB222
:102D70000193E9E70135ADB2D3E7064A00201056CA
:102D8000181807B0F0BDC046D42A00102601001064
:102D9000D02A001029010010184B82B21B789A42E9
:102DA0002BD2174A89B212788A4226D99B105943EE
:102DB000144B821051181B6889B203225918104015
:102DC0000B78114A032803D112788343134313E08D
:102DD000022804D112880C20834392000AE00128C3
:102DE00004D1128830208343120103E012883F206F
:102DF000034092011343DBB20B7070472C010010AB
:102E000030010010BC2800102601001070B50F4BD7
:102E1000141C1B788AB2061C9A4202D3A2B29A42B0
:102E200012D20B4B1A78B3B29A420DD9A14202DDED
:102E30000B1C211C1C1C0D1CA54205DC29B2301CDE
:102E4000FFF7AAFF0135F7E770BDC046300100105B
:102E50002C01001070B50F4B161C1B7882B20C1C95
:102E60009A4202D38AB29A4212D20B4B1A78B3B268
:102E70009A420DD9A04202DD031C201C1C1C051C1B
:102E8000A54205DC28B2311CFFF786FF0135F7E7C4
:102E900070BDC0462C0100103001001008B5002A9A
:102EA00004DA92B25118524209B212B2521812B256
:102EB000FFF7ACFF08BD10B50C1C002A04DA93B272
:102EC00018185A4200B212B28118013909B2221CF4
:102ED000FFF7C0FF10BDF8B5CE18041C171C36B2A2
:102EE000E7190D1C3FB2321CFFF790FF381C291C5C
:102EF000321CFFF78BFF391C2A1C201CFFF7AAFF8E
:102F0000391C321C201CFFF7A5FFF8BDF8B584184A
:102F1000CD1824B22DB2002801DA002C2BDB164B81
:102F20001B78984201DB9C4225DA002901DA002D4A
:102F300021DB124B1B78994201DB9D421BDAA04238
:102F400002DD031C201C1C1CA94202DD0B1C291CD9
:102F50001D1CC643CF43F617FF173040394006B259
:102F60000FB2A64207DA301C391C2A1C0136FFF7C3
:102F70004DFF36B2F5E7F8BD2C010010300100100E
:102F8000F0B5031C85B0002876D03C4A1078834207
:102F900001DB431E1BB23A4A1278042A06D1394992
:102FA00009785943CC0F6118491008E0022A63D10F
:102FB00034490C785C43E117890F09198910324CA8
:102FC000304E258889B20395304DB4462D88258032
:102FD000002B28DD34780025E40862432C1C019284
:102FE000C21A954217DA221C0E1BB618B6B200960A
:102FF000171B019EBFB2B74208DA561C244F029637
:10300000009EBE5DBE54029FBAB2EDE70135ADB27F
:103010000099141CE4E71F4B0027D95F63461A7818
:1030200003B2002023E034789DB26243D2100192B3
:103030000024854217D2221C0E1BB618B6B2009689
:10304000171B019EBFB2B74208DA571C0297104FF8
:10305000009EBA5CBA55029FBAB2EDE70135ADB237
:103060000099141CE5E7674600203A78011CFFF739
:103070004DFF054B039C1C8005B0F0BD30010010D6
:10308000240100102C01001026010010D02A00108D
:10309000E9020010CC2A0010F0B589B00192069325
:1030A00093B20122D21A5B0092B25B4202929BB2AF
:1030B00000220490059107930392039A13B2019A98
:1030C000934278DA029A13B2002B0CDB019B013B8E
:1030D0001AB2079B019202339BB29AB20792029AEC
:1030E0009B189BB20293039B029A9CB2630003332A
:1030F000D3189BB20293069B5B0713D5049A059BDA
:1031000096B2019A9DB297B2701C2018791900B23C
:1031100009B2FFF741FE691CBE19611830B209B24D
:10312000FFF73AFE069B9B0713D5049A059B96B2C0
:10313000019A9DB297B2701C2018E91B00B209B227
:10314000FFF72AFE691EBE19091B30B209B2FFF74C
:1031500023FE069B1B0713D5049A019B97B2059A81
:103160009EB295B2691CB81B611800B209B2FFF794
:1031700013FE781E001B751900B229B2FFF70CFE72
:10318000069BDB0713D5049A019B97B2059A9DB263
:1031900096B2711E781B091B013F00B209B23C1B9D
:1031A000751BFFF7F9FD20B229B2FFF7F5FD039B70
:1031B0000133039381E709B0F0BDF0B58BB00893FC
:1031C00010AB009207910022995E012209910099AB
:1031D00006908BB2D21A5B0092B25B4201929BB214
:1031E000002205930392039A009913B28B4264DA8A
:1031F00001990BB2002B0CDB009B013B1AB2059B23
:1032000000920233019A9BB299B29B189BB205912E
:103210000193039B01999BB25D00ADB202932B1CFD
:103220000333CB18089A9BB204950193D2071ED59D
:10323000069B0799009A9FB2099B8EB294B202999D
:103240009DB26200781C0818AA18311B00B209B29E
:1032500012B2FFF723FE029A711E049B891AAA1C60
:10326000E4199A1820B209B212B2FFF717FE0899B2
:1032700089071ED5069A079B009997B2099A9EB2B4
:103280008CB2029B95B2781E6200C01A311BAA183C
:1032900000B209B212B2FFF701FE029A711E049B3E
:1032A000891AAA1C3C1B9A1820B209B212B2FFF765
:1032B000F5FD03990131039195E70BB0F0BDF0B531
:1032C00089B01F1C0EAB061C00201C5E0D1C012CBF
:1032D00004DC301C3B1CFFF7FEFD52E0B1B2A3B290
:1032E0000391019359185B005B4292B29BB2059324
:1032F0009B1808B219B207910492291C079ABFB211
:103300000290ADB2FFF7D7FD7B1EEB189BB219B24E
:103310000298079A0693FFF7CEFD059B019ADF19E5
:1033200055192DB23FB2301C291C3A1CFFF7B6FDCF
:10333000049E0398013E8619B6B230B2291C3A1C8D
:10334000FFF7ACFD291C0298221C0123FFF7A4FE05
:103350000199221C761A36B2291C301C0223FFF771
:103360009BFE069A019B301CD51A2DB2291C221CEB
:103370000423FFF791FE0298291C221C0823FFF763
:103380008BFE09B0F0BDF0B587B00E1C0CA900256E
:103390004C5F012C03DC311CFFF7B8FD2EE0A5B219
:1033A00092B203926A0080B2039952422F1892B2ED
:1033B000013B04929BB23FB252180290311C05931C
:1033C00012B21BB2381CFFF7A1FD049A05990398AD
:1033D0005318029A01381018AE19451B28B236B29C
:1033E0001DB2311C221C01230095FFF7E6FE00955B
:1033F000381C311C221C0223FFF7DFFE07B0F0BD92
:10340000054B18600278054B01321A704278044B64
:1034100001321A707047C046D42A00103C2B0010AD
:10342000BA280010124A134B10B5041C1A60FFF79B
:103430000BFC114B01221A70104BDC221A80104B2E
:10344000B02210481A80FFF7DBFF0F4B11221A80C1
:103450000E4A002313800E4A022111700D4A201CCF
:1034600013600D4A136093611363936410BDC046EB
:10347000E9020010BC280010462B0010C2280010E2
:10348000DA2A001060AA00002E010010D02A0010D5
:10349000C0280010C42A0010DC2A0010F0B58DB03E
:1034A00001935B42041C0F1C0092994200DAAEE2C9
:1034B000CE4B1A78914200DDA9E2009D6B42984202
:1034C00000DAA4E2CA4B1B78984200DD9FE2C949AA
:1034D000097801292BD82B1C0733DB100293002617
:1034E000B2B2009D13B2AB4200DB90E2DB109BB2A4
:1034F000039307231A408023134104930025019866
:103500002BB2834211DA029A03986A43129903B2EA
:103510008A18D35C049A1A4205D03019E91900B20E
:1035200009B2FFF739FC0135E9E70136D8E702298E
:1035300000D0B3E0B04B0026995F002973DDAF4B9C
:10354000A5B200201A5E0295251C944200DA151CD3
:10355000029EAB4BAD1B00201B5E009ED218A4192F
:10356000ADB2944200DD141C029EA64BA41B0020A9
:103570001B5EA4B2BEB2049403963A1C9F4200DACA
:103580001A1C039E921B019E92B205925A18BB19F7
:10359000934200DD131C039E9B1B009E9FB2B6103E
:1035A0000096049E2BB232B2934200DB2FE2DA1770
:1035B000920FD2189210944E92B201921E4004D5EE
:1035C0000423013E5B421E43013636B27600C0231F
:1035D0003341DBB2059C069323B23AB293421FDA21
:1035E00000980199434312980AB2C3189B5C06994C
:1035F00006220B40921B1341844A11889AB29142D1
:103600000BD003221340824A1380029A039B501965
:10361000191900B209B2FFF7BFFB0134A4B2DBE70E
:103620000135ADB2BDE7009DAD1004950025ABB2EC
:10363000009E19B2B14200DBE9E1032213405B00B6
:103640000393039EC0233341DBB2129E05938B107C
:10365000F31802930026019833B283421CDA0298D1
:1036600005990378039806220B40121A1341674A02
:1036700011889AB2914209D0032213402819644A52
:10368000F11900B209B21380FFF786FB0299049A80
:10369000013689180291DEE70135C8E7032961D1B7
:1036A000009B009D0733DB100793019B019E6B433A
:1036B000DA17520FD318F217520F9219DB101DB2FE
:1036C000D2106E0092B20996089206950026009DCF
:1036D00033B2AB4200DB9AE1099DDB105D190A951C
:1036E000019300250395039DABB2089D1AB229B240
:1036F0008A4235DC079D6A43129DAA18019D555DDB
:103700000295019D5119069D495D0A9D0491525DE6
:103710000592BAB29D1808329B189BB20B93ADB2BA
:103720000499059A0123029819401A409940920081
:1037300003400A4304991A434008059B0290490834
:10374000301904915B0800B229B205930135FFF7E7
:103750008BFA0B98ADB28542E2D1039D0135C1E7EA
:103760000136B4E7042900D0ECE0019EB919002F1E
:1037700009DA009E0DB272107A430195129D00275E
:10378000AD1A129506E0914204DD019E9219D21BFA
:1037900015B20195002C13DA009EA2B2012111404E
:1037A000921915B200956442129D64104900A6B2A8
:1037B0002D1989B20024029103961295A4462DE09A
:1037C000009EA119994225DDA2B20120151C0540D9
:1037D0008540C91A204084464910ADB261449A1A06
:1037E000029589B215B20391009517E030010010DF
:1037F0002C010010C02800102A0100103E2B0010E0
:1038000020010010442B0010030000802E01001046
:10381000260100100026B446039602965B107B43F7
:1038200062109B187B4A05971268D3180598019D72
:103830004219974200DBEAE0774A1278974200DBB0
:10384000E5E0029E221C36B20496E00765D4201CF7
:10385000009D049E2A19921B904227DA129D029E17
:103860002978002E04D06D7809012D112943C9B2A1
:103870006A4D1A782E880D11B54208D00F251540D3
:1038800007950A1C0F25AA43151C079A2A430F25E2
:103890002940B14202D0AA430A43D2B2129E02305A
:1038A00001361A701296013300B2D1E7029800284F
:1038B00011D0ED070BD5129D58492A7809880F20A1
:1038C0001040884203D0197812010A431A70129EE0
:1038D000013301361296039802B226E0129E19783F
:1038E00030784E4E05113688B54202D00F26B143CE
:1038F00029434A4E1970368801330F25197805403F
:10390000B54204D00F26000131400143C9B2129DD7
:10391000023201351970129512B2009E04983119C5
:10392000091A8A42DADB03990AB2129D009EAD1889
:103930003B4A12951278921B521062449B187A1CD3
:1039400017B273E7082962D1019EB919002F08DA6E
:10395000009A129E7A430DB2B61A0195129600276C
:1039600006E0914204DD019D5219D21B16B2019668
:10397000002C0BDA009DA4B261196442129D0EB2B4
:1039800021B26D180096129500240BE0009EA2193A
:103990009A4209DDA2B2F11A511851189A1A15B2B9
:1039A00009B20095201C01E00020011C7B43194A4C
:1039B0001B191268BC46D318019E321C6244974200
:1039C00025DA154A1278974221DA129A129D661B5F
:1039D000961935B2009E02953519029EAE420BDA59
:1039E0001E78157803960D4E3688AE4200D1039DA1
:1039F0001D7001320133E9E752181292084A009D06
:103A00001278521B12189B187A1C17B2D4E70DB00B
:103A1000F0BDC046BC280010300100102E0100107F
:103A20002C01001013B51478537802320092221C36
:103A3000FFF734FD13BD000008B5084B00B21B684A
:103A400009B29B78D21A064BD2B21B78002B02D057
:103A5000FEF7B4FF01E0FFF745F908BDD42A0010D6
:103A6000462B0010024B1878431E9841C0B2704795
:103A7000462B001009490A4A0A4B002805D00120AC
:103A80000870DC211180B02205E008700649097831
:103A90001180064A12781A807047C046462B0010E3
:103AA000C2280010DA2A00102C010010300100108A
:103AB00038B50B4B0B481B6804885B780A4A5800E2
:103AC000241A0A48118800780DB240B2A54203DDDD
:103AD000C018FFF755FA02E0C3185918118038BD15
:103AE000D42A0010DA2A0010CC2A0010220100107B
:103AF00038B52A4B041C1B68DA78002A03D06028EA
:103B000001D9203CE4B20E2C21D8201C02F01CFD6F
:103B1000441F1F1F1F1F1F1F0E1F081F1F1B4400B6
:103B20001F4B00221A80FFF7C3FF35E01C4A1B78A9
:103B30001088C01A1B4B80B2108019782022C0B2A6
:103B4000FFF77AFF28E0164B00221A8024E0144D7C
:103B50001549288809881B7802B2CB1A9A4209DBDA
:103B600000232B80114B1B78002B15D0FFF7A0FFF3
:103B7000287800E0C0B20B4B221C1978FFF75CFFDD
:103B8000202C06D10A4B1B785BB2002B01D04010D1
:103B900001302B88C018288038BDC046D42A0010B8
:103BA000D82A0010CC2A0010C228001028010010CA
:103BB0002901001010B5041C2078002803D001341E
:103BC000FFF796FFF8E710BDF0B53C4D8FB02E68BB
:103BD00014AC2478002E0BD0394E36680094394C42
:103BE0002468039001940295301C01F0A1F809E0CB
:103BF000002807D1324800680094324C24680194B0
:103C000000F0D6FD304B1B78002B01D1FEF7C6FF2C
:103C10002E4C2378002B4ED02D4C2E4E24883378FA
:103C200004942D4E2D4C5A1E93412D4F2D4D368808
:103C30002488DBB209932C4B059606943E782C78A9
:103C40002A491A680AA80796089402F041F9204EFA
:103C500001235B423380204E0024204A34802448D4
:103C6000012616803E702C70FFF7CAFB194BDC2230
:103C70001E70204B0AA81A801F4BB0221A801F4BBF
:103C80001C801F4B1C80FFF795FF0998FFF7F2FE81
:103C9000049A0F4E1B4B3280059A0F4E18683280E3
:103CA0000E4E069A3280079E3E70089E2E70FFF7D9
:103CB000A7FB064E34700FB0F0BDC046DC2A0010E2
:103CC000BC280010C82A0010B92800105F0200109C
:103CD0001E010010462B00102E010010422B001078
:103CE000402B0010290100106C02001021B80000C8
:103CF00064AD0000C2280010DA2A0010D82A001093
:103D0000CC2A0010D42A001008B5FFF753FF08BDD5
:103D1000024B1880024B19807047C046D82A001009
:103D2000CC2A0010F0B5002489B0051C0E1CA0425E
:103D300003D13020FFF7DCFE1BE000AB281C013470
:103D4000311C1F1902F04EFC013F3970281C311C38
:103D500002F004FC051EF0D1013C6B46185D0928F9
:103D600001D8303000E03730C0B2FFF7C1FE002C80
:103D7000F2D109B0F0BD08B5002903D1C0B2FFF7F8
:103D8000B7FE02E0C9B2FFF7CDFF08BD10B5041EB3
:103D900003DA2D20FFF7ACFE6442201C0A21FFF756
:103DA000C1FF10BD08B5002903D1C0B2FFF7A0FEC6
:103DB00007E00A2902D1FFF7E9FF02E0C9B2FFF7E5
:103DC000B1FF08BD08B5FFF7EDFF08BD10B5044C05
:103DD000208004480180101C191CFFF7E3FF10BD70
:103DE000D82A0010CC2A001008B50D20FFF780FE5D
:103DF0000A20FFF77DFE08BD08B5FFF7DBFEFFF7E1
:103E0000F3FF08BD08B5FFF7B6FFFFF7EDFF08BDEC
:103E1000F7B508AC0026A55F09AC27780AAC247872
:103E200001940BAC2478A446032819D818264643DD
:103E30000C4C3151A6196146B380F580002901D0A0
:103E40003381758118235843019E23181F735E73B5
:103E5000002A05D02018111C0E30082201F05FFF47
:103E6000F7BDC046DC2A00107FB508AC0025665FB0
:103E700009AC257800960E788C1C0196497803953C
:103E80000291211CFFF7C4FF7FBD0000032805D865
:103E900018235843024B18188180C2807047C046CF
:103EA000DC2A001008B50248FDF7ACFD08BDC0468D
:103EB000CE2A00108910D21049011143C010C3024C
:103EC000081C18437047000038B5041C0025A27870
:103ED00020786178FFF7EEFF054B802258530235BA
:103EE000033492009542F2D1024A136038BDC046B5
:103EF000C4280010C82A001070B5031C1F242340DA
:103F00000C40E41A24B2544324124E111C193F25CC
:103F100043112B40C00A3540C912091AED1A554306
:103F20004A4312128018C243A4B2D217104022B2E0
:103F3000D2432D12D2175B191440C0022043DC4338
:103F4000E41723405B01184380B270BDC343DB1705
:103F50001840074B1B88984200DD18B2054B02221F
:103F60007F2800DD00221A70034B18807047C0467E
:103F70003201001034010010482B001008B5002851
:103F800003DBFF2802DDFF2000E00020034B188048
:103F9000034B0022985EFFF7D9FF08BD32010010E5
:103FA000482B001008B5054B18887F2801D9103020
:103FB00000E0083000B2FFF7C9FF08BD482B001031
:103FC00008B5054B18887F2801D9203800E008384B
:103FD00000B2FFF7BBFF08BD482B0010014B18884B
:103FE0007047C046482B001008B50248FDF70AFD8F
:103FF00008BDC0464A2B0010014B01221A717047C0
:10400000302D0010014B00221A717047302D001026
:10401000014B01225A717047302D0010014B0022D4
:104020005A717047302D0010014B01229A71704770
:10403000302D0010014B00229A717047302D001076
:10404000014B01225A707047302D0010014B0022A5
:104050005A707047302D0010014B0122DA70704702
:10406000302D0010014B0022DA707047302D001007
:10407000014B00229A707047302D0010014B002236
:104080001A707047302D001008B5054B9A79002A38
:1040900002D0FFF787FF01E001229A7008BDC046F9
:1040A000302D001008B5054B9A79002A02D0FFF791
:1040B00087FF01E001221A7008BDC046302D0010B4
:1040C00010B5204C2049201CFCF766FD201C1F4920
:1040D000FCF752FD1E4C1F49201CFCF75DFD201C07
:1040E0001D49FCF749FD1D4C1D49201CFCF754FDE2
:1040F000201C1C49FCF740FD1B4C1C49201CFCF7F4
:104100004BFD201C1A49FCF737FD1A4C1A49201C9C
:10411000FCF742FD201C1949FCF72EFD184C1949EB
:10412000201CFCF739FD201C1749FCF725FD174C16
:104130001749201CFCF730FD201C1649FCF71CFD1C
:1041400010BDC046382D001005400000F93F0000AA
:10415000E02C00101D400000114000004C2B00100E
:104160003540000029400000902C00104D40000018
:10417000414000009C2B00106540000059400000A9
:10418000F02B00107D400000A5400000402C0010E6
:104190007140000089400000014B18797047C0460B
:1041A000302D0010014B58797047C046302D00105B
:1041B000014B98797047C046302D0010014B18789C
:1041C0007047C046302D0010014B98787047C046AC
:1041D000302D001070B52648FFF724F9254E2649EA
:1041E000301CFCF7A5FC254D254C291C221C301C3D
:1041F000FCF7C4FE234E2449301CFCF799FC291C13
:10420000221C301CFCF7BAFE204E2149301CFCF762
:104210008FFC291C221C301CFCF7B0FE1D4E1E49D1
:10422000301CFCF785FC291C221C301CFCF7A6FE68
:104230001A4E1B49301CFCF77BFC291C221C301C2D
:10424000FCF79CFE174E1849301CFCF771FC291C2A
:10425000221C301CFCF792FE144E1549301CFCF752
:1042600067FC301C291C221CFCF788FE70BDC04670
:10427000EC2B0010382D001084120100050B0000FB
:1042800000010010E02C0010700801004C2B001001
:1042900088140100902C0010941A01009C2B00102F
:1042A0006C060100F02B0010C4320100402C0010FD
:1042B0007C0E0100054A0649A0231B0699500549BA
:1042C000C0005850002199507047C0468820000017
:1042D0000700F8FF8821000038B5A0248A232406AF
:1042E00004229B01E250074D80235B046351FFF7DA
:1042F000E1FF054A80235B01A350C046C0466351DD
:1043000038BDC046042200008422000038B5A02435
:104310008823240604229B01E250064D80235B047F
:104320006351FFF7C7FF044A80235B01A350C046D7
:10433000635138BD042200008422000038B50D1CF2
:10434000041C2020FFF7C8FF281CFFF7DFFF2120F7
:10435000FFF7C2FF201CFFF7D9FF2220FFF7BCFFA9
:10436000A02388221B06042192019950034A802130
:104370004904995080214901995038BD0422000018
:1043800010B5074C0749201CFDF710F8201C05212B
:10439000FCF7EBFF201C0449FCF7C4FF10BDC0462E
:1043A000882D0010FC0402009A99993E10B5041C57
:1043B0002020FFF791FF0020FFF7A8FF2120FFF743
:1043C0008BFF0020FFF7A2FF2220FFF785FF201CB4
:1043D000FFF770FFA02388221B0604219201995049
:1043E000094A802149049950802149019950074B7D
:1043F000074CA0218020090640010851C046013B1E
:104400008850002BF4D110BD04220000409700001A
:104410008422000010B52020FFF75EFF0020FFF788
:1044200075FF2120FFF758FF0020FFF76FFF2220C4
:10443000FFF752FF0020FFF73DFFA02388221B0655
:104440000421920199500A4A8021490499508021FF
:1044500049019950074B084CA021802009064001D2
:104460000851C046013B8850002BF4D110BDC04616
:1044700004220000409700008422000070B5794EAD
:10448000A02501242D06FFF77BFFAC510A20FCF785
:10449000AEFC754B0A20EC50FCF7A9FCAC510A208D
:1044A000FCF7A5FC201CFFF717FF8E20A040FFF7AC
:1044B0002DFF0220FFF710FF8020A040FFF726FF0E
:1044C0000320FFF709FF6948FFF720FF0820FFF7E7
:1044D00003FF6748FFF71AFF0C20FFF7FDFE0020DF
:1044E000FFF714FF0F20FFF7F7FE201CFFF70EFF6A
:1044F0002020FFF7F1FE0020FFF708FF2120FFF743
:10450000EBFE0020FFF702FF1020FFF7E5FE002082
:10451000FFF7FCFE1120FFF7DFFE80204001FFF7D0
:10452000F5FE0A20FCF763FC3020FFF7D5FE0020E3
:10453000FFF7ECFE3120FFF7CFFEDB20FFF7E6FEB2
:104540003220FFF7C9FE0020FFF7E0FE3320FFF71F
:10455000C3FE0020FFF7DAFE3420FFF7BDFEDB20AC
:10456000FFF7D4FE3520FFF7B7FE0020FFF7CEFEA1
:104570003620FFF7B1FEAF20FFF7C8FE3720FFF768
:10458000ABFE0020FFF7C2FE3820FFF7A5FEDB20C0
:10459000FFF7BCFE3920FFF79FFE0020FFF7B6FEB5
:1045A0000A20FCF724FCFF20FFF796FE0320FFF70C
:1045B000ADFE5020FFF790FE2E48FFF7A7FE5120DA
:1045C000FFF78AFE2C48FFF7A1FE5220FFF784FE7A
:1045D0002A4D0520FFF79AFE5320FFF77DFE281C89
:1045E000FFF794FE5420FFF777FE2548FFF78EFE75
:1045F0005520FFF771FE234C0320FFF787FE56205E
:10460000FFF76AFE201CFFF781FE5720FFF764FECC
:104610001D48FFF77BFE5820FFF75EFE281CFFF7C2
:1046200075FE5920FFF758FE201CFFF76FFEB020E3
:10463000FFF752FE1548FFF769FEFF20FFF74CFE1B
:104640000020FFF763FE0720FFF746FE1048FFF744
:104650005DFEC820FCF7CBFB2220FFF73DFEFFF7F5
:10466000D9FE70BD0422000084220000301000003A
:104670000808000003020000090A000021100000E1
:1046800002060000030700000705000001250000E6
:1046900017100000F8B584B2171CDB2C25D88DB29A
:1046A000AF2D22D82020FFF717FE281CFFF72EFE83
:1046B0002120FFF711FE201CFFF728FE2220FFF724
:1046C0000BFEA0248823240604229B01E250074D00
:1046D000802380265B0476016351381C6651FFF706
:1046E000E9FD034BE650C0466651F8BD04220000C8
:1046F00084220000F7B51C1C08AB1B880193904274
:1047000002DD031C101C1A1CA14202DD0B1C211C23
:104710001C1CDC2846DCB02944DC131CDC2A00DD30
:10472000DC231AB20092B02C00DDDC24CE43F61755
:10473000C743FF17314007400EB2009A974231DC61
:104740002020FFF7C9FDB0B2FFF7E0FDBFB2212086
:10475000FFF7C2FD381CFFF7D9FD2220FFF7BCFD93
:10476000A0228823120604219B01D1500E4B8021E8
:104770004904D15080214901D150351CA5420EDA9F
:104780000198FFF797FD0949A02380221B065201DB
:104790005A50C046044901355A502DB2EEE7013750
:1047A0003FB2CAE7F7BDC0460422000084220000E1
:1047B000F0B5C44CA5440693B823DB006B441B78CA
:1047C000099007930B1C134305D1069CDC2C02D1E6
:1047D000079DB02D16D006980323C0180C1CC0B23C
:1047E0009C434118091B161CC9B299439E43079B61
:1047F00005940733DBB29A18921BF8231A400691EE
:10480000079201E01E1C059308200021FFF796FD8A
:1048100037237343059D08930195059D069C2B192D
:10482000019D9D4200DB79E2019D0022AC10099DB3
:104830002C19089D64190294079DB31875199BB231
:104840000395AB423BDA3721514302980132415C78
:1048500058008C1003949C4C8F116C4424687F008A
:104860003F5B0D11AC4628306D464753964D0320F3
:1048700064466D441F1C04402D68B0376400645BBF
:104880007F0028376D467C53B0256D008E4C5F1934
:10489000039D6C44054024686D002D5B01407F0042
:1048A00089486C4628373D5368448425AD0000682C
:1048B0005B1949005B00095A28331953BCE7019C76
:1048C000072C00D825E2E5B2281C311C0295FFF721
:1048D00035FD371C039CA7426FDA7B0028336946FD
:1048E000585AFFF7E7FCA024784A802524066D017A
:1048F000A550C046764B6946E5507B1CDBB25B0099
:104900002833585AFFF7D6FC704AA550C046704B62
:104910006946E550BB1CDBB25B002833585AFFF7F1
:10492000C9FC6A4AA550C046694B6946E550FB1C64
:10493000DBB25B002833585AFFF7BCFC634AA55032
:10494000C046634B6946E5503B1DDBB25B00283334
:10495000585AFFF7AFFC5D4AA550C0465C4B69460C
:10496000E5507B1DDBB25B002833585AFFF7A2FCF1
:10497000564AA550C046564B6946E550FB1DDBB272
:104980000493BB1DDBB25B002833585AFFF792FC3F
:104990004E4AA550C0464E4B0498E5503B1C083388
:1049A000DFB2430028336946585AFFF783FC474A71
:1049B000A550C046464BE5508CE70298311C0130AB
:1049C000C0B2FFF7BBFC371C039CA74200DB81E0B1
:1049D0003B1CB0335B0028336D46585BFFF76AFC25
:1049E000A0243A48802524066D012550C0467B1C32
:1049F000DBB2B03336495B0028336A46985A6550BB
:104A0000FFF758FC314BE550C046BB1CDBB2B0335E
:104A10002F485B00283369462550585AFFF74AFC57
:104A20002A4AA550C0462A4B6946E550FB1CDBB21A
:104A3000B0335B002833585AFFF73CFC234AA5509B
:104A4000C046234B6946E5503B1DDBB2B0335B00EB
:104A50002833585AFFF72EFC1C4AA550C0461C4B61
:104A60006946E5507B1DDBB2B0335B002833585AF2
:104A7000FFF720FC154AA550C046154B6946E55086
:104A8000FB1DDBB20493BB1DDBB2B0335B002833EC
:104A9000585AFFF70FFC0D4AA550C0460C4B69460B
:104AA000E5503B1C0833DFB2049BB0335B00283376
:104AB000585AFFF7FFFB054AA550C046044BE55086
:104AC00082E7C04654FAFFFFC405000084220000BC
:104AD000042200000298311C0230C0B2FFF72EFC05
:104AE000371C039CA74200DB80E0B0256D007B19DA
:104AF0005B0028336946585AFFF7DCFBA024894A3B
:104B0000802524066D01A550C046874B6946E550B7
:104B10007B1CDBB26133FF335B002833585AFFF74D
:104B2000C9FB804AA550C0467F4B6946E550BB1C77
:104B3000DBB26133FF335B002833585AFFF7BAFB0F
:104B4000784AA550C046784B6946E550FB1CDBB25D
:104B50006133FF335B002833585AFFF7ABFB714AD0
:104B6000A550C046704B6946E5503B1DDBB2613332
:104B7000FF335B002833585AFFF79CFB694AA55066
:104B8000C046694B6946E5507B1DDBB26133FF339C
:104B90005B002833585AFFF78DFB624AA550C04688
:104BA000614B6946E550FB1DDBB20493BB1DDBB2D4
:104BB0006133FF335B002833585AFFF77BFB594AB8
:104BC000A550C046584B6946E5503B1C0833DFB240
:104BD000049B6133FF335B002833585AFFF76AFBAD
:104BE000504AA550C046504BE5507AE70298311C18
:104BF0000330C0B2FFF7A2FB371C039CA74200DBC7
:104C000087E08425AD007B195B0028336946585A3C
:104C1000FFF750FBA024434A802524066D01A550D0
:104C2000C046414B8420E5507B1C8000DBB21B1842
:104C30005B0028336946585AFFF73CFB394AA550B8
:104C4000C046394B8420E550BB1C8000DBB21B18EA
:104C50005B0028336946585AFFF72CFB314AA550B0
:104C6000C046314B8420E550FB1C8000DBB21B1892
:104C70005B0028336946585AFFF71CFB294AA550A8
:104C8000C046294B8420E5503B1D8000DBB21B1839
:104C90005B0028336946585AFFF70CFB214AA550A0
:104CA000C046214B8420E5507B1D8000DBB21B18E1
:104CB0005B0028336946585AFFF7FCFA194AA55099
:104CC000C046194B8420E550FB1DDBB20293BB1D8F
:104CD0008000DBB21B185B0028336946585AFFF787
:104CE000E9FA104AA550C0460F4B0298E5508421BE
:104CF0003B1C89000833DFB243185B0028336A4647
:104D0000985AFFF7D7FA074BE550C046064825509A
:104D100073E7019B04339BB201937EE5034B9D44F3
:104D2000F0BDC0468422000004220000AC05000053
:104D3000F0B5B14CA5441393C423DB006B441B783E
:104D40001B901193AD4B6B441B781493002B0CD02C
:104D5000C520C00068440068002801D100F05FFD54
:104D60000368002B01D100F05AFD0B1C134305D141
:104D7000139CDC2C02D1119DB02D17D01398032366
:104D8000C0180E1CC0B29E434118891B171CC9B223
:104D90009F439943119B12960733DBB29A18D21B9B
:104DA000F8231A4013910797119201E00793129389
:104DB000C520C00068440068002811D000231822D4
:104DC000C5255A43ED006D442D68DCB2AA580B94FA
:104DD000002A0AD00133052BF1D104260B9604E0FA
:104DE000C527FF006F443F680B97149C002C03D12C
:104DF0000820211CFFF7A2FA00250695C520069E73
:104E0000C0001B9F6844B3100068FB18049300287F
:104E100000D1CEE00023FF24021C059302940B9ED8
:104E2000B34200DDCCE00B9DAB420CDA9688D7880C
:104E30000F960C97147B557B1689578910941695FD
:104E40000D960E970CE0149C002C09D1129D079E24
:104E5000119F139C0F950C96169710940E960D9516
:104E60000F9D0D9F2EB23DB2DB2E01DD00F0D0FC78
:104E70000C9C012120B2AF2800DC0021C9B2DB2D3F
:104E800001DD00F0BEFC0E9F012438B2AF2800DC2B
:104E90000024E4B2002902D0002C00D086E0AE420B
:104EA00008DB0D9F381CB54201DA0F9D281C80B22B
:104EB0000D9D01E00F9D0D98002900D00D98002C4C
:104EC00000D00F98069F2DB2BC460327BC44654511
:104ED00068DC109DED192818069D00B2854261DC42
:104EE0000E9F3DB2381C0C9F03953DB2039FAF420D
:104EF00001DD0C9F381C07B2FF43FF17384080B21A
:104F000008900E9F002905D10398A84201DA0C9859
:104F1000071CBFB2002C00D00C9F169C013CE71967
:104F2000BFB23C1C3FB2AF2F00DDAF240898A4B243
:104F300007B20298874202DA089FFFB20297059FE4
:104F400020B2B84201DDE4B205940B9CA34229DAF9
:104F5000002927D1664525DC109F069CF1198C425B
:104F600020DA67461068BE1BB610B1B286199800E9
:104F7000002D02DB1EAC265005E0109FBC106543DF
:104F80001EAC751B25501DA8002901D1012107E089
:104F9000109D09B2AC10A14201DB022100E000210A
:104FA000C15403E0990000241EA80C5001331832AC
:104FB00035E7C527FF006F443F68FF24059702943B
:104FC000059D029EAB1B20D42B1C013307229B1B8B
:104FD00013400822D31ADBB29E4203D9F31ADBB284
:104FE000029312E0059F079C119DFB1862199342E2
:104FF00006DADBB2059308E0F4F9FFFF2C060000A7
:10500000013A079ED2B205920296029F37237B4354
:105010001DAA04981178C3181593179154783B1C56
:10502000189495781F9F1995D2781E9E1A9203970F
:10503000219A209FB446059CA34200D9DAE1159835
:10504000B94E01786E44366888114000805B8C1040
:105050000D1104900320054004400140C520C0000C
:105060006D00640049006844AD5BA45B895B006827
:10507000089509940A91002800D1A0E16146002911
:105080005CD00624015F8B4258DB051C407B09186D
:105090008B4253DA1798AC88002807D16146013952
:1050A0000878654629780002084308E0179E6146A3
:1050B000012E01D1087802E00139087800020321AD
:1050C0000C4064002041061C8510041180110E4024
:1050D0000D400C400840002E08D0C521C90069448D
:1050E0000436096876008E19F6880A96002D08D0D5
:1050F000C526F6006E44043536686D007519ED88D6
:105100000995002C08D0C521C900694404340968F8
:1051100064000C19E4880894002808D0C524E40031
:105120006C440430246840002018C0880490C525D1
:10513000ED006D442D68297B89108C44039E002E60
:105140006BD0C520C000684400681E21415E8B42C0
:1051500063DBC524E4006C4420680630C07F091876
:105160008B425ADAC524E4006C442568189EAC8B47
:10517000002E07D10399039D013908782978000290
:10518000084308E0189E0399012E01D1087802E037
:1051900001390878000203210C4064002041061CFC
:1051A0008510041180110E400D400C400840002E67
:1051B00008D0C521C90069440436096876008E19F3
:1051C000F68B0A96002D08D0C526F6006E440435ED
:1051D00036686D007519ED8B0995002C08D0C52136
:1051E000C90069440434096864000C19E48B08940C
:1051F000002808D0C524E4006C4404302468400032
:105200002018C08B0490C525ED006D442968039ECD
:105210000531C97F891076180396002F66D0C52006
:10522000C000684400683621415E8B425EDBC524C5
:10523000E4006C4420683030407B09188B4255DA1A
:10524000C524E4006C442568199EAC8E002E05D15F
:10525000791E087839780002084307E01998012878
:1052600001D1387802E0791E0878000203210C4051
:1052700064002041061C8510041180110E400D4071
:105280000C400840002E08D0C521C90069440436EE
:10529000096876008E19F68E0A96002D08D0C5266C
:1052A000F6006E44043536686D007519ED8E09956B
:1052B000002C08D0C521C900694404340968640081
:1052C0000C19E48E0894002808D0C524E4006C442E
:1052D0000430246840002018C08E0490C525ED00DD
:1052E0006D4429683031097B89107F18002A66D007
:1052F000C526F6006E44316848310624085F8342B3
:105300005DDB4C7B0019834259DA1A9D8C88002D95
:1053100005D1511E087811780002084309E01A9E51
:10532000012E03D1107804E024060000511E0878F5
:10533000000203210C4064002041061C851004116A
:1053400080110E400D400C400140002E0BD0043661
:1053500076000A96C526F6006E4430680A9E4830EC
:105360008019C0880A90002D09D0C526F6006E4429
:10537000306804356D0048304519ED880995002CDA
:1053800009D0C525ED006D44286804346400483018
:105390000419E4880894002909D0C526F6006E4453
:1053A00030680431490048304118C9880491C5204B
:1053B000C000684401684831097B89105218049C78
:1053C00022A958004452181C089DB030B026400055
:1053D00076004552099C981984254000AD0044523E
:1053E0000A9E5819400046521598013337301590DF
:1053F0009BB220E6069DABB2072B06D8069E04366C
:105400000696DC2E00D0F9E4EAE1059F029C3B1BE6
:10541000F4D4069D211CEDB2281C0395FEF78EFFE7
:10542000029F059CA74260D87B0022AE985BFEF7E6
:1054300041FFA024A548802524066D012550C046C3
:105440007B1CA349DBB25B006550985BFEF732FF23
:105450009E4AA550C0469E4BE550BB1CDBB25B008C
:10546000985BFEF727FF99482550C046FB1C9849DA
:10547000DBB25B006550985BFEF71CFF934AA550BA
:10548000C046934BE5503B1DDBB25B00985BFEF7DB
:1054900011FF8E482550C0467B1D8D49DBB25B0055
:1054A0006550985BFEF706FF884AA550C046884BBA
:1054B000E550FB1DDBB20493BB1DDBB25B00985BC8
:1054C000FEF7F8FE81482550C046049A3B1C8049EF
:1054D0000833DFB25300985B6550FEF7EBFE7B4B61
:1054E000E550C0467A4EA5519BE7039802990130DA
:1054F000C0B2FEF723FF029F059CA74269D83B1C60
:10550000B0335B0022AE985BFEF7D4FEA0246F4858
:10551000802524066D012550C0467B1CDBB26C49FA
:10552000B0335B006550985BFEF7C4FE674AA55038
:10553000C046674BE550BB1CDBB2B0335B00985BE9
:10554000FEF7B8FE61482550C046FB1CDBB260493F
:10555000B0335B006550985BFEF7ACFE5B4AA5502C
:10556000C0465B4BE5503B1DDBB2B0335B00985B44
:10557000FEF7A0FE55482550C0467B1DDBB25449BE
:10558000B0335B006550985BFEF794FE4F4AA55020
:10559000C0464F4BE550FB1DDBB20493BB1DDBB295
:1055A000B0335B00985BFEF785FE48482550C04647
:1055B0003B1C0833DFB2049B4549B0335B006550A8
:1055C000985BFEF777FE414AA550C046404BE55038
:1055D00092E7039802990230C0B2FEF7AFFE029F35
:1055E000059CA74200D975E0B0256D007B195B00D2
:1055F00022AE985BFEF75EFEA02434488025240688
:105600006D012550C0467B1CDBB261333049FF334E
:105610005B006550985BFEF74DFE2C4AA550C046D6
:105620002B4BE550BB1CDBB26133FF335B00985B57
:10563000FEF740FE25482550C046FB1CDBB2613317
:105640002349FF335B006550985BFEF733FE1F4A2A
:10565000A550C0461E4BE5503B1DDBB26133FF3306
:105660005B00985BFEF726FE18482550C0467B1D60
:10567000DBB261331649FF335B006550985BFEF780
:1056800019FE124AA550C046114BE550FB1DDBB276
:105690000493BB1DDBB26133FF335B00985BFEF705
:1056A00009FE0A482550C0463B1C0833DFB2049B64
:1056B00007496133FF335B006550985BFEF7FAFDE5
:1056C000024AA550C046024BE55089E784220000FB
:1056D00004220000039802990330C0B2FEF72EFEA8
:1056E000029C059DAC4200D988E6029D8427BF003C
:1056F000EB195B0022AE985BFEF7DCFDA024494865
:10570000802524066D012550C046029B842101336B
:105710008900DBB25B18444F5B00E551985BFEF7F4
:10572000C9FD404AA550C046029B84200233800038
:10573000DBB21B185B00E551985BFEF7BBFD3949F6
:105740006550C046029B842203339200DBB29B1853
:105750005B00985BE551FEF7ADFD324BE550C0466E
:10576000029B842004338000DBB21B185B00E551F0
:10577000985BFEF79FFD2B496550C046029B842233
:1057800005339200DBB29B185B00985BE551FEF796
:1057900091FD244BE550C046029BE5510733DBB237
:1057A0000393029B842006338000DBB21B185B004E
:1057B000985BFEF77FFD1B496550C046029B039A2C
:1057C00008338420DBB28000E551029313185B009C
:1057D000985BFEF76FFD13496550C046E5517FE7C2
:1057E000C526F6006E4433680022934217D00B9F03
:1057F000BA4214DA998801321981D988598118334B
:10580000F5E70124002901D1FFF749FBFFF7CEFBA3
:105810000121DB2D01DCFFF736FBFFF7C7FB034B54
:105820009D44F0BD84220000042200000C0600000C
:10583000F0B585B0061C039172B6494B984202D868
:10584000050B2B0314E0474B1C2598420DD8464B03
:105850001B25984209D8454B1A25984205D8444B38
:10586000002583426D4119235D1B424AAB189B03FF
:10587000F31A414C414F5A425341DBB23222029358
:1058800022606560A560201C391C3D4B98473A6832
:10589000002A01D0012060E0029B002B04D1E42308
:1058A0009B029E4220D040E0364A34231268FA21FF
:1058B000101C236089006560A560019200F04EFE17
:1058C000391CE0602E4B201C98473A68002AE1D131
:1058D000322323606560A560201C391C284A90474C
:1058E0003B68002BDBD0D5E73B232360E0239B0004
:1058F0006360254BFA21A360224B8900186800F0F1
:105900002DFE1E4FE060391C201C1D4A90473B684D
:10591000002BBFD1322323606560194BA560201C8A
:10592000391C98473B68002BB4D133232360039B79
:10593000144AA36080235B00FA21E36010688900A9
:10594000666000F00BFE0D4D2061291C201C0C4BE5
:105950009847286800289DD162B605B0F0BDC046C2
:10596000FF7F0100FF7F0300FFFF0200FF7F0200B7
:10597000FFFF0100EEFF0300902E0010A42E001088
:10598000F11FFF1F18010010FF03000013B56C4644
:105990000734211C012206F0C7FC207816BD07B58C
:1059A0006B46D9710733191C012206F097FC07BD1D
:1059B000024B1A680A321A607047C046B42E0010B3
:1059C000044B054A07215A6000229A601960034B74
:1059D0001A60704710E000E0FF520700B42E00107C
:1059E000014B18687047C046B42E00107047000085
:1059F00008B58022A0231B06920199580420014378
:105A000099502A4A80219858490101439950985841
:105A1000802149040143995099580120014399502C
:105A2000234A244899580143995023480021FBF701
:105A300049FC22480021FBF745FC21480021FBF7E7
:105A400041FC20480021FBF73DFC1F480021FBF7EB
:105A500039FC1E480021FBF735FC1D480021FBF7EF
:105A600031FC1C480021FBF72DFC1B480021FBF7F3
:105A700029FC1A480021FBF725FC19480021FBF7F7
:105A800021FC18480021FBF71DFC17480021FBF7FB
:105A900019FC16480021FBF715FC15480021FBF7FF
:105AA00011FC14480021FBF70DFC08BD0420000088
:105AB00008200000F8FF07000007020004090200A8
:105AC000080B02000C0D0200100F0200141102005E
:105AD000181302001C1502002017020024190200EE
