:1000000000800010FD0000003327000035270000AD
:1000100000000000000000000000000000000000E0
:100020000000000000000000000000003727000072
:10003000000000000000000039270000818200005D
:100040003127000031270000312700003127000050
:100050003127000031270000312700003127000040
:100060003127000031270000312700003127000030
:100070003127000031270000312700003127000020
:1000800031270000312700006D7E0000312700007D
:100090003127000031270000312700003127000000
:1000A00031270000312700003127000031270000F0
:1000B0003127000031270000312700000000000038
:1000C000C0C8000000010010A8000000C0C8000067
:1000D0000000002000000000C0C800000040002018
:1000E00000000000A8010010104B000000000020DC
:1000F00000000000004000200000000010B5104C7F
:10010000104B9C4206D2A2686168206802F015FB81
:100110000C34F5E70C4B9C4205D26168206802F074
:1001200015FB0834F6E702F06DFA084B002B02D0FD
:1001300000E000BF03E008F061FB01F087FCFEE790
:10014000C0000000E4000000FC000000000000000F
:1001500010B5064C2378002B07D1054B002B02D09D
:10016000044800E000BF0123237010BDA801001067
:1001700000000000C0C80000084B10B5002B03D0E1
:100180000749084800E000BF07480368002B00D17A
:1001900010BD064B002BFBD09847F9E7000000008C
:1001A000AC010010C0C80000A80100100000000051
:1001B00070B51D00164B14001B68C31A083302D417
:1001C0007F22134008E0134A134004D58020013BEE
:1001D0004042034301338033083B23600E4B1868D1
:1001E0000823091AC81803D4602108F0FFFD03E0B2
:1001F000602108F0FBFD6031083929602368002088
:10020000542B04DC3023CA0F8B425041C0B270BD66
:10021000580200107F0000805C02001070B50500DD
:1002200010780C00032810D808F066FC0205080CB2
:100230000A68D31A04E02A68D31A05E00A68D318BA
:10024000236002E02A68D3182B602A68084B8032AA
:10025000134004D58022013B5242134301332B60EB
:1002600020686021603008F0C1FD216070BDC0468B
:100270007F00008010B5401A140008F0BBFAE30FAD
:10028000C2B21B19C0B25B10834201DCA21AD2B207
:10029000100010BD37B5012004F0C4FD0024134B3D
:1002A000E35C002B1DD01249124DA000415801AB58
:1002B0006A464059FFF77CFF002812D00E4B0F4AC8
:1002C000E35C0199D25C0098012A04D109B200B222
:1002D00004F096FE05E012B209B200B2130005F078
:1002E0002BF801340A2CDAD137BDC0469D0200102C
:1002F0002804001000040010B40200100DA8000033
:10030000F7B5264B1A680193002A45D0022004F065
:1003100089FD0023224C234F22783B80224E234D1F
:1003200030339B1A33802B78214A9B00985805F074
:1003300043FE204B1A78022A06D9022012B2022369
:100340002E21404204F0F8FF2B781B4A002B17D0D7
:10035000019B18680023632804D81378092801D862
:100360005B00DBB212789100521A5432D3183B80F2
:10037000302322780A219B1A338005F0B0FE0BE06F
:1003800013780E489A009B1A54333B80302322780E
:100390009B1A338005F010FEF7BDC046E80300103D
:1003A000590500107C070010700700106003001052
:1003B00024A800006402001072070010BAA8000010
:1003C00070B5002305000A4A985C00280CD101246E
:1003D000D4549C00074BE550074BE150052103F036
:1003E00021F8064BE05002E00133102BECD170BD38
:1003F000C8020010C401001004020010D80200104E
:100400007FB50024114EA35D002B1AD0104911486E
:10041000A50003AB02AA69582858FFF7C9FE0028B7
:100420000ED0039A0C4B911E029AEB58901E00229C
:10043000DBB2009209B200B2084A05F06FFC00E09E
:10044000A0550134102CDDD17FBDC046C80200107C
:1004500004020010C4010010D8020010FEA7000022
:1004600007B50A490A4801AB6A4609680068FFF700
:100470009FFE002809D0082004F0D4FC019B054A07
:1004800019B2009B18B205F03FFC07BDAC0200108A
:10049000A80200107DA80000F0B50500002485B07A
:1004A000114B1B78A3421BD9AC4202D10134E4B2F8
:1004B000F6E70E4FA800395E0D4B8C465A5D0D4E87
:1004C0001B5D305E03930293A300FF5E0197F35E12
:1004D00061460093130004F04DF90028E6D000E0D7
:1004E000002005B0F0BDC046E4030010A4030010D6
:1004F000500300106403001030B5012085B004F0F3
:1005000091FC00241A4B1B78A3422FD919491A4D8C
:10051000A000415803AB02AA4059FFF749FE00284A
:1005200021D0164B164D1B5D062B0DD0082004F074
:1005300079FC039A2B5D911E029A09B2901E00224B
:1005400000B200920F4A0CE0092004F06BFC039A01
:100550002B5D511E029A09B2501E002200920A4AD7
:1005600000B205F0DBFB0134E4B2CBE705B030BDEF
:10057000E4030010A40300106403001050030010F3
:1005800050040010D2A90000F4A70000F0B5002527
:1005900087B030230022009311002433100003F0B1
:1005A00029FD0028F5D00221002002F03BFF264F54
:1005B000093038800221002002F034FF0024234E4D
:1005C0003080234805F004FD224B3D801D70224BF6
:1005D00003971A78049632800593204FA600F159AC
:1005E000002903D12D2005F049FD05E00B236343CD
:1005F0001B48C01805F0E0FC1A4B01341B780A2197
:100600009A009B1A039A54331380059B049A1B7813
:10061000B8596343138005F039FD052CDDD1042062
:1006200002F0FCFD002803D006F048F907B0F0BD49
:10063000200002F0F3FD0028F6D1063002F0EEFDB6
:100640000028F1D1A5E7C0467C0700107007001014
:10065000BEA8000028010010590500104402001037
:10066000660200107207001010B5082004F0DAFBD3
:100670000021064B24201980054B198005F0FEFC53
:10068000044B0A21186805F001FD10BD7C0700101D
:1006900070070010C402001070B5144A1378002BC4
:1006A00022D0134D013B28781370411C404202F0C8
:1006B000B9FE104B1A68101818602878411C404287
:1006C00002F0B0FE0C4B1A68101818600B4B00209B
:1006D0001C780B4B19782B788908594302F0A2FE3D
:1006E000201AC0B202F053FD70BDC046390300109D
:1006F000EC030010580200105C020010AC04001063
:10070000A8040010F0B5184885B004F0B7FF174EE4
:100710000B21300035002C3003F054FE144B154CE7
:100720001B680C34636021350B3E2368626893427A
:1007300003DBFFF72BFF05B0F0BD2F0029000B37BF
:1007400001A808F0CFF93900280008F0CBF901A979
:10075000380008F0C7F9236862680B3D22606360C7
:10076000043CB542E1D1E4E728B100006602001084
:10077000C40200104402001010B5040008000C214F
:1007800008F04AFA084BC9B21B78084A5943511875
:1007900007228020230714402041DB0FCB5C184048
:1007A000431E9841C0B210BD0601001094A800007D
:1007B000F0B5244D803087B0054004D58020013D40
:1007C00040420543013560310800602108F00EFB0E
:1007D00007220BB20F00D9171140CB18DB10019381
:1007E00004266B469E572BB2D9170A40D318DB104C
:1007F00002936B461B7A5BB20493019B0633B342B0
:100800001EDBF300DB1B1BB2049C0593029B0A3327
:10081000A34212DBE3B2F1B218000393FFF7ACFF7F
:10082000002806D0E400601B00B2074A059905F0D5
:100830006BFA039C013464B2E8E7013676B2DCE778
:1008400007B0F0BD7F00008072A70000F0B507265A
:1008500085B0CD170393C317334035401B186D186F
:10086000DB10ED10DBB2EDB204000F001800290020
:1008700002920193FFF780FF00281FD1029B2900FD
:10088000E418013CE31733401C19E410E4B22000E3
:10089000FFF772FF002811D1039B2000FF18013FD2
:1008A000FB171E40F719FF10FEB23100FFF764FF7F
:1008B000002803D131000198FFF75EFF05B0F0BDBD
:1008C000F0B55C4A85B013685B48002B00D19EE010
:1008D000002405785949A54200D0A9E0E5B2039566
:1008E0000D5D002D00D08DE001260E555449554D6B
:1008F0000978013B29551360534D544B6D5C5B5C8B
:10090000534A05705DB2525CE9430091324202D114
:100910005F427BB200934F4F00983B68DE1C6B1C1C
:100920001900019302F07EFD454D494A2B78361897
:10093000D05C494B4008301A484EA200D050336872
:10094000019903330098029302F06CFD029A2B7810
:1009500010183F4AA100D25C5208801A404A8850C1
:10096000404A414910780192085568463F49007B4A
:100970002C0008703D00012B01D0042B03D13C4A10
:100980001268D20705D43B4A9B000021985805F015
:1009900081FD2778012F07D108F04CF8384203D0A9
:1009A0000021354805F076FD344A23782800D35CD1
:1009B000310000935B425BB2019AFFF72FFC0025E8
:1009C000009B9D4214D0254F224E0023F95E002348
:1009D000F05E06231A00FFF739FF002808D0012334
:1009E000204A390030000135FFF718FCEDB2E7E787
:1009F0002378042B1CD10122214B1A70214B921811
:100A00001A7015E001340A2C00D067E710E00C4999
:100A10000B78002B01D0013BDBB20B701A499B0015
:100A20005B581E21136014230370184803F08CFADE
:100A300005B0F0BDE8030010640200109D02001034
:100A400060030010B4020010C7A70000EFA7000069
:100A50000DA800006002001000040010C002001089
:100A60002804001061030010ED030010F7030010CC
:100A7000D004001084A7000012A80000B6A7000050
:100A8000EC0300103903001098A70000CAA800006A
:100A900073B51021002002F0C5FC104CC00020608E
:100AA0000C21002002F0BEFC0D4BC5001D60082388
:100AB00026681A0029B230B2FFF7C8FE01AB040065
:100AC0006A4629003000FFF773FB0028E1D10123BB
:100AD0005C40E4B2002CDCD073BDC046A80200101C
:100AE000AC0200102E4B30B519682E4B85B018683B
:100AF0000623039302932C4B023100229B5E0230AB
:100B000001932A4B09B200229B5E00B2009304239A
:100B10001A0003F02FFE002840D0254D2B68042B2F
:100B200004DC1E21234803F00FFA37E0224C1E217B
:100B30002378032B07D8214803F006FA0021204828
:100B400005F0A8FC02E01F4803F0FEF92B68053B06
:100B50002B60FFF79DFF22780423032A01DC01327A
:100B6000D3B2194A23709B009A58184B06251A6075
:100B7000174B1A68042A00DC551C1D601C23002436
:100B80005B425D43AA35134BEAB2185B198905F045
:100B9000D9FA114BE0520234202CF4D105B030BD0B
:100BA000AC020010A8020010C00200106002001089
:100BB000C4020010D7A8000060030010E5A80000E0
:100BC000A6A90000F0A8000098A70000E803001004
:100BD0003C030010640500101803001010B5084B0A
:100BE00008491A5C83000400C95E0748C05E130010
:100BF000FFF72CFE002802D12000FFF74DFC10BDAE
:100C000050030010A403001064030010F8B504237F
:100C10002A4A2B49135409782A4B040019542A49AB
:100C200008780E0000280DD12849012508780228EF
:100C300001DD0138C5B20D7006211155244A357009
:100C400012781A552021002002F0ECFB214FA5005C
:100C50008000E8511821002002F0E4FB1E4E8000C5
:100C6000A8512000FFF7BAFF0028EBD11B4AEB592F
:100C7000126880339B1A1A4A134004D58022013B24
:100C8000524213430133532BDCDD164B70591B6862
:100C90006030C01A602108F0A9F82F29D2DD07F0D2
:100CA000C9FE114B184004D5042301385B42184398
:100CB00001300E4B18550120F8BDC04650030010FE
:100CC00005010010400300103803001065020010F9
:100CD0000401001064030010A40300105802001067
:100CE0007F0000805C0200100300008050040010B0
:100CF000002370B50C4D0D4C2A780D490D4892001B
:100D0000934201D100240AE0195119500433F7E746
:100D10002000FFF77BFF002805D00134E4B22B78D8
:100D2000A342F5D8012070BDE40300106403001055
:100D30000F270000A4030010F0B5002787B03F4B39
:100D40001B78BB4277D93E4EBC00A3593D4D009362
:100D50003D4B80221B6800980293635903933B4BE1
:100D60001B6804933A4B1968FFF784FA73282AD852
:100D7000384B602219686059FFF77CFA4F2822D857
:100D800033192C19344D0193EB190593EA190123FA
:100D900021000198FFF742FA3800FFF71FFF061EF7
:100DA00014D00123EA195B4221000198FFF736FABB
:100DB00007F040FE294B184004D5042301385B425C
:100DC00018430130E8557B1CDFB2B8E72021300022
:100DD00002F028FB0028EBD01021300002F022FBAB
:100DE0000028F0D1022102F01DFB041E13D0009B4D
:100DF000029A80339B1A1A4A134004D58022013B81
:100E00005242134301332A22D31A002B01DD03235C
:100E10000DE001230BE00398049B6030C01A6021B1
:100E200007F0E4FF1823591A002902DD163BEB55A1
:100E3000C9E7EC55C7E707B0F0BDC046E4030010B2
:100E400064030010A4030010580200105C0200109C
:100E500060020010C0020010500400100300008067
:100E60007F000080F0B50400444B0F005A5C4449F9
:100E700089B00B5C4348805C1B1A0B55424B9D5C50
:100E8000424B1A5D0493062A00D1AD08404BA600E0
:100E90009B1900933F4B00989B1901933E4B01997E
:100EA000DB190293029A6BB2FFF7B8F92000FFF743
:100EB00095FE374B0393384B0593002806D06B42C1
:100EC0005BB2029A01990098FFF7A8F90322059BEB
:100ED000DB5D02331340314A1355294B1B57002B5E
:100EE00049DC2F4D2F4A2B6801332B6013680133E7
:100EF00013602D4A1378013B1370204BDB5D032BED
:100F000003D00021294805F0C5FA204B1B5D062BB4
:100F100002D12B6804332B601E4D039BA9599859AD
:100F2000FFF74EFA039807AB06AAA9598059FFF7B5
:100F30003FF900280BD0049B1A5D079B0132591E14
:100F4000069B09B2581E00B2130004F0F5F9200008
:100F5000FFF75CFE164D2C780F2C0CD8114B062198
:100F6000186807F05DFE0330A04204DB631C20001C
:100F70002B70FFF74BFE09B0F0BDC046B402001065
:100F8000400300104CA80000EAA700005003001026
:100F900064030010A4030010ED03001050040010BF
:100FA000C4020010FC030010380300107CA70000EE
:100FB000E4030010F0B52D4A87B01378002B52D00F
:100FC0000427013B13700222294B06211F70294B75
:100FD00000201A7002F026FA0A30C4B20420390048
:100FE000404202F01FFA244B65081B683900C01804
:100FF000461B0420404202F015FA204B1B68C01823
:10100000471B00251E4B1B78AB421CD91D4B1E49AC
:101010005A5D23B29C46AB00C95E1C48C05E634665
:10102000039302933BB2019333B20093130003F096
:10103000A1FB002804D0164B28001978FFF712FFF7
:101040000135EDB2DEE705AB04AA39003000FFF749
:10105000AFF8002807D0059B22B219B2049B18B242
:10106000130004F069F907B0F0BDC046A7020010F4
:10107000EC03001039030010B002001060040010EF
:10108000E403001050030010A403001064030010D8
:10109000F7030010F0B500243C4E3D4D89B0E3B29B
:1010A00006933C4BE35C002B69D03B4B3B4AE35C33
:1010B0002900D25C30000492394AD356394A1219B9
:1010C000FFF7ACF82B68376805936B461421595E1F
:1010D000049B38B21A00FFF7B9FB0021884201D106
:1010E00007002EE02B4BE1542B4BE35C032B46D146
:1010F0002D4B059A1F602D4B2D481A6008222D4B51
:101100001A7005F0C7F93AE06B4610229A5E2A4B36
:101110000792DB5D0022A95E0022B05E274A03939E
:101120000293BB000591D25E05990192244AD35ED9
:10113000079A0093130003F01DFB002806D1013726
:10114000FFB2204B1B78BB42DED818E0124BE35CA9
:10115000032B0DD13268144B00211A602A68134BFF
:1011600013481A600822134B1A7005F093F903E034
:1011700006993800FFF776FE0022064BE254013450
:10118000043604350A2C8AD109B0F0BD00040010E1
:10119000280400109D020010B40200100DA80000E9
:1011A00038A60000ED030010B0020010600400102B
:1011B000C8A90000A702001050030010A4030010EB
:1011C00064030010E40300102B4B2C4A70B5116926
:1011D0001A681C00914201DAFFF794FA0023284AAA
:1011E00028491360284A23601370284A1160284A4E
:1011F0001370284A13700622274B1A601023274ABF
:101200001370274A13700422264B1A7010210020F5
:1012100002F008F9244CC00020600C21002002F0EC
:1012200001F9224BC5001D600623266829B230B2A1
:101230001A00FFF70BFB041EE8D11D4B273E1E6072
:101240001C4B153D1D60FFF753FD0028DED0FFF756
:101250001FFC20002200184BC25401300A28FBD189
:1012600000231900154A99540133102BFBD1002299
:10127000134B1A7070BDC046C40200104402001027
:10128000FC0300100F27000060030010E8030010AB
:1012900064020010390300103C03001065020010C6
:1012A00038030010E403001060020010C0020010B8
:1012B000580200105C0200109D020010C8020010CD
:1012C000A7020010012370B5294C5B426380294BB3
:1012D0000022A380284BFC21E380284BFF202381A0
:1012E00004F010FF612220829A21182004F00AFFE6
:1012F0000B22E081FF212C2004F004FF00226081FA
:10130000B221F72004F0FEFE0422A0811421FC206B
:1013100004F0F8FEAE2260825321002004F0F2FEB9
:10132000BF22A082FD21FF2004F0ECFE0025E08317
:10133000605BE18B002204F005FF114BE85202359F
:10134000202DF5D10F4A13600BF0DBF80E4805F0A5
:1013500087FB02F071FD0D4804F090F90C4802F093
:1013600051FF03F003FA05F021FBFFF72DFF70BDDD
:1013700064050010FF0700001FF8FFFF00F8FFFFE3
:10138000180300106C070010FBA8000028B1000033
:1013900050A60000F0B5002430250226864B89B007
:1013A0001C700A2C1AD002F0D5FC002816D000229E
:1013B000009554231100100002F01CFE0028F0D00C
:1013C00006227E4B7E481E707E4B01341A807E4B77
:1013D0000A321A80E4B204F0EFFDE2E70122774B13
:1013E0003C217A481A7002F0AFFD02F0B3FC0028ED
:1013F00000D111E2302300220093110024331000A9
:1014000002F0F8FD0028F0D0062001F007FF0028C8
:1014100002D005F05BFAFFE10121022001F008FF94
:10142000051E04D003226A4B01251A7007E0012132
:1014300001F0FEFE002802D00125654B1D70012140
:10144000032001F0F5FE634C061E03D00223604A20
:1014500013700AE00121080001F0EAFE002802D022
:101460005B4B1E7001E0002D1AD000235A4D5B4EDD
:10147000574AF35621002800FEF7D0FE0023E15E14
:101480000023E85E06231A00FFF7E0F9002807D0E2
:1014900033784F4A5B425BB221002800FEF7BEFE64
:1014A0004D4F4F4D3B684F4E273B2B602368153BFC
:1014B0003360FFF7F1F807AB06AA21683868FEF73A
:1014C00077FE032003F0AEFC079A414B11B2069A57
:1014D0001B7810B200220092434A04F01FFCFFF771
:1014E0002BFCFFF709F8414A04971378002B01D031
:1014F000013B13700121042001F09AFE002806D060
:101500000121052001F094FE002800D181E1012194
:10151000052001F08DFE314B0222002800D101226E
:101520001A70FFF7B7FDFEF7B5FEFFF743FD042085
:1015300003F078FCFEF764FFFFF7D4FAFEF790FFA4
:10154000052003F06FFC0023F15E0023E85EFFF747
:101550002FF956240026264D27B22B689E4204DC24
:10156000042003F05FFC234A0DE00021080003F093
:1015700061FC204A0021380004F0C6FB0021042051
:1015800003F058FC1C4A00213800093C023604F0E4
:10159000BBFBA4B2082EDED1154B1B68002B33D148
:1015A000164A11680122114234D1022014490870F0
:1015B00014490A702EE0C046B20400102C0100103D
:1015C0000EA900007C070010700700105AA9000047
:1015D00061030010C002001060020010E50300105B
:1015E000580200105C020010ACA70000640200105A
:1015F0003C03001042A80000E0A70000D004001047
:10160000EC03001039030010012B03D1834A13703F
:10161000834A1370DB0711D50021042003F00AFC74
:101620002B68804AD80FC31809205B104042013351
:101630004343563318B2002104F066FBFEF760FE08
:101640000024FFF711F80627774B1B78A34200D838
:10165000CBE67649A300C95E7548764EC05E764BF0
:10166000325D0397029700255B5F0193049B002581
:101670005B5F0093130003F07DF8002800D1C5E004
:10168000022104206D4D2B685A1E2A60634A117096
:1016900063490870315D062903D1023B2B600323A7
:1016A00013700021664804F0F5FE2000FFF7AEFA43
:1016B0002B68002B00DBA9E00024302300220093DC
:1016C00011002433100002F095FC0028F5D0FEF73D
:1016D00013FFFEF7DFFDFEF793FEFEF7C1FEFEF7F8
:1016E0000FFEFEF7C1FF574B25B20021595E564B46
:1016F0000020185EFFF75CF8079A544B511E069ABB
:101700001B78501E002209B200B20092504A04F029
:1017100005FB002003F086FB00212A00080030238F
:1017200003F00AFE5420001B2A00302300B20021DF
:1017300003F002FE0021012003F07CFB0C23454F47
:10174000454E3B800123454D02343000A4B22B802E
:1017500004F032FC05963E2CAFD10C2304933023C9
:101760000022009311002433100002F043FC0028F3
:10177000F5D03B4E3B4B32681B69934217DA07F0BA
:1017800059F9394C204004D5022301385B421843F3
:1017900001300230388007F04DF9044004D50220B2
:1017A000013C4042044301342C80304805E06B4644
:1017B0001B8A05983B8001232B8004F0FDFB6B46C0
:1017C00000241B8A2A482B803C8004F0F5FB0A2168
:1017D000306804F057FC274804F0EEFB264B0A2142
:1017E000186804F04FFC254804F0E6FB2823244841
:1017F0003C802B8004F0E0FB042001F00FFDA042B0
:10180000ADD005F05BF8FFF7DFFCEEE50134E4B2A4
:101810001AE7FFF755F87AE609B0F0BDEC030010BF
:101820003903001038A80000E4030010A4030010DE
:101830006403001050030010C00200103C030010AD
:101840001CA800005C020010580200106103001088
:10185000ACA700007C07001018A90000700700105A
:10186000C4020010440200100100008023A90000FF
:1018700031A900003CA90000FC03001049A90000A8
:1018800051A9000073B53025012602F063FA002843
:1018900000D194E00022009554231100100002F0C2
:1018A000A9FB0028F1D00521454802F0B3FC04282B
:1018B00000D984E007F020F903111F227F00642083
:1018C00006F0FCFC3F4803F0D9FEFFF763FD3E48FD
:1018D00003F0D4FE3D4B1E70D7E7FFF775FC394887
:1018E00003F0CCFEFFF756FD374803F0C7FE012298
:1018F000364B1A7063E0FEF749FEC6E7314803F045
:10190000BDFE0022009554231100100002F072FB6E
:101910000028F6D0062001F081FC041E05D02A48DC
:1019200003F0ACFE04F0D2FFAFE7294804F044FB1B
:10193000284B0A21188804F0A5FB274804F048FB2F
:10194000264804F039FB264B2100187804F0BDFB33
:10195000244804F03DFB244804F02EFB234B0A21CD
:10196000188804F093FB224804F026FB214B210049
:10197000187804F0AEFB204804F01EFB05F010F8C8
:101980000A2104F07FFB1D4804F016FB1C4B2100CC
:10199000187804F09AFB1B4804F00EFB0A21102073
:1019A00004F074FB184804F007FB184B0A21186870
:1019B00004F06CFBA5E7164802F024FC65E773BD54
:1019C000CCA7000024AF000028B10000B204001032
:1019D00068A90000AE0400106DA9000070A9000005
:1019E000B004001079A900007CA90000AA0400102E
:1019F00083A90000AC0400108EA9000096A9000085
:101A0000E40300109CA900009EA90000FC03001044
:101A100050A6000010B5FFF7BDFC02F09BF90028AE
:101A200008D0FFF72FFF02F095F9002802D00248F6
:101A300002F0E8FB10BDC04650A6000010B50248F9
:101A400001F0FBFC10BDC046F803001010B5FFF715
:101A500039FC02F07FF9002802D0FFF7DBFFF8E73E
:101A600010BDFFFF10B5024801F0E7FC10BDC046F5
:101A70006404001010B50100014800F065FD10BDC0
:101A80001C05001010B5FF21024800F05DFDC0B23A
:101A900010BDC0461C050010F8B543B204000D008F
:101AA000002B07DA00217720FFF7F6FF012831D855
:101AB0007F231C40A026882380279B013606F750F1
:101AC000FFF7E0FF8A239B01F750FFF7DBFF2000C1
:101AD000FFF7D0FF280EFFF7CDFF280CC0B2FFF7AD
:101AE000C9FF280AC0B2FFF7C5FFE8B2FFF7C2FF7F
:101AF0009520402C03D09438482C00D18630FFF735
:101B0000B9FF0A24FFF7BEFF030603D5013CE4B288
:101B1000002CF7D1F8BDFFFF73B58823A0248022E5
:101B20003F4D9B012406E25028003E4900F002FD93
:101B300028000022082100F0F1FC842364259B0189
:101B4000E358013DEDB2FFF79DFF002DF9D12900CB
:101B50004020FFF7A1FF040001284BD1D5214820E8
:101B60004900FFF799FF012815D1FFF78BFF01AC62
:101B700028550135042DF8D1A378012B3AD1E3780B
:101B8000AA2B37D1284D8021E920C905FFF784FF12
:101B9000011E11D115E02900E920FFF77DFF412644
:101BA000012801D80224E926204D00213000FFF74A
:101BB00073FF002820D116E0013DADB2002D19D0F1
:101BC000E1E77A20FFF768FF002813D10500FFF74F
:101BD00059FF60550135042DF9D123780C245B069B
:101BE0000FD42C000DE0802150208900FFF754FF16
:101BF000002806D0002404E0013DADB2002DF9D04C
:101C0000D3E70B4BA0221C70882380219B01120676
:101C1000D150FFF737FF60426041C0B276BDC04689
:101C20001C050010002D3101E02E0000A86100000D
:101C300065040010F8B51D00244B07001B78160042
:101C40001B0700D449025120FFF726FF002801D0CE
:101C5000012431E01E4CFFF715FFFF2804D1013CA1
:101C6000A4B2002CF7D1F3E7FE28F1D1194C641B84
:101C7000A41BA4B2002E07D1002F11D0013DADB29C
:101C800001353E007D1904E0013EFFF7FBFEB6B2D0
:101C9000F0E7FFF7F7FE30700136B542F9D105E005
:101CA000013DADB2FFF7EEFE002DF9D1013CA4B22B
:101CB000FFF7E8FE002CF9D18823A02280219B01A8
:101CC0001206D150FFF7DEFE2000F8BD65040010BB
:101CD0003075000002020000064B1A68831ED168AE
:101CE000002002398B4203D2507843439069181880
:101CF0007047C046680400100F4B10B51A680023E7
:101D00000380836804001800012B13D0D1680120E0
:101D10008B420FD2002B03D11178032900D15369D4
:101D2000E360002B03D01800FFF7D6FF00E05069F6
:101D30002061002010BDC04668040010F0B504000A
:101D400085B0012854D92C4B1D68EB6898424FD2BE
:101D50002E78022E32D0032E38D0012E48D181B2F7
:101D60004B08C91889B24B0A0193244BCA05D20DFE
:101D7000296903AF9A4204D0019B38005918022305
:101D80000EE0019B380059183300FFF753FF021E85
:101D90002ED12969019B0131C918330002A80530F1
:101DA000FFF748FF002823D17B7838781B020343D4
:101DB0001811E2071DD41805000D1AE02B69C2B2F4
:101DC000010AC918520003AD330007E07F22042343
:101DD00029690240C4099200611803AD2800FFF789
:101DE00029FF002804D168782B780002184300E00E
:101DF000012005B0F0BDC04668040010FF010000DE
:101E000070B5048805000134A4B2002C01D103236D
:101E100022E00369002BFAD022071BD101330F4ABD
:101E20000361C0681668002803D1B388A342EED9C5
:101E300010E073782209013B1A420BD1FFF77EFFB5
:101E40000123984208D9F3689842E0D2E860FFF78E
:101E500043FF286100232C80180070BD6804001027
:101E6000F7B504000D002B78202B01D10135FAE7DE
:101E70002F3B5A4253410027ED18A7602B78202BA7
:101E800001D901972EE02000FFF736FF404B0600F6
:101E90001B689B681F7078E0009B1B78002B68D044
:101EA0000822009BDB7A13405BD162680099581CC2
:101EB000C95CD35C994254D103000B28F6D1D37A84
:101EC000002B62D13B689868C37ADB0656D5437D08
:101ED000017D1B020B43C27E1904837E1202134351
:101EE0000B43A3606068020003000B32934203D1EE
:101EF00000220821130013E0202119700133F5E7B7
:101F00002F2B12D02E2B3BD091420ED91F00613FB8
:101F1000192F01D8203BDBB2571C8354FAB233008F
:101F20005E1CEB5CF6B2202BEAD8AD192026019A94
:101F30009E425241C2722000FFF7DEFE061E16D1FD
:101F4000134F3B689B6800930F23228821691A4036
:101F5000520111330098FFF76DFE00289CD0012636
:101F600013E02000FFF74CFF0028EDD00600032E01
:101F70000BD163680326DB7A002B06D1042604E02C
:101F80000829D2D10A000331C9E73000FEBDC0469E
:101F90006804001070B5164B01001C6890B0062054
:101FA000002C23D00023A3706B4608ADA56003A8C6
:101FB0000493FFF755FF002818D12B780330002B2E
:101FC00014D01023EE7A1E4010D16B7D297D1B02A8
:101FD000EA7E0B431904AB7E120213430B43636288
:101FE0000F9B300023620123E661A37010B070BD27
:101FF000680400102F4BF7B51C68002307000D0084
:102000000192138006209C4253D0A3780138DB074D
:102010004FD5236AE2699B1A8B4200D29DB200978A
:10202000002D45D0E669F3051BD1700A617806F0F2
:10203000F3FD00290BD1002E01D1606A02E0A06AF5
:10204000FFF77CFE01282FD90023A062E370A06A6D
:10205000FFF742FE002827D0E3785A1C1818E270D8
:10206000E062E3692E1CDA058023D20D9B009B1AE7
:102070009BB29D4200D91E1CB6B2381E00D00098FB
:102080003300E16AFFF7D6FD00280DD1E369AD1BEF
:102090009B19E361009BADB29B190093019B1B88C8
:1020A000F618019B1E80BBE700230120A37000E00F
:1020B0002800FEBD68040010294BF7B51C680623F4
:1020C000002C4AD0A278013BD20746D5256A85422A
:1020D00000D905000022E369E261954238D06678B4
:1020E0007602002B12D03100681E5F1E06F00EFD36
:1020F00031000190380006F009FD019B834205D3B1
:1021000073423B40E361ED1AA06A01E0606AA0629D
:10211000B5420CD9FFF712FE01281BD9E36898429B
:1021200018D2E369A0629B19E361AD1BF0E7E36994
:102130005B19E361FFF7D0FD00280BD06B0ADAB220
:10214000ED0501D1E27003E00132C318E270E362F1
:10215000002302E00023A37001331800FEBDC04637
:102160006804001030B5154B04001B688DB00620C4
:10217000002B20D004AD9D6001AB63602000FFF711
:102180006FFE002815D12B78002B0FD0EB7ADB06E1
:1021900001D404200FE06B7D297D1B020B43EA7EF6
:1021A0001904AB7E120213430B43A3602000FFF718
:1021B000A3FD0328EDD00DB030BDC046680400106B
:1021C00010B513000A000100014800F003F810BD2B
:1021D000E2A900000FB404B07047FFFF036870B5B8
:1021E00004000D00013304D1242206490648FFF7FC
:1021F000E7FF6368002D01D0E26800E02269136008
:1022000070BDC04613AA00005DAA000070B50D00A5
:102210000400160000F098FB6B1C07D00021200082
:1022200000F0BAFB3100200000F0B0FB70BD10B52B
:102230000122FFF7EBFF10BD70B50D000400160082
:1022400000F082FB6B1C0BD031002000FFF7C6FFB3
:102250000121200000F0A0FB0021200000F096FBEF
:1022600070BD10B50022FFF7E7FF10BD10B50400E8
:10227000034B083303601C3000F068FC200010BDE5
:1022800078AA000010B50400FFF7F0FF200000F06E
:1022900067FA200010BDFFFF036810B5040001338A
:1022A00004D12C2205490648FFF78AFF636960685C
:1022B0001B681840431E984110BDC04613AA000079
:1022C0005DAA000070B5050004000E4B0E00083337
:1022D00008C528001822002106F0CAFA00232000B1
:1022E0003100E36123626363A363E364064A23006E
:1022F0001C3000F0C9FB28003100FFF798FF2000D8
:1023000070BDC04678AA00007123000010B50430EB
:10231000FFF7C2FF10BD03000A0010B51C300121F9
:10232000002A04D01A6200225A630132110000F020
:1023300021FC10BD030010B50A001C30002903D099
:1023400000229963DA640132022100F013FC10BD0F
:10235000436910B50100002B04D10368002B06D09F
:10236000984704E00068002801D00431984710BD68
:1023700010B5012903D0022904D1383000E0203003
:10238000FFF7E6FF10BDFFFF10B50400431C12D09D
:102390000B685A1C0CD09C4208D12000896800F0C0
:1023A0000FFC0021200000F027FC04E00C31EFE7D7
:1023B0000148FFF70FFF10BD88AA000010B5030009
:1023C00088420AD00B00421C07D003004A1C04D0EC
:1023D0000348FFF7FFFE01235B42180010BDC04613
:1023E00099AA00000B685A1C05D0834201D14868A5
:1023F00002E00C31F6E718007047FFFF10B504004B
:10240000431C07D0FFF7EEFF0400431C02D1024833
:10241000FFF7E0FE200010BDAAAA0000074A1368DB
:102420001818EFF30881884205D30C220120044BD1
:1024300040421A6001E01060180070470801001067
:10244000B44C0010064B10B51B680400002B00D0E4
:102450009847044B1B68002B01D02000984710BD03
:102460000C01001018010010094B10B51B68040086
:10247000002B04D09847002801D1FFF7E3FF054B5C
:102480001B68181E00D09847002C00D0206010BD9B
:102490001001001014010010704710B5040000F086
:1024A0005FF9200010BDFFFF73B504000E48002542
:1024B000083020600820E0600C48261D6061069806
:1024C0006560257225610090300000F003FD2B004F
:1024D00030002269E16800F07DFD3000616900F0A4
:1024E000AFFD200076BDC046E8AA000040420F00C4
:1024F00070B5094D04002B6883420BD0061D02699C
:10250000C1680023300000F065FD6169300000F013
:1025100097FD2C6070BDC0466C0400100261002263
:1025200010B5034BC1601A60FFF7E2FF10BDC04653
:102530006C040010002210B5024B41611A60FFF7D5
:10254000D7FF10BD6C04001070B50D000400FFF73C
:10255000CFFF2900201D00F0B7FD70BD036870B5E6
:10256000DB680400984763685A682368002A02D130
:102570009B68984713E05B681568984763682D1A55
:102580005A68002D07DC916859601B68002BEAD05F
:1025900050689847E7E7236810681B69984770BD43
:1025A00010B50248FFF7DAFF10BDC04610AB0000BF
:1025B00070B5040000F0C4FD050000F0C1FD401B33
:1025C000A042FAD370BDFA2310B59B005843FFF721
:1025D000EFFF10BD70B50A4CA568A3682A00002B58
:1025E0000AD180225E5952059A1804331660C02B16
:1025F000F7D180225205A26010308000815070BD5A
:1026000000ED00E07FB580203F494002CA6F8E2474
:102610000243CA672522002020253C4B3C499A6092
:10262000243A0A603B49A4000A60186219593A4AE0
:10263000114001910199A943C825019101992D02E9
:1026400029431951009035480099814204D8C04669
:10265000009901310091F7E70121002019645964C4
:10266000586459645C6C29480C42FBD08E2180264A
:10267000C825890044582D0214400394039C344318
:102680000394039C2C4344502524846044582240E6
:102690000292029CB4430294029A2A4342500120BF
:1026A000DC681A4901220442FAD00320086700209E
:1026B0004A67486710004A675C6F144A0121044268
:1026C000FAD08E20916780001558154C2C4014507C
:1026D0001558144C2C40145000209164D164D064DF
:1026E000D164DA6C0A42FCD02521084A116101222A
:1026F00059691142FCD000220B4B1A601A600B4B37
:1027000001321A607FBDC04604800440008004404E
:10271000F0400440F4400440FF250000C3090000DD
:10272000FFFBFFFFFFFEFFFFC0800440C8800440A6
:1027300070477047704770477047002310B5934249
:1027400003D21C585C500433F9E710BD00231A0073
:102750008B4202D21A500433FAE7704700207047C8
:1027600010B506F07BF810BD13B501210F4B9A6828
:10277000120B12039A6002789C6891402143996081
:1027800099680B48014399601869084901900198BC
:102790000028F9DA08329200535801938B685B00E5
:1027A0005B088B6001980004000D16BD00C001405D
:1027B0000000088470B50600FFF7D6FF0400300063
:1027C000FFF7D2FF05003000FFF7CEFFAC4202D981
:1027D00023002C001D000300A84200D92B0020007C
:1027E0009C4200D2180070BD73B50C00214D06004C
:1027F00029002000FFF702FEC0B23070FF2804D18C
:1028000035221D491D48FFF7DBFC20002900FFF79A
:10281000BBFD80221A4BE405E40DE4182368194936
:102820009343B9322360FF328858174B034010207E
:102830000193019B8343C8200193019B0002034342
:102840008B508021114A8901D36F0B43D367104B02
:102850001049186806F05AF98023DB051A00013880
:10286000C0B20D49184308600B681340FCD10A4AF6
:10287000136073BD7CAB000018AB000063AB0000BD
:102880000040044000800440FF2500000480044014
:102890001C01001020A1070000C0014010B5FFF787
:1028A00089FF07F0A9F9024906F0A2FE10BDC04653
:1028B0000108803910B50400431C04D11E221749B9
:1028C0001748FFF77DFC174B1A68002A06D1013222
:1028D0001A60154A1549D36F0B43D3670122002CA8
:1028E00012D0134B9C420FD0124B9C420CD0124B77
:1028F0009C4209D0114B9C4206D0114B9C4203D004
:10290000104BE1184A424A412000110000F058F9EA
:102910000120A404E40EA04010BDC04618AC000085
:1029200062AA000078040010048004404000010006
:10293000281400002C16000030180000341A000083
:10294000381C0000C4E1FFFF70B505000C002960D1
:102950004B1C11D00800FFF7ADFF2414074BA40057
:10296000E318EB60064B6860E3182B61054BE31836
:102970006B61054BE418AC6070BDC046002200A03E
:10298000802200A0002100A0002000A010B5006857
:1029900000F032F910BDFFFF036870B504000D00B0
:1029A000013304D1432209490948FFF709FC002DEE
:1029B00006D0012D09D1A268636811680B4303E0BA
:1029C000A268616813688B43136070BD18AC000087
:1029D0005DAA0000F7B501210D008540134C636A24
:1029E0002B4221D0124B8600F058019300281BD0B7
:1029F00023682B4218D163682B4206D0E3692B422F
:102A000003D00C4B1B689847E5612369074F2B42A5
:102A100009D03B6A2B4206D0064B019A1B68022163
:102A2000905998473D626562F7BDC046004000A0DE
:102A3000800400107C04001010B50020FFF7CAFFCE
:102A400010BD10B50120FFF7C5FF10BD10B5022065
:102A5000FFF7C0FF10BD10B50320FFF7BBFF10BD8F
:102A600010B50420FFF7B6FF10BD10B50520FFF725
:102A7000B1FF10BD10B50620FFF7ACFF10BD10B5BB
:102A80000720FFF7A7FF10BDF7B5050027488142D3
:102A900002DD0120404248E02548264C026000202B
:102AA000820016590096002E3BD11351224C28600B
:102AB000E36F224F224E3B43E3671F248B034912EF
:102AC0000C401821A44604009B0F59435E34614416
:102AD000A400A15181210124890071589B000F009D
:102AE000210081400F4339008127BF00F151A0210F
:102AF000802609065B18B6019959270001916146A5
:102B00008F40019940B2B94399510E4BD158FFF70C
:102B100061FD1F222B68009813409C400A4B1C60EB
:102B200003E001300828BBD1B3E7FEBD131102005A
:102B30007C04001080040010048004408000090020
:102B40000080044060AC000000E100E00021036868
:102B5000064A9B0010B59950012281210068044C5F
:102B60008240890063589343635010BD8004001075
:102B70000080044003680120984070B50F4C236822
:102B8000034200D16062C54326680C4B2E4026608C
:102B9000012909D1002A03D05A68104358600CE07B
:102BA0005A6815405D6008E0002A03D01A69104396
:102BB000186102E01A6915401D6170BD004000A057
:102BC00070B504000D00431C04D1152207490848C4
:102BD000FFF7F6FA074BE405E40DE4180723226833
:102BE0001D409A431543256070BDC04680AC00006F
:102BF00062AA00000040044070B504000D00431CB0
:102C000005D11D220F491048FFF7DAFA06E08123AB
:102C10001B01984214D00D4B984211D00C4BE40587
:102C2000E40DE4182368042D04D18022D20013435C
:102C3000236005E01822ED00934315401D432560F5
:102C400070BDC04680AC000062AA0000140A0000FB
:102C50000040044070B50C1C05000021201C06F04B
:102C60001BF9002809D1FE21201C890506F028F94E
:102C7000002803D0FE24A40500E0002480232D6852
:102C80009B00E85806F0B8FF211C06F0B1FC06F0E6
:102C900057F981239B00E85070BD8023F7B5812749
:102CA00004689B00E258BF00E059E15001920D001A
:102CB00006F0A2FF061C019806F09EFF011C301CC6
:102CC00006F0CCFA061C280006F04EFF011C301C52
:102CD00006F08EFC06F034F9E051F7BDF7B50F00B1
:102CE000060050493800FFF789FBC3B20500FF2BEF
:102CF00002D14D48FFF76EFA4C4B01211A7801932F
:102D000010000840031E04D00A410B000A4200D004
:102D100081E0012421009940019A454812787360AE
:102D20000A4301990A70434A99008A58093332606C
:102D3000C26F1100802212061143C1672000984023
:102D400003003D4A38005268364913433A4A5360FB
:102D5000FFF71AFB3768394A3B68394913430C229D
:102D60003B607B6813437B607A68364B13407B6023
:102D70007B680193344B186805F0C8FEFE230138C8
:102D80001B0140011840019B18437860E8B20728F6
:102D90001DD805F0B1FE040A1016040A1016A0236F
:102DA000DB00FC500222294B10E0A123DB00FC5089
:102DB0000222274B0AE0A223DB00FC500222254B13
:102DC00004E0A3230222DB00FC50234BFA508022B4
:102DD000C12352019B00FA500123C0225B429200A2
:102DE0001E49BB500C32B950043ABB5080231C49D9
:102DF0009B00F950FB58053A9B08FF3ABB50042250
:102E00007B68300093437B60FFF747FF3000002171
:102E1000FFF720FFF7BD1348FFF7DCF901235B4202
:102E200077E7C046C8AC000034AD0000A004001035
:102E30000480044060AD00000080044001000600F2
:102E400040420F001FF0FFFF1C01001004050000AE
:102E50000C050000140500001C0500000110000016
:102E6000204E00004EAD000080210A4AC905D36FF4
:102E700080200B430121D367074B1A680A431A606D
:102E800000229A601A6802431A601A688A431A601C
:102E90007047C0460480044000400240024B18685E
:102EA0000006C00F7047C04600400240014B9868C2
:102EB0007047C0460040024010B58024044B19689A
:102EC000A143196098601A6822431A6010BDC04679
:102ED00000400240F0B5334E87B00091040031004D
:102EE000009801920293FFF789FA2F4D07002900FD
:102EF0000198FFF783FA2D4903900298FFF77EFAB5
:102F00002B4904900C98FFF779FA03990590380043
:102F1000FFF754FA059907000498FFF74FFA0100EC
:102F20003800FFF74BFA2060431C04D148222149A6
:102F30002148FFF745F92368204A93420FD0204AE1
:102F4000934219D180201F49C002CB6F1E4A034310
:102F5000CB6701211D4B1960536803310AE08020C3
:102F600018490001CB6F184A0343CB670121184B66
:102F7000196053680B43536031000098FFF704FA5F
:102F800029000198FFF700FA08490298FFF7FCF9B9
:102F90000C9B013303D006490C98FFF7F5F907B0F5
:102FA000F0BDC046ACAE000068AD0000A4AD0000AE
:102FB000E8AE0000ECAD000032AE000000000440BE
:102FC0000080054004800440008004409C80044050
:102FD00094800440F8B50E000221140002681D0020
:102FE000536807008B435360331F0C2B06D9032C07
:102FF00004D9652210491148FFF7E2F88023E00167
:103000000340013E1E43A30734003968DB0F0A6802
:103010009B01120C12041C4314430D220C604B68DC
:1030200093436A1E95410222AD001D434D604B68DB
:1030300013434B60F8BDC046ECAD000046AE000047
:10304000F7B5022405000E0002685368A3435360DD
:103050001A4B1B6801932100019805F057FD06F0FB
:1030600083FD071C300006F07FFD011C381C06F0B4
:10307000F5F8FC21890505F07BFF07F06BFA05F0F8
:1030800021FB07F031FAFF280FDC2B680C4A1C618A
:10309000196801380A4002211A601A6800021043B8
:1030A00018605A680A435A6007E0802302345B00C4
:1030B0009C42D0D10348FFF78DF8F7BD1C010010EA
:1030C000FF0000FF84AE000002220368D8681042AF
:1030D000FCD004229960D9681142FCD098687047EE
:1030E000104B70B51A68002A1AD1012580210E4AAA
:1030F0001D60D36FC9000B43D3670C4B0C4C186891
:1031000002230C49636005F001FD0138E0600A49C3
:1031100065601320FFF75EFA8022084B12031A60E5
:1031200070BDC046A4040010048004401C010010BF
:103130000080014040420F00A125000000E100E0B6
:10314000044B10B51B68002B01D1FFF7C9FF024BE0
:10315000986810BDA4040010008001400121034BB9
:1031600098615A690A435A617047C046008001401D
:103170000121024A53698B4353617047008001402B
:103180000122014B1A607047008001407047704770
:103190007047FFFF10B50548FFF780FB044906F0B4
:1031A00027FA05F0CDFE034B187010BDB1040010D6
:1031B00000007F43B004001010B5FFF7EBFF10BD17
:1031C00010B502490248FFF70FFB10BD5C2E00004E
:1031D000B104001010B503F0AFFD10BD70B50023B1
:1031E000FF2402250B480C4AC15C002906D0D15CA3
:1031F0000131C9B2FF2906D1D55407E0D65C002EB3
:1032000004D0FF2E01D1D15400E0D4540133072B58
:10321000EAD170BDCD290010B4040010034B185C36
:10322000013843425841C0B27047C046B404001050
:1032300010B50B4B1B5C012906D80020FD22013B79
:10324000DBB29A42404109E00020FF2B07D0180072
:1032500005F0E2FCC8B2013841424841C0B210BD9D
:10326000B4040010002210B51D4B19781A701D4AC5
:103270005078002801D001201870D078002803D0A1
:1032800002241878204318701078002803D00424F2
:103290001878204318709078002803D008241878F4
:1032A000204318701079002803D010241878204388
:1032B00018705079002803D0202418782043187003
:1032C0009279002A03D040201A7802431A701B78A2
:1032D000054A180008409943044B1070197010BD3E
:1032E000B3040010CD290010BC040010BB04001072
:1032F000014B18797047C046CD290010014B587812
:103300007047C046CD290010014BD8787047C046A1
:10331000CD2900100023094A1380094A1370094A75
:103320001370094A13700122084B52421A80084A4E
:10333000084B1A600922084B1A707047C404001029
:10334000C3040010CC040010BD040010C004001021
:1033500090B70000C8040010C204001010B5024865
:10336000FFF7D8FF10BDC046BE04001037B572B6D7
:1033700000210422244B802559601961234BED0064
:103380001A608E22224B92009C582C4380259C5020
:103390009C586D002C439C5001225A6714005967B9
:1033A00019004B6F1A4D01222340FAD114002B67EC
:1033B0006A676B674B6F164A2340FBD18E245364B8
:1033C000516CA4009360136753601559114929404B
:1033D0008025019101992943C825019101992D0268
:1033E00029431151A02284211206890153500A4910
:1033F00053500A4953500A4B9860001C01688D468F
:103400004068804737BDC046004000A010E000E0A3
:1034100000800440FF250000042100000821000076
:1034200000ED00E070B505000C0005F003FB611B2A
:10343000013105F0DBFC481970BD7047F0B5C1B033
:103440000E0001F02DFA01F037FA8023DB029B1BFE
:103450000400984200D91C0001F018FA8027134894
:1034600002F0B6FD00257F00A5421CD280216846EF
:10347000490001F0EFF9FF2804D8631BBB4201D9D2
:103480000B4806E0A819694604F036FE002804D06F
:10349000084802F09DFD012006E001350648FF3591
:1034A00002F08AFDE0E7002041B0F0BDFAB800006C
:1034B00006B9000021B9000073B90000F7B5012674
:1034C0000024514B514D1E70514B1C80FC23DB00DE
:1034D0002B8001F01DFA2100200001F049FA300094
:1034E00002F0BEFC0094019409F00BF80421494855
:1034F00001F07AF9A0420FD101F0D2F90820404240
:1035000001F0B0F90421684601F0A4F9042101A8F2
:1035100001F0A0F901F0BAF901273F4E7F423F4C7C
:103520002368B34200D03E4C2368B34200D03D4CE8
:103530002368B34200D03C4C2368B34217D0202309
:103540003A485B422B8002F043FD009B002B03D0E6
:10355000374B019A9A4240D8364802F039FD364836
:1035600002F036FDFC23DB002B80344820E0344B96
:1035700034482B8002F020FD0A2160682F8002F081
:10358000B2FD6368009A934227D3A068FFF7EEFE6E
:1035900017E0FFF7B9FE002834D1FFF7AFFE00288F
:1035A000F7D001990098FFF749FF002826D0264858
:1035B00002F00EFD05E0FFF755FEFFF799FE00282B
:1035C00004D1FFF795FE0028F5D01BE0FFF790FE31
:1035D000002817D0FFF746FEF8E71C4B1C482B804D
:1035E00002F0EAFC00980A212F8002F07CFDFC2307
:1035F0001848DB002B8002F0EBFCCEE7164802F007
:10360000E7FC8CE7F7BDC0462C010010220100103A
:10361000E6070010E7B900001EAB07B0F4FF030097
:1036200004FF030004FE030004F00300EFB90000F0
:10363000FF7F030003BA000012AA00001ABA0000BC
:10364000FF07000035BA00003FBA00001FF8FFFF77
:1036500065BA000079BA00005BBA0000F8B5002630
:10366000012002F0FDFB4A4BFC271E8001F050F9BF
:10367000484D494B49482B8002F000F80123484C43
:1036800030212370474BFF001E70474B60201E7097
:103690002F8002F0A3FC454802F08EFC3821602008
:1036A00002F09CFC424802F087FC4021602002F0BE
:1036B00095FC404802F080FC4821602002F08EFC1E
:1036C0003D4802F079FC6021282002F087FC3B484D
:1036D00002F072FC013E3A482E8002F06DFC39483F
:1036E0002F8002F069FC0223374823702E8004F0FB
:1036F000B5FD8319DBB225000324042B00D8040098
:1037000004F0D6FD86B2FFF7ADFD7821682002F007
:1037100065FC0A21200002F0B5FC04F0C9FDFA2383
:103720009B00F318984203D904F0C2FD013C86B215
:1037300003F0A4FB002808D003F0A0FB041E02D075
:10374000FFF790FDF8E7FFF7B9FE03F08BFB0028C9
:1037500007D003F087FB002802D0FFF783FDF8E7CE
:10376000040003F085FB002802D1002CCBD106E039
:1037700003F07EFB002802D0FFF774FDF8E7012379
:103780002B7001F0C5F8002002F06AFBF8BDC046BE
:10379000E60700102201001000F8FFFF2CB4000023
:1037A0002C0100102D010010260100109EBA00000F
:1037B000A3BA0000A8BA0000ADBA0000B2BA000077
:1037C000B8BA0000BCBA0000A20F0000F0B5984DD6
:1037D0001E002B888BB00400049109935711002E12
:1037E00006D00020322300901A00010001F0B4F846
:1037F0006A461021525E8E4B029222B20392032F30
:1038000002DCFC22D20022E0042F1DD120235B42E7
:103810002B80002E00D102E102F01AFB05000120EE
:1038200002F01EFB03F0BCF8049902001439601E7C
:10383000C9B20A23C0B202F02FFC7E4802F0BCFBE2
:10384000280002F00DFB05E0042F01DD7A4A1A8002
:10385000002EE1D1002F02DC784A754B1A8001233B
:10386000774A00930299039801F08CF8012F02DC4B
:10387000724A6F4B1A80A3B21D000126704C0835A6
:103880002DB203932200330002992800009601F024
:1038900079F86B461B8A22000493043B1BB2059304
:1038A000009633000599280001F06CF8022F02DC25
:1038B000624A5F4B1A800125039E2B00103636B2F8
:1038C000220002993000009501F05CF82B002200E4
:1038D00005993000009501F055F8049B0095083BD0
:1038E0001BB2069322002B000699300001F04AF823
:1038F000032F02DC514A4E4B1A800124039D504E87
:1039000018352DB22300320002992800009401F0EE
:1039100039F82300320005992800009401F032F8AC
:103920002300320006992800009401F02BF8049B34
:1039300000940C3B1BB20793320023000799280028
:1039400001F020F8042F02DC3C4A394B1A80012494
:10395000039D3B4E20352DB22300320002992800F2
:10396000009401F00FF8230032000599280000941C
:1039700001F008F82300320006992800009401F0B5
:1039800001F82300320007992800009400F0FAFFA4
:10399000049B0094103B1BB208933200230008994B
:1039A000280000F0EFFF052F02DC244B204A138093
:1039B0000125039C224E283424B22B0032000299A8
:1039C0002000009500F0DEFF2B003200059920005A
:1039D000009500F0D7FF2B003200069920000095DB
:1039E00000F0D0FF2B00320007992000009500F076
:1039F000C9FF2B00320008992000009500F0C2FF9B
:103A000004992B001439320009B20095200000F00F
:103A1000B9FF6A46064B928C1A800BB0F0BD0123A9
:103A2000074A00930299039800F0ACFF23E7C046D1
:103A3000220100104BBB000000F8FFFF8A5200007B
:103A4000F6C00000F0B5012087B002F009FA0022AC
:103A50009B4B1A7002F0A4FFFA20000104F0FEFB59
:103A6000040006F0C9F8974B97491C80051C05F027
:103A700027FA002801D0FF2000E07F2002F07CFF21
:103A80000024200006F070F8011C281C05F022FA22
:103A9000002805D020B2013402F028FFE4B2F0E79C
:103AA0008A4B18708A4804F0D9FB431EDBB204002D
:103AB000092B00D9874C04F0FBFB83B2049301234C
:103AC000FC271D000393FF00834B1B78002B03D0C2
:103AD000002D01D0002C22D102F062FF0400FA2058
:103AE000000104F0BBFB0600200006F085F8051C71
:103AF000300006F039F8011C281C05F0C7F9002831
:103B000004D1FA20E1B2000104F0B1FB20B202F0CE
:103B1000EDFE0021080000F02BFF07B0F0BD04F01F
:103B2000C7FBFA22049B92009B18984208D904F024
:103B3000BFFB83B20493694BE3185A1E9341E41A06
:103B4000012D03D0022D00D198E0BDE7039B644D09
:103B5000002B32D0012600F0DBFE7642102120201F
:103B60002E8000F005FF5F4802F026FA99212820F8
:103B700000F0FEFE5C4802F01FFA5C482F8002F065
:103B80001BFA5B482E8002F017FA582100202F8084
:103B900000F0EEFE574802F01BFA574E300002F0DC
:103BA00017FA300002F014FA300002F011FA300077
:103BB00002F00EFA514802F00BFA9921302000F081
:103BC000D7FE4F4E3378032B02D801235B4200E02F
:103BD0004C4B2B8002234C4A00933021013BA42004
:103BE00000F0D0FE3621182000F0C2FE474802F057
:103BF000E3F91820422100F0BBFE33784448032B40
:103C000000D8444802F0D8F90223434A2F806021AB
:103C10000093A420013B00F0B5FE6621182000F0BF
:103C2000A7FE3E4802F0C8F97221182000F0A0FE5D
:103C300002F0B6FE7F2802DD324B2B8000E02F80A1
:103C40002F4B274D1A78042A02D1243A2A8003E008
:103C5000072A01D1013A1A7018780A2102F012FAE3
:103C60002F4802F0A9F92F8002F09AFE00230200EB
:103C700077217020FFF7AAFD022525E7FFF7F2FA6A
:103C8000FFF7ACFA03F0EEF80590002801D000250C
:103C90001AE72800FFF7C2FA061E05D002F03EFE22
:103CA000059B0C4C039308E0FFF7B8FA002800D1FD
:103CB0000AE7084C02F04AFE0396012504E7C046D5
:103CC0002D010010F62700100000FE42D70400105E
:103CD000A30F0000FFFF0000D50400100100FFFF4C
:103CE00022010010C7BA0000E0B90000DBBA0000F2
:103CF000DDBA0000E8BA000003BB00001EBB0000F4
:103D00001028001000F8FFFFB2C000009BB90000AF
:103D100039BB000043BB0000D4C000004EBB000014
:103D20004BBB0000012210B5084B00201A7002F0B6
:103D300097F8074801F0A2FC04F0AAFA04F0D2FABE
:103D400002F0FAFF04F0BEFA10BDC046D504001020
:103D500024AF0000014B18787047C046D50400100E
:103D6000F7B50024FC2725005826FF00292D48D848
:103D700004F09EFA234B1A689042F7D91E3018605F
:103D8000012D0BD0002D02D0022D22D035E01E4B8C
:103D900028001D8000F0CAFD01252EE0FC21E2B2C2
:103DA000C900002002F0CEF9184B194A18806E2382
:103DB00051781078490840081C34181A711A009577
:103DC0002B00A4B200F0DEFDFE2C16D90024022543
:103DD00013E00E4B0E4A1F806E2310785178400876
:103DE000181A49086D3B0093711A00F0CBFD3F345F
:103DF000084BA4B29C4200D9FF25FFF779FA0028AE
:103E0000B4D0F7BDA44C0010E6070010220100104A
:103E1000A8BB0000FF03000010B57F2002F0ACFD3E
:103E20007F22034B1A80034B80321A7010BDC046AC
:103E3000F6270010D4040010F7B5FFF773FF322205
:103E40000127FF24334B1A70334B1F60334B1C7018
:103E5000FFF7E2FFFFF79AF920000024FFF797F938
:103E6000FFF7B8F9FFF7BAF9FFF7A6F900F07BFD05
:103E7000FFF776FF380001F0F3FF294E348000F0A1
:103E800047FD284D280001F0F9FB380001F0E8FF5C
:103E9000FC22254BD2001A80348000F039FD280026
:103EA00001F0ECFB214E224D34702F70FFF7D6FB52
:103EB000FFF7C8FD00F040FF3023220000932100EF
:103EC0002433200000F090FF1A4B1C79002C02D004
:103ED000FFF784F9F8E7200001F0C2FF0123164A3A
:103EE00016481370164A33702B70137001F0C6FB1E
:103EF00002F0BEF9FFF74EF90520FFF78FF9011E1A
:103F000003D0200002F0F2FC02E00E4802F0C2FAF8
:103F1000F7BDC046D6040010DC040010D404001025
:103F2000E60700102CB40000220100102D01001043
:103F300026010010B40400102C01001028B100006C
:103F4000280100109ABB0000024B0C311860024B94
:103F500019707047E0040010E8040010F0B51F4B22
:103F600085B01A780393002A36D000240B2A02D891
:103F70000C239C1AE4B20127194B00202D251F7039
:103F800000F050FF0322174EA4B231780020CB1C62
:103F9000691A61180092513201F033FB380000F0C9
:103FA00041FF032231780020CB1C691A611800926E
:103FB000513201F0C0FA04220B4B1A803378E41A14
:103FC0000A4B2F341C800A4B186801F0F5FF039B45
:103FD000039A1B78013B137005B0F0BDE804001094
:103FE0002C010010590500107C070010700700100C
:103FF000E0040010F0B587B005930CAB0391049278
:104000001F78060002F0EEF804F052F9194B1A4935
:104010001B780A68194C121A9A4212D92268002A8F
:104020000FD0174AC3180B601368012501331360C2
:1040300000232360FFF7ACF8FFF7D0F8FFF7AAF8EA
:1040400014E000252368AB4210D102F05BFA02F0C5
:10405000B9FA02F0ABFBFFF781FF059B0097049ACA
:104060000399300000F0C0FE01232360280007B050
:10407000F0BDC046D6040010E4040010DC040010BB
:10408000D0040010F0B587B002904D48039101F0C4
:10409000F5FA4C4B1A780493002A00D18DE00120E8
:1040A000494B4A4A18700023494C1370494A2370FF
:1040B000137000F0B7FE0594474B1B78002B79D0A6
:1040C000302300220093110024331000FFF792FFE9
:1040D0000028F1D00024029B404F1B78A34200D05F
:1040E0003C78012000F00AFC032000F09BFE012038
:1040F00000F098FE039B002B05D021001A000C3124
:10410000002001F001FE0023354D364C2B80029833
:104110000C33238001F050FF334E344833789A003B
:104120009B1A53332B803B789A009B1A2D332380A4
:104130002F4B1B68DB0600D42E4801F049FF337873
:104140002D489A009B1A53332B80238801332380F8
:104150002A4B1B88002B00D1294801F039FF224B44
:1041600005201B789A009B1A53332B802388013338
:104170002380FFF753F8002807D002F011FC01302C
:1041800000B202F0B3FB02F0A9FB0420FFF746F8EF
:10419000002807D1049B164A1B78126893428BD8DB
:1041A000FF2B89D0FF23049A0020137002F040F9FE
:1041B00002F084FB0123059A137007B0F0BDC046DE
:1041C00028B10000D40400102C01001028010010B8
:1041D000B204001068070010D50400105905001043
:1041E0007C070010700700107207001059BB000018
:1041F000D00400105DBB000061BB0000F62700107A
:1042000065BB000010B501000148FFF73BFF10BD82
:1042100012AA00000023F0B5614A8FB01370614A02
:10422000059112781F0003925F4A1C0012780D90CE
:104230000892023202926A460821525E04930B925F
:10424000012252420992594B1878002800D1A4E06B
:10425000302300220093110024331000FFF7CAFE20
:104260000028F0D00420FEF7D9FF002830D1053017
:10427000FEF7D4FF00282BD10630FEF7CFFF002831
:1042800026D1049B002B32D104210320FEF7D0FF5E
:10429000002803D0013464B202F020FB0421012085
:1042A000FEF7C6FF002803D0013C64B202F016FB03
:1042B000059B9C4204D0002C03DA5C1E64B200E033
:1042C0000024029A089B624306339B1A1FB214E033
:1042D000354B04201D78FEF7A1FF00285AD002F0CC
:1042E000EDFA0994059B6D425D43023D2FB2039B9D
:1042F000DB1B012B4CDD01230493002569462E00B6
:10430000039BDB19DA0FD3185B101AB20392284A09
:1043100089891580274A9BB21180274A0A93157014
:10432000264A029B128863430692254A023B128862
:1043300007920A9AD3181BB20C93059B9E4200D198
:1043400081E70A9B1B4A5B191380B4420CD10322FC
:10435000174B0C991A8000200B9B542200F0ECFFA5
:104360006B46197E187F02E06B46197F187E00F0BD
:1043700061FD0D9AB300D05801F02AFE6B46197FFB
:10438000187E00F057FD029B01365D19ADB2D4E7EF
:10439000099802E002F09AFAA4E70FB0F0BDC04617
:1043A000680700103401001059050010D5040010F2
:1043B0007C07001070070010280100102A0100106F
:1043C0007407001000236C4AF0B513704218013ACC
:1043D000137030221F008DB00A9224320992523A93
:1043E000059008910492039330230022009311005A
:1043F00024331000FFF7FEFD0028F5D00421032030
:10440000FEF716FF002805D0049B01335BB204932E
:1044100002F064FA04210120FEF70AFF002805D00B
:10442000049B013B5BB2049302F058FA0421022082
:10443000FEF7FEFE002805D0039B01335BB2039319
:1044400002F04CFA04210020FEF7F2FE002805D00D
:10445000039B013B5BB2039302F040FA039B102BDA
:1044600003D0002B03DA0F2300E000230393049B07
:10447000082B03D0002B03DA072300E0002304936A
:104480006B461D7B3D4B09991A786B461C7C3C4B57
:104490001B78DB436B4327335BB25B18D80FC31821
:1044A000D1435B1006936B4661431B7E891A5BB256
:1044B000099314310A9B49B2C918CB0F59184B10F4
:1044C00007936B461B7F04205BB20A93FEF7A6FEA0
:1044D00000281ED0089B013B9F420EDA24012D19B3
:1044E000EDB20D2D04D8274BEB40DB0700D57BE761
:1044F0000022059BDD55DB195A707B1C5FB202F070
:10450000DDF9089BBB4204DA6B46202200279B188A
:10451000DF570520FEF782FE00280AD07B1E5FB21F
:1045200002F0D4F900239F4202DB059AD35500E044
:104530001F000620FEF772FE002830D002F0BEF900
:10454000302300220093110024331000FFF752FDA6
:104550000028F5D00C4801F03BFD059801F02CFD3A
:104560000A4801F035FD0420FEF758FE00280FD060
:1045700002F0A4F90DB0F0BD680700105905001055
:10458000720700100124000069BB000076BB000028
:104590000520FEF743FE0028D2D002F097F9002450
:1045A0000026E4B22301DBB20B9367490798097830
:1045B000664D0131614309182878F3B201300B9A36
:1045C00058439A18069BD2B2C01849B240B2012390
:1045D000013601F037FC102EE7D10134E3B25CB2B2
:1045E000082BDDD16B4606241B8B644206932B7887
:1045F000069A6343023BD318554A564E13806B46C6
:104600009B8B55480793504B079A1B780133D3185F
:10461000338001F0D1FC2B78069A6343023BD31818
:104620004B4A4E481380484B079A1B7801335B0076
:10463000D318338001F0C0FC03222B7848485C4338
:10464000069B023C1C19424B1C803F4B1B780133DC
:104650005343079AD318338001F0AEFC002000F0DA
:10466000E1FB6B469E891C8A374B2878197801300C
:10467000013161437043079B02395918069B013889
:10468000181809B2072200B200F05DFD012000F009
:10469000C9FB2D4B28781978324A451E4B1D2A40FC
:1046A00004D50225013A6D422A43013201316143AA
:1046B000851C01307043079C03396118069C023841
:1046C00020180324521912B209B200B2009400F06B
:1046D00032FF2E231C4C542221780020591A00F05E
:1046E00032FD002000F09EFB2F22217800204B1C81
:1046F000511A253200F020FE0022154B01201A80AD
:1047000023783032D31A134A138000F08BFB0598BC
:1047100001F052FC144B1A6807231340032B00D9F5
:1047200062E6089B013B9F4200DB5DE63023217877
:104730005F22591A054B49B218780123784340B2D9
:1047400001F080FB50E6C0465905001072070010CA
:104750007C0700107007001087BB00008DBB0000B5
:1047600093BB000001000080D004001010B503F0DE
:10477000A9FD10BDF0B5060005A80025455F06A8F7
:104780000024045F07A80027C05F9219844608A888
:104790000027C75F002095420BDA6544AE4208DA75
:1047A0005B189C4205DA3C190123A14200DB031C83
:1047B000D8B2F0BD10B5024800F072FF10BDC0467F
:1047C000D804001010B5064904F082F9002398427D
:1047D00004D1044B1B78083B581E8341180010BDC0
:1047E000340500102001001070B50F4D06002B7825
:1047F0000C00102B0BD030002C70FDF7CBFB041EEF
:104800000DD13100094804F06DF920000AE0084894
:1048100007F0B6FD03000120002BECD002E00823D6
:1048200001202B7070BDC04620010010340500101F
:10483000EC0400101022054B1A7000231900044AE2
:10484000995401330F2BFBD17047C0462001001053
:104850003405001013B56B469C1D2200FDF7CAFB02
:10486000208816BD10B5074B002804DADA694142EA
:104870008A4200D25042DB69C018FDF71DFC024B92
:10488000187010BDEC0400104305001010B5002096
:10489000FDF712FC014B187010BDC0464305001017
:1048A000034B10B5186AFDF707FC024B187010BDDA
:1048B000EC04001043050010014BD8697047C04656
:1048C000EC0400100123812213B5074C5B420093D6
:1048D0005201064B06492000FDF7E6FD054A064950
:1048E0002000FDF73BFF13BD1C050010180C000055
:1048F000241200000001001099240000031C042869
:1049000000D90423014A13707047C04660050010A7
:1049100010B5002002F082FB0023024A1380024AF5
:10492000138010BD7C0700107007001010B502F056
:1049300075FB10BD064B10B51B880F2B04D8054C1A
:104940005B001B5B934201D002F0D4FC10BDC0465B
:10495000320100106405001013B504AC24880094E3
:1049600002F0F8FC13BD10B502F0B8FB10BDFFFF5C
:10497000024B1880024B19807047C0467C0700101C
:1049800070070010F0B58FB00B9114A909780A9048
:104990000891117805915178023209910092012B0A
:1049A00076D1059B0733DB100C936B461B8D079369
:1049B0000493002303936B460C21595E059B8B42A5
:1049C00000DCF0E00723CA171A405218D21053B285
:1049D0000A93764B0B4004D50822013B5242134305
:1049E000013380221BB21A416B469B8D0D920693B8
:1049F0000293002301936B4604229B5E099A934223
:104A00003EDA0C9A0A995343009A5218D35C0D9AD5
:104A10001A422DD0089B664C012B09D1069B0199A7
:104A200003985918079B2288181809B200B21DE094
:104A30006B461027DF5F6B4608269E5F2288310099
:104A40003800FFF777FF049B31005D1C2DB22288F0
:104A50002800FFF76FFF029B22885E1C36B23100F0
:104A60003800FFF767FF310028002288FFF762FF58
:104A7000019B01330193029B02339BB20293BAE77D
:104A8000039B01330393049B02339BB2049392E78D
:104A9000042B00D087E00023099A934200DB82E0D8
:104AA0009BB202936B469B8D00250793029B079A4E
:104AB0005B00D3189BB21AB201331BB204936B464E
:104AC0001B8D039206930193059BAB4267DD009B10
:104AD000384A1B7812681B115B009E5A089B022BF8
:104AE00019D1069B6C001C19A4B227B20134320004
:104AF0000399380024B2FFF71DFF3200039920000C
:104B0000FFF718FF320004992000FFF713FF32006F
:104B10000499380007E0029B079A99186B46320007
:104B20000420185E09B2FFF705FF0F22009B1B78D7
:104B30001340204A5B0012689E5A089B022B1AD130
:104B4000069B6C001C19A4B2A71C3FB203343200B0
:104B50000399380024B2FFF7EDFE320003992000DC
:104B6000FFF7E8FE320004992000FFF7E3FE320071
:104B70000499380007E0029B079A99183200019BBC
:104B800009B2581C00B2FFF7D5FE009B0235013375
:104B90000093019B2DB202339BB2019394E7029BD9
:104BA00001331BB278E70FB0F0BDC04607000080AC
:104BB000220100106C070010F0B51300574A8DB0A9
:104BC00014680F00627811000192F72208390A4038
:104BD000511E8A410199C9105218089208992278E9
:104BE0004A43511C4B431A00A2181279053352B2A2
:104BF000099282B20B9206920022E31805926A464D
:104C0000127D099952B2914200DC7CE008991A7831
:104C1000022903D00133079393B204E0991C5B7817
:104C200007911B02134300240293059B0B9A5B0020
:104C3000D3189BB21AB201331BB203920493019BA7
:104C4000A34257DD0122029B134217D0344B1B783D
:104C5000022B07D16500ED19ADB2324E2BB20A938B
:104C600032881AE06946304B18254D5F1A782D4B73
:104C7000002A01D01A882BE01A8830E02B4E2C4BEA
:104C800032881B8893422FD0254B1B78022B18D1DA
:104C90006500ED19ADB22BB20A93190003980135E6
:104CA000FFF748FE2DB232880A990498FFF742FEBA
:104CB000328829000398FFF73DFE328829000498C6
:104CC00010E06946184B18254D5F1B78002B06D065
:104CD000019B2900581EC019031B18B202E02800CE
:104CE000E11909B2FFF726FE029B01345B0802932B
:104CF00064B2A4E7059B01330593069B01339BB285
:104D00000693079B7BE700200A4B1856099BC018A7
:104D1000034B1B7858430DB0F0BDC0467807001018
:104D20002C01001022010010E4070010E60700101B
:104D3000320100102D010010F8B52649264F0978E0
:104D40003B88264CDAB2264E264D012903D1FE318E
:104D5000002B35D12FE0022907D103231A4011007F
:104D6000930019430A0111432AE0032923D1FC22AD
:104D7000023919405200002900D0FF21206803F0B9
:104D800077FD0223FC2220683988F9301940FF3072
:104D90005200002900D0FF2103F06AFD0423398866
:104DA000FC221940FC2320689B00C01852000029F7
:104DB00009D0FF2107E00F210B4011011943C9B2AF
:104DC00080222068920103F053FD002333802B8062
:104DD000F8BDC04627010010740700105C050010E4
:104DE0007C0700107007001010B5002805D1064B95
:104DF0001968064B186802F011FB054B1B78002B55
:104E000001D1FFF799FF10BD6C0700105C05001081
:104E10006807001010B5024801F07CF910BDC046CB
:104E2000CAB800000F231840014B18807047C046D5
:104E30002A0100100F23034A18401080024A0B4039
:104E4000138070472A010010740700101E4BF7B53D
:104E50001B88934236D01D4B1C7883B29C4231D9BB
:104E60001B4B1C788BB29C422CD90723CC172340B8
:104E700054245B18DB106343C018164B194004D54B
:104E8000082301395B42194301310124230009B28F
:104E90008B40FC215BB2DF43C9000F4D46180194E3
:104EA00001990A4204D129680C182178394003E09D
:104EB00029680C1821781943F930FF302170520805
:104EC000B042EDD1F7BDC0463201001030010010F4
:104ED00034010010070000805C050010F0B51300DD
:104EE000274A87B00490106805914778F722390067
:104EF00008390A40511E8A41F9105218029202994B
:104F000002784A43511C4B431A0082181279053328
:104F100052B203926A46158AC318049A0399AA1AD0
:104F200052B2914224DD029A1C78022A03D0013346
:104F30000193A4B204E09A1C5B7801921B021C430B
:104F40000026B74210DB059B28B2F11801231C4252
:104F500001D00C4B00E00C4B1A7809B20136FFF778
:104F600075FF640876B2ECE70135ADB2019BD4E77A
:104F70000020064B1856039BC01807B0F0BDC04672
:104F8000780700102A010010740700102D0100108E
:104F9000F0B5174B00221C7883B29C4225D9154BE3
:104FA0001C788BB29C4220D9134B07321C68CB175C
:104FB00013405B18DB104D32534318180F4B194048
:104FC00004D5082301395B42194301310025FC2334
:104FD0002A00012709B2DB002618765DF9350E415B
:104FE000FF353E4032439D42F6D11000F0BDC04631
:104FF00030010010340100105C0500100700008033
:10500000F7B5214B05001A7883B20C009A4239D9C2
:105010001E4B1A788BB29A4234D91D4B1B78FF2B4A
:1050200004D1FFF7B5FF43424341DBB20722E0174B
:1050300010400019C0104D32504316492818214025
:1050400003D501395C3A114301310124220009B230
:105050008A40FC2152B2D743C9000F4D4618019433
:1050600001990B4204D129680C182178394003E0DA
:1050700029680C1821781143F930FF3021705B0842
:105080008642EDD1F7BDC04630010010340100105A
:105090002A010010070000805C05001070B50F4B5E
:1050A00015001B788AB20600934202D8AAB2934236
:1050B00012D90B4B1A78B3B29A420DD9A94202DD2C
:1050C0000B0029001D000C00A54205DB21B23000B9
:1050D000FFF796FF0134F7E770BDC04634010010BA
:1050E0003001001070B50F4B16001B7882B20D0016
:1050F000934202D88AB2934212D90B4B1A78B3B2B8
:105100009A420DD9A84202DD030028001D000400C8
:10511000A54205DB20B23100FFF772FF0134F7E74B
:1051200070BDC046300100103401001010B5002AD7
:1051300004DA92B25118524209B212B28A1812B26B
:10514000FFF7ACFF10BD10B50B00002A04DA92B2D5
:105150001018524200B212B28218013A11B21A006B
:10516000FFF7C0FF10BDF8B5060014000F00CB1804
:105170001DB234192A0024B2FFF790FF2A0039002B
:105180002000FFF78BFF3A0030002100FFF7AAFF55
:105190002A0030002100FFF7A5FFF8BDF8B58218FE
:1051A000CB1805000C0012B21BB2002801DA002A4D
:1051B0002DDB174909788D4201DB914227DD002C58
:1051C00001DA002B23DB134909788C4201DB994279
:1051D0001DDD954202DC11002A000D009C4202DC1C
:1051E000190023000C00161C002A00DA002636B233
:1051F000191C002B00DA00210FB2AE4207DA300092
:10520000220039000136FFF749FF36B2F5E7F8BD55
:105210003001001034010010F0B5030085B0002803
:1052200079D03E4A1478A04201DB631E1BB23C4A8F
:105230001078042807D13B4A11785943CA0F5118F6
:10524000491089B20AE0022865D10321354A127853
:105250005A43D51729408A18921091B2324A1588BC
:105260000195324D2D8815802E4A002B28DD1278AD
:10527000E31AD508684300252E0002900393039B90
:105280009D4216DA891B89B233008C466146981B11
:1052900080B207000298591889B2874205DA244F74
:1052A000581C795CF95483B2F0E70135ADB21E00A9
:1052B000E5E7204923B20020095E12B2002024E075
:1052C0001278A4B25043C010029000209DB2039403
:1052D000039CAC4216D9401A80B20C00844660464A
:1052E000661AB6B23700029E001980B2B74205DADC
:1052F0000F4F661C385C3855B4B2F0E70135ADB2DB
:105300002100E5E70021080012B2FFF747FF6A46D7
:10531000054B92881A8005B0F0BDC04634010010DC
:1053200027010010300100102A010010740700103E
:10533000EB0700107007001010B5FFF72FFF10BD2E
:10534000F0B587B004936B46012400921B8802904D
:10535000E21AA3405B4212B21BB203910192059381
:10536000631E009A1BB29A4267DD019B002B0CDB87
:105370001300013B1BB20093059B02339BB21AB290
:105380000592019A9B181BB20193019A63000133A5
:105390009B1804221BB20193049B13420FD06B464F
:1053A0001F899D891E883819A91909B200B22D19C3
:1053B000BE19FFF725FE29B230B2FFF721FE022207
:1053C000049B13420FD06B461F899D891E88E019EC
:1053D000A91B09B200B2FFF713FEBE19291B09B2BF
:1053E00030B2FFF70DFE049B1B070FD56B461D89DE
:1053F0001F889E89E81BA11909B200B2FFF700FEC1
:10540000BE19281B31B200B2FFF7FAFD049BDB077F
:1054100002D40134A4B2A3E76B461D891F889E897C
:10542000E81B311B09B200B2FFF7EAFDF61B281B8F
:1054300031B200B2FFF7E4FDEBE707B0F0BDF0B525
:105440008BB01600089393B201220790D01A9340B4
:105450005B421BB206938BB20493013B9BB2029357
:1054600010AB1B8800B2059302339BB2019300235B
:10547000009003930992039BB3425ADA009B002BDE
:105480000ADB069B013E02339BB21AB20692009AD7
:1054900036B29B181BB20093039C009A0134A4B24D
:1054A00023B20393630001339B181BB20093099A44
:1054B000089B134217D06B46B5B29F8B059B6A00C1
:1054C0009A18049B3819591B12B209B200B2FFF79F
:1054D0002DFE6B4604229A5E6B467D190821595EAB
:1054E00028B2FFF723FE0222089B134208D1029B39
:1054F000013B9BB20293019B02339BB20193BAE73B
:105500006B46B7B29D8B059B7A009A18049B281BAB
:10551000D91B12B209B200B2FFF708FE6B46042293
:105520009A5E6B46ED1B0821595E28B2FFF7FEFD1F
:10553000DDE70BB0F0BDF0B587B01F000CAB002469
:105540001C5F01900E00012C03DC3B00FFF70BFEFB
:1055500055E06B469B88A1B202935B181BB2009387
:1055600093B203934B009BB20493049A039B3100C4
:105570009D1A2DB22A000098BFB2FFF7E4FDB6B223
:105580007B1EF3189BB205936B462A001421595ECB
:105590000098FFF7D8FDA3B29E19049B36B2FF1AFC
:1055A0003FB231003A000198FFF7C0FD039B310084
:1055B0005D1E029B3A005D19ADB228B2FFF7B6FD41
:1055C0003100012322000098FFF7BAFEA3B2ED1AC2
:1055D0002DB23100022322002800FFF7B1FE059B07
:1055E000A2B29E1A36B20423220031002800FFF72F
:1055F000A7FE0823220031000098FFF7A1FE07B0A4
:10560000F0BDF0B587B00C000CA900268E5F012E0E
:1056100003DC2100FFF7C2FD2DE0B7B281B292B2E8
:105620007D0004920291AAB2C919059209B20391B0
:10563000049A0599013B9DB2521A2BB2210012B275
:105640000398FFF7ABFD059B3C19ED1A049B24B2B0
:10565000581E029B2DB21818C01B00B20123320045
:1056600021000095FFF7EBFE009502233200210098
:105670000398FFF7E4FE07B0F0BDFFFF054B064AB5
:1056800018600378013313704378044A01331370B0
:105690007047C046780700107207001059050010C7
:1056A00070B5114A114B012405001A60FFF7B2FBD7
:1056B000DC220F4B0F481C700F4B1A800F4B2C3AFB
:1056C0001A80FFF7DBFF11220D4B28001A80002300
:1056D0000C4A13800C4A14700C4A13600C4A136075
:1056E00093611363936470BDEB0700105C050010B9
:1056F000E007001024AF0000620500107E070010D4
:1057000032010010740700106005001064070010DB
:1057100080070010F0B58FB000935B4204000D00CD
:105720001700994200DAE4E2D44B1A78914200DD86
:10573000DFE27B42984200DADBE2D14B1B789842F1
:1057400000DDD6E2CF490978012936D80026FB1DB5
:10575000DB10029331B2B94200DBCAE20723CA1759
:105760001A405218D3100393C74B0B4004D508229C
:10577000013B52421343013380221BB21A410023E2
:10578000049201936B4604229B5E009A934212DAC4
:10579000029A03995343149A5218D35C049A1A42FA
:1057A00006D0019BA019E91809B200B2FFF728FC46
:1057B000019B0133E5E70136CCE7022900D0BCE0CC
:1057C000B24B00229A5E002A6EDDB14B061C00210E
:1057D0005B5E81B20191984200DA1E1CA1B2761A7A
:1057E000AC49E4190020095E36B2CB18A34200DDB3
:1057F000230001995B1A1BB20393A74B00215B5E48
:10580000A9B20291291C9D4200DA191CA8B2091AFA
:1058100009B2049100999B186D18AB4200DD2B0072
:10582000029A9B1A1BB20093BB100593039B9E42E6
:1058300000DB5EE20322F31713409B19974C9B1089
:105840000693344004D50423013C5B421C430134DD
:10585000C02324B2640023410F275BB2049D079349
:10586000009B9D421DDA149B069A9A18059B6B4378
:10587000D35C079A13400622121B1341884A1188F1
:105880009AB291420AD0874A3B401380029B591931
:10589000019B09B2981900B2FFF7B2FB01352DB296
:1058A000DEE7013636B2C1E7BB1004930023019353
:1058B0006B4604229A5EBA4200DB1AE2774B134031
:1058C00004D50421013B49420B4301331BB25B0069
:1058D0000393C0230399D6170B415BB205930323AF
:1058E0001E40B618149BB6109B1900260293009A0E
:1058F00033B29A421EDD029B059A1B78039913402E
:105900000622521A1341664A11889AB291420AD06D
:105910000F221340634AA9191380019B09B2E018B2
:1059200000B2FFF76DFB049A029B94466344013674
:105930000293DCE7019B0133B9E7032974D1072205
:10594000FB1DDB100893009B0D927B43D917114080
:10595000CB18DB101BB20693009B0099DB1713409A
:105960005B18DB100993069B5B000A9300230193ED
:105970006B4604229B5EBB4200DBBAE10D99DA174D
:105980000A40D318DB100293029A0A9B94466344A0
:105990000B93ABB21E000C930C9B099AF31A1BB22B
:1059A0009A423DDB089A02995343149A0698D218FA
:1059B000515C0096039114990918CB1802995B5C0D
:1059C00004930B9BD35C0593330008339BB207937E
:1059D000049B04215A0002231A40059B9B000B40A4
:1059E0001A43012303990B401A434B080393049B6A
:1059F0005B080493059B5B0805936B460021595E89
:105A0000019B181900B2FFF721FA009B01339BB2EA
:105A10000093009A079B9342DAD10136B6B2BBE7F6
:105A2000019B01330193A3E7042900D0FCE0009916
:105A30006918002D08DA0AB200927A105543149AB8
:105A4000521B1492002506E08A4204DA009952188B
:105A5000521B12B20092002C26DAA2B264426410E9
:105A60005000D21917B222B20392149A02211219CD
:105A7000002408400290149204942BE0340100109A
:105A80003001001060050010070000802E0100109A
:105A9000E207001024010010E80700100300008056
:105AA000320100102A010010E21993420EDA02209E
:105AB0006100014002910121D21A21405210521876
:105AC00012B203921A1B049117B203E0002204924F
:105AD000039202925B106B4362109B18864A0F265A
