:1000000000800010FD0000008B0F00008D0F00002D
:1000100000000000000000000000000000000000E0
:100020000000000000000000000000008F0F000032
:100030000000000000000000910F0000F94C0000DB
:10004000890F0000890F0000890F0000890F000050
:10005000890F0000890F0000890F0000890F000040
:10006000890F0000890F0000890F0000890F000030
:10007000890F0000890F0000890F0000890F000020
:10008000890F0000890F0000890F0000890F000010
:10009000890F0000890F0000890F0000890F000000
:1000A000890F0000890F0000890F0000890F0000F0
:1000B000890F0000890F0000890F00000000000078
:1000C00068890000000100108400000068890000B9
:1000D00000000020000000006889000000400020AF
:1000E0000000000084010010144C000000000020FB
:1000F00000000000004000200000000010B5104C7F
:10010000104B9C4206D2A2686168206800F041FF53
:100110000C34F5E70C4B9C4205D26168206800F076
:1001200041FF0834F6E700F099FE084B002B02D09F
:1001300000E000BF03E005F055F800F010FDFEE719
:10014000C0000000E4000000FC000000000000000F
:1001500010B5064C2378002B07D1054B002B02D09D
:10016000044800E000BF0123237010BD840100108B
:100170000000000068890000084B10B5002B03D078
:100180000749084800E000BF07480368002B00D17A
:1001900010BD064B002BFBD09847F9E7000000008C
:1001A0008801001068890000840100100000000030
:1001B00010B502F0D3F802F05FF8002808D0002054
:1001C00002F0F2F90028F6D0024803F0BDF9F2E798
:1001D00010BDC046E86D000010B5024801F03AFCC1
:1001E00010BDC046A001001010B50100014800F08C
:1001F00015FD10BD5002001010B5FF21024800F09F
:100200000DFDC0B210BDC04650020010F8B543B29B
:1002100004000D00002B07DA00217720FFF7F6FF1E
:10022000012831D87F231C40A026882380279B01EA
:100230003606F750FFF7E0FF8A239B01F750FFF7E0
:10024000DBFF2000FFF7D0FF280EFFF7CDFF280CC3
:10025000C0B2FFF7C9FF280AC0B2FFF7C5FFE8B276
:10026000FFF7C2FF9520402C03D09438482C00D1D2
:100270008630FFF7B9FF0A24FFF7BEFF030603D558
:10028000013CE4B2002CF7D1F8BDFFFF73B5882321
:10029000A02480223F4D9B012406E25028003E49C5
:1002A00000F0B2FC28000022082100F0A1FC842309
:1002B00064259B01E358013DEDB2FFF79DFF002D42
:1002C000F9D129004020FFF7A1FF040001284BD1FC
:1002D000D52148204900FFF799FF012815D1FFF7E4
:1002E0008BFF01AC28550135042DF8D1A378012BE3
:1002F0003AD1E378AA2B37D1284D8021E920C905CE
:10030000FFF784FF011E11D115E02900E920FFF756
:100310007DFF4126012801D80224E926204D002135
:100320003000FFF773FF002820D116E0013DADB289
:10033000002D19D0E1E77A20FFF768FF002813D1DC
:100340000500FFF759FF60550135042DF9D12378D9
:100350000C245B060FD42C000DE080215020890076
:10036000FFF754FF002806D0002404E0013DADB2A1
:10037000002DF9D0D3E70B4BA0221C7088238021DD
:100380009B011206D150FFF737FF60426041C0B2B7
:1003900076BDC04650020010801A0600E02E000014
:1003A000A8610000A1010010F8B51D00244B070052
:1003B0001B7816001B0700D449025120FFF726FFC7
:1003C000002801D0012431E01E4CFFF715FFFF2863
:1003D00004D1013CA4B2002CF7D1F3E7FE28F1D1FF
:1003E000194C641BA41BA4B2002E07D1002F11D0FE
:1003F000013DADB201353E007D1904E0013EFFF73D
:10040000FBFEB6B2F0E7FFF7F7FE30700136B542FB
:10041000F9D105E0013DADB2FFF7EEFE002DF9D1B7
:10042000013CA4B2FFF7E8FE002CF9D18823A022FA
:1004300080219B011206D150FFF7DEFE2000F8BD9F
:10044000A10100103075000002020000064B1A687E
:10045000831ED168002002398B4203D25078434377
:10046000906918187047C046A40100100F4B10B5D2
:100470001A6800230380836804001800012B13D03E
:10048000D16801208B420FD2002B03D111780329B0
:1004900000D15369E360002B03D01800FFF7D6FFAB
:1004A00000E050692061002010BDC046A40100108A
:1004B000F0B5040085B0012854D92C4B1D68EB68B9
:1004C00098424FD22E78022E32D0032E38D0012EF1
:1004D00048D181B24B08C91889B24B0A0193244B09
:1004E000CA05D20D296903AF9A4204D0019B380096
:1004F000591802230EE0019B380059183300FFF70A
:1005000053FF021E2ED12969019B0131C918330006
:1005100002A80530FFF748FF002823D17B78387800
:100520001B0203431811E2071DD41805000D1AE041
:100530002B69C2B2010AC918520003AD330007E0AB
:100540007F22042329690240C4099200611803AD87
:100550002800FFF729FF002804D168782B780002D3
:10056000184300E0012005B0F0BDC046A401001012
:10057000FF01000070B5048805000134A4B2002C0E
:1005800001D1032322E00369002BFAD022071BD1FB
:1005900001330F4A0361C0681668002803D1B3888D
:1005A000A342EED910E073782209013B1A420BD125
:1005B000FFF77EFF0123984208D9F3689842E0D202
:1005C000E860FFF743FF286100232C80180070BD0E
:1005D000A4010010F7B504000D002B78202B01D1E9
:1005E0000135FAE72F3B5A4253410027ED18A76027
:1005F0002B78202B01D901972EE02000FFF736FF42
:10060000404B06001B689B681F7078E0009B1B78BE
:10061000002B68D00822009BDB7A13405BD1626814
:100620000099581CC95CD35C994254D103000B2833
:10063000F6D1D37A002B62D13B689868C37ADB0687
:1006400056D5437D017D1B020B43C27E1904837E78
:10065000120213430B43A3606068020003000B32D5
:10066000934203D100220821130013E020211970C6
:100670000133F5E72F2B12D02E2B3BD091420ED910
:100680001F00613F192F01D8203BDBB2571C835458
:10069000FAB233005E1CEB5CF6B2202BEAD8AD193F
:1006A0002026019A9E425241C2722000FFF7DEFED0
:1006B000061E16D1134F3B689B6800930F232288B8
:1006C00021691A40520111330098FFF76DFE00288E
:1006D0009CD0012613E02000FFF74CFF0028EDD04E
:1006E0000600032E0BD163680326DB7A002B06D1AC
:1006F000042604E00829D2D10A000331C9E73000FA
:10070000FEBDC046A401001070B5164B01001C6868
:1007100090B00620002C23D00023A3706B4608ADB8
:10072000A56003A80493FFF755FF002818D12B7884
:100730000330002B14D01023EE7A1E4010D16B7DB5
:10074000297D1B02EA7E0B431904AB7E1202134380
:100750000B4363620F9B300023620123E661A370A9
:1007600010B070BDA40100102F4BF7B51C6800231A
:1007700007000D000192138006209C4253D0A378FD
:100780000138DB074FD5236AE2699B1A8B4200D2FE
:100790009DB20097002D45D0E669F3051BD1700A84
:1007A000617804F03DFE00290BD1002E01D1606A72
:1007B00002E0A06AFFF77CFE01282FD90023A06287
:1007C000E370A06AFFF742FE002827D0E3785A1CA6
:1007D0001818E270E062E3692E1CDA058023D20D5E
:1007E0009B009B1A9BB29D4200D91E1CB6B2381EBC
:1007F00000D000983300E16AFFF7D6FD00280DD144
:10080000E369AD1B9B19E361009BADB29B1900939B
:10081000019B1B88F618019B1E80BBE7002301206B
:10082000A37000E02800FEBDA4010010294BF7B51D
:100830001C680623002C4AD0A278013BD20746D57B
:10084000256A854200D905000022E369E2619542EC
:1008500038D066787602002B12D03100681E5F1EF9
:1008600004F058FD31000190380004F053FD019B65
:10087000834205D373423B40E361ED1AA06A01E075
:10088000606AA062B5420CD9FFF712FE01281BD99D
:10089000E368984218D2E369A0629B19E361AD1B3B
:1008A000F0E7E3695B19E361FFF7D0FD00280BD0A7
:1008B0006B0ADAB2ED0501D1E27003E00132C31830
:1008C000E270E362002302E00023A370013318000A
:1008D000FEBDC046A401001030B5154B04001B68D6
:1008E0008DB00620002B20D004AD9D6001AB63606D
:1008F0002000FFF76FFE002815D12B78002B0FD0BA
:10090000EB7ADB0601D404200FE06B7D297D1B020E
:100910000B43EA7E1904AB7E120213430B43A36020
:100920002000FFF7A3FD0328EDD00DB030BDC04679
:10093000A401001010B513000A000100014800F0E6
:1009400003F810BDF56D00000FB404B07047FFFF51
:10095000036870B504000D00013304D12422064958
:100960000648FFF7E7FF6368002D01D0E26800E06A
:100970002269136070BDC046266E0000706E0000D4
:1009800070B50D000400160000F064FB6B1C07D06E
:100990000021200000F086FB3100200000F07CFBED
:1009A00070BD10B50122FFF7EBFF10BD70B50D0053
:1009B0000400160000F04EFB6B1C0BD03100200031
:1009C000FFF7C6FF0121200000F06CFB0021200092
:1009D00000F062FB70BD10B50022FFF7E7FF10BD0D
:1009E00010B50400034B083303601C3000F034FCE6
:1009F000200010BD886E000010B50400FFF7F0FF66
:100A0000200000F0D9FA200010BDFFFF70B50500EE
:100A100004000E4B0E00083308C5280018220021E0
:100A200004F010FC002320003100E36123626363C3
:100A3000A363E364064A23001C3000F0ABFB2800EC
:100A40003100FFF7AEFF200070BDC046886E000089
:100A5000AF0A000003000A0010B51C300121002A73
:100A600004D01A6200225A630132110000F008FC1F
:100A700010BD030010B50A001C30002903D000226D
:100A80009963DA640132022100F0FAFB10BD436978
:100A900010B50100002B04D10368002B06D0984745
:100AA00004E00068002801D00431984710BD10B55B
:100AB000012903D0022904D1383000E02030FFF7AB
:100AC000E6FF10BD10B50400431C12D00B685A1C81
:100AD0000CD09C4208D12000896800F0F7FB00216F
:100AE000200000F00FFC04E00C31EFE70148FFF7B5
:100AF0002BFF10BD986E000010B5030088420AD08D
:100B00000B00421C07D003004A1C04D00348FFF727
:100B10001BFF01235B42180010BDC046A96E0000F8
:100B20000B685A1C05D0834201D1486802E00C31A1
:100B3000F6E718007047FFFF10B50400431C07D00C
:100B4000FFF7EEFF0400431C02D10248FFF7FCFE52
:100B5000200010BDBA6E000070477047704710B596
:100B6000FFF7FCFFFFF7F9FFFFF722FB10BD70470F
:100B700010B5040000F020FA200010BD73B5040089
:100B80000E480025083020600820E0600C48261D33
:100B9000606106986560257225610090300000F064
:100BA000E9FC2B0030002269E16800F063FD3000B1
:100BB000616900F095FD200076BDC046F86E00002A
:100BC00040420F0070B5094D04002B6883420BD0E2
:100BD000061D0269C1680023300000F04BFD616909
:100BE000300000F07DFD2C6070BDC046A8010010F3
:100BF0000261002210B5034BC1601A60FFF7E2FFEB
:100C000010BDC046A8010010002210B5024B416182
:100C10001A60FFF7D7FF10BDA801001070B50D00D6
:100C20000400FFF7CFFF2900201D00F09DFD70BDDF
:100C300010B5040043684269991800F0BFF8E36AF0
:100C4000002B04D1A369002B07D0984705E0A069C9
:100C5000002802D021001C31984710BD10B50400B7
:100C600000F0B4F80023A361E36210BD10B50400E6
:100C7000044B08330360FFF7F1FF200000F0ACF8ED
:100C8000200010BD0C6F000010B50400FFF7EEFF50
:100C9000200000F091F9200010BD70B50D00040097
:100CA00000F094F86561206900F068F829182000C8
:100CB00000F084F870BD70B504000D0003681B6877
:100CC000984763681D6070BD036870B5DB680400F9
:100CD000984763685A682368002A02D19B6898473E
:100CE00013E05B681568984763682D1A5A68002DF1
:100CF00007DC916859601B68002BEAD05068984760
:100D0000E7E7236810681B69984770BD70B50D0050
:100D100072B64B60002346680A607468002C05D0E8
:100D20002168511A02D42300A468F7E7002B05D1EB
:100D3000036875601B691000984700E09D60AC6017
:100D400062B670BD10B572B6426853688B420CD162
:100D50009B6853600268002B02D1936898470BE0B0
:100D600012691868904707E01300002B04D09A68B6
:100D70009142F9D18A689A6062B610BD10B50368D5
:100D80005B68984710BD10B503689B68984710BD15
:100D9000084B10B508330360002343608360C360D1
:100DA000040000F025F804492061FFF784FF2000CB
:100DB00010BDC046206F0000870D000010B50A006E
:100DC0000300011D0069FFF7A1FF10BD10B5011D53
:100DD0000069FFF7B7FF10BD10B50400034B0833DF
:100DE0000360FFF7F3FF200010BDC046206F000036
:100DF00000487047486F000010B50248FFF764FFD5
:100E000010BDC046486F000070B5040000F0E8FC5B
:100E1000050000F0E5FC401BA042FAD370BDFA23A8
:100E200010B59B005843FFF7EFFF10BD70B50A4C9B
:100E3000A568A3682A00002B0AD180225E595205BA
:100E40009A1804331660C02BF7D180225205A26095
:100E500010308000815070BD00ED00E07FB5802033
:100E60003F494002CA6F8E240243CA6723220020F2
:100E700020253C4B3C499A60223A0A603B49A40039
:100E80000A60186219593A4A114001910199A9431F
:100E9000C825019101992D02294319510090354827
:100EA0000099814204D8C046009901310091F7E7CA
:100EB0000121002019645964586459645C6C294804
:100EC0000C42FBD08E218026C825890044582D0273
:100ED00014400394039C34430394039C2C434450D8
:100EE00023248460445822400292029CB44302941A
:100EF000029A2A4342500120DC681A490122044226
:100F0000FAD00320086700204A67486710004A6744
:100F10005C6F144A01210442FAD08E209167800050
:100F20001558154C2C4014501558144C2C40145086
:100F300000209164D164D064D164DA6C0A42FCD0A0
:100F40002321084A1161012259691142FCD0002273
:100F50000B4B1A601A600B4B01321A607FBDC04602
:100F60000480044000800440F0400440F440044009
:100F7000FF250000C3090000FFFBFFFFFFFEFFFF8E
:100F8000C0800440C8800440704770477047704775
:100F90007047002310B5934203D21C585C500433B1
:100FA000F9E710BD00231A008B4202D21A50043315
:100FB000FAE770470020704710B504F039F910BD0A
:100FC00010B50400431C04D11E2217491748FFF72F
:100FD000B1FC174B1A68002A06D101321A60154A73
:100FE0001549D36F0B43D3670122002C12D0134B4A
:100FF0009C420FD0124B9C420CD0124B9C4209D009
:10100000114B9C4206D0114B9C4203D0104BE1186F
:101010004A424A412000110000F058F90120A4047E
:10102000E40EA04010BDC046506F0000756E000079
:10103000B4010010048004404000010028140000A6
:101040002C16000030180000341A0000381C000074
:10105000C4E1FFFF70B505000C0029604B1C11D0E6
:101060000800FFF7ADFF2414074BA400E318EB6062
:10107000064B6860E3182B61054BE3186B61054B69
:10108000E418AC6070BDC046002200A0802200A021
:10109000002100A0002000A010B5006800F032F987
:1010A00010BDFFFF036870B504000D00013304D1CB
:1010B000432209490948FFF73DFC002D06D0012DC8
:1010C00009D1A268636811680B4303E0A2686168F4
:1010D00013688B43136070BD506F0000706E00008A
:1010E000F7B501210D008540134C636A2B4221D0D6
:1010F000124B8600F058019300281BD023682B4226
:1011000018D163682B4206D0E3692B4203D00C4B05
:101110001B689847E5612369074F2B4209D03B6A5A
:101120002B4206D0064B019A1B6802219059984722
:101130003D626562F7BDC046004000A0BC010010E2
:10114000B801001010B50020FFF7CAFF10BD10B5A0
:101150000120FFF7C5FF10BD10B50220FFF7C0FF4B
:1011600010BD10B50320FFF7BBFF10BD10B5042064
:10117000FFF7B6FF10BD10B50520FFF7B1FF10BD9A
:1011800010B50620FFF7ACFF10BD10B50720FFF724
:10119000A7FF10BDF7B505002748814202DD0120F9
:1011A000404248E02548264C026000208200165943
:1011B0000096002E3BD11351224C2860E36F224F42
:1011C000224E3B43E3671F248B0349120C40182136
:1011D000A44604009B0F59435E346144A400A1510E
:1011E00081210124890071589B000F00210081405A
:1011F0000F4339008127BF00F151A0218026090645
:101200005B18B60199592700019161468F400199F9
:1012100040B2B94399510E4BD158FFF707FE1F2238
:101220002B68009813409C400A4B1C6003E001307F
:101230000828BBD1B3E7FEBD13110200B8010010AE
:10124000BC010010048004408000090000800440BC
:10125000986F000000E100E000210368064A9B004F
:1012600010B59950012281210068044C8240890008
:1012700063589343635010BDBC01001000800440CC
:1012800003680120984070B50F4C2368034200D1D9
:101290006062C54326680C4B2E402660012909D1A7
:1012A000002A03D05A68104358600CE05A68154071
:1012B0005D6008E0002A03D01A691043186102E05B
:1012C0001A6915401D6170BD004000A070B5040092
:1012D0000D00431C04D1152207490848FFF72AFBDB
:1012E000074BE405E40DE418072322681D409A43E8
:1012F0001543256070BDC046B86F0000756E0000D4
:101300000040044070B504000D00431C05D11D22AF
:101310000F491048FFF70EFB06E081231B0198429E
:1013200014D00D4B984211D00C4BE405E40DE41899
:101330002368042D04D18022D2001343236005E0EA
:101340001822ED00934315401D43256070BDC04633
:10135000B86F0000756E0000140A000000400440E1
:1013600070B50C1C05000021201C04F099F9002820
:1013700009D1FE21201C890504F0A6F9002803D01C
:10138000FE24A40500E0002480232D689B00E8587B
:1013900005F00AF8211C04F003FD04F0A9F98123EB
:1013A0009B00E85070BD8023F7B5812704689B003F
:1013B000E258BF00E059E15001920D0004F0F4FF43
:1013C000061C019804F0F0FF011C301C04F01EFB09
:1013D000061C280004F0A0FF011C301C04F0E0FCF7
:1013E00004F086F9E051F7BDF7B50F00060050494B
:1013F0003800FFF7A1FBC3B20500FF2B02D14D4817
:10140000FFF7A2FA4C4B01211A7801931000084013
:10141000031E04D00A410B000A4200D081E00124DF
:1014200021009940019A4548127873600A43019956
:101430000A70434A99008A5809333260C26F11001A
:10144000802212061143C1672000984003003D4AE4
:1014500038005268364913433A4A5360FFF732FB6B
:101460003768394A3B68394913430C223B607B6833
:1014700013437B607A68364B13407B607B68019333
:10148000344B186803F046FFFE2301381B0140016E
:101490001840019B18437860E8B207281DD803F074
:1014A0002FFF040A1016040A1016A023DB00FC50BC
:1014B0000222294B10E0A123DB00FC500222274B23
:1014C0000AE0A223DB00FC500222254B04E0A32308
:1014D0000222DB00FC50234BFA508022C123520130
:1014E0009B00FA500123C0225B4292001E49BB5070
:1014F0000C32B950043ABB5080231C499B00F95070
:10150000FB58053A9B08FF3ABB5004227B68300029
:1015100093437B60FFF747FF30000021FFF720FF78
:10152000F7BD1348FFF710FA01235B4277E7C04687
:10153000007000006C700000DC01001004800440AA
:1015400098700000008004400100060040420F0037
:101550001FF0FFFF04010010040500000C0500004F
:10156000140500001C05000001100000204E0000C2
:1015700086700000F0B5334E87B000910400310052
:10158000009801920293FFF7D7FA2F4D0700290028
:101590000198FFF7D1FA2D4903900298FFF7CCFA92
:1015A0002B4904900C98FFF7C7FA0399059038006F
:1015B000FFF7A2FA059907000498FFF79DFA0100CA
:1015C0003800FFF799FA2060431C04D148222149D2
:1015D0002148FFF7AFF92368204A93420FD0204AF1
:1015E000934219D180201F49C002CB6F1E4A03438A
:1015F000CB6701211D4B1960536803310AE080203D
:1016000018490001CB6F184A0343CB670121184BDF
:10161000196053680B43536031000098FFF752FA8A
:1016200029000198FFF74EFA08490298FFF74AFA95
:101630000C9B013303D006490C98FFF743FA07B01F
:10164000F0BDC046E4710000A0700000DC70000036
:1016500020720000247100006A7100000000044044
:101660000080054004800440008004409C800440C9
:1016700094800440F8B50E000221140002681D0099
:10168000536807008B435360331F0C2B06D9032C80
:1016900004D9652210491148FFF74CF98023E00175
:1016A0000340013E1E43A30734003968DB0F0A687C
:1016B0009B01120C12041C4314430D220C604B6856
:1016C00093436A1E95410222AD001D434D604B6855
:1016D00013434B60F8BDC046247100007E710000CA
:1016E000F7B5022405000E0002685368A343536057
:1016F0001A4B1B6801932100019803F00BFE04F0C4
:101700000BFE071C300004F007FE011C381C04F01F
:101710007DF9FC21890504F003F805F0F3FA03F0E4
:10172000C9FC05F0B9FAFF280FDC2B680C4A1C61D4
:10173000196801380A4002211A601A680002104331
:1017400018605A680A435A6007E0802302345B003D
:101750009C42D0D10348FFF7F7F8F7BD0401001011
:10176000FF0000FFBC71000002220368D86810422D
:10177000FCD004229960D9681142FCD09868704767
:10178000104B70B51A68002A1AD1012580210E4A23
:101790001D60D36FC9000B43D3670C4B0C4C18680A
:1017A00002230C49636003F0B5FD0138E0600A498B
:1017B00065601320FFF73AFB8022084B12031A6082
:1017C00070BDC046E0010010048004400401001018
:1017D0000080014040420F00F90D000000E100E0F0
:1017E000044B10B51B68002B01D1FFF7C9FF024B5A
:1017F000986810BDE0010010008001400121034BFA
:1018000098615A690A435A617047C0460080014096
:101810000121024A53698B435361704700800140A4
:101820000122014B1A6070470080014070477047E9
:1018300070477047FF22014B1A707047E601001095
:1018400010B502F0FFFA10BD30B50023FF250A4C99
:101850000A4AE15C002902D0D15C013104E0D05C8D
:10186000002804D0FF2801D1D15400E0D554013321
:10187000072BEED130BDC046742A0010E9010010DC
:10188000034B185C013843425841C0B27047C04610
:10189000E9010010002210B51D4B19781A701D4A7D
:1018A0005078002801D001201870D078002803D08B
:1018B00002241878204318701078002803D00424DC
:1018C0001878204318709078002803D008241878DE
:1018D000204318701079002803D010241878204372
:1018E00018705079002803D02024187820431870ED
:1018F0009279002A03D040201A7802431A701B788C
:10190000054A180008409943044B1070197010BD27
:10191000E8010010742A0010F1010010F00100101D
:10192000014B18797047C046742A0010014B587853
:101930007047C046742A0010014BD8787047C046E3
:10194000742A00100023094A1380094A1370094AB7
:101950001370094A13700122084B52421A80084A38
:10196000084B1A600922084B1A707047F8010010E2
:10197000F701001000020010F2010010F401001045
:10198000287C0000FC010010F601001010B5024890
:10199000FFF7D8FF10BDC046F301001037B572B68F
:1019A00000210422244B802559601961234BED004E
:1019B0001A608E22224B92009C582C4380259C500A
:1019C0009C586D002C439C5001225A6714005967A3
:1019D00019004B6F1A4D01222340FAD114002B67D6
:1019E0006A676B674B6F164A2340FBD18E245364A2
:1019F000516CA40093601367536015591149294035
:101A00008025019101992943C825019101992D0251
:101A100029431151A02284211206890153500A49F9
:101A200053500A4953500A4B9860001C01688D4678
:101A30004068804737BDC046004000A010E000E08D
:101A400000800440FF250000042100000821000060
:101A500000ED00E07047FFFFF0B5C1B00E0000F0F0
:101A600039FE00F043FE8023DB029B1B04009842FA
:101A700000D91C0000F024FE8027134801F070FDFF
:101A800000257F00A5421CD280216846490000F055
:101A9000FBFDFF2804D8631BBB4201D90B4806E0BD
:101AA000A819694603F072F8002804D0084801F02C
:101AB00057FD012006E001350648FF3501F044FDE1
:101AC000E0E7002041B0F0BD927D00009E7D000067
:101AD000B97D00000B7E0000F7B501260024514BB4
:101AE000514D1E70514B1C80FC23DB002B8000F0FD
:101AF0001FFE2100200000F039FE300001F078FCCC
:101B00000094019406F00FFF0421494800F096FD6F
:101B1000A0420FD100F0DEFD0820404200F0BCFDE5
:101B20000421684600F0B0FD042101A800F0ACFDDE
:101B300000F0C6FD01273F4E7F423F4C2368B34271
:101B400000D03E4C2368B34200D03D4C2368B342E2
:101B500000D03C4C2368B34217D020233A485B4264
:101B60002B8001F0FDFC009B002B03D0374B019A2A
:101B70009A4240D8364801F0F3FC364801F0F0FCB8
:101B8000FC23DB002B80344820E0344B34482B808E
:101B900001F0DAFC0A2160682F8001F058FD6368CB
:101BA000009A934227D3A068FFF7F8FE17E0FFF7EB
:101BB000C3FE002834D1FFF7B9FE0028F7D0019901
:101BC0000098FFF749FF002826D0264801F0C8FCFE
:101BD00005E0FFF75FFEFFF7A3FE002804D1FFF743
:101BE0009FFE0028F5D01BE0FFF79AFE002817D0D3
:101BF000FFF750FEF8E71C4B1C482B8001F0A4FCBB
:101C000000980A212F8001F022FDFC231848DB00F8
:101C10002B8001F0A5FCCEE7164801F0A1FC8CE773
:101C2000F7BDC046120100100A0100109C280010E8
:101C30007F7E00001EAB07B0F4FF030004FF03002B
:101C400004FE030004F00300877E0000FF7F030012
:101C50009B7E0000256E0000B27E0000FF070000A2
:101C6000CD7E0000D77E00001FF8FFFFFD7E000044
:101C7000117F0000F37E0000F8B50024012001F080
:101C8000B7FB454BFC271C8000F052FD434D444BF5
:101C900044482B8001F04CFB0123434E302133702C
:101CA000424BFF001C70424B60201C702F8001F0E3
:101CB0005DFC404801F048FC3821602001F056FCF2
:101CC0003D4801F041FC4021602001F04FFC3B48C1
:101CD00001F03AFC4821602001F048FC384801F04E
:101CE00033FC6021282001F041FC364801F02CFC37
:101CF000013C35482C8001F027FC34482F8001F04E
:101D000023FC02232C80337003F00EF8043485B2D8
:101D1000FFF7C0FD7821682001F028FC0A2120008F
:101D200001F078FC03F000F8FA239B00EB189842CE
:101D300003D902F0F9FF013C85B202F0FBF800285C
:101D400008D002F0F7F8041E02D0FFF7A3FDF8E771
:101D5000FFF7C2FE02F0E2F8002807D002F0DEF83A
:101D6000002802D0FFF796FDF8E7040002F0DCF847
:101D7000002802D1002CCBD106E002F0D5F80028D3
:101D800002D0FFF787FDF8E70123337000F0D0FCA5
:101D9000002001F02DFBF8BD9C2800100A01001066
:101DA00000F8FFFFC47800001201001013010010BA
:101DB0000C010010367F00003B7F0000407F0000D8
:101DC000457F00004A7F0000507F0000547F0000E4
:101DD000F0B5714C1E0023888BB005000F000492F3
:101DE0000993002E06D00020322300901A00010033
:101DF00000F0B0FCFC23DB002380002E16D001F0A5
:101E0000EFFA0400012001F0F3FA01F0A9FF390014
:101E100002001439681EC9B2C0B20A2301F0FEFBE9
:101E20005E4801F091FB200001F0E2FA049B0B2BCD
:101E300002DC5B4A584B1A803BB203930123594C96
:101E4000009328B22200039900F09AFC049B172B00
:101E500002DC534B504A1380ABB21D0001260835FB
:101E60002DB205932200330003992800009600F05C
:101E700087FCBBB20693043B1BB20793009633006A
:101E800022000799280000F07BFC049B2F2B01DD2A
:101E9000454B00E0424B0124059D424E3E4A103521
:101EA0002DB213800399230032002800009400F023
:101EB00067FC2300320007992800009400F060FCC2
:101EC000069B0094083B1BB208933200230008993C
:101ED000280000F055FC049B5F2B02DC304A2E4B9F
:101EE0001A800124059D2F4F18352DB223003A008A
:101EF00003992800009400F043FC23003A0007995E
:101F00002800009400F03CFC23003A0008992800C7
:101F1000009400F035FC069E23000C3E36B200947F
:101F20003A003100280000F02BFC049B9F2B02DCC0
:101F30001B4A194B1A800125059C1A4F203424B2E4
:101F40002B003A0003992000009500F019FC2B00AB
:101F50003A0007992000009500F012FC2B003A008F
:101F600008992000009500F00BFC2B003A0031008E
:101F70002000009500F004FC06992B0010393A006F
:101F800009B20095200000F0FBFB6A46024B928CE0
:101F90001A800BB0F0BDC0460A010010E37F0000BC
:101FA0008A520000A085000000F8FFFFF7B5002569
:101FB0000126012001F01CFA8A4B20201D7001F03F
:101FC0009FFE01F0CDFE04F0EFF9874B041C1D705D
:101FD0003500864B1B78002B00D101E1002D00D18C
:101FE000FEE0012D00D095E0814D002E36D0012776
:101FF00000F09EFB7F42102120202F8000F0B6FBD6
:102000007C4801F0A1FA9921282000F0AFFB7A4822
:1020100001F09AFAFC237948DB002B8001F094FA56
:1020200077482F8001F090FAFC235821DB00002034
:102030002B8000F09BFB734801F092FA724F38003E
:1020400001F08EFA380001F08BFA380001F088FABE
:10205000380001F085FA6D4801F082FA99213020AC
:1020600000F084FB01F07CFE252802DC01235B42AA
:1020700000E0674B2B800223664A00933021013B2E
:10208000A42000F07DFB3621182000F06FFB624891
:1020900001F05AFA4221182000F068FB01F060FEBE
:1020A000282801DD5D4800E05D48FC2701F04CFA7E
:1020B0000223FF005B4A2F8060210093A420013B94
:1020C00000F05EFB6621182000F050FB564801F03E
:1020D0003BFA7221182000F049FB01F041FE25284F
:1020E00002DD4B4B2B8000E02F8001F039FE0A21EE
:1020F00001F090FA4D4801F027FAFC23DB002B8019
:1021000001F02EFE0023020076217020FFF760FE12
:1021100002255EE7022D00D060E7FFF7BBFB01F070
:10212000FDFE002808D001F0F9FE002801D10500CD
:102130004FE7FFF7AFFBF6E701F008FF00282CD0D0
:102140008421201CC90503F0C9FA002807D03849AA
:10215000201C03F0A5FA002808D0364909E08421A4
:10216000201CC90503F0BAFA002801D0324900E06A
:102170003249201C03F0D4FA3149041C03F0A4FABC
:10218000002802D0FF2001F0BBFD2E49201C03F0E7
:102190009BFA00281BD02B4C19E001F0D1FE00283F
:1021A00000D116E72449201C03F00EFF8421C90545
:1021B000041C03F07FFA002802D0202001F0A0FDCB
:1021C0000021201C03F06CFA002800D00024201C01
:1021D00004F080F800B201F075FD00260125F8E654
:1021E000F7BDC046130100100B02001009020010D9
:1021F0000A0100105F7F0000787E0000737F0000FE
:10220000757F0000807F00009B7F0000B67F00008C
:1022100000F8FFFF5C850000337E0000D17F0000E6
:10222000DB7F00007E850000E67F0000E37F00008A
:1022300000000442CDCC4C3C0000A03F00002040F8
:102240000000504200007F43012210B5084B0020DF
:102250001A7001F0CDF8074801F06AF802F054FD59
:1022600002F06AFD01F0EEFD02F064FD10BDC04613
:10227000090200105C720000014B18787047C046DC
:1022800009020010F7B50024FC2725005826FF009E
:10229000292D48D802F048FD234B1A689042F7D9FF
:1022A0001E301860012D0BD0002D02D0022D22D03F
:1022B00035E01E4B28001D8000F048FA01252EE075
:1022C000FC21E2B2C900002001F0EEF9184B194AD6
:1022D00018806E2351781078490840081C34181A69
:1022E000711A00952B00A4B200F04AFAFE2C16D900
:1022F0000024022513E00E4B0E4A1F806E23107837
:1023000051784008181A49086D3B0093711A00F083
:1023100037FA3F34084BA4B29C4200D9FF25FFF79F
:10232000FFFA0028B4D0F7BD884D00109C2800109B
:102330000A01001052800000FF03000010B52020A9
:1023400001F0DEFC1022034B1A80034BEF321A70AF
:1023500010BDC046CA28001008020010F8B5FFF7EB
:1023600073FF32220124FF252B4B1A702B4B1C606C
:102370002B4B1D70FFF7E2FFFFF758FA28000025EE
:10238000FFF755FAFFF75CFAFFF75EFAFFF751FA2D
:1023900000F0E7F9FFF776FF200001F029F8214F60
:1023A0003D8000F0C5F9204E300000F0C1FF200054
:1023B00001F01EF8FC221D4BD2001A803D8000F077
:1023C000B7F9300000F0B4FF194F1A4E3D70347069
:1023D000FFF752FCFFF7EAFD01F0A6FC280001F030
:1023E00007F8154B15481C70154B3C701C70347069
:1023F00000F09EFF01F0D0F9FFF71CFA0520FFF76F
:102400003FFAA84203D10F4B1B78AB4202D1002008
:1024100001F058FCF8BDC0460A020010100200107E
:10242000080200109C280010C47800000A01001067
:10243000130100100C010010120100106075000063
:102440000E010010E6010010F8B5274D274C0023BF
:10245000EE5E0023E75E264B00211A78DD239B1AEF
:102460002B80244B21801B78042B2FD8180002F0DE
:1024700047FF031B2525250001F0CBFA0020FFF7BD
:10248000D6F900F041FB01221B4B1C481A7001F0E9
:102490005BF81B4B0A21188801F0BCF8194801F0C1
:1024A00053F800F061FB18E0174B00211A680F2366
:1024B00007201340072B0ED978200CE0134A12781E
:1024C000002A0AD00533D8B2002104E00F4B1B7854
:1024D000002B02D02F2001F099F8FF231E401F404F
:1024E0002E802780F8BDC046942800109A2800103E
:1024F0008D280010E601001012010010F17F00008D
:10250000E4010010FE7F000004020010E70100104B
:10251000F0B51F4B85B01A780393002A36D00024FB
:102520000B2A02D80C239C1AE4B20127194B002075
:10253000AD251F7000F034FB0322174EA4B2317892
:102540000020CB1C691A61180092513200F0B3FED2
:10255000380000F025FB032231780020CB1C691ADB
:1025600061180092513200F040FE04220B4B1A8099
:102570003378E41A0A4BAF341C800A4B186800F019
:10258000E3FF039B039A1B78013B137005B0F0BD7A
:102590001C020010120100108C280010942800105A
:1025A0009A28001014020010F8B5070001F0AAF8EC
:1025B0001A4D2C6802F0B8FB194E201A3378194CCA
:1025C000984202D92368002B14D12368002B0FD125
:1025D00001F01AFA01F07CFA01F06EFBFFF798FFA8
:1025E000FFF732FF002F01D100F0BEFA0123236074
:1025F000002011E002F098FB0B4A3378181813689A
:1026000028600133136000232360FFF711F9FFF7FF
:102610001BF9FFF70FF90120F8BDC04618020010A2
:102620000A020010100200100402001010B5024847
:1026300000F090FE10BDC0460C02001070B50F4DAA
:1026400006002B780C00102B0BD030002C70FEF7FE
:102650005BF8041E0DD13100094802F047FE20004E
:102660000AE0084806F09EF803000120002BECD099
:1026700002E0082301202B7070BDC0460801001045
:10268000680200102002001013B56B469C1D22004A
:10269000FEF76AF8208816BD10B5074B002804DA4B
:1026A000DA6941428A4200D25042DB69C018FEF723
:1026B000BDF8024B187010BD200200107702001008
:1026C00010B50020FEF7B2F8014B187010BDC046DF
:1026D00077020010034B10B5186AFEF7A7F8024BFB
:1026E000187010BD2002001077020010014BD8694D
:1026F0007047C046200200100123812213B5074C09
:102700005B4200935201064B06492000FEF736FA61
:10271000054A06492000FEF74DFC13BD500200108B
:10272000180C000024120000000100106F0B0000C4
:1027300010B5002001F004FD0023024A1380024A74
:10274000138010BD942800109A28001010B501F0D5
:10275000F7FC10BD13B504AC2488009401F090FE82
:1027600013BD10B501F04EFD10BDFFFF024B1880E8
:10277000024B19807047C046942800109A28001018
:10278000F0B58FB00B9114A909780A9008911178CF
:1027900005915178023209910092012B76D1059B67
:1027A0000733DB100C936B461B8D079304930023B8
:1027B00003936B460C21595E059B8B4200DCF0E0D5
:1027C0000723CA171A405218D21053B20A93764BF5
:1027D0000B4004D50822013B5242134301338022AF
:1027E0001BB21A416B469B8D0D92069302930023F8
:1027F00001936B4604229B5E099A93423EDA0C9A3F
:102800000A995343009A5218D35C0D9A1A422DD05C
:10281000089B664C012B09D1069B01990398591816
:10282000079B2288181809B200B21DE06B461027DA
:10283000DF5F6B4608269E5F22883100380001F07A
:10284000EDFD049B31005D1C2DB22288280001F0B3
:10285000E5FD029B22885E1C36B23100380001F093
:10286000DDFD31002800228801F0D8FD019B0133F5
:102870000193029B02339BB20293BAE7039B01339D
:102880000393049B02339BB2049392E7042B00D082
:1028900087E00023099A934200DB82E09BB2029317
:1028A0006B469B8D00250793029B079A5B00D3180C
:1028B0009BB21AB201331BB204936B461B8D039279
:1028C00006930193059BAB4267DD009B384A1B785A
:1028D00012681B115B009E5A089B022B19D1069BA4
:1028E0006C001C19A4B227B20134320003993800DD
:1028F00024B201F093FD32000399200001F08EFD17
:1029000032000499200001F089FD3200049938005A
:1029100007E0029B079A99186B4632000420185E64
:1029200009B201F07BFD0F22009B1B781340204A67
:102930005B0012689E5A089B022B1AD1069B6C0002
:102940001C19A4B2A71C3FB203343200039938000B
:1029500024B201F063FD32000399200001F05EFD16
:1029600032000499200001F059FD3200049938002A
:1029700007E0029B079A99183200019B09B2581C84
:1029800000B201F04BFD009B023501330093019B27
:102990002DB202339BB2019394E7029B01331BB229
:1029A00078E70FB0F0BDC046070000800A010010B4
:1029B00088280010F0B513004D4A8DB00B901068B8
:1029C0000491427811000592F72208390A40511EFD
:1029D0008A410599C91052180992099902784A4307
:1029E000511C4B431A0082181279053352B20A92D5
:1029F0000022C31803926A46127B0A9952B291428E
:102A00006BDD09991A78022903D00133089393B238
:102A100004E0991C5B7808911B02134300936B46FA
:102A20009B89002506936B469B8D0793069B079A0F
:102A30005B00D3189BB21AB201331BB2019202930E
:102A4000059BAB4244DD0122009B13420ED0294B73
:102A50001B78022B07D1049B6C00E418264EA4B20D
:102A600027B2328811E0244B1A8822E0234E244BEF
:102A700032881B88934225D01E4B1B78022B18D11D
:102A8000049B6C00E418A4B227B239000198013409
:102A900001F0C4FC24B232883900029801F0BEFC77
:102AA00032882100019801F0B9FC32882100029897
:102AB00006E0049B0798E918069B09B2181800B2B3
:102AC00001F0ACFC009B01355B0800936DB2B7E7E9
:102AD000039B01330393089B8DE70020094B185695
:102AE0000A9BC018034B1B7858430DB0F0BDC0467D
:102AF00090280010120100100A0100109C280010FC
:102B0000160100101301001010B5114B1888114B5D
:102B1000C2B21B78012B03D1FF21002808D00CE0A2
:102B2000022B05D101331A4011009300194302E032
:102B30000F231A4011000B011943074B074A18686D
:102B400002F080FB0023064A1380064A138010BD62
:102B50008E2800100D01001080280010D0250000E4
:102B6000942800109A280010064B10B51968064BDF
:102B7000186801F0E9FC054B1B78002B01D1FFF729
:102B8000C3FF10BD88280010802800108428001082
:102B900010B5024800F072FD10BDC046627D000015
:102BA00003231840014B18807047C04610010010E5
:102BB0001B4B10B51B88934230D01A4B1C7883B244
:102BC0009C422BD9184B89B21B788B4226D90F23F4
:102BD000134001D003231340A4104C43134A811027
:102BE00064181168A4B2091903240A782040A0428D
:102BF00001D1824304E0022804D10A3082439B00C1
:102C000013430AE0012803D12F3082431B01F7E769
:102C10003F209B0102401343DBB20B7010BDC04646
:102C20001601001014010010180100108028001077
:102C3000F0B51300274A87B00490106805914778D3
:102C4000F722390008390A40511E8A41F9105218FA
:102C50000292029902784A43511C4B431A0082188F
:102C60001279053352B203926A46158AC318049A40
:102C70000399AA1A52B2914224DD029A1C78022AC0
:102C800003D001330193A4B204E09A1C5B78019253
:102C90001B021C430026B74210DB059B28B2F1182B
:102CA00001231C4201D00C4B00E00C4B1A7809B2F6
:102CB0000136FFF77DFF640876B2ECE70135ADB26F
:102CC000019BD4E70020064B1856039BC01807B0A1
:102CD000F0BDC04690280010100100108E28001092
:102CE00013010010184B82B21B7893422BD9174A5C
:102CF00089B212788A4226D99B104B43144A81101C
:102D00005B18116803229BB2C91810400B78114A56
:102D1000032803D112788343134313E0022803D11D
:102D200012880A30920004E0012805D112882F3061
:102D300012018343134304E010883F2280011340B3
:102D40000343DBB20B707047140100101801001030
:102D5000802800101001001070B50F4B15001B7873
:102D60008AB20600934202D8AAB2934212D90B4B00
:102D70001A78B3B29A420DD9A94202DD0B0029009C
:102D80001D000C00A54205DB21B23000FFF7AAFFB1
:102D90000134F7E770BDC04618010010140100109F
:102DA00070B50F4B16001B7882B20D00934202D80B
:102DB0008AB2934212D90B4B1A78B3B29A420DD908
:102DC000A84202DD030028001D000400A54205DB27
:102DD00020B23100FFF786FF0134F7E770BDC0462F
:102DE000140100101801001010B5002A04DA92B284
:102DF0005118524209B212B28A1812B2FFF7ACFF50
:102E000010BD10B50B00002A04DA92B2101852421D
:102E100000B212B28218013A11B21A00FFF7C0FFD5
:102E200010BDF8B5060014000F00CB181DB2341900
:102E30002A0024B2FFF790FF2A0039002000FFF794
:102E40008BFF3A0030002100FFF7AAFF2A00300074
:102E50002100FFF7A5FFF8BDF8B58218CB180500D3
:102E60000C0012B21BB2002801DA002A2DDB174930
:102E700009788D4201DB914227DD002C01DA002B1D
:102E800023DB134909788C4201DB99421DDD954211
:102E900002DC11002A000D009C4202DC1900230014
:102EA0000C00161C002A00DA002636B2191C002B72
:102EB00000DA00210FB2AE4207DA300022003900FA
:102EC0000136FFF749FF36B2F5E7F8BD14010010EF
:102ED00018010010F0B5030085B0002879D03E4AF3
:102EE0001478A04201DB631E1BB23C4A1078042810
:102EF00007D13B4A11785943CA0F5118491089B27A
:102F00000AE0022865D10321354A12785A43D517C1
:102F100029408A18921091B2324A15880195324D93
:102F20002D8815802E4A002B28DD1278E31AD5084B
:102F3000684300252E0002900393039B9D4216DAFE
:102F4000891B89B233008C466146981B80B207000A
:102F50000298591889B2874205DA244F581C795CC7
:102F6000F95483B2F0E70135ADB21E00E5E7204920
:102F700023B20020095E12B2002024E01278A4B22D
:102F80005043C010029000209DB20394039CAC42B9
:102F900016D9401A80B20C0084466046661AB6B252
:102FA0003700029E001980B2B74205DA0F4F661C47
:102FB000385C3855B4B2F0E70135ADB22100E5E731
:102FC0000021080012B2FFF747FF6A46054B9288BE
:102FD0001A8005B0F0BDC046180100100D010010A8
:102FE00014010010100100108E2800108D02001036
:102FF0009A280010F0B587B004936B460124009224
:103000001B880290E21AA3405B4212B21BB20391EA
:1030100001920593631E009A1BB29A4267DD019BE1
:10302000002B0CDB1300013B1BB20093059B02330A
:103030009BB21AB20592019A9B181BB20193019A96
:10304000630001339B1804221BB20193049B1342BB
:103050000FD06B461F899D891E883819A91909B29E
:1030600000B22D19BE19FFF73DFE29B230B2FFF7AD
:1030700039FE0222049B13420FD06B461F899D89A3
:103080001E88E019A91B09B200B2FFF72BFEBE197A
:10309000291B09B230B2FFF725FE049B1B070FD591
:1030A0006B461D891F889E89E81BA11909B200B2D1
:1030B000FFF718FEBE19281B31B200B2FFF712FE4F
:1030C000049BDB0702D40134A4B2A3E76B461D893D
:1030D0001F889E89E81B311B09B200B2FFF702FE70
:1030E000F61B281B31B200B2FFF7FCFDEBE707B07F
:1030F000F0BDF0B58BB01600089393B20122079093
:10310000D01A93405B421BB206938BB20493013BEF
:103110009BB2029310AB1B8800B2059302339BB2A3
:1031200001930023009003930992039BB3425ADA60
:10313000009B002B0ADB069B013E02339BB21AB2B6
:103140000692009A36B29B181BB20093039C009A19
:103150000134A4B223B20393630001339B181BB262
:103160000093099A089B134217D06B46B5B29F8B08
:10317000059B6A009A18049B3819591B12B209B2B0
:1031800000B2FFF731FE6B4604229A5E6B467D1952
:103190000821595E28B2FFF727FE0222089B13423E
:1031A00008D1029B013B9BB20293019B02339BB26D
:1031B0000193BAE76B46B7B29D8B059B7A009A18CC
:1031C000049B281BD91B12B209B200B2FFF70CFEF8
:1031D0006B4604229A5E6B46ED1B0821595E28B2AD
:1031E000FFF702FEDDE70BB0F0BDF0B587B01F00C2
:1031F0000CAB00241C5F01900E00012C03DC3B0093
:10320000FFF70FFE55E06B469B88A1B202935B1857
:103210001BB2009393B203934B009BB20493049AA6
:10322000039B31009D1A2DB22A000098BFB2FFF710
:10323000E8FDB6B27B1EF3189BB205936B462A00DD
:103240001421595E0098FFF7DCFDA3B29E19049B80
:1032500036B2FF1A3FB231003A000198FFF7C4FDC1
:10326000039B31005D1E029B3A005D19ADB228B28E
:10327000FFF7BAFD3100012322000098FFF7BAFEE4
:10328000A3B2ED1A2DB23100022322002800FFF76D
:10329000B1FE059BA2B29E1A36B204232200310071
:1032A0002800FFF7A7FE0823220031000098FFF74F
:1032B000A1FE07B0F0BDF0B587B00C000CA9002648
:1032C0008E5F012E03DC2100FFF7C6FD2DE0B7B2B3
:1032D00081B292B27D0004920291AAB2C9190592FC
:1032E00009B20391049A0599013B9DB2521A2BB27F
:1032F000210012B20398FFF7AFFD059B3C19ED1AB0
:10330000049B24B2581E029B2DB21818C01B00B299
:103310000123320021000095FFF7EBFE0095022308
:10332000320021000398FFF7E4FE07B0F0BDFFFF75
:10333000054B064A18600378013313704378044A3A
:10334000013313707047C046902800108D2800107C
:103350008C2800100E4A0F4B10B504001A60FFF7BE
:1033600017FC01220C4B0D481A700D4BDB321A80F2
:103370000C4B2C3A1A80FFF7DBFF11220A4B20007E
:103380001A800022094B1A80094B02321A7010BDB4
:103390008D020010802800109E2800105C72000032
:1033A0005E28001096280010160100108E280010CC
:1033B0005D28001010B5084B09B21B6800B29B785D
:1033C000D21A064BD2B21B78002B02D0FFF7F2FACA
:1033D00001E0FFF72DFC10BD902800109E28001082
:1033E000024B1878431E9841C0B270479E280010C7
:1033F00009490A4A0A4B002805D001200870DC213F
:103400001180B02205E00870064909781180064A4B
:1034100012781A807047C0469E2800105E2800105F
:1034200096280010140100101801001010B50B4C64
:103430000B490023E25E0B4B09881B685B78580040
:10344000091A0948007840B28A4203DDC018FFF724
:1034500041FD02E0C3189B18238010BD9A2800107C
:1034600096280010902800100C01001070B52B4B0E
:1034700004001A68D378002B03D0602801D9203CBF
:10348000E4B20E2C21D8200001F03AFF461F1F1F86
:103490001F1F1F1F0E1F081F1F1B46000022204B4F
:1034A0001A80FFF7C3FF37E01D4910780B882022F0
:1034B000181A1C4B80B208801978C0B2FFF77AFF47
:1034C0002AE00022164B1A8026E0154D12780023C0
:1034D000E85E154B1B889B1A98420BDB00232B8060
:1034E000124B1B78002B17D0FFF7A0FF0D4B28784D
:1034F000197802E00B4BC0B219782200FFF75AFF8F
:10350000202C06D10A4B1B785BB2002B01D0401057
:1035100001302B881818288070BDC04690280010F4
:10352000942800109A2800105E2800100E01001048
:103530001301001010B504002078002803D00134D6
:10354000FFF794FFF8E710BD10B5FFF7F3FF10BDCC
:1035500010B50D20FFF78AFF0A20FFF787FF10BD87
:1035600010B5FFF7E7FFFFF7F3FF10BD024B188020
:10357000024B19807047C046942800109A2800100A
:103580000023F0B5050089B00E00984203D1302029
:10359000FFF76CFF1CE05C1C28006B4431001F002F
:1035A00001F03EFF28003970310001F0B3FE230026
:1035B000051EF0D16B46013C1B5D18003730C0B2D0
:1035C000092B01D83033D8B2FFF750FF002CF1D1CE
:1035D00009B0F0BD10B5041E03DA2D20FFF746FF39
:1035E00064420A212000FFF7CBFF10BD10B500296F
:1035F00003D1C0B2FFF73AFF07E00A2902D1FFF773
:10360000E9FF02E0C9B2FFF7BBFF10BD10B5FFF73D
:10361000EDFF10BD10B5FFF7E9FF10BD10B5044C6C
:1036200020800448018019001000FFF7DFFF10BD63
:10363000942800109A28001010B5002903D1C0B2B8
:10364000FFF714FF02E0C9B2FFF79AFF10BD10B5F3
:10365000FFF7F2FFFFF77CFF10BDFFFF10B5024838
:10366000FEF7F8F910BDC0469828001089104901EE
:10367000D210C0100A43C0021043704770B5040056
:103680000025074EA27861782078FFF7EFFF6B00E6
:103690000135F0520334102DF4D1024B1E6070BD81
:1036A000602800108828001070B51F2405002540F0
:1036B0000C40641B23B253431B12EB183F254411EB
:1036C0004E112C40C00A3540C9122D1B091A554312
:1036D0004A4312122D1280181BB26419021C0028D2
:1036E00000DA002212B2D202181C002B00DA0020ED
:1036F0001043231C002C00DA00231BB25B0118438B
:1037000080B270BD70B51A4B1A4C196822681E0041
:10371000194D91421DD02368002B03D180211748F9
:1037200009010DE02368012B03D180211448090110
:1037300006E08021236809011248022B00D01248BC
:10374000FEF7A2FF80222368120133602B689B18CA
:103750002B600E4B0E4A1B6A9B182A68934205D2B7
:1037600000242C60FEF7ACFF0A4B1C7070BDC046F5
:10377000002D0010782C00103C4D00103545001035
:10378000352D001035350010353D00102002001099
:1037900000F8FFFFE42C001010B501F073F90120D0
:1037A00001F092F810BDFFFF00B5002B3CD10428BA
:1037B0003AD801F0A5FD030E242B3200002349B2B4
:1037C000994204DB0B1C0A2900DD0A23DBB2174AED
:1037D00013E0174B89001B68164ACB581648136034
:1037E0001B88164A11781A004A43D2B202701B1283
:1037F000934200DD13004B43114A137014E00F4B4A
:103800001B7859430F4B19700F4B0CE00B4B1B7877
:1038100059430E4B19700E4B05E0084B1B7859436A
:103820000C4B19700C4B1A7000BDC046DC28001000
:10383000D8280010BC280010C8280010A4280010A8
:10384000A5280010D0280010A0280010DD280010A6
:10385000B8280010D2280010A1280010002A11D189
:10386000094B1870094B1B785943094B1970094BC8
:1038700009491A70094B1A8001230B7008490B7013
:10388000084B1A707047C046A7280010A4280010E3
:10389000B5280010C5280010A3280010DE2800104D
:1038A000A2280010A828001010B500240D4B1B788A
:1038B000A34201D00C4B1C780C4B1B78002B0AD078
:1038C0000B4B187802F070FD0A4902F09FF8011CBA
:1038D0000948FDF745FD200001F010F8074B1C805A
:1038E00010BDC046A2280010C6280010364D00109A
:1038F000CC28001000007F43DC2C0010384D001055
:1039000010B500280FD1084B1870084B1870084BE1
:103910001880084B1870084B1870084B1870084B2B
:103920001870FFF7C1FF10BDA3280010B5280010C4
:10393000DE280010A8280010C6280010C928001092
:10394000A228001010B5041E03D1FFF7D9FF014BC8
:103950001C7010BD9F28001070B505000C1E12D100
:103960000800FFF7EFFF0122074B1D60074B1C808B
:10397000074B1A70074B08321A70074B1C70074B25
:103980001C70074B1C7070BDB0280010B6280010CA
:103990009F280010DC280010D0280010DD2800101F
:1039A000D228001010B500281FD1104A1378002B20
:1039B0001BD00F4B1978002917D10E4C0E482378D5
:1039C00000685B001B5A0D48834201D111700CE066
:1039D0000B4A181210700B4ADBB212689B00985801
:1039E000FFF7BAFF23780133237010BDAC28001015
:1039F0009F280010CE280010D4280010FFFF0000E0
:103A0000CD280010C028001010B50020FFF7CAFF15
:103A100010BD10B50020FFF795FF10BDF8B50028C8
:103A200048D1254A1378002B44D0244B1B78002B17
:103A300040D1234C234D238828685B00195A002964
:103A400012D1214B1B78002B02D0218001880BE082
:103A50001E4B11701878002809D00800FFF7A2FF4C
:103A600023882A685B00995A01271F2602E0FFF786
:103A700047FF1FE00A008B103A4013D08811C9128B
:103A80000A0001000F20103A52B2314018400023C2
:103A9000FFF78AFE23882A6801339BB223805B00EC
:103AA000995AE7E73F20090A1840FFF7D7FE238815
:103AB00001332380F8BDC0469F280010B5280010B0
:103AC000B6280010B0280010A9280010AC2800105B
:103AD00010B50020FFF7A2FF10BDFFFFF7B50028CB
:103AE00000D0ABE0564B1B78002B00D1A6E0554B25
:103AF0001878002802D1FFF703FF9FE0524C0138ED
:103B000018702378002B26D1504D51482B885A1C11
:103B1000504B51001B68CB5A0721194001704E4988
:103B2000981208704D4899050078890E41431B078B
:103B300021704B49DB0F0B7093B24A4A2B801278ED
:103B4000934208D3484B1878002802D0121A2A80D2
:103B500001E0FFF7D5FE2378013B2370434B444C33
:103B60001D7801356DB21D70424B1B7801933A4BA5
:103B70001E78019B9E19404B1B78F6183F4BF6B2FE
:103B800019782670002907D0280001F04DFC3C4B25
:103B90001B7858433618267020782421243001F0F1
:103BA00029FD002721700E000021364B364CDF57CF
:103BB000364B27705956002907D0280001F034FCF5
:103BC000334B1B7858433F182770324B1978002924
:103BD00010D0280001F028FC2F4B184004D50223F8
:103BE00001385B42184301302C4B1B785843237833
:103BF000C0182070019B3F2B0AD02278131C52B2B0
:103C0000092A01DD092304E01A0602D5002300E099
:103C100000232370224B9A5D224B1A700C4A2378A2
:103C200012785343204A12785A43204B1B885B1169
:103C300053431F4ADBB213701E4A1370F7BDC046D0
:103C4000A3280010B5280010C5280010DE28001099
:103C5000B4280010BC280010D1280010A42800109F
:103C6000CF280010C8280010A5280010A828001090
:103C7000C7280010A7280010CD280010DD2800104C
:103C8000B8280010DC280010AA280010D028001046
:103C9000A0280010D228001001000080A1280010E8
:103CA000A6850000AB280010A6280010CA28001026
:103CB000C9280010C628001010B50020FFF70EFF1D
:103CC00010BDFFFF10B5031C002800DA00230A4ACC
:103CD0001BB21288934200DD13B2084A1380DA0F38
:103CE000D3185B100A3B1BB2181C002B00DA002013
:103CF000C0B200F0BDFD10BD1A010010CA280010AE
:103D000010B5002803DBFF2802DDFF2000E00020C3
:103D1000034B1880034B0020185EFFF7D3FF10BD44
:103D20001A010010CA280010054B10B51888202869
:103D300001D9103000E0083000B2FFF7C3FF10BD1A
:103D4000CA280010054B10B51888202801D9203842
:103D500000E0083800B2FFF7B5FF10BDCA28001018
:103D6000014B18887047C046CA28001010B5024899
:103D7000FDF770FE10BDC046C42800100122014BA3
:103D80001A717047742A00100022014B1A71704793
:103D9000742A00100122014B5A717047742A0010D6
:103DA0000022014B5A717047742A00100122014B06
:103DB0009A717047742A00100022014B9A71704763
:103DC000742A00100122014B5A707047742A0010A7
:103DD0000022014B5A707047742A00100122014BD7
:103DE000DA707047742A00100022014BDA707047B5
:103DF000742A00100022014B9A707047742A001038
:103E00000022014B1A707047742A001010B5054B40
:103E10009A79002A02D0FFF787FF01E001229A7009
:103E200010BDC046742A001010B5054B9A79002ABF
:103E300002D0FFF787FF01E001221A7010BDC046D3
:103E4000742A001010B5204C20492000FCF711FE08
:103E500020001F49FCF7FEFD1E4C1F492000FCF707
:103E600008FE20001D49FCF7F5FD1D4C1D492000F2
:103E7000FCF7FFFD20001C49FCF7ECFD1B4C1C4926
:103E80002000FCF7F6FD20001A49FCF7E3FD1A4C70
:103E90001A492000FCF7EDFD20001949FCF7DAFD76
:103EA000184C19492000FCF7E4FD20001749FCF7E5
:103EB000D1FD174C17492000FCF7DBFD1649200007
:103EC000FCF7C8FD10BDC0467C2A0010893D0000EB
:103ED0007D3D0000CC2A0010A13D0000953D000072
:103EE000E0280010B93D0000AD3D0000242A00107C
:103EF000D13D0000C53D000030290010E93D000023
:103F0000DD3D000084290010013E0000293E000034
:103F1000D4290010F53D00000D3E0000014B18793A
:103F20007047C046742A0010014B58797047C0464C
:103F3000742A0010014B98797047C046742A00100B
:103F4000014B18787047C046742A0010014B9878CE
:103F50007047C046742A001070B52648FFF7FAF97A
:103F6000254E26493000FCF751FD254D254C2A00F1
:103F700021003000FDF71EF8234E24493000FCF7E5
:103F800045FD2A0021003000FDF714F8204E21499C
:103F90003000FCF73BFD2A0021003000FDF70AF855
:103FA0001D4E1E493000FCF731FD2A002100300073
:103FB000FDF700F81A4E1B493000FCF727FD2A00D8
:103FC00021003000FCF7F6FF174E18493000FCF7CF
:103FD0001DFD2A0021003000FCF7ECFF144E1549AE
:103FE0003000FCF713FD2A0030002100FCF7E2FF4F
:103FF00070BDC046802900107C2A00108412010088
:1040000000010010E1090000CC2A00107008010036
:10401000E028001088140100242A0010941A0100DE
:10402000302900106C06010084290010C432010000
:10403000D42900107C0E0100074B1A8882420AD056
:104040001880A023054A06491B0699500549C0005F
:1040500058500021995070471C2B001088200000F8
:104060000700F8FF8821000070B58A23A0240422ED
:1040700024069B01E2508023064D5B046351FFF749
:10408000DBFF8023044A5B01A350C046C046635156
:1040900070BDC046042200008422000070B5882351
:1040A000A024042224069B01E2508023064D5B04D9
:1040B0006351FFF7C1FF8023044A5B01A350C04650
:1040C000C046635170BDC046042200008422000037
:1040D00010B504002020FFF7C7FF0020FFF7DEFF28
:1040E0002120FFF7C1FFA0B2FFF7D8FF2220FFF782
:1040F000BBFFA023882204211B0692019950802136
:10410000034A4904995080214901995010BDC04685
:104110000422000010B5074C07492000FDF764F9A0
:1041200020000521FDF73FF904492000FDF718F9AB
:1041300010BDC046202B0010FC0402009A99993E45
:1041400010B504002020FFF78FFF0020FFF7A6FF27
:104150002120FFF789FF0020FFF7A0FF2220FFF7B3
:1041600083FF2000FFF768FFA023882204211B069D
:10417000920199508021084A4904995080210748AA
:104180004901074C99501951C046C0460138995011
:104190000028F8D110BDC04604220000409700005E
:1041A0008422000010B52020FFF75EFF0020FFF7FB
:1041B00075FF2120FFF758FF0020FFF76FFF222037
:1041C000FFF752FF0020FFF737FFA02388220421CA
:1041D0001B06920199508021074A49049950802179
:1041E00006484901064C99501951C046C04601384D
:1041F00099500028F8D110BD04220000409700001B
:104200008422000070B5A0250124784E2D06FFF70A
:1042100081FFAC510A20FCF702FE754B0A20EC50DE
:10422000FCF7FDFDAC510A20FCF7F9FD2000FFF77B
:104230001BFF8E204000FFF731FF0220FFF714FF25
:1042400080204000FFF72AFF0320FFF70DFF694899
:10425000FFF724FF0820FFF707FF6748FFF71EFF5F
:104260000C20FFF701FF0020FFF718FF0F20FFF7DA
:10427000FBFE2000FFF712FF2020FFF7F5FE0020D5
:10428000FFF70CFF2120FFF7EFFE0020FFF706FFEE
:104290001020FFF7E9FE0020FFF700FF1120FFF7D5
:1042A000E3FE80204001FFF7F9FE0A20FCF7B7FD8E
:1042B0003020FFF7D9FE0020FFF7F0FE3120FFF796
:1042C000D3FEDB20FFF7EAFE3220FFF7CDFE002011
:1042D000FFF7E4FE3320FFF7C7FE0020FFF7DEFE06
:1042E0003420FFF7C1FEDB20FFF7D8FE3520FFF7B3
:1042F000BBFE0020FFF7D2FE3620FFF7B5FEAF2051
:10430000FFF7CCFE3720FFF7AFFE0020FFF7C6FE19
:104310003820FFF7A9FEDB20FFF7C0FE3920FFF7AA
:10432000A3FE0020FFF7BAFE0A20FCF778FDFF206D
:10433000FFF79AFE0320FFF7B1FE5020FFF794FE2F
:104340002E48FFF7ABFE5120FFF78EFE2C48FFF7FB
:10435000A5FE5220FFF788FE2A4D0520FFF79EFE9E
:104360005320FFF781FE2800FFF798FE5420FFF747
:104370007BFE2548FFF792FE5520FFF775FE234C84
:104380000320FFF78BFE5620FFF76EFE2000FFF79D
:1043900085FE5720FFF768FE1D48FFF77FFE582077
:1043A000FFF762FE2800FFF779FE5920FFF75CFE59
:1043B0002000FFF773FEB020FFF756FE1548FFF709
:1043C0006DFEFF20FFF750FE0020FFF767FE07207D
:1043D000FFF74AFE1048FFF761FEC820FCF71FFDFB
:1043E0002220FFF741FEFFF7DDFE70BD0422000032
:1043F00084220000301000000808000003020000C2
:10440000090A000021100000020600000307000056
:10441000070500000125000017100000F8B584B260
:104420001500DB2C26D88EB2AF2E23D82020FFF724
:104430001BFE3000FFF732FE2120FFF715FE2000A3
:10444000FFF72CFE2220FFF70FFEA0248823042272
:1044500024069B01E25080278023074E5B047F01E6
:10446000A3512800A751FFF7E7FD044BE750C046D2
:10447000C046A751F8BDC0460422000084220000B7
:10448000F0B587B01C000CAB1B880493904202DD92
:10449000030010001A00A14202DD0B0021001C00E5
:1044A000DC284BDCB02949DC131CDC2A00DDDC23D2
:1044B0001BB20393B02C00DDDC24061C002800DABC
:1044C000002636B20B1C002900DA0023A0251BB2FF
:1044D00002932D06039B9E4230DC2020FFF7C4FD93
:1044E0006B461889FFF7DAFD2120FFF7BDFDB3B257
:1044F00018000193FFF7D2FD2220FFF7B5FD8822B7
:1045000004239201AB50802780220D4B52047F017F
:10451000029EEA50EF500593B4420BDD0498FFF77A
:104520008BFD084BEF50C046C046059B0136EF504F
:1045300036B2F1E7019E013636B2CBE707B0F0BDE7
:104540000422000084220000F0B5BC4C8025A54464
:10455000049000200391A024FFF7BAFD0023240655
:1045600002936D01029B9A10049B9A185EAB009314
:10457000B34B0099D318019303239C460F00137883
:10458000613FFF3F059703989F117F003F5A0598B1
:104590001E1107806046064003987600365A604632
:1045A0000E800E009F1007407800039F6136C05BAD
:1045B000FF3630806646B02033405B00DB5B800016
:1045C00008180380019B373202319A42D6D1022368
:1045D00006AA9B180193019B9A4F023B1888FFF78C
:1045E0002BFDE551C046C046974E019BA55118884A
:1045F000FFF722FDE551C046C046019BA5515888F2
:10460000FFF71AFDE551C046C046019BA5519888A9
:10461000FFF712FDE551C046C046019BA551D88861
:10462000FFF70AFDE551C046C046019BA551188918
:10463000FFF702FDE551C046C046019BA5515889D0
:10464000FFF7FAFCE551C046C046019BA551988989
:10465000FFF7F2FCE551C046C046019BA55110335F
:104660000193B12306AA5B009B18019A9342B2D131
:10467000B6AB0193009B1888FFF7DEFCE551C046FE
:10468000C046009BA5515888FFF7D6FCE551C046AF
:10469000C046009BA5519888FFF7CEFCE551C04667
:1046A000C046009BA551D888FFF7C6FCE551C0461F
:1046B000C046009BA5511889FFF7BEFCE551C046D6
:1046C000C046009BA5515889FFF7B6FCE551C0468E
:1046D000C046009BA5519889FFF7AEFCE551C04646
:1046E000C046009BA551D889FFF7A6FCE551C046FE
:1046F000C046009BA55110330093009A019B934242
:10470000B8D1FFAB3C330093019B1888FFF794FCB2
:10471000E551C046C046019BA5515888FFF78CFC67
:10472000E551C046C046019BA5519888FFF784FC1F
:10473000E551C046C046019BA551D888FFF77CFCD7
:10474000E551C046C046019BA5511889FFF774FC8E
:10475000E551C046C046019BA5515889FFF76CFC46
:10476000E551C046C046019BA5519889FFF764FCFE
:10477000E551C046C046019BA551D889FFF75CFCB6
:10478000E551C046C046019BA55110330193019AE3
:10479000009B9342B8D1009B1888FFF74DFCE55170
:1047A000C046C046009BA5515888FFF745FCE5511F
:1047B000C046C046009BA5519888FFF73DFCE551D7
:1047C000C046C046009BA551D888FFF735FCE5518F
:1047D000C046C046009BA5511889FFF72DFCE55146
:1047E000C046C046009BA5515889FFF725FCE551FE
:1047F000C046C046009BA5519889FFF71DFCE551B6
:10480000C046C046009BA551D889FFF715FCE5516D
:10481000C046C046009BA55110330093B02306AAA2
:10482000DB009B18009A9342B5D1029B043302939C
:10483000DC2B00D096E6054B9D4409E064FAFFFFAF
:10484000D025000084220000042200009C05000006
:10485000F0BDC04670B504000D001822002100F024
:10486000F1FC29002000FCF7B6F8200070BDFFFF26
:104870007F23812110B50A4C8EB018402070094A60
:104880000901684600F09AFB22785E21684600F034
:10489000E0FB2478684600F0DBFB20000EB010BD82
:1048A000354D0010140A0000002210B5044B1020F2
:1048B0001A70044B01321A70FFF7DAFF10BDC046C0
:1048C000354D0010404D001070B5094C05002368AF
:1048D000013304D1242207490748FCF72BF8002DA7
:1048E00001D0E36800E0236962681A6070BDC046C9
:1048F000E82C0010266E0000706E0000A0228021BF
:10490000030012064905D80701D5284800E02848C9
:104910001150A02280215B1012068905D80701D50D
:10492000224800E022481150A02280215B1012068C
:10493000C905D80701D51D4800E01D481150A02227
:1049400080215B1012060906D80701D5174800E040
:1049500017481150A02280215B1012064903D80786
:1049600001D5144800E014481150A02280215B10AA
:1049700012068903D80701D50E4800E00E481150F1
:10498000A02280215B101206C903D80701D509486F
:1049900000E00948115080215B100904002B01D070
:1049A000044B00E0044BD1507047C0460422000085
:1049B00084220000082200008822000070B5244BE9
:1049C00000241A7801231340224A234D1370A34276
:1049D00028D000262149224A0B68581C08601B7801
:1049E0009657DBB2A64203D00322921B1341DCB2DE
:1049F0001C4A2C701368984211D31B4B1868013065
:104A000018601868042801D1002018601B68174836
:104A1000DB02C3180B60802109015B181360287842
:104A2000FFF76CFF200001F0BFFC114900F0EEFF22
:104A3000011C1048FCF794FC2B780F4A1C190F4BF3
:104A400064101C801378591C11700D4AD45470BD29
:104A5000E42C0010364D0010342D0010402B0010B7
:104A60001C0100105C2C0010782C0010352D00105B
:104A700000007F43DC2C00105C4D0010384D00100E
:104A8000442B001010B50C4C0C492000FCF7ACFC7A
:104A900020001F21FCF787FC20000949FCF760FC7F
:104AA0000848094B5A2183610023C362FCF7F5F8DB
:104AB000FFF7FAFE10BDC046DC2C001040270200B4
:104AC000CDCCCC3D042D0010BD49000010B5194CD3
:104AD0002000FCF75DF9184B184A236000231849A1
:104AE000A361E3622000FCF765FA16491648FFF758
:104AF000B1FE16491648FFF7ADFE16491648FFF7F6
:104B0000A9FE16491648FFF7A5FE16491648FFF7F5
:104B1000A1FE16491648FFF79DFE16491648FFF7F5
:104B200099FE16491648FFF795FE16491648FFF7F5
:104B300091FE10BD042D0010146F00000001001044
:104B40006D0C0000D0380100442C0010D43A010054
:104B5000444D0010D83C0100602C0010DC3E0100E8
:104B6000282B0010442902007C2C0010482B020046
:104B7000942C00104C2D0200AC2C0010502F020081
:104B8000C42C0010A4220100E82C0010F0B585B060
:104B90000600029172B64D4B984202D8050B2B03CA
:104BA00013E04B4B1C2598420CD84A4B013D9842D0
:104BB00008D8494B013D984204D8484D8542AD4143
:104BC0006D421835464BEB189B039B1B59425941CC
:104BD000CBB201933223434C434F23606560434B78
:104BE000A560390020009847404A3B680392002B9B
:104BF00001D0012068E0E4229202964260D1019B3C
:104C0000002B3BD0012301933423FA212360384B3E
:104C1000890018686560A56000F07CFB324FE06099
:104C2000324B3900200098473B68002BE1D13233EA
:104C3000236065602D4BA5603900200098473B68D4
:104C4000002BD6D1019B002B18D133232360029B6C
:104C5000FA21A36080235B00E360254B890018687C
:104C6000666000F057FB204D2061290020001F4B9B
:104C7000984728680028BCD162B625E03B23236012
:104C8000E023FA219B0063601A4B8900A360184B54
:104C9000186800F03FFB144FE060144B390020000F
:104CA00098473B68002BA4D13233236065600F4BDB
:104CB000A5603900200098473B68002BC5D098E7D5
:104CC000019A002AC1D09EE705B0F0BDFF7F010028
:104CD000FF7F0300FFFF0200FF7F0200FFFF0100D4
:104CE000EEFF0300604D0010744D0010F11FFF1F18
:104CF00004010010FF030000024A13680A33136026
:104D00007047C046844D0010044B054A07215A6085
:104D100000229A601960034B1A60704710E000E0AF
:104D2000FF520700844D0010014B18687047C046C1
:104D3000844D00107047FFFFA023802104201B0634
:104D400089015A5810B5024380205A50294A40011F
:104D500099580143802099509958400401430120FB
:104D60009950995801439950234924485A5802436D
:104D70005A5023480021FCF7C5FA00212148FCF7CE
:104D8000C1FA00212048FCF7BDFA00211F48FCF7BA
:104D9000B9FA00211E48FCF7B5FA00211D48FCF7BE
:104DA000B1FA00211C48FCF7ADFA00211B48FCF7C2
:104DB000A9FA00211A48FCF7A5FA00211948FCF7C6
:104DC000A1FA00211848FCF79DFA00211748FCF7CA
:104DD00099FA00211648FCF795FA00211548FCF7CE
:104DE00091FA00211448FCF78DFA00211348FCF7D2
:104DF00089FA10BD0420000008200000F8FF070019
:104E00000007020004090200080B02000C0D02005A
:104E1000100F020014110200181302001C150200EA
:104E20002017020024190200281B02002C1D02007A
:104E3000301F020034210200382302003C2502000A
:104E4000036870B504000D00013304D12422064923
:104E50000648FBF76FFD6368002D01D0E26800E0B3
:104E60002269136070BDC046266E0000706E00009F
:104E7000036810B50400013304D12C22054906480B
:104E8000FBF758FD636960681B681840431E984132
:104E900010BDC046266E0000706E000010B50121E6
:104EA000FCF700F910BD70B504002500FFF7F6FF10
:104EB0001835606BFBF7A8FF28000121FFF7C0FF42
:104EC00001212000FFF7BCFF606BFBF79DFF002175
:104ED0002000FFF7B5FF606BFBF796FF280000216D
:104EE000FFF7AEFF606BFBF78FFF70BD10B50400DE
:104EF000FFF7D4FF606BFBF787FF00212000FFF76F
:104F00009FFF606BFBF780FF200001211830FFF747
:104F100097FF606BFBF778FF01212000FFF790FF00
:104F200010BDF8B504000F000825FFF7B7FF606B50
:104F3000FBF76AFF0121013DA9402600394020000E
:104F40001836FFF77DFF01213000FFF779FF606B16
:104F5000FBF75AFF00213000FFF772FF002DE6D16A
:104F600001212000FFF76CFFF8BD70B5040025009B
:104F7000FFF794FF183501212000FFF761FF0121A1
:104F80002800FFF75DFF00212000FCF78BF80421CB
:104F90002000FCF781F8606BFBF736FF002128004A
:104FA000FFF74EFF2000FFF763FF0023984203D175
:104FB000606BFBF729FF0123180070BDF8B51826B8
:104FC00004000D0017000021320000F03BF9290019
:104FD0002000A519FBF7E5FC32002800002100F0B5
:104FE00031F939002800FBF7DCFC2800FFF756FFF9
:104FF00028000421FCF750F82000FFF74FFF0421A0
:105000002000FCF749F823000026012730331E70EA
:1050100028006763FFF742FF2000FFF73FFF3900DA
:105020002000FFF70DFF31002800FFF709FF606B3C
:10503000FBF7EAFE2000FFF759FF2000FFF756FFBD
:105040002000FFF753FF2000FFF750FF2000F8BDBE
:10505000704770B50D0016000400FFF724FF012310
:10506000290020009943FFF75CFF2000FFF77DFF38
:1050700031002000FFF755FF2000FFF776FF2000EA
:10508000FFF734FF70BDFFFF10B5064B06481978D7
:1050900000F0CAF9054B186039235843044B1880B7
:1050A00010BDC0461D010010983A0000904D001040
:1050B0008C4D0010454AF8B5564692464B005B0DA4
:1050C0009A444D465F4644465246F0B48946050030
:1050D0000C000E000700132A22DC002A47DB524690
:1050E0003B4B134198460B0042461340034311D0FB
:1050F000384A394B01F096F90022002300F0AAFA51
:10510000002805D0002C41DB4E46434600279E4335
:10511000380031003CBC90469946A246AB46F8BDEB
:105120005246332A08DD8023DB009A45F2D1020083
:105130000B0001F077F9EDE7284A94460122634419
:105140005242DA4093460242E4D0224A224B01F016
:1051500069F90022002300F07DFA0028D8D0002C45
:105160001ADB5B464E469F4338003100D2E7194AAE
:10517000194B01F057F90022002300F06BFA0028C8
:10518000C6D0002C16DB00270026C1E7802352463C
:105190005B0313419944B7E75346142B12D03423D1
:1051A000524601279B1A9F407F19AF429B415B42A9
:1051B0009944D6E76400640825430027002DA7D052
:1051C000074EA5E7133B9C46E144CAE701FCFFFFFD
:1051D000FFFF0F009C7500883CE4377EEDFBFFFF6E
:1051E0000000F0BF0E4B70B500251E000D4CE41AF8
:1051F000A410A54204D0AB00F35898470135F8E756
:1052000003F074FA084B00251E00084CE41AA410A1
:10521000A54204D0AB00F35898470135F8E770BDBC
:10522000F8860000F8860000F8860000208700005D
:1052300010B5034B0100186800F00CF810BDC04613
:105240008001001003008218934202D019700133CC
:10525000FAE7704770B50500002944D00C1F236899
:10526000002B00DAE418280000F048F81E4A136802
:105270001100002B02D16360146031E0A3420DD90C
:105280002268A018834203D118685B6882182260E4
:1052900063600C6024E0A24203D813005A68002A1D
:1052A000F9D11E689819A0420BD1216871185818BD
:1052B0001960824214D110685268411819605A600E
:1052C0000EE0A04202D90C232B6009E0216860188F
:1052D000824203D1106852684118216062605C60AC
:1052E000280000F00CF870BD944D0010031C0A78E3
:1052F00001311A700133002AF9D1704770477047A5
:1053000002B4714649084900095C49008E4402BC58
:105310007047C046002243088B4274D303098B4276
:105320005FD3030A8B4244D3030B8B4228D3030C75
:105330008B420DD3FF22090212BA030C8B4202D317
:105340001212090265D0030B8B4219D300E0090A3F
:10535000C30B8B4201D3CB03C01A5241830B8B4248
:1053600001D38B03C01A5241430B8B4201D34B0331
:10537000C01A5241030B8B4201D30B03C01A524196
:10538000C30A8B4201D3CB02C01A5241830A8B421B
:1053900001D38B02C01A5241430A8B4201D34B0204
:1053A000C01A5241030A8B4201D30B02C01A524168
:1053B000CDD2C3098B4201D3CB01C01A524183091C
:1053C0008B4201D38B01C01A524143098B4201D356
:1053D0004B01C01A524103098B4201D30B01C01A81
:1053E0005241C3088B4201D3CB00C01A52418308FB
:1053F0008B4201D38B00C01A524143088B4201D328
:105400004B00C01A5241411A00D201465241104687
:105410007047FFE701B5002000F0F0F802BDC0467C
:105420000029F7D076E7704703460B437FD400226C
:1054300043088B4274D303098B425FD3030A8B4228
:1054400044D3030B8B4228D3030C8B420DD3FF2292
:10545000090212BA030C8B4202D31212090265D060
:10546000030B8B4219D300E0090AC30B8B4201D313
:10547000CB03C01A5241830B8B4201D38B03C01A5A
:105480005241430B8B4201D34B03C01A5241030BD1
:105490008B4201D30B03C01A5241C30A8B4201D382
:1054A000CB02C01A5241830A8B4201D38B02C01A2D
:1054B0005241430A8B4201D34B02C01A5241030AA4
:1054C0008B4201D30B02C01A5241CDD2C3098B4289
:1054D00001D3CB01C01A524183098B4201D38B0106
:1054E000C01A524143098B4201D34B01C01A5241A9
:1054F00003098B4201D30B01C01A5241C3088B42EE
:1055000001D3CB00C01A524183088B4201D38B00D8
:10551000C01A524143088B4201D34B00C01A52417A
:10552000411A00D201465241104670475DE0CA0F51
:1055300000D04942031000D34042534000229C4611
:1055400003098B422DD3030A8B4212D3FC2289011B
:1055500012BA030A8B420CD3890192118B4208D3F1
:10556000890192118B4204D389013AD0921100E053
:105570008909C3098B4201D3CB01C01A5241830967
:105580008B4201D38B01C01A524143098B4201D394
:105590004B01C01A524103098B4201D30B01C01ABF
:1055A0005241C3088B4201D3CB00C01A5241830839
:1055B0008B4201D38B00C01A5241D9D243088B428F
:1055C00001D34B00C01A5241411A00D20146634632
:1055D00052415B10104601D34042002B00D5494296
:1055E000704763465B1000D3404201B5002000F0D5
:1055F00005F802BD0029F8D016E770477047C0468D
:105600008446101C62468C46191C634600E0C04666
:105610001FB501F0D7FA002801D40021C8421FBDF0
:1056200010B501F02BFA4042013010BD10B501F069
:10563000C9FA002801DB002010BD012010BDC046C2
:1056400010B501F0BFFA002801DD002010BD0120D7
:1056500010BDC04610B501F051FA002801DC002051
:1056600010BD012010BDC04610B501F047FA00285A
:1056700001DA002010BD012010BDC0468446081C80
:105680006146FFE71FB500F047FB002801D4002169
:10569000C8421FBD10B500F0D3FA4042013010BD22
:1056A00010B500F039FB002801DB002010BD0120FF
:1056B00010BDC04610B500F02FFB002801DD002012
:1056C00010BD012010BDC04610B500F0E1FA002861
:1056D00001DC002010BD012010BDC04610B500F057
:1056E000D7FA002801DA002010BD012010BDC04605
:1056F0009E2110B5C905041CFFF7F0FF002803D157
:10570000201C00F0E7FD10BD9E21201CC90500F003
:105710005BFC00F0DFFD80231B069C466044F2E743
:10572000F8B54A02430244004E00C50F240E28007B
:105730009B09360EC90F92098D4259D0A01B002833
:1057400000DC8DE0002E1AD1002A00D079E05A0743
:1057500004D00F221A40042A00D004335A0138D54D
:105760000134FF2C00D189E028009B015B0AE4B2E0
:105770005B02E4055B0A2343C0071843F8BDFF2C16
:10578000E5D08021C9040A431B2800DD89E016000A
:105790002021C640081A8240511E8A4132439B1A7A
:1057A0005A0114D59B019E09300001F0FFFA05381B
:1057B0008640844265DC041B330020200134E34032
:1057C000041BA640721E964100243343BFE75A07CC
:1057D000BFD1DF082800FF2C2FD1002F00D187E098
:1057E0008022D20313003B435B025B0AFF24BFE726
:1057F000A11B002949DD002E29D0FF2CA7D080262F
:10580000F60432431B2900DD8DE017002026CF402F
:10581000711A8A40511E8A413A439B185A01D6D5C3
:105820000134FF2C64D0012276491A405B080B40FA
:1058300013438CE7031ECAD100207B025B0AE4B24B
:1058400096E701380028AAD0FF2C9DD17FE7002AD7
:1058500000D17CE701390029DFD0FF2CD2D176E7D7
:10586000002820D1601CC0B2012853DD80279E1A79
:10587000FF0437402FD0D61A0D0095E728000023EB
:1058800076E7614B241A334061E700294DD1611C52
:10589000CEB2012E2FDDFF292AD09B185B080C0009
:1058A00055E701227BE7002C1BD1002B5BD0C043C6
:1058B00000280CD0FF2E7ED01B2800DD92E01D00BA
:1058C0002024C540201A8340581E83412B43D31AFD
:1058D00034000D0064E7002E00D065E700200024AE
:1058E000ABE7FF2E67D08024E40440422343E3E784
:1058F000FF2400233CE7002C61D1002B7ED0002A3E
:1059000000D124E79B185A0100D460E73E4A0C00FE
:1059100013401CE7002C1ED1002B2FD1002A66D08B
:1059200013000D0013E7012277E7002C1FD1002B95
:105930005AD0C94300290BD0FF2E50D01B295FDC61
:105940001F002024CF40611A8B40591E8B413B43DE
:105950009B18340062E7002B1CD1002A4AD01300A8
:105960000D00FF24F3E6130034000D00EFE6FF2ED8
:1059700035D08024E40449422343DFE7002A00D1E4
:10598000E5E68027981AFF04074000D152E7D31AB2
:105990000D00DCE6FF24002A00D1D8E68020DB08D9
:1059A000C003034204D0D208024201D113000D000B
:1059B000DB00FF24CBE61300FF240D00C7E6002B1D
:1059C0000DD0FF24002A00D1C1E68021DB08C903E5
:1059D0000B42EDD0D2080A42EAD11300E8E71300E7
:1059E000FF24B4E6012372E713003400AFE600277A
:1059F000002022E780270020FF03F1E61300A6E63F
:105A00000123A5E7FFFFFF7DFFFFFFFBF0B5564633
:105A100044465F464D46F0B444024600C70F83B08B
:105A20008846650A360EBA463DD0FF2E22D00023A6
:105A3000EC00802599469B46ED0425437F3E434676
:105A40005C025800DB0F640A000E984636D0FF282F
:105A500030D080230021E400DB041C437F38301A5F
:105A60000190484642460843724E800030587A40C2
:105A700013008746002D44D108239946063B9B46D8
:105A8000DDE70122FF2000241A406402C305640AF6
:105A9000D2071C431443200003B03CBC90469946F7
:105AA000A246AB46F0BD002D20D104239946033B0E
:105AB0009B46C4E7002C17D1022102E0002C0AD13A
:105AC0000121321A01924A4643460A435A4892003B
:105AD00082587B409746200001F068F9431F7630DA
