:1000000000800010FD000000C30E0000C50E0000BF
:1000100000000000000000000000000000000000E0
:10002000000000000000000000000000C70E0000FB
:100030000000000000000000C90E0000154900008B
:10004000C10E0000C10E0000C10E0000C10E000074
:10005000C10E0000C10E0000C10E0000C10E000064
:10006000C10E0000C10E0000C10E0000C10E000054
:10007000C10E0000C10E0000C10E0000C10E000044
:10008000C10E0000C10E0000C10E0000C10E000034
:10009000C10E0000C10E0000C10E0000C10E000024
:1000A000C10E0000C10E0000C10E0000C10E000014
:1000B000C10E0000C10E0000C10E000000000000D3
:1000C000C4890000000100109C000000C4890000E9
:1000D0000000002000000000C48900000040002053
:1000E000000000009C010010481A000000000020E1
:1000F00000000000004000200000000010B5104C7F
:10010000104B9C4206D2A2686168206800F0DDFEB8
:100110000C34F5E70C4B9C4205D26168206800F076
:10012000DDFE0834F6E700F035FE084B002B02D068
:1001300000E000BF03E004F055FD00F039F8FEE7F1
:10014000C0000000E4000000FC000000000000000F
:1001500010B5064C2378002B07D1054B002B02D09D
:10016000044800E000BF0123237010BD9C01001073
:1001700000000000C4890000084B10B5002B03D01C
:100180000749084800E000BF07480368002B00D17A
:1001900010BD064B002BFBD09847F9E7000000008C
:1001A000A0010010C48900009C01001000000000A4
:1001B00030B587B002F0F4F903F04DFC1E4803F0AF
:1001C00007FC642001F0E7FC5825040002F076F9F2
:1001D00000282ED0002200956E231100100002F09E
:1001E0009FFA0028F2D020000A2103F007FB134BEE
:1001F0000A21187803F002FB114803F0A5FA03A9BD
:10020000002003F013FC03A803F09EFA03A90120C9
:1002100003F00CFC03A803F097FA03A9022003F0F3
:1002200005FC03A803F090FA0A21082003F005FB5F
:10023000CCE707B030BDC046206A000004020010C1
:10024000296A000010B5064801F0ABFC054C2000FF
:1002500003F054FB002323602333636010BDC046CA
:10026000C0010010B801001010B50100014800F0F5
:1002700033FD10BD6C02001010B5FF21024800F0E4
:100280002BFDC0B210BDC0466C020010F8B543B2E1
:1002900004000D00002B07DA00217720FFF7F6FF9E
:1002A000012831D87F231C40A026882380279B016A
:1002B0003606F750FFF7E0FF8A239B01F750FFF760
:1002C000DBFF2000FFF7D0FF280EFFF7CDFF280C43
:1002D000C0B2FFF7C9FF280AC0B2FFF7C5FFE8B2F6
:1002E000FFF7C2FF9520402C03D09438482C00D152
:1002F0008630FFF7B9FF0A24FFF7BEFF030603D5D8
:10030000013CE4B2002CF7D1F8BDFFFF73B58823A0
:10031000A02480223F4D9B012406E25028003E4944
:1003200000F0D0FC28000022082100F0BFFC84234C
:1003300064259B01E358013DEDB2FFF79DFF002DC1
:10034000F9D129004020FFF7A1FF040001284BD17B
:10035000D52148204900FFF799FF012815D1FFF763
:100360008BFF01AC28550135042DF8D1A378012B62
:100370003AD1E378AA2B37D1284D8021E920C9054D
:10038000FFF784FF011E11D115E02900E920FFF7D6
:100390007DFF4126012801D80224E926204D0021B5
:1003A0003000FFF773FF002820D116E0013DADB209
:1003B000002D19D0E1E77A20FFF768FF002813D15C
:1003C0000500FFF759FF60550135042DF9D1237859
:1003D0000C245B060FD42C000DE0802150208900F6
:1003E000FFF754FF002806D0002404E0013DADB221
:1003F000002DF9D0D3E70B4BA0221C70882380215D
:100400009B011206D150FFF737FF60426041C0B236
:1004100076BDC0466C020010002D3101E02E0000B8
:10042000A8610000C1010010F8B51D00244B0700B1
:100430001B7816001B0700D449025120FFF726FF46
:10044000002801D0012431E01E4CFFF715FFFF28E2
:1004500004D1013CA4B2002CF7D1F3E7FE28F1D17E
:10046000194C641BA41BA4B2002E07D1002F11D07D
:10047000013DADB201353E007D1904E0013EFFF7BC
:10048000FBFEB6B2F0E7FFF7F7FE30700136B5427B
:10049000F9D105E0013DADB2FFF7EEFE002DF9D137
:1004A000013CA4B2FFF7E8FE002CF9D18823A0227A
:1004B00080219B011206D150FFF7DEFE2000F8BD1F
:1004C000C10100103075000002020000064B1A68DE
:1004D000831ED168002002398B4203D250784343F7
:1004E000906918187047C046C40100100F4B10B532
:1004F0001A6800230380836804001800012B13D0BE
:10050000D16801208B420FD2002B03D1117803292F
:1005100000D15369E360002B03D01800FFF7D6FF2A
:1005200000E050692061002010BDC046C4010010E9
:10053000F0B5040085B0012854D92C4B1D68EB6838
:1005400098424FD22E78022E32D0032E38D0012E70
:1005500048D181B24B08C91889B24B0A0193244B88
:10056000CA05D20D296903AF9A4204D0019B380015
:10057000591802230EE0019B380059183300FFF789
:1005800053FF021E2ED12969019B0131C918330086
:1005900002A80530FFF748FF002823D17B78387880
:1005A0001B0203431811E2071DD41805000D1AE0C1
:1005B0002B69C2B2010AC918520003AD330007E02B
:1005C0007F22042329690240C4099200611803AD07
:1005D0002800FFF729FF002804D168782B78000253
:1005E000184300E0012005B0F0BDC046C401001072
:1005F000FF01000070B5048805000134A4B2002C8E
:1006000001D1032322E00369002BFAD022071BD17A
:1006100001330F4A0361C0681668002803D1B3880C
:10062000A342EED910E073782209013B1A420BD1A4
:10063000FFF77EFF0123984208D9F3689842E0D281
:10064000E860FFF743FF286100232C80180070BD8D
:10065000C4010010F7B504000D002B78202B01D148
:100660000135FAE72F3B5A4253410027ED18A760A6
:100670002B78202B01D901972EE02000FFF736FFC1
:10068000404B06001B689B681F7078E0009B1B783E
:10069000002B68D00822009BDB7A13405BD1626894
:1006A0000099581CC95CD35C994254D103000B28B3
:1006B000F6D1D37A002B62D13B689868C37ADB0607
:1006C00056D5437D017D1B020B43C27E1904837EF8
:1006D000120213430B43A3606068020003000B3255
:1006E000934203D100220821130013E02021197046
:1006F0000133F5E72F2B12D02E2B3BD091420ED990
:100700001F00613F192F01D8203BDBB2571C8354D7
:10071000FAB233005E1CEB5CF6B2202BEAD8AD19BE
:100720002026019A9E425241C2722000FFF7DEFE4F
:10073000061E16D1134F3B689B6800930F23228837
:1007400021691A40520111330098FFF76DFE00280D
:100750009CD0012613E02000FFF74CFF0028EDD0CD
:100760000600032E0BD163680326DB7A002B06D12B
:10077000042604E00829D2D10A000331C9E7300079
:10078000FEBDC046C401001070B5164B01001C68C8
:1007900090B00620002C23D00023A3706B4608AD38
:1007A000A56003A80493FFF755FF002818D12B7804
:1007B0000330002B14D01023EE7A1E4010D16B7D35
:1007C000297D1B02EA7E0B431904AB7E1202134300
:1007D0000B4363620F9B300023620123E661A37029
:1007E00010B070BDC40100102F4BF7B51C6800237A
:1007F00007000D000192138006209C4253D0A3787D
:100800000138DB074FD5236AE2699B1A8B4200D27D
:100810009DB20097002D45D0E669F3051BD1700A03
:10082000617804F0EDFB00290BD1002E01D1606A44
:1008300002E0A06AFFF77CFE01282FD90023A06206
:10084000E370A06AFFF742FE002827D0E3785A1C25
:100850001818E270E062E3692E1CDA058023D20DDD
:100860009B009B1A9BB29D4200D91E1CB6B2381E3B
:1008700000D000983300E16AFFF7D6FD00280DD1C3
:10088000E369AD1B9B19E361009BADB29B1900931B
:10089000019B1B88F618019B1E80BBE700230120EB
:1008A000A37000E02800FEBDC4010010294BF7B57D
:1008B0001C680623002C4AD0A278013BD20746D5FB
:1008C000256A854200D905000022E369E26195426C
:1008D00038D066787602002B12D03100681E5F1E79
:1008E00004F008FB31000190380004F003FB019B89
:1008F000834205D373423B40E361ED1AA06A01E0F5
:10090000606AA062B5420CD9FFF712FE01281BD91C
:10091000E368984218D2E369A0629B19E361AD1BBA
:10092000F0E7E3695B19E361FFF7D0FD00280BD026
:100930006B0ADAB2ED0501D1E27003E00132C318AF
:10094000E270E362002302E00023A3700133180089
:10095000FEBDC046C401001030B5154B04001B6835
:100960008DB00620002B20D004AD9D6001AB6360EC
:100970002000FFF76FFE002815D12B78002B0FD039
:10098000EB7ADB0601D404200FE06B7D297D1B028E
:100990000B43EA7E1904AB7E120213430B43A360A0
:1009A0002000FFF7A3FD0328EDD00DB030BDC046F9
:1009B000C401001010B513000A000100014800F046
:1009C00003F810BD366A00000FB404B0704770B56C
:1009D0000D000400160000F07FFB6B1C07D0002107
:1009E000200000F0A1FB3100200000F097FB70BD5B
:1009F00010B50122FFF7EBFF10BDFFFF10B504009B
:100A0000034B083303601C3000F068FC200010BD6D
:100A1000686A000010B50400FFF7F0FF200000F046
:100A200067FA200010BDFFFF036810B50400013312
:100A300004D12C2205490648FFF7BCFF63696068B2
:100A40001B681840431E984110BDC046786A0000DC
:100A5000C26A000070B5050004000E4B0E0008339A
:100A600008C528001822002104F0FFF80023200008
:100A70003100E36123626363A363E364064A2300F6
:100A80001C3000F0C9FB28003100FFF7B1FF200047
:100A900070BDC046686A0000010B000010B504304C
:100AA000FFF7C2FF10BD03000A0010B51C30012182
:100AB000002A04D01A6200225A630132110000F0A9
:100AC00021FC10BD030010B50A001C30002903D022
:100AD00000229963DA640132022100F013FC10BD98
:100AE000436910B50100002B04D10368002B06D028
:100AF000984704E00068002801D00431984710BDF1
:100B000010B5012903D0022904D1383000E020308B
:100B1000FFF7E6FF10BDFFFF10B50400431C12D025
:100B20000B685A1C0CD09C4208D12000896800F048
:100B30000FFC0021200000F027FC04E00C31EFE75F
:100B40000148FFF741FF10BDDA6A000010B503004D
:100B500088420AD00B00421C07D003004A1C04D074
:100B60000348FFF731FF01235B42180010BDC04668
:100B7000EB6A00000B685A1C05D0834201D148681B
:100B800002E00C31F6E718007047FFFF10B50400D3
:100B9000431C07D0FFF7EEFF0400431C02D10248BC
:100BA000FFF712FF200010BDFC6A0000074A13681F
:100BB0001818EFF30881884205D30C220120044B5A
:100BC00040421A6001E010601800704704010010F4
:100BD000E01B0010064B10B51B680400002B00D072
:100BE0009847044B1B68002B01D02000984710BD8C
:100BF0000801001014010010094B10B51B68040017
:100C0000002B04D09847002801D1FFF7E3FF054BE4
:100C10001B68181E00D09847002C00D0206010BD23
:100C20000C01001010010010704710B5040000F016
:100C30005FF9200010BDFFFF73B504000E480025CA
:100C4000083020600820E0600C48261D606106988E
:100C50006560257225610090300000F003FD2B00D7
:100C600030002269E16800F07DFD3000616900F02C
:100C7000AFFD200076BDC0463C6B000040420F0037
:100C800070B5094D04002B6883420BD0061D026924
:100C9000C1680023300000F065FD6169300000F09C
:100CA00097FD2C6070BDC046C80100100261002293
:100CB00010B5034BC1601A60FFF7E2FF10BDC046DC
:100CC000C8010010002210B5024B41611A60FFF705
:100CD000D7FF10BDC801001070B50D000400FFF76C
:100CE000CFFF2900201D00F0B7FD70BD036870B56F
:100CF000DB680400984763685A682368002A02D1B9
:100D00009B68984713E05B681568984763682D1ADD
:100D10005A68002D07DC916859601B68002BEAD0E7
:100D200050689847E7E7236810681B69984770BDCB
:100D300010B50248FFF7DAFF10BDC046646B000033
:100D400070B5040000F0C4FD050000F0C1FD401BBB
:100D5000A042FAD370BDFA2310B59B005843FFF7A9
:100D6000EFFF10BD70B50A4CA568A3682A00002BE0
:100D70000AD180225E5952059A1804331660C02B9E
:100D8000F7D180225205A26010308000815070BDE2
:100D900000ED00E07FB580203F494002CA6F8E24FD
:100DA0000243CA672322002020253C4B3C499A601D
:100DB000223A0A603B49A4000A60186219593A4A6B
:100DC000114001910199A943C825019101992D0272
:100DD00029431951009035480099814204D8C046F2
:100DE000009901310091F7E701210020196459644D
:100DF000586459645C6C29480C42FBD08E218026D3
:100E0000C825890044582D0214400394039C3443A0
:100E10000394039C2C434450232484604458224070
:100E20000292029CB4430294029A2A434250012047
:100E3000DC681A4901220442FAD003200867002026
:100E40004A67486710004A675C6F144A01210442F0
:100E5000FAD08E20916780001558154C2C40145004
:100E60001558144C2C40145000209164D164D06467
:100E7000D164DA6C0A42FCD02321084A11610122B4
:100E800059691142FCD000220B4B1A601A600B4BBF
:100E900001321A607FBDC0460480044000800440D7
:100EA000F0400440F4400440FF250000C309000066
:100EB000FFFBFFFFFFFEFFFFC0800440C88004402F
:100EC00070477047704770477047002310B59342D2
:100ED00003D21C585C500433F9E710BD00231A00FC
:100EE0008B4202D21A500433FAE770470020704751
:100EF00010B503F0A7FE10BD13B501210F4B9A6882
:100F0000120B12039A6002789C6891402143996009
:100F100099680B4801439960186908490190019844
:100F20000028F9DA08329200535801938B685B006D
:100F30005B088B6001980004000D16BD00C00140E5
:100F40000000088470B50600FFF7D6FF04003000EB
:100F5000FFF7D2FF05003000FFF7CEFFAC4202D909
:100F600023002C001D000300A84200D92B00200004
:100F70009C4200D2180070BD73B50C00214D0600D4
:100F800029002000FFF702FEC0B23070FF2804D114
:100F900035221D491D48FFF70DFD20002900FFF7F0
:100FA000BBFD80221A4BE405E40DE41823681949BF
:100FB0009343B9322360FF328858174B0340102007
:100FC0000193019B8343C8200193019B00020343CB
:100FD0008B508021114A8901D36F0B43D367104B8B
:100FE0001049186803F086FF8023DB051A000138DA
:100FF000C0B20D49184308600B681340FCD10A4A7F
:10100000136073BDD06B00006C6B0000B76B000009
:101010000040044000800440FF250000048004409C
:101020001801001020A1070000C0014010B5FFF713
:1010300089FF04F0D5FF024904F0CEFC10BDC04684
:101040000108803910B50400431C04D11E22174941
:101050001748FFF7AFFC174B1A68002A06D1013278
:101060001A60154A1549D36F0B43D3670122002C30
:1010700012D0134B9C420FD0124B9C420CD0124BFF
:101080009C4209D0114B9C4206D0114B9C4203D08C
:10109000104BE1184A424A412000110000F058F973
:1010A0000120A404E40EA04010BDC0466C6C0000FA
:1010B000C76A0000D4010010048004404000010011
:1010C000281400002C16000030180000341A00000C
:1010D000381C0000C4E1FFFF70B505000C0029605A
:1010E0004B1C11D00800FFF7ADFF2414074BA400E0
:1010F000E318EB60064B6860E3182B61054BE318BF
:101100006B61054BE418AC6070BDC046002200A0C6
:10111000802200A0002100A0002000A010B50068DF
:1011200000F032F910BDFFFF036870B504000D0038
:10113000013304D1432209490948FFF73BFC002D44
:1011400006D0012D09D1A268636811680B4303E042
:10115000A268616813688B43136070BD6C6C0000FB
:10116000C26A0000F7B501210D008540134C636A87
:101170002B4221D0124B8600F058019300281BD03F
:1011800023682B4218D163682B4206D0E3692B42B7
:1011900003D00C4B1B689847E5612369074F2B422E
:1011A00009D03B6A2B4206D0064B019A1B680221EC
:1011B000905998473D626562F7BDC046004000A067
:1011C000DC010010D801001010B50020FFF7CAFFA5
:1011D00010BD10B50120FFF7C5FF10BD10B50220EE
:1011E000FFF7C0FF10BD10B50320FFF7BBFF10BD18
:1011F00010B50420FFF7B6FF10BD10B50520FFF7AE
:10120000B1FF10BD10B50620FFF7ACFF10BD10B543
:101210000720FFF7A7FF10BDF7B50500274881425B
:1012200002DD0120404248E02548264C02600020B3
:10123000820016590096002E3BD11351224C286093
:10124000E36F224F224E3B43E3671F248B03491277
:101250000C401821A44604009B0F59435E3461449E
:10126000A400A15181210124890071589B000F0025
:10127000210081400F4339008127BF00F151A02197
:10128000802609065B18B60199592700019161462D
:101290008F40019940B2B94399510E4BD158FFF795
:1012A00061FD1F222B68009813409C400A4B1C6074
:1012B00003E001300828BBD1B3E7FEBD13110200E3
:1012C000D8010010DC0100100480044080000900F7
:1012D00000800440B46C000000E100E000210368DD
:1012E000064A9B0010B59950012281210068044CE8
:1012F0008240890063589343635010BDDC010010A5
:101300000080044003680120984070B50F4C2368AA
:10131000034200D16062C54326680C4B2E40266014
:10132000012909D1002A03D05A68104358600CE003
:101330005A6815405D6008E0002A03D01A6910431E
:10134000186102E01A6915401D6170BD004000A0DF
:1013500070B504000D00431C04D11522074908484C
:10136000FFF728FB074BE405E40DE4180723226888
:101370001D409A431543256070BDC046D46C0000E3
:10138000C76A00000040044070B504000D00431C13
:1013900005D11D220F491048FFF70CFB06E0812301
:1013A0001B01984214D00D4B984211D00C4BE40510
:1013B000E40DE4182368042D04D18022D2001343E5
:1013C000236005E01822ED00934315401D4325607E
:1013D00070BDC046D46C0000C76A0000140A00004B
:1013E0000040044070B50C1C05000021201C03F0D7
:1013F00047FF002809D1FE21201C890503F054FF76
:10140000002803D0FE24A40500E0002480232D68DA
:101410009B00E85804F0E4FD211C04F0DDFA03F021
:1014200083FF81239B00E85070BD8023F7B581279F
:1014300004689B00E258BF00E059E15001920D00A2
:1014400004F0CEFD061C019804F0CAFD011C301CFE
:1014500004F0F8F8061C280004F07AFD011C301C8A
:1014600004F0BAFA03F060FFE051F7BDF7B50F00E2
:10147000060050493800FFF789FBC3B20500FF2B77
:1014800002D14D48FFF7A0FA4C4B01211A78019385
:1014900010000840031E04D00A410B000A4200D08D
:1014A00081E0012421009940019A45481278736037
:1014B0000A4301990A70434A99008A5809333260F5
:1014C000C26F1100802212061143C16720009840AC
:1014D00003003D4A38005268364913433A4A536084
:1014E000FFF71AFB3768394A3B68394913430C2226
:1014F0003B607B6813437B607A68364B13407B60AC
:101500007B680193344B186803F0F4FCFE23013828
:101510001B0140011840019B18437860E8B207287E
:101520001DD803F0DDFC040A1016040A1016A023CF
:10153000DB00FC500222294B10E0A123DB00FC5011
:101540000222274B0AE0A223DB00FC500222254B9B
:1015500004E0A3230222DB00FC50234BFA5080223C
:10156000C12352019B00FA500123C0225B4292002A
:101570001E49BB500C32B950043ABB5080231C4961
:101580009B00F950FB58053A9B08FF3ABB500422D8
:101590007B68300093437B60FFF747FF30000021FA
:1015A000FFF720FFF7BD1348FFF70EFA01235B4258
:1015B00077E7C0461C6D0000886D0000FC0100103C
:1015C00004800440B46D0000008004400100060067
:1015D00040420F001FF0FFFF18010010040500003B
:1015E0000C050000140500001C050000011000009F
:1015F000204E0000A26D000080210A4AC905D36F69
:1016000080200B430121D367074B1A680A431A60F5
:1016100000229A601A6802431A601A688A431A60A4
:101620007047C0460480044000400240024B1868E6
:101630000006C00F7047C04600400240014B98684A
:101640007047C0460040024010B58024044B196822
:10165000A143196098601A6822431A6010BDC04601
:1016600000400240F0B5334E87B0009104003100D5
:10167000009801920293FFF789FA2F4D0700290085
:101680000198FFF783FA2D4903900298FFF77EFA3D
:101690002B4904900C98FFF779FA039905903800CC
:1016A000FFF754FA059907000498FFF74FFA010075
:1016B0003800FFF74BFA2060431C04D1482221492F
:1016C0002148FFF777F92368204A93420FD0204A38
:1016D000934219D180201F49C002CB6F1E4A034399
:1016E000CB6701211D4B1960536803310AE080204C
:1016F00018490001CB6F184A0343CB670121184BEF
:10170000196053680B43536031000098FFF704FAE7
:1017100029000198FFF700FA08490298FFF7FCF941
:101720000C9B013303D006490C98FFF7F5F907B07D
:10173000F0BDC046006F0000BC6D0000F86D0000F9
:101740003C6F0000406E0000866E00000000044008
:101750000080054004800440008004409C800440D8
:1017600094800440F8B50E000221140002681D00A8
:10177000536807008B435360331F0C2B06D9032C8F
:1017800004D9652210491148FFF714F98023E001BC
:101790000340013E1E43A30734003968DB0F0A688B
:1017A0009B01120C12041C4314430D220C604B6865
:1017B00093436A1E95410222AD001D434D604B6864
:1017C00013434B60F8BDC046406E00009A6E0000A7
:1017D000F7B5022405000E0002685368A343536066
:1017E0001A4B1B6801932100019803F083FB04F05E
:1017F000AFFB071C300004F0ABFB011C381C03F0EE
:1018000021FFFC21890503F0A7FD05F097F803F0FF
:1018100051F905F05DF8FF280FDC2B680C4A1C61BC
:10182000196801380A4002211A601A680002104340
:1018300018605A680A435A6007E0802302345B004C
:101840009C42D0D10348FFF7BFF8F7BD1801001044
:10185000FF0000FFD86E000002220368D868104223
:10186000FCD004229960D9681142FCD09868704776
:10187000104B70B51A68002A1AD1012580210E4A32
:101880001D60D36FC9000B43D3670C4B0C4C186819
:1018900002230C49636003F02DFB0138E0600A4924
:1018A00065601320FFF75EFA8022084B12031A606E
:1018B00070BDC046000200100480044018010010F2
:1018C0000080014040420F00310D000000E100E0C7
:1018D000044B10B51B68002B01D1FFF7C9FF024B69
:1018E000986810BD00020010008001400121034BE8
:1018F00098615A690A435A617047C04600800140A6
:101900000121024A53698B435361704700800140B3
:101910000122014B1A6070470080014070477047F8
:101920007047FFFF10B50548FFF780FB044904F03E
:1019300053F803F0F9FC034B187010BD05020010BA
:1019400000007F430402001010B5FFF7EBFF10BD4D
:1019500010B502490248FFF70FFB10BD5C2E0000D6
:101960000502001010B502F0E9F910BD70B50023B2
:10197000FF2402250B480C4AC15C002906D0D15C2B
:101980000131C9B2FF2906D1D55407E0D65C002E3B
:1019900004D0FF2E01D1D15400E0D4540133072BE1
:1019A000EAD170BDF919001007020010034B185C52
:1019B000013843425841C0B27047C0460702001088
:1019C000002210B51D4B19781A701D4A5078002856
:1019D00001D001201870D078002803D00224187894
:1019E000204318701078002803D00424187820436E
:1019F00018709078002803D00824187820431870B5
:101A00001079002803D010241878204318705079DA
:101A1000002803D020241878204318709279002AD7
:101A200003D040201A7802431A701B78054A180028
:101A300008409943044B1070197010BD0602001045
:101A4000F91900100F0200100E020010014B187956
:101A50007047C046F9190010014B58787047C046CE
:101A6000F9190010014BD8787047C046F9190010D9
:101A70000023094A1380094A1370094A1370094A5E
:101A800013700122084B52421A80084A084B1A6010
:101A90000922084B1A707047160200101502001038
:101AA0001C02001010020010120200104479000005
:101AB000180200101402001010B50248FFF7D8FFFA
:101AC00010BDC0461102001037B572B600210422C5
:101AD000244B802559601961234BED001A608E223A
:101AE000224B92009C582C4380259C509C586D00A2
:101AF0002C439C5001225A671400596719004B6F00
:101B00001A4D01222340FAD114002B676A676B67D4
:101B10004B6F164A2340FBD18E245364516CA400B2
:101B2000936013675360155911492940802501912D
:101B300001992943C825019101992D022943115189
:101B4000A02284211206890153500A4953500A49A0
:101B500053500A4B9860001C01688D4640688047CE
:101B600037BDC046004000A010E000E00080044007
:101B7000FF250000042100000821000000ED00E026
:101B800070B505000C0003F053F9611B013103F03F
:101B900021FB481970BD10B501000020FFF7F0FFD0
:101BA00010BD7047F0B5C1B00E0000F04DFE00F062
:101BB00057FE8023DB029B1B0400984200D91C00C7
:101BC00000F038FE8027134801F0BEFD00257F009D
:101BD000A5421CD280216846490000F00FFEFF2874
:101BE00004D8631BBB4201D90B4806E0A81969461B
:101BF00002F0CCFD002804D0084801F0A5FD01202A
:101C000006E001350648FF3501F092FDE0E70020CF
:101C100041B0F0BDAE7A0000BA7A0000D57A00007B
:101C2000277B0000F7B501260024514B514D1E7053
:101C3000514B1C80FC23DB002B8000F033FE210085
:101C4000200000F05FFE300001F0C6FC009401941B
:101C500006F0D9FC0421494800F0AAFDA0420FD1AA
:101C600000F0F2FD0820404200F0D0FD042168465B
:101C700000F0C4FD042101A800F0C0FD00F0DAFD71
:101C800001273F4E7F423F4C2368B34200D03E4C79
:101C90002368B34200D03D4C2368B34200D03C4C93
:101CA0002368B34217D020233A485B422B8001F0CF
:101CB0004BFD009B002B03D0374B019A9A4240D832
:101CC000364801F041FD364801F03EFDFC23DB00C3
:101CD0002B80344820E0344B34482B8001F028FD21
:101CE0000A2160682F8001F0AEFD6368009A93427C
:101CF00027D3A068FFF7E8FE17E0FFF7B3FE002840
:101D000034D1FFF7A9FE0028F7D001990098FFF71A
:101D100049FF002826D0264801F016FD05E0FFF710
:101D20004FFEFFF793FE002804D1FFF78FFE002837
:101D3000F5D01BE0FFF78AFE002817D0FFF740FE22
:101D4000F8E71C4B1C482B8001F0F2FC00980A219C
:101D50002F8001F078FDFC231848DB002B8001F078
:101D6000F3FCCEE7164801F0EFFC8CE7F7BDC04668
:101D7000260100101E010010320500109B7B0000A0
:101D80001EAB07B0F4FF030004FF030004FE0300D2
:101D900004F00300A37B0000FF7F0300B77B00007B
:101DA000666A0000CE7B0000FF070000E97B0000B0
:101DB000F37B00001FF8FFFF197C00002D7C000062
:101DC0000F7C0000F8B50026012001F005FC4A4B0D
:101DD000FC271E8000F066FD484D494B49482B808A
:101DE00001F08EFB0123484C30212370474BFF004C
:101DF0001E70474B60201E702F8001F0ABFC4548E1
:101E000001F096FC3821602001F0A4FC424801F06A
:101E10008FFC4021602001F09DFC404801F088FCCF
:101E20004821602001F096FC3D4801F081FC6021D2
:101E3000282001F08FFC3B4801F07AFC013E3A4833
:101E40002E8001F075FC39482F8001F071FC0223CF
:101E5000374823702E8002F04BFD8319DBB225003A
:101E60000324042B00D8040002F06CFD86B2FFF7B7
:101E7000A7FD7821682001F06DFC0A21200001F007
:101E8000B9FC02F05FFDFA239B00F318984203D9D6
:101E900002F058FD013C86B201F0F2FF002808D0A4
:101EA00001F0EEFF041E02D0FFF78AFDF8E7FFF70E
:101EB000B9FE01F0D9FF002807D001F0D5FF0028B6
:101EC00002D0FFF77DFDF8E7040001F0D3FF002802
:101ED00002D1002CCBD106E001F0CCFF002802D0CB
:101EE000FFF76EFDF8E701232B7000F0DBFC00200C
:101EF00001F072FBF8BDC046320500101E01001053
:101F000000F8FFFFE0750000260100102701001017
:101F100020010010527C0000577C00005C7C000017
:101F2000617C0000667C00006C7C0000707C00001E
:101F3000A20F0000F0B5984D1E002B888BB0040056
:101F4000049109935711002E06D0002032230090EF
:101F50001A00010000F0CAFC6A461021525E8E4B46
:101F6000029222B20392032F02DCFC22D20022E072
:101F7000042F1DD120235B422B80002E00D102E1D3
:101F800001F022FB0500012001F026FB01F0C0FD5D
:101F9000049902001439601EC9B20A23C0B201F0CC
:101FA00033FC7E4801F0C4FB280001F015FB05E07E
:101FB000042F01DD7A4A1A80002EE1D1002F02DCC5
:101FC000784A754B1A800123774A00930299039847
:101FD00000F0A2FC012F02DC724A6F4B1A80A3B200
:101FE0001D000126704C08352DB2039322003300EA
:101FF00002992800009600F08FFC6B461B8A220095
:102000000493043B1BB20593009633000599280006
:1020100000F082FC022F02DC624A5F4B1A8001252D
:10202000039E2B00103636B2220002993000009534
:1020300000F072FC2B00220005993000009500F0A2
:102040006BFC049B0095083B1BB2069322002B00FF
:102050000699300000F060FC032F02DC514A4E4B21
:102060001A800124039D504E18352DB223003200F2
:1020700002992800009400F04FFC230032000599DB
:102080002800009400F048FC230032000699280044
:10209000009400F041FC049B00940C3B1BB207939E
:1020A000320023000799280000F036FC042F02DCE0
:1020B0003C4A394B1A800124039D3B4E20352DB2FA
:1020C0002300320002992800009400F025FC230030
:1020D000320005992800009400F01EFC2300320015
:1020E00006992800009400F017FC2300320007999D
:1020F0002800009400F010FC049B0094103B1BB2DD
:102100000893320023000899280000F005FC052FF1
:1021100002DC244B204A13800125039C224E2834E4
:1021200024B22B00320002992000009500F0F4FB4D
:102130002B00320005992000009500F0EDFB2B00EC
:10214000320006992000009500F0E6FB2B003200DB
:1021500007992000009500F0DFFB2B003200089962
:102160002000009500F0D8FB04992B0014393200B0
:1021700009B20095200000F0CFFB6A46064B928C16
:102180001A800BB0F0BD0123074A0093029903980F
:1021900000F0C2FB23E7C0461E010010FF7C0000D8
:1021A00000F8FFFF8A5200009B820000F0B501207A
:1021B00087B001F011FA00229B4B1A7001F0A8FCC5
:1021C000FA20000102F094FB040003F009FF974B92
:1021D00097491C80051C03F067F8002801D0FF20F8
:1021E00000E07F2001F080FC0024200003F0B0FE1E
:1021F000011C281C03F062F8002805D020B201342D
:1022000001F03AFCE4B2F0E78A4B18708A4802F019
:102210006FFB431EDBB20400092B00D9874C02F090
:1022200091FB83B204930123FC271D000393FF005D
:10223000834B1B78002B03D0002D01D0002C22D122
:1022400001F066FC0400FA20000102F051FB0600D8
:10225000200003F0C5FE051C300003F079FE011CD0
:10226000281C03F007F8002804D1FA20E1B200018D
:1022700002F047FB20B201F0FFFB0021080000F054
:1022800041FB07B0F0BD02F05DFBFA22049B920017
:102290009B18984208D902F055FB83B20493694B0E
:1022A000E3185A1E9341E41A012D03D0022D00D1E8
:1022B00098E0BDE7039B644D002B32D0012600F06F
:1022C000F1FA7642102120202E8000F01BFB5F489F
:1022D00001F02EFA9921282000F014FB5C4801F04F
:1022E00027FA5C482F8001F023FA5B482E8001F02A
:1022F0001FFA582100202F8000F004FB574801F0FE
:1023000023FA574E300001F01FFA300001F01CFA9A
:10231000300001F019FA300001F016FA514801F0CE
:1023200013FA9921302000F0EDFA4F4E3378032B49
:1023300002D801235B4200E04C4B2B8002234C4A25
:1023400000933021013BA42000F0E6FA362118204A
:1023500000F0D8FA474801F0EBF91820422100F0CC
:10236000D1FA33784448032B00D8444801F0E0F90F
:102370000223434A2F8060210093A420013B00F0F8
:10238000CBFA6621182000F0BDFA3E4801F0D0F9E2
:102390007221182000F0B6FA01F0BAFB7F2802DDA6
:1023A000324B2B8000E02F802F4B274D1A78042AC8
:1023B00002D1243A2A8003E0072A01D1013A1A7097
:1023C00018780A2101F016FA2F4801F0B1F92F8090
:1023D00001F09EFB0023020077217020FFF7AAFD89
:1023E000022525E7FFF7ECFAFFF7C0FA01F03CFD04
:1023F0000590002801D000251AE72800FFF7D6FA3B
:10240000061E05D001F042FB059B0C4C039308E02F
:10241000FFF7CCFA002800D10AE7084C01F04EFB88
:102420000396012504E7C046270100105E1800103E
:102430000000FE4227020010A30F0000FFFF000073
:10244000250200100100FFFF1E0100107B7C000030
:10245000947B00008F7C0000917C00009C7C00003D
:10246000B77C0000D27C00006018001000F8FFFF6D
:10247000578200004F7B0000ED7C0000F77C0000DD
:1024800079820000027D0000FF7C0000012210B56F
:10249000084B00201A7001F09FF8074801F030F84F
:1024A00002F040FA02F064FA01F048FC02F050FA3F
:1024B00010BDC04625020010786F0000014B18784F
:1024C0007047C04625020010F7B50024FC27250000
:1024D0005826FF00292D48D802F034FA234B1A68F9
:1024E0009042F7D91E301860012D0BD0002D02D07C
:1024F000022D22D035E01E4B28001D8000F0E0F9AF
:1025000001252EE0FC21E2B2C900002001F0C8F94B
:10251000184B194A18806E235178107849084008E2
:102520001C34181A711A00952B00A4B200F0F4F9AB
:10253000FE2C16D90024022513E00E4B0E4A1F80F4
:102540006E23107851784008181A49086D3B0093A3
:10255000711A00F0E1F93F34084BA4B29C4200D953
:10256000FF25FFF773FA0028B4D0F7BDD01B001089
:10257000320500101E0100104D7D0000FF03000019
:1025800010B57F2001F0B0FA7F22034B1A80034B75
:1025900080321A7010BDC0465E1800102402001070
:1025A000F7B5FFF773FF32220127FF242A4B1A7079
:1025B0002A4B1F602A4B1C70FFF7E2FFFFF7AEF9B2
:1025C00020000024FFF7ABF9FFF7CCF9FFF7CEF9B5
:1025D000FFF7BAF900F091F9FFF776FF380000F045
:1025E000FBFF204E348000F05DF91F4D280000F005
:1025F00087FF380000F0F0FFFC221C4BD2001A804D
:10260000348000F04FF9280000F07AFF184E194D81
:1026100034702F70FFF7D6FBFFF7C8FD00F056FBB4
:1026200058232200009321001633200000F0A4FB61
:10263000114B1879002802D0FFF798F9F8E700F05D
:10264000CBFF01230D4A0E4813700E4A33702B70D6
:10265000137000F055FFF7BD260200102C02001089
:102660002402001032050010E07500001E01001069
:1026700027010010200100100702001026010010A1
:102680007C72000022010010F0B51F4B85B01A7853
:102690000393002A36D000240B2A02D80C239C1A5C
:1026A000E4B20127194B002055251F7000F082FB72
:1026B0000322174EA4B231780020CB1C691A61188E
:1026C0000092513200F0DFFE380000F073FB03226D
:1026D00031780020CB1C691A61180092513200F049
:1026E0006CFE04220B4B1A803378E41A0A4B5734E1
:1026F0001C800A4B186801F01BF8039B039A1B7897
:10270000013B137005B0F0BD380200102601001027
:10271000A9020010CC040010C00400103002001008
:10272000F0B587B005930CAB039104921F780600B7
:1027300002F008F9164B17491B780A68164C121A52
:102740009A4212D92268002A0FD0144AC3180B608B
:10275000136801250133136000232360FFF7E0F8BD
:10276000FFF704F9FFF7DEF80EE000252368AB421F
:102770000AD1FFF789FF059B0097049A039930005F
:1027800000F0FAFA01232360280007B0F0BDC0462C
:1027900026020010340200102C020010200200104B
:1027A00010B5024800F0BEFE10BDC0462802001061
:1027B00070B50F4D06002B780C00102B0BD030009D
:1027C0002C70FDF7E1FF041E0DD13100094802F025
:1027D0007DFB20000AE0084805F054FE03000120BC
:1027E000002BECD002E0082301202B7070BDC04606
:1027F0001C010010840200103C02001013B56B464F
:102800009C1D2200FDF7F0FF208816BD10B5074B78
:10281000002804DADA6941428A4200D25042DB6978
:10282000C018FEF743F8024B187010BD3C020010B0
:102830009302001010B50020FEF738F8014B187015
:1028400010BDC04693020010034B10B5186AFEF786
:102850002DF8024B187010BD3C02001093020010BE
:10286000014BD8697047C0463C0200100123812209
:1028700013B5074C5B4200935201064B06492000FA
:10288000FEF7DAF9054A06492000FEF72FFB13BDD3
:102890006C020010180C000024120000000100104F
:1028A000290C000010B5002001F0BAFB0023024AF9
:1028B0001380024A138010BDCC040010C004001025
:1028C00010B501F0ADFB10BD064B10B51B880F2BEA
:1028D00004D8054C5B001B5B934201D001F00CFD5A
:1028E00010BDC0462A010010B402001013B504AC9C
:1028F0002488009401F030FD13BD10B501F0F0FB09
:1029000010BDFFFF024B1880024B19807047C04674
:10291000CC040010C0040010F0B58FB00B9114A9C6
:1029200009780A900891117805915178023209913D
:102930000092012B76D1059B0733DB100C936B467D
:102940001B8D07930493002303936B460C21595E60
:10295000059B8B4200DCF0E00723CA171A4052188F
:10296000D21053B20A93764B0B4004D50822013B98
:1029700052421343013380221BB21A416B469B8D96
:102980000D9206930293002301936B4604229B5EF3
:10299000099A93423EDA0C9A0A995343009A5218C4
:1029A000D35C0D9A1A422DD0089B664C012B09D19D
:1029B000069B019903985918079B2288181809B299
:1029C00000B21DE06B461027DF5F6B4608269E5F56
:1029D000228831003800FFF777FF049B31005D1C2F
:1029E0002DB222882800FFF76FFF029B22885E1C11
:1029F00036B231003800FFF767FF31002800228827
:102A0000FFF762FF019B01330193029B02339BB2EC
:102A10000293BAE7039B01330393049B02339BB2F7
:102A2000049392E7042B00D087E00023099A934295
:102A300000DB82E09BB202936B469B8D00250793DF
:102A4000029B079A5B00D3189BB21AB201331BB2E8
:102A500004936B461B8D039206930193059BAB4237
:102A600067DD009B384A1B7812681B115B009E5A79
:102A7000089B022B19D1069B6C001C19A4B227B22B
:102A8000013432000399380024B2FFF71DFF3200F1
:102A900003992000FFF718FF320004992000FFF788
:102AA00013FF32000499380007E0029B079A991837
:102AB0006B4632000420185E09B2FFF705FF0F22B3
:102AC000009B1B781340204A5B0012689E5A089BAB
:102AD000022B1AD1069B6C001C19A4B2A71C3FB292
:102AE000033432000399380024B2FFF7EDFE3200C0
:102AF00003992000FFF7E8FE320004992000FFF759
:102B0000E3FE32000499380007E0029B079A991807
:102B10003200019B09B2581C00B2FFF7D5FE009BA2
:102B2000023501330093019B2DB202339BB2019316
:102B300094E7029B01331BB278E70FB0F0BDC046AB
:102B4000070000801E010010BC040010F0B5130047
:102B5000574A8DB014680F00627811000192F72275
:102B600008390A40511E8A410199C9105218089229
:102B7000089922784A43511C4B431A00A218127933
:102B8000053352B2099282B20B9206920022E318E8
:102B900005926A46127D099952B2914200DC7CE0AE
:102BA00008991A78022903D00133079393B204E0FD
:102BB000991C5B7807911B02134300240293059B29
:102BC0000B9A5B00D3189BB21AB201331BB203926B
:102BD0000493019BA34257DD0122029B134217D0AD
:102BE000344B1B78022B07D16500ED19ADB2324E84
:102BF0002BB20A9332881AE06946304B18254D5F94
:102C00001A782D4B002A01D01A882BE01A8830E060
:102C10002B4E2C4B32881B8893422FD0254B1B7890
:102C2000022B18D16500ED19ADB22BB20A93190031
:102C300003980135FFF748FE2DB232880A990498AF
:102C4000FFF742FE328829000398FFF73DFE3288E5
:102C50002900049810E06946184B18254D5F1B7831
:102C6000002B06D0019B2900581EC019031B18B267
:102C700002E02800E11909B2FFF726FE029B0134A9
:102C80005B08029364B2A4E7059B01330593069B9E
:102C900001339BB20693079B7BE700200A4B185633
:102CA000099BC018034B1B7858430DB0F0BDC046BC
:102CB000C8040010260100101E010010310500108C
:102CC000320500102A01001027010010F8B5224932
:102CD000224F09783B88224CDAB2224E224D01293C
:102CE00003D1FE31002B2FD129E0022907D1032384
:102CF0001A401100930019430A01114324E00329EB
:102D00001DD102391940194A00D0FF21206801F075
:102D1000ACFF02233988154A194023689818002906
:102D200000D0FF2101F0A1FF042339882068194059
:102D30000F4B0E4AC018002908D0FF2106E00F21D2
:102D40000B4011011943C9B20A4A206801F08DFFF6
:102D5000002333802B80F8BD21010010C404001033
:102D6000AC020010CC040010C0040010BA04000033
:102D7000740900001F13000010B5002805D1064B90
:102D80001968064B186801F04BFB054B1B78002BAC
:102D900001D1FFF79BFF10BDBC040010AC02001076
:102DA000B804001010B5024800F064FD10BDC04624
:102DB0007E7A00000F231840014B18807047C046F0
:102DC00024010010114B30B51B8893421DD0104BCD
:102DD00084B21B78A34218D90E4D89B22D788D424A
:102DE00013D95B104B43401018180B4B80B2196875
:102DF0000F2308180178E40702D599430A4303E03A
:102E00000B4012011A43D2B2027030BD2A010010E9
:102E1000280100102C010010AC020010F0B51300C6
:102E2000274A87B00490106805914778F722390047
:102E300008390A40511E8A41F9105218029202992B
:102E400002784A43511C4B431A0082181279053309
:102E500052B203926A46158AC318049A0399AA1AB1
:102E600052B2914224DD029A1C78022A03D0013327
:102E70000193A4B204E09A1C5B7801921B021C43EC
:102E80000026B74210DB059B28B2F11801231C4233
:102E900001D00C4B00E00C4B1A7809B20136FFF759
:102EA00091FF640876B2ECE70135ADB2019BD4E73F
:102EB0000020064B1856039BC01807B0F0BDC04653
:102EC000C804001024010010C404001027010010E1
:102ED00010B5114B84B21B78A3421CD90F4A89B29A
:102EE00012788A4217D95B104B43401018180C4BCC
:102EF00080B219680F22081801780A4BE40704D53C
:102F000091431C780B00234304E01B880A401B01FB
:102F10001A43D3B2037010BD280100102C01001019
:102F2000AC0200102401001070B50F4B15001B7887
:102F30008AB20600934202D8AAB2934212D90B4B2E
:102F40001A78B3B29A420DD9A94202DD0B002900CA
:102F50001D000C00A54205DB21B23000FFF7B8FFD1
:102F60000134F7E770BDC0462C01001028010010A5
:102F700070B50F4B16001B7882B20D00934202D839
:102F80008AB2934212D90B4B1A78B3B29A420DD936
:102F9000A84202DD030028001D000400A54205DB55
:102FA00020B23100FFF794FF0134F7E770BDC0464F
:102FB000280100102C01001010B5002A04DA92B28A
:102FC0005118524209B212B28A1812B2FFF7ACFF7E
:102FD00010BD10B50B00002A04DA92B2101852424C
:102FE00000B212B28218013A11B21A00FFF7C0FF04
:102FF00010BDF8B5060014000F00CB181DB234192F
:103000002A0024B2FFF790FF2A0039002000FFF7C2
:103010008BFF3A0030002100FFF7AAFF2A003000A2
:103020002100FFF7A5FFF8BDF8B58218CB18050001
:103030000C0012B21BB2002801DA002A2DDB17495E
:1030400009788D4201DB914227DD002C01DA002B4B
:1030500023DB134909788C4201DB99421DDD95423F
:1030600002DC11002A000D009C4202DC1900230042
:103070000C00161C002A00DA002636B2191C002BA0
:1030800000DA00210FB2AE4207DA30002200390028
:103090000136FFF749FF36B2F5E7F8BD2801001009
:1030A0002C010010F0B5030085B0002879D03E4A0D
:1030B0001478A04201DB631E1BB23C4A107804283E
:1030C00007D13B4A11785943CA0F5118491089B2A8
:1030D0000AE0022865D10321354A12785A43D517F0
:1030E00029408A18921091B2324A15880195324DC2
:1030F0002D8815802E4A002B28DD1278E31AD5087A
:10310000684300252E0002900393039B9D4216DA2C
:10311000891B89B233008C466146981B80B2070038
:103120000298591889B2874205DA244F581C795CF5
:10313000F95483B2F0E70135ADB21E00E5E720494E
:1031400023B20020095E12B2002024E01278A4B25B
:103150005043C010029000209DB20394039CAC42E7
:1031600016D9401A80B20C0084466046661AB6B280
:103170003700029E001980B2B74205DA0F4F661C75
:10318000385C3855B4B2F0E70135ADB22100E5E75F
:103190000021080012B2FFF747FF6A46054B9288EC
:1031A0001A8005B0F0BDC0462C01001021010010AE
:1031B0002801001024010010C4040010350500107F
:1031C000C0040010F0B587B004936B460124009250
:1031D0001B880290E21AA3405B4212B21BB2039119
:1031E00001920593631E009A1BB29A4267DD019B10
:1031F000002B0CDB1300013B1BB20093059B023339
:103200009BB21AB20592019A9B181BB20193019AC4
:10321000630001339B1804221BB20193049B1342E9
:103220000FD06B461F899D891E883819A91909B2CC
:1032300000B22D19BE19FFF74BFE29B230B2FFF7CD
:1032400047FE0222049B13420FD06B461F899D89C3
:103250001E88E019A91B09B200B2FFF739FEBE199A
:10326000291B09B230B2FFF733FE049B1B070FD5B1
:103270006B461D891F889E89E81BA11909B200B2FF
:10328000FFF726FEBE19281B31B200B2FFF720FE61
:10329000049BDB0702D40134A4B2A3E76B461D896B
:1032A0001F889E89E81B311B09B200B2FFF710FE90
:1032B000F61B281B31B200B2FFF70AFEEBE707B09E
:1032C000F0BDF0B58BB01600089393B201220790C1
:1032D000D01A93405B421BB206938BB20493013B1E
:1032E0009BB2029310AB1B8800B2059302339BB2D2
:1032F00001930023009003930992039BB3425ADA8F
:10330000009B002B0ADB069B013E02339BB21AB2E4
:103310000692009A36B29B181BB20093039C009A47
:103320000134A4B223B20393630001339B181BB290
:103330000093099A089B134217D06B46B5B29F8B36
:10334000059B6A009A18049B3819591B12B209B2DE
:1033500000B2FFF731FE6B4604229A5E6B467D1980
:103360000821595E28B2FFF727FE0222089B13426C
:1033700008D1029B013B9BB20293019B02339BB29B
:103380000193BAE76B46B7B29D8B059B7A009A18FA
:10339000049B281BD91B12B209B200B2FFF70CFE26
:1033A0006B4604229A5E6B46ED1B0821595E28B2DB
:1033B000FFF702FEDDE70BB0F0BDF0B587B01F00F0
:1033C0000CAB00241C5F01900E00012C03DC3B00C1
:1033D000FFF70FFE55E06B469B88A1B202935B1886
:1033E0001BB2009393B203934B009BB20493049AD5
:1033F000039B31009D1A2DB22A000098BFB2FFF73F
:10340000E8FDB6B27B1EF3189BB205936B462A000B
:103410001421595E0098FFF7DCFDA3B29E19049BAE
:1034200036B2FF1A3FB231003A000198FFF7C4FDEF
:10343000039B31005D1E029B3A005D19ADB228B2BC
:10344000FFF7BAFD3100012322000098FFF7BAFE12
:10345000A3B2ED1A2DB23100022322002800FFF79B
:10346000B1FE059BA2B29E1A36B20423220031009F
:103470002800FFF7A7FE0823220031000098FFF77D
:10348000A1FE07B0F0BDF0B587B00C000CA9002676
:103490008E5F012E03DC2100FFF7C6FD2DE0B7B2E1
:1034A00081B292B27D0004920291AAB2C91905922A
:1034B00009B20391049A0599013B9DB2521A2BB2AD
:1034C000210012B20398FFF7AFFD059B3C19ED1ADE
:1034D000049B24B2581E029B2DB21818C01B00B2C8
:1034E0000123320021000095FFF7EBFE0095022337
:1034F000320021000398FFF7E4FE07B0F0BDFFFFA4
:10350000054B064A18600378013313704378044A68
:10351000013313707047C046C8040010C204001085
:10352000A9020010124A134B10B504001A60FFF7ED
:1035300039FC0122104B11481A70114BDB321A80F2
:10354000104B2C3A1A80FFF7DBFF11220E4B04219F
:103550001A8000230D4A200013800D4A11700D4A75
:1035600013600D4A136093611363936410BDC046EA
:1035700035050010AC02001030050010786F000017
:10358000B2020010CE0400102A010010C404001082
:10359000B0020010B4040010D004001010B5084BA5
:1035A00009B21B6800B29B78D21A064BD2B21B78C4
:1035B000002B02D0FFF7CAFA01E0FFF72FFC10BD85
:1035C000C804001030050010024B1878431E9841C3
:1035D000C0B270473005001009490A4A0A4B00285A
:1035E00005D001200870DC211180B02205E00870B0
:1035F000064909781180064A12781A807047C04639
:1036000030050010B2020010CE0400102801001096
:103610002C01001010B50B4C0B490023E25E0B4B44
:1036200009881B685B785800091A0948007840B27D
:103630008A4203DDC018FFF735FD02E0C3189B186E
:10364000238010BDC0040010CE040010C804001078
:103650002001001070B52B4B04001A68D378002BA2
:1036600003D0602801D9203CE4B20E2C21D82000E0
:1036700001F036FC461F1F1F1F1F1F1F0E1F081FB4
:103680001F1B46000022204B1A80FFF7C3FF37E0C4
:103690001D4910780B882022181A1C4B80B2088014
:1036A0001978C0B2FFF77AFF2AE00022164B1A8081
:1036B00026E0154D12780023E85E154B1B889B1AF7
:1036C00098420BDB00232B80124B1B78002B17D06A
:1036D000FFF7A0FF0D4B2878197802E00B4BC0B222
:1036E00019782200FFF75AFF202C06D10A4B1B78CD
:1036F0005BB2002B01D0401001302B8818182880B5
:1037000070BDC046C8040010CC040010C0040010F6
:10371000B2020010220100102701001010B50400B1
:103720002078002803D00134FFF794FFF8E710BD9C
:1037300010B5FFF7F3FF10BD10B50D20FFF78AFF9E
:103740000A20FFF787FF10BD10B5FFF7E7FFFFF76F
:10375000F3FF10BD024B1880024B19807047C04622
:10376000CC040010C00400100023F0B5050089B09F
:103770000E00984203D13020FFF76CFF1CE05C1C68
:1037800028006B4431001F0001F03AFC280039701A
:10379000310001F0AFFB2300051EF0D16B46013C68
:1037A0001B5D18003730C0B2092B01D83033D8B2B6
:1037B000FFF750FF002CF1D109B0F0BD10B5041E89
:1037C00003DA2D20FFF746FF64420A212000FFF7AD
:1037D000CBFF10BD10B5002903D1C0B2FFF73AFFEF
:1037E00007E00A2902D1FFF7E9FF02E0C9B2FFF7BB
:1037F000BBFF10BD10B5FFF7EDFF10BD10B5FFF713
:10380000E9FFFFF799FF10BD10B5044C2080044874
:10381000018019001000FFF7DDFF10BDCC0400107F
:10382000C004001010B5002903D1C0B2FFF712FF89
:1038300002E0C9B2FFF798FF10BD10B5FFF7F2FF25
:10384000FFF77AFF10BD10B5FFF7ECFFFFF774FF2D
:1038500010BDFFFF10B50248FEF7A3F910BDC0462A
:103860003405001089104901D210C0100A43C0026B
:103870001043704770B504000025074EA2786178A8
:103880002078FFF7EFFF6B000135F0520334102D65
:10389000F4D1024B1E6070BDB4020010BC040010D5
:1038A00070B51F24050025400C40641B23B2534310
:1038B0001B12EB183F2544114E112C40C00A354015
:1038C000C9122D1B091A55434A4312122D12801892
:1038D0001BB26419021C002800DA002212B2D202C4
:1038E000181C002B00DA00201043231C002C00DAE7
:1038F00000231BB25B01184380B270BD0022034B52
:103900001A70034BFF321A707047C0465D180010E2
:103910005C180010F7B507000024E500280000F04F
:10392000E7FF3B78834204D00134302CF5D1FF20EF
:1039300015E02B000026083300937B1B0193280021
:1039400000F0D6FF019B5B5D01351B1A58424341D5
:10395000F618009BAB42F2D1082EE5D12000FEBD47
:1039600010B50024E00000F0C3FF002803D00134AC
:10397000302CF7D1CF34200010BD10B500236F28B4
:1039800006DC8130FF3000F0B3FFC343DBB2DB095C
:10399000180010BD70B5002425002000FFF7EDFFD2
:1039A000431E984101342D18702CF6D1280070BDAB
:1039B000F8B5CD002E0007002C0009367B1B195DE1
:1039C0002000013400F09DFFB442F7D1F8BDFFFFA5
:1039D000F8B50023124C06002370FFF79BFF114D32
:1039E000C0B228702F002F280DD8012323700E4C51
:1039F00008223100200001F02FF920003978FFF76C
:103A0000D7FF00200BE0FFF7ABFFC3B22B70012004
:103A10002F2B04D8FFF7BEFF0028E6D10230F8BDF7
:103A20005D1800105C18001054180010F8B5002341
:103A30000E000B7204002F2800DD2F24E400270065
:103A400025000837280000F053FF331B5855013577
:103A5000BD42F7D1F8BD70B5C02500246D00260029
:103A6000083620000021013400F04BFFB442F8D1A9
:103A7000AC42F4D170BDFFFF031C002800DA002324
:103A8000014A13807047C0465E18001010B5084BFD
:103A90001A780132D2B2072A00D907221A701B788D
:103AA000044AD05C044B188000B2FFF7E5FF10BD5C
:103AB00060180010A18200005E18001010B5074BBE
:103AC0001A78002A01D0013A1A701B78044AD05C97
:103AD000044B188000B2FFF7CFFF10BD6018001034
:103AE000A18200005E18001010B5002803DBFF283B
:103AF00002DDFF2000E00020034B1880034B002074
:103B0000185EFFF7B9FF10BD2E0100105E180010FF
:103B1000014B18887047C0465E18001010B5024867
:103B2000FEF73FF810BDC046611800100122014B9E
:103B30001A717047F91900100022014B1A71704771
:103B4000F91900100122014B5A717047F919001040
:103B50000022014B5A717047F91900100122014BE4
:103B60009A717047F91900100022014B9A71704741
:103B7000F91900100122014B5A707047F919001011
:103B80000022014B5A707047F91900100122014BB5
:103B9000DA707047F91900100022014BDA70704793
:103BA000F91900100022014B9A707047F9190010A2
:103BB0000022014B1A707047F919001010B5054B1F
:103BC0009A79002A02D0FFF761FF01E001229A7082
:103BD00010BDC046F919001010B5054B9A79002A9E
:103BE00002D0FFF76BFF01E001221A7010BDC04642
:103BF000F919001010B50448FCF750FF0122034BDF
:103C00001871034B5A6210BD001A0010F919001008
:103C1000004000A010B50448FCF740FF0222034B0F
:103C20005871034B5A6210BD501A0010F919001058
:103C3000004000A010B50448FCF730FF0422034BFD
:103C40009871034B5A6210BD64180010F9190010E6
:103C5000004000A010B50448FCF720FF0822034BE9
:103C60005870034B5A6210BDA8190010F9190010C2
:103C7000004000A010B50448FCF710FF1022034BD1
:103C8000D870034B5A6210BDB4180010F919001017
:103C9000004000A070B50F48FCF700FF0E4CA0716B
:103CA0000E48FCF7FBFEA379C0B220700C4D002B30
:103CB0000AD0002808D02B78002B01D1FFF7FEFE98
:103CC00000232370013300E0002320222B70054BDA
:103CD0005A6270BD64180010F9190010081900101C
:103CE000F8190010004000A070B50F48FCF7D6FE90
:103CF0000E4CA0710E48FCF7D1FEA379C0B2A070A3
:103D00000C4D002B0AD0002808D02B78002B01D1B5
:103D1000FFF7BCFE0023A370013300E00023402224
:103D20002B70054B5A6270BD64180010F919001011
:103D300058190010F8190010004000A010B52E4CC2
:103D40002E492000FCF7BEFE20002D49FCF7ABFEFB
:103D50002C4C2D492000FCF7B5FE20002B49FCF728
:103D6000A2FE2B4C2B492000FCF7ACFE20002A4978
:103D7000FCF799FE294C2A492000FCF7A3FE2000FD
:103D80002849FCF790FE284C28492000FCF79AFEB1
:103D900020002749FCF787FE264C27492000FCF726
:103DA00091FE20002549FCF77EFE254C2549200088
:103DB000FCF788FE20002449FCF775FE234900200B
:103DC000FCF7D0FF22490120FCF7CCFF214902205B
:103DD000FCF7C8FF20490320FCF7C4FF1F4904205B
:103DE000FCF7C0FF1E490520FCF7BCFF1D4906205B
:103DF000FCF7B8FF10BDC046001A0010393B0000A8
:103E00002D3B0000501A0010513B0000453B0000C4
:103E100064180010693B00005D3B0000A819001009
:103E2000813B0000753B0000B4180010993B000076
:103E30008D3B000008190010B13B0000D93B000089
:103E400058190010A53B0000BD3B0000F53B0000E9
:103E5000153C0000353C0000553C0000753C00005E
:103E6000953C0000E93C0000014B18797047C046C2
:103E7000F9190010014B58797047C046F919001024
:103E8000014B98797047C046F919001070B5264863
:103E9000FFF748FB254E26493000FCF7DBFD254D9A
:103EA000254C2A0021003000FDF720F8234E24493C
:103EB0003000FCF7CFFD2A0021003000FDF716F896
:103EC000204E21493000FCF7C5FD2A0021003000BA
:103ED000FDF70CF81D4E1E493000FCF7BBFD2A0013
:103EE00021003000FDF702F81A4E1B493000FCF7A4
:103EF000B1FD2A0021003000FCF7F8FF174E1849E9
:103F00003000FCF7A7FD2A0021003000FCF7EEFF8F
:103F1000144E15493000FCF79DFD2A0030002100A9
:103F2000FCF7E4FF70BDC04604190010001A001031
:103F30008412010000010010FD090000501A001059
:103F4000700801006418001088140100A8190010FE
:103F5000941A0100B41800106C0601000819001032
:103F6000C4320100581900107C0E0100A023054A3C
:103F700005491B0699500549C00058500021995029
:103F80007047C046882000000700F8FF8821000025
:103F900070B58A23A024042224069B01E2508023CA
:103FA000064D5B046351FFF7E1FF8023044A5B0188
:103FB000A350C046C046635170BDC04604220000F5
:103FC0008422000070B58823A024042224069B01CB
:103FD000E2508023054D5B046351FFF7C7FF802348
:103FE000034A5B01A350C046635170BD0422000028
:103FF0008422000010B5074C07492000FDF736FA6F
:1040000020000521FDF711FA04492000FDF7EAF927
:1040100010BDC046A01A0010FC0402009A99993EF7
:1040200010B504002020FFF7B3FF0020FFF7CAFF00
:104030002120FFF7ADFF0020FFF7C4FF2220FFF78C
:10404000A7FF2000FFF792FFA023882204211B0670
:10405000920199508021074A4904995080210648CD
:104060004901064C99501951C04601389950002811
:10407000F9D110BD04220000409700008422000006
:1040800010B52020FFF784FF0020FFF79BFF2120C1
:10409000FFF77EFF0020FFF795FF2220FFF778FF54
:1040A0000020FFF763FFA023882204211B06920152
:1040B00099508021074A49049950802106484901B6
:1040C000064C99501951C046013899500028F9D131
:1040D00010BDC0460422000040970000842200006A
:1040E00070B5A0250124784E2D06FFF783FFAC5153
:1040F0000A20FCF730FE754B0A20EC50FCF72BFE33
:10410000AC510A20FCF727FE2000FFF741FF8E206C
:104110004000FFF757FF0220FFF73AFF80204000E2
:10412000FFF750FF0320FFF733FF6948FFF74AFF0F
:104130000820FFF72DFF6748FFF744FF0C20FFF72B
:1041400027FF0020FFF73EFF0F20FFF721FF200091
:10415000FFF738FF2020FFF71BFF0020FFF732FF9B
:104160002120FFF715FF0020FFF72CFF1020FFF79D
:104170000FFF0020FFF726FF1120FFF709FF802027
:104180004001FFF71FFF0A20FCF7E5FD3020FFF795
:10419000FFFE0020FFF716FF3120FFF7F9FEDB20BE
:1041A000FFF710FF3220FFF7F3FE0020FFF70AFFB2
:1041B0003320FFF7EDFE0020FFF704FF3420FFF768
:1041C000E7FEDB20FFF7FEFE3520FFF7E1FE0020D3
:1041D000FFF7F8FE3620FFF7DBFEAF20FFF7F2FE19
:1041E0003720FFF7D5FE0020FFF7ECFE3820FFF761
:1041F000CFFEDB20FFF7E6FE3920FFF7C9FE0020E7
:10420000FFF7E0FE0A20FCF7A6FDFF20FFF7C0FE47
:104210000320FFF7D7FE5020FFF7BAFE2E48FFF726
:10422000D1FE5120FFF7B4FE2C48FFF7CBFE522001
:10423000FFF7AEFE2A4D0520FFF7C4FE5320FFF71F
:10424000A7FE2800FFF7BEFE5420FFF7A1FE254879
:10425000FFF7B8FE5520FFF79BFE234C0320FFF726
:10426000B1FE5620FFF794FE2000FFF7ABFE57206B
:10427000FFF78EFE1D48FFF7A5FE5820FFF788FECA
:104280002800FFF79FFE5920FFF782FE2000FFF76E
:1042900099FEB020FFF77CFE1548FFF793FEFF2044
:1042A000FFF776FE0020FFF78DFE0720FFF770FE78
:1042B0001048FFF787FEC820FCF74DFD2220FFF7CE
:1042C00067FEFFF7DDFE70BD0422000084220000BF
:1042D000301000000808000003020000090A000076
:1042E000211000000206000003070000070500007F
:1042F0000125000017100000F8B584B21500DB2C72
:1043000025D88EB2AF2E22D82020FFF741FE3000F4
:10431000FFF758FE2120FFF73BFE2000FFF752FE7B
:104320002220FFF735FEA0248823042224069B01C7
:10433000E25080278023064E5B047F01A3512800B2
:10434000A751FFF713FE034BE750C046A751F8BD36
:104350000422000084220000F0B587B00CAC248851
:104360000494904202DD040010002200994202DD14
:104370000C0019002300DC284CDCB0294ADC141C9A
:10438000DC2A00DDDC2422B203921A1CB02B00DDF3
:10439000B02213B20293061C002800DA002636B2BF
:1043A0000C1C002900DA0024A02524B22D06039B52
:1043B0009E422FDC2020FFF7EBFDA0B2FFF702FEAC
:1043C0002120FFF7E5FDB3B218000193FFF7FAFDD6
:1043D0002220FFF7DDFD882204239201AB508027C5
:1043E000802226000C4B52047F01EA50EF500593C7
:1043F000029B9E420ADA0498FFF7B8FD074BEF5084
:10440000C046059B0136EF5036B2F1E7019E0136FA
:1044100036B2CCE707B0F0BD0422000084220000D1
:10442000F0B5DFB0059020200491FFF7B1FD00202A
:10443000FFF7C8FD2120FFF7ABFD0020FFF7C2FD0D
:104440002220FFF7A5FDA0248823042224069B0137
:10445000E25080239B4E5B048025A35100236D0115
:10446000A5510393039B00225910059B59180F2354
:104470009C460B78049F18114000C05B06AFD053D8
:10448000674610003B40049F5B00DB5BB03006AF2B
:1044900002323B523731B02AEBD10223DB190193B0
:1044A0000293029B884F023B1888FFF75FFDE5519E
:1044B000C046A551E551C046029BA5511888FFF79B
:1044C00055FDE551C046A551E551C046029BA55199
:1044D0005888FFF74BFDE551C046A551E551C04650
:1044E000029BA5519888FFF741FDE551C046A551B3
:1044F000E551C046029BA551D888FFF737FDE5512D
:10450000C046A551E551C046029BA5511889FFF749
:104510002DFDE551C046A551E551C046029BA55170
:104520005889FFF723FDE551C046A551E551C04626
:10453000029BA5519889FFF719FDE551C046A55189
:10454000E551C046029BA55110330293B22306AA3F
:104550009B18029A9342A4D1019B023B1888FFF753
:1045600005FDE551C046A551E551C046019BA55149
:104570001888FFF7FBFCE551C046A551E551C04640
:10458000019BA5515888FFF7F1FCE551C046A551A4
:10459000E551C046019BA5519888FFF7E7FCE5511E
:1045A000C046A551E551C046019BA551D888FFF7EB
:1045B000DDFCE551C046A551E551C046019BA55122
:1045C0001889FFF7D3FCE551C046A551E551C04617
:1045D000019BA5515889FFF7C9FCE551C046A5517B
:1045E000E551C046019BA5519889FFF7BFFCE551F5
:1045F000C046A551E551C046019BA551103301931A
:10460000B22306AA9B18019A9342A5D132AB01931B
:104610000293029B1888FFF7A9FCE551C046A551FB
:10462000E551C046029BA5515888FFF79FFCE55114
:10463000C046A551E551C046029BA5519888FFF799
:1046400095FCE551C046A551E551C046029BA551D8
:10465000D888FFF78BFCE551C046A551E551C0460F
:10466000029BA5511889FFF781FCE551C046A55171
:10467000E551C046029BA5515889FFF777FCE551EB
:10468000C046A551E551C046029BA5519889FFF748
:104690006DFCE551C046A551E551C046029BA551B0
:1046A000D889FFF763FCE551C046A551E551C046E6
:1046B000029BA55110330293029A5EAB9342A8D19C
:1046C00004E0C0460422000084220000019B1888F8
:1046D000FFF74CFCE551C046A551E551C046019B92
:1046E000A5515888FFF742FCE551C046A551E55158
:1046F000C046019BA5519888FFF738FCE551C0469C
:10470000A551E551C046019BA551D888FFF72EFC65
:10471000E551C046A551E551C046019BA5511889F8
:10472000FFF724FCE551C046A551E551C046019B69
:10473000A5515889FFF71AFCE551C046A551E5512E
:10474000C046019BA5519889FFF710FCE551C04672
:10475000A551E551C046019BA551D889FFF706FC3C
:10476000E551C046A551E551C046019BA551103306
:104770000193019A5EAB9342A8D1039B023303934A
:104780006E2B00D06EE65FB0F0BDC046F0B585B0D0
:104790000600029172B64C4B984202D8050B0205F6
:1047A00011E04A4B1C2598420CD8494B013D9842D8
:1047B00008D8484B013D984204D8474D8542AD4149
:1047C0006D421835720453425341DBB201933223D8
:1047D000424C434F23606560424BA5603900200086
:1047E0009847404A3B680392002B01D0012068E0C3
:1047F000E422920296425FD0019A002A21D00193CE
:104800003423FA212360384B890018686560A5605D
:1048100000F070FB324FE060324B390020009847C7
:104820003B68002BE2D13233236065602D4BA560DD
:104830003900200098473B68002BD7D1019B002B03
:1048400018D133232360029BFA21A36080235B00ED
:10485000E360254B89001868666000F04BFB204D33
:104860002061290020001F4B984728680028BDD1EF
:1048700062B626E03B232360E023FA219B006360BD
:104880001A4B8900A360184B186800F033FB144FD3
:10489000E060144B3900200098473B68002BA5D1FD
:1048A0003233236065600F4BA560390020009847C4
:1048B0003B68002BC5D099E7019B002BDAD0012380
:1048C0009DE705B0F0BDC046FF7F0100FF7F0300FC
:1048D000FFFF0200FF7F0200FFFF0100A81B001086
:1048E000BC1B0010F11FFF1F18010010FF03000088
:1048F00013B56B46DC1D0122210003F061FF207817
:1049000016BD07B56B46D97107330122190003F0B4
:1049100031FF07BD024A13680A3313607047C0466F
:10492000CC1B0010044B054A07215A6000229A60F4
:104930001960034B1A60704710E000E0FF52070057
:10494000CC1B0010014B18687047C046CC1B0010F0
:1049500010B50020FCF750F90400FCF7E3FF034B0F
:104960001878001900F036FA10BDC0460402001095
:10497000A023802104201B0689015A5810B5024348
:1049800080205A50294A400199580143802099506B
:104990009958400401430120995099580143995076
:1049A000234924485A5802435A5023480021FCF70F
:1049B000EBFC00212148FCF7E7FC00212048FCF734
:1049C000E3FC00211F48FCF7DFFC00211E48FCF738
:1049D000DBFC00211D48FCF7D7FC00211C48FCF73C
:1049E000D3FC00211B48FCF7CFFC00211A48FCF740
:1049F000CBFC00211948FCF7C7FC00211848FCF744
:104A0000C3FC00211748FCF7BFFC00211648FCF747
:104A1000BBFC00211548FCF7B7FC00211448FCF74B
:104A2000B3FC00211348FCF7AFFC10BD04200000CC
:104A300008200000F8FF0700000702000409020038
:104A4000080B02000C0D0200100F020014110200EE
:104A5000181302001C15020020170200241902007E
:104A6000281B02002C1D0200301F0200342102000E
:104A7000382302003C25020010B50A4B187801F0DB
:104A8000AFFA011C084800F0DDFD084900F0A4FF62
:104A9000F621890500F0A0FF00F046FC044B1880C9
:104AA00010BDC04634010010000070420044AC4606
:104AB000D41B0010454AF8B5564692464B005B0D94
:104AC0009A444D465F4644465246F0B48946050036
:104AD0000C000E000700132A22DC002A47DB524696
:104AE0003B4B134198460B0042461340034311D001
:104AF000384A394B01F0B2FA0022002300F09AFB49
:104B0000002805D0002C41DB4E46434600279E433B
:104B1000380031003CBC90469946A246AB46F8BDF1
:104B20005246332A08DD8023DB009A45F2D1020089
:104B30000B0001F093FAEDE7284A94460122634402
:104B40005242DA4093460242E4D0224A224B01F01C
:104B500085FA0022002300F06DFB0028D8D0002C3D
:104B60001ADB5B464E469F4338003100D2E7194AB4
:104B7000194B01F073FA0022002300F05BFB0028C0
:104B8000C6D0002C16DB00270026C1E78023524642
:104B90005B0313419944B7E75346142B12D03423D7
:104BA000524601279B1A9F407F19AF429B415B42AF
:104BB0009944D6E76400640825430027002DA7D058
:104BC000074EA5E7133B9C46E144CAE701FCFFFF03
:104BD000FFFF0F009C7500883CE4377EEDFBFFFF74
:104BE0000000F0BF0E4B70B500251E000D4CE41AFE
:104BF000A410A54204D0AB00F35898470135F8E75C
:104C000003F0E4FB084B00251E00084CE41AA41036
:104C1000A54204D0AB00F35898470135F8E770BDC2
:104C2000D8830000D8830000D883000000840000EF
:104C300010B5034B0100186800F06CF810BDC046B9
:104C40009801001010B5034B0100186800F016F829
:104C500010BDC04698010010002310B59A4203D041
:104C6000CC5CC4540133F9E710BD030082189342B1
:104C700002D019700133FAE77047FFFF70B50500E5
:104C8000002944D00C1F2368002B00DAE418280008
:104C900000F024F91E4A13681100002B02D1636052
:104CA000146031E0A3420DD92268A018834203D1D9
:104CB00018685B688218226063600C6024E0A2427E
:104CC00003D813005A68002AF9D11E689819A04227
:104CD0000BD12168711858181960824214D11068DC
:104CE0005268411819605A600EE0A04202D90C23A4
:104CF0002B6009E021686018824203D11068526875
:104D00004118216062605C60280000F0E8F870BD26
:104D1000DC1B0010032370B5CD1C9D430835060035
:104D20000C2D01D20C2501E0002D01DBA94202D996
:104D30000C23336048E0300000F0D0F8234B1C68AF
:104D40001A002100002913D00B685B1B0DD40B2B1C
:104D500002D90B60CC181EE08C4202D1636813604C
:104D60001AE04B6863600C0016E00C004968E9E744
:104D7000174C2368002B03D1300000F095F8206019
:104D80002900300000F090F8431C18D00323C41C05
:104D90009C43A0420DD12560300000F0A0F8200017
:104DA00007220B30231D9043C31A0ED05A42E25003
:104DB0000BE0211A300000F077F8431CEBD10C23F4
:104DC0003000336000F08BF8002070BDDC1B001059
:104DD000D81B0010104B70B51C680500A36B002B8E
:104DE00015D11820FFF724FF0C4BA06303800C4B58
:104DF000012243800B4B83800B4BC3800B4B038101
:104E0000052343810633838100230261436100222D
:104E1000A36B1D615A6170BD980100100E33000034
:104E2000CDABFFFF341200006DE6FFFFECDEFFFFAD
:104E3000154B10B51C68A36B002B15D11820FFF77C
:104E4000F7FE124BA0630380114B01224380114BEC
:104E50008380114BC380114B0381052343810633AB
:104E60008381002302614361A46B0D4A206961695B
:104E70000C4B00F02DFA01220023801859412061CB
:104E800061614800400810BD980100100E33000019
:104E9000CDABFFFF341200006DE6FFFFECDEFFFF3D
:104EA0002D7F954C2DF45158002370B5064C05000C
:104EB00008002360FBF77AFE431C03D12368002B14
:104EC00000D02B6070BDC046E01B0010031C0A78A8
:104ED00001311A700133002AF9D1704770477047C9
:104EE00002B4714649084900095C49008E4402BC7D
:104EF0007047C046002243088B4274D303098B429B
:104F00005FD3030A8B4244D3030B8B4228D3030C99
:104F10008B420DD3FF22090212BA030C8B4202D33B
:104F20001212090265D0030B8B4219D300E0090A63
:104F3000C30B8B4201D3CB03C01A5241830B8B426C
:104F400001D38B03C01A5241430B8B4201D34B0355
:104F5000C01A5241030B8B4201D30B03C01A5241BA
:104F6000C30A8B4201D3CB02C01A5241830A8B423F
:104F700001D38B02C01A5241430A8B4201D34B0228
:104F8000C01A5241030A8B4201D30B02C01A52418C
:104F9000CDD2C3098B4201D3CB01C01A5241830940
:104FA0008B4201D38B01C01A524143098B4201D37A
:104FB0004B01C01A524103098B4201D30B01C01AA5
:104FC0005241C3088B4201D3CB00C01A524183081F
:104FD0008B4201D38B00C01A524143088B4201D34C
:104FE0004B00C01A5241411A00D2014652411046AC
:104FF0007047FFE701B5002000F0F0F802BDC046A1
:105000000029F7D076E7704703460B437FD4002290
:1050100043088B4274D303098B425FD3030A8B424C
:1050200044D3030B8B4228D3030C8B420DD3FF22B6
:10503000090212BA030C8B4202D31212090265D084
:10504000030B8B4219D300E0090AC30B8B4201D337
:10505000CB03C01A5241830B8B4201D38B03C01A7E
:105060005241430B8B4201D34B03C01A5241030BF5
:105070008B4201D30B03C01A5241C30A8B4201D3A6
:10508000CB02C01A5241830A8B4201D38B02C01A51
:105090005241430A8B4201D34B02C01A5241030AC8
:1050A0008B4201D30B02C01A5241CDD2C3098B42AD
:1050B00001D3CB01C01A524183098B4201D38B012A
:1050C000C01A524143098B4201D34B01C01A5241CD
:1050D00003098B4201D30B01C01A5241C3088B4212
:1050E00001D3CB00C01A524183088B4201D38B00FD
:1050F000C01A524143088B4201D34B00C01A52419F
:10510000411A00D201465241104670475DE0CA0F75
:1051100000D04942031000D34042534000229C4635
:1051200003098B422DD3030A8B4212D3FC2289013F
:1051300012BA030A8B420CD3890192118B4208D315
:10514000890192118B4204D389013AD0921100E077
:105150008909C3098B4201D3CB01C01A524183098B
:105160008B4201D38B01C01A524143098B4201D3B8
:105170004B01C01A524103098B4201D30B01C01AE3
:105180005241C3088B4201D3CB00C01A524183085D
:105190008B4201D38B00C01A5241D9D243088B42B3
:1051A00001D34B00C01A5241411A00D20146634656
:1051B00052415B10104601D34042002B00D54942BA
:1051C000704763465B1000D3404201B5002000F0F9
:1051D00005F802BD0029F8D016E770477047C046B1
:1051E0008446101C62468C46191C634600E0C0468B
:1051F0001FB501F003FB002801D40021C8421FBDE8
:1052000010B501F057FA4042013010BD10B501F061
:10521000F5FA002801DB002010BD012010BDC046BA
:1052200010B501F0EBFA002801DD002010BD0120CF
:1052300010BDC04610B501F07DFA002801DC002049
:1052400010BD012010BDC04610B501F073FA002852
:1052500001DA002010BD012010BDC0468446081CA4
:105260006146FFE71FB500F073FB002801D4002161
:10527000C8421FBD10B500F0FFFA4042013010BD1A
:1052800010B500F065FB002801DB002010BD0120F7
:1052900010BDC04610B500F05BFB002801DD00200A
:1052A00010BD012010BDC04610B500F00DFB002858
:1052B00001DC002010BD012010BDC04610B500F07B
:1052C00003FB002801DA002010BD012010BDC046FC
:1052D000F0B54F464646C0B41604360C9946330026
:1052E00005042C0C070C150C63437E436F43654388
:1052F0001C0CAD1964199C46A64203D980235B029D
:10530000984647446346250CEF191D044B464A4313
:1053100043432D0C240464199918C91920000CBCAE
:1053200090469946F0BDC0469E2110B5C905041CA3
:10533000FFF7C4FF002803D1201C00F0E7FD10BDDB
:105340009E21201CC90500F05BFC00F0DFFD8023DE
:105350001B069C466044F2E7F8B54A02430244004B
:105360004E00C50F240E28009B09360EC90F920966
:105370008D4259D0A01B002800DC8DE0002E1AD1F0
:10538000002A00D079E05A0704D00F221A40042ADC
:1053900000D004335A0138D50134FF2C00D189E004
:1053A00028009B015B0AE4B25B02E4055B0A23432D
:1053B000C0071843F8BDFF2CE5D08021C9040A437B
:1053C0001B2800DD89E016002021C640081A824013
:1053D000511E8A4132439B1A5A0114D59B019E09E2
:1053E000300001F0FFFA05388640844265DC041B7A
:1053F000330020200134E340041BA640721E964176
:1054000000243343BFE75A07BFD1DF082800FF2C31
:105410002FD1002F00D187E08022D20313003B431D
:105420005B025B0AFF24BFE7A11B002949DD002EB8
:1054300029D0FF2CA7D08026F60432431B2900DD9B
:105440008DE017002026CF40711A8A40511E8A41F4
:105450003A439B185A01D6D50134FF2C64D001225F
:1054600076491A405B080B4013438CE7031ECAD1F0
:1054700000207B025B0AE4B296E701380028AAD03C
:10548000FF2C9DD17FE7002A00D17CE7013900295C
:10549000DFD0FF2CD2D176E7002820D1601CC0B22B
:1054A000012853DD80279E1AFF0437402FD0D61ADB
:1054B0000D0095E72800002376E7614B241A33405E
:1054C00061E700294DD1611CCEB2012E2FDDFF29ED
:1054D0002AD09B185B080C0055E701227BE7002CC3
:1054E0001BD1002B5BD0C04300280CD0FF2E7ED0F8
:1054F0001B2800DD92E01D002024C540201A8340B7
:10550000581E83412B43D31A34000D0064E7002E4C
:1055100000D065E700200024ABE7FF2E67D0802491
:10552000E40440422343E3E7FF2400233CE7002C4C
:1055300061D1002B7ED0002A00D124E79B185A01AC
:1055400000D460E73E4A0C0013401CE7002C1ED13B
:10555000002B2FD1002A66D013000D0013E7012283
:1055600077E7002C1FD1002B5AD0C94300290BD05C
:10557000FF2E50D01B295FDC1F002024CF40611A72
:105580008B40591E8B413B439B18340062E7002B34
:105590001CD1002A4AD013000D00FF24F3E61300AB
:1055A00034000D00EFE6FF2E35D08024E40449429C
:1055B0002343DFE7002A00D1E5E68027981AFF049D
:1055C000074000D152E7D31A0D00DCE6FF24002A81
:1055D00000D1D8E68020DB08C003034204D0D20803
:1055E000024201D113000D00DB00FF24CBE61300C3
:1055F000FF240D00C7E6002B0DD0FF24002A00D1A8
:10560000C1E68021DB08C9030B42EDD0D2080A4273
:10561000EAD11300E8E71300FF24B4E6012372E7A0
:1056200013003400AFE60027002022E78027002087
:10563000FF03F1E61300A6E60123A5E7FFFFFF7DC8
:10564000FFFFFFFBF0B5564644465F464D46F0B4BB
:1056500044024600C70F83B08846650A360EBA4634
:105660003DD0FF2E22D00023EC00802599469B469A
:10567000ED0425437F3E43465C025800DB0F640A7D
:10568000000E984636D0FF2830D080230021E40059
:10569000DB041C437F38301A0190484642460843D9
:1056A000724E800030587A4013008746002D44D156
:1056B00008239946063B9B46DDE70122FF20002494
:1056C0001A406402C305640AD2071C431443200035
:1056D00003B03CBC90469946A246AB46F0BD002DB7
:1056E00020D104239946033B9B46C4E7002C17D1E5
:1056F000022102E0002C0AD10121321A01924A460D
:1057000043460A435A48920082587B4097462000FD
:1057100001F068F9431F76309C4040420021BAE70F
:105720000321B8E7280001F05DF9431F9D400023E5
:105730007630464299469B469DE70C239946093BA5
:105740009B4698E780240022E403FF20B9E7002469
:10575000C2468B465A465346022AAED0032A7DD013
:10576000012A31D1012200201A400024A9E7012298
:10577000101A1B2856DD1A4000200024A1E78023C0
:10578000DB031D424BD18023DB032B435C02640A05
:105790003A00FF2095E76D016001854230D2019A01
:1057A0000024013A01921B220127290064006D00A8
:1057B000002901DBA84201D82D1A3C43013A002AF6
:1057C000F3D16A1E95412C4301987F300028CEDD2D
:1057D000620704D00F222240042A00D004342201A0
:1057E00003D5244A019814408030FE2800DD64E788
:1057F0000122A401640AC0B21A4062E72C00A9E7A2
:105800002D1A1A220124CFE76B02BCD50024802375
:10581000DB031C436402640A4246FF2051E71C423A
:10582000B3D1F4E721002022C140101A8440621E47
:1058300094410C43620704D00F222240042A00D076
:105840000434620104D5012201201A40002438E703
:105850000122A401640A1A40002032E78023DB03FE
:105860001C436402640A5246FF202AE70C830000AE
:105870004C830000FFFFFFF7430270B542004C006D
:105880005D0AC30F4802120E460A240EC90FFF2AF2
:105890000FD0FF2C11D00120A24200D070BDB54224
:1058A000FCD18B420DD0002AF8D12800431E98412C
:1058B000F4E70120002DF1D1EBE70120002EEDD11E
:1058C000E9E70020EAE7C0464302F0B542005D0A7E
:1058D000C30F4802440A4800120E000EC90FFF2AE7
:1058E0001FD0FF2822D0002A09D16E426E41002825
:1058F0000FD1002C0DD10020002D09D005E000288B
:1059000001D1002C01D08B4213D0584201231843FF
:10591000F0BD002EF7D048424141012049420843E2
:10592000F6E7002DDDD002204042F1E7002CDAD06E
:10593000F9E78242E9DC04DBA542E6D80020A54273
:10594000E6D25842434101205B421843E0E7C0469B
:105950004302F0B542004C005E0AC30F4802120E2B
:10596000450A240EC90FFF2A17D0FF2C19D0002A90
:105970000BD170427041002C17D0002807D048424C
:105980004141012049420843F0BD002C13D08B4215
:1059900014D0584201231843F6E70220002EF3D119
:1059A000E3E70220002DEFD1E1E7002DE5D1002053
:1059B000002EE9D0EDE7002DE9D1EAE7A242E8DCCC
:1059C00004DBAE42E5D80020AE42DDD2584243416E
:1059D00001205B421843D7E7F0B557464E4645468F
:1059E0004300E0B446028846760A1F0EC40F002F1B
:1059F00047D0FF2F25D0002380259A469946F600F0
:105A0000ED042E437F3F434642465D02D20F5B00CA
:105A10006D0A1B0E904640D0FF2B39D0802200200B
:105A2000ED00D20415437F3BFB1842465746591CF4
:105A300062408C4607430F2F5CD86F49BF00C9599D
:105A40008F46002E45D108239A46063B9946DAE751
:105A5000424602282DD0032800D1C3E0012800D0FF
:105A6000A2E0002500260240D4B27602ED05760AB7
:105A70002E43E407264330001CBC90469946A246BC
:105A8000F0BD002E1AD104239A46033B9946BAE78B
:105A90002A00511E8A41901CC6E70120002DC3D068
:105AA000280000F09FFF431F76309D4043420020B6
:105AB000BAE70124FF2514400026D6E7300000F0A5
:105AC00091FF431F9E400023763047429A469946F5
:105AD00099E70C239A46093B994694E780260024CF
