:1000000000800010FD000000350E0000370E0000DB
:1000100000000000000000000000000000000000E0
:10002000000000000000000000000000390E000089
:1000300000000000000000003B0E0000E95A000034
:100040003D0E00003D0E00003D0E00003D0E000084
:100050003D0E00003D0E00003D0E00003D0E000074
:100060003D0E00003D0E00003D0E00003D0E000064
:100070003D0E00003D0E00003D0E00003D0E000054
:100080003D0E00003D0E00007D5600003D0E0000BC
:100090003D0E00003D0E00003D0E00003D0E000034
:1000A0003D0E00003D0E00003D0E00003D0E000024
:1000B0003D0E00003D0E00003D0E0000000000005F
:1000C000A49A00000001001088000000A49A00001B
:1000D0000000002000000000A49A00000040002062
:1000E0000000000088010010183600000000002009
:1000F00000000000004000200000000010B5114C7E
:10010000114B9C4207D2206861680C34231F1A6887
:1001100000F095FEF4E70D4B9C4205D22068616823
:1001200000F096FE0834F6E700F0F2FD084B002BD5
:1001300002D000E000BFFEE705F09AFF00F03AF8B9
:10014000F9E7C046C0000000E4000000FC00000029
:100150000000000010B5064C2378002B07D1054B9A
:10016000002B02D0044800E000BF0123237010BD23
:100170008801001000000000A49A000008B5084B98
:10018000002B03D00748084900E000BF0748036878
:10019000002B03D0064B002B00D0984708BDC0466B
:1001A00000000000A49A00008C01001088010010DB
:1001B0000000000007B502F069F801F0F3FF002825
:1001C0000DD0B02300200093011C021CDC2302F0A0
:1001D00083F90028F1D0024803F0E8F9EDE70EBDFD
:1001E000A47B000008B5024801F088FB08BDC046AA
:1001F000A401001008B5011C014800F029FD08BD4C
:100200005402001008B50348FF2100F021FDC0B2E0
:1002100008BDC04654020010F8B543B2041C0D1CC2
:10022000002B07DA77200021FFF7F6FF012832D8EC
:100230007F231C40A02688239B0136068027F75089
:10024000FFF7E0FF8A239B01F750FFF7DBFF201C3D
:10025000FFF7D0FF280EFFF7CDFF280CC0B2FFF745
:10026000C9FF280AC0B2FFF7C5FFE8B2FFF7C2FF17
:10027000402C04D08720482C02D0012000E095209B
:10028000FFF7B8FF0A24FFF7BDFF030603D5013CC3
:10029000E4B2002CF7D1F8BD73B58823404DA024FB
:1002A0009B0180222406E250281C3E4900F0C6FC37
:1002B000281C0821002200F0B5FC84239B01E35890
:1002C0006425013DEDB2FFF79DFF002DF9D14020DF
:1002D000291CFFF7A1FF041E012C35D1D521482090
:1002E0004900FFF799FF012815D1FFF78BFF01AEF9
:1002F000A8550135042DF8D1B378012B24D1F3781A
:10030000AA2B21D1284C8021C905E920FFF784FFC1
:10031000011E3BD11AE0E920291CFFF77DFF412691
:10032000012801D80224E926204D301C0021FFF7C6
:1003300073FF00282FD1002D06D080215020890086
:10034000FFF76AFF002813D0002411E0002CFBD037
:100350007A20FFF761FF0028F6D1041CFFF752FF57
:1003600030550134042CF9D133785A0600D50C24C9
:100370000F4BA0221C70882380219B011206D150B4
:10038000FFF740FF60426041C0B276BD013CA4B2BD
:10039000002CD9D0B7E7013DADB2002DD4D0C4E7D1
:1003A00054020010002D3101E02E0000A861000071
:1003B000A5010010F8B51D1C234B071C1B78141C4D
:1003C0001A0700D449025120FFF726FF002801D068
:1003D00001262FE01D4EFFF715FFFF2804D1013E37
:1003E000B6B2002EF4D0F6E7FE28F1D1184E761BF7
:1003F000361BB6B2002C02D13C1E05D10EE0013CEA
:10040000FFF700FFA4B2F5E7FFF7FCFE7A192070B2
:10041000013492B2A3B29A42F6D105E0013DADB2E9
:10042000FFF7F0FE002DF9D1013EB6B2FFF7EAFE6C
:10043000002EF9D18823A02280219B011206D150E1
:10044000FFF7E0FE301CF8BDA5010010307500007C
:1004500002020000064B821E1B680020D968023988
:100460008A4203D258789B695043C0187047C046EF
:10047000A80100100F4B10B51A6800230380836891
:10048000041C012B14D0D16801208B4211D2002B07
:1004900003D11178032900D15369E360002B03D005
:1004A000181CFFF7D7FF00E050692061002000E032
:1004B000181C10BDA8010010F0B5324B85B0041C0B
:1004C0001D6801285AD9EA68904257D22E78022E28
:1004D00032D0032E40D0012E50D183B25A08D31807
:1004E0009BB2DA055B0A0193274BD20D03AF296952
:1004F0009A4204D0019B381C591802230EE0019B3C
:10050000381C5918331CFFF755FF021E36D12969D4
:10051000019B01316846C9180D30331CFFF74AFFB3
:1005200000282BD17B7838781B0203431811E2078F
:1005300025D41805000D22E02B69010AC4B203AFCF
:10054000C9186200381C331CFFF734FF002815D18E
:1005500078783B7800020FE02B697F22C10903AE57
:100560001440C918A200301C0423FFF723FF002801
:1005700004D1707833780002184300E0012005B000
:10058000F0BDC046A8010010FF01000070B505884D
:10059000154B0135ADB2041C1E68002D01D103209E
:1005A00021E00369002BFAD02A0718D10133036137
:1005B000C068002803D1B388AB42F0D90FE072784D
:1005C0002B09013A1A420AD1FFF776FF012809D90F
:1005D000F3689842E3D2E060FFF73CFF206125809A
:1005E000002000E0012070BDA8010010F8B5041C37
:1005F0000D1C2B78202B01D10135FAE72F3B5A42F5
:1006000053410026ED18A6602B78202B2BD8201CF8
:10061000FFF730FF3E4B1B689B681E7076E0337817
:10062000002B65D0F27A082313405AD16268F15C3E
:100630000133D01801380078884252D10B2BF6D103
:10064000D37A002B61D13B689B68DA7AD1065AD500
:100650005A7D197D12020A43D97E9B7E090212043B
:100660000B431343A3606068021C031C0B329342CC
:1006700003D0202119700133F9E70022131C08214F
:100680005E1CEB5CF6B2202B10D92F2B0ED02E2B3C
:1006900034D08A420AD21F1C613F192F01D8203B57
:1006A000DBB2571C8354FAB2331CE9E70022202145
:1006B00099425241C272201CAD19FFF7DBFE00289F
:1006C00014D1134F3B689E6822880F231A405201B1
:1006D000301C21692023FFF76DFE00289FD00120E8
:1006E00014E0201CFFF752FF0028EDD003280DD1A5
:1006F0006368D87A43425841033007E00829D5D1CE
:100700000A1C0B21D0E7042000E00020F8BDC04601
:10071000A801001030B51B4B011C1D6891B00620CC
:10072000002D2CD0002308ACAB70AC6000AB03A84C
:100730000493FFF75BFF002821D123780320002BCF
:100740001DD0E27A1023134019D1617D227D090268
:100750001143E27EA07E1202090402430A436A6248
:10076000E17FA27F090612040A43217F181C0A4375
:10077000617FEB6109020A432A620122AA7011B06B
:1007800030BDC046A8010010F7B5314B01901C6880
:1007900000230D1C171C13809C4257D0A378052002
:1007A000D90754D5226AE169531A9D4200D99DB2F6
:1007B000019A0092002D43D0E669F3051BD1700A1F
:1007C000617805F02BFD00290BD1002E01D1606A64
:1007D00002E0A06AFFF770FE012833D90023A0626F
:1007E000E370A06AFFF736FE00282BD0E3785A1C8E
:1007F000C318E270E362E3692E1CDA058023D10D91
:100800009B005B1A9BB29D4200D91E1C0198009967
:10081000431E9841B6B240420840D20DE16A331CF3
:10082000FFF7C8FD00280DD1E269AD1B9319E36104
:10083000009BADB29B1900933B88F6183E80B9E748
:10084000281C04E00023A370012000E00620FEBD68
:10085000A80100102A4BF7B51C68002C4CD0A278D8
:100860000523D10749D5236A051E9D4200D91D1CC9
:100870000022E369E261954238D066787602002B67
:1008800012D0311C681E5F1E05F084FC311C0190E3
:10089000381C05F07FFC019A824205D373423B402D
:1008A000E361ED1AA06A0EE0606AA0620BE0FFF758
:1008B00003FE01281CD9E368984219D2E169A062BD
:1008C0008B19E361AD1BB542F1D8E2695319E361BD
:1008D000FFF7C0FD00280BD06B0ADAB2ED0501D19D
:1008E000E27003E001321818E270E062002304E0D5
:1008F0000023A370012300E00623181CFEBDC046A0
:10090000A801001030B5154B051C1B688DB00620E2
:10091000002B20D004AC9C6001AB6B60281CFFF75F
:1009200065FE002814D12378002B0ED0E37A042032
:10093000DA0610D5627D237D12021A43E37EA17E82
:100940001B0212040B431343AB60281CFFF792FDFC
:10095000032800D104200DB030BDC046A80100100E
:1009600038B5051C0C1C131C291C0248221C00F065
:1009700003F838BDB17B00000FB404B0704700002D
:1009800038B50368041C0D1C013304D1064807491F
:100990002422FFF7E5FF6368002D01D0E26800E044
:1009A0002269136038BDC046E27B0000FA7B00007C
:1009B00070B50D1C041C161C00F0A0FA013507D000
:1009C000201C002100F0C2FA201C311C00F0B8FAF3
:1009D00070BD08B50122FFF7EBFF08BD70B50D1C17
:1009E000041C161C00F08AFA01350BD0201C311CA7
:1009F000FFF7C6FF201C012100F0A8FA201C0021EF
:100A000000F09EFA70BD08B50022FFF7E7FF08BDB1
:100A100010B5044B041C083303601C3000F06EFB5F
:100A2000201C10BD487C000010B5041CFFF7F0FF2F
:100A3000201C00F017FA201C10BD00000F4B70B5F1
:100A40000833051C08C5041C0E1C281C0021182294
:100A500005F03EFB0023201C311CE361236263632D
:100A6000A363E364064A231C1C3000F0E5FA281C4B
:100A7000311CFFF7AEFF201C70BDC046487C000053
:100A8000E50A000008B50A1C031C1C30002905D02B
:100A90000022196201215A630A1C00E0012100F0C2
:100AA00041FB08BD08B50A1C031C1C30002905D0F9
:100AB00000229963DA640221012200E0022100F0A1
:100AC00031FB08BD08B54369011C002B04D1036844
:100AD000002B06D0984704E00068002801D00431BC
:100AE000984708BD08B5012903D0022904D1383040
:100AF00000E02030FFF7E6FF08BD000010B5041C41
:100B0000421C12D00B685A1C0CD0A34208D1201CE6
:100B1000896800F02DFB201C002100F045FB04E05B
:100B20000C31EFE70148FFF727FF10BD587C0000AC
:100B300008B588420AD0431C07D0013106D00448CA
:100B4000FFF71AFF0120404200E0081C08BDC04624
:100B5000697C00000B685A1C05D0834201D14868AB
:100B600002E00C31F6E7181C7047000010B5041CB9
:100B7000431C07D0FFF7EEFF041C431C02D10248C0
:100B8000FFF7FAFE201C10BD7A7C0000014B0833F1
:100B900003607047B87C000010B5044B041C083398
:100BA000036000F05FF9201C10BDC046B87C000057
:100BB00073B5041C0E480025083020600820E06052
:100BC0000C48261D606106986560257225610090BD
:100BD000301C00F027FC301C2B1CE168226900F05F
:100BE000A1FC301C616900F0D3FC201C76BDC0461E
:100BF000B87C000040420F0070B5094D041C2B6802
:100C000083420BD0061D301CE1682269002300F0EE
:100C100089FC301C616900F0BBFC2C6070BDC046D3
:100C2000AC01001008B5044B0261C16000221A60DB
:100C3000FFF7E2FF08BDC046AC01001008B5034B4A
:100C4000002241611A60FFF7D7FF08BDAC01001018
:100C500038B50D1C041CFFF7CFFF291C201D00F028
:100C6000DDFC38BD38B50368041CDB689847636851
:100C70005A682368002A02D19B68984714E05B6891
:100C80001568984763682D1A002D08DC5A6891682A
:100C900059601B68002BEAD050689847E7E75B680B
:100CA000226818681369984738BD000008B50248E3
:100CB000FFF7D8FF08BDC046E47C000038B5041C2F
:100CC00000F0E8FC051C00F0E5FC401BA042FAD354
:100CD00038BD08B5FA239B005843FFF7EFFF08BD66
:100CE0000A4A70B5956893682C1C002B0AD180269F
:100CF00076059C195E5904332660C02BF7D18024F9
:100D00006405946010308000015170BD00ED00E07A
:100D10007FB53E4A8021D06F49023D4B0143D167E8
:100D200023223C499A6001220A603B493B4D0A60FC
:100D300000228E211A6289005858202428400190F0
:100D40000198A0430190019CC82000022043585004
:100D500000920099324A914203D8C046009A01326B
:100D6000F6E7012200211A645A6459645A64596CE6
:100D7000274AC807FBD58E21890050588024284077
:100D80000290029820430290029EC820000206436F
:100D9000565023269660565835400395039DA5432B
:100DA0000395039C20435050D8680121184A0842FB
:100DB000FAD0032010670020516750675167586FC1
:100DC0000121134A0842FAD08E20916780001558FD
:100DD000144C2C4014501558134C2C401450002027
:100DE0009164D164D064D164DA6CD107FCD5084A2F
:100DF00023211161596901221142FBD00B4B0021C3
:100E0000196019600A4B1A607FBDC0460480044017
:100E100000800440F0400440F4400440FF250000FE
:100E2000C3090000FFFBFFFFFFFEFFFFC08004407F
:100E3000C88004407047704770477047704710B5CE
:100E40000023934203D21C585C500433F9E710BDD1
:100E500000238B4203D200221A500433F9E7704773
:100E60000020704708B505F029F908BD10B5041C2D
:100E7000421C04D1164817491E22FFF771FD164B7C
:100E80001A68002A06D101221A60144B1449DA6F3D
:100E90000A43DA670121002C12D0124B9C420FD07A
:100EA000114B9C420CD0114B9C4209D0104B9C42E0
:100EB00006D0104B9C4203D00F4BE1184B425941D6
:100EC000201CA40400F054F9E40E0120A04010BD41
:100ED000E77B0000EC7C0000B801001004800440B7
:100EE00040000100281400002C16000030180000FB
:100EF000341A0000381C0000C4E1FFFF38B5041CA0
:100F00000D1C21604A1C11D0081CFFF7AFFF2D14E7
:100F1000074AAD00AB18074AE360AB18064A2361E5
:100F2000AB186361054B6060ED18A56038BDC04625
:100F3000002200A0802200A0002100A0002000A02C
:100F400008B5006800F030F908BD000038B5036846
:100F5000041C0D1C013304D109480A494322FFF740
:100F6000FFFC002D06D0012D09D1A3686268196825
:100F70000A4303E0A36861681A688A431A6038BDAF
:100F8000E27B0000EC7C0000F8B5144D01210C1C44
:100F90006B6A8440234220D0114B8700F858002808
:100FA0001BD02B68234218D16B68234206D0EB6913
:100FB000234203D00B4B1B689847EC612B69074E0B
:100FC000234209D0336A234206D0054B0221D85967
:100FD000044B1B68984734626C62F8BD004000A067
:100FE000C0010010BC01001008B50020FFF7CCFFC5
:100FF00008BD08B50120FFF7C7FF08BD08B50220EE
:10100000FFF7C2FF08BD08B50320FFF7BDFF08BD0D
:1010100008B50420FFF7B8FF08BD08B50520FFF7A5
:10102000B3FF08BD08B50620FFF7AEFF08BD08B541
:101030000720FFF7A9FF08BDF0B5061C274885B0BB
:10104000814202DD0120404246E025480260002244
:10105000244895002C580294002C39D12B5022485A
:101060003260C46F214F224B3C43C4678803800F1A
:101070001824444349121F270F40111CBC465E31FF
:10108000644489000090CC50812189000124585883
:10109000271C9740384358500099A02388001B060E
:1010A000C01880239B01C75861460397271C8F40B7
:1010B0000399B943C1500F4B50B2E958FFF710FEE6
:1010C00033681F2213409C400B4B02981C6003E0C6
:1010D0000132082ABCD1B5E705B0F0BD13110200FA
:1010E000BC010010C0010010048004408000090011
:1010F00000800440347D000000E100E0036800212E
:101100009A00064B10B5D150054A81239B00006818
:10111000D15801248440A143D15010BDC00100101A
:1011200000800440036870B5104D012098402B6882
:10113000034200D168622E68C44326400B4B2E60E8
:10114000012909D1002A03D05A68104358600CE0E5
:101150005A6814405C6008E0002A03D01A69104302
:10116000186102E01A6914401C6170BD004000A0C3
:1011700038B5041C0D1C431C04D10848084915222D
:10118000FFF7EEFB074BE405E40DE41822680723A4
:101190009A431D40131C2B43236038BDE77B00009E
:1011A000547D00000040044038B5041C0D1C431C55
:1011B00005D1114811491D22FFF7D2FB06E081231A
:1011C0001B01984216D00E4B984213D0E4050D4BEC
:1011D000E40DE4182268042D04D18023DB001343BE
:1011E000236007E018239A4303231D40EB00151CDE
:1011F0001D43256038BDC046E77B0000547D0000DC
:10120000140A00000040044038B5051C0C1C081CE2
:10121000002105F0BFF8002809D1FE21201C890516
:1012200005F0CCF8002803D0FE24A40500E000243B
:101230002D6880239B00E85805F058FF211C05F01D
:1012400039FC05F0CFF881239B00E85038BDF7B595
:1012500080238122046895009B00E758081C66598A
:10126000E15005F0E7FE0190301C05F03FFF061C41
:10127000381C05F03BFF011C301C05F037FA011C3F
:10128000019805F017FC05F0ADF86051F7BD0000BE
:10129000F7B5041C0F1C081C5149FFF767FCC3B2CB
:1012A000061CFF2B02D14F48FFF766FB4E48012377
:1012B0000178051C0A1C1A4000D18EE01941194220
:1012C00000D084E02A78012199400A432A70474AD5
:1012D000990089586360216045498025C86F454A57
:1012E00001902806019D09330543CD67012051680F
:1012F0009840031C0B435360381C3949FFF7FEFB31
:1013000027683D4A3B683D4913433B607B680C229C
:1013100013437B607A683A4B13407B60394B7D689E
:10132000186804F037FF7F23013818404001284334
:101330007860F0B2012507281DD804F021FF040AC7
:101340001016040A1016A023DB00FD5002222E4BBB
:1013500010E0A123DB00FD5002222C4B0AE0A22367
:10136000DB00FD5002222A4B04E0A323DB00FD50EA
:10137000284B0222FA508022C12352019B00FA50CE
:101380000123C0225B429200BB502349C32292003A
:10139000B95080252149C222AD009200BB5079513D
:1013A0007B598126B6009B08BB517B68042293437E
:1013B0007B60201CFFF74BFF2468605905F096FE08
:1013C000002105F077FB05F00DF8A051F7BD14489A
:1013D000FFF7D2FA01235B4274E7131C72E7C046A1
:1013E0009C7D0000087E0000E0010010347E0000BB
:1013F00004800440008004400100060040420F00C9
:101400001FF0FFFF04010010040500000C050000A0
:10141000140500001C05000001100000204E000013
:10142000227E0000F0B587B0041C0091081C3149F1
:1014300001920293FFF79AFB2F49071C0198FFF7CF
:1014400095FB2E4D0390291C0298FFF78FFB2C4E25
:101450000490311C0C98FFF789FB03990590381C08
:10146000FFF766FB0599071C0498FFF761FB011C59
:10147000381CFFF75DFB204F2060013004D121486C
:1014800021494822FFF76CFA2368204A93420FD083
:101490001F4A934219D11F4A8021D06FC9020143CC
:1014A000D1671D4A01211D4B11605A6804210AE0D1
:1014B000184A8021D06F09010143D1671849174BA1
:1014C00001220A6059680A435A6000980949FFF7E7
:1014D00015FB0198391CFFF711FB0298291CFFF737
:1014E0000DFB0C9B013303D00C98311CFFF706FB5E
:1014F00007B0F0BD807F00003C7E0000787E0000D9
:10150000BC7F0000C07E0000D47E000000000440CC
:1015100000800540048004409C800440008004401A
:1015200094800440F8B51F1C0368151C5A680E1CF3
:1015300002218A435A60331F041C0C2B06D9032D49
:1015400004D9114811496522FFF70AFA23680122DC
:10155000281C1968D5401040C0012A40013E0643AE
:101560009201090C090416430E431E605A680D21AE
:101570008A43791E8F41BF0017435F6023680221B1
:101580005A680A435A60F8BD1A7F0000D47E0000F2
:10159000F7B5036802245A68051CA2435A601C4B25
:1015A0000E1C1B680193211C019804F0F3FD05F04B
:1015B00041FD071C301C05F03DFD011C381C05F0E9
:1015C00095F8FC21890504F025FF06F07BFA04F06C
:1015D00097FC06F043FAFF2810DC2B680D4A1C61CB
:1015E000196801380A401A601A680002104318602E
:1015F0002B6802215A680A435A6007E080230234AC
:101600005B009C42CFD10448FFF7B6F9F7BDC04656
:1016100004010010FF0000FF587F000010B50368B0
:10162000DA689407FCD599600368DA685107FCD53D
:10163000986810BD38B5104B1A68002A1AD10125D8
:101640001D600E4B8022D96FD2000A43DA670C4B23
:101650000C4C1868022363600B4904F09BFD0138B1
:10166000E0600A4965601320FFF73AFB8022084BCF
:1016700012031A6038BDC046E40100100480044023
:10168000040100100080014040420F00AD0C00003A
:1016900000E100E008B5044B1B68002B01D1FFF707
:1016A000C9FF024B986808BDE401001000800140AA
:1016B000034B012198615A690A435A617047C04639
:1016C00000800140024B01215A698A435A617047E8
:1016D00000800140014B01221A60704700800140E8
:1016E0007047704770477047014BFF221A70704770
:1016F000EA01001008B502F0C1FB08BD0023094A49
:10170000D15C094A002902D0D15C013105E0D05CEE
:10171000002803D0FF2800D0FF21D1540133072B2C
:10172000EDD17047102D0010ED010010034B185C37
:10173000013843425841C0B27047C046ED01001025
:1017400010B51E4B002219781A701D4A50780028D7
:1017500001D001201870D078002803D01878022416
:10176000204318701078002803D0187804242043F0
:1017700018709078002803D0187808242043187037
:101780001079002803D0187810242043187050795D
:10179000002803D018782024204318709279002A5A
:1017A00003D01A78402002431A701B78081C184096
:1017B0009943044A044B1070197010BDEC010010DD
:1017C000102D0010F5010010F4010010014B1879E4
:1017D0007047C046102D0010014B58787047C04626
:1017E000102D0010014BD8787047C046102D001006
:1017F000094A00231380094A1370094A1370094AE1
:101800001370094B012252421A80084A084B1A6091
:10181000084B09221A707047FC010010FB010010F0
:1018200004020010F6010010F8010010C489000045
:1018300000020010FA01001008B50248FFF7D8FFB7
:1018400008BDC046F701001037B572B6244B002121
:1018500059601961234B04221A60234B8E22920097
:101860009D588024E4002C439C509D5880246400A3
:101870002C439C5001225A671C1C5967616F01233D
:10188000194A1940FAD1116753675167616F0123F3
:10189000154A0B40FAD15364516C8E219360890034
:1018A000136753605558114C2C400194019C8025BE
:1018B0002C430194019DC82424022C435450A0229F
:1018C0008421120689015350094953500949535044
:1018D000094B9860001C01688D464068804737BD01
:1018E000004000A010E000E000800440FF25000060
:1018F000042100000821000000ED00E07047000016
:10190000F0B5C1B00E1C00F083FE00F08DFE802308
:10191000DB029B1B051E9D4200D91D1C00F06EFEC4
:10192000134801F0BFFE0024AC421DD280277F0087
:101930006846391C00F046FEFF2804D82B1BBB422A
:1019400001D90C4806E0A019694604F00DF80028FA
:1019500004D0094801F0A6FE012006E00134074842
:10196000FF3401F023FEDFE7002041B0F0BDC046A8
:101970002E8B00003A8B0000558B0000A78B0000D7
:10198000534B73B501261E70524B00241C80524DE0
:10199000FC23DB002B8000F069FE211C201C00F0E2
:1019A00095FE301C01F058FD0094019407F091FE63
:1019B0004A48042100F0E0FDA0420FD100F028FECB
:1019C0000820404200F006FE0421684600F0FAFDBF
:1019D000042101A800F0F6FD00F010FE404C414B40
:1019E00022689A4200D0404C22689A4200D03F4C74
:1019F00022689A4200D03E4C22689A4217D0202397
:101A00005B423C482B8001F04DFE009B002B03D035
:101A1000394B019A9A4242D8384801F043FE38487F
:101A200001F040FEFC23DB002B80364822E0364BE1
:101A300036482B8001F0BAFD01235B4260680A2121
:101A40002B8001F035FE009B6268934227D8A06886
:101A5000FFF7FAFE17E0FFF7C5FE002836D1FFF7C3
:101A6000BBFE0028F7D000980199FFF749FF002836
:101A700028D0274801F016FE05E0FFF761FEFFF7CA
:101A8000A5FE002804D1FFF7A1FE0028F5D01DE037
:101A9000FFF79CFE002819D0FFF752FEF8E71D4B18
:101AA0001D482B8001F082FD01235B4200980A2132
:101AB0002B8001F0FDFDFC23DB0018482B8001F09A
:101AC000F1FDCCE7164801F0EDFD87E773BDC04698
:101AD00011010010EA2A00100A0100101B8C0000FE
:101AE000F4FF03001EAB07B004FF030004FE030075
:101AF00004F00300238C0000FF7F0300378C0000FC
:101B0000E17B00004E8C0000FF070000698C0000A4
:101B1000738C00001FF8FFFF998C0000AD8C000053
:101B20008F8C0000F8B5012001F096FC454B002693
:101B30001E8000F09BFD444C444B4548238001F03F
:101B40001FFC444D01232B70434BFC271E70434B5D
:101B50003021FF0060201E70278001F02BFD4048DF
:101B600001F024FD3821602001F024FD3D4801F002
:101B70001DFD4021602001F01DFD3B4801F016FDD8
:101B80004821602001F016FD384801F00FFD60216A
:101B9000282001F00FFD0126354801F007FD7642AF
:101BA0003448268001F002FD3348278001F0FEFC16
:101BB000022326802B7003F0AFFF032486B2FFF7C9
:101BC000BFFD6820782101F0F5FC201C0A2101F0FE
:101BD0004FFD03F0A1FFFA229200B318984203D9F7
:101BE00003F09AFF013C86B202F0C0F9002808D049
:101BF00002F0BCF9041E02D0FFF7A2FDF8E7FFF7E0
:101C0000BFFE02F0A7F9002807D002F0A3F90028D0
:101C100002D0FFF795FDF8E7041C02F0A1F90028B7
:101C200006D002F09DF9002804D0FFF789FDF8E7FF
:101C3000002CC4D101232B7000F018FD002001F00E
:101C40000BFCF8BDEA2A00100A01001000F8FFFFA3
:101C50006086000011010010120100100C0100103C
:101C6000D28C0000D78C0000DC8C0000E18C0000DE
:101C7000E68C0000EC8C0000F08C0000F0B56E4E9D
:101C80008BB004923288071C0D1C1C1C099206D0D4
:101C9000002132220091081C131C00F00BFDFC23D4
:101CA000DB003380002C16D001F0CEFB041C012099
:101CB00001F0D2FB02F01AF8291C021C1439781E1C
:101CC000C0B2C9B20A2301F0D7FC5C4801F06EFC37
:101CD000201C01F0C1FB049B574C0B2B01DC584B23
:101CE0002380ADB2574E039501232DB2321C38B27A
:101CF0000093291C00F0F4FC049A0795172A01DCD4
:101D00004F4B2380BFB20597083701253FB2381CDF
:101D10000799321C2B1C009500F0E2FC039B0095F8
:101D2000043B1AB20692111C2B1C381C321C00F00A
:101D3000D7FC049B2F2B01DD434B00E0404B059E5D
:101D4000404D1036238036B20124301C07992A1CDE
:101D5000231C009400F0C4FC301C06992A1C231C90
:101D6000009400F0BDFC039B0094083B1AB208925B
:101D7000111C231C301C2A1C00F0B2FC049B5F2B9E
:101D800002DC2F4A2C4B1A80059F012418373FB2E2
:101D9000381C07992A1C231C009400F0A1FC381C55
:101DA00006992A1C231C009400F09AFC381C089900
:101DB0002A1C231C009400F093FC039E2A1C0C3E5A
:101DC00036B20094381C311C231C00F089FC049AA4
:101DD0009F2A02DC1A4A184B1A80059F194D20379A
:101DE00001243FB2381C07992A1C231C009400F0E0
:101DF00077FC381C06992A1C231C009400F070FC08
:101E0000381C08992A1C231C009400F069FC381C1B
:101E1000311C2A1C231C009400F062FC03992A1C2C
:101E20001039231C09B20094381C00F059FC024BF5
:101E3000099A1A800BB0F0BD0A0100107F8D0000D6
:101E40008A5200003C93000000F8FFFFF7B5012024
:101E500001F002FBAE4B00221A7001F047FFFA209E
:101E6000000103F02FFE05F041F98421C905041C8F
:101E700004F0A4FA002801D0FF2000E0202001F0A7
:101E800005FF0025281C05F0D5F8211C04F082FA76
:101E9000002805D028B2013501F0DCFEEDB2F1E7F3
:101EA0009C4B0126187001259B4B1B78002B00D101
:101EB0000CE1002D00D109E1012D00D095E0974DF6
:101EC000002E36D000F0D2FB01235B4210212020EF
:101ED0002B8000F0FBFB924801F068FB9921282041
:101EE00000F0F4FBFC278F4801F060FBFF008E48F8
:101EF0002F8001F05BFB01235B428C482B8001F0BB
:101F000055FB582100202F8000F0E0FB884801F0AD
:101F1000C9FB884F381C01F0C5FB381C01F0C2FB1F
:101F2000381C01F0BFFB381C01F0BCFB824801F0FB
:101F3000B9FB3020992100F0C9FB01F0D7FE25281C
:101F400002DC01235B4200E07C4B2B8002237C4AB5
:101F50000093A4200123302100F0C2FB3621182079
:101F600000F0B4FB774801F021FB1820422100F07B
:101F7000ADFB01F0BBFE282801DD734800E073488B
:101F8000FC2701F013FBFF000223714A2F80A420DD
:101F900000936021012300F0A3FB6621182000F0CC
:101FA00095FB6C4801F002FB1820722100F08EFBBB
:101FB00001F09CFE252802DD604B2B8000E02F8085
:101FC00001F094FE0A2101F053FB634801F0EEFAA0
:101FD000FC23DB002B8001F089FE7621021C00230C
:101FE0007020FFF74BFE02255EE7022D00D05DE773
:101FF000FFF7A6FB01F0AEFF002808D001F0AAFF12
:10200000002802D0FFF79CFBF8E7051C4CE701F025
:10201000B9FF00282ED08421201CC90504F0D8F96E
:10202000002808D0201C4D4904F0B4F9002809D03C
:10203000201C4B490BE08421201CC90504F0C8F981
:10204000002802D0201C474901E04749201C04F029
:10205000E1F94649041C04F0B1F9002802D0FF2040
:1020600001F014FE201C424904F0A8F9002825D0F4
:102070003F4C23E001F080FF002800D114E78421C9
:10208000201CC90504F0A4F9002802D0201C354901
:1020900001E03549201C04F037FE8421C905041CE9
:1020A00004F082F9002802D0202001F0EFFD201C6E
:1020B000002104F06FF9002800D00024201C04F057
:1020C00099FF00B201F0C6FD0026ECE6FA200001FF
:1020D00003F0F8FC04F0AEFF011C201C04F054F9DE
:1020E000002807D1201C04F07DF9C1B2FA200001BC
:1020F00003F0F1FC201C04F07DFF00B201F0AAFD0A
:1021000001F0D8FD0020011C00F0E0FAF7BDC04648
:102110001201001016020010140200100A01001033
:10212000FB8C0000148C00000F8D0000118D00004E
:102130001C8D0000378D0000528D000000F8FFFF5D
:10214000F8920000CF8B00006D8D0000778D0000AD
:102150001A930000828D00007F8D00000000044271
:10216000CDCC4C3C000048410000204000005042D3
:1021700000007F4308B5094B012200201A7001F0CE
:102180006BF9074801F0FCF803F0B6FC03F0CCFC57
:1021900001F074FE03F0C6FC08BDC0461402001036
:1021A000F87F0000014B18787047C04614020010F9
:1021B00037B50024251C03F0AFFC274B1A6890426A
:1021C000F9D91E301860012C0BD0002C02D0022C43
:1021D00023D039E0214B201C1C8000F055FA01244B
:1021E00032E0FC21EAB2C900002001F091FA1C4B58
:1021F0001C4A1880107851786E234008181A490834
:1022000058231C35591A0094231CADB200F068FA0B
:10221000FE2D19D90025022416E0114BFC22D20014
:102220001A80104A6E23107851784008181A49080D
:102230005823591A0123009300F052FA3F350A4BF4
:10224000ADB29D4200D9FF24FFF7C0FA002801D1AA
:10225000292CB0D937BDC04690370010EA2A0010AB
:102260000A010010EE8D0000FF03000008B52020D9
:1022700001F00CFD034B10221A80034BFF221A7051
:1022800008BDC046162B00100C020010F8B5FFF771
:1022900071FF2E4B32221A702D4B01241C602D4BE6
:1022A000FF251D70FFF7E2FFFFF71AFA281CFFF762
:1022B00018FAFFF71FFAFFF721FAFFF714FA00F0F8
:1022C00000FAFFF775FF201C01F0C6F8224F002529
:1022D0003D8000F0CBF9214E301C01F051F8201C5C
:1022E00001F0BAF81E4BFC22D2001A803D8000F0AB
:1022F000BDF9301C01F044F81A4F1B4E3D7034708C
:10230000FFF710FCFFF7A2FD01F0D4FC281C01F040
:10231000A3F8164B16481C70164B3C701C7034709A
:1023200001F02EF801F01EFA01F0C4FCFFF7DCF911
:102330000520FFF7FBF9A84203D10F4B1B78AB42F6
:1023400002D1002001F086FCF8BDC0461502001045
:10235000180200100C020010EA2A0010608600002B
:102360000A010010120100100C01001011010010F0
:10237000FC82000010010010EA010010F7B5284BA4
:10238000284E1B78DD22D31A37883380264B274C02
:102390001B78002125882180042B34D8181C03F0D9
:1023A000EFFE03212A2A2A0001F003FB0020FFF799
:1023B00098F900F0ABFB1E4B01221E481A7001F089
:1023C000F5F81D4B0A21188801F052F91B4801F05D
:1023D000EDF80020B0230093011C021CDC2300F068
:1023E000C7FB17E0164B07201A680F231340072B73
:1023F00007D9782005E0134A1278002A0AD005335D
:10240000D8B2002104E00F4B1B78002B02D02F2004
:1024100001F02AF9FF231F401D4037802580F7BDBA
:102420007B2A0010842A0010EA010010782A00108C
:10243000110100108D8D0000E80100109A8D000040
:1024400008020010EB010010F7B51D4A1378002BAD
:1024500034D000240B2B02D80C24E41AE4B2194B1C
:10246000012700201F7000F0B7FB174DAD262B7819
:102470000322F11A6118033300920020542200F065
:1024800042FF381C00F0A8FB2B780322F61AA11992
:10249000033300920020542200F0D1FE0B4B0422A3
:1024A0001A802B78E41A0A4BAF341C80094B186849
:1024B00001F07CF8024A1378013B1370F7BDC04667
:1024C000200200101101001061280010842A001061
:1024D000782A001010020010F0B587B005930CABFD
:1024E000039104921F78061C03F016FB1A4B1A780E
:1024F0001A4B1C68211A1A4C914212D921680029E2
:102500000FD082181A60174B01251A6801321A6021
:1025100000232360FFF7E6F8FFF7F0F8FFF7E4F891
:1025200016E022680025AA4212D101F03DFA01F01E
:1025300099FA01F089FBFFF787FFFFF71FFF059B63
:102540000097301C0399049A00F012FB01232360CA
:10255000281C07B0F0BDC046150200101C02001078
:10256000180200100802001008B5024800F01AFF17
:1025700008BDC0461702001070B50F4C061C23782A
:102580000D1C102B0BD0301C2570FEF7C3F8051E58
:102590000CD10A48311C03F0EBFD2B1C09E0084864
:1025A00006F0D4FF01230028EDD002E008232370B9
:1025B0000123181C70BDC046080100106C020010F9
:1025C0002402001013B56C460634221CFEF7DCF81A
:1025D000208816BD08B5074B002804DADA694142A5
:1025E0008A4200D25042DB69C018FEF733F9024B31
:1025F000187008BD240200107B02001008B50020EE
:10260000FEF728F9014B187008BDC0467B02001088
:1026100008B5034B186AFEF71DF9024B187008BD88
:10262000240200107B020010014BD8697047C0469D
:102630002402001013B50123074C5B428122009352
:10264000201C064B06495201FEF7B2FA201C054930
:10265000054AFEF705FC13BD54020010180C0000DB
:10266000241200008D0B00000001001008B50020AE
:1026700001F082FD024A00231380024A138008BD44
:10268000842A0010782A001008B501F075FD08BDF5
:10269000064B10B51B880F2B04D8054C5B001B5B49
:1026A000934201D001F0DEFE10BDC04614010010BF
:1026B0006C28001013B504AC2488009401F004FFCA
:1026C00013BD08B501F0C2FD08BD0000024B188023
:1026D000024B19807047C046842A0010782A0010E7
:1026E000F0B593B00B9118A909780E900C91117860
:1026F0000A91517802320D910792012B74D10A9BF5
:1027000000220733DB100893019201990A9A0BB259
:10271000934200DB02E1DA17520FD218D210D2B284
:1027200009927F4A134004D50822013B52421343C9
:1027300001331BB280221A410E9B01999BB289B2D0
:10274000029303914B0002999BB20F925A1892B2D6
:1027500010920A1C01329B189BB2119300240D9910
:1027600023B28B423DDA089A099953434AB207993A
:10277000CB189B5C0F9A1A4231D00C9B694D012BF0
:1027800008D10399029A0B9B8818E11800B209B28C
:102790002A8822E00B9963008EB29BB2109A9F198F
:1027A00004933FB213B2181C2A88391C0593FFF713
:1027B0006FFF11992A880BB2181C391C0693FFF77A
:1027C00067FF049A0136961936B22A880598311C9B
:1027D000FFF75EFF2A880698311CFFF759FF013486
:1027E000BDE7019A01328FE7042B00D096E0002369
:1027F000039303990D9A0BB2934200DB8EE00B9B7F
:1028000089B29BB20593059A4B00D3189BB20691EF
:102810000E9A99B201339BB292B2099300230891A8
:1028200004920292019301990A9A0BB2934272DACE
:1028300007993D4B0A781B6812115200D45A0C9A22
:10284000022A1ED1019B04995E00089A8E19B6B225
:1028500035B217B2013636B2281C391C221CFFF7DC
:1028600017FF301C391C221CFFF712FF0999301C7E
:102870000BB21E1C191C221CFFF70AFF281C311C5E
:1028800005E0029A069B10B2059A991809B2221C1B
:10289000FFF7FEFE079B0C991A780F231A40224B74
:1028A00052001B68D45A02291FD1019A049B56007A
:1028B0009E190899B6B2B51C2DB20FB2033636B2C6
:1028C000281C391C221CFFF7E3FE301C391C221C7B
:1028D000FFF7DEFE099A301C13B21E1C191C221CC5
:1028E000FFF7D6FE281C311C06E00298069B059ACD
:1028F0000130991800B209B2221CFFF7C9FE079BEC
:1029000001330793019B02339BB20193029B023375
:102910009BB2029387E7039B013369E713B0F0BDD5
:10292000070000800A010010742A0010F0B5704BF7
:102930008FB01B680D905C78019118780094082C7A
:1029400005D0211C10394C1EA141C9B200E0002164
:10295000009DEC100C19211C414301314A43043203
:102960009B185F1C1B78089400240C930694069C0B
:102970000C9D62B26BB29A4200DBAFE0089D3B78DF
:10298000022D02D00137059304E07A780237120253
:102990001A430592069D0D9CADB2A4B26B00E318DC
:1029A0009BB202949CB2013303959BB2002509941B
:1029B0000A930795079D009C6EB2A64200DB89E052
:1029C000059CE4073BD54B4B4B4C1B78022B1ED18F
:1029D000019D760076190999B6B232B20DB2049211
:1029E000281C22880499FFF753FE0A9901360BB27E
:1029F000181C2288049936B20B93FFF749FE2288EF
:102A0000281C311CFFF744FE22880B9840E03B4B0A
:102A10001B78002B0AD00098019D01384019029ABA
:102A2000039D861BA91830B209B206E0039D0299E6
:102A30006818019D00B2761931B2228840E0304C0E
:102A4000304B22881B8893423CD02A4B1B78022BA8
:102A500020D1019D7600099C7619B6B225B234B218
:102A6000281C211C0494FFF713FE0A99244B0CB276
:102A70001A88201C0499FFF70BFE0136204936B254
:102A80000A88281C311CFFF703FE1D4D201C2A88D4
:102A9000311C15E0194B1B78002B0AD00098019CC3
:102AA00001380019039D029C861B291930B209B216
:102AB00006E0039D029C2819019D00B2761931B2EF
:102AC000FFF7E6FD079B059C01336408DBB2059424
:102AD00007936FE7069D0135069548E70A4A0020EF
:102AE0001056044A1B18107858430FB0F0BDC0466A
:102AF000802A0010110100100A010010E82A0010BD
:102B0000EA2A0010140100101201001008B5124941
:102B1000124B09781B88DAB2012903D1FF21002B5F
:102B200009D00DE0022906D103210A4091000A4391
:102B30001101114304E011010F2213400B43D9B2DC
:102B4000074B084A186803F0C3FA074A00231380AA
:102B5000064A138008BDC0460D0100107C2A0010F3
:102B600064280010D0250000842A0010782A001064
:102B70007FB5114D08AC2E682478002E0BD00F4E77
:102B8000366800940E4C2468039001940295301C22
:102B900001F0D6FF09E0002807D10848006800943A
:102BA000074C2468019401F0EDFC064B1B78002BC8
:102BB00001D1FFF7ABFF7FBD882A00106428001009
:102BC000742A0010702A001008B5024800F088FD31
:102BD00008BDC046FE8A000003231840014B188040
:102BE0007047C0460E0100101A4B10B51B88934267
:102BF0002ED0194B84B21B789C4229D2174C89B233
:102C000024788C4224D9002A01D0032422409B102E
:102C10005943134B841061181B6889B25918032457
:102C20000B782040A04202D183431A430FE00228D0
:102C300002D192000C2003E0012803D112013020C0
:102C4000834302E03F20920103401A43D2B20A704C
:102C500010BDC04614010010130100101601001031
:102C600064280010F0B5284B87B01B6803905E788D
:102C700005911878082E05D0311C10394C1EA14141
:102C8000C9B200E00021F4100C19211C41430131AC
:102C90004A4304329B18029403995C1C1B788DB242
:102CA000049303996A1A049952B24BB29A4224DAF5
:102CB000029B2778022B01D0013403E063780234B1
:102CC0001B021F4300210191019B59B2B14211DC4B
:102CD000059B28B2C91809B2FB0701D50B4B00E0D0
:102CE0000B4B1A78FFF780FF019B7F080133DBB2A3
:102CF0000193E9E70135ADB2D3E7064A002010564B
:102D0000181807B0F0BDC046802A00100E01001050
:102D10007C2A001012010010184B82B21B789A42D4
:102D20002BD2174A89B212788A4226D99B1059436E
:102D3000144B821051181B6889B203225918104095
:102D40000B78114A032803D112788343134313E00D
:102D5000022804D112880C20834392000AE0012843
:102D600004D1128830208343120103E012883F20EF
:102D7000034092011343DBB20B7070471301001044
:102D800016010010642800100E01001070B50F4BE2
:102D9000141C1B788AB2061C9A4202D3A2B29A4231
:102DA00012D20B4B1A78B3B29A420DD9A14202DD6E
:102DB0000B1C211C1C1C0D1CA54205DC29B2301C5F
:102DC000FFF7AAFF0135F7E770BDC04616010010F6
:102DD0001301001070B50F4B161C1B7882B20C1C2F
:102DE0009A4202D38AB29A4212D20B4B1A78B3B2E9
:102DF0009A420DD9A04202DD031C201C1C1C051C9C
:102E0000A54205DC28B2311CFFF786FF0135F7E744
:102E100070BDC046130100101601001008B5002A4D
:102E200004DA92B25118524209B212B2521812B2D6
:102E3000FFF7ACFF08BD10B50C1C002A04DA93B2F2
:102E400018185A4200B212B28118013909B2221C74
:102E5000FFF7C0FF10BDF8B5CE18041C171C36B222
:102E6000E7190D1C3FB2321CFFF790FF381C291CDC
:102E7000321CFFF78BFF391C2A1C201CFFF7AAFF0E
:102E8000391C321C201CFFF7A5FFF8BDF8B58418CB
:102E9000CD1824B22DB2002801DA002C2BDB164B02
:102EA0001B78984201DB9C4225DA002901DA002DCB
:102EB00021DB124B1B78994201DB9D421BDAA042B9
:102EC00002DD031C201C1C1CA94202DD0B1C291C5A
:102ED0001D1CC643CF43F617FF173040394006B2DA
:102EE0000FB2A64207DA301C391C2A1C0136FFF744
:102EF0004DFF36B2F5E7F8BD1301001016010010C2
:102F0000F0B5031C85B0002876D03C4A1078834287
:102F100001DB431E1BB23A4A1278042A06D1394912
:102F200009785943CC0F6118491008E0022A63D18F
:102F300034490C785C43E117890F09198910324C28
:102F4000304E258889B20395304DB4462D882580B2
:102F5000002B28DD34780025E40862432C1C019204
:102F6000C21A954217DA221C0E1BB618B6B200968A
:102F7000171B019EBFB2B74208DA561C244F0296B7
:102F8000009EBE5DBE54029FBAB2EDE70135ADB200
:102F90000099141CE4E71F4B0027D95F63461A7899
:102FA00003B2002023E034789DB26243D210019234
:102FB0000024854217D2221C0E1BB618B6B200960A
:102FC000171B019EBFB2B74208DA571C0297104F79
:102FD000009EBA5CBA55029FBAB2EDE70135ADB2B8
:102FE0000099141CE5E7674600203A78011CFFF7BA
:102FF0004DFF054B039C1C8005B0F0BD1601001071
:103000000D010010130100100E0100107C2A0010A9
:1030100091020010782A0010F0B589B00192069351
:1030200093B20122D21A5B0092B25B4202929BB22F
:1030300000220490059107930392039A13B2019A18
:10304000934278DA029A13B2002B0CDB019B013B0E
:103050001AB2079B019202339BB29AB20792029A6C
:103060009B189BB20293039B029A9CB263000333AA
:10307000D3189BB20293069B5B0713D5049A059B5A
:1030800096B2019A9DB297B2701C2018791900B2BD
:1030900009B2FFF741FE691CBE19611830B209B2CE
:1030A000FFF73AFE069B9B0713D5049A059B96B241
:1030B000019A9DB297B2701C2018E91B00B209B2A8
:1030C000FFF72AFE691EBE19091B30B209B2FFF7CD
:1030D00023FE069B1B0713D5049A019B97B2059A02
:1030E0009EB295B2691CB81B611800B209B2FFF715
:1030F00013FE781E001B751900B229B2FFF70CFEF3
:10310000069BDB0713D5049A019B97B2059A9DB2E3
:1031100096B2711E781B091B013F00B209B23C1B1D
:10312000751BFFF7F9FD20B229B2FFF7F5FD039BF0
:103130000133039381E709B0F0BDF0B58BB008937C
:1031400010AB009207910022995E0122099100992B
:1031500006908BB2D21A5B0092B25B4201929BB294
:10316000002205930392039A009913B28B4264DA0A
:1031700001990BB2002B0CDB009B013B1AB2059BA3
:1031800000920233019A9BB299B29B189BB20591AF
:103190000193039B01999BB25D00ADB202932B1C7E
:1031A0000333CB18089A9BB204950193D2071ED51E
:1031B000069B0799009A9FB2099B8EB294B202991E
:1031C0009DB26200781C0818AA18311B00B209B21F
:1031D00012B2FFF723FE029A711E049B891AAA1CE1
:1031E000E4199A1820B209B212B2FFF717FE089933
:1031F00089071ED5069A079B009997B2099A9EB235
:103200008CB2029B95B2781E6200C01A311BAA18BC
:1032100000B209B212B2FFF701FE029A711E049BBE
:10322000891AAA1C3C1B9A1820B209B212B2FFF7E5
:10323000F5FD03990131039195E70BB0F0BDF0B5B1
:1032400089B01F1C0EAB061C00201C5E0D1C012C3F
:1032500004DC301C3B1CFFF7FEFD52E0B1B2A3B210
:103260000391019359185B005B4292B29BB20593A4
:103270009B1808B219B207910492291C079ABFB291
:103280000290ADB2FFF7D7FD7B1EEB189BB219B2CF
:103290000298079A0693FFF7CEFD059B019ADF1966
:1032A00055192DB23FB2301C291C3A1CFFF7B6FD50
:1032B000049E0398013E8619B6B230B2291C3A1C0E
:1032C000FFF7ACFD291C0298221C0123FFF7A4FE86
:1032D0000199221C761A36B2291C301C0223FFF7F2
:1032E0009BFE069A019B301CD51A2DB2291C221C6C
:1032F0000423FFF791FE0298291C221C0823FFF7E4
:103300008BFE09B0F0BDF0B587B00E1C0CA90025EE
:103310004C5F012C03DC311CFFF7B8FD2EE0A5B299
:1033200092B203926A0080B2039952422F1892B26D
:10333000013B04929BB23FB252180290311C05939C
:1033400012B21BB2381CFFF7A1FD049A059903982D
:103350005318029A01381018AE19451B28B236B21C
:103360001DB2311C221C01230095FFF7E6FE0095DB
:10337000381C311C221C0223FFF7DFFE07B0F0BD12
:10338000054B18600278054B01321A704278044BE5
:1033900001321A707047C046802A00107B2A001044
:1033A00061280010124A134B10B5041C1A60FFF775
:1033B0000BFC114B01221A70104BDC221A80104BAF
:1033C000B02210481A80FFF7DBFF0F4B11221A8042
:1033D0000E4A002313800E4A022111700D4A201C50
:1033E00013600D4A136093611363936410BDC0466C
:1033F0009102001064280010EC2A00106A280010C6
:10340000862A0010F87F0000140100107C2A0010AA
:10341000682800106C2A0010882A001008B5084B94
:1034200000B21B6809B29B78D21A064BD2B21B7845
:10343000002B02D0FFF77AFA01E0FFF713FC08BD7A
:10344000802A0010EC2A0010024B1878431E984185
:10345000C0B27047EC2A001009490A4A0A4B0028FA
:1034600005D001200870DC211180B02205E0087031
:10347000064909781180064A12781A807047C046BA
:10348000EC2A00106A280010862A00101301001090
:103490001601001038B50B4B0B481B6804885B788D
:1034A0000A4A5800241A0A48118800780DB240B21E
:1034B000A54203DDC018FFF723FD02E0C318591829
:1034C000118038BD802A0010862A0010782A00104A
:1034D0000C01001038B52A4B041C1B68DA78002A4E
:1034E00003D0602801D9203CE4B20E2C21D8201C46
:1034F00002F046FE441F1F1F1F1F1F1F0E1F081F25
:103500001F1B44001F4B00221A80FFF7C3FF35E04A
:103510001C4A1B781088C01A1B4B80B21080197887
:103520002022C0B2FFF77AFF28E0164B00221A8053
:1035300024E0144D1549288809881B7802B2CB1A5B
:103540009A4209DB00232B80114B1B78002B15D0EE
:10355000FFF7A0FF287800E0C0B20B4B221C1978BF
:10356000FFF75CFF202C06D10A4B1B785BB2002BC7
:1035700001D0401001302B88C018288038BDC046CB
:10358000802A0010842A0010782A00106A2800106F
:10359000100100101201001010B5041C2078002842
:1035A00003D00134FFF796FFF8E710BD08B5FFF729
:1035B000F3FF08BD024B1880024B19807047C046CC
:1035C000842A0010782A0010F0B5002489B0051C68
:1035D0000E1CA04203D13020FFF77CFF1BE000ABA4
:1035E000281C0134311C1F1902F018FE013F3970EC
:1035F000281C311C02F0CEFD051EF0D1013C6B46AB
:10360000185D092801D8303000E03730C0B2FFF72C
:1036100061FF002CF2D109B0F0BD08B5002903D13B
:10362000C0B2FFF757FF02E0C9B2FFF7CDFF08BDF8
:1036300010B5041E03DA2D20FFF74CFF6442201C56
:103640000A21FFF7C1FF10BD08B5002903D1C0B2A0
:10365000FFF740FF07E00A2902D1FFF7E9FF02E088
:10366000C9B2FFF7B1FF08BD08B5FFF7EDFF08BD10
:1036700008B5FFF7E9FF08BD10B5044C20800448E9
:103680000180101C191CFFF7DFFF10BD842A0010F9
:10369000782A001008B50D20FFF71CFF0A20FFF75D
:1036A00019FF08BD08B5FFF777FFFFF7F3FF08BD67
:1036B00008B5FFF7B2FFFFF7EDFF08BD08B50248F8
:1036C000FEF71CF908BDC0467A2A00108910D210F6
:1036D00049011143C010C302081C18437047000081
:1036E00038B5041C0025A27820786178FFF7EEFF3A
:1036F000054B802258530235033492009542F2D193
:10370000024A136038BDC0466C280010742A0010AD
:1037100070B5031C1F2423400C40E41A24B2544308
:1037200024124E111C193F2543112B40C00A35406D
:10373000C912091AED1A55434A4312128018C2439E
:10374000A4B2D217104022B2D2432D12D2175B1965
:103750001440C0022043DC43E41723405B011843BC
:1037600080B270BD08B502F06FF8012001F0F4FFDF
:1037700008BD000000B5002B3ED104283CD802F063
:10378000FFFC0310262D3400C9B24BB2002B04DB22
:103790000A2B00DD0A21C9B200E00021174B197085
:1037A0002AE0174B89001B68164ACB58164819881F
:1037B0001360164B1A780B1C5343DBB203700912CB
:1037C0008B4200DD0B1C534311490B7014E00F4B6F
:1037D0001B7859430F4B19700F4B0CE00B4B1B78A8
:1037E00059430E4B19700E4B05E0084B1B7859439B
:1037F0000C4B19700C4B1A7000BDC046282B0010E2
:10380000242B0010082B0010142B0010F22A00109B
:10381000F32A00101C2B0010EE2A0010292B001098
:10382000042B00101D2B0010EF2A0010002A11D1CC
:10383000094B1870094B1B785943094B1970094BF8
:1038400009491A70094B1A8001230B7008490B7043
:10385000084B1A707047C046F52A0010F22A001073
:10386000012B0010112B0010F12A00102A2B001040
:10387000F02A0010F62A0010064B10B51B78002421
:10388000A34201D0044B1C78201C01F07FFF034BA6
:103890001C8010BDF02A0010122B00102C360010D6
:1038A00008B500280FD1084B1870084B1870084B4A
:1038B0001880084B1870084B1870084B1870084B8C
:1038C0001870FFF7D9FF08BDF12A0010012B001076
:1038D0002A2B0010F62A0010122B0010152B0010B6
:1038E000F02A001010B5041E03D1FFF7D9FF014BD9
:1038F0001C7010BDED2A001038B5051C0C1E12D12D
:10390000081CFFF7EFFF084B01221D60074B1C80CE
:10391000074B1A70074B09221A70074B1C70074B94
:103920001C70074B1C7038BDFC2A0010022B0010C5
:10393000ED2A0010282B00101C2B0010292B001042
:103940001D2B001010B500281FD1104A1378002B32
:103950001BD00F4B1978002917D10E4C0E4B207835
:103960001B684000C35A0D48834201D111700CE01E
:103970000B4A181210700B4ADBB212689B00985861
:10398000FFF7BAFF23780133237010BDFA2A001025
:10399000ED2A00101A2B0010202B0010FFFF000052
:1039A000192B00100C2B001008B50020FFF7CAFFE0
:1039B00008BD08B50020FFF795FF08BD38B5002801
:1039C00042D1224A1378002B3ED0214B1B78002B8A
:1039D0003AD1204C204D238829685B005B5A002B8C
:1039E00013D11E480078002802D023800B880CE0F9
:1039F00013701B4A1078002804D0181CFFF7A2FF90
:103A0000238815E0FFF74CFF1EE001221A409910B1
:103A1000002A11D0DA120F200840103A5905C90EB9
:103A2000002352B2FFF7A6FE238801339BB2238006
:103A30002A685B009B5AE8E73F200840190AFFF715
:103A4000F5FE23880133238038BDC046ED2A0010DF
:103A5000012B0010022B0010FC2A0010F72A001086
:103A6000FA2A001008B50020FFF7A8FF08BD0000E3
:103A7000F7B5002800D0AAE0554B1B78002B00D1E9
:103A8000A5E0544B1878002802D1FFF709FF9EE00B
:103A9000514C013818702378002B26D14F4A504BD7
:103AA00011881B6801314800C35A4E4D0720184049
:103AB00028704D489D1205704C4D98052D78800E4C
:103AC00068431B0720704A48DB0F0370494B89B2DB
:103AD0001B781180994208D347490878002802D002
:103AE000181A108001E0FFF7DBFE2378013B2370FA
:103AF000424B434C1D780135EDB21D70414B1B7894
:103B00000193394B01991E783F4B8E191B78F6189B
:103B10003E4BF6B219782670002907D068B202F041
:103B200087FB3B4B1B78584336182670207824219E
:103B3000243002F0D3FB374B21701F78364B0E1C1C
:103B4000364C19782770002908D068B249B202F0C3
:103B50006FFB334B1B7858433F182770314B197854
:103B6000002910D068B202F063FB2F4B184004D537
:103B7000022301385B42184301302C4B1B78584319
:103B80002378C0182070019D22783F2D09D0131C86
:103B900052B2092A00DD09235AB2D243D217134088
:103BA00000E000232370224B0E4D9A5D214B1A70CA
:103BB00022782B785343204A127853431F4A1288A5
:103BC000521153431E4ADBB213701E4A1370F7BDE5
:103BD000F12A0010012B0010112B00102A2B0010CD
:103BE000082B0010002B0010182B0010F22A0010D8
:103BF0001B2B0010142B0010F32A0010F62A0010C3
:103C0000132B0010F52A0010192B0010292B00107F
:103C1000042B0010282B00101C2B0010F82A001079
:103C2000EE2A00101D2B001001000080EF2A00106A
:103C300042930000F92A0010F42A0010162B0010FD
:103C4000152B0010122B001008B50020FFF710FFF5
:103C500008BD000008B5C343DB171840094B1B889B
:103C6000984200DD18B2084B1880C30F1818401096
:103C70000A3800B2C343DB171840C0B201F040FD60
:103C800008BDC04618010010162B001008B500280A
:103C900003DBFF2802DDFF2000E00020034B18803B
:103CA000034B0022985EFFF7D5FF08BD18010010F6
:103CB000162B001008B5054B1888202801D91030A4
:103CC00000E0083000B2FFF7C5FF08BD162B00105A
:103CD00008B5054B1888202801D9203800E008389D
:103CE00000B2FFF7B7FF08BD162B0010014B188874
:103CF0007047C046162B001008B50248FDF7FEFDC0
:103D000008BDC046102B001008B5074B1F215B6A89
:103D1000DA050B40591C120F044B92004900D05891
:103D200002F038FA08BDC0460080044068930000E5
:103D3000064B186C03231840012804DD0338434266
:103D40005841C00300E002487047C046008004406C
:103D5000001BB700044B10B59C68FFF7E9FF1F2359
:103D60001C400134604310BD0080044008B50A4B7C
:103D70001A6F03231340022B06D0032B07D0012B0D
:103D800008D1FFF7D5FF06E0FFF7BEFF03E0FFF71E
:103D9000E1FF00E0014808BD00800440001BB700BF
:103DA00008B5FFF7E3FF024B996F02F0F3F908BD86
:103DB00000800440014B01221A717047102D001041
:103DC000014B00221A717047102D0010014B012287
:103DD0005A717047102D0010014B00225A71704724
:103DE000102D0010014B01229A717047102D001008
:103DF000014B00229A717047102D0010014B0122D7
:103E00005A707047102D0010014B00225A707047F5
:103E1000102D0010014B0122DA707047102D001098
:103E2000014B0022DA707047102D0010014B002268
:103E30009A707047102D0010014B00221A707047C5
:103E4000102D001008B5054B9A79002A02D0FFF713
:103E500031FF01E001229A7008BDC046102D00100C
:103E600008B5054B9A79002A02D0FFF731FF01E02F
:103E700001221A7008BDC046102D001010B5204C4C
:103E80002049201CFCF70EFE201C1F49FCF7FAFD00
:103E90001E4C1F49201CFCF705FE201C1D49FCF789
:103EA000F1FD1D4C1D49201CFCF7FCFD201C1C498C
:103EB000FCF7E8FD1B4C1C49201CFCF7F3FD201C03
:103EC0001A49FCF7DFFD1A4C1A49201CFCF7EAFDE1
:103ED000201C1949FCF7D6FD184C1949201CFCF789
:103EE000E1FD201C1749FCF7CDFD174C1749201C9C
:103EF000FCF7D8FD201C1649FCF7C4FD10BDC046D8
:103F0000182D0010C13D0000B53D0000C02C001070
:103F1000D93D0000CD3D00002C2B0010F13D0000EC
:103F2000E53D0000702C0010093E0000FD3D000042
:103F30007C2B0010213E0000153E0000D02B00100D
:103F4000393E0000613E0000202C00102D3E000094
:103F5000453E0000014B18797047C046102D0010F7
:103F6000014B58797047C046102D0010014B9879CD
:103F70007047C046102D0010014B18787047C0469E
:103F8000102D0010014B98787047C046102D00107E
:103F900070B52648FFF706FA254E2649301CFCF777
:103FA0004DFD254D254C291C221C301CFCF758FFCB
:103FB000234E2449301CFCF741FD291C221C301CD7
:103FC000FCF74EFF204E2149301CFCF737FD291C21
:103FD000221C301CFCF744FF1D4E1E49301CFCF710
:103FE0002DFD291C221C301CFCF73AFF1A4E1B49E0
:103FF000301CFCF723FD291C221C301CFCF730FF71
:10400000174E1849301CFCF719FD291C221C301CC6
:10401000FCF726FF144E1549301CFCF70FFD301C31
:10402000291C221CFCF71CFF70BDC046CC2B0010C5
:10403000182D001084120100110A00000001001068
:10404000C02C0010700801002C2B001088140100F7
:10405000702C0010941A01007C2B00106C060100DB
:10406000D02B0010C4320100202C00107C0E010067
:10407000074B1A8882420AD01880064A0649A023B4
:104080001B0699500549C0005850002199507047AF
:10409000682D0010882000000700F8FF882100002C
:1040A00038B5A0248A23240604229B01E250074D40
:1040B00080235B046351FFF7DBFF054A80235B012C
:1040C000A350C046C046635138BDC046042200001C
:1040D0008422000038B5A0248823240604229B01F2
:1040E000E250074D80235B046351FFF7C1FF054A8F
:1040F00080235B01A350C046C046635138BDC04613
:10410000042200008422000038B50D1C041C20206D
:10411000FFF7C6FF281CFFF7DDFF2120FFF7C0FFD8
:10412000201CFFF7D7FF2220FFF7BAFFA023882229
:104130001B06042192019950034A80214904995099
:1041400080214901995038BD0422000010B5074C68
:104150000749201CFDF79CF8201C0521FDF777F886
:10416000201C0449FDF750F810BDC0466C2D00100E
:10417000FC0402009A99993E10B5041C2020FFF718
:104180008FFF0020FFF7A6FF2120FFF789FF002007
:10419000FFF7A0FF2220FFF783FF201CFFF768FF37
:1041A000A02388221B060421920199500A4A8021EB
:1041B00049049950802149019950084B084CA0218D
:1041C0008020090640010851C046C046013B885086
:1041D000002BF3D110BDC046042200004097000020
:1041E0008422000010B52020FFF75AFF0020FFF7BF
:1041F00071FF2120FFF754FF0020FFF76BFF222003
:10420000FFF74EFF0020FFF733FFA02388221B0695
:104210000421920199500A4A802149049950802131
:1042200049019950074B084CA02180200906400104
:104230000851C046C046013B8850002BF3D110BD49
:1042400004220000409700008422000070B5794EDF
:10425000A02501242D06FFF779FFAC510A20FCF7B9
:1042600038FD754B0A20EC50FCF733FDAC510A20A9
:10427000FCF72FFD201CFFF713FF8E20A040FFF757
:1042800029FF0220FFF70CFF8020A040FFF722FF4C
:104290000320FFF705FF6948FFF71CFF0820FFF721
:1042A000FFFE6748FFF716FF0C20FFF7F9FE00201E
:1042B000FFF710FF0F20FFF7F3FE201CFFF70AFFA8
:1042C0002020FFF7EDFE0020FFF704FF2120FFF77D
:1042D000E7FE0020FFF7FEFE1020FFF7E1FE0020C2
:1042E000FFF7F8FE1120FFF7DBFE80204001FFF70B
:1042F000F1FE0A20FCF7EDFC3020FFF7D1FE002094
:10430000FFF7E8FE3120FFF7CBFEDB20FFF7E2FEF0
:104310003220FFF7C5FE0020FFF7DCFE3320FFF759
:10432000BFFE0020FFF7D6FE3420FFF7B9FEDB20EA
:10433000FFF7D0FE3520FFF7B3FE0020FFF7CAFEDF
:104340003620FFF7ADFEAF20FFF7C4FE3720FFF7A2
:10435000A7FE0020FFF7BEFE3820FFF7A1FEDB20FE
:10436000FFF7B8FE3920FFF79BFE0020FFF7B2FEF3
:104370000A20FCF7AEFCFF20FFF792FE0320FFF7B8
:10438000A9FE5020FFF78CFE2E48FFF7A3FE512018
:10439000FFF786FE2C48FFF79DFE5220FFF780FEB8
:1043A0002A4D0520FFF796FE5320FFF779FE281CC3
:1043B000FFF790FE5420FFF773FE2548FFF78AFEB3
:1043C0005520FFF76DFE234C0320FFF783FE562098
:1043D000FFF766FE201CFFF77DFE5720FFF760FE0B
:1043E0001D48FFF777FE5820FFF75AFE281CFFF7FD
:1043F00071FE5920FFF754FE201CFFF76BFEB02022
:10440000FFF74EFE1548FFF765FEFF20FFF748FE59
:104410000020FFF75FFE0720FFF742FE1048FFF77E
:1044200059FEC820FCF755FC2220FFF739FEFFF7A4
:10443000D9FE70BD0422000084220000301000006C
:104440000808000003020000090A00002110000013
:104450000206000003070000070500000125000018
:1044600017100000F8B584B2171CDB2C26D88DB2CB
:10447000AF2D23D82020FFF713FE281CFFF72AFEBC
:104480002120FFF70DFE201CFFF724FE2220FFF75E
:1044900007FEA0248823240604229B01E250084D35
:1044A000802380265B0476016351381C6651FFF738
:1044B000DFFD044BE650C046C0466651F8BDC0461D
:1044C0000422000084220000F7B51C1C08AB1B88E6
:1044D0000193904202DD031C101C1A1CA14202DD54
:1044E0000B1C211C1C1CDC2847DCB02945DC131CE0
:1044F000DC2A00DDDC231AB20092B02C00DDDC24C3
:10450000CE43F617C743FF17314007400EB2009A5B
:10451000974232DC2020FFF7C3FDB0B2FFF7DAFD8F
:10452000BFB22120FFF7BCFD381CFFF7D3FD2220CE
:10453000FFF7B6FDA0228823120604219B01D1506B
:104540000E4B80214904D15080214901D150351CA6
:10455000A5420FDA0198FFF78BFD0949A0238022BD
:104560001B0652015A50C046C046044901355A50F4
:104570002DB2EDE701373FB2C9E7F7BD04220000D5
:1045800084220000F0B5CB4CA5440693B823DB0091
:104590006B441B78099007930B1C134305D1069CB1
:1045A000DC2C02D1079DB02D16D006980323C0182D
:1045B0000C1CC0B29C434118091B161CC9B299437C
:1045C0009E43079B05940733DBB29A18921BF8238E
:1045D0001A400691079201E01E1C05930020011C61
:1045E000FFF792FD37237343059D08930295059DC0
:1045F000069C2B19029D9D4200DB97E2029D002242
:10460000AC10099D2C19089D64190194079DB318DD
:1046100075199BB20395AB423BDA372151430198A0
:104620000132415C58008C100394A34C8F116C44F0
:1046300024687F003F5B0D11AC4628306D46475320
:104640009D4D032064466D441F1C04402D68B03707
:104650006400645B7F0028376D467C53B0256D0095
:10466000954C5F19039D6C44054024686D002D5BDB
:1046700001407F0090486C4628373D5368448425AC
:10468000AD0000685B1949005B00095A28331953D3
:10469000BCE7029C311CE4B2201C0194FFF734FDFE
:1046A000371C039CA74200DB77E07B0028336D4674
:1046B000585BFFF7DDFCA0248048802524066D01AF
:1046C0002550C046C0467B1CDBB27D495B002833C9
:1046D0006A46985A6550FFF7CBFC784BE550C046C8
:1046E000C046BB1CDBB276485B00283369462550C8
:1046F000585AFFF7BDFC714AA550C046C046704BE2
:104700006946E550FB1CDBB25B002833585AFFF7C3
:10471000AFFC6A4AA550C046C046694B6946E550A1
:104720003B1DDBB25B002833585AFFF7A1FC634AFC
:10473000A550C046C046624B6946E5507B1DDBB2C2
:104740005B002833585AFFF793FC5C4AA550C046DB
:10475000C0465B4B6946E550FB1DDBB20493BB1DB5
:10476000DBB25B002833585AFFF782FC534AA5504E
:10477000C046C046524B0498E5503B1C0833DFB29C
:10478000430028336946585AFFF772FC4B4AA5503C
:10479000C046C0464A4BE55083E70198311C0130C2
:1047A000C0B2FFF7B1FC371C039CA74200DB89E0D5
:1047B0003B1CB0335B0028336D46585BFFF758FC59
:1047C000A0243E48802524066D012550C046C046E1
:1047D0007B1CDBB2B0333A495B0028336A46985AF7
:1047E0006550FFF745FC354BE550C046C046BB1C45
:1047F000DBB2B03332485B00283369462550585A43
:10480000FFF736FC2D4AA550C046C0462C4B6946E2
:10481000E550FB1CDBB2B0335B002833585AFFF77E
:1048200027FC264AA550C046C046254B6946E550A0
:104830003B1DDBB2B0335B002833585AFFF718FC3E
:104840001E4AA550C046C0461D4B6946E5507B1D1B
:10485000DBB2B0335B002833585AFFF709FC174A24
:10486000A550C046C046164B6946E550FB1DDBB25D
:104870000493BB1DDBB2B0335B002833585AFFF7FB
:10488000F7FB0E4AA550C046C0460D4B6946E550A1
:104890003B1C0833DFB2049BB0335B002833585A0B
:1048A000FFF7E6FB054AA550C046C046044BE5505D
:1048B0007AE7C04654FAFFFFC405000084220000D6
:1048C000042200000198311C0230C0B2FFF71CFC2A
:1048D000371C039CA74200DB88E0B0256D007B19E4
:1048E0005B0028336946585AFFF7C2FBA024914A5F
:1048F000802524066D01A550C046C0468E4B6946F2
:10490000E5507B1CDBB26133FF335B002833585A20
:10491000FFF7AEFB874AA550C046C046864B6946A6
:10492000E550BB1CDBB26133FF335B002833585AC0
:10493000FFF79EFB7F4AA550C046C0467E4B6946A6
:10494000E550FB1CDBB26133FF335B002833585A60
:10495000FFF78EFB774AA550C046C046764B6946A6
:10496000E5503B1DDBB26133FF335B002833585AFF
:10497000FFF77EFB6F4AA550C046C0466E4B6946A6
:10498000E5507B1DDBB26133FF335B002833585A9F
:10499000FFF76EFB674AA550C046C046664B6946A6
:1049A000E550FB1DDBB20493BB1DDBB26133FF336B
:1049B0005B002833585AFFF75BFB5E4AA550C046A0
:1049C000C0465D4B6946E5503B1C0833DFB2049B93
:1049D0006133FF335B002833585AFFF749FB554AD0
:1049E000A550C046C046544BE55072E70198311CB3
:1049F0000330C0B2FFF788FB371C039CA74200DBE3
:104A00008FE08425AD007B195B0028336946585A36
:104A1000FFF72EFBA024474A802524066D01A550F0
:104A2000C046C046444B8420E5507B1C8000DBB26E
:104A30001B185B0028336946585AFFF719FB3D4A9B
:104A4000A550C046C0463C4B8420E550BB1C8000AE
:104A5000DBB21B185B0028336946585AFFF708FB86
:104A6000344AA550C046C046334B8420E550FB1C59
:104A70008000DBB21B185B0028336946585AFFF7E9
:104A8000F7FA2C4AA550C046C0462B4B8420E5506F
:104A90003B1D8000DBB21B185B0028336946585A67
:104AA000FFF7E6FA234AA550C046C046224B8420B1
:104AB000E5507B1D8000DBB21B185B002833694684
:104AC000585AFFF7D5FA1B4AA550C046C0461A4BA4
:104AD0008420E550FB1DDBB20193BB1D8000DBB2DF
:104AE0001B185B0028336946585AFFF7C1FA114A70
:104AF000A550C046C046104B0198E55084213B1C90
:104B000089000833DFB243185B0028336A46985A9D
:104B1000FFF7AEFA074BE550C046C04606482550A1
:104B20006BE7029B04339BB2029360E5034B9D4409
:104B3000F0BDC0468422000004220000AC05000045
:104B4000F0B5B14CA5441493C423DB006B441B782F
:104B50001B901193AD4B6B441B781293002B0CD020
:104B6000C520C00068440068002801D100F07DFD28
:104B70000368002B01D100F078FD0B1C134305D115
:104B8000149CDC2C02D1119DB02D17D01498032356
:104B9000C0180E1CC0B29E434118891B171CC9B215
:104BA0009F439943119B13960733DBB29A18D21B8C
:104BB000F8231A4014910797119201E00793139379
:104BC000C520C00068440068002811D000231822C6
:104BD000C5255A43ED006D442D68DCB2AA580B94EC
:104BE000002A0AD00133052BF1D104260B9604E0EC
:104BF000C527FF006F443F680B97129C002C03D120
:104C0000201C211CFFF780FA00250695C520069E72
:104C1000C0001B9F6844B3100068FB180493002871
:104C200000D1CEE00023FF24021C059302940B9ECA
:104C3000B34200DDCCE00B9DAB420CDA9688D788FE
:104C40000F960C97147B557B1689578910941695EF
:104C50000D960E970CE0129C002C09D1139D079E17
:104C6000119F149C0F950C96169710940E960D9507
:104C70000F9D0D9F2EB23DB2DB2E01DD00F0EEFC4C
:104C80000C9C012120B2AF2800DC0021C9B2DB2D31
:104C900001DD00F0DCFC0E9F012438B2AF2800DCFF
:104CA0000024E4B2002902D0002C00D086E0AE42FD
:104CB00008DB0D9F381CB54201DA0F9D281C80B21D
:104CC0000D9D01E00F9D0D98002900D00D98002C3E
:104CD00000D00F98069F2DB2BC460327BC44654503
:104CE00068DC109DED192818069D00B2854261DC34
:104CF0000E9F3DB2381C0C9F03953DB2039FAF42FF
:104D000001DD0C9F381C07B2FF43FF17384080B20B
:104D100008900E9F002905D10398A84201DA0C984B
:104D2000071CBFB2002C00D00C9F169C013CE71959
:104D3000BFB23C1C3FB2AF2F00DDAF240898A4B235
:104D400007B20298874202DA089FFFB20297059FD6
:104D500020B2B84201DDE4B205940B9CA34229DAEB
:104D6000002927D1664525DC109F069CF1198C424D
:104D700020DA67461068BE1BB610B1B286199800DB
:104D8000002D02DB1EAC265005E0109FBC106543D1
:104D90001EAC751B25501DA8002901D1012107E07B
:104DA000109D09B2AC10A14201DB022100E00021FC
:104DB000C15403E0990000241EA80C50013318329E
:104DC00035E7C527FF006F443F68FF24059702942D
:104DD000059D029EAB1B20D42B1C013307229B1B7D
:104DE00013400822D31ADBB29E4203D9F31ADBB276
:104DF000029312E0059F079C119DFB1862199342D4
:104E000006DADBB2059308E0F4F9FFFF2C06000098
:104E1000013A079ED2B205920296029F37237B4346
:104E20001DAA04981178C3181593179154783B1C48
:104E3000189495781F9F1995D2781E9E1A92039701
:104E4000219A209FB446059CA34200D9DAE1159827
:104E5000B94E01786E44366888114000805B8C1032
:104E60000D1104900320054004400140C520C000FE
:104E70006D00640049006844AD5BA45B895B006819
:104E8000089509940A91002800D1A0E16146002903
:104E90005CD00624015F8B4258DB051C407B09185F
:104EA0008B4253DA1798AC88002807D16146013944
:104EB0000878654629780002084308E0179E614695
:104EC000012E01D1087802E001390878000203219F
:104ED0000C4064002041061C8510041180110E4016
:104EE0000D400C400840002E08D0C521C90069447F
:104EF0000436096876008E19F6880A96002D08D0C7
:104F0000C526F6006E44043536686D007519ED88C7
:104F10000995002C08D0C521C900694404340968EA
:104F200064000C19E4880894002808D0C524E40023
:104F30006C440430246840002018C0880490C525C3
:104F4000ED006D442D68297B89108C44039E002E52
:104F50006BD0C520C000684400681E21415E8B42B2
:104F600063DBC524E4006C4420680630C07F091868
:104F70008B425ADAC524E4006C442568189EAC8B39
:104F8000002E07D10399039D013908782978000282
:104F9000084308E0189E0399012E01D1087802E029
:104FA00001390878000203210C4064002041061CEE
:104FB0008510041180110E400D400C400840002E59
:104FC00008D0C521C90069440436096876008E19E5
:104FD000F68B0A96002D08D0C526F6006E440435DF
:104FE00036686D007519ED8B0995002C08D0C52128
:104FF000C90069440434096864000C19E48B0894FE
:10500000002808D0C524E4006C4404302468400023
:105010002018C08B0490C525ED006D442968039EBF
:105020000531C97F891076180396002F66D0C520F8
:10503000C000684400683621415E8B425EDBC524B7
:10504000E4006C4420683030407B09188B4255DA0C
:10505000C524E4006C442568199EAC8E002E05D151
:10506000791E087839780002084307E0199801286A
:1050700001D1387802E0791E0878000203210C4043
:1050800064002041061C8510041180110E400D4063
:105090000C400840002E08D0C521C90069440436E0
:1050A000096876008E19F68E0A96002D08D0C5265E
:1050B000F6006E44043536686D007519ED8E09955D
:1050C000002C08D0C521C900694404340968640073
:1050D0000C19E48E0894002808D0C524E4006C4420
:1050E0000430246840002018C08E0490C525ED00CF
:1050F0006D4429683031097B89107F18002A66D0F9
:10510000C526F6006E44316848310624085F8342A4
:105110005DDB4C7B0019834259DA1A9D8C88002D87
:1051200005D1511E087811780002084309E01A9E43
:10513000012E03D1107804E024060000511E0878E7
:10514000000203210C4064002041061C851004115C
:1051500080110E400D400C400140002E0BD0043653
:1051600076000A96C526F6006E4430680A9E4830DE
:105170008019C0880A90002D09D0C526F6006E441B
:10518000306804356D0048304519ED880995002CCC
:1051900009D0C525ED006D4428680434640048300A
:1051A0000419E4880894002909D0C526F6006E4445
:1051B00030680431490048304118C9880491C5203D
:1051C000C000684401684831097B89105218049C6A
:1051D00022A958004452181C089DB030B026400047
:1051E00076004552099C981984254000AD00445230
:1051F0000A9E5819400046521598013337301590D1
:105200009BB220E6029D631B06D5069E04360696D9
:10521000DC2E00D0FAE409E2069F0299FFB2381CA6
:105220000397FEF771FF029F059CA74200D968E033
:105230007B0022AE985BFEF71BFFA024B2488025BE
:1052400024066D012550C046C0467B1CAF49DBB229
:105250005B006550985BFEF70BFFAB4AA550C0465C
:10526000C046AA4BE550BB1CDBB25B00985BFEF767
:10527000FFFEA5482550C046C046FB1CA349DBB233
:105280005B006550985BFEF7F3FE9F4AA550C04651
:10529000C0469E4BE5503B1DDBB25B00985BFEF7C2
:1052A000E7FE99482550C046C0467B1D9749DBB2B2
:1052B0005B006550985BFEF7DBFE934AA550C04645
:1052C000C046924BE550FB1DDBB20493BB1DDBB225
:1052D0005B00985BFEF7CCFE8B482550C046C0466D
:1052E000049A3B1C89490833DFB25300985B655030
:1052F000FEF7BEFE844BE550C046C046834EA55126
:1053000092E7039802990130C0B2FEF7FDFE029FBA
:10531000059CA74200D971E03B1CB0335B0022AE74
:10532000985BFEF7A5FEA0247748802524066D0132
:105330002550C046C0467B1CDBB27449B0335B00CD
:105340006550985BFEF794FE6F4AA550C046C04674
:105350006E4BE550BB1CDBB2B0335B00985BFEF7D5
:1053600087FE69482550C046C046FB1CDBB2674932
:10537000B0335B006550985BFEF77AFE624AA55039
:10538000C046C046614BE5503B1DDBB2B0335B000D
:10539000985BFEF76DFE5C482550C046C0467B1DFD
:1053A000DBB25A49B0335B006550985BFEF760FE94
:1053B000554AA550C046C046544BE550FB1DDBB2D4
:1053C0000493BB1DDBB2B0335B00985BFEF750FE6D
:1053D0004D482550C046C0463B1C0833DFB2049BF5
:1053E0004A49B0335B006550985BFEF741FE464A80
:1053F000A550C046C046454BE55089E70398029941
:105400000230C0B2FEF780FE029F059CA74200D981
:105410007EE0B0256D007B195B0022AE985BFEF745
:1054200027FEA0243848802524066D012550C0465B
:10543000C0467B1CDBB261333449FF335B006550EF
:10544000985BFEF715FE304AA550C046C0462F4B6C
:10545000E550BB1CDBB26133FF335B00985BFEF7AA
:1054600007FE29482550C046C046FB1CDBB261330D
:105470002649FF335B006550985BFEF7F9FD224A31
:10548000A550C046C046214BE5503B1DDBB2613301
:10549000FF335B00985BFEF7EBFD1B482550C046D1
:1054A000C0467B1DDBB261331849FF335B0065509A
:1054B000985BFEF7DDFD144AA550C046C046134B6D
:1054C000E550FB1DDBB20493BB1DDBB26133FF3340
:1054D0005B00985BFEF7CCFD0B482550C046C046EC
:1054E0003B1C0833DFB2049B08496133FF335B0088
:1054F0006550985BFEF7BCFD034AA550C046C04608
:10550000024BE55081E7C0468422000004220000DF
:10551000039802990330C0B2FEF7F6FD029C059D88
:10552000AC4200D971E6029D8427BF00EB195B00F5
:1055300022AE985BFEF79CFDA0244D4880252406F2
:105540006D012550C046C046029B8421013389006D
:10555000DBB25B18474F5B00E551985BFEF788FDB7
:10556000434AA550C046C046029B842002338000B7
:10557000DBB21B185B00E551985BFEF779FD3C49F7
:105580006550C046C046029B842203339200DBB2C2
:105590009B185B00985BE551FEF76AFD344BE550C4
:1055A000C046C046029B842004338000DBB21B1837
:1055B0005B00E551985BFEF75BFD2D496550C046E9
:1055C000C046029B842205339200DBB29B185B002D
:1055D000985BE551FEF74CFD254BE550C046C046B3
:1055E000029BE5510733DBB20393029B8420063311
:1055F0008000DBB21B185B00985BFEF739FD1C498D
:105600006550C046C046029B039A08338420DBB233
:105610008000E551029313185B00985BFEF728FDAC
:1056200013496550C046C046E55177E7C526F600E8
:105630006E4433680022934217D00B9FBA4214DAAB
:10564000998801321981D98859811833F5E70124E5
:10565000002901D1FFF72BFBFFF7B0FB0121DB2D68
:1056600001DCFFF718FBFFF7A9FB034B9D44F0BDDE
:1056700084220000042200000C060000124B0222CB
:10568000196830B511421DD01A60104B01221A70F2
:105690000F4B80221B68920081219A5889000022BA
:1056A0005A500C4B0C4D1C780C4B64101C800C4B4E
:1056B0001888411C89B22C548020198040008142F6
:1056C00000D11A8030BDC04600400140483600106D
:1056D000742D0010952D0010C82D00102C360010D0
:1056E000F835001038B51822041C0D1C002100F0FC
:1056F000EFFC201C291CFBF786F9201C38BD00009C
:1057000010B57F230A4C8EB018408121207009010A
:105710006846084A00F04CFB227868465E2100F09B
:1057200092FB6846247800F08DFB201C0EB010BD63
:1057300064360010140A000008B5054B00221A70E8
:10574000044B012210201A70FFF7DAFF08BDC04693
:1057500064360010942D001038B5094C051C2368E0
:10576000013304D1074808492422FBF7F9F8002D3A
:1057700001D0E36800E0236962681A6038BDC04662
:1057800030360010E27B0000FA7B0000A02380226C
:105790001B065205C10701D5274900E027495A5089
:1057A000A023802142101B068905D00701D522487D
:1057B00000E0224819505210A02380211B06C90581
:1057C000D00701D51C4800E01C4819505210A023F6
:1057D00080211B060906D00701D5174800E01748AD
:1057E00019505210A02380211B064903D00701D570
:1057F000134800E0134819505210A02380211B06C3
:105800008903D00701D50E4800E00E481950521008
:10581000A02380211B06C903D00701D5084800E05A
:1058200008481950511080221204002901D004495F
:1058300000E004495A50704704220000842200000E
:10584000082200008822000038B51B4C1B49201C90
:10585000FBF71EFD201C0F21FBF7F9FC201C184C48
:105860001849FBF7D1FC201C00F008FBFEF798FA62
:10587000051C201C00F022FB6369082213436361AE
:10588000281C114900F086FCE06163691022134373
:105890006361636801221343636080250B4CC0235E
:1058A000ED029340E55012200949FBF719FA2560F3
:1058B000FFF742FF38BDC046742D0010402702009C
:1058C00000400140CDCCCC3D2256000000E100E07C
:1058D0007D56000008B512491248FFF703FF124930
:1058E0001248FFF7FFFE12491248FFF7FBFE12496C
:1058F0001248FFF7F7FE12491248FFF7F3FE12496C
:105900001248FFF7EFFE12491248FFF7EBFE12496B
:105910001248FFF7E7FE12481249FFF7E3FE08BD01
:10592000D0380100B02D0010D43A01004C360010E0
:10593000D83C0100C8350010DC3E0100E035001005
:10594000442902007C2D0010482B0200FC35001079
:105950004C2D0200982D0010502F0200143600101C
:1059600030360010A4220100F0B585B0061C03916A
:1059700072B6494B984202D8050B2B0314E0474BF3
:105980001C2598420DD8464B1B25984209D8454BFB
:105990001A25984205D8444B002583426D411923AE
:1059A0005D1B424AAB189B03F31A414C414F5A42CC
:1059B0005341DBB23222029322606560A560201C55
:1059C000391C3D4B98473A68002A01D0012060E01D
:1059D000029B002B04D1E4239B029E4220D040E096
:1059E000364A34231268FA21101C2360890065604E
:1059F000A560019200F0CEFB391CE0602E4B201C0C
:105A000098473A68002AE1D1322323606560A56097
:105A1000201C391C284A90473B68002BDBD0D5E777
:105A20003B232360E0239B006360254BFA21A360A6
:105A3000224B8900186800F0ADFB1E4FE060391C56
:105A4000201C1D4A90473B68002BBFD132232360A6
:105A50006560194BA560201C391C98473B68002BDA
:105A6000B4D133232360039B144AA36080235B00DB
:105A7000FA21E36010688900666000F08BFB0D4D31
:105A80002061291C201C0C4B9847286800289DD1B8
:105A900062B605B0F0BDC046FF7F0100FF7F030086
:105AA000FFFF0200FF7F0200FFFF0100EEFF030087
:105AB000683700107C370010F11FFF1F0401001031
:105AC000FF03000013B56C460734211C012203F0CC
:105AD000D7FE207816BD07B56B46D9710733191C60
