:1000000000800010FD0000001F0F0000210F000005
:10001000000000000000000000000000C360FFEFCF
:10002000000000000000000000000000230F00009E
:100030000000000000000000250F00000547000040
:100040001D0F00001D0F00001D0F00001D0F000000
:100050001D0F00001D0F00001D0F00001D0F0000F0
:100060001D0F00001D0F00001D0F00001D0F0000E0
:100070001D0F00001D0F00001D0F00001D0F0000D0
:100080001D0F00001D0F00001D0F00001D0F0000C0
:100090001D0F00001D0F00001D0F00001D0F0000B0
:1000A0001D0F00001D0F00001D0F00001D0F0000A0
:1000B0001D0F00001D0F00001D0F000000000000BC
:1000C000F4840000000100109C000000F484000093
:1000D0000000002000000000F48400000040002028
:1000E000000000009C0100103C1A000000000020ED
:1000F00000000000004000200000000010B5104C7F
:10010000104B9C4206D2A2686168206800F00BFF89
:100110000C34F5E70C4B9C4205D26168206800F076
:100120000BFF0834F6E700F063FE084B002B02D00B
:1001300000E000BF03E004F04DFC00F039F8FEE7FA
:10014000C0000000E4000000FC000000000000000F
:1001500010B5064C2378002B07D1054B002B02D09D
:10016000044800E000BF0123237010BD9C01001073
:1001700000000000F4840000084B10B5002B03D0F1
:100180000749084800E000BF07480368002B00D17A
:1001900010BD064B002BFBD09847F9E7000000008C
:1001A000A0010010F48400009C0100100000000079
:1001B00013B502F01BFA582402F0A6F900280CD05F
:1001C000002200946E231100100002F0CFFA0028E4
:1001D000F2D0024803F06CFBEEE716BD5865000054
:1001E00010B5024801F0FAFC10BDC046B80100107D
:1001F000022307490A7806481A42FBD0FF22054B22
:100200001A70FB3A01781142FCD01878C0B27047DE
:100210000C00044008000440022307490A780648FD
:100220001A42FBD0FF22054B1A70FB3A01781142AB
:10023000FCD01878C0B270470C000440080004409D
:1002400010B50100014800F075FD10BD68020010F6
:10025000F8B543B204000D00002B07DA0021772027
:10026000FFF7F6FF012831D87F231C40A026882302
:1002700080279B013606F750FFF7BAFF8A239B01C0
:10028000F750FFF7B5FF2000FFF7DAFF280EFFF762
:10029000D7FF280CC0B2FFF7D3FF280AC0B2FFF780
:1002A000CFFFE8B2FFF7CCFF9520402C03D0943865
:1002B000482C00D18630FFF7C3FF0A24FFF798FFD0
:1002C000030603D5013CE4B2002CF7D1F8BDFFFFD3
:1002D000F8B51D002F4B07001B7816001B0700D434
:1002E00049025120FFF7B4FF002801D0012447E064
:1002F000294CFFF77DFFFF2804D1013CA4B2002C5C
:10030000F7D1F3E7FE28F1D1244C641BA41BA4B25F
:10031000002E06D1224B002F1AD022480426007846
:1003200011E0013EFFF778FFB6B2F1E71E4A107008
:100330001A783242FCD01C4A013D1278ADB23A70B4
:100340000137002D16D002211A780A42FBD0EDE7C2
:1003500002210427134A144816781A780A42FCD05E
:1003600006701A783A42FCD00F4A013DADB21278BD
:10037000002DF2D1013CA4B2FFF74EFF002CF9D1C1
:100380008823A02280219B011206D150FFF730FF65
:100390002000F8BDBC010010307500000202000012
:1003A0000C0004406565000008000440144B10B5C3
:1003B0001C880234A4B2002C04D00020FFF740FFB8
:1003C000013CF7E7FFF714FF1F230124184005281D
:1003D0000CD10C4CFFF70CFFFF2804D0002C02D0EE
:1003E000013CA4B2F6E763425C41E4B28823A02258
:1003F00080219B011206D150FFF7FAFE200010BDAC
:10040000BA010010E8FD000073B58823A025802400
:10041000404E9B012D06EC503F49300000F080FC1F
:1004200000220821300000F06FFC84239B01EB5870
:10043000234201D1FFF7BAFF6425013DEDB2FFF77A
:10044000D7FE002DF9D129004020FFF701FF04005D
:10045000012848D1D52148204900FFF7F9FE01289D
:1004600015D1FFF7C5FE01AC28550135042DF8D193
:10047000A378012B37D1E378AA2B34D1274D8021E3
:10048000E920C905FFF7E4FE011E11D115E029009E
:10049000E920FFF7DDFE4126012801D80224E926E4
:1004A0001F4D00213000FFF7D3FE002817D11CE0BC
:1004B000013DADB2002D16D0E1E77A20FFF7C8FE6E
:1004C000002810D10500FFF793FE60550135042D7B
:1004D000F9D123780C245B060ED42C000CE0013DEE
:1004E000ADB2002DDDD1002406E08021502089002E
:1004F000FFF7AEFE0028F6D10A4BA0221C7088231D
:1005000080219B011206D150FFF772FE60426041CC
:10051000C0B276BD68020010002D3101E02E00004F
:10052000A8610000BC010010064B1A68831ED16848
:10053000002002398B4203D2507843439069181847
:100540007047C046C00100100F4B10B51A68002359
:100550000380836804001800012B13D0D1680120A8
:100560008B420FD2002B03D11178032900D153699C
:10057000E360002B03D01800FFF7D6FF00E05069BE
:100580002061002010BDC046C0010010F0B504007D
:1005900085B0012854D92C4B1D68EB6898424FD286
:1005A0002E78022E32D0032E38D0012E48D181B2BF
:1005B0004B08C91889B24B0A0193244BCA05D20DC6
:1005C000296903AF9A4204D0019B380059180223CD
:1005D0000EE0019B380059183300FFF779FE021E28
:1005E0002ED12969019B0131C918330002A80530B9
:1005F000FFF76EFE002823D17B7838781B02034377
:100600001811E2071DD41805000D1AE02B69C2B2BB
:10061000010AC918520003AD330007E07F2204230A
:1006200029690240C4099200611803AD2800FFF750
:100630004FFE002804D168782B780002184300E0B0
:10064000012005B0F0BDC046C0010010FF01000050
:1006500070B5048805000134A4B2002C01D1032335
:1006600022E00369002BFAD022071BD101330F4A85
:100670000361C0681668002803D1B388A342EED98D
:1006800010E073782209013B1A420BD1FFF77EFF7D
:100690000123984208D9F3689842E0D2E860FFF756
:1006A00043FF286100232C80180070BDC00100109A
:1006B000F7B504000D002B78202B01D10135FAE7A6
:1006C0002F3B5A4253410027ED18A7602B78202B6F
:1006D00001D901972EE02000FFF736FF404B0600BE
:1006E0001B689B681F7078E0009B1B78002B68D00C
:1006F0000822009BDB7A13405BD162680099581C8A
:10070000C95CD35C994254D103000B28F6D1D37A4B
:10071000002B62D13B689868C37ADB0656D5437DCF
:10072000017D1B020B43C27E1904837E1202134318
:100730000B43A3606068020003000B32934203D1B5
:1007400000220821130013E0202119700133F5E77E
:100750002F2B12D02E2B3BD091420ED91F00613F80
:10076000192F01D8203BDBB2571C8354FAB2330057
:100770005E1CEB5CF6B2202BEAD8AD192026019A5C
:100780009E425241C2722000FFF7DEFE061E16D1C5
:10079000134F3B689B6800930F23228821691A40FE
:1007A000520111330098FFF793FD00289CD00126D9
:1007B00013E02000FFF74CFF0028EDD00600032EC9
:1007C0000BD163680326DB7A002B06D1042604E0F4
:1007D0000829D2D10A000331C9E73000FEBDC04666
:1007E000C001001070B5164B01001C6890B00620C7
:1007F000002C23D00023A3706B4608ADA56003A88E
:100800000493FFF755FF002818D12B780330002BF5
:1008100014D01023EE7A1E4010D16B7D297D1B026F
:10082000EA7E0B431904AB7E120213430B4363624F
:100830000F9B300023620123E661A37010B070BDEE
:10084000C00100102F4BF7B51C68002307000D00F6
:100850000192138006209C4253D0A3780138DB0715
:100860004FD5236AE2699B1A8B4200D29DB2009752
:10087000002D45D0E669F3051BD1700A617804F0BC
:1008800071FA00290BD1002E01D1606A02E0A06A42
:10089000FFF77CFE01282FD90023A062E370A06A35
:1008A000FFF742FE002827D0E3785A1C1818E270A0
:1008B000E062E3692E1CDA058023D20D9B009B1AAF
:1008C0009BB29D4200D91E1CB6B2381E00D00098C3
:1008D0003300E16AFFF7FCFC00280DD1E369AD1B92
:1008E0009B19E361009BADB29B190093019B1B8890
:1008F000F618019B1E80BBE700230120A37000E0D7
:100900002800FEBDC0010010294BF7B51C68062366
:10091000002C4AD0A278013BD20746D5256A8542F1
:1009200000D905000022E369E261954238D066787B
:100930007602002B12D03100681E5F1E04F08CF985
:1009400031000190380004F087F9019B834205D300
:1009500073423B40E361ED1AA06A01E0606AA06265
:10096000B5420CD9FFF712FE01281BD9E368984263
:1009700018D2E369A0629B19E361AD1BF0E7E3695C
:100980005B19E361FFF7D0FD00280BD06B0ADAB2E8
:10099000ED0501D1E27003E00132C318E270E362B9
:1009A000002302E00023A37001331800FEBDC046FF
:1009B000C001001030B5154B04001B688DB0062037
:1009C000002B20D004AD9D6001AB63602000FFF7D9
:1009D0006FFE002815D12B78002B0FD0EB7ADB06A9
:1009E00001D404200FE06B7D297D1B020B43EA7EBE
:1009F0001904AB7E120213430B43A3602000FFF7E0
:100A0000A3FD0328EDD00DB030BDC046C0010010DD
:100A100010B513000A000100014800F003F810BDF2
:100A2000666500000FB404B0704770B50D00040097
:100A3000160000F07FFB6B1C07D00021200000F0A7
:100A4000A1FB3100200000F097FB70BD10B5012222
:100A5000FFF7EBFF10BDFFFF10B50400034B083399
:100A600003601C3000F068FC200010BD9865000099
:100A700010B50400FFF7F0FF200000F067FA200037
:100A800010BDFFFF036810B50400013304D12C2210
:100A900005490648FFF7BCFF636960681B6818409A
:100AA000431E984110BDC046A8650000F2650000D5
:100AB00070B5050004000E4B0E00083308C5280071
:100AC0001822002103F0C0FF002320003100E36161
:100AD00023626363A363E364064A23001C3000F0CF
:100AE000C9FB28003100FFF7B1FF200070BDC046F0
:100AF000986500005D0B000010B50430FFF7C2FFE1
:100B000010BD03000A0010B51C300121002A04D0DA
:100B10001A6200225A630132110000F021FC10BD5C
:100B2000030010B50A001C30002903D0002299638D
:100B3000DA640132022100F013FC10BD436910B5E4
:100B40000100002B04D10368002B06D0984704E075
:100B50000068002801D00431984710BD10B5012964
:100B600003D0022904D1383000E02030FFF7E6FF3F
:100B700010BDFFFF10B50400431C12D00B685A1CB7
:100B80000CD09C4208D12000896800F00FFC0021A5
:100B9000200000F027FC04E00C31EFE70148FFF7EC
:100BA00041FF10BD0A66000010B5030088420AD05C
:100BB0000B00421C07D003004A1C04D00348FFF777
:100BC00031FF01235B42180010BDC0461B660000C8
:100BD0000B685A1C05D0834201D1486802E00C31F1
:100BE000F6E718007047FFFF10B50400431C07D05C
:100BF000FFF7EEFF0400431C02D10248FFF712FF8B
:100C0000200010BD2C660000074A13681818EFF387
:100C10000881884205D30C220120044B40421A600F
:100C200001E010601800704704010010D41B001090
:100C3000064B10B51B680400002B00D09847044BEE
:100C40001B68002B01D02000984710BD0801001040
:100C500014010010094B10B51B680400002B04D0D0
:100C60009847002801D1FFF7E3FF054B1B68181ECA
:100C700000D09847002C00D0206010BD0C0100105F
:100C800010010010704710B5040000F05FF920005B
:100C900010BDFFFF73B504000E480025083020602A
:100CA0000820E0600C48261D60610698656025728A
:100CB00025610090300000F003FD2B003000226918
:100CC000E16800F07DFD3000616900F0AFFD2000BB
:100CD00076BDC0466C66000040420F0070B5094DFD
:100CE00004002B6883420BD0061D0269C1680023F3
:100CF000300000F065FD6169300000F097FD2C6068
:100D000070BDC046C40100100261002210B5034B43
:100D1000C1601A60FFF7E2FF10BDC046C4010010B9
:100D2000002210B5024B41611A60FFF7D7FF10BDDA
:100D3000C401001070B50D000400FFF7CFFF2900BB
:100D4000201D00F0B7FD70BD036870B5DB680400BE
:100D5000984763685A682368002A02D19B689847BD
:100D600013E05B681568984763682D1A5A68002D70
:100D700007DC916859601B68002BEAD050689847DF
:100D8000E7E7236810681B69984770BD10B50248F3
:100D9000FFF7DAFF10BDC0469466000070B504008E
:100DA00000F0C4FD050000F0C1FD401BA042FAD3D5
:100DB00070BDFA2310B59B005843FFF7EFFF10BD3D
:100DC00070B50A4CA568A3682A00002B0AD18022BE
:100DD0005E5952059A1804331660C02BF7D1802251
:100DE0005205A26010308000815070BD00ED00E01F
:100DF0007FB580203F494002CA6F8E240243CA67F4
:100E00002322002020253C4B3C499A60223A0A606C
:100E10003B49A4000A60186219593A4A11400191ED
:100E20000199A943C825019101992D02294319511E
:100E3000009035480099814204D8C046009901319C
:100E40000091F7E70121002019645964586459643E
:100E50005C6C29480C42FBD08E218026C825890075
:100E600044582D0214400394039C34430394039C80
:100E70002C43445023248460445822400292029C14
:100E8000B4430294029A2A4342500120DC681A4972
:100E900001220442FAD00320086700204A6748670D
:100EA00010004A675C6F144A01210442FAD08E2078
:100EB000916780001558154C2C4014501558144C4F
:100EC0002C40145000209164D164D064D164DA6C59
:100ED0000A42FCD02321084A1161012259691142BA
:100EE000FCD000220B4B1A601A600B4B01321A60C7
:100EF0007FBDC0460480044000800440F0400440B0
:100F0000F4400440FF250000C3090000FFFBFFFF81
:100F1000FFFEFFFFC0800440C88004407047704758
:100F2000704770477047002310B5934203D21C5896
:100F30005C500433F9E710BD00231A008B4202D243
:100F40001A500433FAE770470020704710B503F0D9
:100F500071FD10BD13B501210F4B9A68120B1203DE
:100F60009A6002789C6891402143996099680B4887
:100F70000143996018690849019001980028F9DA3D
:100F800008329200535801938B685B005B088B60BA
:100F900001980004000D16BD00C001400000088447
:100FA00070B50600FFF7D6FF04003000FFF7D2FF50
:100FB00005003000FFF7CEFFAC4202D923002C0021
:100FC0001D000300A84200D92B0020009C4200D243
:100FD000180070BD73B50C00214D060029002000DB
:100FE000FFF702FEC0B23070FF2804D135221D4940
:100FF0001D48FFF70DFD20002900FFF7BBFD8022F3
:101000001A4BE405E40DE418236819499343B932F7
:101010002360FF328858174B034010200193019B37
:101020008343C8200193019B000203438B5080211E
:10103000114A8901D36F0B43D367104B10491868CD
:1010400003F00AFE8023DB051A000138C0B20D4907
:10105000184308600B681340FCD10A4A136073BD43
:10106000006700009C660000E76600000040044046
:1010700000800440FF250000048004401801001097
:1010800020A1070000C0014010B5FFF789FF04F060
:1010900043FD024904F03CFA10BDC0460108803906
:1010A00010B50400431C04D11E2217491748FFF74E
:1010B000AFFC174B1A68002A06D101321A60154A94
:1010C0001549D36F0B43D3670122002C12D0134B69
:1010D0009C420FD0124B9C420CD0124B9C4209D028
:1010E000114B9C4206D0114B9C4203D0104BE1188F
:1010F0004A424A412000110000F058F90120A4049E
:10110000E40EA04010BDC0469C670000F7650000DB
:10111000D0010010048004404000010028140000A9
:101120002C16000030180000341A0000381C000093
:10113000C4E1FFFF70B505000C0029604B1C11D005
:101140000800FFF7ADFF2414074BA400E318EB6081
:10115000064B6860E3182B61054BE3186B61054B88
:10116000E418AC6070BDC046002200A0802200A040
:10117000002100A0002000A010B5006800F032F9A6
:1011800010BDFFFF036870B504000D00013304D1EA
:10119000432209490948FFF73BFC002D06D0012DE9
:1011A00009D1A268636811680B4303E0A268616813
:1011B00013688B43136070BD9C670000F2650000EC
:1011C000F7B501210D008540134C636A2B4221D0F5
:1011D000124B8600F058019300281BD023682B4245
:1011E00018D163682B4206D0E3692B4203D00C4B25
:1011F0001B689847E5612369074F2B4209D03B6A7A
:101200002B4206D0064B019A1B6802219059984741
:101210003D626562F7BDC046004000A0D8010010E5
:10122000D401001010B50020FFF7CAFF10BD10B5A3
:101230000120FFF7C5FF10BD10B50220FFF7C0FF6A
:1012400010BD10B50320FFF7BBFF10BD10B5042083
:10125000FFF7B6FF10BD10B50520FFF7B1FF10BDB9
:1012600010B50620FFF7ACFF10BD10B50720FFF743
:10127000A7FF10BDF7B505002748814202DD012018
:10128000404248E02548264C026000208200165962
:101290000096002E3BD11351224C2860E36F224F61
:1012A000224E3B43E3671F248B0349120C40182155
:1012B000A44604009B0F59435E346144A400A1512D
:1012C00081210124890071589B000F002100814079
:1012D0000F4339008127BF00F151A0218026090664
:1012E0005B18B60199592700019161468F40019919
:1012F00040B2B94399510E4BD158FFF761FD1F22FF
:101300002B68009813409C400A4B1C6003E001309E
:101310000828BBD1B3E7FEBD13110200D4010010B1
:10132000D8010010048004408000090000800440BF
:10133000E467000000E100E000210368064A9B002A
:1013400010B59950012281210068044C8240890027
:1013500063589343635010BDD801001000800440CF
:1013600003680120984070B50F4C2368034200D1F8
:101370006062C54326680C4B2E402660012909D1C6
:10138000002A03D05A68104358600CE05A68154090
:101390005D6008E0002A03D01A691043186102E07A
:1013A0001A6915401D6170BD004000A070B50400B1
:1013B0000D00431C04D1152207490848FFF728FBFC
:1013C000074BE405E40DE418072322681D409A4307
:1013D0001543256070BDC04604680000F765000035
:1013E0000040044070B504000D00431C05D11D22CF
:1013F0000F491048FFF70CFB06E081231B019842C0
:1014000014D00D4B984211D00C4BE405E40DE418B8
:101410002368042D04D18022D2001343236005E009
:101420001822ED00934315401D43256070BDC04652
:1014300004680000F7650000140A00000040044042
:1014400070B50C1C05000021201C03F0E1FC0028F5
:1014500009D1FE21201C890503F0EEFC002803D0F1
:10146000FE24A40500E0002480232D689B00E8589A
:1014700004F052FB211C04F04BF803F0F1FC812333
:101480009B00E85070BD8023F7B5812704689B005E
:10149000E258BF00E059E15001920D0004F03CFB1E
:1014A000061C019804F038FB011C301C03F066FE9A
:1014B000061C280004F0E8FA011C301C04F028F88F
:1014C00003F0CEFCE051F7BDF7B50F000600504920
:1014D0003800FFF789FBC3B20500FF2B02D14D484E
:1014E000FFF7A0FA4C4B01211A7801931000084035
:1014F000031E04D00A410B000A4200D081E00124FF
:1015000021009940019A4548127873600A43019975
:101510000A70434A99008A5809333260C26F110039
:10152000802212061143C1672000984003003D4A03
:1015300038005268364913433A4A5360FFF71AFBA2
:101540003768394A3B68394913430C223B607B6852
:1015500013437B607A68364B13407B607B68019352
:10156000344B186803F078FBFE2301381B0140015F
:101570001840019B18437860E8B207281DD803F093
:1015800061FB040A1016040A1016A023DB00FC50AD
:101590000222294B10E0A123DB00FC500222274B42
:1015A0000AE0A223DB00FC500222254B04E0A32327
:1015B0000222DB00FC50234BFA508022C12352014F
:1015C0009B00FA500123C0225B4292001E49BB508F
:1015D0000C32B950043ABB5080231C499B00F9508F
:1015E000FB58053A9B08FF3ABB5004227B68300049
:1015F00093437B60FFF747FF30000021FFF720FF98
:10160000F7BD1348FFF70EFA01235B4277E7C046A8
:101610004C680000B8680000F80100100480044025
:10162000E4680000008004400100060040420F0012
:101630001FF0FFFF18010010040500000C0500005A
:10164000140500001C05000001100000204E0000E1
:10165000D268000080210A4AC905D36F80200B435D
:101660000121D367074B1A680A431A6000229A6067
:101670001A6802431A601A688A431A607047C046A3
:101680000480044000400240024B18680006C00F6E
:101690007047C04600400240014B98687047C04602
:1016A0000040024010B58024044B1968A143196022
:1016B00098601A6822431A6010BDC046004002407C
:1016C000F0B5334E87B000910400310000980192CC
:1016D0000293FFF789FA2F4D070029000198FFF7C1
:1016E00083FA2D4903900298FFF77EFA2B49049064
:1016F0000C98FFF779FA039905903800FFF754FA30
:10170000059907000498FFF74FFA01003800FFF72A
:101710004BFA2060431C04D1482221492148FFF79D
:1017200077F92368204A93420FD0204A934219D177
:1017300080201F49C002CB6F1E4A0343CB670121A3
:101740001D4B1960536803310AE0802018490001DD
:10175000CB6F184A0343CB670121184B19605368BC
:101760000B43536031000098FFF704FA29000198F9
:10177000FFF700FA08490298FFF7FCF90C9B0133C8
:1017800003D006490C98FFF7F5F907B0F0BDC04645
:10179000306A0000EC680000286900006C6A0000F4
:1017A00070690000B6690000000004400080054038
:1017B00004800440008004409C80044094800440E5
:1017C000F8B50E000221140002681D0053680700DE
:1017D0008B435360331F0C2B06D9032C04D965228D
:1017E00010491148FFF714F98023E0010340013E3E
:1017F0001E43A30734003968DB0F0A689B01120CF3
:1018000012041C4314430D220C604B6893436A1E60
:1018100095410222AD001D434D604B6813434B6060
:10182000F8BDC04670690000CA690000F7B502241F
:1018300005000E0002685368A34353601A4B1B68EF
:1018400001932100019803F007FA04F01DF9071C29
:10185000300004F019F9011C381C03F08FFCFC2146
:10186000890503F015FB04F005FE03F01BF804F0F6
:10187000CBFDFF280FDC2B680C4A1C61196801386E
:101880000A4002211A601A680002104318605A6860
:101890000A435A6007E0802302345B009C42D0D1A7
:1018A0000348FFF7BFF8F7BD18010010FF0000FF65
:1018B000086A000002220368D8681042FCD00422A3
:1018C0009960D9681142FCD098687047104B70B588
:1018D0001A68002A1AD1012580210E4A1D60D36F93
:1018E000C9000B43D3670C4B0C4C186802230C49FE
:1018F000636003F0B1F90138E0600A4965601320C4
:10190000FFF75EFA8022084B12031A6070BDC046D2
:10191000FC01001004800440180100100080014008
:1019200040420F008D0D000000E100E0044B10B5B7
:101930001B68002B01D1FFF7C9FF024B986810BD4F
:10194000FC010010008001400121034B98615A699D
:101950000A435A617047C046008001400121024A93
:1019600053698B4353617047008001400122014B52
:101970001A60704700800140704770477047FFFF52
:1019800010B50548FFF780FB044903F0C1FD03F0E3
:1019900067FA034B187010BD0102001000007F436E
:1019A0000002001010B5FFF7EBFF10BD10B50249A3
:1019B0000248FFF70FFB10BD5C2E00000102001073
:1019C00010B502F0A9F910BD70B50023FF2402255F
:1019D0000B480C4AC15C002906D0D15C0131C9B268
:1019E000FF2906D1D55407E0D65C002E04D0FF2E87
:1019F00001D1D15400E0D4540133072BEAD170BD9A
:101A0000ED19001003020010034B185C013843422B
:101A10005841C0B27047C04603020010002210B502
:101A20001D4B19781A701D4A5078002801D00120EA
:101A30001870D078002803D002241878204318703A
:101A40001078002803D00424187820431870907868
:101A5000002803D008241878204318701079002833
:101A600003D010241878204318705079002803D030
:101A700020241878204318709279002A03D040203F
:101A80001A7802431A701B78054A180008409943D7
:101A9000044B1070197010BD02020010ED190010F7
:101AA0000B0200100A020010014B18797047C04663
:101AB000ED190010014B58787047C046ED19001021
:101AC000014BD8787047C046ED1900100023094A31
:101AD0001380094A1370094A1370094A13700122CE
:101AE000084B52421A80084A084B1A600922084BD8
:101AF0001A70704712020010110200101802001034
:101B00000C0200100E020010747400001402001089
:101B10001002001010B50248FFF7D8FF10BDC046F4
:101B20000D02001037B572B600210422244B802527
:101B300059601961234BED001A608E22224B9200EE
:101B40009C582C4380259C509C586D002C439C50E5
:101B500001225A671400596719004B6F1A4D012270
:101B60002340FAD114002B676A676B674B6F164AE4
:101B70002340FBD18E245364516CA40093601367FF
:101B80005360155911492940802501910199294334
:101B9000C825019101992D0229431151A0228421C8
:101BA0001206890153500A4953500A4953500A4BAF
:101BB0009860001C01688D464068804737BDC0466C
:101BC000004000A010E000E000800440FF2500007D
:101BD000042100000821000000ED00E07047FFFF35
:101BE000F0B5C1B00E0000F055FE00F05FFE80239E
:101BF000DB029B1B0400984200D91C0000F040FE51
:101C00008027134801F054FE00257F00A5421CD216
:101C100080216846490000F017FEFF2804D8631BA6
:101C2000BB4201D90B4806E0A819694602F0A6FCA0
:101C3000002804D0084801F03BFE012006E00135F1
:101C40000648FF3501F028FEE0E7002041B0F0BD76
:101C5000DE750000EA75000005760000577600008A
:101C6000F7B501260024514B514D1E70514B1C807D
:101C7000FC23DB002B8000F071FE2100200000F02F
:101C80009DFE300001F05CFD0094019406F053FAD3
:101C90000421494800F0B2FDA0420FD100F0FAFD46
:101CA0000820404200F0D8FD0421684600F0CCFD39
:101CB000042101A800F0C8FD00F0E2FD01273F4E1D
:101CC0007F423F4C2368B34200D03E4C2368B3426E
:101CD00000D03D4C2368B34200D03C4C2368B34253
:101CE00017D020233A485B422B8001F0E1FD009B96
:101CF000002B03D0374B019A9A4240D8364801F066
:101D0000D7FD364801F0D4FDFC23DB002B8034489E
:101D100020E0344B34482B8001F0BEFD0A2160687E
:101D20002F8001F038FE6368009A934227D3A068A1
:101D3000FFF7F8FE17E0FFF7C3FE002834D1FFF7E6
:101D4000B9FE0028F7D001990098FFF749FF002855
:101D500026D0264801F0ACFD05E0FFF75FFEFFF757
:101D6000A3FE002804D1FFF79FFE0028F5D01BE05A
:101D7000FFF79AFE002817D0FFF750FEF8E71C4B3C
:101D80001C482B8001F088FD00980A212F8001F06B
:101D900002FEFC231848DB002B8001F089FDCEE712
:101DA000164801F085FD8CE7F7BDC04626010010FE
:101DB0001E01001030050010CB7600001EAB07B0EE
:101DC000F4FF030004FF030004FE030004F003001B
:101DD000D3760000FF7F0300E776000096650000E1
:101DE000FE760000FF07000019770000237700004F
:101DF0001FF8FFFF497700005D7700003F77000084
:101E0000F8B50024012001F09BFC484BFC271C8006
:101E100000F0A4FD464D474B47482B8001F024FCC1
:101E20000123464E30213370454BFF001C70454B5B
:101E300060201C702F8001F041FD434801F02CFD13
:101E40003821602001F03AFD404801F025FD402195
:101E5000602001F033FD3E4801F01EFD4821602066
:101E600001F02CFD3B4801F017FD6021282001F016
:101E700025FD394801F010FD013C38482C8001F067
:101E80000BFD37482F8001F007FD022335482C80D9
:101E9000337002F025FC03190434042B00D804002D
:101EA00002F048FC85B2002C38D0FFF7B7FD78214E
:101EB000682001F003FD0A21200001F04FFD02F02F
:101EC00039FCFA239B00EB18984203D902F032FC4C
:101ED000013C85B201F0C2FF002808D001F0BEFF2E
:101EE000041E02D0FFF79AFDF8E7FFF7B9FE01F0F4
:101EF000A9FF002807D001F0A5FF002802D0FFF7B6
:101F00008DFDF8E7040001F0A3FF0028CBD001F01D
:101F10009FFF002802D0FFF781FDF8E7012333700F
:101F200000F01CFD002001F00BFCF8BD3005001096
:101F30001E01001000F8FFFF1071000026010010C4
:101F40001D0100102001001082770000877700003B
:101F50008C77000091770000967700009C77000056
:101F6000A0770000A20F0000F0B5984D1E002B884E
:101F70008BB00400049109935711002E06D0002065
:101F8000322300901A00010000F00CFD6A46102177
:101F9000525E8E4B029222B20392032F02DCFC228D
:101FA000D20022E0042F1DD120235B422B80002E83
:101FB00000D102E101F0BCFB0500012001F0C0FBF3
:101FC00001F094FD049902001439601EC9B20A237D
:101FD000C0B201F0C7FC7E4801F05EFC280001F0B1
:101FE000AFFB05E0042F01DD7A4A1A80002EE1D113
:101FF000002F02DC784A754B1A800123774A009340
:102000000299039800F0E4FC012F02DC724A6F4B46
:102010001A80A3B21D000126704C08352DB203931F
:102020002200330002992800009600F0D1FC6B4694
:102030001B8A22000493043B1BB2059300963300D5
:102040000599280000F0C4FC022F02DC624A5F4BB5
:102050001A800125039E2B00103636B22200029909
:102060003000009500F0B4FC2B00220005993000F0
:10207000009500F0ADFC049B0095083B1BB2069355
:1020800022002B000699300000F0A2FC032F02DC96
:10209000514A4E4B1A800124039D504E18352DB2E3
:1020A0002300320002992800009400F091FC2300E4
:1020B000320005992800009400F08AFC23003200C9
:1020C00006992800009400F083FC049B00940C3BCC
:1020D0001BB20793320023000799280000F078FC18
:1020E000042F02DC3C4A394B1A800124039D3B4EED
:1020F00020352DB22300320002992800009400F010
:1021000067FC2300320005992800009400F060FC71
:102110002300320006992800009400F059FC2300A7
:10212000320007992800009400F052FC049B0094B0
:10213000103B1BB20893320023000899280000F0DE
:1021400047FC052F02DC244B204A13800125039C09
:10215000224E283424B22B00320002992000009530
:1021600000F036FC2B00320005992000009500F0AD
:102170002FFC2B00320006992000009500F028FC6F
:102180002B00320007992000009500F021FC2B0065
:10219000320008992000009500F01AFC04992B00E9
:1021A0001439320009B20095200000F011FC6A4693
:1021B000064B928C1A800BB0F0BD0123074A0093A6
:1021C0000299039800F004FC23E7C0461E010010AA
:1021D0002F78000000F8FFFF8A520000CB7D00003E
:1021E000F0B5012087B001F0ABFA0022A14B1A70C4
:1021F00001F07CFCFA20000102F072FA040003F006
:102200008BFC9D4B9D491C80051C02F015FE00288F
:1022100001D0FF2000E07F2001F054FCFA21281CAF
:10222000890503F075F903F00DFC00B201F00EFC16
:10223000FC21281C890503F06BF903F003FC00B2B4
:1022400001F004FC20B201F001FC00228C4B64116F
:102250001C708C4B8C481A7002F042FA431E04002A
:10226000092B00D9894C02F065FA83B2049301234B
:10227000FC271D000393FF00854B1B78002B00D12A
:10228000D5E0002D00D1D2E0002C00D1CFE002F04B
:1022900051FAFA22049B92009B18984208D902F046
:1022A00049FA83B204937B4BE3185A1E9341E41A14
:1022B000012D03D0022D00D198E0DDE7039B764D80
:1022C000002B32D0012600F049FB7642102120205D
:1022D0002E8000F073FB714801F0DEFA992128206E
:1022E00000F06CFB6E4801F0D7FA6E482F8001F0C9
:1022F000D3FA6D482E8001F0CFFA582100202F80AC
:1023000000F05CFB694801F0D3FA694E300001F03F
:10231000CFFA300001F0CCFA300001F0C9FA3000F9
:1023200001F0C6FA634801F0C3FA9921302000F0A9
:1023300045FB534E3378032B02D801235B4200E068
:102340005D4B2B8002235D4A00933021013BA4208A
:1023500000F03EFB3621182000F030FB584801F019
:102360009BFA1820422100F029FB33785548032BB3
:1023700000D8554801F090FA0223544A2F8060217A
:102380000093A420013B00F023FB6621182000F0FD
:1023900015FB4F4801F080FA7221182000F00EFB67
:1023A00001F0A4FB7F2802DD434B2B8000E02F804F
:1023B000334B394D1A78042A02D1243A2A8003E09B
:1023C000072A01D1013A1A7018780A2101F0C6FAD9
:1023D000404801F061FA2F8001F088FB00230200E1
:1023E00077217020FFF7C0FD022545E7FFF716FBB8
:1023F000FFF7EAFA01F026FD0590002801D000253C
:102400003AE72800FFF700FB061E05D001F02CFB81
:10241000059B1E4C039308E0FFF7F6FA002800D155
:102420002AE71A4C01F038FB0396012524E701F056
:102430005DFB0400FA20000102F052F906002000C2
:1024400003F06AFB051C300003F01EFB011C281C76
:1024500002F0D8FC002804D1FA20E1B2000102F019
:1024600048F920B201F0F2FA0021080000F0A6FAC3
:1024700007B0F0BD1D010010521800100000FE4210
:102480005418001023020010A30F0000FFFF0000EB
:10249000210200100100FFFF1E010010AB770000B9
:1024A000C4760000BF770000C1770000CC77000041
:1024B000E77700000278000000F8FFFF877D00004A
:1024C0007F7600001D78000027780000A97D0000BD
:1024D000327800002F780000012210B5084B002050
:1024E0001A7001F02DF9074801F0BEF802F012F958
:1024F00002F036F901F010FC02F022F910BDC046DE
:1025000021020010A86A0000014B18787047C046ED
:1025100021020010F7B50024FC2725005826FF00F3
:10252000292D48D802F006F9234B1A689042F7D9B2
:102530001E301860012D0BD0002D02D0022D22D0AC
:1025400035E01E4B28001D8000F016FA01252EE014
:10255000FC21E2B2C900002001F04AFA184B194AE6
:1025600018806E2351781078490840081C34181AD6
:10257000711A00952B00A4B200F02AFAFE2C16D98D
:102580000024022513E00E4B0E4A1F806E231078A4
:1025900051784008181A49086D3B0093711A00F0F1
:1025A00017FA3F34084BA4B29C4200D9FF25FFF72D
:1025B0007BFA0028B4D0F7BDC41B00103005001012
:1025C0001E0100107D780000FF03000010B57F2081
:1025D00001F078FA7F22034B1A80034B80321A7085
:1025E00010BDC0465218001020020010F7B5FFF7CA
:1025F00073FF32220127FF242A4B1A702A4B1F60D7
:102600002A4B1C70FFF7E2FFFFF7B6F92000002409
:10261000FFF7B3F9FFF7D4F9FFF7D6F9FFF7C2F9DF
:1026200000F0C7F9FFF776FF380001F089F8204E77
:10263000348000F093F91F4D280001F015F83800A0
:1026400001F07EF8FC221C4BD2001A80348000F08E
:1026500085F9280001F008F8184E194D34702F70D4
:10266000FFF7CEFBFFF7BCFD00F080FC58232200F3
:10267000009321001633200000F0CEFC114B187996
:10268000002802D0FFF7A0F9F8E701F059F801237C
:102690000D4A0E4813700E4A33702B70137000F001
:1026A000E3FFF7BD220200102802001020020010F4
:1026B00030050010107100001E0100101D010010F7
:1026C000200100100302001026010010AC6D000074
:1026D00022010010F0B51F4B85B01A780393002A31
:1026E00036D000240B2A02D80C239C1AE4B201270E
:1026F000194B002055251F7000F0ACFC0322174E2B
:10270000A4B231780020CB1C691A611800925132B2
:1027100000F06DFF380000F09DFC032231780020AE
:10272000CB1C691A61180092513200F0FAFE0422A3
:102730000B4B1A803378E41A0A4B57341C800A4B2F
:10274000186801F0A9F8039B039A1B78013B1370EA
:1027500005B0F0BD3402001026010010A5020010E3
:102760002A050010B80400102C020010F0B587B044
:1027700005930CAB039104921F78060001F0DAFF79
:10278000164B17491B780A68164C121A9A4212D92E
:102790002268002A0FD0144AC3180B601368012561
:1027A0000133136000232360FFF7E8F8FFF70CF90B
:1027B000FFF7E6F80EE000252368AB420AD1FFF7E9
:1027C00089FF059B0097049A0399300000F024FCD0
:1027D00001232360280007B0F0BDC046220200108C
:1027E00030020010280200101C02001010B5024830
:1027F00000F04CFF10BDC0462402001070B50F4D14
:1028000006002B780C00102B0BD030002C70FDF73D
:10281000E9FF041E0DD13100094802F009FA200039
:102820000AE0084805F0C6FB03000120002BECD0AD
:1028300002E0082301202B7070BDC0461C0100106F
:10284000800200103802001013B56B469C1D220058
:10285000FDF7F8FF208816BD10B5074B002804DAF5
:10286000DA6941428A4200D25042DB69C018FEF761
:102870004BF8024B187010BD380200108F02001088
:1028800010B50020FEF740F8014B187010BDC0468F
:102890008F020010034B10B5186AFEF735F8024B93
:1028A000187010BD380200108F020010014BD8695B
:1028B0007047C046380200100123812213B5074C2F
:1028C0005B4200935201064B06492000FEF7E2F9F5
:1028D000054A06492000FEF737FB13BD68020010C9
:1028E000180C00002412000000010010850C0000EC
:1028F0007047FFFF10B50B4B1B785B10594343101B
:10290000C918094B89B21B6859180C780F23C007E6
:1029100002D59C43224303E0234012011A43D2B262
:102920000A7010BD27010010A8020010084B10B556
:102930001B8893420BD0074B1C7883B29C4206D96C
:10294000054B1C788BB29C4201D9FFF7D3FF10BD19
:1029500028010010270100102A01001010B50020E6
:1029600001F04CFB0023024A1380024A138010BD81
:102970002A050010B804001010B501F03FFB10BD8F
:10298000064B10B51B880F2B04D8054C5B001B5B56
:10299000934201D001F09EFC10BDC04628010010FA
:1029A000AC02001013B504AC2488009401F0C2FC02
:1029B00013BD10B501F082FB10BDFFFF024B188064
:1029C000024B19807047C0462A050010B804001059
:1029D000F0B58FB00B9114A909780A90089111787D
:1029E00005915178023209910092012B76D1059B15
:1029F0000733DB100C936B461B8D07930493002366
:102A000003936B460C21595E059B8B4200DCF0E082
:102A10000723CA171A405218D21053B20A93764BA2
:102A20000B4004D50822013B52421343013380225C
:102A30001BB21A416B469B8D0D92069302930023A5
:102A400001936B4604229B5E099A93423EDA0C9AEC
:102A50000A995343009A5218D35C0D9A1A422DD00A
:102A6000089B664C012B09D1069B019903985918C4
:102A7000079B2288181809B200B21DE06B46102788
:102A8000DF5F6B4608269E5F228831003800FFF723
:102A900077FF049B31005D1C2DB222882800FFF7D0
:102AA0006FFF029B22885E1C36B231003800FFF7B0
:102AB00067FF310028002288FFF762FF019B013386
:102AC0000193029B02339BB20293BAE7039B01334B
:102AD0000393049B02339BB2049392E7042B00D030
:102AE00087E00023099A934200DB82E09BB20293C5
:102AF0006B469B8D00250793029B079A5B00D318BA
:102B00009BB21AB201331BB204936B461B8D039226
:102B100006930193059BAB4267DD009B384A1B7807
:102B200012681B115B009E5A089B022B19D1069B51
:102B30006C001C19A4B227B201343200039938008A
:102B400024B2FFF71DFF320003992000FFF718FFA2
:102B5000320004992000FFF713FF32000499380077
:102B600007E0029B079A99186B4632000420185E12
:102B700009B2FFF705FF0F22009B1B781340204A84
:102B80005B0012689E5A089B022B1AD1069B6C00B0
:102B90001C19A4B2A71C3FB20334320003993800B9
:102BA00024B2FFF7EDFE320003992000FFF7E8FEA4
:102BB000320004992000FFF7E3FE32000499380048
:102BC00007E0029B079A99183200019B09B2581C32
:102BD00000B2FFF7D5FE009B023501330093019B45
:102BE0002DB202339BB2019394E7029B01331BB2D7
:102BF00078E70FB0F0BDC046070000801E0100104E
:102C0000B4040010F0B51300574A8DB014680F00DB
:102C1000627811000192F72208390A40511E8A4158
:102C20000199C91052180892089922784A43511CF8
:102C30004B431A00A2181279053352B2099282B29C
:102C40000B9206920022E31805926A46127D0999BA
:102C500052B2914200DC7CE008991A78022903D034
:102C60000133079393B204E0991C5B7807911B0230
:102C7000134300240293059B0B9A5B00D3189BB26D
:102C80001AB201331BB203920493019BA34257DD96
:102C90000122029B134217D0344B1B78022B07D121
:102CA0006500ED19ADB2324E2BB20A9332881AE0AC
:102CB0006946304B18254D5F1A782D4B002A01D0FC
:102CC0001A882BE01A8830E02B4E2C4B32881B8858
:102CD00093422FD0254B1B78022B18D16500ED199C
:102CE000ADB22BB20A93190003980135FFF748FEE5
:102CF0002DB232880A990498FFF742FE32882900E3
:102D00000398FFF73DFE32882900049810E06946D9
:102D1000184B18254D5F1B78002B06D0019B29000E
:102D2000581EC019031B18B202E02800E11909B2AD
:102D3000FFF726FE029B01345B08029364B2A4E70E
:102D4000059B01330593069B01339BB20693079BBA
:102D50007BE700200A4B1856099BC018034B1B78D1
:102D600058430DB0F0BDC046C0040010260100104D
:102D70001E0100102E050010300500102801001063
:102D80001D010010F0B513006D4A91B0029010685B
:102D90000691427811000192F72208390A40511E2B
:102DA0008A410199C9105218017807924A430132A9
:102DB0005A43531D82181279C31852B20592029ACF
:102DC0006048002A1DDB069A002A1ADB029A511875
:102DD0005D4A1278914214DA0199069A52185B49B9
:102DE00009788A420DDA5A4A00881188594A814284
:102DF00000D0594A59490C88564984420ED0564948
:102E00000CE0534A00881188524A814200D0544A4B
:102E100052490C884F49844200D051490E914F4984
:102E20000F9209880DAA11704949029D098800274F
:102E300051704C4A1278022A30D0029A0599AA1A87
:102E400052B2914222DD079A1C78022A02D05F1CFE
:102E5000A4B203E09F1C5B781B021C430026019B6D
:102E6000B3420FDB0123069923400DAAD25C7118EF
:102E70000EA89B001B5809B2280001369847640829
:102E800076B2ECE701352DB23B00D6E70020364B99
:102E90001856059BC01850E0089B013705997AB277
:102EA000914244DD07991A78022903D0013308932F
:102EB00093B204E0991C5B7808911B021343029AB9
:102EC00004937B009B189BB21AB201331BB20B9385
:102ED000002309920393039A019B9342DCDB0122B6
:102EE000049B099813400DAAD65C9B000EAA9D581E
:102EF000039B32005C00069BE418A4B223B21900C5
:102F000001340A9324B2A84732000A990B98A847C3
:102F1000320021000998A847320021000B98A847E9
:102F2000049B5B080493039B01335BB2D2E7002050
:102F30000D4B1856059BC018400011B0F0BDC0469F
:102F4000C004001028010010270100102A01001001
:102F500024010010F1280000F5280000BC04001036
:102F60002D290000260100101D010010F8B522498E
:102F7000224F09783B88224CDAB2224E224D012999
:102F800003D1FE31002B2FD129E0022907D10323E1
:102F90001A401100930019430A01114324E0032948
:102FA0001DD102391940194A00D0FF21206801F0D3
:102FB0004BFD02233988154A1940236898180029C7
:102FC00000D0FF2101F040FD04233988206819401A
:102FD0000F4B0E4AC018002908D0FF2106E00F2130
:102FE0000B4011011943C9B20A4A206801F02CFDB7
:102FF000002333802B80F8BD21010010BC04001099
:10300000A80200102A050010B8040010BA0400003D
:10301000740900001F13000010B5002805D1064BED
:103020001968064B186801F0E9F9054B1B78002B6D
:1030300001D1FFF79BFF10BDB4040010A8020010DF
:10304000B004001010B5024800F0BCFC10BDC04632
:10305000AE7500000F231840014B18807047C04622
:103060002401001010B5074B1A7883B29A4208D990
:10307000054B1A788BB29A4203D9044B1A78FFF7A2
:1030800039FC10BD270100102A0100102401001096
:1030900070B50F4B15001B788AB20600934202D818
:1030A000AAB2934212D90B4B1A78B3B29A420DD9F5
:1030B000A94202DD0B0029001D000C00A54205DB22
:1030C00021B23000FFF7CEFF0134F7E770BDC046F4
:1030D0002A0100102701001070B50F4B16001B7855
:1030E00082B20D00934202D88AB2934212D90B4B9E
:1030F0001A78B3B29A420DD9A84202DD0300280023
:103100001D000400A54205DB20B23100FFF7AAFF35
:103110000134F7E770BDC046270100102A010010F6
:1031200010B5002A04DA92B25118524209B212B212
:103130008A1812B2FFF7ACFF10BD10B50B00002AC1
:1031400004DA92B21018524200B212B28218013A56
:1031500011B21A00FFF7C0FF10BDF8B50600140049
:103160000F00CB181DB234192A0024B2FFF790FFCC
:103170002A0039002000FFF78BFF3A0030002100C1
:10318000FFF7AAFF2A0030002100FFF7A5FFF8BDD6
:10319000F8B58218CB1805000C0012B21BB200283B
:1031A00001DA002A2DDB174909788D4201DB9142B3
:1031B00027DD002C01DA002B23DB134909788C4230
:1031C00001DB99421DDD954202DC11002A000D0051
:1031D0009C4202DC190023000C00161C002A00DAB5
:1031E000002636B2191C002B00DA00210FB2AE42C5
:1031F00007DA3000220039000136FFF749FF36B206
:10320000F5E7F8BD270100102A010010F0B5030012
:1032100085B0002879D03E4A1478A04201DB631EB5
:103220001BB23C4A1078042807D13B4A1178594315
:10323000CA0F5118491089B20AE0022865D103214A
:10324000354A12785A43D51729408A18921091B2FC
:10325000324A15880195324D2D8815802E4A002B53
:1032600028DD1278E31AD508684300252E00029065
:103270000393039B9D4216DA891B89B233008C4667
:103280006146981B80B207000298591889B287429C
:1032900005DA244F581C795CF95483B2F0E7013504
:1032A000ADB21E00E5E7204923B20020095E12B24C
:1032B000002024E01278A4B25043C01002900020F5
:1032C0009DB20394039CAC4216D9401A80B20C0004
:1032D00084466046661AB6B23700029E001980B274
:1032E000B74205DA0F4F661C385C3855B4B2F0E7C8
:1032F0000135ADB22100E5E70021080012B2FFF769
:1033000047FF6A46054B92881A8005B0F0BDC0465B
:103310002A010010210100102701001024010010D3
:10332000BC04001033050010B8040010F0B587B0DD
:1033300004936B46012400921B880290E21AA3407A
:103340005B4212B21BB2039101920593631E009A75
:103350001BB29A4267DD019B002B0CDB1300013B83
:103360001BB20093059B02339BB21AB20592019ADD
:103370009B181BB20193019A630001339B1804222E
:103380001BB20193049B13420FD06B461F899D898A
:103390001E883819A91909B200B22D19BE19FFF7F4
:1033A00061FE29B230B2FFF75DFE0222049B134298
:1033B0000FD06B461F899D891E88E019A91B09B291
:1033C00000B2FFF74FFEBE19291B09B230B2FFF75A
:1033D00049FE049B1B070FD56B461D891F889E89DC
:1033E000E81BA11909B200B2FFF73CFEBE19281B69
:1033F00031B200B2FFF736FE049BDB0702D4013482
:10340000A4B2A3E76B461D891F889E89E81B311B68
:1034100009B200B2FFF726FEF61B281B31B200B23C
:10342000FFF720FEEBE707B0F0BDF0B58BB016005C
:10343000089393B201220790D01A93405B421BB2CB
:1034400006938BB20493013B9BB2029310AB1B8893
:1034500000B2059302339BB20193002300900393C3
:103460000992039BB3425ADA009B002B0ADB069BAE
:10347000013E02339BB21AB20692009A36B29B18F2
:103480001BB20093039C009A0134A4B223B20393AD
:10349000630001339B181BB20093099A089B1342E7
:1034A00017D06B46B5B29F8B059B6A009A18049B98
:1034B0003819591B12B209B200B2FFF731FE6B4640
:1034C00004229A5E6B467D190821595E28B2FFF7E7
:1034D00027FE0222089B134208D1029B013B9BB2AC
:1034E0000293019B02339BB20193BAE76B46B7B2DA
:1034F0009D8B059B7A009A18049B281BD91B12B23E
:1035000009B200B2FFF70CFE6B4604229A5E6B46CE
:10351000ED1B0821595E28B2FFF702FEDDE70BB074
:10352000F0BDF0B587B01F000CAB00241C5F01900C
:103530000E00012C03DC3B00FFF70FFE55E06B464D
:103540009B88A1B202935B181BB2009393B20393C2
:103550004B009BB20493049A039B31009D1A2DB239
:103560002A000098BFB2FFF7E8FDB6B27B1EF31841
:103570009BB205936B462A001421595E0098FFF711
:10358000DCFDA3B29E19049B36B2FF1A3FB2310094
:103590003A000198FFF7C4FD039B31005D1E029BBA
:1035A0003A005D19ADB228B2FFF7BAFD3100012330
:1035B00022000098FFF7BAFEA3B2ED1A2DB2310037
:1035C000022322002800FFF7B1FE059BA2B29E1A3B
:1035D00036B20423220031002800FFF7A7FE08239B
:1035E000220031000098FFF7A1FE07B0F0BDF0B552
:1035F00087B00C000CA900268E5F012E03DC210091
:10360000FFF7C6FD2DE0B7B281B292B27D00049201
:103610000291AAB2C919059209B20391049A0599B7
:10362000013B9DB2521A2BB2210012B20398FFF750
:10363000AFFD059B3C19ED1A049B24B2581E029B5A
:103640002DB21818C01B00B20123320021000095D2
:10365000FFF7EBFE00950223320021000398FFF7ED
:10366000E4FE07B0F0BDFFFF054B064A1860037883
:10367000013313704378044A013313707047C04616
:10368000C0040010BA040010A5020010124A134B27
:1036900010B504001A60FFF7D5FC0122104B114849
:1036A0001A70114BDB321A80104B2C3A1A80FFF73C
:1036B000DBFF11220E4B04211A8000230D4A20004B
:1036C00013800D4A11700D4A13600D4A1360936107
:1036D0001363936410BDC04633050010A8020010A8
:1036E00028050010A86A00002C050010C604001070
:1036F00028010010BC040010C4040010AC04001029
:10370000C804001010B5084B09B21B6800B29B78C2
:10371000D21A064BD2B21B78002B02D0FFF772FAF6
:1037200001E0FFF72FFB10BDC004001028050010BA
:10373000024B1878431E9841C0B27047280500100C
:1037400009490A4A0A4B002805D001200870DC21EB
:103750001180B02205E00870064909781180064AF8
:1037600012781A807047C046280500102C050010FA
:10377000C6040010270100102A01001010B50B4CE0
:103780000B490023E25E0B4B09881B685B785800ED
:10379000091A0948007840B28A4203DDC018FFF7D1
:1037A00035FD02E0C3189B18238010BDB80400103B
:1037B000C6040010C00400102001001070B52B4B8F
:1037C00004001A68D378002B03D0602801D9203C6C
:1037D000E4B20E2C21D8200001F034FA461F1F1F3E
:1037E0001F1F1F1F0E1F081F1F1B46000022204BFC
:1037F0001A80FFF7C3FF37E01D4910780B8820229D
:10380000181A1C4B80B208801978C0B2FFF77AFFF3
:103810002AE00022164B1A8026E0154D127800236C
:10382000E85E154B1B889B1A98420BDB00232B800C
:10383000124B1B78002B17D0FFF7A0FF0D4B2878F9
:10384000197802E00B4BC0B219782200FFF75AFF3B
:10385000202C06D10A4B1B785BB2002B01D0401004
:1038600001302B881818288070BDC046C004001095
:103870002A050010B80400102C05001022010010C9
:103880001D01001010B504002078002803D0013479
:10389000FFF794FFF8E710BD10B5FFF7F3FF10BD79
:1038A00010B50D20FFF78AFF0A20FFF787FF10BD34
:1038B00010B5FFF7E7FFFFF7F3FF10BD024B1880CD
:1038C000024B19807047C0462A050010B80400104A
:1038D0000023F0B5050089B00E00984203D13020D6
:1038E000FFF76CFF1CE05C1C28006B4431001F00DC
:1038F00001F038FA28003970310001F0ADF92300E9
:10390000051EF0D16B46013C1B5D18003730C0B27C
:10391000092B01D83033D8B2FFF750FF002CF1D17A
:1039200009B0F0BD10B5041E03DA2D20FFF746FFE5
:1039300064420A212000FFF7CBFF10BD10B500291B
:1039400003D1C0B2FFF73AFF07E00A2902D1FFF71F
:10395000E9FF02E0C9B2FFF7BBFF10BD10B5FFF7EA
:10396000EDFF10BD10B5044C208004480180190003
:103970001000FFF7E3FF10BD2A050010B804001087
:1039800010B5002903D1C0B2FFF718FF02E0C9B299
:10399000FFF79EFF10BD10B5FFF7F2FFFFF780FFA6
:1039A00010BDFFFF10B50248FEF718F910BDC04664
:1039B0003205001089104901D210C0100A43C0021C
:1039C0001043704770B504000025074EA278617857
:1039D0002078FFF7EFFF6B000135F0520334102D14
:1039E000F4D1024B1E6070BDAC020010B404001094
:1039F00070B51F24050025400C40641B23B25343BF
:103A00001B12EB183F2544114E112C40C00A3540C3
:103A1000C9122D1B091A55434A4312122D12801840
:103A20001BB26419021C002800DA002212B2D20272
:103A3000181C002B00DA00201043231C002C00DA95
:103A400000231BB25B01184380B270BD031C002829
:103A500000DA0023024A1380024A5B0913707047A0
:103A6000521800105418001010B5084B1A78013283
:103A7000D2B2072A00D907221A701B78044AD05CF8
:103A8000044B188000B2FFF7E1FF10BD541800107E
:103A9000D17D00005218001010B5074B1A78002A8B
:103AA00001D0013A1A701B78044AD05C044B18808C
:103AB00000B2FFF7CBFF10BD54180010D17D0000FD
:103AC0005218001010B5002803DBFF2802DDFF208C
:103AD00000E00020034B1880034B0020185EFFF726
:103AE000B5FF10BD2C01001052180010014B1888B2
:103AF0007047C0465218001010B50248FEF76EF825
:103B000010BDC046551800100122014B1A717047B4
:103B1000ED1900100022014B1A717047ED190010C9
:103B20000122014B5A717047ED1900100022014B20
:103B30005A717047ED1900100122014B9A717047BC
:103B4000ED1900100022014B9A717047ED19001019
:103B50000122014B5A707047ED1900100022014BF1
:103B60005A707047ED1900100122014BDA7070474E
:103B7000ED1900100022014BDA707047ED190010AA
:103B80000022014B9A707047ED1900100022014B82
:103B90001A707047ED19001010B5054B9A79002A7C
:103BA00002D0FFF761FF01E001229A7010BDC0460C
:103BB000ED19001010B5054B9A79002A02D0FFF7D5
:103BC0006BFF01E001221A7010BDC046ED19001014
:103BD00010B50448FCF790FF0122034B1871034B0A
:103BE0005A6210BDF4190010ED190010004000A039
:103BF00010B50448FCF780FF0222034B5871034BB9
:103C00005A6210BD441A0010ED190010004000A0C7
:103C100010B50448FCF770FF0422034B9871034B66
:103C20005A6210BD58180010ED190010004000A095
:103C300010B50448FCF760FF0822034B5870034B93
:103C40005A6210BD9C190010ED190010004000A030
:103C500010B50448FCF750FF1022034BD870034BFB
:103C60005A6210BDA8180010ED190010004000A005
:103C700070B50F48FCF740FF0E4CA0710E48FCF7E2
:103C80003BFFA379C0B220700C4D002B0AD0002856
:103C900008D02B78002B01D1FFF7FEFE0023237004
:103CA000013300E0002320222B70054B5A6270BDC7
:103CB00058180010ED190010FC180010EC19001035
:103CC000004000A070B50F48FCF716FF0E4CA07125
:103CD0000E48FCF711FFA379C0B2A0700C4D002B69
:103CE0000AD0002808D02B78002B01D1FFF7BCFEAA
:103CF0000023A370013300E0002340222B70054B0A
:103D00005A6270BD58180010ED1900104C190010BF
:103D1000EC190010004000A010B52E4C2E492000D8
:103D2000FCF7FEFE20002D49FCF7EBFE2C4C2D4944
:103D30002000FCF7F5FE20002B49FCF7E2FE2B4C9F
:103D40002B492000FCF7ECFE20002A49FCF7D9FEA5
:103D5000294C2A492000FCF7E3FE20002849FCF703
:103D6000D0FE284C28492000FCF7DAFE2000274925
:103D7000FCF7C7FE264C27492000FCF7D1FE2000A7
:103D80002549FCF7BEFE254C25492000FCF7C8FE5E
:103D900020002449FCF7B5FE23490020FDF710F868
:103DA00022490120FDF70CF821490220FDF708F80F
:103DB00020490320FDF704F81F490420FDF700F80F
:103DC0001E490520FCF7FCFF1D490620FCF7F8FF03
:103DD00010BDC046F4190010153B0000093B00005F
:103DE000441A00102D3B0000213B00005818001021
:103DF000453B0000393B00009C1900105D3B000072
:103E0000513B0000A8180010753B0000693B000002
:103E1000FC1800108D3B0000B53B00004C19001051
:103E2000813B0000993B0000D13B0000F13B0000CA
:103E3000113C0000313C0000513C0000713C00008E
:103E4000C53C0000014B18797047C046ED190010C1
:103E5000014B58797047C046ED190010014B987915
:103E60007047C046ED19001070B52648FFF70EFCEC
:103E7000254E26493000FCF71BFE254D254C2A0017
:103E800021003000FDF760F8234E24493000FCF794
:103E90000FFE2A0021003000FDF756F8204E214980
:103EA0003000FCF705FE2A0021003000FDF74CF839
:103EB0001D4E1E493000FCF7FBFD2A00210030009A
:103EC000FDF742F81A4E1B493000FCF7F1FD2A00BD
:103ED00021003000FDF738F8174E18493000FCF784
:103EE000E7FD2A0021003000FDF72EF8144E154999
:103EF0003000FCF7DDFD2A0030002100FDF724F83A
:103F000070BDC046F8180010F419001084120100AA
:103F100000010010590A0000441A00107008010046
:103F200058180010881401009C190010941A010000
:103F3000A81800106C060100FC180010C432010023
:103F40004C1900107C0E0100A023054A05491B06F0
:103F500099500549C0005850002199507047C046FB
:103F6000882000000700F8FF8821000070B58A2330
:103F7000A024042224069B01E2508023064D5B040A
:103F80006351FFF7E1FF8023044A5B01A350C04661
:103F9000C046635170BDC046042200008422000068
:103FA00070B58823A024042224069B01E2508023BC
:103FB000054D5B046351FFF7C7FF8023034A5B0194
:103FC000A350C046635170BD04220000842200004B
:103FD00010B5074C07492000FDF776FA20000521AF
:103FE000FDF751FA04492000FDF72AFA10BDC0463A
:103FF000941A0010FC0402009A99993E10B504002E
:104000002020FFF7B3FF0020FFF7CAFF2120FFF7B2
:10401000ADFF0020FFF7C4FF2220FFF7A7FF20001D
:10402000FFF792FFA023882204211B0692019950DA
:104030008021074A49049950802106484901064CCD
:1040400099501951C046013899500028F9D110BD36
:1040500004220000409700008422000010B52020B8
:10406000FFF784FF0020FFF79BFF2120FFF77EFF73
:104070000020FFF795FF2220FFF778FF0020FFF7D1
:1040800063FFA023882204211B06920199508021FE
:10409000074A49049950802106484901064C995025
:1040A0001951C046013899500028F9D110BDC046B9
:1040B00004220000409700008422000070B5A02573
:1040C0000124784E2D06FFF783FFAC510A20FCF740
:1040D00070FE754B0A20EC50FCF76BFEAC510A20C9
:1040E000FCF767FE2000FFF741FF8E204000FFF73E
:1040F00057FF0220FFF73AFF80204000FFF750FFF4
:104100000320FFF733FF6948FFF74AFF0820FFF756
:104110002DFF6748FFF744FF0C20FFF727FF002023
:10412000FFF73EFF0F20FFF721FF2000FFF738FFCA
:104130002020FFF71BFF0020FFF732FF2120FFF7B1
:1041400015FF0020FFF72CFF1020FFF70FFF0020C6
:10415000FFF726FF1120FFF709FF80204001FFF73E
:104160001FFF0A20FCF725FE3020FFF7FFFE00208E
:10417000FFF716FF3120FFF7F9FEDB20FFF710FFF6
:104180003220FFF7F3FE0020FFF70AFF3320FFF78E
:10419000EDFE0020FFF704FF3420FFF7E7FEDB20F1
:1041A000FFF7FEFE3520FFF7E1FE0020FFF7F8FEE7
:1041B0003620FFF7DBFEAF20FFF7F2FE3720FFF7D8
:1041C000D5FE0020FFF7ECFE3820FFF7CFFEDB2006
:1041D000FFF7E6FE3920FFF7C9FE0020FFF7E0FEFB
:1041E0000A20FCF7E6FDFF20FFF7C0FE0320FFF7E3
:1041F000D7FE5020FFF7BAFE2E48FFF7D1FE512020
:10420000FFF7B4FE2C48FFF7CBFE5220FFF7AEFEBF
:104210002A4D0520FFF7C4FE5320FFF7A7FE280014
:10422000FFF7BEFE5420FFF7A1FE2548FFF7B8FEBA
:104230005520FFF79BFE234C0320FFF7B1FE5620CD
:10424000FFF794FE2000FFF7ABFE5720FFF78EFE2E
:104250001D48FFF7A5FE5820FFF788FE2800FFF74E
:104260009FFE5920FFF782FE2000FFF799FEB02045
:10427000FFF77CFE1548FFF793FEFF20FFF776FE61
:104280000020FFF78DFE0720FFF770FE1048FFF7B4
:1042900087FEC820FCF78DFD2220FFF767FEFFF7A1
:1042A000DDFE70BD042200008422000030100000FA
:1042B0000808000003020000090A000021100000A5
:1042C00002060000030700000705000001250000AA
:1042D00017100000F8B584B21500DB2C25D88EB27B
:1042E000AF2E22D82020FFF741FE3000FFF758FE06
:1042F0002120FFF73BFE2000FFF752FE2220FFF7B0
:1043000035FEA0248823042224069B01E250802746
:104310008023064E5B047F01A3512800A751FFF7BD
:1043200013FE034BE750C046A751F8BD042200001E
:1043300084220000F0B587B00CAC2488049490422D
:1043400002DD040010002200994202DD0C00190079
:104350002300DC284CDCB0294ADC141CDC2A00DDFC
:10436000DC2422B203921A1CB02B00DDB02213B25F
:104370000293061C002800DA002636B20C1C002925
:1043800000DA0024A02524B22D06039B9E422FDCD8
:104390002020FFF7EBFDA0B2FFF702FE2120FFF780
:1043A000E5FDB3B218000193FFF7FAFD2220FFF7F5
:1043B000DDFD882204239201AB5080278022260055
:1043C0000C4B52047F01EA50EF500593029B9E4232
:1043D0000ADA0498FFF7B8FD074BEF50C046059B7B
:1043E0000136EF5036B2F1E7019E013636B2CCE726
:1043F00007B0F0BD0422000084220000F0B55F4643
:104400005646C0B40400EFB003200D00FFF7AEFD28
:104410005548FFF7C5FD2020FFF7A8FD0020FFF756
:10442000BFFD2120FFF7A2FD0120FFF7B9FD2220EB
:10443000FFF79CFD8823A021042209069B01CA5096
:1044400080234A4A5B048B5080235B018B50484891
:10445000484A6E460A500022200011009446464CFD
:104460001700B2469B466E2107783A090F231F407A
:104470005200AB5ADB0023605A46E26708C6FC23B1
:10448000E250E2677F00E250EB5BDB0023605A46BC
:10449000E26708C6FC23E250E2670130E2500239CD
:1044A000E2D156466E215B4604CE2260E367FC22D1
:1044B000A350E3670139A35004CE2260E367FC22D6
:1044C000A350E3670139A35004CE2260E367FC22C6
:1044D000A350E3670139A35004CE2260E367FC22B6
:1044E000A350E3670139A35004CE2260E367FC22A6
:1044F000A350E3670139A35004CE2260E367FC2296
:10450000A350E3670139A35004CE2260E367FC2285
:10451000A350E3670139A35004CE2260E367FC2275
:10452000A350E3670139A35004CE2260E367FC2265
:10453000A350E3670139A35004CE2260E367FC2255
:10454000A350E3670139A350AED156460123582248
:104550009C44944587D1A0220549120657506FB05C
:104560000CBC92469B46F0BD3810000004220000AF
:10457000882000000700F8FF882100A0F0B585B072
:104580000600029172B64C4B984202D8050B020508
:1045900011E04A4B1C2598420CD8494B013D9842EA
:1045A00008D8484B013D984204D8474D8542AD415B
:1045B0006D421835720453425341DBB201933223EA
:1045C000424C434F23606560424BA5603900200098
:1045D0009847404A3B680392002B01D0012068E0D5
:1045E000E422920296425FD0019A002A21D00193E0
:1045F0003423FA212360384B890018686560A56070
:1046000000F02AFB324FE060324B3900200098471F
:104610003B68002BE2D13233236065602D4BA560EF
:104620003900200098473B68002BD7D1019B002B15
:1046300018D133232360029BFA21A36080235B00FF
:10464000E360254B89001868666000F005FB204D8B
:104650002061290020001F4B984728680028BDD101
:1046600062B626E03B232360E023FA219B006360CF
:104670001A4B8900A360184B186800F0EDFA144F2C
:10468000E060144B3900200098473B68002BA5D10F
:104690003233236065600F4BA560390020009847D6
:1046A0003B68002BC5D099E7019B002BDAD0012392
:1046B0009DE705B0F0BDC046FF7F0100FF7F03000E
:1046C000FFFF0200FF7F0200FFFF01009C1B0010A4
:1046D000B01B0010F11FFF1F18010010FF030000A6
:1046E00013B56B46DC1D0122210003F001FE20788A
:1046F00016BD07B56B46D97107330122190003F0C7
:10470000D1FD07BD024A13680A3313607047C046E3
:10471000C01B0010044B054A07215A6000229A6012
:104720001960034B1A60704710E000E0FF52070069
:10473000C01B0010014B18687047C046C01B00101A
:1047400010B50020FCF786FA0400FDF719F9034BB9
:104750001878001900F02CFA10BDC04600020010B5
:10476000A023802104201B0689015A5810B502435A
:1047700080205A50294A400199580143802099507D
:104780009958400401430120995099580143995088
:10479000234924485A5802435A5023480021FCF721
:1047A00021FE00212148FCF71DFE00212048FCF7D6
:1047B00019FE00211F48FCF715FE00211E48FCF7DA
:1047C00011FE00211D48FCF70DFE00211C48FCF7DE
:1047D00009FE00211B48FCF705FE00211A48FCF7E2
:1047E00001FE00211948FCF7FDFD00211848FCF7E7
:1047F000F9FD00211748FCF7F5FD00211648FCF7EC
:10480000F1FD00211548FCF7EDFD00211448FCF7EF
:10481000E9FD00211348FCF7E5FD10BD0420000070
:1048200008200000F8FF070000070200040902004A
:10483000080B02000C0D0200100F02001411020000
:10484000181302001C150200201702002419020090
:10485000281B02002C1D0200301F02003421020020
:10486000382302003C25020010B50A4B187801F0ED
:1048700053F9011C084800F081FC084900F048FE8B
:10488000F621890500F044FE00F0EAFA044B188096
:1048900010BDC04634010010000070420044AC4618
:1048A000C81B0010454AF8B5564692464B005B0DB2
:1048B0009A444D465F4644465246F0B48946050048
:1048C0000C000E000700132A22DC002A47DB5246A8
:1048D0003B4B134198460B0042461340034311D013
:1048E000384A394B01F056F90022002300F06AFAE9
:1048F000002805D0002C41DB4E46434600279E434E
:10490000380031003CBC90469946A246AB46F8BD03
:104910005246332A08DD8023DB009A45F2D102009B
:104920000B0001F037F9EDE7284A94460122634471
:104930005242DA4093460242E4D0224A224B01F02E
:1049400029F90022002300F03DFA0028D8D0002CDD
:104950001ADB5B464E469F4338003100D2E7194AC6
:10496000194B01F017F90022002300F02BFA002860
:10497000C6D0002C16DB00270026C1E78023524654
:104980005B0313419944B7E75346142B12D03423E9
:10499000524601279B1A9F407F19AF429B415B42C1
:1049A0009944D6E76400640825430027002DA7D06A
:1049B000074EA5E7133B9C46E144CAE701FCFFFF15
:1049C000FFFF0F009C7500883CE4377EEDFBFFFF86
:1049D0000000F0BF0E4B70B500251E000D4CE41A10
:1049E000A410A54204D0AB00F35898470135F8E76E
:1049F00003F084FA084B00251E00084CE41AA410AA
:104A0000A54204D0AB00F35898470135F8E770BDD4
:104A1000087F0000087F0000087F0000307F000052
:104A200010B5034B0100186800F062F810BDC046D5
:104A30009801001010B5034B0100186800F00CF845
:104A400010BDC0469801001003008218934202D0A6
:104A500019700133FAE7704770B50500002944D09A
:104A60000C1F2368002B00DAE418280000F0E8F897
:104A70001E4A13681100002B02D16360146031E0FC
:104A8000A3420DD92268A018834203D118685B683D
:104A90008218226063600C6024E0A24203D81300F5
:104AA0005A68002AF9D11E689819A0420BD12168D2
:104AB000711858181960824214D110685268411850
:104AC00019605A600EE0A04202D90C232B6009E065
:104AD00021686018824203D1106852684118216031
:104AE00062605C60280000F0ACF870BDD01B001064
:104AF000032370B5CD1C9D43083506000C2D01D253
:104B00000C2501E0002D01DBA94202D90C23336002
:104B100048E0300000F094F8234B1C681A00210094
:104B2000002913D00B685B1B0DD40B2B02D90B6033
:104B3000CC181EE08C4202D1636813601AE04B6807
:104B400063600C0016E00C004968E9E7174C236825
:104B5000002B03D1300000F059F82060290030000C
:104B600000F054F8431C18D00323C41C9C43A042FB
:104B70000DD12560300000F064F8200007220B30D2
:104B8000231D9043C31A0ED05A42E2500BE0211A63
:104B9000300000F03BF8431CEBD10C2330003360B5
:104BA00000F04FF8002070BDD01B0010CC1B00108F
:104BB000104B70B51C680500A36B002B15D1182095
:104BC000FFF72EFF0C4BA06303800C4B01224380A8
:104BD0000B4B83800B4BC3800B4B0381052343811D
:104BE000063383810023026143610022A36B1D61B0
:104BF0005A6170BD980100100E330000CDABFFFF6D
:104C0000341200006DE6FFFFECDEFFFF002370B5FD
:104C1000064C050008002360FBF7F6FF431C03D198
:104C20002368002B00D02B6070BDC046D41B001041
:104C3000031C0A7801311A700133002AF9D1704738
:104C40007047704702B4714649084900095C490041
:104C50008E4402BC7047C046002243088B4274D386
:104C600003098B425FD3030A8B4244D3030B8B426D
:104C700028D3030C8B420DD3FF22090212BA030C76
:104C80008B4202D31212090265D0030B8B4219D357
:104C900000E0090AC30B8B4201D3CB03C01A524177
:104CA000830B8B4201D38B03C01A5241430B8B42BF
:104CB00001D34B03C01A5241030B8B4201D30B03A8
:104CC000C01A5241C30A8B4201D3CB02C01A5241CF
:104CD000830A8B4201D38B02C01A5241430A8B4292
:104CE00001D34B02C01A5241030A8B4201D30B027B
:104CF000C01A5241CDD2C3098B4201D3CB01C01A95
:104D0000524183098B4201D38B01C01A524143099E
:104D10008B4201D34B01C01A524103098B4201D38C
:104D20000B01C01A5241C3088B4201D3CB00C01AF9
:104D3000524183088B4201D38B00C01A5241430871
:104D40008B4201D34B00C01A5241411A00D2014696
:104D5000524110467047FFE701B5002000F006F809
:104D600002BDC0460029F7D076E770477047C046BD
:104D70008446101C62468C46191C634600E0C046FF
:104D80001FB501F0D7FA002801D40021C8421FBD89
:104D900010B501F02BFA4042013010BD10B501F002
:104DA000C9FA002801DB002010BD012010BDC0465B
:104DB00010B501F0BFFA002801DD002010BD012070
:104DC00010BDC04610B501F051FA002801DC0020EA
:104DD00010BD012010BDC04610B501F047FA0028F3
:104DE00001DA002010BD012010BDC0468446081C19
:104DF0006146FFE71FB500F047FB002801D4002102
:104E0000C8421FBD10B500F0D3FA4042013010BDBA
:104E100010B500F039FB002801DB002010BD012097
:104E200010BDC04610B500F02FFB002801DD0020AA
:104E300010BD012010BDC04610B500F0E1FA0028F9
:104E400001DC002010BD012010BDC04610B500F0EF
:104E5000D7FA002801DA002010BD012010BDC0469D
:104E60009E2110B5C905041CFFF7F0FF002803D1EF
:104E7000201C00F0E7FD10BD9E21201CC90500F09C
:104E80005BFC00F0DFFD80231B069C466044F2E7DC
:104E9000F8B54A02430244004E00C50F240E280014
:104EA0009B09360EC90F92098D4259D0A01B0028CC
:104EB00000DC8DE0002E1AD1002A00D079E05A07DC
:104EC00004D00F221A40042A00D004335A0138D5E6
:104ED0000134FF2C00D189E028009B015B0AE4B279
:104EE0005B02E4055B0A2343C0071843F8BDFF2CAF
:104EF000E5D08021C9040A431B2800DD89E01600A3
:104F00002021C640081A8240511E8A4132439B1A12
:104F10005A0114D59B019E09300001F0FFFA0538B3
:104F20008640844265DC041B330020200134E340CA
:104F3000041BA640721E964100243343BFE75A0764
:104F4000BFD1DF082800FF2C2FD1002F00D187E030
:104F50008022D20313003B435B025B0AFF24BFE7BE
:104F6000A11B002949DD002E29D0FF2CA7D08026C7
:104F7000F60432431B2900DD8DE017002026CF40C8
:104F8000711A8A40511E8A413A439B185A01D6D55C
:104F90000134FF2C64D0012276491A405B080B4093
:104FA00013438CE7031ECAD100207B025B0AE4B2E4
:104FB00096E701380028AAD0FF2C9DD17FE7002A70
:104FC00000D17CE701390029DFD0FF2CD2D176E770
:104FD000002820D1601CC0B2012853DD80279E1A12
:104FE000FF0437402FD0D61A0D0095E72800002384
:104FF00076E7614B241A334061E700294DD1611CEB
:10500000CEB2012E2FDDFF292AD09B185B080C00A1
:1050100055E701227BE7002C1BD1002B5BD0C0435E
:1050200000280CD0FF2E7ED01B2800DD92E01D0052
:105030002024C540201A8340581E83412B43D31A95
:1050400034000D0064E7002E00D065E70020002446
:10505000ABE7FF2E67D08024E40440422343E3E71C
:10506000FF2400233CE7002C61D1002B7ED0002AD6
:1050700000D124E79B185A0100D460E73E4A0C0097
:1050800013401CE7002C1ED1002B2FD1002A66D024
:1050900013000D0013E7012277E7002C1FD1002B2E
:1050A0005AD0C94300290BD0FF2E50D01B295FDCFA
:1050B0001F002024CF40611A8B40591E8B413B4377
:1050C0009B18340062E7002B1CD1002A4AD0130041
:1050D0000D00FF24F3E6130034000D00EFE6FF2E71
:1050E00035D08024E40449422343DFE7002A00D17D
:1050F000E5E68027981AFF04074000D152E7D31A4B
:105100000D00DCE6FF24002A00D1D8E68020DB0871
:10511000C003034204D0D208024201D113000D00A3
:10512000DB00FF24CBE61300FF240D00C7E6002BB5
:105130000DD0FF24002A00D1C1E68021DB08C9037D
:105140000B42EDD0D2080A42EAD11300E8E713007F
:10515000FF24B4E6012372E713003400AFE6002712
:10516000002022E780270020FF03F1E61300A6E6D7
:105170000123A5E7FFFFFF7DFFFFFFFBF0B55646CC
:1051800044465F464D46F0B444024600C70F83B024
:105190008846650A360EBA463DD0FF2E22D000233F
:1051A000EC00802599469B46ED0425437F3E43460F
:1051B0005C025800DB0F640A000E984636D0FF28C8
:1051C00030D080230021E400DB041C437F38301AF8
:1051D0000190484642460843724E800030587A405B
:1051E00013008746002D44D108239946063B9B4671
:1051F000DDE70122FF2000241A406402C305640A8F
:10520000D2071C431443200003B03CBC904699468F
:10521000A246AB46F0BD002D20D104239946033BA6
:105220009B46C4E7002C17D1022102E0002C0AD1D2
:105230000121321A01924A4643460A435A489200D3
:1052400082587B409746200001F068F9431F763072
:105250009C4040420021BAE70321B8E7280001F052
:105260005DF9431F9D4000237630464299469B4698
:105270009DE70C239946093B9B4698E78024002232
:10528000E403FF20B9E70024C2468B465A46534642
:10529000022AAED0032A7DD0012A31D1012200207A
:1052A0001A400024A9E70122101A1B2856DD1A40D3
:1052B00000200024A1E78023DB031D424BD1802383
:1052C000DB032B435C02640A3A00FF2095E76D0183
:1052D0006001854230D2019A0024013A01921B22DA
:1052E0000127290064006D00002901DBA84201D8D4
:1052F0002D1A3C43013A002AF3D16A1E95412C43F2
:1053000001987F300028CEDD620704D00F222240B2
:10531000042A00D00434220103D5244A0198144001
:105320008030FE2800DD64E70122A401640AC0B2D7
:105330001A4062E72C00A9E72D1A1A220124CFE7B0
:105340006B02BCD500248023DB031C436402640A87
:105350004246FF2051E71C42B3D1F4E7210020224E
:10536000C140101A8440621E94410C43620704D06D
:105370000F222240042A00D00434620104D5012205
:1053800001201A40002438E70122A401640A1A40CF
:10539000002032E78023DB031C436402640A524688
:1053A000FF202AE73C7E00007C7E0000FFFFFFF725
:1053B000430270B542004C005D0AC30F4802120E52
:1053C000460A240EC90FFF2A0FD0FF2C11D001204E
:1053D000A24200D070BDB542FCD18B420DD0002A54
:1053E000F8D12800431E9841F4E70120002DF1D1A7
:1053F000EBE70120002EEDD1E9E70020EAE7C04607
:105400004302F0B542005D0AC30F4802440A480057
:10541000120E000EC90FFF2A1FD0FF2822D0002A2B
:1054200009D16E426E4100280FD1002C0DD1002011
:10543000002D09D005E0002801D1002C01D08B42BD
:1054400013D0584201231843F0BD002EF7D0484234
:105450004141012049420843F6E7002DDDD00220FA
:105460004042F1E7002CDAD0F9E78242E9DC04DBC4
:10547000A542E6D80020A542E6D258424341012089
:105480005B421843E0E7C0464302F0B542004C00DF
:105490005E0AC30F4802120E450A240EC90FFF2AE6
:1054A00017D0FF2C19D0002A0BD170427041002C6C
:1054B00017D0002807D04842414101204942084303
:1054C000F0BD002C13D08B4214D058420123184356
:1054D000F6E70220002EF3D1E3E70220002DEFD102
:1054E000E1E7002DE5D10020002EE9D0EDE7002D09
:1054F000E9D1EAE7A242E8DC04DBAE42E5D80020CD
:10550000AE42DDD25842434101205B421843D7E707
:10551000F0B557464E4645464300E0B4460288463D
:10552000760A1F0EC40F002F47D0FF2F25D000236F
:1055300080259A469946F600ED042E437F3F434668
:1055400042465D02D20F5B006D0A1B0E904640D0B2
:10555000FF2B39D080220020ED00D20415437F3B81
:10556000FB1842465746591C62408C4607430F2F92
:105570005CD86F49BF00C9598F46002E45D108231A
:105580009A46063B9946DAE7424602282DD0032880
:1055900000D1C3E0012800D0A2E00025002602408F
:1055A000D4B27602ED05760A2E43E4072643300096
:1055B0001CBC90469946A246F0BD002E1AD1042389
:1055C0009A46033B9946BAE72A00511E8A41901C2D
:1055D000C6E70120002DC3D0280000F09FFF431F25
:1055E00076309D4043420020BAE70124FF25144055
:1055F0000026D6E7300000F091FF431F9E400023B5
:10560000763047429A46994699E70C239A46093BD9
:10561000994694E780260024F603FF25C1E735006C
:105620004846B2E7350022004846AEE72904090C97
:105630000800370C3604360C2C0C79437043674352
:105640007443060C64183619B14203D9802149020B
:10565000884647440004000C310409188D01681E77
:105660008541890E2943350CED19AD010D43290102
:1056700004D5012369081D4063460D4319007F319D
:10568000002925DD680704D00F202840042800D019
:105690000435280103D5274980330D401900FE2920
:1056A000A3DC0124AD016E0A1440CDB279E780205D
:1056B000C003064207D0054205D128434602760AB8
:1056C0004446FF256DE706437602760AFF2568E724
:1056D0000124611A1B2905DD14400025002660E71E
:1056E0006346CBE72E002023CE40591A8D406B1E17
:1056F0009D412E43730704D00F233340042B00D069
:105700000436730104D5012401251440002648E71E
:105710000124B601760A1440002542E780260124C0
:10572000F6032E437602760A1440FF2539E7C04679
:10573000BC7E0000FFFFFFF7F8B54A024E004302AF
:105740004400240EC50F9B09360EC90F9209FF2E87
:1057500000D183E001204140A01BA9425CD0002879
:1057600000DC95E0002E1CD1002A00D081E05A0711
:1057700004D00F221A40042A00D004335A013BD52A
:105780000134FF2C00D191E001209B015B0AE4B2BF
:1057900005405B02E4055B0AED0723432B43180039
:1057A000F8BDFF2CE3D08021C9040A431B2800DD8B
:1057B00090E016002021C640081A8240511E8A41FE
:1057C00032439B1A5A0115D59B019E09300000F007
:1057D000A5FE0538864084426CDC041B3300202083
:1057E0000134E340041BA640721E9641002433435B
:1057F000BDE70D005A07BCD1DF0801231D40FF2C77
:1058000033D1002F00D190E08022D20313003B431C
:105810005B025B0AFF24BCE700284FDD002E2ED080
:10582000FF2CA4D08025ED042A431B2800DD97E03F
:1058300016002025C640281A8240501E824132435D
:105840009B185A01D5D50134FF2C6DD001227B481D
:105850001A405B08034013430D0088E7002A00D07C
:105860007AE777E7031EC5D100257B025B0AE4B225
:105870008FE701380028A4D0FF2C97D177E7002AC2
:1058800000D174E701380028DAD0FF2CCDD16EE7C3
:10589000002821D1601CC0B2012858DD80279E1A43
:1058A000FF0437402FD0D61A0D008FE701231D408B
:1058B00000236EE7624B241A334058E7002851D189
:1058C000601CC6B2012E33DDFF282DD09B185B086B
:1058D00004004CE7012274E7002C1AD0FF2E1FD0E1
:1058E0008024E404404223431B2800DD96E01D0091
:1058F0002024C540201A8340581E83412B43D31ACD
:1059000034000D005EE7002E00D05FE70025002484
:10591000ABE7002B44D0C0430028F0D0FF2EE3D1EA
:105920001300FF240D0022E70D00FF24002330E7C1
:10593000002C5DD1002B7DD0002A00D117E79B18E9
:105940005A0100D456E73E4A040013400FE7002CEA
:105950001ED1002B2FD1002A65D013000D0006E7C1
:1059600001226DE7002C1FD1002B59D0C043002825
:105970000BD0FF2E4FD01B285EDC1D002024C5401D
:10598000201A8340581E83412B439B18340058E74C
:10599000002B1CD1002A49D013000D00FF24E6E69D
:1059A000130034000D00E2E6FF2E34D08024E4041E
:1059B00040422343DFE7002A00D1D8E68027981A27
:1059C000FF04074000D14DE7D31A0D00CFE6FF24B6
:1059D000002A00D1CBE68020DB08C003034204D0BC
:1059E000D208024201D113000D00DB00FF24BEE605
:1059F000002B10D0FF24002A00D1B8E68020DB085D
:105A0000C003034203D0D208024200D11300DB00DE
:105A10000D00FF24ABE61300FF24A8E601236EE788
:105A200013003400A3E6002700251EE78027002589
:105A3000FF03E9E613009AE60123A6E7FFFFFF7DD7
:105A4000FFFFFFFB4302590A4300C20F1B0E002059
:105A50007E2B0EDD9D2B0DDC802000040143952B59
:105A60000BDC9620C31AD9400B005842002A00D103
:105A700018007047034BD018FBE7963B99400B008A
:105A8000F3E7C046FFFFFF7F70B5002830D0C31793
:105A9000C5185D40C40F280000F040FD9E231B1A6E
:105AA000962B0DDC9622D21A95406A02520AD8B281
:105AB0005202C005520AE40702432243100070BD9F
:105AC000992B19DC9922D21A9540124A2A4069076B
:105AD00004D00F210D40042D00D00432510103D514
