:1000000000800010FD000000B3140000B5140000D3
:100010000000000000000000000000009B55FFEF02
:10002000000000000000000000000000B714000005
:100030000000000000000000B9140000D9600000BA
:10004000B1140000B1140000B1140000B11400009C
:10005000B1140000B1140000B1140000B11400008C
:10006000B1140000B1140000B1140000B11400007C
:10007000B1140000B1140000B1140000B11400006C
:10008000B1140000B1140000A55E0000B11400001E
:10009000B1140000B1140000B1140000B11400004C
:1000A000B1140000B1140000B1140000B11400003C
:1000B000B1140000B1140000B114000000000000F1
:1000C00090D3000000010010A802000090D30000AF
:1000D000000000200000000090D30000004000203D
:1000E00000000000A8030010C03400000000002041
:1000F00000000000004000200000000010B5104C7F
:10010000104B9C4206D2A2686168206801F0D5F9C4
:100110000C34F5E70C4B9C4205D26168206801F075
:10012000D5F90834F6E701F02DF9084B002B02D081
:1001300000E000BF03E006F003FF00F063F8FEE715
:10014000C0000000E4000000FC000000000000000F
:1001500010B5064C2378002B07D1054B002B02D09D
:10016000044800E000BF0123237010BDA803001065
:100170000000000090D30000084B10B5002B03D006
:100180000749084800E000BF07480368002B00D17A
:1001900010BD064B002BFBD09847F9E7000000008C
:1001A000AC03001090D30000A80300100000000072
:1001B0001423F7B50024104D104F2978019038789A
:1001C000490840080E4E0A390A381A0009B200B22E
:1001D000348003F031FC012329783878D940D840A5
:1001E0000539053809B200B2338002F061FF210001
:1001F000019804F051FAF7BD300100102C010010F5
:1002000026010010F0B5AE4C89B02368013304D14B
:100210002422AC49AC4800F093FE236962680024B4
:100220001A6002F017FEA94804F08EFE02F0C6FC28
:10023000A74804F061FA0A22A64B25001A8003F0B1
:1002400019FA042002F0FAFE012004F025FE04F061
:1002500027FE01230593413304932F3B0694039318
:1002600002F03AFC002800D127E19B4B00271E88B2
:1002700004F070FE052805D908233D3EF7B2BB42C5
:10028000BF417F4204F072FE944B984205D904F0BE
:100290006DFE934B83428041074004F067FE914B13
:1002A000984205D904F062FE8F4B8342804107409B
:1002B00001F0CCFE002802D04120FFF779FF01F0C9
:1002C000CBFE002802D04220FFF772FF01F0CAFEE9
:1002D000002802D04320FFF76BFF01F0D5FE002875
:1002E00002D05520FFF764FF01F0D4FE002802D0B1
:1002F0004420FFF75DFF01F0BBFE002802D04C2038
:10030000FFF756FF01F0BAFE002802D05220FFF797
:100310004FFF58230022009311001633100002F003
:1003200031FD00289CD0714A0821062004F07EF897
:100330006F4A08213A2004F079F8059B012B07D079
:10034000002B0BD0022B0FD146230793063302E07C
:10035000462307930C3B0493313B04E0622307934D
:10036000203B04932F3B0393642001F02BFF079B5A
:10037000984204DD022001F025FFC3B205935D4BD6
:10038000012D28D0002D02D0022D12D039E0002CF2
:1003900033D1022001F016FFC1B2C5B201310820ED
:1003A00006F0E0FFC4B2012D29D103204443E4B29A
:1003B00027E0002C09D0FF2206211A8005204E4A92
:1003C000013C04F033F8E4B220E0202001F0FAFE12
:1003D0000025C4B215E0002CF7D0FF2200211A80BE
:1003E000464BF53A1A80080064320C2303F024FBD4
:1003F000434A0C21022004F019F8013CD7E7022DF2
:1004000004D0642001F0DEFE612847DD0A22394B6A
:100410001A80069B052B04D03A4A2B21052004F0B4
:1004200005F8002F33D0384801F0CCFE069E902806
:100430000CDD032001F0C6FEC0B2461C069BF6B2DE
:10044000B34201D10230C6B2052E0BD0052E01D920
:10045000069605E7300006F0F1FE03050C12161AA9
:100460002A4A07E02A4A3921282003F0DFFF012623
:10047000EEE7284A3921282003F0D8FFE8E7264A8A
:1004800031212E20F8E7254A39212220F4E7244A99
:100490003821132003F0CAFF0526D9E70122214E97
:1004A000144B03981A801221320003F0BFFF320070
:1004B0001221049803F0BAFFA8E709B0F0BDC046C6
:1004C000C8030010548F00009E8F0000B68F0000FC
:1004D000C28F0000E0060010442200101E28000019
:1004E000262C0000B83D0000F7430000FA980000F9
:1004F0009AAE00002E0100107C9D00002601001025
:100500009EA50000E28F0000FF0F00001CB300005A
:100510001EB4000020B50000C0AD000046940000ED
:10052000989500002493000010B5074801F050FE94
:10053000064C18220021200006F03CFD0449200052
:1005400000F04FFD10BDC046C4030010C8030010EA
:10055000381C0000022307490A7806481A42FBD0DB
:10056000FF22054B1A70FB3A01781142FCD0187833
:10057000C0B270470C000440080004400223074941
:100580000A7806481A42FBD0FF22054B1A70FB3A44
:1005900001781142FCD01878C0B270470C000440BA
:1005A0000800044010B50100014800F08DFE10BDA8
:1005B0008C040010F8B543B204000D00002B07DADC
:1005C00000217720FFF7F6FF012831D87F231C4058
:1005D000A026882380279B013606F750FFF7BAFF35
:1005E0008A239B01F750FFF7B5FF2000FFF7DAFFE2
:1005F000280EFFF7D7FF280CC0B2FFF7D3FF280A59
:10060000C0B2FFF7CFFFE8B2FFF7CCFF9520402C38
:1006100003D09438482C00D18630FFF7C3FF0A245A
:10062000FFF798FF030603D5013CE4B2002CF7D195
:10063000F8BDFFFFF8B51D002F4B07001B78160013
:100640001B0700D449025120FFF7B4FF002801D056
:10065000012447E0294CFFF77DFFFF2804D1013C2E
:10066000A4B2002CF7D1F3E7FE28F1D1244C641B8F
:10067000A41BA4B2002E06D1224B002F1AD0224870
:100680000426007811E0013EFFF778FFB6B2F1E7EB
:100690001E4A10701A783242FCD01C4A013D127872
:1006A000ADB23A700137002D16D002211A780A42F5
:1006B000FBD0EDE702210427134A144816781A7874
:1006C0000A42FCD006701A783A42FCD00F4A013D2B
:1006D000ADB21278002DF2D1013CA4B2FFF74EFF6B
:1006E000002CF9D18823A02280219B011206D15031
:1006F000FFF730FF2000F8BDE20300103075000066
:10070000020200000C00044022B600000800044071
:10071000144B10B51C880234A4B2002C04D0002065
:10072000FFF740FF013CF7E7FFF714FF1F23012409
:10073000184005280CD10C4CFFF70CFFFF2804D003
:10074000002C02D0013CA4B2F6E763425C41E4B263
:100750008823A02280219B011206D150FFF7FAFEC8
:10076000200010BDE0030010E8FD000073B58823F1
:10077000A0258024404E9B012D06EC503F493000BF
:1007800000F098FD00220821300000F087FD84234E
:100790009B01EB58234201D1FFF7BAFF6425013DCD
:1007A000EDB2FFF7D7FE002DF9D129004020FFF769
:1007B00001FF0400012848D1D52148204900FFF756
:1007C000F9FE012815D1FFF7C5FE01AC285501350A
:1007D000042DF8D1A378012B37D1E378AA2B34D19B
:1007E000274D8021E920C905FFF7E4FE011E11D144
:1007F00015E02900E920FFF7DDFE4126012801D898
:100800000224E9261F4D00213000FFF7D3FE002807
:1008100017D11CE0013DADB2002D16D0E1E77A20E2
:10082000FFF7C8FE002810D10500FFF793FE6055C2
:100830000135042DF9D123780C245B060ED42C004D
:100840000CE0013DADB2002DDDD1002406E0802199
:1008500050208900FFF7AEFE0028F6D10A4BA022F7
:100860001C70882380219B011206D150FFF772FE75
:1008700060426041C0B276BD8C040010002D310191
:10088000E02E0000A8610000E2030010064B1A6889
:10089000831ED168002002398B4203D25078434333
:1008A000906918187047C046E40300100F4B10B54C
:1008B0001A6800230380836804001800012B13D0FA
:1008C000D16801208B420FD2002B03D1117803296C
:1008D00000D15369E360002B03D01800FFF7D6FF67
:1008E00000E050692061002010BDC046E403001004
:1008F000F0B5040085B0012854D92C4B1D68EB6875
:1009000098424FD22E78022E32D0032E38D0012EAC
:1009100048D181B24B08C91889B24B0A0193244BC4
:10092000CA05D20D296903AF9A4204D0019B380051
:10093000591802230EE0019B380059183300FFF7C5
:1009400079FE021E2ED12969019B0131C91833009D
:1009500002A80530FFF76EFE002823D17B78387897
:100960001B0203431811E2071DD41805000D1AE0FD
:100970002B69C2B2010AC918520003AD330007E067
:100980007F22042329690240C4099200611803AD43
:100990002800FFF74FFE002804D168782B7800026A
:1009A000184300E0012005B0F0BDC046E40300108C
:1009B000FF01000070B5048805000134A4B2002CCA
:1009C00001D1032322E00369002BFAD022071BD1B7
:1009D00001330F4A0361C0681668002803D1B38849
:1009E000A342EED910E073782209013B1A420BD1E1
:1009F000FFF77EFF0123984208D9F3689842E0D2BE
:100A0000E860FFF743FF286100232C80180070BDC9
:100A1000E4030010FF2270B50223520004000D0011
:100A2000FFF708FE032300282AD1627823781202F8
:100A30001A43144912B202238A4221D136222900D4
:100A40002000FFF7F7FD002809D1637822781B0208
:100A500013430D4A1BB2934201D1002310E002233D
:100A6000522229002000FFF7E5FD002807D1637816
:100A700022781B021343044A1BB29342EDD0012398
:100A8000180070BD55AAFFFF46410000F7B50400ED
:100A90000D002B78202B01D10135FAE72F3B5A426C
:100AA00053410027ED18A7602B78202B01D901971F
:100AB0002EE02000FFF7FAFE404B06001B689B6803
:100AC0001F7078E0009B1B78002B68D00822009BE9
:100AD000DB7A13405BD162680099581CC95CD35C17
:100AE000994254D103000B28F6D1D37A002B62D15E
:100AF0003B689868C37ADB0656D5437D017D1B02AF
:100B00000B43C27E1904837E120213430B43A3607E
:100B10006068020003000B32934203D100220821D7
:100B2000130013E0202119700133F5E72F2B12D0A9
:100B30002E2B3BD091420ED91F00613F192F01D8B7
:100B4000203BDBB2571C8354FAB233005E1CEB5CD3
:100B5000F6B2202BEAD8AD192026019A9E425241C6
:100B6000C2722000FFF7A2FE061E16D1134F3B688B
:100B70009B6800930F23228821691A405201113388
:100B80000098FFF757FD00289CD0012613E02000B5
:100B9000FFF710FF0028EDD00600032E0BD163688D
:100BA0000326DB7A002B06D1042604E00829D2D1E3
:100BB0000A000331C9E73000FEBDC046E40300105F
:100BC0000022F0B5504B8DB006001A60904200D163
:100BD00097E0FFF7CBFD0123184005000220002D10
:100BE00000D08EE003AF29003800FFF713FF012883
:100BF00014D1DF221023520029003800FFF71AFD1C
:100C0000002801D001207CE03B79002B01D1072096
:100C100077E0059D38002900FFF7FCFE0328F1D09E
:100C20000028F4D124230D2229003800FFF702FD0B
:100C30000028E7D1BC7A7B7A24021C430ED102AB98
:100C40001B30C0184378017884781B020B432404BE
:100C50001A002300C478134324061C43FB78B87899
:100C60005C437B780002184339782D183561717028
:100C70007A793B7912021A436B4601929B88B380C2
:100C8000FB79BF791B023B430ED102AA17339B1895
:100C90001F78BC4662465F783F0217439A78DB783C
:100CA000120417431B063B43019A181A1709001B2D
:100CB000C01B06F0CDFA154A0230F06001239042C5
:100CC00004D9134A82429B415B4202333370032BA7
:100CD0000ED102AA20339B185A78187812020243C8
:100CE00011009A78DB7812040A431B06134300E0D4
:100CF000631900207361ED19034B2C19B461B070B6
:100D00001E600DB0F0BDC046E4030010F60F0000F9
:100D1000F6FF000070B5164B01001C6890B006206D
:100D2000002C23D00023A3706B4608ADA56003A858
:100D30000493FFF7ABFE002818D12B780330002B6B
:100D400014D01023EE7A1E4010D16B7D297D1B023A
:100D5000EA7E0B431904AB7E120213430B4363621A
:100D60000F9B300023620123E661A37010B070BDB9
:100D7000E40300102F4BF7B51C68002307000D009B
:100D80000192138006209C4253D0A3780138DB07E0
:100D90004FD5236AE2699B1A8B4200D29DB200971D
:100DA000002D45D0E669F3051BD1700A617806F085
:100DB000D5FA00290BD1002E01D1606A02E0A06AA9
:100DC000FFF796FD01282FD90023A062E370A06AE7
:100DD000FFF75CFD002827D0E3785A1C1818E27052
:100DE000E062E3692E1CDA058023D20D9B009B1A7A
:100DF0009BB29D4200D91E1CB6B2381E00D000988E
:100E00003300E16AFFF716FC00280DD1E369AD1B42
:100E10009B19E361009BADB29B190093019B1B885A
:100E2000F618019B1E80BBE700230120A37000E0A1
:100E30002800FEBDE4030010294BF7B51C6806230B
:100E4000002C4AD0A278013BD20746D5256A8542BC
:100E500000D905000022E369E261954238D0667846
:100E60007602002B12D03100681E5F1E06F0F0F9EA
:100E700031000190380006F0EBF9019B834205D365
:100E800073423B40E361ED1AA06A01E0606AA06230
:100E9000B5420CD9FFF72CFD01281BD9E368984215
:100EA00018D2E369A0629B19E361AD1BF0E7E36927
:100EB0005B19E361FFF7EAFC00280BD06B0ADAB29A
:100EC000ED0501D1E27003E00132C318E270E36284
:100ED000002302E00023A37001331800FEBDC046CA
:100EE000E403001030B5154B04001B688DB00620DC
:100EF000002B20D004AD9D6001AB63602000FFF7A4
:100F0000C5FD002815D12B78002B0FD0EB7ADB061E
:100F100001D404200FE06B7D297D1B020B43EA7E88
:100F20001904AB7E120213430B43A3602000FFF7AA
:100F3000BDFC0328EDD00DB030BDC046E403001069
:100F400010B513000A000100014800F003F810BDBD
:100F500023B600000FB404B07047FFFF036870B5FC
:100F600004000D00013304D1242206490648FFF78E
:100F7000E7FF6368002D01D0E26800E0226913609A
:100F800070BDC046548F00009E8F000070B50D00EC
:100F90000400160000F098FB6B1C07D00021200015
:100FA00000F0BAFB3100200000F0B0FB70BD10B5BE
:100FB0000122FFF7EBFF10BD70B50D000400160015
:100FC00000F082FB6B1C0BD031002000FFF7C6FF46
:100FD0000121200000F0A0FB0021200000F096FB82
:100FE00070BD10B50022FFF7E7FF10BD10B504007B
:100FF000034B083303601C3000F068FC200010BD78
:1010000054B6000010B50400FFF7F0FF200000F018
:1010100067FA200010BDFFFF036810B5040001331C
:1010200004D12C2205490648FFF78AFF63696068EE
:101030001B681840431E984110BDC046548F0000E5
:101040009E8F000070B5050004000E4B0E000833A3
:1010500008C528001822002105F0ACFF002320005D
:101060003100E36123626363A363E364064A230000
:101070001C3000F0C9FB28003100FFF798FF20006A
:1010800070BDC04654B60000F110000010B5043029
:10109000FFF7C2FF10BD03000A0010B51C3001218C
:1010A000002A04D01A6200225A630132110000F0B3
:1010B00021FC10BD030010B50A001C30002903D02C
:1010C00000229963DA640132022100F013FC10BDA2
:1010D000436910B50100002B04D10368002B06D032
:1010E000984704E00068002801D00431984710BDFB
:1010F00010B5012903D0022904D1383000E0203096
:10110000FFF7E6FF10BDFFFF10B50400431C12D02F
:101110000B685A1C0CD09C4208D12000896800F052
:101120000FFC0021200000F027FC04E00C31EFE769
:101130000148FFF70FFF10BD64B6000010B50300B3
:1011400088420AD00B00421C07D003004A1C04D07E
:101150000348FFF7FFFE01235B42180010BDC046A5
:1011600075B600000B685A1C05D0834201D148684F
:1011700002E00C31F6E718007047FFFF10B50400DD
:10118000431C07D0FFF7EEFF0400431C02D10248C6
:10119000FFF7E0FE200010BD86B60000074A136886
:1011A0001818EFF30881884205D30C220120044B64
:1011B00040421A6001E010601800704704010010FE
:1011C00064380010064B10B51B680400002B00D0DB
:1011D0009847044B1B68002B01D02000984710BD96
:1011E0000801001014010010094B10B51B68040021
:1011F000002B04D09847002801D1FFF7E3FF054BEF
:101200001B68181E00D09847002C00D0206010BD2D
:101210000C01001010010010704710B5040000F020
:101220005FF9200010BDFFFF73B504000E480025D4
:10123000083020600820E0600C48261D6061069898
:101240006560257225610090300000F00BFD2B00D9
:1012500030002269E16800F085FD3000616900F02E
:10126000B7FD200076BDC046C4B6000040420F0066
:1012700070B5094D04002B6883420BD0061D02692E
:10128000C1680023300000F06DFD6169300000F09E
:101290009FFD2C6070BDC046E80300100261002273
:1012A00010B5034BC1601A60FFF7E2FF10BDC046E6
:1012B000E8030010002210B5024B41611A60FFF7ED
:1012C000D7FF10BDE803001070B50D000400FFF754
:1012D000CFFF2900201D00F0BFFD70BD036870B571
:1012E000DB680400984763685A682368002A02D1C3
:1012F0009B68984713E05B681568984763682D1AE8
:101300005A68002D07DC916859601B68002BEAD0F1
:1013100050689847E7E7236810681B69984770BDD5
:1013200010B50248FFF7DAFF10BDC046ECB600006A
:1013300070B5040000F0CCFD050000F0C9FD401BB5
:10134000A042FAD370BDFA2310B59B005843FFF7B3
:10135000EFFF10BD70B50A4CA568A3682A00002BEA
:101360000AD180225E5952059A1804331660C02BA8
:10137000F7D180225205A26010308000815070BDEC
:1013800000ED00E07FB580203F494002CA6F8E2407
:101390000243CA672322002020253C4B3C499A6027
:1013A000223A0A603B49A4000A60186219593A4A75
:1013B000114001910199A943C825019101992D027C
:1013C00029431951009035480099814204D8C046FC
:1013D000009901310091F7E7012100201964596457
:1013E000586459645C6C29480C42FBD08E218026DD
:1013F000C825890044582D0214400394039C3443AB
:101400000394039C2C43445023248460445822407A
:101410000292029CB4430294029A2A434250012051
:10142000DC681A4901220442FAD003200867002030
:101430004A67486710004A675C6F144A01210442FA
:10144000FAD08E20916780001558154C2C4014500E
:101450001558144C2C40145000209164D164D06471
:10146000D164DA6C0A42FCD02321084A11610122BE
:1014700059691142FCD000220B4B1A601A600B4BC9
:1014800001321A607FBDC0460480044000800440E1
:10149000F0400440F4400440FF250000C309000070
:1014A000FFFBFFFFFFFEFFFFC0800440C880044039
:1014B00070477047704770477047002310B59342DC
:1014C00003D21C585C500433F9E710BD00231A0006
:1014D0008B4202D21A500433FAE77047002070475B
:1014E00010B505F05DFD10BD13B501210F4B9A68D5
:1014F000120B12039A6002789C6891402143996014
:1015000099680B480143996018690849019001984E
:101510000028F9DA08329200535801938B685B0077
:101520005B088B6001980004000D16BD00C00140EF
:101530000000088470B50600FFF7D6FF04003000F5
:10154000FFF7D2FF05003000FFF7CEFFAC4202D913
:1015500023002C001D000300A84200D92B0020000E
:101560009C4200D2180070BD73B50C00214D0600DE
:1015700029002000FFF702FEC0B23070FF2804D11E
:1015800035221D491D48FFF7DBFC20002900FFF72D
:10159000BBFD80221A4BE405E40DE41823681949C9
:1015A0009343B9322360FF328858174B0340102011
:1015B0000193019B8343C8200193019B00020343D5
:1015C0008B508021114A8901D36F0B43D367104B95
:1015D0001049186805F03CFE8023DB051A0001382D
:1015E000C0B20D49184308600B681340FCD10A4A89
:1015F000136073BD58B70000F4B600003FB7000099
:101600000040044000800440FF25000004800440A6
:101610001801001020A1070000C0014010B5FFF71D
:1016200089FF06F06BFF024906F064FC10BDC0465E
:101630000108803910B50400431C04D11E2217494B
:101640001748FFF77DFC174B1A68002A06D10132B4
:101650001A60154A1549D36F0B43D3670122002C3A
:1016600012D0134B9C420FD0124B9C420CD0124B09
:101670009C4209D0114B9C4206D0114B9C4203D096
:10168000104BE1184A424A412000110000F058F97D
:101690000120A404E40EA04010BDC046F4B7000031
:1016A000A38F0000F40300100480044040000100F8
:1016B000281400002C16000030180000341A000016
:1016C000381C0000C4E1FFFF70B505000C00296064
:1016D0004B1C11D00800FFF7ADFF2414074BA400EA
:1016E000E318EB60064B6860E3182B61054BE318C9
:1016F0006B61054BE418AC6070BDC046002200A0D1
:10170000802200A0002100A0002000A010B50068E9
:1017100000F032F910BDFFFF036870B504000D0042
:10172000013304D1432209490948FFF709FC002D80
:1017300006D0012D09D1A268636811680B4303E04C
:10174000A268616813688B43136070BDF4B7000032
:101750009E8F0000F7B501210D008540134C636A90
:101760002B4221D0124B8600F058019300281BD049
:1017700023682B4218D163682B4206D0E3692B42C1
:1017800003D00C4B1B689847E5612369074F2B4238
:1017900009D03B6A2B4206D0064B019A1B680221F6
:1017A000905998473D626562F7BDC046004000A071
:1017B000FC030010F803001010B50020FFF7CAFF6B
:1017C00010BD10B50120FFF7C5FF10BD10B50220F8
:1017D000FFF7C0FF10BD10B50320FFF7BBFF10BD22
:1017E00010B50420FFF7B6FF10BD10B50520FFF7B8
:1017F000B1FF10BD10B50620FFF7ACFF10BD10B54E
:101800000720FFF7A7FF10BDF7B505002748814265
:1018100002DD0120404248E02548264C02600020BD
:10182000820016590096002E3BD11351224C28609D
:10183000E36F224F224E3B43E3671F248B03491281
:101840000C401821A44604009B0F59435E346144A8
:10185000A400A15181210124890071589B000F002F
:10186000210081400F4339008127BF00F151A021A1
:10187000802609065B18B601995927000191614637
:101880008F40019940B2B94399510E4BD158FFF79F
:1018900061FD1F222B68009813409C400A4B1C607E
:1018A00003E001300828BBD1B3E7FEBD13110200ED
:1018B000F8030010FC0300100480044080000900BD
:1018C000008004403CB8000000E100E00021036813
:1018D000064A9B0010B59950012281210068044CF2
:1018E0008240890063589343635010BDFC0300108D
:1018F0000080044003680120984070B50F4C2368B5
:10190000034200D16062C54326680C4B2E4026601E
:10191000012909D1002A03D05A68104358600CE00D
:101920005A6815405D6008E0002A03D01A69104328
:10193000186102E01A6915401D6170BD004000A0E9
:1019400070B504000D00431C04D115220749084856
:10195000FFF7F6FA074BE405E40DE41807232268C5
:101960001D409A431543256070BDC0465CB8000019
:10197000A38F00000040044070B504000D00431C1C
:1019800005D11D220F491048FFF7DAFA06E081233E
:101990001B01984214D00D4B984211D00C4BE4051A
:1019A000E40DE4182368042D04D18022D2001343EF
:1019B000236005E01822ED00934315401D43256088
:1019C00070BDC0465CB80000A38F0000140A000080
:1019D0000040044070B50D1C04680021281C05F06F
:1019E000FDFD002809D1FE21281C890505F00AFE0D
:1019F000002803D0FE25AD0500E0002580239B00D4
:101A0000E058013006F07AFD291C06F073FA05F063
:101A100059FE002808D0812304229B000138E050A1
:101A200063689343636004E00C226368134363605C
:101A3000206570BDF7B580260468B600A3590A007A
:101A4000019381239B00E758194B1868CB1700219D
:101A500005F00CFE174A002305F0E8FD0500781C90
:101A600006F04CFD019B071C581C06F047FD011CAD
:101A7000381C06F075F8071C280006F03FFD011C15
:101A8000381C06F037FA05F01DFE013DA55100286F
:101A900008D0812304229B000138E05063689343FF
:101AA000636004E00C226368134363602065F7BD44
:101AB0001801001040420F00F7B50F000600404922
:101AC0003800FFF75BFBC3B20500FF2B02D13D4896
:101AD000FFF740FA3C4B01211A78019310000840AF
:101AE000031E03D00A410B000A4262D101242100E7
:101AF0009940019A3548127873600A4301990A7037
:101B0000334A99008A5809333260C26F110080222B
:101B100012061143C1672000984003002D4A28494E
:101B20005268380013432B4A5360FFF7EDFA3368CD
:101B300029491A68E8B20A430C211A605A680A4314
:101B40005A6007281DD805F079FB040A1016040A0C
:101B50001016A022D2009C500221204A10E0A1229F
:101B6000D2009C5002211E4A0AE0A222D2009C50C0
:101B700002211C4A04E0A3220221D2009C501A4AEE
:101B800099508021C1224901920099500122C0211F
:101B90005242890015485A500C31585004395A5055
:101BA00030001349FFF746FF30000021FFF712FF16
:101BB000F7BD1048FFF7CEF901235B4296E7C04618
:101BC000A4B8000010B900001C04001004800440F8
:101BD0003CB900000080044001000600040500003C
:101BE0000C050000140500001C0500000110000099
:101BF000204E00002AB9000080210A4AC905D36F8F
:101C000080200B430121D367074B1A680A431A60EF
:101C100000229A601A6802431A601A688A431A609E
:101C20007047C0460480044000400240024B1868E0
:101C30000006C00F7047C04600400240014B986844
:101C40007047C0460040024010B58024044B19681C
:101C5000A143196098601A6822431A6010BDC046FB
:101C600000400240F0B5334E87B0009104003100CF
:101C7000009801920293FFF781FA2F4D0700290087
:101C80000198FFF77BFA2D4903900298FFF776FA47
:101C90002B4904900C98FFF771FA039905903800CE
:101CA000FFF74CFA059907000498FFF747FA01007F
:101CB0003800FFF743FA2060431C04D14822214931
:101CC0002148FFF73DF92368204A93420FD0204A6C
:101CD000934219D180201F49C002CB6F1E4A034393
:101CE000CB6701211D4B1960536803310AE0802046
:101CF00018490001CB6F184A0343CB670121184BE9
:101D0000196053680B43536031000098FFF7FCF9EA
:101D100029000198FFF7F8F908490298FFF7F4F94C
:101D20000C9B013303D006490C98FFF7EDF907B07F
:101D3000F0BDC04688BA000044B9000080B9000078
:101D4000C4BA0000C8B900000EBA00000000044088
:101D50000080054004800440008004409C800440D2
:101D600094800440F8B50E000221140002681D00A2
:101D7000536807008B435360331F0C2B06D9032C89
:101D800004D9652210491148FFF7DAF88023E001F1
:101D90000340013E1E43A30734003968DB0F0A6885
:101DA0009B01120C12041C4314430D220C604B685F
:101DB00093436A1E95410222AD001D434D604B685E
:101DC00013434B60F8BDC046C8B9000022BA0000FA
:101DD000F7B5022405000E0002685368A343536060
:101DE0001A4B1B6801932100019805F031FA06F0A7
:101DF00085FB071C300006F039FB011C381C05F080
:101E0000AFFEFC21890505F035FD07F025F804F04B
:101E1000FFFF06F0EBFFFF280FDC2B680C4A1C616C
:101E2000196801380A4002211A601A68000210433A
:101E300018605A680A435A6007E0802302345B0046
:101E40009C42D0D10348FFF785F8F7BD1801001078
:101E5000FF0000FF60BA000002220368D868104249
:101E6000FCD004229960D9681142FCD09868704770
:101E7000104B70B51A68002A1AD1012580210E4A2C
:101E80001D60D36FC9000B43D3670C4B0C4C186813
:101E900002230C49636005F0DBF90138E0600A4970
:101EA00065601320FFF756FA8022084B12031A6070
:101EB00070BDC046200400100480044018010010CA
:101EC0000080014040420F002113000000E100E0CB
:101ED000044B10B51B68002B01D1FFF7C9FF024B63
:101EE000986810BD20040010008001400121034BC0
:101EF00098615A690A435A617047C04600800140A0
:101F00000121024A53698B435361704700800140AD
:101F10000122014B1A6070470080014070477047F2
:101F20007047FFFF10B50548FFF778FB044905F03F
:101F3000E1FF05F0C7FB034B187010BD250400102E
:101F400000007F432404001010B5FFF7EBFF10BD25
:101F500010B502490248FFF707FB10BD5C2E0000D8
:101F60002504001010B503F071F910BD70B5002301
:101F7000FF2402250B480C4AC15C002906D0D15C25
:101F80000131C9B2FF2906D1D55407E0D65C002E35
:101F900004D0FF2E01D1D15400E0D4540133072BDB
:101FA000EAD170BDCD1C001027040010034B185C53
:101FB000013843425841C0B27047C0462704001060
:101FC000002210B51D4B19781A701D4A5078002850
:101FD00001D001201870D078002803D0022418788E
:101FE000204318701078002803D004241878204368
:101FF00018709078002803D00824187820431870AF
:102000001079002803D010241878204318705079D4
:10201000002803D020241878204318709279002AD1
:1020200003D040201A7802431A701B78054A180022
:1020300008409943044B1070197010BD260400101D
:10204000CD1C00102F0400102E040010014B187935
:102050007047C046CD1C0010014B58797047C046F0
:10206000CD1C0010014B98797047C046CD1C001064
:10207000014B18787047C046CD1C0010014B987872
:102080007047C046CD1C0010014B58787047C046C1
:10209000CD1C0010014BD8787047C046CD1C0010F5
:1020A0000023094A1380094A1370094A1370094A28
:1020B00013700122084B52421A80084A084B1A60DA
:1020C0000922084B1A7070473604001035040010BE
:1020D0003C0400103004001032040010CCC4000096
:1020E000380400103404001010B50248FFF7D8FF80
:1020F00010BDC0463104001037B572B6002104226D
:10210000244B802559601961234BED001A608E2203
:10211000224B92009C582C4380259C509C586D006B
:102120002C439C5001225A671400596719004B6FC9
:102130001A4D01222340FAD114002B676A676B679E
:102140004B6F164A2340FBD18E245364516CA4007C
:1021500093601367536015591149294080250191F7
:1021600001992943C825019101992D022943115153
:10217000A02284211206890153500A4953500A496A
:1021800053500A4B9860001C01688D464068804798
:1021900037BDC046004000A010E000E000800440D1
:1021A000FF250000042100000821000000ED00E0F0
:1021B00070B504000D0004F0DFFF291B05F0B8F92D
:1021C000081970BD10B501000020FFF7F1FF10BD28
:1021D0007047FFFFF0B5C1B00E0000F0CBFE00F07D
:1021E000D5FE8023DB029B1B0400984200D91C0013
:1021F00000F0B6FE8027134802F0F8F900257F00B2
:10220000A5421CD280216846490000F08DFEFF28BF
:1022100004D8631BBB4201D90B4806E0A8196946E4
:1022200003F096FE002804D0084802F0DFF90120F0
:1022300006E001350648FF3502F0CCF9E0E7002062
:1022400041B0F0BD36C6000042C600005DC60000C9
:10225000AFC60000F7B501260024514B514D1E704A
:10226000514B1C80FC23DB002B8000F0F1FE210091
:10227000200000F01DFF300002F000F900940194EE
:1022800000F0E8FD0421494800F018FEA0420FD1FB
:1022900000F070FE0820404200F04EFE0421684627
:1022A00000F042FE042101A800F03EFE00F058FEBE
:1022B00001273F4E7F423F4C2368B34200D03E4C43
:1022C0002368B34200D03D4C2368B34200D03C4C5D
:1022D0002368B34217D020233A485B422B8002F098
:1022E00085F9009B002B03D0374B019A9A4240D8C6
:1022F000364802F07BF9364802F078F9FC23DB001F
:102300002B80344820E0344B34482B8002F062F9B3
:102310000A2160682F8002F0E0F96368009A934216
:1023200027D3A068FFF7E8FE17E0FFF7B3FE002809
:1023300034D1FFF7A9FE0028F7D001990098FFF7E4
:1023400049FF002826D0264802F050F905E0FFF7A3
:1023500037FEFFF77BFE002804D1FFF777FE002849
:10236000F5D01BE0FFF772FE002817D0FFF728FE1C
:10237000F8E71C4B1C482B8002F02CF900980A212E
:102380002F8002F0AAF9FC231848DB002B8002F012
:102390002DF9CEE7164802F029F98CE7F7BDC046C3
:1023A000280100101E0100105607001023C700006E
:1023B0001EAB07B0F4FF030004FF030004FE03009C
:1023C00004F003002BC70000FF7F03003FC700009D
:1023D00053B6000056C70000FF07000071C7000099
:1023E0007BC700001FF8FFFFA1C70000B5C70000B2
:1023F00097C70000F8B50024012002F03FF8484BD1
:10240000FC271C8000F024FE464D474B47482B809C
:1024100001F0B4FC0123464E30213370454BFF00E0
:102420001C70454B60201C702F8002F0E5F843487B
:1024300002F0D0F83821602002F0DEF8404802F0C7
:10244000C9F84021602002F0D7F83E4802F0C2F8F7
:102450004821602002F0D0F83B4802F0BBF8602130
:10246000282002F0C9F8394802F0B4F8013C384895
:102470002C8002F0AFF837482F8002F0ABF802232F
:1024800035482C80337003F015FE03190434042BF7
:1024900000D8040003F038FE85B2002C38D0FFF7D6
:1024A0008FFD7821682002F0A7F80A21200002F0B1
:1024B000F7F803F029FEFA239B00EB18984203D9A2
:1024C00003F022FE013C85B202F062FF002808D032
:1024D00002F05EFF041E02D0FFF772FDF8E7FFF77F
:1024E000B9FE02F049FF002807D002F045FF00289E
:1024F00002D0FFF765FDF8E7040002F043FF002873
:10250000CBD002F03FFF002802D0FFF759FDF8E7DB
:102510000123337000F09CFD002001F0AFFFF8BDF7
:10252000560700101E01001000F8FFFF68C10000F0
:10253000280100101D01001022010010DAC7000060
:10254000DFC70000E4C70000E9C70000EEC70000D5
:10255000F4C70000F8C70000A20F0000F0B5984DC6
:102560001E002B888BB00400049109935711002E94
:1025700006D00020322300901A00010000F08CFDEC
:102580006A461021525E8E4B029222B20392032FB2
:1025900002DCFC22D20022E0042F1DD120235B426A
:1025A0002B80002E00D102E101F060FF0500012028
:1025B00001F064FF02F06AFC049902001439601E05
:1025C000C9B20A23C0B202F06FF87E4802F002F8E6
:1025D000280001F053FF05E0042F01DD7A4A1A803C
:1025E000002EE1D1002F02DC784A754B1A800123BE
:1025F000774A00930299039800F064FD012F02DCF2
:10260000724A6F4B1A80A3B21D000126704C083528
:102610002DB203932200330002992800009600F0A7
:1026200051FD6B461B8A22000493043B1BB20593A9
:10263000009633000599280000F044FD022F02DCCB
:10264000624A5F4B1A800125039E2B00103636B27A
:10265000220002993000009500F034FD2B0022008A
:1026600005993000009500F02DFD049B0095083B76
:102670001BB2069322002B000699300000F022FDC9
:10268000032F02DC514A4E4B1A800124039D504E09
:1026900018352DB22300320002992800009400F072
:1026A00011FD2300320005992800009400F00AFD76
:1026B0002300320006992800009400F003FD049BDB
:1026C00000940C3B1BB207933200230007992800AB
:1026D00000F0F8FC042F02DC3C4A394B1A8001243C
:1026E000039D3B4E20352DB2230032000299280075
:1026F000009400F0E7FC23003200059928000094C4
:1027000000F0E0FC2300320006992800009400F05D
:10271000D9FC2300320007992800009400F0D2FC75
:10272000049B0094103B1BB20893320023000899CD
:10273000280000F0C7FC052F02DC244B204A138040
:102740000125039C224E283424B22B00320002992A
:102750002000009500F0B6FC2B0032000599200007
:10276000009500F0AFFC2B00320006992000009588
:1027700000F0A8FC2B00320007992000009500F023
:10278000A1FC2B00320008992000009500F09AFC73
:1027900004992B001439320009B20095200000F092
:1027A00091FC6A46064B928C1A800BB0F0BD012357
:1027B000074A00930299039800F084FC23E7C0467F
:1027C0001E01001087C8000000F8FFFF8A520000B9
:1027D00023CE0000F0B5012087B001F04FFE0022AB
:1027E000984B1A7002F052FBFA20000103F062FCD1
:1027F000954B188005F082FE944904F003FF0028F1
:1028000001D0FF2000E07F2002F02CFBFF2002F02F
:1028100029FB2A2002F0E0FA552002F0DDFAAA2076
:1028200002F0DAFA05228A4B8A481A7000228A4B93
:10283000FC271A7003F03EFC03F066FC83B204939D
:10284000012302251C000393FF00844B1B78002BFF
:1028500003D0002C01D0002D22D102F017FB040080
:10286000FA20000103F026FC0600200005F046FED9
:10287000051C300005F0FAFD011C281C04F0A8FE20
:10288000002804D1FA20E1B2000103F01CFC20B2C0
:1028900002F0A2FA0021080000F00AFC07B0F0BD27
:1028A00003F032FCFA22049B92009B18984209D94B
:1028B00003F02AFC83B204930023694AE90FAA4279
:1028C0004B41ED1A012C03D0022C00D198E0BCE75B
:1028D000039B644C002B32D0012600F0B9FB7642FA
:1028E00010212020268000F0E3FB5F4801F072FEFB
:1028F0009921282000F0DCFB5C4801F06BFE5C486D
:10290000278001F067FE5B48268001F063FE5821B6
:102910000020278000F0CCFB574801F067FE574E9F
:10292000300001F063FE300001F060FE300001F085
:102930005DFE300001F05AFE514801F057FE99212A
:10294000302000F0B5FB424E3378032B02D8012330
:102950005B4200E04B4B238002234B4A0093302123
:10296000013BA42000F0AEFB3621182000F0A0FBB4
:10297000464801F02FFE1820422100F099FB3378E1
:102980004348032B00D8434801F024FE0223424A67
:10299000278060210093A420013B00F093FB662177
:1029A000182000F085FB3D4801F014FE722118202C
:1029B00000F07EFB02F06AFA7F2802DD314B2380B3
:1029C00000E02780224B274C1A78042A02D1243AAF
:1029D000228003E0072A01D1013A1A7018780A21EF
:1029E00001F05EFE2E4801F0F5FD278002F04EFA60
:1029F0000023020077217020FFF7B0FD022424E7B6
:102A0000FFF7DEFAFFF7B2FA02F0B6FC05900028F5
:102A100001D0002419E72000FFF7C8FA061E05D0F0
:102A200002F0F2F9059B1F4D039308E0FFF7BEFA91
:102A3000002800D109E71B4D02F0FEF9039601249E
:102A400003E7C0461D010010981A00100000FE4266
:102A5000D81A0010A30F000047040010450400100E
:102A6000FEFF00001E01001003C800001CC700008C
:102A700017C8000019C8000024C800003FC80000A3
:102A80005AC8000000F8FFFFDFCD0000D7C60000E5
:102A900075C800007FC8000001CE00008AC8000091
:102AA00087C80000FFFF0000012210B5084B00207E
:102AB0001A7001F0E3FC074801F060F903F014FB21
:102AC00003F038FB02F0C2FB03F024FB10BDC0464C
:102AD0004504001000BB0000014B18787047C04649
:102AE00045040010F7B50024FC2725005826FF00F8
:102AF000292D48D803F008FB234B1A689042F7D9D8
:102B00001E301860012D0BD0002D02D0022D22D0D6
:102B100035E01E4B28001D8000F0A8FA01252EE0AC
:102B2000FC21E2B2C900002001F012FE184B194A44
:102B300018806E2351781078490840081C34181A00
:102B4000711A00952B00A4B200F0BCFAFE2C16D925
:102B50000024022513E00E4B0E4A1F806E231078CE
:102B600051784008181A49086D3B0093711A00F01B
:102B7000A9FA3F34084BA4B29C4200D9FF25FFF7C5
:102B800065FA0028B4D0F7BDA8230010560700103E
:102B90001E010010D5C80000FF03000010B57F2003
:102BA00002F060F97F22034B1A80034B80321A70C7
:102BB00010BDC046981A001044040010F7B5FFF786
:102BC00073FF32220125FF243B4B1A703B4B1D60E3
:102BD0003B4B1C70FFF7E2FFFFF7A0F92000FFF767
:102BE0009EF9FFF7BFF9FFF7C1F9FFF7ADF900F064
:102BF0005AFA344803F05EFA0400830704D529002A
:102C00008143304803F05FFA01231C4001D1FFF7F4
:102C100069FF0026012001F031FC2B4F3E8000F0BF
:102C200017FA2A4D280001F0A9F8012001F026FC2E
:102C3000FC22274BD20028003E801A8001F09EF82B
:102C40000123244D2E70244E3370002C14D1FFF735
:102C5000D1FBFFF7BFFD00F00DFD582322000093CC
:102C600021001633200000F05DFD1C4B1B79002B6A
:102C700007D0FFF77BF9F8E702F008F900B202F09D
:102C8000ABF8002001F0FAFB0123154A1548137038
:102C9000154A2B703370137001F070F801F0C6FD07
:102CA000FFF740F90520FFF781F9002802D0002046
:102CB00002F092F8F7BDC046460400104C04001024
:102CC00044040010B40F00005607001068C1000053
:102CD0001E0100101D010010220100102704001029
:102CE0002801001004BE000024010010F0B51F4BA5
:102CF00085B01A780393002A36D000240B2A02D814
:102D00000C239C1AE4B20127194B002055251F7093
:102D100000F026FD0322174EA4B231780020CB1C10
:102D2000691A61180092513200F0EBFF380000F090
:102D300017FD032231780020CB1C691A611800921C
:102D4000513200F078FF04220B4B1A803378E41ADA
:102D50000A4B57341C800A4B186801F03BFC039B5C
:102D6000039A1B78013B137005B0F0BD58040010A6
:102D700028010010C90400104E070010DC060010E6
:102D800050040010F0B587B005930CAB039104928A
:102D90001F78060001F00AFD03F0B6F9194B1A4935
:102DA0001B780A68194C121A9A4212D92268002A12
:102DB0000FD0174AC3180B60136801250133136045
:102DC00000232360FFF7ACF8FFF7D0F8FFF7AAF86D
:102DD00014E000252368AB4210D101F087FE01F01A
:102DE000EFFE01F0EDFFFFF781FF059B0097049ACE
:102DF0000399300000F096FC01232360280007B0FF
:102E0000F0BDC04646040010540400104C040010ED
:102E10004004001010B5024800F0C2FF10BDC046CB
:102E200048040010A0228023802012069B01D15864
:102E300080000143D150D1580138FF380143D150AF
:102E4000D158C0380143D150D15840300143D150FE
:102E50007047FFFF10B5FFF7E5FFFDF787FC094C52
:102E600020700948FDF7ACFE084920700848FEF7BD
:102E700039F8084B20700022002800D101221A7076
:102E800010BDC046B30400105C04001053B600002F
:102E9000B4040010C804001010B5064904F0BAF9D3
:102EA0000023984204D1044B1B78083B581E8341F1
:102EB000180010BDA40400101C01001070B50F4DC7
:102EC00006002B780C00102B0BD030002C70FDF777
:102ED00021FF041E0DD13100094804F0A5F920009E
:102EE0000AE00848FDF76CFE03000120002BECD03F
:102EF00002E0082301202B7070BDC0461C010010A9
:102F0000A40400105C0400101022054B1A7000236A
:102F10001900044A995401330F2BFBD17047C04666
:102F20001C010010A404001013B56B469C1D220068
:102F3000FDF720FF208816BD10B5074B002804DAE6
:102F4000DA6941428A4200D25042DB69C018FDF77B
:102F500073FF024B187010BD5C040010B304001026
:102F600010B50020FDF768FF014B187010BDC0467A
:102F7000B3040010034B10B5186AFDF75DFF024B58
:102F8000187010BD5C040010B3040010014BD86928
:102F90007047C0465C0400100123812213B5074C22
:102FA0005B4200935201064B06492000FEF73CF9B4
:102FB000054A06492000FEF791FA13BD8C04001063
:102FC000180C00002412000000010010191200006B
:102FD0007047FFFF10B50B4B1B785B105943431034
:102FE000C918094B89B21B6859180C780F23C00700
:102FF00002D59C43224303E0234012011A43D2B27C
:103000000A7010BD2C010010CC040010084B10B544
:103010001B8893420BD0074B1C7883B29C4206D985
:10302000054B1C788BB29C4201D9FFF7D3FF10BD32
:103030002E0100102C01001030010010031C042888
:1030400000D90423014A13707047C046E8060010F7
:1030500010B5002002F06CFA0023024A1380024AE5
:10306000138010BD4E070010DC06001010B502F0F2
:103070005FFA10BD064B10B51B880F2B04D8054C0A
:103080005B001B5B934201D002F0BEFB10BDC0464B
:103090002E010010D004001013B504AC2488009455
:1030A00002F0E2FB13BD10B502F0A2FA10BDFFFF63
:1030B000024B1880024B19807047C0464E07001023
:1030C000DC060010F0B58FB00B9114A909780A90B6
:1030D0000891117805915178023209910092012BE3
:1030E00076D1059B0733DB100C936B461B8D079342
:1030F0000493002303936B460C21595E059B8B427E
:1031000000DCF0E00723CA171A405218D21053B25D
:103110000A93764B0B4004D50822013B52421343DD
:10312000013380221BB21A416B469B8D0D92069390
:103130000293002301936B4604229B5E099A9342FB
:103140003EDA0C9A0A995343009A5218D35C0D9AAE
:103150001A422DD0089B664C012B09D1069B019980
:1031600003985918079B2288181809B200B21DE06D
:103170006B461027DF5F6B4608269E5F2288310072
:103180003800FFF777FF049B31005D1C2DB22288C9
:103190002800FFF76FFF029B22885E1C36B23100C9
:1031A0003800FFF767FF310028002288FFF762FF31
:1031B000019B01330193029B02339BB20293BAE756
:1031C000039B01330393049B02339BB2049392E766
:1031D000042B00D087E00023099A934200DB82E0B1
:1031E0009BB202936B469B8D00250793029B079A27
:1031F0005B00D3189BB21AB201331BB204936B4627
:103200001B8D039206930193059BAB4267DD009BE8
:10321000384A1B7812681B115B009E5A089B022BD0
:1032200019D1069B6C001C19A4B227B201343200DC
:103230000399380024B2FFF71DFF320003992000E4
:10324000FFF718FF320004992000FFF713FF320048
:103250000499380007E0029B079A99186B463200E0
:103260000420185E09B2FFF705FF0F22009B1B78B0
:103270001340204A5B0012689E5A089B022B1AD109
:10328000069B6C001C19A4B2A71C3FB20334320089
:103290000399380024B2FFF7EDFE320003992000B5
:1032A000FFF7E8FE320004992000FFF7E3FE32004A
:1032B0000499380007E0029B079A99183200019B95
:1032C00009B2581C00B2FFF7D5FE009B023501334E
:1032D0000093019B2DB202339BB2019394E7029BB2
:1032E00001331BB278E70FB0F0BDC0460700008085
:1032F0001E010010D8060010F0B51300574A8DB01B
:1033000014680F00627811000192F72208390A4010
:10331000511E8A410199C9105218089208992278C1
:103320004A43511C4B431A00A2181279053352B27A
:10333000099282B20B9206920022E31805926A4625
:10334000127D099952B2914200DC7CE008991A780A
:10335000022903D00133079393B204E0991C5B78F0
:1033600007911B02134300240293059B0B9A5B00F9
:10337000D3189BB21AB201331BB203920493019B80
:10338000A34257DD0122029B134217D0344B1B7816
:10339000022B07D16500ED19ADB2324E2BB20A9364
:1033A00032881AE06946304B18254D5F1A782D4B4C
:1033B000002A01D01A882BE01A8830E02B4E2C4BC3
:1033C00032881B8893422FD0254B1B78022B18D1B3
:1033D0006500ED19ADB22BB20A93190003980135BF
:1033E000FFF748FE2DB232880A990498FFF742FE93
:1033F000328829000398FFF73DFE3288290004989F
:1034000010E06946184B18254D5F1B78002B06D03D
:10341000019B2900581EC019031B18B202E02800A6
:10342000E11909B2FFF726FE029B01345B08029303
:1034300064B2A4E7059B01330593069B01339BB25D
:103440000693079B7BE700200A4B1856099BC01880
:10345000034B1B7858430DB0F0BDC046E406001086
:10346000280100101E01001054070010560700101C
:103470002E0100101D010010F0B51300724A91B02A
:103480000691116802904A7810000192F7220838DC
:103490000240501E82410198C0101218087807920D
:1034A000424301325A43531D8A181279CB1852B243
:1034B0000592664A1178022901D001211170029CFF
:1034C0006349002C21DB069C002C1EDB1278029C39
:1034D000504300195F4C2478A04216DA019801305D
:1034E0004243069812185C48007882420DDA5B4A23
:1034F000088811885A4A814200D05A4A5A490C8891
:10350000574984420ED057490CE0544A0888118824
:10351000534A814200D0554A53490C88504984424D
:1035200000D052490E9150490F9209880DAA11708E
:103530004A49029D098800275170444A1278022A9C
:1035400030D0029A0599AA1A52B2914222DD079A06
:103550001C78022A02D05F1CA4B203E09F1C5B7897
:103560001B021C430026019BB3420FDB012306997B
:1035700023400DAAD25C71180EA89B001B5809B2FB
:10358000280001369847640876B2ECE701352DB281
:103590003B00D6E70020364B1856059BC01850E07C
:1035A000089B013705997AB2914244DD07991A7850
:1035B000022903D00133089393B204E0991C5B788D
:1035C00008911B021343029A04937B009B189BB241
:1035D0001AB201331BB20B93002309920393039A8F
:1035E000019B9342DCDB0122049B099813400DAA46
:1035F000D65C9B000EAA9D58039B32005C00069B84
:10360000E418A4B223B2190001340A9324B2A847E3
:1036100032000A990B98A847320021000998A84760
:10362000320021000B98A847049B5B080493039B7E
:1036300001335BB2D2E700200D4B1856059BC01832
:10364000400011B0F0BDC046E40600102801001093
:103650002E0100102C010010300100102601001076
:10366000D12F0000D52F0000E00600100D30000023
:103670001D010010F8B5234A234D12782B88234CE6
:10368000D9B2234F234E012A03D1002B31D0FF2181
:103690002FE0022A06D1032319408B0019430B01A6
:1036A000194326E0032A1DD101211B4A194000D0ED
:1036B000FF21206803F07EFC02232988164A194066
:1036C00023689818002900D0FF2103F073FC04231D
:1036D000298820681940114B0F4AC01800290AD0C8
:1036E000FF2108E0042A04D10B32134009011943D9
:1036F000C9B20B4A206803F05DFC00233B80338095
:10370000F8BDC04623010010E0060010CC040010F4
:103710004E070010DC060010BA0400007409000017
:103720001F13000010B5002805D1064B1968064B81
:10373000186802F0FDF8054B1B78002B01D1FFF74C
:1037400099FF10BDD8060010CC040010D40600105C
:1037500010B5024800F0E6FF10BDC04606C60000E6
:103760000F231840014B18807047C04626010010F7
:1037700010B5074B1A7883B29A4208D9054B1A78CC
:103780008BB29A4203D9044B1A78FFF723FC10BD81
:103790002C010010300100102601001070B50F4BF5
:1037A00015001B788AB20600934202D8AAB293424F
:1037B00012D90B4B1A78B3B29A420DD9A94202DD45
:1037C0000B0029001D000C00A54205DB21B23000D2
:1037D000FFF7CEFF0134F7E770BDC046300100109F
:1037E0002C01001070B50F4B16001B7882B20D0033
:1037F000934202D88AB2934212D90B4B1A78B3B2D1
:103800009A420DD9A84202DD030028001D000400E1
:10381000A54205DB20B23100FFF7AAFF0134F7E72C
:1038200070BDC0462C0100103001001010B5002AF8
:1038300004DA92B25118524209B212B28A1812B284
:10384000FFF7ACFF10BD10B50B00002A04DA92B2EE
:103850001018524200B212B28218013A11B21A0084
:10386000FFF7C0FF10BDF8B5060014000F00CB181D
:103870001DB234192A0024B2FFF790FF2A00390044
:103880002000FFF78BFF3A0030002100FFF7AAFF6E
:103890002A0030002100FFF7A5FFF8BDF8B5821817
:1038A000CB1805000C0012B21BB2002801DA002A66
:1038B0002DDB174909788D4201DB914227DD002C71
:1038C00001DA002B23DB134909788C4201DB994292
:1038D0001DDD954202DC11002A000D009C4202DC35
:1038E000190023000C00161C002A00DA002636B24C
:1038F000191C002B00DA00210FB2AE4207DA3000AB
:10390000220039000136FFF749FF36B2F5E7F8BD6E
:103910002C01001030010010F0B5030085B0002824
:1039200079D03E4A1478A04201DB631E1BB23C4AA8
:103930001078042807D13B4A11785943CA0F51180F
:10394000491089B20AE0022865D10321354A12786C
:103950005A43D51729408A18921091B2324A1588D5
:103960000195324D2D8815802E4A002B28DD1278C6
:10397000E31AD508684300252E0002900393039BA9
:103980009D4216DA891B89B233008C466146981B2A
:1039900080B207000298591889B2874205DA244F8D
:1039A000581C795CF95483B2F0E70135ADB21E00C2
:1039B000E5E7204923B20020095E12B2002024E08E
:1039C0001278A4B25043C010029000209DB203941C
:1039D000039CAC4216D9401A80B20C008446604663
:1039E000661AB6B23700029E001980B2B74205DAF5
:1039F0000F4F661C385C3855B4B2F0E70135ADB2F4
:103A00002100E5E70021080012B2FFF747FF6A46F0
:103A1000054B92881A8005B0F0BDC04630010010F9
:103A2000230100102C01001026010010E0060010F8
:103A30005B070010DC06001010B5FFF72FFF10BD6C
:103A4000F0B587B004936B46012400921B88029066
:103A5000E21AA3405B4212B21BB20391019205939A
:103A6000631E009A1BB29A4267DD019B002B0CDBA0
:103A70001300013B1BB20093059B02339BB21AB2A9
:103A80000592019A9B181BB20193019A63000133BE
:103A90009B1804221BB20193049B13420FD06B4668
:103AA0001F899D891E883819A91909B200B22D19DC
:103AB000BE19FFF75DFE29B230B2FFF759FE0222B0
:103AC000049B13420FD06B461F899D891E88E01905
:103AD000A91B09B200B2FFF74BFEBE19291B09B2A0
:103AE00030B2FFF745FE049B1B070FD56B461D89BF
:103AF0001F889E89E81BA11909B200B2FFF738FEA2
:103B0000BE19281B31B200B2FFF732FE049BDB075F
:103B100002D40134A4B2A3E76B461D891F889E8995
:103B2000E81B311B09B200B2FFF722FEF61B281B6F
:103B300031B200B2FFF71CFEEBE707B0F0BDF0B505
:103B40008BB01600089393B201220790D01A9340CD
:103B50005B421BB206938BB20493013B9BB2029370
:103B600010AB1B8800B2059302339BB20193002374
:103B7000009003930992039BB3425ADA009B002BF7
:103B80000ADB069B013E02339BB21AB20692009AF0
:103B900036B29B181BB20093039C009A0134A4B266
:103BA00023B20393630001339B181BB20093099A5D
:103BB000089B134217D06B46B5B29F8B059B6A00DA
:103BC0009A18049B3819591B12B209B200B2FFF7B8
:103BD0002DFE6B4604229A5E6B467D190821595EC4
:103BE00028B2FFF723FE0222089B134208D1029B52
:103BF000013B9BB20293019B02339BB20193BAE754
:103C00006B46B7B29D8B059B7A009A18049B281BC4
:103C1000D91B12B209B200B2FFF708FE6B460422AC
:103C20009A5E6B46ED1B0821595E28B2FFF7FEFD38
:103C3000DDE70BB0F0BDF0B587B01F000CAB002482
:103C40001C5F01900E00012C03DC3B00FFF70BFE14
:103C500055E06B469B88A1B202935B181BB20093A0
:103C600093B203934B009BB20493049A039B3100DD
:103C70009D1A2DB22A000098BFB2FFF7E4FDB6B23C
:103C80007B1EF3189BB205936B462A001421595EE4
:103C90000098FFF7D8FDA3B29E19049B36B2FF1A15
:103CA0003FB231003A000198FFF7C0FD039B31009D
:103CB0005D1E029B3A005D19ADB228B2FFF7B6FD5A
:103CC0003100012322000098FFF7BAFEA3B2ED1ADB
:103CD0002DB23100022322002800FFF7B1FE059B20
:103CE000A2B29E1A36B20423220031002800FFF748
:103CF000A7FE0823220031000098FFF7A1FE07B0BD
:103D0000F0BDF0B587B00C000CA900268E5F012E27
:103D100003DC2100FFF7C2FD2DE0B7B281B292B201
:103D20007D0004920291AAB2C919059209B20391C9
:103D3000049A0599013B9DB2521A2BB2210012B28E
:103D40000398FFF7ABFD059B3C19ED1A049B24B2C9
:103D5000581E029B2DB21818C01B00B2012332005E
:103D600021000095FFF7EBFE0095022332002100B1
:103D70000398FFF7E4FE07B0F0BDFFFF054B064ACE
:103D800018600378013313704378044A01331370C9
:103D90007047C046E4060010DE060010C90400109B
:103DA000124A134B10B504001A60FFF7D1FC012230
:103DB000104B11481A70114BDB321A80104B2C3A01
:103DC0001A80FFF7DBFF11220E4B04211A8000231B
:103DD0000D4A200013800D4A11700D4A13600D4AE0
:103DE000136093611363936410BDC0465B070010BA
:103DF000CC0400104C07001000BB0000520700105C
:103E0000EA0600102E010010E0060010E80600107F
:103E1000D0060010EC060010F0B591B001935B42A3
:103E200004000F000092994200DAF5E2D34B1A78B1
:103E3000914200DDF0E2009B5B42984200DAEBE247
:103E4000CF4B1B78984200DDE6E2CE490978012984
:103E500033D80025009B0733DB100293009B29B267
:103E6000994200DBD8E20723CA171A405218D31030
:103E70000393C54B0B4004D50822013B5242134328
:103E8000013380221BB21A4100260492019A33B2F8
:103E9000934210DA029A03995343169A5218D35C4C
:103EA000049A1A4205D0B919601909B200B2FFF795
:103EB0005FFC0136EAE70135D0E7022900D0BBE01C
:103EC000B24B00229A5E002A70DDB14B051C002126
:103ED0005B5E81B20291984200DA1D1CA1B26D1A9C
:103EE000AC492DB20020095E0098CB182418A342DB
:103EF00000DD230002995B1A1BB20493A64B00213C
:103F00005B5EB9B20391391C9F4200DA191CB8B24A
:103F1000091A09B2059101999B1879188B4200DDA5
:103F20000B00039A9B1A1BB20193009B9B100093FA
:103F3000049B9D4200DB6FE20322EB1713405B19E9
:103F4000964C9B1006932C4004D50423013C5B4205
:103F50001C430134C02324B2640023410F275BB209
:103F6000059E0793019B9E421DDA169B069A9A189E
:103F7000009B7343D35C079A13400622121B134124
:103F8000874A11889AB291420AD0864A3B401380F0
:103F9000039B9919029B09B2581900B2FFF7E8FB7D
:103FA000013636B2DEE701352DB2C1E70026009BAF
:103FB0009B100493009B32B29A4200DB2CE2774BB9
:103FC000134004D50421013B49420B4301331BB28A
:103FD0005B000393C0230399D5170B415BB2059394
:103FE00003231D40AD18169BAD105B1900250293ED
:103FF000019A2BB29A421DDD029B059A1B78039908
:1040000013400622521A1341654A11889AB291420E
:1040100009D00F2279191340A019624A09B200B2DF
:104020001380FFF7A5FB049A029B94466344013575
:104030000293DDE70136BDE7032972D1009B009AA8
:104040000733DB100893019B53430722D917114014
:10405000CB18DB101BB20693019B0199DB171340B1
:104060005B18DB100993069B0D925B000A930023FB
:1040700001936B4604229B5E009A934200DBCBE1E6
:104080000D99DA170A40D318DB100293029A0A9BA3
:10409000944663440B93BBB21D000C930C9B099A8E
:1040A000EB1A1BB29A4238DB089A02995343169ACC
:1040B0000698D218515C2E00039116990918CB1856
:1040C00002995B5C04930B9BD35C05932B00083334
:1040D0009BB20793049B04215A0002231A40059BBC
:1040E0009B000B401A43012303990B401A434B08D2
:1040F0000393049B31B25B080493059B01365B0874
:104100000593019BB6B2181900B2FEF77FFF079B1B
:10411000B342DFD10135ADB2C0E7019B013301935A
:10412000A7E7042900D015E101997918002F09DAD1
:104130000AB20192009A169952107A438A1A16927C
:10414000002706E08A4204DA01995218D21B12B203
:104150000192002C28DA0221A2B2500008400099F6
:1041600064425218641012B2009222B20492169A5B
:10417000039012190024169205942DE030010010CE
:104180002C010010E8060010070000802A01001032
:104190005007001020010010580700100300008095
:1041A0002E01001026010010009AA21893420FDA87
:1041B00002206100014003910121D21A21405210D6
:1041C000521812B204921A1B12B20591009203E027
:1041D00000220392059204925B107B4362109B18AD
:1041E0008E4A07971268D3180122224009920F22A3
:1041F0000292019A07995218974200DB0CE1884A13
:104200001278974200DB07E1099A002A06D0009A4B
:1042100003981219121A2100944679E02000009A9E
:1042200003991219521A0892089A90422EDA169A95
:1042300003991278002905D01699120149780911BD
:104240000A43D2B2774D19782D8806951511AC46E0
:10425000069DAC4509D0029D294015008C46029967
:104260008D43290065460D432900029D2A40069D85
:10427000954203D0029DA9431143C9B2169A023058
:10428000013219701692013300B2CDE7039A002A69
:1042900050D00121009A0A4215D0169A614912782D
:1042A00002980988104088420DD018780EA9C8716C
:1042B000C879029D12012840C871C8790243D2B260
:1042C000CA71CA791A70169A01330132169231E016
:1042D000169A544D12782D8818781611AE4202D0D5
:1042E000029DA843304318704E48013300881E7861
:1042F000050002981040A84204D0029812013040F4
:104300000243D6B2169A023101321E70169209B2D9
:104310006145DDDB039A002A0CD0169A1178414AD8
:10432000091112888A4204D03200029882430A435B
:10433000D6B21E700499169A8C46624416923A4A76
:1043400000991278521A0599521052189B187A1C2B
:1043500017B24EE708295FD101997918002F08DAC2
:104360000AB20192009A16997A438A1A1692002785
:1043700006E08A4204DA01995218D21B12B2019265
:10438000002C0BDA009AA4B2A21812B26442169959
:10439000009222B28918169100240DE0009AA1180B
:1043A00000228B4208DA009AA0B299B2521A091A76
:1043B000821809B212B200917B4318491B1909688F
:1043C000CB180199C919019100998C46A44401990F
:1043D0008F4221DA124909788F421DDA21006145A6
:1043E0000FDA16980F4E057836881878AE4200D04E
:1043F000280018701698013101301690013309B267
:10440000EDE7169900988918169107490978091A55
:104410005B18791C0FB2DAE711B0F0BDCC040010C4
:10442000300100102E0100102C01001037B5157856
:10443000941C53782A000094FFF7EEFC37BDFFFF71
:1044400010B5084B09B21B6800B29B78D21A064B14
:10445000D2B21B78002B02D0FEF74EFF01E0FFF72F
:104460000BF810BDE40600104C070010024B187842
:10447000431E9841C0B270474C07001009490A4AD0
:104480000A4B002805D001200870DC211180B022E1
:1044900005E00870064909781180064A12781A80EA
:1044A0007047C0464C07001052070010EA06001083
:1044B0002C0100103001001010B50B4C0B490023EB
:1044C000E25E0B4B09881B685B785800091A0948A3
:1044D000007840B28A4203DDC018FFF71DFA02E0FF
:1044E000C3189B18238010BDDC060010EA060010DC
:1044F000E40600102201001070B52B4B04001A686E
:10450000D378002B03D0602801D9203CE4B20E2CD4
:1045100021D8200002F092FE461F1F1F1F1F1F1FE1
:104520000E1F081F1F1B46000022204B1A80FFF79A
:10453000C3FF37E01D4910780B882022181A1C4B46
:1045400080B208801978C0B2FFF77AFF2AE0002213
:10455000164B1A8026E0154D12780023E85E154BA5
:104560001B889B1A98420BDB00232B80124B1B7875
:10457000002B17D0FFF7A0FF0D4B2878197802E029
:104580000B4BC0B219782200FFF75AFF202C06D13E
:104590000A4B1B785BB2002B01D0401001302B88F6
:1045A0001818288070BDC046E40600104E070010A1
:1045B000DC06001052070010240100101D0100103D
:1045C00010B504002078002803D00134FFF794FFD1
:1045D000F8E710BD10B5FFF7F3FF10BD10B50D20C3
:1045E000FFF78AFF0A20FFF787FF10BD10B5FFF71E
:1045F000E7FFFFF7F3FF10BD024B1880024B198055
:104600007047C0464E070010DC0600100023F0B5CE
:10461000050089B00E00984203D13020FFF76CFFEF
:104620001CE05C1C28006B4431001F0002F096FE69
:1046300028003970310002F00BFE2300051EF0D176
:104640006B46013C1B5D18003730C0B2092B01D806
:104650003033D8B2FFF750FF002CF1D109B0F0BDD4
:1046600010B5041E03DA2D20FFF746FF64420A212D
:104670002000FFF7CBFF10BD10B5002903D1C0B259
:10468000FFF73AFF07E00A2902D1FFF7E9FF02E04E
:10469000C9B2FFF7BBFF10BD10B5FFF7EDFF10BDAE
:1046A00010B5FFF7E9FF10BD10B5044C2080044899
:1046B000018019001000FFF7DFFF10BD4E0700104A
:1046C000DC06001010B5002903D1C0B2FFF714FFBB
:1046D00002E0C9B2FFF79AFF10BD10B5FFF7F2FF75
:1046E000FFF77CFF10BDFFFF10B50248FDF770FD1E
:1046F00010BDC0465A0700100023044AC15AD152C7
:104700000233202BFAD1024B1A607047D0040010FC
:10471000D806001089104901D210C0100A43C00207
:104720001043704770B504000025074EA2786178E9
:104730002078FFF7EFFF6B000135F0520334102DA6
:10474000F4D1024B1E6070BDD0040010D8060010DA
:1047500070B51F24050025400C40641B23B2534351
:104760001B12EB183F2544114E112C40C00A354056
:10477000C9122D1B091A55434A4312122D128018D3
:104780001BB26419021C002800DA002212B2D20205
:10479000181C002B00DA00201043231C002C00DA28
:1047A00000231BB25B01184380B270BD70B5194E77
:1047B000194C32682368194D9A421FD02268184B51
:1047C000002A03D18021D868C9000EE02268012A9E
:1047D00003D180211868C90007E080212268C90040
:1047E000022A01D1586800E09868FEF79DFB8022FC
:1047F0002368D20033602B689B182B60094B0A4A50
:104800001B6A9B182A68934203D200232B60FEF791
:10481000A7FB70BD3C2200101C2200104822001093
:10482000380100105C04001000FCFFFF10B501F01F
:1048300039FA012001F06AF910BDFFFF10B5022B13
:104840003CD804283AD802F0F9FC030E242B32009D
:10485000002249B2914204DB0A1C0A2900DD0A2227
:10486000D2B2174929E017489A0010588900095810
:1048700015481150154A08881478154A6043C0B28B
:10488000D05409880A12824200DD020062431149B5
:1048900013E00E48007841430F48C1540F490CE023
:1048A0000A48007841430E48C1540E4905E00748C4
:1048B000007841430C48C1540C49CA5410BDC0464D
:1048C000831A0010F01A0010B01A0010961A001087
:1048D000BC1A0010001B0010C61A0010271B001085
:1048E000301B0010E31A0010DA1A0010E61A00104C
:1048F000022A13D80A4B98540A4B50001B7859438C
:10490000094B9954002309498B5409494352012109
:10491000084881540848815408498B547047C04660
:104920007D1A0010961A0010A01A00107A1A0010B2
:10493000EA1A00102A1B0010A31A00108C1A00108B
:1049400070B50024184B1A78A24201D0174A147887
:104950005A78002A02D0154A5278A4189B78002B66
:1049600002D0124B9B78E418114B124D1B78124E5B
:10497000002B0FD03378E85C104B1A685043000AC4
:10498000186003F0BBFD0E4903F0EAF8011C0D4866
:10499000FDF720F83378EB5C5C43240AE0B201F0C9
:1049A000CFF8094B1C8070BDA31A0010FC1A001030
:1049B000422200105DCE0000D81A0010041B001027
:1049C00000007F437C1D00104422001010B5022817
:1049D00011D80023084A41001354084A1354084AC6
:1049E0008B52084A1354084A1354084A1354084A6D
:1049F0001354FFF7A5FF10BD2A1B0010A01A0010CA
:104A0000EA1A00108C1A0010FC1A0010241B001067
:104A1000A31A001010B50400022804D8FFF7D6FF2F
:104A20000022014B1A5510BD861A001070B5050002
:104A30000C00022915D80800FFF7ECFF094BA20073
:104A4000D5500023084A61008B520121074A1155B5
:104A5000074A08311155074A1355074A1355074AA3
:104A6000135570BD181B0010901A0010861A001004
:104A7000831A0010C61A0010301B0010DA1A00103A
:104A800070B50400022821D811490B5C002B1DD001
:104A9000104B185C002819D10F4D104EA2002B5D51
:104AA00096595B009B5B0E4EB34201D108550DE059
:104AB0000C49181208550C49DBB252589B00985803
:104AC0002100FFF7B3FF2B5D01332B5570BDC046AE
:104AD000081B0010861A0010891A00100C1B001009
:104AE000FFFF0000A61A0010CC1A001010B500201D
:104AF000FFF7C6FF0120FFF7C3FF0220FFF7C0FF4B
:104B000010BDFFFFF7B5040002284BD826490B5C07
:104B1000002B47D0254B1B5C002B43D1244B254D4C
:104B20009C4687006600F858735B5B001A5A634620
:104B30000093002A18D1204B1B5D002B02D072532A
:104B4000028811E01D4B0A551B5D2000002B03D08D
:104B5000FFF796FF735B02E0FFF738FF22E0009A51
:104B60005B00D25901929A5A012193100A420FD048
:104B70001F209111D2120140103A1038184052B241
:104B80002300FFF75BFEAB5B01339BB2AB53E6E761
:104B90003F20110A184022006400FFF7A9FE2B5B9A
:104BA00001332B53F7BDC046861A0010A01A00101F
:104BB000181B0010901A0010E01A0010081B0010BB
:104BC00010B50020FFF79EFF0120FFF79BFF02209A
:104BD000FFF798FF10BDFFFFF7B50400022800D9CA
:104BE000B1E0594B1B5C002B00D1ACE0574A135C81
:104BF000002B02D1FFF7EAFEA5E0554E013B13540E
:104C0000335C002B29D1534865002B5AA1005A1C54
:104C1000514B524FCB585100CB5A072119403955AF
:104C20004F499F120F554F4F99053F78890E794391
:104C30001B0731554C49DB0F0B5593B24B4A2B5296
:104C4000125D934209D34A4B1B5D002B02D0D21A4E
:104C50002A5202E02000FFF7B9FE3D4A454D135DA0
:104C6000013B1355444B1E5D013676B21E55434B36
:104C70001B5D00933A4B1F5D009BDF19404B1B5D92
:104C8000FF18404BFFB2195D2F55002907D03000A7
:104C900002F068FB3C4B1B5D58433F182F55285DC5
:104CA0002421243002F044FC384B29551B57384D41
:104CB00001936B461B790F002B55364B1957002972
:104CC00008D0300002F04EFB334B1B5D5843019B74
:104CD00018182855314B195D002910D0300002F00A
:104CE00041FB2F4B184004D5022301385B42184387
:104CF00001302C4B1B5D58432B5DC0182855009B81
:104D00003F2B0AD02A5D131C52B2092A01DD092368
:104D100004E01A0602D5002300E000232B55224BA5
:104D2000DA5D224B1A55224B224A1B88125D5B1119
:104D300053432A5D5343094A125D53431E4ADBB273
:104D400013551E4A1355F7BD2A1B0010A01A001058
:104D50007A1A0010EA1A0010B01A00109A1A0010FD
:104D60002D1B0010961A00109D1A0010BC1A00107E
:104D7000001B0010DD1A00108C1A00107D1A0010A4
:104D8000A61A0010301B0010E31A0010831A00103E
:104D9000C31A0010C61A0010271B0010DA1A0010E0
:104DA00001000080E61A001029CE0000C01A001091
:104DB000981A0010801A0010241B0010FC1A001012
:104DC00010B50020FFF708FF0120FFF705FF0220C4
:104DD000FFF702FF10BDFFFF10B5021C002800DA2C
:104DE0000022064913B20A80054A5B111370054A76
:104DF000DBB2D05C00F06AFE10BDC046981A00100D
:104E0000D81A001055CE000010B5084B1A780132A0
:104E1000D2B2072A00D907221A701B78044AD05C44
:104E2000044B188000B2FFF7D7FF10BDD81A00104E
:104E30004DCE0000981A001010B5074B1A78002AC2
:104E400001D0013A1A701B78044AD05C044B1880D8
:104E500000B2FFF7C1FF10BDD81A00104DCE000000
:104E6000981A001010B5002803DBFF2802DDFF2090
:104E700000E00020034B1880034B0020185EFFF772
:104E8000ABFF10BD32010010981A0010014B1888BA
:104E90007047C046981A001010B500F037FE10BDDC
:104EA000044B10B51B68181E02D000F001FF012052
:104EB00010BDC046841D0010F8B507000E00FDF7B8
:104EC000C9FF3800FDF7E8FF1B4D041E09D1FEF7AE
:104ED0001BF806213800FDF7F1FF002803D02C60F5
:104EE00027E0FEF73DF88021144CC9002068FEF74A
:104EF0001BF880216068C900FEF716F88021A068C1
:104F0000C900FEF711F88021E068C900FEF70CF82F
:104F100000220B4B1A6080221B68D2009B001B5999
:104F200001242B609B18074A1360002E01D100F06A
:104F3000BFFE2000F8BDC046841D001038010010DF
:104F40001C220010A021001010B50621FFF7B4FFAD
:104F500010BDFFFF10B5034B0349186802F078F944
:104F600010BDC0464822001044AC000010B5034BF1
:104F70002C21186802F06CF910BDC04648220010C0
:104F800010B50248FDF724F910BDC046D91A00102B
:104F9000074B10B5596A1F23CA05120F1940054B5C
:104FA000920001314900D05802F052F910BDC046BC
:104FB0000080044068CE0000064B186C03231840A4
:104FC000012804DD033843425841C00300E0024891
:104FD0007047C04600800440001BB700044B10B56A
:104FE0009C68FFF7E9FF1F2323400133584310BD9E
:104FF000008004400A4B10B51A6F03231340022BA4
:1050000006D0032B07D0012B08D1FFF7D5FF06E010
:10501000FFF7BEFF03E0FFF7E1FF00E0014810BD2E
:1050200000800440001BB70010B5FFF7E3FF024B00
:10503000996F02F00DF910BD008004400122014B70
:105040001A717047CD1C00100022014B1A71704775
:10505000CD1C00100122014B5A717047CD1C00106D
:105060000022014B5A717047CD1C00100122014BE8
:105070009A717047CD1C00100022014B9A71704745
:10508000CD1C00100122014B5A707047CD1C00103E
:105090000022014B5A707047CD1C00100122014BB9
:1050A000DA707047CD1C00100022014BDA70704797
:1050B000CD1C00100022014B9A707047CD1C0010CF
:1050C0000022014B1A707047CD1C001010B5054B23
:1050D0009A79002A02D0FFF797FE01E001229A7028
:1050E00010BDC046CD1C001010B5054B9A79002AA2
:1050F00002D0FFF7A1FE01E001221A7010BDC046E8
:10510000CD1C001010B50448FBF7C0FF0122034B73
:105110001871034B5A6210BDD41C0010CD1C001036
:10512000004000A010B50448FBF7B0FF0222034B7B
:105130005871034B5A6210BD241D0010CD1C001085
:10514000004000A010B50448FBF7A0FF0422034B69
:105150009871034B5A6210BD381B0010CD1C001013
:10516000004000A010B50448FBF790FF0822034B55
:105170005870034B5A6210BD7C1C0010CD1C0010EF
:10518000004000A010B50448FBF780FF1022034B3D
:10519000D870034B5A6210BD881B0010CD1C001044
:1051A000004000A070B50F48FBF770FF0E4CA071D7
:1051B0000E48FBF76BFFA379C0B220700C4D002B9B
:1051C0000AD0002808D02B78002B01D1FFF734FE3D
:1051D00000232370013300E0002320222B70054BB5
:1051E0005A6270BD381B0010CD1C0010DC1B001073
:1051F000CC1C0010004000A070B50F48FBF746FF24
:105200000E4CA0710E48FBF741FFA379C0B2A0700D
:105210000C4D002B0AD0002808D02B78002B01D190
:10522000FFF7F2FD0023A370013300E000234022CA
:105230002B70054B5A6270BD381B0010CD1C00103E
:105240002C1C0010CC1C0010004000A010B52E4CEF
:105250002E492000FBF72EFF20002D49FBF71BFFF6
:105260002C4C2D492000FBF725FF20002B49FBF794
:1052700012FF2B4C2B492000FBF71CFF20002A4972
:10528000FBF709FF294C2A492000FBF713FF2000F8
:105290002849FBF700FF284C28492000FBF70AFFAC
:1052A00020002749FBF7F7FE264C27492000FBF793
:1052B00001FF20002549FBF7EEFE254C2549200083
:1052C000FBF7F8FE20002449FBF7E5FE2349002008
:1052D000FCF740F822490120FCF73CF82149022064
:1052E000FCF738F820490320FCF734F81F49042064
:1052F000FCF730F81E490520FCF72CF81D49062064
:10530000FCF728F810BDC046D41C0010495000001E
:105310003D500000241D0010615000005550000059
:10532000381B0010795000006D5000007C1C0010EC
:105330009150000085500000881B0010A95000000B
:105340009D500000DC1B0010C1500000E95000001F
:105350002C1C0010B5500000CD500000055100007D
:1053600025510000455100006551000085510000A5
:10537000A5510000F9510000014B18797047C04653
:10538000CD1C0010014B58797047C046CD1C001051
:10539000014B98797047C046CD1C001070B5264867
:1053A000FEF7FEFC254E26493000FBF74BFE254D4F
:1053B000254C2A0021003000FCF790F8234E2449A8
:1053C0003000FBF73FFE2A0021003000FCF786F892
:1053D000204E21493000FBF735FE2A002100300025
:1053E000FCF77CF81D4E1E493000FBF72BFE2A000F
:1053F00021003000FCF772F81A4E1B493000FBF711
:1054000021FE2A0021003000FCF768F8174E1849E9
:105410003000FBF717FE2A0021003000FCF75EF891
:10542000144E15493000FBF70DFE2A003000210014
:10543000FCF754F870BDC046D81B0010D41C0010F7
:105440008412010000010010ED0F0000241D001067
:1054500070080100381B0010881401007C1C00102B
:10546000941A0100881B00106C060100DC1B001060
:10547000C43201002C1C00107C0E0100A023054A40
:1054800005491B0699500549C00058500021995004
:105490007047C046882000000700F8FF8821000000
:1054A00070B58A23A024042224069B01E2508023A5
:1054B000064D5B046351FFF7E1FF8023044A5B0163
:1054C000A350C046C046635170BDC04604220000D0
:1054D0008422000070B58823A024042224069B01A6
:1054E000E2508023054D5B046351FFF7C7FF802323
:1054F000034A5B01A350C046635170BD0422000003
:105500008422000010B5074C07492000FCF7D4FAAC
:1055100020000521FCF78EFA04492000FCF75AFA16
:1055200010BDC046741D0010FC0402009A99993EFB
:1055300010B504002020FFF7B3FF0020FFF7CAFFDB
:105540002120FFF7ADFF0020FFF7C4FF2220FFF767
:10555000A7FF2000FFF792FFA023882204211B064B
:10556000920199508021074A4904995080210648A8
:105570004901064C99501951C046013899500028EC
:10558000F9D110BD042200004097000084220000E1
:1055900010B52020FFF784FF0020FFF79BFF21209C
:1055A000FFF77EFF0020FFF795FF2220FFF778FF2F
:1055B0000020FFF763FFA023882204211B0692012D
:1055C00099508021074A4904995080210648490191
:1055D000064C99501951C046013899500028F9D10C
:1055E00010BDC04604220000409700008422000045
:1055F00070B5A0250124784E2D06FFF783FFAC512E
:105600000A20FBF7A0FE754B0A20EC50FBF79BFE2F
:10561000AC510A20FBF797FE2000FFF741FF8E20D8
:105620004000FFF757FF0220FFF73AFF80204000BD
:10563000FFF750FF0320FFF733FF6948FFF74AFFEA
:105640000820FFF72DFF6748FFF744FF0C20FFF706
:1056500027FF0020FFF73EFF0F20FFF721FF20006C
:10566000FFF738FF2020FFF71BFF0020FFF732FF76
:105670002120FFF715FF0020FFF72CFF1020FFF778
:105680000FFF0020FFF726FF1120FFF709FF802002
:105690004001FFF71FFF0A20FBF755FE3020FFF700
:1056A000FFFE0020FFF716FF3120FFF7F9FEDB2099
:1056B000FFF710FF3220FFF7F3FE0020FFF70AFF8D
:1056C0003320FFF7EDFE0020FFF704FF3420FFF743
:1056D000E7FEDB20FFF7FEFE3520FFF7E1FE0020AE
:1056E000FFF7F8FE3620FFF7DBFEAF20FFF7F2FEF4
:1056F0003720FFF7D5FE0020FFF7ECFE3820FFF73C
:10570000CFFEDB20FFF7E6FE3920FFF7C9FE0020C1
:10571000FFF7E0FE0A20FBF716FEFF20FFF7C0FEB2
:105720000320FFF7D7FE5020FFF7BAFE2E48FFF701
:10573000D1FE5120FFF7B4FE2C48FFF7CBFE5220DC
:10574000FFF7AEFE2A4D0520FFF7C4FE5320FFF7FA
:10575000A7FE2800FFF7BEFE5420FFF7A1FE254854
:10576000FFF7B8FE5520FFF79BFE234C0320FFF701
:10577000B1FE5620FFF794FE2000FFF7ABFE572046
:10578000FFF78EFE1D48FFF7A5FE5820FFF788FEA5
:105790002800FFF79FFE5920FFF782FE2000FFF749
:1057A00099FEB020FFF77CFE1548FFF793FEFF201F
:1057B000FFF776FE0020FFF78DFE0720FFF770FE53
:1057C0001048FFF787FEC820FBF7BDFD2220FFF73A
:1057D00067FEFFF7DDFE70BD04220000842200009A
:1057E000301000000808000003020000090A000051
:1057F000211000000206000003070000070500005A
:105800000125000017100000F8B584B21500DB2C4C
:1058100025D88EB2AF2E22D82020FFF741FE3000CF
:10582000FFF758FE2120FFF73BFE2000FFF752FE56
:105830002220FFF735FEA0248823042224069B01A2
:10584000E25080278023064E5B047F01A35128008D
:10585000A751FFF713FE034BE750C046A751F8BD11
:105860000422000084220000F0B587B00CAC24882C
:105870000494904202DD040010002200994202DDEF
:105880000C0019002300DC284CDCB0294ADC141C75
:10589000DC2A00DDDC2422B203921A1CB02B00DDCE
:1058A000B02213B20293061C002800DA002636B29A
:1058B0000C1C002900DA0024A02524B22D06039B2D
:1058C0009E422FDC2020FFF7EBFDA0B2FFF702FE87
:1058D0002120FFF7E5FDB3B218000193FFF7FAFDB1
:1058E0002220FFF7DDFD882204239201AB508027A0
:1058F000802226000C4B52047F01EA50EF500593A2
:10590000029B9E420ADA0498FFF7B8FD074BEF505E
:10591000C046059B0136EF5036B2F1E7019E0136D5
:1059200036B2CCE707B0F0BD0422000084220000AC
:10593000F0B55F465646C0B40400EFB003200D003A
:10594000FFF7AEFD5548FFF7C5FD2020FFF7A8FD86
:105950000020FFF7BFFD2120FFF7A2FD0120FFF788
:10596000B9FD2220FFF79CFD8823A021042209060F
:105970009B01CA5080234A4A5B048B5080235B0101
:105980008B504848484A6E460A50002220001100B9
:105990009446464C1700B2469B466E2107783A095A
:1059A0000F231F405200AB5ADB0023605A46E267C8
:1059B00008C6FC23E250E2677F00E250EB5BDB00AD
:1059C00023605A46E26708C6FC23E250E2670130D2
:1059D000E2500239E2D156466E215B4604CE226087
:1059E000E367FC22A350E3670139A35004CE226091
:1059F000E367FC22A350E3670139A35004CE226081
:105A0000E367FC22A350E3670139A35004CE226070
:105A1000E367FC22A350E3670139A35004CE226060
:105A2000E367FC22A350E3670139A35004CE226050
:105A3000E367FC22A350E3670139A35004CE226040
:105A4000E367FC22A350E3670139A35004CE226030
:105A5000E367FC22A350E3670139A35004CE226020
:105A6000E367FC22A350E3670139A35004CE226010
:105A7000E367FC22A350E3670139A350AED1564639
:105A8000012358229C44944587D1A022054912063F
:105A900057506FB00CBC92469B46F0BD38100000CA
:105AA00004220000882000000700F8FF882100A0E1
:105AB00070B504000D001822002101F07BFA2900C6
:105AC0002000FBF78EFA200070BDFFFF10B543B237
:105AD0008EB00C4C002B01DB207001E07F23237083
