:1000000000800010FD0000005B3200005D32000047
:1000100000000000000000000000000000000000E0
:100020000000000000000000000000005F3200003F
:10003000000000000000000061320000AD7F000001
:100040005932000059320000593200005932000084
:100050005932000059320000593200005932000074
:100060005932000059320000593200005932000064
:100070005932000059320000593200005932000054
:100080005932000059320000797D000059320000D9
:100090005932000059320000593200005932000034
:1000A0005932000059320000593200005932000024
:1000B000593200005932000059320000000000009F
:1000C00080E5000000010010C000000080E5000095
:1000D000000000200000000080E50000004000203B
:1000E00000000000C0010010004F000000000020D0
:1000F00000000000004000200000000010B5104C7F
:10010000104B9C4206D2A2686168206803F0A9F8EF
:100110000C34F5E70C4B9C4205D26168206803F073
:10012000A9F80834F6E703F001F8084B002B02D0D9
:1001300000E000BF03E008F00FFA01F067FDFEE702
:10014000C0000000E4000000FC000000000000000F
:1001500010B5064C2378002B07D1054B002B02D09D
:10016000044800E000BF0123237010BDC00100104F
:100170000000000080E50000084B10B5002B03D004
:100180000749084800E000BF07480368002B00D17A
:1001900010BD064B002BFBD09847F9E7000000008C
:1001A000C401001080E50000C00100100000000044
:1001B0001F2310B5034A4901145C2340194311540D
:1001C00010BDC046880300101F2310B5034C225CED
:1001D0009A430B401343235410BDC04688030010BC
:1001E000034B89081B8880085943081880B2704760
:1001F00008010010032373B58E0819400D00820812
:1002000018400B4B541C19684319CB180949341971
:100210000968F6000232891B401BD200A40089182D
:1002200040000918E3181B0488B2184376BDC04685
:10023000C4020010100100101FB5010C019080B223
:10024000FFF7D8FF82B2031400206D2A05D856228A
:10025000013B9BB29A424041C0B205B000BDFFFFD6
:10026000F7B5374B04001A780193364D002A02D0B7
:100270002B88834210D00123019A2C801370324BBB
:1002800020001F88314E390008F088FB20003180A3
:10029000390008F0FDFA70802D4B1E882B889A1EBD
:1002A000B24207DC02339E4204DC0023019A0120A3
:1002B000137044E0244B30001F88390008F06EFBB7
:1002C00030008DB2390008F0E3FA204B80B20021F3
:1002D0005A5E02215B5E2CB2AD1A06B2ADB2C01AF4
:1002E00080B22FB201B2002F01DA6D422FB2002985
:1002F00001DA404201B278180021142804DC2031D0
:10030000052801DD80218900944203DA1148026842
:10031000521A04E0944203DD0E480268521802604B
:100320009E4205DA0C4B00201A68511A196006E04B
:1003300000209E4203DD084B1A6851181960FEBD6B
:10034000DC010010BC020010080100104C0D001070
:10035000540D001010010010C4020010F0B58BB055
:10036000039310AB1B7808910993274B14001F8847
:100370000600390008F08CFA390085B2300008F028
:100380000DFB89B24F1CEF19BF00BBB204931F4B8A
:1003900002311F68C900043FBBB206938BB20593BC
:1003A0001B4BED001B680020033B5D1BABB20793AA
:1003B0006B469F89039BA5B2E41A164B64001B7819
:1003C000A4B25BB2834204D10A3003F0BCFD4042C8
:1003D00040B2069B80B2FF18049BED195D190E4BCD
:1003E000089A995D079B4911E418059B49001C195F
:1003F000691A099B41180019009309B200B2002341
:1004000005F068FF0BB0F0BD08010010C402001039
:10041000100100100A01001088030010F8B5114BFC
:10042000114F1E883C5C3100050008F0B7FA6409E2
:1004300089B22300002903D06B1E9BB2FB5C5B09D1
:10044000013EB14203DA0135ADB27C5D6409A342DD
:1004500005DC0120A34200DB002040B201E00120C6
:100460004042F8BD0801001088030010F8B5104B99
:10047000104F1D883C5C2900060008F009FA640949
:1004800080B22300002803D0731B9BB2FB5C5B0986
:100490006A1E904203DA7519ADB27C5D64090120D1
:1004A0009C4203DB00DC0020404240B2F8BDC04665
:1004B0000801001088030010034A105C4311505CCF
:1004C0004011181A7047C04688030010134B70B5CE
:1004D0001C8805002100FFF7EFFF002302281ADC2B
:1004E0001F210F4A505D0840022803D10D49C978E9
:1004F000994210D1135D1F221A40022A04D1094BE0
:10050000DA780023022A06D10023032803D0031F30
:10051000581E8341DBB2180070BDC0467E03001038
:1005200088030010C802001010B50C000100200064
:10053000FFF7C2FF03000020032B07DC044B185D0C
:100540001F2318400238431E9841C0B210BDC04658
:100550008803001070B50500FFF760FF0400280055
:10056000FFF784FF002804D001280BD0431C18D1CA
:1005700010E00120002C14D00623E017001BC40F4C
:10058000181B0EE00820002C0BD00430002C08DCD7
:10059000023806E00720002C03D00230002C00DCDB
:1005A000023070BD10B5074B04001A5C1F231340C6
:1005B000053B072B05D8FFF7CDFF01002000FFF713
:1005C00003FE10BD8803001070B50400032926D86F
:1005D0000800144B08F048F9020712191888A042C5
:1005E0001DD8201A19E01D882000290008F0D6F92E
:1005F000013D89B2601CA9420FD110E01888431E4A
:10060000434320189C420ADC07E01988200008F0C8
:10061000C5F989B2002902D0601E80B200E002480C
:1006200070BDC04608010010FFFF0000F7B50025AF
:100630001222234B234E1B68013B9D423EDA1400DD
:100640006C43A15F002936DC1F4F388840430138D6
:1006500003F079FC83B20320019303F074FC0138AA
:10066000C0B2012809D0002804D0022808D13419CA
:10067000012304E03419207402E0022334192374A6
:1006800012235D43114B73536B469B887619F3809D
:10069000019B3D88980084B22900200008F07EF973
:1006A00020003181290008F0F3F8094A708113888D
:1006B0000133138002E00135EDB2BEE7F7BDC0465D
:1006C0000C010010E0010010080100106F02000092
:1006D000B6020010122358430023044A8352101814
:1006E000034A83701388013B13807047E0010010B8
:1006F000B602001010B50024054B1B68013B9C425C
:1007000005DA20000134FFF7E5FFE4B2F4E710BD9D
:100710000C010010F0B50024122787B0AE4B1B6807
:10072000013B9C4200DB20E23B006343AB4A995E05
:100730001500002900DC12E2A94A1278002A00D133
:10074000C8E1EA18D1880833EB180291019300211F
:100750005B5E107C0593019B02215B5E0493042881
:1007600000D989E13B00634308F088F844010500A3
:100770005200B600E7009B4AD218D278002A09D16D
:10078000ED186B890132013B6B812B79D31A2B71E8
:10079000130021E0012A08D1ED182B8901332B81A8
:1007A0002B79D21A2A71032316E0022A09D10121DA
:1007B000ED186B89EA7001336B812B79CB1A2B71A1
:1007C0000BE0032A09D1ED182B89023A013B2B815A
:1007D0002B79D31A2B710023EB7007F005FEF0285C
:1007E00000D849E1032003F0AEFBC0B2032800D9D2
:1007F00042E13A006243794B9B1808F035F8EA026F
:100800000406022202E0012200E003221A7433E10E
:10081000ED180822AB5E744A0021515E8B4206DA65
:10082000012201332B812B79EA70D31A2B713B0003
:1008300063436A4AD31808201A5E914207DA0121FD
:10084000013A1A811A798A1A1A710322DA703B0066
:100850006343624AD3180A215A5E63490220095E43
:100860008A4207DA012001325A811A79821A1A71F2
:100870000222DA703B006343584AD3180A201A5EFA
:10088000914207DA0121013A5A811A798A1A1A71BA
:100890000022DA703A006243504954488A18458869
:1008A0005389008812895B1B121A92B29BB210B254
:1008B0001DB2002801DA524210B2002D01DA5B426B
:1008C0001DB21D2802DD1D2D00DDD5E03B00634378
:1008D000C91800230B74CFE0ED1830202E8903F0E7
:1008E00032FB183E3018A88130206E8903F02BFBB4
:1008F000183E30182E00E8813D4BF1891B88B089E5
:100900005B430393FFF76CFC039B834212DC338948
:100910003020039303F017FB039B183B18187389CF
:10092000B0813020039303F00EFB039B183B181893
:10093000F081E1E704232B749EE0ED180822AB5E02
:100940000C216A5E934206DA012101332B812B7957
:10095000E970CB1A2B713B0063432049CB18082068
:10096000195E8A4207DA0120013919811979411A81
:1009700019710321D9703B0063431849CB180A2130
:10098000585E0E25595F884207DA012501305881EB
:100990001879281A18710220D8703B0063430F4859
:1009A000C3180A25585F814207DA012501385881AA
:1009B0001879281A18710020D8703B006343074843
:1009C000C3180825585F904256D10A201A5E8A4201
:1009D00052D100221AE7C0460C010010E0010010BD
:1009E000B2020010C8020010BE020010AC020010DB
:1009F00008010010ED180822AB5E5D4A0021515E2F
:100A00008B4206DA012201332B812B79EA70D31A4B
:100A10002B713B006343574AD31808201A5E91425A
:100A200007DA0121013A1A811A798A1A1A71032206
:100A3000DA703B0063434F4AD3180A215A5E4C498F
:100A40000220095E8A4207DA012001325A811A79AE
:100A5000821A1A710222DA703B006343454AD318A6
:100A60000A201A5E914207DA0121013A5A811A7965
:100A70008A1A1A710022DA703E0066433D4DAE19A3
:100A800071893089FFF7ACFB0100F0800298FFF715
:100A90004BFD00281ED16A46019B928A03301A80C2
:100AA0006A46128A5A806B461B89F38003F04BFA20
:100AB000C0B203280ED83B006343ED1807F0D4FE04
:100AC00002040608002304E0022302E0012300E000
:100AD00003232B7439006143264E274B71181B8862
:100AE0000822885E013B9B003200984200DD0B81AA
:100AF0001221614351180A25485F834200DA4B8175
:100B00003B006343D3180820195E002901DA012154
:100B1000198112236343D3180A20195E002901DAD0
:100B2000012159813D006543551968892B890004CD
:100B30001843FFF781FB002802D00123AB7000E0CF
:100B4000A8703A0062430D4B1978B35A5B1A1BB276
:100B5000B352002B06DC2000FFF7BCFD02E0D318E7
:100B600000229A700134E4B2D8E507B0F0BDC04667
:100B7000AC020010E0010010080100101401001088
:100B8000F0B500240122D44BD44D1C70D44BD54E6B
:100B90001C70D54BD54F1C70D54B8BB01C70D54BF2
:100BA000D5481C80D54B34801A70D54B3C801C70C6
:100BB000D44B1C70D44B1B689B18093253432B80B9
:100BC000D24BD34A1C70D34B1A8005F0EDFCD248AF
:100BD00003F0B9F91422D14B30801C80D04B3C80FB
:100BE0001A805C802B885B439C420ADA200000213B
:100BF000FFF7DEFA200000210134FFF7E5FAA4B286
:100C0000F0E7022003F09FF90A210400288807F08A
:100C10003FFE0334604387B2022003F094F90A21B7
:100C20000400288807F034FE1E34604384B202209A
:100C300003F089F90A210600288807F029FE033607
:100C4000704383B20420049303F07DF90A21060067
:100C5000288807F01DFE1E36704383B203200193DF
:100C600003F071F9022817D0032824D0012832D1CB
:100C700028880A2107F00CFE0A2568433818290045
:100C800087B2019807F004FE290083B22000019387
:100C900007F0FEFD84B21EE00A21049807F0F8FD7B
:100CA0000A2183B22000049307F0F2FD002384B2EE
:100CB00001931F000FE00A21288807F0E9FD322385
:100CC0005843019B0A21181883B22000019307F0B2
:100CD000DFFD002784B200230393039B9F4201D8CA
:100CE000002359E07D4D00262888103803F02BF9A9
:100CF000083083B228880593103803F024F90830AF
:100D000083B20A212888069307F0C2FD80B203F05F
:100D10001AF90130C3B20A212888079307F0B8FDF9
:100D200080B203F010F90130C3B20520089303F03C
:100D30000AF90230C3B20993089B9E4225D20023D0
:100D400002936B46079A1B7A9A421BD9634B069A09
:100D50001B8895195D43059A02995B435218AD189B
:100D60009D420CD224226B460021ADB29B185956ED
:100D70002800FFF71DFA01212800FFF725FA029B42
:100D80000133DDE70136F6B2D6E7039B0133DBB270
:100D9000A2E7029B01339BB20293029B9C4246D086
:100DA0004E4D00262888023803F0CDF8013083B27A
:100DB00028880393023803F0C6F8013083B2032079
:100DC000059303F0C0F80130C3B20320069303F08B
:100DD000BAF80130C3B20320079303F0B4F801302E
:100DE000C3B20893079B9E42D3D20027069AFBB258
:100DF0009A4219D9394B059A1B8895195D43039A74
:100E00005B43D219AD189D420CD220226B460021C3
:100E1000ADB29B1859562800FFF7CAF901212800E6
:100E2000FFF7D2F90137E1E70136F6B2DAE7072337
:100E30000625029300260396284B1B889E4277DAEC
:100E4000039C039BE31A1BB20593244B059A1B8852
:100E50009A4269DA334A0299135D5B11994237D19C
:100E6000002904D11F212000FFF7AEF930E0059BD7
:100E7000002B06DD671EBFB2D35D1F22134200D1D7
:100E800069E2002E09DD1F22144F264B3888201AF4
:100E900080B21B5C134200D166E2104B059A1B889E
:100EA000013B9A4207DA1F22671C1E4BBFB2DB5D73
:100EB000134200D162E2094F3888431E9E4207DA8E
:100EC0001F222018174B80B21B5C134200D15EE238
:100ED0000134A4B2B5E7C046B30200100801001007
:100EE000DD010010520D0010B20200107C03001052
:100EF000C2020010B802001026A600000A0100106D
:100F0000DC010010DE0100100C010010C302001013
:100F1000FF0F0000C8020010FF3F00008003001018
:100F2000AC02001088030010013636B2039483E748
:100F3000029B013D013BEDB20293FE2D00D079E70B
:100F40000026049BB3424FD9C44C0025208810389A
:100F500002F0F9FF083083B220880293103802F0C3
:100F6000F2FF083083B20A212088039307F090FC37
:100F700080B202F0E8FF0130C3B20A212088059355
:100F800007F086FC80B202F0DEFF0130C3B205201C
:100F9000069302F0D8FF0230C3B20793069B9D422E
:100FA0001FD20027059AFBB29A4217D9AB4B039A7E
:100FB0001B8854195C43029A5B43D219A4189C42C3
:100FC0000AD26B461C21A4B259562000FFF7F0F854
:100FD00001212000FFF7F8F80137E3E70135EDB212
:100FE000DCE70136F6B2ACE7062002F0ACFF0130D8
:100FF00043B205930723062502936B461B7A059A95
:101000005BB200269A425BDA0396944B1B889E42A1
:101010004EDA039C039BE31A1BB204938F4B049A92
:101020001B889A4240DA8E4A0299135D5B119942FD
:1010300037D1002904D11F212000FFF7C5F830E087
:10104000049B002B06DD671EBFB2D35D1F22134237
:1010500000D1A6E1002E09DD1F22804F804B388889
:10106000201A80B21B5C134200D1A3E17B4B049A8F
:101070001B88013B9A4207DA1F22671C784BBFB2DC
:10108000DB5D134200D19FE1744F3888431E9E42BE
:1010900007DA1F222018724B80B21B5C134200D16A
:1010A0009BE10134A4B2B5E7013636B20394ACE754
:1010B000029B013D013BEDB202939EE70136B6B2C1
:1010C000019B664DB34202D100241F2650E02888C0
:1010D000023802F038FF013083B2288802930238C8
:1010E00002F031FF013083B20120039302F02BFFA5
:1010F0000130C3B20120049302F025FF0130C3B2D6
:101100000520059302F01FFF00250230C3B20693AD
:10111000059B9D42D2D20027049AFBB29A4217D96E
:101120004E4B039A1B8854195C43029A5B43D219B5
:10113000A4189C420AD26B461821A4B2595620002A
:10114000FFF736F801212000FFF73EF80137E3E70B
:101150000135EDB2DCE7424B195D314006D120008C
:10116000FFF726F81F212000FFF72EF80134A4B264
:101170002B885B439C42EEDB00241F2710E0384E97
:10118000335D5B1106D02000FFF7E4F90100200079
:10119000FFF71AF8335D3B401F2B0AD10134A4B28C
:1011A0002E883300734301939C42E8DB00242C4FCC
:1011B00024E007F019F9FF2808D120000221FFF7E9
:1011C00003F807212000FEF7F3FFE7E7F72805D92A
:1011D000244B0D211B88312B02D806E0DB2801D9D6
:1011E000042102E0CF28D9D903212000FEF7ECFF2B
:1011F000D4E73B5D1F2B08D00134A4B2019BA3426E
:10120000F7DC00271F243E0035E03100200007F006
:10121000C5FB89B2002909D0631EFA5C1F2A05D0DC
:101220003A1952781F2A01D1013AFA54B442E3D94B
:10123000A31B0293FB5C1F2BDED0BB191B5D1F2B76
:10124000DAD13100200007F023FB013080B2731E99
:101250009842D1DA1D22A31BFA54CDE708010010F1
:10126000880300107C030010624BDB5D2340022BDF
:1012700007D00137BFB22888030043439F42F3DB06
:1012800010E0431E43439F4207DA381880B2012121
:101290000136FEF799FFB6B2EBE701213800FEF701
:1012A00093FFE6E7002E11D15C1040082418A4B289
:1012B00020000221FEF788FF20000421FEF778FFBE
:1012C000288801212418A0B2FEF77EFF300002F02A
:1012D0003AFE2888404302F036FE474B2E8884B2FF
:1012E0001C803100200007F059FB444F89003980F1
:1012F0002000310007F0CCFA00231F218000788005
:101300001A0018008C4676433D4C2380B2420BDA1B
:1013100067463849895C39400D2902D101230130E3
:1013200080B2013292B2F1E7002B00D02080032678
:10133000344B22881B6873439A4258DA288840430A
:10134000013802F000FE0D2180B2FEF73DFF238838
:1013500001332380ECE738000121FEF735FF69B245
:101360003800FEF725FF8CE50121FEF72DFF3888B8
:1013700069B2201A80B2FEF71BFF8EE5380001210A
:10138000FEF722FF69B23800FEF712FF93E5012154
:10139000FEF71AFF388869B2201880B2FEF708FFFE
:1013A00096E538000121FEF70FFF69B23800FEF71D
:1013B000FFFE4FE60121FEF707FF388869B2201AC9
:1013C00080B2FEF7F5FE51E638000121FEF7FCFE83
:1013D00069B23800FEF7ECFE56E60121FEF7F4FE96
:1013E000388869B2201880B2FEF7E2FE59E60BB0E9
:1013F000F0BDC04688030010B0020010AC0200101F
:101400007C0300100C010010054B10B51B68591827
:10141000044B09B21B68181800B204F0DFFD10BDC0
:101420001801001004010010122273B5110041438D
:10143000754B06005918C8781D001300032800D901
:10144000D3E07343EB18714A7149724C1B7907F072
:101450000BFA02326296002B16D10220135E0B406B
:1014600004D50420013B4042034301330020125EB7
:101470001BB2114004D504220139524211430131FB
:101480000AB22088012192E00220135E0B4004D5AD
:101490000420013B4042034301330020125E1BB293
:1014A000114004D5042201395242114301310AB2DC
:1014B0002088012194E0002B16D10220135E0B40FE
:1014C00004D50420013B4042034301330020125E57
:1014D0001BB2114004D5042201395242114301319B
:1014E0000AB2208800212EE00220135E0B4004D5B2
:1014F0000420013B4042034301330020125E1BB233
:10150000114004D5042201395242114301310AB27B
:101510002088002130E0002B18D10220135E0B4000
:1015200004D50420013B4042034301330020125EF6
:101530001BB2114004D5042201395242114301313A
:101540000AB201212088009133494BE00220135E4A
:101550000B4004D50420013B4042034301330020EB
:10156000125E1BB2114004D50422013952421143CC
:1015700001310AB2012120880091284932E0002B74
:1015800018D10220135E0B4004D50420013B4042D9
:10159000034301330020125E1BB2114004D5042224
:1015A00001395242114301310AB2002120880091D1
:1015B0001B4917E00220135E0B4004D50420013BB9
:1015C0004042034301330020125E1BB2114004D598
:1015D000042201395242114301310AB2002120880C
:1015E00000911049FEF7BAFE73BD58240022009402
:1015F0006E231100100003F079FA0028F6D00A4893
:1016000004F03EFFF2E7C046C8020010AC02001032
:1016100003000080B0020010AAA60000DCA60000B3
:1016200046A6000078A60000C2A40000122337B529
:101630001A004243804C0500A218D078032800D934
:10164000F8E06B43E3187D491A7907F00DF9023C85
:1016500076B40A201B5E0B40002A19D1002B03DA56
:10166000013B043A1343013312226A43A2180820B3
:10167000125E1BB2114004D50422013952421143BB
:1016800001310AB212214D436419E0881139B0E0EA
:10169000002B04DA0422013B52421343013312228D
:1016A0006A43A2180820125E1BB2114004D504221E
:1016B00001395242114301310AB212214D436419DA
:1016C000E0881139B2E00A201B5E0B40002A19D1D4
:1016D000002B03DA013B043A1343013312226A431D
:1016E000A2180820125E1BB2114004D50422013951
:1016F0005242114301310AB212214D436419E0886C
:10170000002138E0002B04DA0422013B524213434B
:10171000013312226A43A2180820125E1BB2114044
:1017200004D5042201395242114301310AB2122177
:101730004D436419E08800213AE00A201B5E0B400B
:10174000002A1BD1002B03DA013B043A1343013377
:1017500012226A43A2180820125E1BB2114004D55F
:10176000042201395242114301310AB212214D4380
:101770006419E08811390091314959E0002B04DAED
:101780000422013B52421343013312226A43A2183E
:101790000820125E1BB2114004D5042201395242C6
:1017A000114301310AB212214D436419E088113905
:1017B000009124493CE00A201B5E0B40002A1BD10B
:1017C000002B03DA013B043A1343013312226A432C
:1017D000A2180820125E1BB2114004D50422013960
:1017E0005242114301310AB212214D4300216419C2
:1017F000E088009114491BE0002B04DA0422013B2D
:1018000052421343013312226A43A2180820125E87
:101810001BB2114004D50422013952421143013157
:101820000AB212214D4300216419E0880091074952
:10183000FEF794FD37BDC046E001001003000080B4
:1018400033C0000065C00000CFBF000001C0000031
:10185000F0B5A64A8BB013780890063313700122B6
:10186000A34B52421A800023A24A0991137003939A
:10187000069305930824039B64425C436B469E4A8F
:101880001B7B128824B2934200D3B1E1FF22089B54
:10189000059FE418039B1340099A9B009B180A3B81
:1018A0000493059B049DFA1A934BD2B21B880A3508
:1018B000934200D885E1230027339C2B00D979E19E
:1018C000049B1D336E2B00D974E11F218B4BD85D17
:1018D0004311084001385E001E2800D9C1E006F01F
:1018E000C3FF203458636D81778BB4A99F952AC0BC
:1018F000C0C0C0C0C0C0C0C0C0C0C0C0C0C05450C4
:1019000010007A4B197801237F2903D9A91B1A42A9
:1019100003D004E0A91B1A4201D0794A9EE0794A1B
:101920009CE0022B04DDA91B774A2000FFF76CFD29
:10193000A91B764A92E0022B04DDA91B724A200003
:10194000FFF762FDA91B724A88E0022B04DDA91B88
:101950006D4A2000FFF758FD049B6E4A991B20003A
:10196000FFF752FD6C4B1B88BB427AD10023022249
:1019700000936A493800FEF7F1FC01225D4B1A70B2
:101980006FE0A91B0139664A68E0A91B0139654A65
:1019900064E0022B04DDA91B5B4A2000FFF734FD45
:1019A000049B614A991B59E0022B04DDA91B564A8E
:1019B0002000FFF729FDA91B5C4A4FE0022B04DD44
:1019C000A91B514A2000FFF71FFDA91B584A45E0FB
:1019D000022B04DDA91B4C4A2000FFF715FDA91BB3
:1019E000544A3BE0022B04DDA91B474A2000FFF7C5
:1019F0000BFDA91B504A31E0022B04DDA91B424A12
:101A00002000FFF701FDA91B4C4A27E0022B04DD53
:101A1000A91B3D4A2000FFF7F7FCA91B484A1DE01F
:101A2000022B04DDA91B384A2000FFF7EDFCA91B9F
:101A3000444A13E0022B04DDA91B334A2000FFF7C0
:101A4000E3FCA91B0239404A08E0022B04DDA91B74
:101A50002D4A2000FFF7D8FC3C4AA91B2000FFF7C5
:101A6000D3FC23001E3B0E2B07D8AB1B272B04DC1B
:101A70007519202D01DD1E4B1F80274B1A88344B12
:101A80001B785BB2D118B94200D09FE01B49FB1A0A
:101A90009BB2CB5C1F210B40022B00D196E00020B3
:101AA000FFF7C2FC0123069300252A4B1B68013B6C
:101AB0009D4255DA12236B43274EF3189A78002A79
:101AC00010D0DB88BB4202D12800FFF7AFFD122304
:101AD0006B43F618104BF2881B889A4202D1012200
:101AE0001E4B1A700135EDB2DFE7C046B30200109D
:101AF000540D0010DE0100100801001088030010D2
:101B000085BF00003BBF0000DEA3000005BE000053
:101B10000EBD000058BD0000B0020010BCA30000C4
:101B20001ABA000064BA000099BE00004FBE00005F
:101B300084BB00004ABB000020BC000072BC000057
:101B4000C4BC0000AEBA0000C6BB000000BB000071
:101B50000A0100100C010010E0010010C302001087
:101B6000244B1B78002B25D006F03EFCFD2817D90E
:101B7000214B03201B88079302F0E5F905000320A1
:101B800002F0E1F90600012002F0DDF90136C0B2F1
:101B9000013D009033B22AB218490798FEF7DEFBE8
:101BA000174A1388013B1BB21380002B02DA042270
:101BB000144B1A707B1C9FB2049B083404330493AB
:101BC0006FE6039B05970133039353E6974200D0DA
:101BD0006AE71F220C4BDB5D1340022B00D163E749
:101BE000069B002B00D05FE70698FFF71DFC5BE724
:101BF0000BB0F0BDC3020010B0020010F8B9000035
:101C0000C8020010B402001088030010F0B5BC48F0
:101C100089B005F0D7F802F09BFEBA4C0D262000E3
:101C200004F0C2FC03F06CFA042003F04BF80F221E
:101C3000B54BB64D01201A802E8005F065F805F0F1
:101C400067F805F065F8FF232E800293059402F0F3
:101C50000DFE002801D100F03CFC58230022009327
:101C600011001633100002F041FF0028EFD080234E
:101C7000A7491B030A68002A01D0A64800E0A6482D
:101C8000A024240623500123A44C9A1A20780A6029
:101C90000528DCD806F0F2FD0800150070000F01E1
:101CA0000600B800102537E30926042002F04AF8A0
:101CB000051E00D087E302F0D9FD002800D087E39D
:101CC00081E30321092003F097FA1025013DEDB2CD
:101CD000002D02D1E0277F4247E000225823110067
:101CE00000931000163302F001FFEFE702F0BEFD93
:101CF000002800D19BE358232A00009329001633C3
:101D0000280002F0F3FE00282FD0854803F01EFEC5
:101D1000280003251E2103F00FF8824804F0B0FBD1
:101D2000814B032106209F8103F066FA7F4E0A2132
:101D3000306804F00BFC0321092003F05DFA7C48B5
:101D400004F0AAFB7B4804F09BFB0321062003F070
:101D500053FA30680A21684304F0F4FB0920290093
:101D600003F04AFA744804F08BFB042001F0EAFF08
:101D7000051E00D05BE3B9E70321092003F03CFA1C
:101D80001025013DEDB2002D02D1E026764234E06F
:101D900000225823110000931000163302F0A6FE13
:101DA000EFE702F063FD002800D140E358232A004A
:101DB000009329001633280002F098FE00281CD05A
:101DC000574803F0C3FD1E21280002F0B5FF5B4811
:101DD00004F056FB544B032106209E8103F00CFABD
:101DE000574804F059FB0321092003F005FA554830
:101DF00004F052FB544804F04FFB042001F0A2FF12
:101E0000051E00D013E3CCE70321092003F0F4F909
:101E10001025013DEDB2002D02D1E026764243E0CF
:101E200000225823110000931000163302F05EFECA
:101E3000EFE702F01BFD002800D1FCE258232A0046
:101E4000009329001633280002F050FE00282BD002
:101E5000334803F07BFD280003251E2102F06CFFB0
:101E60003A4804F00DFB304B032106209E8103F01D
:101E7000C3F90321092003F0BFF92D4804F00CFB3E
:101E8000334804F0FDFA0321062003F0B5F9274B8F
:101E90000A211868684304F055FB0920290003F063
:101EA000ABF9254804F0ECFA042001F04BFF051EC5
:101EB00000D0C0E2BDE72749274E0A78274C9A1A7E
:101EC0000A7032789B1A3370254B1A882378120ACD
:101ED000934201D9002323702378934270D2227059
:101EE000204B21487E2A03D81A8802321A803DE00E
:101EF000198802391980962A38D9042237E0C04659
:101F0000CBA4000026A600004601001058100010C7
:101F1000840300100422000084220000B402001098
:101F2000DED0000010A50000480E00100C010010CB
:101F30003FD800001FA500002CA5000032A500001E
:101F400043A5000048A5000061A500007CA5000095
:101F500091A50000B2020010C2020010DD010010C5
:101F6000520D0010800300101401001001220270B5
:101F700000215A5EFD2A01DDFD221A8000215A5EF1
:101F8000012A01DC02221A809B4D1B789B4A05998D
:101F9000280004F063FB23784C3B352B10D806F067
:101FA00033FA974B98420BD9FEF740FBAB895B00A5
:101FB000AB8106F019FADF2802D9E0235B42AB813E
:101FC000904F3B78002B03D08F4B1888FEF748F9D1
:101FD0008E4C0022A35E04930222A35E03938C4BDB
:101FE0001A888C4B1A808C4B1B785BB21D00012B1E
:101FF00000D03578894B1A78534253415B421D40DB
:1020000001F008FF002813D001F0ECFE00280FD1EA
:102010000023E25E824B1B88013B9B009A4201DA5F
:102020005219228001217F4B1A79D9708A1A1A71AC
:1020300001F0E4FE002811D001F0D4FE00280DD1FB
:10204000724A0221535E002B01DD5B1B538001228B
:10205000744B1979521A1A710022DA7001F0C8FE15
:10206000002815D001F0BEFE002811D167490223D7
:10207000CA5E6B4B1B88013B9B009A4201DA5219E6
:102080004A800122674B1979521A1A710222DA70BA
:1020900001F0BAFE002811D001F0A4FE00280DD1F5
:1020A0005A4A0021535E002B01DD5D1B1580012281
:1020B0005C4B1979521A1A710322DA7061882088F0
:1020C000FEF798F83B7807AA0790002B41D1002132
:1020D000565E0221525E54490D6854490868711ECB
:1020E00089B26C2906D8002A04DD5727D10F974200
:1020F0004B419B00272E04DC202119414A4F4919EE
:102100003960272A04DC10211941484F0918396029
:10211000462E05DD20211941434E3768791A31607A
:10212000322A06DD102119410B00404A1168CB1AF2
:1021300013603B4B3E4A1B8811885B43994208DD84
:102140003C4B2DB21B8800B21380374B1D60374BC0
:10215000186061882088FEF743F8374C2C4D235CCB
:102160002880DB432C4ADB0601D1FF2300E001235A
:102170001370284B1E88B04200D165E1FEF7A6F926
:10218000002800D060E16A46204B128A2E801A8017
:102190006A4692895A80042001F0D4FD002816D0A6
:1021A000204B2888D978FEF70FFA245C06006411CA
:1021B00002D10121FEF708F8013461B2082C00D1E8
:1021C00007213000FDF7F4FF3000FEF7EBF90520A2
:1021D00001F0B8FD00285FD0124B2E88D97830006E
:1021E000FEF7F2F91F21144A0500135C5C110B4045
:1021F000022B23D164B226E0480E001006A6000090
:10220000FFDF0000DC010010BC020010AC02001077
:10221000B00200107E0300100A010010C30200107B
:1022200008010010C802001010010010C4020010C4
:10223000540D0010BA02001088030010013C64B273
:10224000611C00D10024925D5211013A944201DBDD
:10225000002C1AD10D2B0ED103209F490A88013280
:1022600092B20A809D49096841438A4200D0FBE04E
:1022700005219B4A1170053B072B00D9F4E0002C87
:1022800003D11F212800FDF79FFF28002100FDF743
:102290008FFF2800FEF786F9FEF73CFA914B19688C
:1022A000914B1868FFF7D4FA0121904B08001A8867
:1022B0008F4B1A808F4A03F091FE00210A2002F012
:1022C0003BFD8D4B0920197802F096FF8B4A13884D
:1022D0001900103111808A490978002901D0803312
:1022E00013807D4B0A21188804F02CF9854804F0EE
:1022F000C7F80320794B0A211B68584304F026F9DC
:102300000D22814B1A80A2E4582300220093110071
:102310001633100002F0EAFB013DEDB2002DF3D1BF
:10232000E026764249E002F0A1FA002800D1A0E0C0
:1023300058232A00009329001633280002F0D6FB08
:1023400000283AD0714803F001FB2800142102F064
:10235000F3FC29000E2002F04FFF6D4804F09CF8BA
:102360006C4D280004F098F8092002F03DFF6A48FF
:1023700004F092F8694804F08FF8280004F08CF813
:10238000062002F031FF664B66489E8104F078F823
:1023900064200321504B1B885843504B1B68594302
:1023A00006F000FB07F0A2FA06F08CFC0A2180B2CE
:1023B00004F0C8F85C4804F06FF8042001F0C2FC97
:1023C000051E56D1AFE701232370FEF7D9FB3EE48B
:1023D00058232A00009329001633280002F086FBB8
:1023E000002800D161E4514A2900280003F0F6FDDD
:1023F000464803F0ABFA4E4B09201E803E4B4A2163
:102400001A88414B1A8002F097FC6B461B7A4948A8
:102410005BB2002B00DB484804F032F8029B023B21
:10242000DBB2029305F0DAFD06F08EF93DE40323FA
:102430002370FC334AE0294A1368013313600123F7
:102440002370FEF79DFB40E03C4E33780133DBB256
:102450003370062B00D09EE604223949394806F035
:10246000B5F80023337096E601212800FDF7ACFE95
:1024700005E7FEF73FF9082200251B4B52421A6080
:10248000184B314A1D600A231360304A1360304BE9
:10249000304A1D80304B1D80304B1D80134B1D80FA
:1024A0002F4B1D800C4B1D80144B1D80012313707E
:1024B0002C4A1570124A15702B4A15802B4A15802C
:1024C000064A1360FEF75CFB2570FF230293FFF7BB
:1024D000BEFB09B0F0BDC046B80200100C010010F0
:1024E000B4020010C402001010010010540D0010BE
:1024F000BA020010A0A4000046010010520D001006
:10250000DE0100109FA5000058100010DED0000072
:10251000A1A50000C7C00000B6A50000D0A500001E
:10252000480E0010EBA5000003A600000EA7000057
:102530003E010010DDA40000F8A40000560D0010BC
:10254000AC020010BE0200100401001018010010BF
:102550007E0300100A010010B0020010BC0200103F
:102560007C030010DC01001080030010B602001094
:1025700010B5074801F0EDFC064C182200212000A0
:1025800006F02DF80449200000F0FFFB10BDC04606
:10259000500D001094020010AC26010010B501008F
:1025A000014800F065FD10BD000E001010B5FF21C0
:1025B000024800F05DFDC0B210BDC046000E001024
:1025C000F8B543B204000D00002B07DA0021772094
:1025D000FFF7F6FF012831D87F231C40A02688236F
:1025E00080279B013606F750FFF7E0FF8A239B0107
:1025F000F750FFF7DBFF2000FFF7D0FF280EFFF7B3
:10260000CDFF280CC0B2FFF7C9FF280AC0B2FFF700
:10261000C5FFE8B2FFF7C2FF9520402C03D09438E5
:10262000482C00D18630FFF7B9FF0A24FFF7BEFF20
:10263000030603D5013CE4B2002CF7D1F8BDFFFF3F
:1026400073B58823A02480223F4D9B012406E250CD
:1026500028003E4900F002FD28000022082100F079
:10266000F1FC842364259B01E358013DEDB2FFF7A3
:102670009DFF002DF9D129004020FFF7A1FF0400A4
:1026800001284BD1D52148204900FFF799FF0128A7
:1026900015D1FFF78BFF01AC28550135042DF8D17A
:1026A000A378012B3AD1E378AA2B37D1284D80218A
:1026B000E920C905FFF784FF011E11D115E02900AB
:1026C000E920FFF77DFF4126012801D80224E926F1
:1026D000204D00213000FFF773FF002820D116E0C5
:1026E000013DADB2002D19D0E1E77A20FFF768FF78
:1026F000002813D10500FFF759FF60550135042D5F
:10270000F9D123780C245B060FD42C000DE0802136
:1027100050208900FFF754FF002806D0002404E071
:10272000013DADB2002DF9D0D3E70B4BA0221C70B8
:10273000882380219B011206D150FFF737FF6042AA
:102740006041C0B276BDC046000E0010002D3101C0
:10275000E02E0000A8610000570D0010F8B51D0024
:10276000244B07001B7816001B0700D44902512098
:10277000FFF726FF002801D0012431E01E4CFFF7AF
:1027800015FFFF2804D1013CA4B2002CF7D1F3E7D8
:10279000FE28F1D1194C641BA41BA4B2002E07D152
:1027A000002F11D0013DADB201353E007D1904E08E
:1027B000013EFFF7FBFEB6B2F0E7FFF7F7FE307021
:1027C0000136B542F9D105E0013DADB2FFF7EEFEAD
:1027D000002DF9D1013CA4B2FFF7E8FE002CF9D19D
:1027E0008823A02280219B011206D150FFF7DEFE34
:1027F0002000F8BD570D00103075000002020000E7
:10280000064B1A68831ED168002002398B4203D21E
:1028100050784343906918187047C046580D00100F
:102820000F4B10B51A68002303808368040018005A
:10283000012B13D0D16801208B420FD2002B03D182
:102840001178032900D15369E360002B03D01800ED
:10285000FFF7D6FF00E050692061002010BDC046A0
:10286000580D0010F0B5040085B0012854D92C4B48
:102870001D68EB6898424FD22E78022E32D0032E7C
:1028800038D0012E48D181B24B08C91889B24B0A01
:102890000193244BCA05D20D296903AF9A4204D093
:1028A000019B3800591802230EE0019B380059188B
:1028B0003300FFF753FF021E2ED12969019B01311E
:1028C000C918330002A80530FFF748FF002823D1BC
:1028D0007B7838781B0203431811E2071DD41805D2
:1028E000000D1AE02B69C2B2010AC918520003ADEB
:1028F000330007E07F22042329690240C4099200C3
:10290000611803AD2800FFF729FF002804D168787B
:102910002B780002184300E0012005B0F0BDC0464E
:10292000580D0010FF01000070B504880500013447
:10293000A4B2002C01D1032322E00369002BFAD0BA
:1029400022071BD101330F4A0361C06816680028B3
:1029500003D1B388A342EED910E073782209013B7A
:102960001A420BD1FFF77EFF0123984208D9F36882
:102970009842E0D2E860FFF743FF286100232C80F3
:10298000180070BD580D0010F7B504000D002B782D
:10299000202B01D10135FAE72F3B5A425341002742
:1029A000ED18A7602B78202B01D901972EE020008D
:1029B000FFF736FF404B06001B689B681F7078E0EE
:1029C000009B1B78002B68D00822009BDB7A134009
:1029D0005BD162680099581CC95CD35C994254D1A0
:1029E00003000B28F6D1D37A002B62D13B6898689C
:1029F000C37ADB0656D5437D017D1B020B43C27EA5
:102A00001904837E120213430B43A3606068020023
:102A100003000B32934203D100220821130013E07C
:102A2000202119700133F5E72F2B12D02E2B3BD02C
:102A300091420ED91F00613F192F01D8203BDBB214
:102A4000571C8354FAB233005E1CEB5CF6B2202BA9
:102A5000EAD8AD192026019A9E425241C272200046
:102A6000FFF7DEFE061E16D1134F3B689B680093EE
:102A70000F23228821691A40520111330098FFF771
:102A80006DFE00289CD0012613E02000FFF74CFFCC
:102A90000028EDD00600032E0BD163680326DB7AF5
:102AA000002B06D1042604E00829D2D10A00033104
:102AB000C9E73000FEBDC046580D001070B5164B7A
:102AC00001001C6890B00620002C23D00023A370C6
:102AD0006B4608ADA56003A80493FFF755FF0028D7
:102AE00018D12B780330002B14D01023EE7A1E401F
:102AF00010D16B7D297D1B02EA7E0B431904AB7E4E
:102B0000120213430B4363620F9B300023620123C5
:102B1000E661A37010B070BD580D00102F4BF7B5D3
:102B20001C68002307000D000192138006209C42C0
:102B300053D0A3780138DB074FD5236AE2699B1A8B
:102B40008B4200D29DB20097002D45D0E669F30577
:102B50001BD1700A617805F021FF00290BD1002EEE
:102B600001D1606A02E0A06AFFF77CFE01282FD93C
:102B70000023A062E370A06AFFF742FE002827D07E
:102B8000E3785A1C1818E270E062E3692E1CDA053B
:102B90008023D20D9B009B1A9BB29D4200D91E1C24
:102BA000B6B2381E00D000983300E16AFFF7D6FDB8
:102BB00000280DD1E369AD1B9B19E361009BADB209
:102BC0009B190093019B1B88F618019B1E80BBE795
:102BD00000230120A37000E02800FEBD580D001066
:102BE000294BF7B51C680623002C4AD0A278013B7C
:102BF000D20746D5256A854200D905000022E3693F
:102C0000E261954238D066787602002B12D031000E
:102C1000681E5F1E05F03CFE31000190380005F093
:102C200037FE019B834205D373423B40E361ED1ABB
:102C3000A06A01E0606AA062B5420CD9FFF712FEFB
:102C400001281BD9E368984218D2E369A0629B1956
:102C5000E361AD1BF0E7E3695B19E361FFF7D0FDCA
:102C600000280BD06B0ADAB2ED0501D1E27003E067
:102C70000132C318E270E362002302E00023A37074
:102C800001331800FEBDC046580D001030B5154B7D
:102C900004001B688DB00620002B20D004AD9D6081
:102CA00001AB63602000FFF76FFE002815D12B7881
:102CB000002B0FD0EB7ADB0601D404200FE06B7DF4
:102CC000297D1B020B43EA7E1904AB7E12021343DB
:102CD0000B43A3602000FFF7A3FD0328EDD00DB048
:102CE00030BDC046580D001010B513000A00010099
:102CF000014800F003F810BD97C000000FB404B005
:102D00007047FFFF036870B504000D00013304D164
:102D1000242206490648FFF7E7FF6368002D01D02B
:102D2000E26800E02269136070BDC046C8C00000C0
:102D300012C1000070B50D000400160000F098FBF1
:102D40006B1C07D00021200000F0BAFB31002000EE
:102D500000F0B0FB70BD10B50122FFF7EBFF10BD16
:102D600070B50D000400160000F082FB6B1C0BD048
:102D700031002000FFF7C6FF0121200000F0A0FB7A
:102D80000021200000F096FB70BD10B50022FFF777
:102D9000E7FF10BD10B50400034B083303601C307F
:102DA00000F068FC200010BD2CC1000010B504002C
:102DB000FFF7F0FF200000F067FA200010BDFFFFD2
:102DC000036810B50400013304D12C2205490648DC
:102DD000FFF78AFF636960681B681840431E9841CB
:102DE00010BDC046C8C0000012C1000070B505008B
:102DF00004000E4B0E00083308C5280018220021DD
:102E000005F0EDFB002320003100E36123626363E2
:102E1000A363E364064A23001C3000F0C9FB2800CA
:102E20003100FFF798FF200070BDC0462CC10000A4
:102E3000992E000010B50430FFF7C2FF10BD03004B
:102E40000A0010B51C300121002A04D01A620022A9
:102E50005A630132110000F021FC10BD030010B5CF
:102E60000A001C30002903D000229963DA64013281
:102E7000022100F013FC10BD436910B50100002BC6
:102E800004D10368002B06D0984704E000680028AE
:102E900001D00431984710BD10B5012903D0022993
:102EA00004D1383000E02030FFF7E6FF10BDFFFF0F
:102EB00010B50400431C12D00B685A1C0CD09C4265
:102EC00008D12000896800F00FFC0021200000F0EC
:102ED00027FC04E00C31EFE70148FFF70FFF10BDBE
:102EE0003CC1000010B5030088420AD00B00421C10
:102EF00007D003004A1C04D00348FFF7FFFE01235C
:102F00005B42180010BDC0464DC100000B685A1C42
:102F100005D0834201D1486802E00C31F6E7180081
:102F20007047FFFF10B50400431C07D0FFF7EEFF0A
:102F30000400431C02D10248FFF7E0FE200010BD50
:102F40005EC10000074A13681818EFF30881884231
:102F500005D30C220120044B40421A6001E01060AE
:102F6000180070471C010010BC500010064B10B533
:102F70001B680400002B00D09847044B1B68002BF3
:102F800001D02000984710BD200100102C01001036
:102F9000094B10B51B680400002B04D0984700288B
:102FA00001D1FFF7E3FF054B1B68181E00D09847BF
:102FB000002C00D0206010BD24010010280100105A
:102FC000704710B5040000F05FF9200010BDFFFF4E
:102FD00073B504000E480025083020600820E0602A
:102FE0000C48261D60610698656025722561009079
:102FF000300000F003FD2B0030002269E16800F092
:103000007DFD3000616900F0AFFD200076BDC04657
:103010009CC1000040420F0070B5094D04002B68B0
:1030200083420BD0061D0269C1680023300000F006
:1030300065FD6169300000F097FD2C6070BDC046F1
:103040005C0D00100261002210B5034BC1601A60D4
:10305000FFF7E2FF10BDC0465C0D0010002210B566
:10306000024B41611A60FFF7D7FF10BD5C0D0010E5
:1030700070B50D000400FFF7CFFF2900201D00F000
:10308000B7FD70BD036870B5DB68040098476368DE
:103090005A682368002A02D19B68984713E05B684E
:1030A0001568984763682D1A5A68002D07DC9168E7
:1030B00059601B68002BEAD050689847E7E72368FF
:1030C00010681B69984770BD10B50248FFF7DAFF1A
:1030D00010BDC046C4C1000070B5040000F0C4FDBE
:1030E000050000F0C1FD401BA042FAD370BDFA23D9
:1030F00010B59B005843FFF7EFFF10BD70B50A4CA9
:10310000A568A3682A00002B0AD180225E595205C7
:103110009A1804331660C02BF7D180225205A260A2
:1031200010308000815070BD00ED00E07FB5802040
:103130003F494002CA6F8E240243CA6725220020FD
:1031400020253C4B3C499A60243A0A603B49A40044
:103150000A60186219593A4A114001910199A9432C
:10316000C825019101992D02294319510090354834
:103170000099814204D8C046009901310091F7E7D7
:103180000121002019645964586459645C6C294811
:103190000C42FBD08E218026C825890044582D0280
:1031A00014400394039C34430394039C2C434450E5
:1031B00025248460445822400292029CB443029425
:1031C000029A2A4342500120DC681A490122044233
:1031D000FAD00320086700204A67486710004A6752
:1031E0005C6F144A01210442FAD08E20916780005E
:1031F0001558154C2C4014501558144C2C40145094
:1032000000209164D164D064D164DA6C0A42FCD0AD
:103210002521084A1161012259691142FCD000227E
:103220000B4B1A601A600B4B01321A607FBDC0460F
:103230000480044000800440F0400440F440044016
:10324000FF250000C3090000FFFBFFFFFFFEFFFF9B
:10325000C0800440C8800440704770477047704782
:103260007047002310B5934203D21C585C500433BE
:10327000F9E710BD00231A008B4202D21A50043322
:10328000FAE770470020704710B505F095F910BDBA
:1032900013B501210F4B9A68120B12039A60027842
:1032A0009C6891402143996099680B48014399605B
:1032B00018690849019001980028F9DA083292004B
:1032C000535801938B685B005B088B600198000486
:1032D000000D16BD00C001400000088470B5060056
:1032E000FFF7D6FF04003000FFF7D2FF05003000E3
:1032F000FFF7CEFFAC4202D923002C001D000300D3
:10330000A84200D92B0020009C4200D2180070BDBA
:1033100073B50C00214D060029002000FFF702FEC6
:10332000C0B23070FF2804D135221D491D48FFF777
:10333000DBFC20002900FFF7BBFD80221A4BE405CF
:10334000E40DE418236819499343B9322360FF322E
:103350008858174B034010200193019B8343C820DA
:103360000193019B000203438B508021114A890184
:10337000D36F0B43D367104B1049186805F088FAD8
:103380008023DB051A000138C0B20D4918430860DC
:103390000B681340FCD10A4A136073BD30C20000B1
:1033A000CCC1000017C2000000400440008004406F
:1033B000FF250000048004403001001020A1070018
:1033C00000C0014010B5FFF789FF06F0D7FA0249A7
:1033D00005F0D0FF10BDC0460108803910B50400CB
:1033E000431C04D11E2217491748FFF77DFC174BD9
:1033F0001A68002A06D101321A60154A1549D36F9E
:103400000B43D3670122002C12D0134B9C420FD0E8
:10341000124B9C420CD0124B9C4209D0114B9C4247
:1034200006D0114B9C4203D0104BE1184A424A414E
:103430002000110000F058F90120A404E40EA0407F
:1034400010BDC046CCC2000017C10000680D0010BE
:103450000480044040000100281400002C160000E5
:1034600030180000341A0000381C0000C4E1FFFFCF
:1034700070B505000C0029604B1C11D00800FFF747
:10348000ADFF2414074BA400E318EB60064B686003
:10349000E3182B61054BE3186B61054BE418AC6036
:1034A00070BDC046002200A0802200A0002100A024
:1034B000002000A010B5006800F032F910BDFFFF39
:1034C000036870B504000D00013304D1432209499B
:1034D0000948FFF709FC002D06D0012D09D1A2688B
:1034E000636811680B4303E0A268616813688B434B
:1034F000136070BDCCC2000012C10000F7B50121FD
:103500000D008540134C636A2B4221D0124B86007C
:10351000F058019300281BD023682B4218D1636810
:103520002B4206D0E3692B4203D00C4B1B68984713
:10353000E5612369074F2B4209D03B6A2B4206D035
:10354000064B019A1B680221905998473D626562BB
:10355000F7BDC046004000A0700D00106C0D0010BB
:1035600010B50020FFF7CAFF10BD10B50120FFF70E
:10357000C5FF10BD10B50220FFF7C0FF10BD10B58C
:103580000320FFF7BBFF10BD10B50420FFF7B6FF07
:1035900010BD10B50520FFF7B1FF10BD10B5062016
:1035A000FFF7ACFF10BD10B50720FFF7A7FF10BD58
:1035B000F7B505002748814202DD0120404248E07E
:1035C0002548264C02600020820016590096002EE5
:1035D0003BD11351224C2860E36F224F224E3B43D4
:1035E000E3671F248B0349120C401821A4460400F2
:1035F0009B0F59435E346144A400A15181210124F1
:10360000890071589B000F00210081400F43390051
:103610008127BF00F151A021802609065B18B60161
:1036200099592700019161468F40019940B2B943F1
:1036300099510E4BD158FFF761FD1F222B6800985E
:1036400013409C400A4B1C6003E001300828BBD1AA
:10365000B3E7FEBD131102006C0D0010700D0010D9
:1036600004800440800009000080044014C300006E
:1036700000E100E000210368064A9B0010B5995064
:10368000012281210068044C8240890063589343E1
:10369000635010BD700D00100080044003680120CD
:1036A000984070B50F4C2368034200D16062C54357
:1036B00026680C4B2E402660012909D1002A03D030
:1036C0005A68104358600CE05A6815405D6008E085
:1036D000002A03D01A691043186102E01A691540E4
:1036E0001D6170BD004000A070B504000D00431CBA
:1036F00004D1152207490848FFF7F6FA074BE405FD
:10370000E40DE418072322681D409A431543256001
:1037100070BDC04634C3000017C100000040044023
:1037200070B504000D00431C05D11D220F4910483F
:10373000FFF7DAFA06E081231B01984214D00D4B03
:10374000984211D00C4BE405E40DE4182368042DD5
:1037500004D18022D2001343236005E01822ED003B
:10376000934315401D43256070BDC04634C300001F
:1037700017C10000140A00000040044070B50C1C82
:1037800005000021201C05F049FA002809D1FE217E
:10379000201C890505F056FA002803D0FE24A40554
:1037A00000E0002480232D689B00E85806F0E6F82E
:1037B000211C05F0DFFD05F085FA81239B00E85010
:1037C00070BD8023F7B5812704689B00E258BF00D5
:1037D000E059E15001920D0006F0D0F8061C019866
:1037E00006F0CCF8011C301C05F0FAFB061C280082
:1037F00006F07CF8011C301C05F0BCFD05F062FAF7
:10380000E051F7BDF7B50F00060050493800FFF74B
:1038100089FBC3B20500FF2B02D14D48FFF76EFABA
:103820004C4B01211A78019310000840031E04D06C
:103830000A410B000A4200D081E001242100994096
:10384000019A4548127873600A4301990A70434A05
:1038500099008A5809333260C26F11008022120623
:103860001143C1672000984003003D4A3800526868
:10387000364913433A4A5360FFF71AFB3768394A0F
:103880003B68394913430C223B607B6813437B60E0
:103890007A68364B13407B607B680193344B186821
:1038A00004F0F6FFFE2301381B0140011840019B84
:1038B00018437860E8B207281DD804F0D5FF040A41
:1038C0001016040A1016A023DB00FC500222294B1C
:1038D00010E0A123DB00FC500222274B0AE0A223C8
:1038E000DB00FC500222254B04E0A3230222DB0074
:1038F000FC50234BFA508022C12352019B00FA5006
:103900000123C0225B4292001E49BB500C32B950C9
:10391000043ABB5080231C499B00F950FB58053AE0
:103920009B08FF3ABB5004227B68300093437B60C6
:10393000FFF747FF30000021FFF720FFF7BD1348D6
:10394000FFF7DCF901235B4277E7C0467CC3000048
:10395000E8C30000900D00100480044014C400006F
:10396000008004400100060040420F001FF0FFFFEE
:1039700030010010040500000C05000014050000D3
:103980001C05000001100000204E000002C40000D1
:1039900080210A4AC905D36F80200B430121D367D8
:1039A000074B1A680A431A6000229A601A68024399
:1039B0001A601A688A431A607047C046048004403F
:1039C00000400240024B18680006C00F7047C04616
:1039D00000400240014B98687047C04600400240DA
:1039E00010B58024044B1968A143196098601A68C7
:1039F00022431A6010BDC04600400240F0B5334E6D
:103A000087B0009104003100009801920293FFF703
:103A100089FA2F4D070029000198FFF783FA2D49F5
:103A200003900298FFF77EFA2B4904900C98FFF759
:103A300079FA039905903800FFF754FA05990700C1
:103A40000498FFF74FFA01003800FFF74BFA2060A7
:103A5000431C04D1482221492148FFF745F9236836
:103A6000204A93420FD0204A934219D180201F4907
:103A7000C002CB6F1E4A0343CB6701211D4B196067
:103A8000536803310AE0802018490001CB6F184ABF
:103A90000343CB670121184B196053680B435360F4
:103AA00031000098FFF704FA29000198FFF700FAA7
:103AB00008490298FFF7FCF90C9B013303D0064933
:103AC0000C98FFF7F5F907B0F0BDC04660C50000DF
:103AD0001CC4000058C400009CC50000A0C4000025
:103AE000E6C400000000044000800540048004405B
:103AF000008004409C80044094800440F8B50E008F
:103B00000221140002681D00536807008B435360B4
:103B1000331F0C2B06D9032C04D9652210491148F8
:103B2000FFF7E2F88023E0010340013E1E43A307B4
:103B300034003968DB0F0A689B01120C12041C4325
:103B400014430D220C604B6893436A1E9541022278
:103B5000AD001D434D604B6813434B60F8BDC0463C
:103B6000A0C40000FAC40000F7B5022405000E004E
:103B700002685368A34353601A4B1B6801932100EA
:103B8000019804F085FE05F0B1FE071C300005F039
:103B9000ADFE011C381C05F023FAFC21890505F057
:103BA000A9F806F099FB04F03FFC06F05FFBFF2844
:103BB0000FDC2B680C4A1C61196801380A4002218D
:103BC0001A601A680002104318605A680A435A6063
:103BD00007E0802302345B009C42D0D10348FFF70A
:103BE0008DF8F7BD30010010FF0000FF38C5000060
:103BF00002220368D8681042FCD004229960D96878
:103C00001142FCD098687047104B70B51A68002AB2
:103C10001AD1012580210E4A1D60D36FC9000B43C4
:103C2000D3670C4B0C4C186802230C49636004F0FA
:103C30002FFE0138E0600A4965601320FFF75EFA45
:103C40008022084B12031A6070BDC046940D00100C
:103C500004800440300100100080014040420F0009
:103C6000C930000000E100E0044B10B51B68002BD8
:103C700001D1FFF7C9FF024B986810BD940D0010E9
:103C8000008001400121034B98615A690A435A613F
:103C90007047C046008001400121024A53698B43AE
:103CA00053617047008001400122014B1A60704748
:103CB00000800140704770477047FFFF10B505480E
:103CC000FFF780FB044905F055FB04F0FBFF034BB5
:103CD000187010BD990D001000007F43980D001062
:103CE00010B5FFF7EBFF10BD10B502490248FFF712
:103CF0000FFB10BD5C2E0000990D001010B503F0F5
:103D0000CDF910BD70B50023FF2402250B480C4AE5
:103D1000C15C002906D0D15C0131C9B2FF2906D1AE
:103D2000D55407E0D65C002E04D0FF2E01D1D1542B
:103D300000E0D4540133072BEAD170BDD125001027
:103D40009B0D0010034B185C013843425841C0B230
:103D50007047C0469B0D0010002210B51D4B19780E
:103D60001A701D4A5078002801D001201870D078B0
:103D7000002803D0022418782043187010780028F7
:103D800003D004241878204318709078002803D0BA
:103D900008241878204318701079002803D01024C4
:103DA0001878204318705079002803D02024187800
:103DB000204318709279002A03D040201A780243D9
:103DC0001A701B78054A180008409943044B10707C
:103DD000197010BD9A0D0010D1250010A30D001010
:103DE000A20D0010014B18797047C046D125001074
:103DF000014B18787047C046D1250010014B9878C8
:103E00007047C046D1250010014B58787047C04616
:103E1000D1250010014BD8787047C046D12500103D
:103E20000023094A1380094A1370094A1370094A8A
:103E300013700122084B52421A80084A084B1A603C
:103E40000922084B1A707047AA0D0010A90D001026
:103E5000B00D0010A40D0010A60D0010A4CF00009E
:103E6000AC0D0010A80D001010B50248FFF7D8FFE8
:103E700010BDC046A50D001037B572B60021042252
:103E8000244B802559601961234BED001A608E2266
:103E9000224B92009C582C4380259C509C586D00CE
:103EA0002C439C5001225A671400596719004B6F2C
:103EB0001A4D01222340FAD114002B676A676B6701
:103EC0004B6F164A2340FBD18E245364516CA400DF
:103ED000936013675360155911492940802501915A
:103EE00001992943C825019101992D0229431151B6
:103EF000A02284211206890153500A4953500A49CD
:103F000053500A4B9860001C01688D4640688047FA
:103F100037BDC046004000A010E000E00080044033
:103F2000FF250000042100000821000000ED00E052
:103F300070B505000C0004F035FC611B013104F084
:103F400017FE481970BD10B501000020FFF7F0FF03
:103F500010BD7047F0B5C1B00E0000F085FE00F056
:103F60008FFE8023DB029B1B0400984200D91C00BB
:103F700000F070FE8027134802F08EFA00257F00C3
:103F8000A5421CD280216846490000F047FEFF2868
:103F900004D8631BBB4201D90B4806E0A819694647
:103FA00003F040FF002804D0084802F075FA012011
:103FB00006E001350648FF3502F062FAE0E700202E
:103FC00041B0F0BDF2D50000FED5000019D60000CA
:103FD0006BD60000F7B501260024514B514D1E70E1
:103FE000514B1C80FC23DB002B8000F075FE210070
:103FF000200000F0A1FE300002F096F90094019438
:104000000AF0DFF80421494800F0D2FDA0420FD1A8
:1040100000F02AFE0820404200F008FE0421684615
:1040200000F0FCFD042101A800F0F8FD00F012FEF4
:1040300001273F4E7F423F4C2368B34200D03E4CA5
:104040002368B34200D03D4C2368B34200D03C4CBF
:104050002368B34217D020233A485B422B8002F0FA
:104060001BFA009B002B03D0374B019A9A4240D891
:10407000364802F011FA364802F00EFAFC23DB0053
:104080002B80344820E0344B34482B8002F0F8F980
:104090000A2160682F8002F078FA6368009A9342E0
:1040A00027D3A068FFF7E8FE17E0FFF7B3FE00286C
:1040B00034D1FFF7A9FE0028F7D001990098FFF747
:1040C00049FF002826D0264802F0E6F905E0FFF770
:1040D00043FEFFF787FE002804D1FFF783FE002888
:1040E000F5D01BE0FFF77EFE002817D0FFF734FE67
:1040F000F8E71C4B1C482B8002F0C2F900980A21FB
:104100002F8002F042FAFC231848DB002B8002F0DB
:10411000C3F9CEE7164802F0BFF98CE7F7BDC046F9
:104120004001001036010010CA100010DFD6000058
:104130001EAB07B0F4FF030004FF030004FE0300FE
:1041400004F00300E7D60000FF7F0300FBD6000069
:10415000C7C0000012D70000FF0700002DD70000E5
:1041600037D700001FF8FFFF5DD7000071D70000B0
:1041700053D70000F8B50026012002F0D5F84A4BCD
:10418000FC271E8000F0A8FD484D494B49482B8074
:1041900001F0DCFB0123484C30212370474BFF002A
:1041A0001E70474B60201E702F8002F07BF945483F
:1041B00002F066F93821602002F074F9424802F0FA
:1041C0005FF94021602002F06DF9404802F058F993
:1041D0004821602002F066F93D4802F051F9602163
:1041E000282002F05FF93B4802F04AF9013E3A48C4
:1041F0002E8002F045F939482F8002F041F9022360
:10420000374823702E8003F0BFFE8319DBB22500F0
:104210000324042B00D8040003F0E0FE86B2FFF76D
:104220009BFD7821682002F03DF90A21200002F070
:1042300089F903F0D3FEFA239B00F318984203D9BF
:1042400003F0CCFE013C86B202F0CAFF002808D081
:1042500002F0C6FF041E02D0FFF77EFDF8E7FFF76D
:10426000B9FE02F0B1FF002807D002F0ADFF002830
:1042700002D0FFF771FDF8E7040002F0ABFF002861
:1042800002D1002CCBD106E002F0A4FF002802D01E
:10429000FFF762FDF8E701232B7000F01DFD002001
:1042A00002F042F8F8BDC046CA10001036010010F6
:1042B00000F8FFFF40CC0000400100104101001059
:1042C0003A01001096D700009BD70000A0D700004D
:1042D000A5D70000AAD70000B0D70000B4D70000CF
:1042E000A20F0000F0B5984D1E002B888BB0040083
:1042F000049109935711002E06D00020322300901C
:104300001A00010000F00CFD6A461021525E8E4B2F
:10431000029222B20392032F02DCFC22D20022E09E
:10432000042F1DD120235B422B80002E00D102E1FF
:1043300001F0F2FF0500012001F0F6FF02F0DEFCC3
:10434000049902001439601EC9B20A23C0B202F0F7
:1043500003F97E4802F094F8280001F0E5FF05E03B
:10436000042F01DD7A4A1A80002EE1D1002F02DCF1
:10437000784A754B1A800123774A00930299039873
:1043800000F0E4FC012F02DC724A6F4B1A80A3B2EA
:104390001D000126704C08352DB203932200330016
:1043A00002992800009600F0D1FC6B461B8A22007F
:1043B0000493043B1BB20593009633000599280033
:1043C00000F0C4FC022F02DC624A5F4B1A80012518
:1043D000039E2B00103636B2220002993000009561
:1043E00000F0B4FC2B00220005993000009500F08D
:1043F000ADFC049B0095083B1BB2069322002B00EA
:104400000699300000F0A2FC032F02DC514A4E4B0B
:104410001A800124039D504E18352DB2230032001E
:1044200002992800009400F091FC230032000599C5
:104430002800009400F08AFC23003200069928002E
:10444000009400F083FC049B00940C3B1BB2079388
:10445000320023000799280000F078FC042F02DCCA
:104460003C4A394B1A800124039D3B4E20352DB226
:104470002300320002992800009400F067FC23001A
:10448000320005992800009400F060FC23003200FF
:1044900006992800009400F059FC23003200079987
:1044A0002800009400F052FC049B0094103B1BB2C7
:1044B0000893320023000899280000F047FC052FDC
:1044C00002DC244B204A13800125039C224E283411
:1044D00024B22B00320002992000009500F036FC37
:1044E0002B00320005992000009500F02FFC2B00D6
:1044F000320006992000009500F028FC2B003200C5
:1045000007992000009500F021FC2B00320008994B
:104510002000009500F01AFC04992B001439320099
:1045200009B20095200000F011FC6A46064B928CFF
:104530001A800BB0F0BD0123074A0093029903983B
:1045400000F004FC23E7C0463601001043D8000009
:1045500000F8FFFF8A520000DFDD0000F0B5012007
:1045600087B001F0E1FE00229B4B1A7002F0C6FBFF
:10457000FA20000103F008FD040005F0FFF9974B55
:1045800097491C80051C04F05DFB002801D0FF202A
:1045900000E07F2002F09EFB0024200005F0A6F939
:1045A000011C281C04F058FB002805D020B201345F
:1045B00002F04AFBE4B2F0E78A4B18708A4803F035
:1045C000E3FC431EDBB20400092B00D9874C03F047
:1045D00005FD83B204930123FC271D000393FF0014
:1045E000834B1B78002B03D0002D01D0002C22D14F
:1045F00002F084FB0400FA20000103F0C5FC060071
:10460000200005F0BBF9051C300005F06FF9011C16
:10461000281C04F0FDFA002804D1FA20E1B20001C0
:1046200003F0BBFC20B202F00FFB0021080000F0F9
:1046300083FB07B0F0BD03F0D1FCFA22049B92008B
:104640009B18984208D903F0C9FC83B20493694BC4
:10465000E3185A1E9341E41A012D03D0022D00D114
:1046600098E0BDE7039B644D002B32D0012600F09B
:1046700033FB7642102120202E8000F05DFB5F4846
:1046800001F0FEFE9921282000F056FB5C4801F065
:10469000F7FE5C482F8001F0F3FE5B482E8001F0AE
:1046A000EFFE582100202F8000F046FB574801F014
:1046B000F3FE574E300001F0EFFE300001F0ECFE4B
:1046C000300001F0E9FE300001F0E6FE514801F053
:1046D000E3FE9921302000F02FFB4F4E3378032B5F
:1046E00002D801235B4200E04C4B2B8002234C4A52
:1046F00000933021013BA42000F028FB3621182034
:1047000000F01AFB474801F0BBFE1820422100F0E0
:1047100013FB33784448032B00D8444801F0B0FE23
:104720000223434A2F8060210093A420013B00F024
:104730000DFB6621182000F0FFFA3E4801F0A0FEB4
:104740007221182000F0F8FA02F0D8FA7F2802DD72
:10475000324B2B8000E02F802F4B274D1A78042AF4
:1047600002D1243A2A8003E0072A01D1013A1A70C3
:1047700018780A2101F0E6FE2F4801F081FE2F8013
:1047800002F0BCFA0023020077217020FFF7AAFD97
:10479000022525E7FFF7E0FAFFF7B4FA02F014FD6F
:1047A0000590002801D000251AE72800FFF7CAFA73
:1047B000061E05D002F060FA059B0C4C039308E03E
:1047C000FFF7C0FA002800D10AE7084C02F06CFAA3
:1047D0000396012504E7C04641010010FA230010AA
:1047E0000000FE42BB0D0010A30F0000FFFF000001
:1047F000B90D00100100FFFF36010010BFD7000007
:10480000D8D60000D3D70000D5D70000E0D70000ED
:10481000FBD7000016D800001024001000F8FFFF9E
:104820009BDD000093D6000031D800003BD800008B
:10483000BDDD000046D8000043D80000012210B5BD
:10484000084B00201A7001F06FFD074801F07EF858
:1048500003F0B4FB03F0D8FB02F020FC03F0C4FB30
:1048600010BDC046B90D0010D8C50000014B187826
:104870007047C046B90D0010F7B50024FC2725008D
:104880005826FF00292D48D803F0A8FB234B1A68AF
:104890009042F7D91E301860012D0BD0002D02D0A8
:1048A000022D22D035E01E4B28001D8000F022FA98
:1048B00001252EE0FC21E2B2C900002001F0A0FE9B
:1048C000184B194A18806E2351781078490840080F
:1048D0001C34181A711A00952B00A4B200F036FA95
:1048E000FE2C16D90024022513E00E4B0E4A1F8021
:1048F0006E23107851784008181A49086D3B0093D0
:10490000711A00F023FA3F34084BA4B29C4200D93C
:10491000FF25FFF767FA0028B4D0F7BDAC500010B0
:10492000CA1000103601001091D80000FF030000EB
:1049300010B57F2002F0CEF97F22034B1A80034B83
:1049400080321A7010BDC046FA230010B80D001056
:10495000F7B5FFF773FF32220127FF24314B1A709E
:10496000314B1F60314B1C70FFF7E2FFFFF7A2F9DC
:1049700020000024FFF79FF9FFF7C0F9FFF7C2F905
:10498000FFF7AEF900F0D3F9FFF776FF380001F03A
:10499000CBFC274E348000F09FF9264D280000F014
:1049A000D5FF380001F0C0FCFC22234BD2001A8056
:1049B000348000F091F9280000F0C8FF1F4E204D10
:1049C00034702F70FFF7D6FBFFF7C8FD00F098FB9F
:1049D00058232200009321001633200000F0E6FB4C
:1049E000184B1C79002C02D0FFF78CF9F8E7200057
:1049F00001F09AFC0123144A14481370144A3370CE
:104A00002B70137000F0A2FF01F07EFEFFF756F945
:104A10000520FFF797F9002802D0200002F014F9D2
:104A2000F7BDC046BA0D0010C00D0010B80D001043
:104A3000CA10001040CC00003601001041010010E7
:104A40003A0100109B0D001040010010DCC800006E
:104A50003C010010F0B51F4B85B01A780393002A73
:104A600036D000240B2A02D80C239C1AE4B201276A
:104A7000194B002055251F7000F0B6FB0322174E7E
:104A8000A4B231780020CB1C691A6118009251320F
:104A900000F01FFF380000F0A7FB03223178002050
:104AA000CB1C691A61180092513200F0ACFE04224E
:104AB0000B4B1A803378E41A0A4B57341C800A4B8C
:104AC000186801F0DDFC039B039A1B78013B13700F
:104AD00005B0F0BDCC0D0010400100103D0E0010DF
:104AE0006010001054100010C40D0010F0B587B015
:104AF00005930CAB039104921F78060001F0BEFDF4
:104B000003F06CFA194B1A491B780A68194C121AEF
:104B10009A4212D92268002A0FD0174AC3180B6094
:104B2000136801250133136000232360FFF7C4F8E5
:104B3000FFF7E8F8FFF7C2F814E000252368AB425E
:104B400010D101F027FF01F085FF02F077F8FFF7A1
:104B500081FF059B0097049A0399300000F026FB23
:104B600001232360280007B0F0BDC046BA0D001035
:104B7000C80D0010C00D0010B40D001010B5024893
:104B800000F0F6FE10BDC046BC0D001010B5064981
:104B900003F056FE0023984204D1044B1B78083BD7
:104BA000581E8341180010BD180E0010340100106B
:104BB00070B50F4D06002B780C00102B0BD0300079
:104BC0002C70FDF77BFF041E0DD13100094803F066
:104BD00041FE20000AE0084809F032FA03000120F3
:104BE000002BECD002E0082301202B7070BDC046E2
:104BF00034010010180E0010D00D00101022054BCB
:104C00001A7000231900044A995401330F2BFBD169
:104C10007047C04634010010180E001013B56B46E3
:104C20009C1D2200FDF77AFF208816BD10B5074BAA
:104C3000002804DADA6941428A4200D25042DB6934
:104C4000C018FDF7CDFF024B187010BDD00D00103D
:104C5000270E001010B50020FDF7C2FF014B1870A1
:104C600010BDC046270E0010034B10B5186AFDF7A3
:104C7000B7FF024B187010BDD00D0010270E0010AA
:104C8000014BD8697047C046D00D00100123812226
:104C900013B5074C5B4200935201064B06492000B6
:104CA000FEF796F9054A06492000FEF7EBFA13BD18
:104CB000000E0010180C000024120000000100106B
:104CC000C12F0000031C042800D90423014A1370DB
:104CD0007047C046440E001010B5002002F050FB93
:104CE0000023024A1380024A138010BD6010001096
:104CF0005410001010B502F043FB10BD064B10B568
:104D00001B880F2B04D8054C5B001B5B934201D022
:104D100002F0A2FC10BDC04646010010480E001073
:104D200013B504AC2488009402F0C6FC13BD10B582
:104D300002F086FB10BDFFFF024B1880024B19806A
:104D40007047C0466010001054100010F0B58FB0CE
:104D50000B9114A909780A9008911178059151785E
:104D6000023209910092012B76D1059B0733DB10AB
:104D70000C936B461B8D07930493002303936B46A0
:104D80000C21595E059B8B4200DCF0E00723CA171B
:104D90001A405218D21053B20A93764B0B4004D5E6
:104DA0000822013B52421343013380221BB21A41B5
:104DB0006B469B8D0D9206930293002301936B46E5
:104DC00004229B5E099A93423EDA0C9A0A99534355
:104DD000009A5218D35C0D9A1A422DD0089B664C4B
:104DE000012B09D1069B019903985918079B22882A
:104DF000181809B200B21DE06B461027DF5F6B4642
:104E000008269E5F228831003800FFF777FF049B59
:104E100031005D1C2DB222882800FFF76FFF029B36
:104E200022885E1C36B231003800FFF767FF310080
:104E300028002288FFF762FF019B01330193029B48
:104E400002339BB20293BAE7039B01330393049BA3
:104E500002339BB2049392E7042B00D087E0002337
:104E6000099A934200DB82E09BB202936B469B8DD2
:104E700000250793029B079A5B00D3189BB21AB2D6
:104E800001331BB204936B461B8D0392069301936F
:104E9000059BAB4267DD009B384A1B7812681B11EB
:104EA0005B009E5A089B022B19D1069B6C001C19B3
:104EB000A4B227B2013432000399380024B2FFF7BC
:104EC0001DFF320003992000FFF718FF32000499FC
:104ED0002000FFF713FF32000499380007E0029B1F
:104EE000079A99186B4632000420185E09B2FFF742
:104EF00005FF0F22009B1B781340204A5B001268BD
:104F00009E5A089B022B1AD1069B6C001C19A4B256
:104F1000A71C3FB2033432000399380024B2FFF7D4
:104F2000EDFE320003992000FFF7E8FE32000499FD
:104F30002000FFF7E3FE32000499380007E0029BEF
:104F4000079A99183200019B09B2581C00B2FFF76A
:104F5000D5FE009B023501330093019B2DB2023335
:104F60009BB2019394E7029B01331BB278E70FB029
:104F7000F0BDC04607000080360100105010001040
:104F8000F0B51300574A8DB014680F006278110015
:104F90000192F72208390A40511E8A410199C9102D
:104FA00052180892089922784A43511C4B431A0020
:104FB000A2181279053352B2099282B20B9206926C
:104FC0000022E31805926A46127D099952B2914275
:104FD00000DC7CE008991A78022903D0013307939A
:104FE00093B204E0991C5B7807911B0213430024E1
:104FF0000293059B0B9A5B00D3189BB21AB2013344
:105000001BB203920493019BA34257DD0122029B32
:10501000134217D0344B1B78022B07D16500ED19D2
:10502000ADB2324E2BB20A9332881AE06946304B49
:1050300018254D5F1A782D4B002A01D01A882BE0D5
:105040001A8830E02B4E2C4B32881B8893422FD08D
:10505000254B1B78022B18D16500ED19ADB22BB290
:105060000A93190003980135FFF748FE2DB23288E4
:105070000A990498FFF742FE328829000398FFF747
:105080003DFE32882900049810E06946184B182527
:105090004D5F1B78002B06D0019B2900581EC019BC
:1050A000031B18B202E02800E11909B2FFF726FE3F
:1050B000029B01345B08029364B2A4E7059B0133B1
:1050C0000593069B01339BB20693079B7BE7002069
:1050D0000A4B1856099BC018034B1B7858430DB058
:1050E000F0BDC0465C1000104001001036010010F9
:1050F000C8100010CA100010460100104101001035
:10510000F8B52249224F09783B88224CDAB2224E68
:10511000224D012903D1FE31002B2FD129E0022994
:1051200007D103231A401100930019430A011143C8
:1051300024E003291DD102391940194A00D0FF216A
:10514000206803F04CFA02233988154A1940236875
:105150009818002900D0FF2103F041FA0423398870
:10516000206819400F4B0E4AC018002908D0FF21B3
:1051700006E00F210B4011011943C9B20A4A206809
:1051800003F02DFA002333802B80F8BD3B01001083
:1051900058100010400E0010601000105410001045
:1051A000BA040000740900001F13000010B50028A5
:1051B00005D1064B1968064B186802F0E1FA054B59
:1051C0001B78002B01D1FFF79BFF10BD5010001082
:1051D000400E00104C10001010B5024801F0FAF912
:1051E00010BDC046C2D500000F231840014B1880E7
:1051F0007047C0463E0100100F23034A184010803C
:10520000024A0B40138070473E01001058100010F6
:10521000114B30B51B8893421DD0104B84B21B78C4
:10522000A34218D90E4D89B22D788D4213D95B1047
:105230004B43401018180B4B80B219680F23081805
:105240000178E40702D599430A4303E00B401201B9
:105250001A43D2B2027030BD460100104401001062
:1052600048010010400E0010F0B51300274A87B027
:105270000490106805914778F722390008390A40F0
:10528000511E8A41F91052180292029902784A433B
:10529000511C4B431A0082181279053352B2039203
:1052A0006A46158AC318049A0399AA1A52B29142FF
:1052B00024DD029A1C78022A03D001330193A4B2A0
:1052C00004E09A1C5B7801921B021C430026B74243
:1052D00010DB059B28B2F11801231C4201D00C4BB6
:1052E00000E00C4B1A7809B20136FFF791FF640811
:1052F00076B2ECE70135ADB2019BD4E70020064B56
:105300001856039BC01807B0F0BDC0465C100010D3
:105310003E010010581000104101001010B5114B53
:1053200084B21B78A3421CD90F4A89B212788A42F0
:1053300017D95B104B43401018180C4B80B21968FA
:105340000F22081801780A4BE40704D591431C7812
:105350000B00234304E01B880A401B011A43D3B20D
:10536000037010BD4401001048010010400E0010F1
:105370003E01001070B50F4B15001B788AB2060075
:10538000934202D8AAB2934212D90B4B1A78B3B205
:105390009A420DD9A94202DD0B0029001D000C0024
:1053A000A54205DB21B23000FFF7B8FF0134F7E773
:1053B00070BDC046480100104401001070B50F4B8D
:1053C00016001B7882B20D00934202D88AB2934233
:1053D00012D90B4B1A78B3B29A420DD9A84202DD0A
:1053E000030028001D000400A54205DB20B23100A7
:1053F000FFF794FF0134F7E770BDC0464401001089
:105400004801001010B5002A04DA92B25118524235
:1054100009B212B28A1812B2FFF7ACFF10BD10B574
:105420000B00002A04DA92B21018524200B212B2F3
:105430008218013A11B21A00FFF7C0FF10BDF8B58B
:10544000060014000F00CB181DB234192A0024B234
:10545000FFF790FF2A0039002000FFF78BFF3A008A
:1054600030002100FFF7AAFF2A0030002100FFF7DB
:10547000A5FFF8BDF8B58218CB1805000C0012B2D4
:105480001BB2002801DA002A2DDB174909788D426A
:1054900001DB914227DD002C01DA002B23DB1349CD
:1054A00009788C4201DB99421DDD954202DC110036
:1054B0002A000D009C4202DC190023000C00161C7F
:1054C000002A00DA002636B2191C002B00DA00216F
:1054D0000FB2AE4207DA3000220039000136FFF782
:1054E00049FF36B2F5E7F8BD44010010480100104D
:1054F000F0B5030085B0002879D03E4A1478A04268
:1055000001DB631E1BB23C4A1078042807D13B4ADA
:1055100011785943CA0F5118491089B20AE002287C
:1055200065D10321354A12785A43D51729408A1884
:10553000921091B2324A15880195324D2D8815800E
:105540002E4A002B28DD1278E31AD508684300257F
:105550002E0002900393039B9D4216DA891B89B2A9
:1055600033008C466146981B80B207000298591898
:1055700089B2874205DA244F581C795CF95483B20A
:10558000F0E70135ADB21E00E5E7204923B2002067
:10559000095E12B2002024E01278A4B25043C01079
:1055A000029000209DB20394039CAC4216D9401A8D
:1055B00080B20C0084466046661AB6B23700029E7E
:1055C000001980B2B74205DA0F4F661C385C3855B7
:1055D000B4B2F0E70135ADB22100E5E700210800E3
:1055E00012B2FFF747FF6A46054B92881A8005B052
:1055F000F0BDC046480100103B01001044010010FE
:105600003E01001058100010CF1000105410001070
:10561000F0B587B004936B46012400921B8802907A
:10562000E21AA3405B4212B21BB2039101920593AE
:10563000631E009A1BB29A4267DD019B002B0CDBB4
:105640001300013B1BB20093059B02339BB21AB2BD
:105650000592019A9B181BB20193019A63000133D2
:105660009B1804221BB20193049B13420FD06B467C
:105670001F899D891E883819A91909B200B22D19F0
:10568000BE19FFF74BFE29B230B2FFF747FE0222E8
:10569000049B13420FD06B461F899D891E88E01919
:1056A000A91B09B200B2FFF739FEBE19291B09B2C6
:1056B00030B2FFF733FE049B1B070FD56B461D89E5
:1056C0001F889E89E81BA11909B200B2FFF726FEC8
:1056D000BE19281B31B200B2FFF720FE049BDB0786
:1056E00002D40134A4B2A3E76B461D891F889E89AA
:1056F000E81B311B09B200B2FFF710FEF61B281B96
:1057000031B200B2FFF70AFEEBE707B0F0BDF0B52B
:105710008BB01600089393B201220790D01A9340E1
:105720005B421BB206938BB20493013B9BB2029384
:1057300010AB1B8800B2059302339BB20193002388
:10574000009003930992039BB3425ADA009B002B0B
:105750000ADB069B013E02339BB21AB20692009A04
:1057600036B29B181BB20093039C009A0134A4B27A
:1057700023B20393630001339B181BB20093099A71
:10578000089B134217D06B46B5B29F8B059B6A00EE
:105790009A18049B3819591B12B209B200B2FFF7CC
:1057A00031FE6B4604229A5E6B467D190821595ED4
:1057B00028B2FFF727FE0222089B134208D1029B62
:1057C000013B9BB20293019B02339BB20193BAE768
:1057D0006B46B7B29D8B059B7A009A18049B281BD9
:1057E000D91B12B209B200B2FFF70CFE6B460422BD
:1057F0009A5E6B46ED1B0821595E28B2FFF702FE48
:10580000DDE70BB0F0BDF0B587B01F000CAB002496
:105810001C5F01900E00012C03DC3B00FFF70FFE24
:1058200055E06B469B88A1B202935B181BB20093B4
:1058300093B203934B009BB20493049A039B3100F1
:105840009D1A2DB22A000098BFB2FFF7E8FDB6B24C
:105850007B1EF3189BB205936B462A001421595EF8
:105860000098FFF7DCFDA3B29E19049B36B2FF1A25
:105870003FB231003A000198FFF7C4FD039B3100AD
:105880005D1E029B3A005D19ADB228B2FFF7BAFD6A
:105890003100012322000098FFF7BAFEA3B2ED1AEF
:1058A0002DB23100022322002800FFF7B1FE059B34
:1058B000A2B29E1A36B20423220031002800FFF75C
:1058C000A7FE0823220031000098FFF7A1FE07B0D1
:1058D000F0BDF0B587B00C000CA900268E5F012E3C
:1058E00003DC2100FFF7C6FD2DE0B7B281B292B212
:1058F0007D0004920291AAB2C919059209B20391DE
:10590000049A0599013B9DB2521A2BB2210012B2A2
:105910000398FFF7AFFD059B3C19ED1A049B24B2D9
:10592000581E029B2DB21818C01B00B20123320072
:1059300021000095FFF7EBFE0095022332002100C5
:105940000398FFF7E4FE07B0F0BDFFFF054B064AE2
:1059500018600378013313704378044A01331370DD
:105960007047C0465C100010561000103D0E00102D
:10597000124A134B10B504001A60FFF72DFC0122E8
:10598000104B11481A70114BDB321A80104B2C3A15
:105990001A80FFF7DBFF11220E4B04211A8000232F
:1059A0000D4A200013800D4A11700D4A13600D4AF4
:1059B000136093611363936410BDC046CF10001051
:1059C000400E0010C4100010D8C50000460E001094
:1059D000621000104601001058100010440E001014
:1059E0004810001064100010F0B58FB000935B42B7
:1059F00004000D001700994200DAE4E2D44B1A7853
:105A0000914200DDDFE27B42984200DADBE2D14BDB
:105A10001B78984200DDD6E2CF490978012936D8B3
:105A20000026FB1DDB10029331B2B94200DBCAE253
:105A30000723CA171A405218D3100393C74B0B40C1
:105A400004D50822013B52421343013380221BB28A
:105A50001A410023049201936B4604229B5E009A34
:105A6000934212DA029A03995343149A5218D35C60
:105A7000049A1A4206D0019BA019E91809B200B293
:105A8000FFF74CFC019B0133E5E70136CCE7022927
:105A900000D0BCE0B24B00229A5E002A6EDDB14B12
:105AA000061C00215B5E81B20191984200DA1E1C47
:105AB000A1B2761AAC49E4190020095E36B2CB18BF
:105AC000A34200DD230001995B1A1BB20393A74B8D
:105AD00000215B5EA9B20291291C9D4200DA191CCB
