:1000000000800010FD0000009B2F00009D2F0000CD
:1000100000000000000000000000000000000000E0
:100020000000000000000000000000009F2F000002
:100030000000000000000000A12F00001586000055
:10004000992F0000992F0000992F0000992F000090
:10005000992F0000992F0000992F0000992F000080
:10006000992F0000992F0000992F0000992F000070
:10007000992F0000992F0000992F0000992F000060
:10008000992F0000992F00000D820000992F000089
:10009000992F0000992F0000992F0000992F000040
:1000A000992F0000992F0000992F0000992F000030
:1000B000992F0000992F0000992F000000000000E8
:1000C0008CE5000000010010A00000008CE500009D
:1000D00000000020000000008CE50000004000202F
:1000E00000000000A0010010942C0000000000207F
:1000F00000000000004000200000000010B5104C7F
:10010000104B9C4206D2A2686168206802F049FF49
:100110000C34F5E70C4B9C4205D26168206802F074
:1001200049FF0834F6E702F0A1FE084B002B02D08D
:1001300000E000BF03E008F085FE02F0C3F8FEE730
:10014000C0000000E4000000FC000000000000000F
:1001500010B5064C2378002B07D1054B002B02D09D
:10016000044800E000BF0123237010BDA00100106F
:10017000000000008CE50000084B10B5002B03D0F8
:100180000749084800E000BF07480368002B00D17A
:1001900010BD064B002BFBD09847F9E7000000008C
:1001A000A40100108CE50000A00100100000000078
:1001B0000020704708207047802070470520704756
:1001C00005207047642070476420704700B5427D69
:1001D000030020200E2A3BD8100008F0B9FF0808C1
:1001E000082F381F311F131D082A38333600DB68EB
:1001F0000820DA1D0E2A2BD9DA179818504010283B
:1002000026DD22E0DB680820DA1D0E2A20D9DA1765
:100210009818504018281BDD182019E0DB680820CA
:10022000DA1D0E2A14D9DA179818504020280FDD4D
:1002300006E016201856C000302809DD302007E0FF
:10024000202005E08020400002E0102000E0602037
:1002500000BDFFFF10B5427D01000E2A09D8012321
:100260009340094A05201A400DD1084C1000234242
:1002700009D1CA681021D317D2185A400023D00FD1
:1002800091425841400010BD404200001838000023
:1002900080207047437D0520023BDBB20B2B01D849
:1002A000014AD0567047C046B4C30000437D1E20AB
:1002B000033BDBB20B2B01D8014AD0567047C04636
:1002C000C0C3000010B5427D0300092A02D00020FF
:1002D0000E2A03D11A681800D269904710BD302049
:1002E000704748207047082070470330C37F0A20BA
:1002F000002B00D11E3070470330C07F4042704752
:1003000000207047437D3020002B00D0183070470C
:10031000437D4020002B00D0103070471723C35678
:100320000420002B00DC0630704700207047C07DA1
:1003300040B2431E18436423C0171843704700207F
:100340007047202070473020704730207047F8B544
:100350000600081F30211700002408F08DFF3378B5
:100360000500A04212DB984210DA381F302108F055
:1003700083FFA0420ADB7378984207DA82B2A9B2FF
:10038000300006F02BF8441EA041C4B22000F8BD96
:1003900010B50400407D03380B281BD808F0D8FEA8
:1003A000181F081F061A1A1A1F061A06082017E037
:1003B000236820005B68984703000820112B0FDD9D
:1003C000236820005B689847C30F1818401007E0A7
:1003D000182005E0236820005B68984700E01020A3
:1003E00010BDF0B5170085B01D000AAB00229B5E62
:1003F00004000293DB191A0000680E000193FFF756
:10040000A6FF002801D0012040E0AB19019A190095
:1004100020680393FFF79BFF0028F4D13A00A91945
:100420002068FFF794FF0028EDD13A0031002068E2
:10043000FFF78DFF0028E6D1302D04DC029B002061
:10044000302B23DD10E06D10AD193A002900206833
:10045000FFF77DFF0028D6D1019A29002068FFF719
:1004600076FF0028EAD0CEE7029B31005B10DF194F
:100470003A002068FFF76BFF0028C4D13A000399C7
:100480002068FFF764FF431E9841C0B205B0F0BD7D
:10049000F0B5444B8DB004000621186808F0ECFE5E
:1004A000414B05900621186808F0E6FE2368050018
:1004B0001A785B7806920793030009330A930A9B24
:1004C0009D426CD0ABB204930623AAB253439BB2B5
:1004D0000993059B059F0F330B930B9B9F423CD0C9
:1004E000002F38DB069B9F4235DA002D33DB079B5C
:1004F0009D4230DABBB2049A19002068089305F0D7
:100500006DFF002827D020684378013B9D420BDA1D
:10051000002D09D0A368B9B20393049B5A1E92B26E
:1005200005F05CFF00281AD063680393002602964A
:100530001D4B08981968099B039A591A06235843BA
:10054000184B09B21B68C01A029B801B009300B2B3
:10055000002305F0C5FE0137BFE70135AFE7E368CB
:10056000002BE3D0BBB2591C89B2049A206805F075
:1005700035FF002802D00026029604E0E368022638
:10058000039301230293BBB2591E89B2049A2068D7
:1005900005F024FF0028CBD1E3680393C8E70DB032
:1005A000F0BDC046C0010010C4010010F0B50368E2
:1005B000040085B0DB689847236964251818236810
:1005C00020615B692000E6689847281A290070437B
:1005D00008F052FE2368E0609B6920002669984776
:1005E000281A2900704308F047FE236820611B6920
:1005F0002000E568984740422368854204DA1B6979
:100600002000984740420BE01B692000E5689847AE
:10061000854204DD236820001B69984700E0E068FC
:100620002368E0601B6920002569984740422368E1
:10063000854204DA1B692000984740420BE01B69A1
:10064000200025699847854204DD236820001B6946
:10065000984700E020696368E26820619B18636046
:1006600023682000DB699847002801DA002544E070
:10067000E2682000531E13430122DB171A430423B0
:10068000E65E0823E75E236802925B68984723686A
:1006900005009B68200098472BB2464D00B20090A1
:1006A0003A0031002800FFF79CFE03950028DDD0BA
:1006B0006368029A20009D1A0823E75E236865603C
:1006C0005B689847236806009B682000984700B243
:1006D000009033B229B23A000398FFF782FE002857
:1006E000E6D123682000DB69E56898476421684308
:1006F000494208F0C1FD0125E060A368226920009D
:100700009B18A3602368DB699847002845DB2269B2
:100710002000531E13430122DB171A4302920422C6
:10072000A35E03930823E75E23685B68984723680A
:1007300006009B682000984733B21E4E00B200901E
:100740003A0003993000FFF74CFE0396002824D0AE
:10075000A368029A20009D1A0423E75E2368A5601F
:100760005B689847236806009B682000984700B2A2
:10077000009033B22AB239000398FFF732FE002806
:10078000E6D1236820001B6A2569984764216843E5
:10079000494208F071FD01252061E368002B01DD6D
:1007A000012302E0002B01D0FF232375280005B0B0
:1007B000F0BDC046A8050010F7B507244668214FD4
:1007C000F31723403A689B19DB109B1A01930368C7
:1007D00005005B6898473618F01720403B6886197B
:1007E000F610019AF61AD64201D5012029E06A686E
:1007F000D11721408A18D210D31A542BF5DCAE68D9
:10080000114FF31723403A689B19DB109B1A019391
:100810002B6828009B6898473618F01720403B68E3
:100820008619F610019AF61AD642DED4AA6801207B
:10083000D1170C40A218D210D31A302B00DC0020A4
:10084000C0B2FEBDC0010010C4010010F0B587B0F9
:1008500001910500002418211F000CAB1B780392A6
:100860000293874B0A00162062439A18049210568E
:100870001A00002800D0FCE06946049B097A5975EB
:10088000029B1921033BDBB20B2B01D87D49C956D2
:1008900018236343D3189975029B052B03D008D303
:1008A000073B012B05D80221774B1960774B0139A3
:1008B0001960029B981E0C2800D97DE0704918230E
:1008C00008F046FC2857077A5E7A0E477A3B3F7A53
:1008D000640063437A01CB18DA606A68126953E0F6
:1008E0001826082066430921404203F0D7F9644BDB
:1008F00011219E1930237B431818F06010204042CC
:1009000003F0CCF914226B6830619A56D968520111
:100910008A1ADA601826082066430921404203F04B
:10092000BDF9574B0B219E1930237B431818F060FB
:100930000A20404203F0B2F94FE063431A22CB1879
:1009400002E032226343CB187A43DA6000221A6154
:1009500050E068686343C268CB18D10F8A18521000
:1009600079015218DA600269D10F8A185210203AC0
:100970000AE06343D2183B01D360002313613CE0DB
:1009800000226343CB18DA601A6139E01821102085
:1009900003F084F918210B006343394EF6187B42AB
:1009A00058436B68F0601B691020059303F076F9DB
:1009B000059B1B1A336123E00820182609214042B9
:1009C00003F06CF966432E4B0B219E19BB011818DE
:1009D000F060002003F062F90538029B3061981E38
:1009E0000A280DD808F0B4FB06090C0C0C0C0C0CF2
:1009F0000C060600039E203604E0039E103610E02D
:100A0000039E1836029803380B280ED808F0A0FB76
:100A100009090D120D0D0D0D0D0D0D06019B103B5D
:100A20000193019A7B01D31A03E02E237B43019AA1
:100A3000D3180193002F06DD686803685B68984748
:100A4000019B181808E0182363430D4A0498D358F3
:100A50005B689847019B181A18235C43084B1F19C1
:100A60006B68DB68BE60DA0FD3185B10181878600B
:100A700003E00134142C00D0F4E607B0F0BDC0460A
:100A8000C801001085C40000DC050010A40500109A
:100A900013B50278040005230C2A01D83B4B9B5C5C
:100AA0006370142361682000CB5600928A684968FD
:100AB000FFF7CCFE2278022A26D114236168200099
:100AC000CB5600928A684968FFF7C0FE142361681C
:100AD0002278CB5600928A6820004968FFF7B6FE5C
:100AE000142361682278CB5600928A6820004968F6
:100AF000FFF7ACFE142361682278CB5600928A6817
:100B000020004968FFF7A2FE22780A2A09D114239F
:100B100061682000CB5600928A685B424968FFF703
:100B200095FE2278072A0ED801239340862213428D
:100B300009D014236168783ACB5600928A68200065
:100B40004968FFF783FE20780C281ED808F000FBC8
:100B500013131007190A1D0A0A0D130D16000021A0
:100B60000B4810E000210B480DE000210A480AE084
:100B700000210A4807E006F0E1F806E000210848F5
:100B800001E00021074805F005FF13BDBCC20000CD
:100B900084C3000000C00000B6C200005AC00000BC
:100BA000AAC300000AC30000F8B592270500304C24
:100BB000BF001623E356002B14D02000FFF7F6FCED
:100BC000A37D013BA375637D032B01D1012819D0BF
:100BD0001626A657002E05D1092B03D801229A40CC
:100BE0003A4220D1234B1834A342E2D16B78002B38
:100BF00002D0013B6B7039E02B78012B05D0082B1C
:100C000008D102E00022A275E2E70121042002F0EF
:100C100043FF02E0042002F035FF002826D0280020
:100C2000FFF736FF22E00D236375236820005B6821
:100C30009847C30F181863684010181A236860603B
:100C40009B6820009847C30F1818A3684010181A13
:100C500008230A22A375084BA0601A60074B083AC4
:100C6000310007481A6005F095FEBBE7F8BDC046A5
:100C7000C8010010A8030010DC050010A405001036
:100C80002EC40000F0B50726426807005368944D53
:100C9000D8173040C3182968DB10581A9368914957
:100CA000DC1789B0093826400290F3180868DB1079
:100CB0001C1A1423D35638785A1E1A43D20F0392A3
:100CC000049505910C2876D808F042FA182C355373
:100CD000071C7520434F18474B007A780025082AD7
:100CE00007D85343DA0FD318029A5B10D3187E4DFE
:100CF0000293023C2E1E60D000263DE00334002605
:100D00007A4D39E002340026794D35E079780234A5
:100D10000022042900D91A00029B764E9B1A0293E6
:100D2000754D29E07A7802345343029A734ED31AF0
:100D30000293734D20E07A78033453430322D9178A
:100D40000A40D318029A9B10D31A0293694E6D4D34
:100D500012E003346C4E6D4D0EE0023400266C4DF3
:100D60000AE0023400266B4D06E004346A4E6B4DF7
:100D700002E000266A4D013423B206936B46082236
:100D80009B5E06990793039B2A0000930798002314
:100D900005F0A6FA002E10D0002004F0ADF9039B58
:100DA0000798009332000023069905F099FA012074
:100DB00004F0A2F901E0002635003B780A2B23D18C
:100DC000002D00D187E06B460820185E0123039AAE
:100DD00021B2534000932A00002305F081FA002E2F
:100DE00012D0002004F088F96B4601250820185E17
:100DF000039B21B201332B4000933200002305F006
:100E00006FFA280004F078F93B780C2B24D10020ED
:100E100004F072F97878052108F0A4F90622C0B22E
:100E2000121A07207C68059BA5681B68E91701401A
:100E30004919C910C91A63680431DC172040C01869
:100E4000049BC0101B6809B2C01A00B2029304F0E0
:100E500058FC012004F050F93B780B2B01D0062BF5
:100E60003BD1142079687A7808568B684C68002842
:100E700017DD0421072092088A1AD9170140CB18E0
:100E80000599DB100968591AE3171840049B0019EB
:100E90001B68C010C01A0431063009B200B2022328
:100EA00016E00720D9170140CB180599DB10096817
:100EB0009208591AE3171840049B00191C68C010C7
:100EC000043A001B801802230422043109B200B244
:100ED00004F010FD01E0002E83D109B0F0BDC04642
:100EE000C0010010C4010010EBBF000059C3000096
:100EF00058C40000CCC30000DDBF000038C40000AF
:100F000066C40000C9C2000075C3000098C3000099
:100F100048C0000064C3000050C600004BC300007E
:100F200074C400000122C31C10B5DA7720235B4291
:100F300003610023094A49011370094BC1601B7CFE
:100F400008499B00406A5C58A04205D95850064B9E
:100F5000064919602023137010BDC046BC01001063
:100F6000A8050010BC050010D405001091C40000B5
:100F7000F0B5C31C0400D87F85B0002800D097E0EE
:100F8000012102F089FD002804D0FF232375E368C6
:100F9000103BE3600121022002F07EFD002804D016
:100FA00001232375E3681033E3600A21012002F076
:100FB00073FD002805D0032002F088FD282800D901
:100FC00082E04A4D2B685A7830235343A2689A42F4
:100FD00004DD142120006156FFF7A4FF0422A35E64
:100FE00020000393A3685E1C236836B25B689847B1
:100FF000236807009B682000984700B200903BB22E
:10100000320003992800FFF7ECF9002802D00022F3
:10101000A31CDA77052002F035FD00282BD004222E
:10102000A35E20000393A3685E1C236836B25B684E
:101030009847236807009B682000984700B20090FB
:101040003BB2320003992800FFF7CBF9002805D006
:1010500020235B4223610121631C08E0A31CDA7F8B
:10106000002A08D10121203A2261D9776318D97763
:101070001F4805F08FFC052002F028FD002811D044
:10108000052002F023FD04280CD82369002B09DA7F
:10109000621CD27F002A05D0A21CD27F002A23D056
:1010A000063B23612369002B02DD0022631CDA77F3
:1010B000200014251830FFF777FD20006557FFF753
:1010C00075FA257505B0F0BD207E0D210130C0B246
:1010D00008F0CEF80023074A6362074B21761A60B6
:1010E0002022064B1A706CE70C3BDAE7A8050010CB
:1010F0008EC30000A0C40000D4050010BC01001085
:10110000F0B585B00500FFF757FB061E53D114203C
:1011100028566C68431E0343DB0F604302936B7DCC
:10112000264F0393AD68C217002B21D10F33134014
:1011300018180011FF30052108F084F90A23CAB2FB
:101140005A431F49E017033B8A18E9171940034027
:101150001C191C4B4D1918683968E410029BED10DE
:10116000201A691A0138009309B200B2039B20E0EB
:101170000F23134018180011FF30062108F062F900
:1011800016230720CAB25A430F49E3178A18E917F2
:10119000014018400B4B04191868029B4D1939681F
:1011A00000933300E410ED10201A691A043809B2D4
:1011B00000B205F095F805B0F0BDC046C4010010BE
:1011C000D7C20000C00100102AC20000F8B51822E2
:1011D0000024224B150065435D19A87D1E000028E0
:1011E00030D101270621AF7502F058FD1C4A0028B6
:1011F0002CD1137C002B29D06F7518231800604365
:101200003018457D0221002D00D008315C43136861
:101210003719F9751D7830235D43335900245B6815
:101220009847C30F18186D104010281A7860BC60DA
:101230000221200002F032FD142358430A38F860DE
:101240003C6109E00134142CC4D105E018230021CD
:101250006343F3185975D0E7F8BDC046A8030010E2
:10126000A8050010F0B5944C8BB004901623E356FB
:10127000924D002B3DDC924B18349C42F6D1BEE0DF
:10128000E3681333262B39D90422AB5E280005937B
:101290000822AB5E06932B685B6898472B68079023
:1012A0009B68280098470422A35E06000893082242
:1012B000A35E2000099323685B68984723680700B2
:1012C0009B68200098476A461C21525E099900B22B
:1012D000019108993FB20390009133B202970699A9
:1012E000059803F0D3FB002810D1764B1835AB429C
:1012F000C1D01723EB56002BC2DCF6E7637D062B2B
:10130000C2D004229343092BBED0B4E7637D092BDE
:1013100006D8012292219A4089000A4200D0BCE0FE
:101320000E2B00D9BCE001229A40674B1A4200D133
:10133000B6E0617D01230E2910D81A008A40634867
:10134000002302420AD1E22080010A33024205D181
:10135000263313405A425A4102239B1AEA7DD31A7C
:101360005BB2EB75002B2FDC0D2916D12B68280002
:101370005B686F6898472368C60F36185B687610FD
:101380002000F61967689847C30F18184010C01955
:10139000361A002E04DD012604E0E368002BFADC97
:1013A000012676422021182002F078FC4021464395
:1013B0003020EE604942404202F070FC0121286179
:1013C000434805F0E7FA90E704298ED12B682800FE
:1013D0005B686E689847C30F18183E4B401086191B
:1013E00058681830361A731E1E430123F6171E4321
:1013F000EB68DA179B1853405E43EE6075E7049B79
:10140000049A1B78013B5BB21370002B12D1314B55
:101410003321586A1D235B42584307F02DFF3C30AF
:10142000031C40B20A2800DA0A23049A1370100041
:10143000FFF7CCFE30261427204CA37D002B26D0AE
:101440002000FFF7B3F8244BA1681A685378734360
:1014500099421CDD1723E356002B16DD236820007C
:101460005B6815789847C30F18180023A3601423EE
:10147000754340106D10281A6060E35602217B43CB
:101480001648E36005F086FA01E00023A3750D4BD2
:101490001834A342D1D10BB0F0BD0122A2753FE7B1
:1014A00023682000DB69E66898476421704307F0F1
:1014B000E3FEE0603DE7C046C8010010A80300104D
:1014C000A8030010880500101078000048420000B2
:1014D0004AC60000E0050010A805001024C4000062
:1014E000F8B500230400302603611E4F20003B683E
:1014F0001D78236875435B689847303D291A302072
:1015000002F0CCFB3B6860605D78236820009B683C
:1015100098477543303D291A302002F0BFFB124D29
:1015200061686B68A0605A1A7F320023FE2A06D9D0
:10153000FE22AB681B1A7F339A429B415B423A689A
:1015400012787243521015007F3DA94206DB7F32AC
:10155000914203DC5022FF329042C6DD002BC4D002
:10156000F8BDC046A8050010E0050010F0B587B032
:101570000600FFF71BF8A54F3B685A78302353430A
:10158000B2689A4202DD3000FFF7AAFF0423F45E3E
:101590000822B35E3000049333685B689847336871
:1015A00005009B683000984748212AB20391984D66
:1015B0001839029103B20820295E01910420295EA6
:1015C00020000091049903F061FA002800D11AE18B
:1015D0006B6A01336B6205F0A9FB8E4C2B7E217880
:1015E00001200131059302F059FB23780493059BF8
:1015F0001818049B591C07F025FFC8B228760C2840
:1016000026D8854A854B07F0A3FD0913111D070D48
:101610001F0F151B0B171900814916E0814914E0B3
:10162000814912E0814910E081490EE081490CE0D6
:1016300081490AE0814908E0814906E0814904E0E6
:10164000814902E0814900E08149116020221A703D
:101650003B7C002B2BD16B6A082B11D00C2B17D0A5
:10166000042B24D1049B002B21D10133794A237010
:101670002B76694B02211A602022684B1A7013E006
:10168000049B012B13D80221734A2170297606E0AE
:10169000724B197800290AD101221A70704A5E4BE8
:1016A0001A6020225D4B1A706E4805F073F93B7C7E
:1016B000012B3CD16B6A181F0C2838D807F048FD65
:1016C000073737370F37373717371F372700237854
:1016D000022B2CD80323644A23702B761EE0237838
:1016E000032B24D80423614A23702B7616E0237839
:1016F000042B1CD805235E4A23702B760EE023783A
:10170000052B14D806235B4A23702B7606E0534B37
:101710001A78012A0BD802221A70514A3E4B002136
:101720001A6020223D4B4F481A7005F033F93B7C7C
:10173000022B3FD16B6A181F0C283BD807F008FD1D
:10174000073A3A3A0F3A3A3A1A3A223A2A002378B2
:10175000062B2FD80723484A23702B7606E02378E0
:10176000072B27D80823454A23702B762A4B1A606B
:10177000202219E02378082B1CD80923404A237023
:101780002B760EE02378092B14D80A233D4A2370C8
:101790002B7606E0314B1A78022A0BD803221A70F6
:1017A0002F4A1D4B1A6034221C4B00212D481A7001
:1017B00005F0F0F83B7C032B22D16B6A0E2B0BD08B
:1017C000102B11D00C2B1BD123780A2B18D80B23EC
:1017D0002D4A23702B760EE023780B2B10D80C2388
:1017E0002A4A23702B7606E01C4B1A78032A07D866
:1017F00004221A70264A084B1A603422074B1A70CA
:101800003000FFF76DFE07B0F0BDC046A805001020
:10181000E0050010D1050010D4050010BC01001037
:10182000ADC40000B2C40000B9C40000C0C40000D0
:10183000C9C40000D0C40000D8C40000DEC4000049
:10184000E9C40000EEC40000F4C40000FCC40000C1
:1018500003C5000008C5000018C500008805001079
:101860002AC500001EC000003CC500004EC5000097
:101870005DC5000070C5000080C5000091C5000076
:10188000A6C50000B9C50000CAC50000D9C5000042
:10189000E9C5000010B5044803F0ECF803F0F2F8D5
:1018A0000022024B1A7010BD62C000004E060010EC
:1018B0008023164A70B5536016339360953B1375B9
:1018C0000023D11C536253761400F0221800104DEF
:1018D000CB775200E918183388759342FAD10A225F
:1018E0000C4B00211A700C4AE4611300F7321633D6
:1018F000FF3219705970183300259342F9D1074807
:10190000FFF7EEFD064B25761D6070BDE00500106B
:10191000C8010010D0050010A80300108C050010AD
:10192000DC05001010B5040007F008FC0300074AAE
:101930001078074A1278504358432A234008181A4F
:10194000044B1880200004F025FE10BD2801001073
:101950000E09001018090010F0B50400057C8BB0CA
:1019600030230022009311002433100002F074FF92
:101970000028F5D0AB000293834BAA00D6582574FB
:101980002660042D17D8280007F0E2FB0903090F91
:1019900009007E4B63607E4BA36000230AE07B4B13
:1019A00063607C4BA3607C4B04E07C4B63607C4BAE
:1019B000A3607C4BE3601F237B4A7C49138005A80E
:1019C0000F2207F079FA1B2002AB00210222C01877
:1019D00007F07BFA05A8FFF7A5FF1823744A75489E
:1019E0001380714A0D33138004F0D4FD724BAA00AA
:1019F00098580A2104F051FE30236021276849429B
:101A00007878584307F038FC133003B20393602111
:101A1000302338784942584307F02EFC2A303200F0
:101A200000B2039904F052FC062630B20636A268D2
:101A30000021B6B204F04AFC4E2EF6D1483E37B231
:101A4000626839000020063604F040FCB6B26268D5
:101A500039004E2004F03AFC302EF0D1E668002E1A
:101A60000DD000213200080004F030FC0123009367
:101A70000023E26819004C2004F032FC09E0A2685F
:101A80003100300004F022FCA26831004E2004F046
:101A90001DFC4A4F3B789D4229D1474B029A9B58E7
:101AA000032B09D9072B09D90B2B09D90D2B09D9E0
:101AB00010260F2B3AD806E0042604E0082602E0A0
:101AC0000C2600E00E262B23374A0A211380384AC1
:101AD0001F3B13803A4B186807F0CAFB032925D92E
:101AE000384804F057FD0021300004F0D2FD3B7867
:101AF0009D421BDD324B0A21186807F0B9FB032910
:101B000014D9012003F0F8FA1C22072310000F213A
:101B100003F0F0FE002003F0EFFA1D23244A2A48C8
:101B20001380214A0D3B138004F034FD042001F0A2
:101B3000A9FF002806D03B789D4203DCFFF7B8FEE2
:101B40000BB0F0BD022001F09DFF002804D0681CFE
:101B5000052107F077FC0D00002001F093FF00281D
:101B600004D0281D052107F06DFC0D00062001F0B2
:101B700089FF002805D1053001F084FF002800D13D
:101B8000EEE6FFF787FEEBE644C40000C0C10000AC
:101B900042C6000040C0000016C00000EAC30000BA
:101BA00086C10000AEC200000C090010CCBF0000CE
:101BB00018090010FCC50000BC05001088050010C5
:101BC0006C06001004C6000055C5000010B502F0F8
:101BD0006FFD0122054B9A70FFF75CFE044804F08C
:101BE0002FF80448FFF7B8FE10BDC0468929001041
:101BF0009CCB0000A8050010F0B5254B85B01B78E4
:101C0000002B43D0002201920B2B02D80C3BDBB2FD
:101C10000193204F0126386807F090FA1E491F4AA9
:101C20000B7814780E705C436043C4B2300003F04C
:101C300063FA282063080293019B02995D1EA3B2F8
:101C4000174C0393039A23782DB202330232401AC1
:101C5000290003F053FE002003F04EFA29200299D8
:101C60002378039A9B199219401A290003F042FE27
:101C7000300003F041FA6A460A4B928838681A80AD
:101C8000FFF750FE024A1378013B137005B0F0BD18
:101C9000BC010010D4050010280100100E0900102E
:101CA000F50600100C090010F0B52E4B2E4E5A68A8
:101CB000716887B0521A0092D21707271500049254
:101CC000009A3D40AD189B68B268ED109B1A0C3B22
:101CD0000193DB1718000593019B3840C018C3100F
:101CE0002800029368435B43C0180AF063F806F0CB
:101CF0004BFF0AF029F80390142830DD73681B4A63
:101D00001833DC173C40E3181468DB1028010399F2
:101D10001C1B07F0B1FAB368154A2433DD173D40A8
:101D2000EB181568DB105D1B029B24180399180142
:101D300007F0A2FA3F22059B019913405B18049912
:101D40002D1811400A0000999B11521892115B192D
:101D500012191BB212B229B220B203F03DFC07B037
:101D6000F0BDC0468C050010E0050010C001001059
:101D7000C4010010F0B56E4E85B03000FEF788FB50
:101D80006C4C2000FEF718FD002815D1A268073022
:101D9000D117694B01408A1819686368D210511A2B
:101DA000DA171040654AC3181068DB10181A09B218
:101DB00000B2634A04F08AFA624B1C00F733FF3327
:101DC0001D0016342378002B03D020001638FFF7AF
:101DD00097F91834AC42F5D15B4C2000FEF7ECFCCF
:101DE000002847D11423E35605005F1E1F43FA0F56
:101DF0000292E2686768002A0AD01F227B43D81744
:101E00001040C0184011FF30052107F01BFBCDB278
:101E1000A36839B25A1C482312B200933000183B11
:101E2000FEF7DFFA002804D123690425002B00DB2C
:101E3000033D0B2207205543444A3F4B5219A568E6
:101E4000E91701404D1919686368ED10691ADD172B
:101E50002840C3183948DB10006809B2181A029BE1
:101E6000013800B20093002304F03AFA2000183041
:101E7000FEF708FFE31CDB7F002B04D1337C002B33
:101E800001D0FFF711FF0727314D6B7D0D2B02D1DC
:101E9000FF2003F031F91623EB56002B35D06B7D74
:101EA0000C2B02D1FF2003F027F92800FEF784FC59
:101EB00000282AD16B682800DA173A40D3181F4A45
:101EC000DB1012689B1A1BB20293AB68DA173A4018
:101ED000D318194ADB1012689B1A1BB203932B68A4
:101EE0005B6898472B6806009B6828009847F217A4
:101EF000C3173B403A4018189619C010F61003B2A9
:101F000032B20399029803F0F5FC012003F0F4F8D3
:101F1000104B18359D42B8D10021012003F0F4F890
:101F20000A21606A04F0BDFBFFF766FE05B0F0BD54
:101F3000A80500108C050010C4010010C00100109D
:101F40000EC00000A8030010E005001014C300003C
:101F5000C8010010A803001037B530250024002266
:101F6000009554231100100002F076FC0028F6D0F2
:101F7000FFF700FF0021012003F0C6F8114B1248C3
:101F80001C80124B1C8004F011FB114804F00EFB66
:101F9000104804F00BFB062001F074FD002810D15E
:101FA000053001F06FFD0028D9D00B4B0B48596A62
:101FB000037C0B4A9B009C58A14200D99950FFF723
:101FC000CBFC37BD1809001012C600000C09001028
:101FD0001EC600002DC60000E0050010A805001078
:101FE000BC05001030230022F0B587B0009311002B
:101FF0002433100002F030FC002800D113E1062049
:1020000001F040FD002801D0FFF7A6FF8748FFF749
:10201000ADFA874C2000FEF7ABFF8648FFF722F9A8
:102020003020854B854D19680B784343DB00542BDA
:1020300014DD072362681832D61733409B18DB1073
:102040002A3B2B60002B09DB0A784243D210100098
:102050005338834203DB1300543B00E0002330205D
:102060002B604B78764E4343062B15DD0723A26881
:102070002432D7173B409A18D2101300183B336014
:10208000002B09DB4A784243D210110032398B42CF
:1020900003DB1300333B00E000236A4A336013681C
:1020A000002B16DD0120013B02214042136001F0AC
:1020B000F5FD654F02213B6858432B68C018286026
:1020C0000120404201F0EAFD3B6858433368C018E4
:1020D00030600026FFF74EFE5C4D0422AB5E280008
:1020E00004930822AB5E05932B685B6898472B68C6
:1020F00007009B68280098474821039118390291EE
:1021000003B20820215E3AB201910420215E0498B6
:102110000091059902F0BAFC00281FD01723EB5656
:10212000002B1BDD0127E31CDF7718237343474A8D
:102130002800D1189B584E685B689847C10F081853
:1021400041108E19616820001831711ACB17591A85
:10215000C9173943FEF7E6FE3D4D0BE00136183551
:10216000142EBAD1F8E76B7D0B2B08D0394B1835FC
:10217000AB4225D01623EB56002BF4DCF6E7042304
:10218000EF5E0822AB5E280004932B685B689847DB
:102190002B6806009B68280098474821039118394E
:1021A000029103B20820215E32B201910420215E27
:1021B00038000091049902F069FC00282DD1D5E780
:1021C000E31CDB7F002B2ED0234B1A78002A04D18E
:1021D000224A2349116020221A7014253026002239
:1021E000009654231100100002F036FB0028F6D0B0
:1021F0002000013DFEF7BCFEEDB20E48FFF732F8BD
:10220000FFF7B8FD002D02D1FFF752FB0BE00620CF
:1022100001F038FC0028E2D0F6E7142120006956CE
:10222000FEF780FEA2E707B0F0BDC0468C050010A7
:10223000E0050010D0050010A8050010C001001036
:10224000C4010010DC050010A4050010A803001054
:10225000C8010010A8030010BC010010D405001034
:1022600037C6000010B50E4801F022FDF022002311
:102270000C490D485200585018339342FBD10B4A79
:102280000B4B0C491A60F02200230B4852005850A7
:1022900018339342FBD1094A094B1A6010BDC0465E
:1022A000D8050010C801001024BF000050BF000076
:1022B000E0050010A80300107CBF0000A8BF0000CC
:1022C0008C05001010B5FFF781FC02F07FF90028A3
:1022D00002D0FFF787FEF8E710BDFFFF10B5010041
:1022E000014800F065FD10BDB806001010B5FF21D3
:1022F000024800F05DFDC0B210BDC046B806001037
:10230000F8B543B204000D00002B07DA0021772056
:10231000FFF7F6FF012831D87F231C40A026882331
:1023200080279B013606F750FFF7E0FF8A239B01C9
:10233000F750FFF7DBFF2000FFF7D0FF280EFFF775
:10234000CDFF280CC0B2FFF7C9FF280AC0B2FFF7C3
:10235000C5FFE8B2FFF7C2FF9520402C03D09438A8
:10236000482C00D18630FFF7B9FF0A24FFF7BEFFE3
:10237000030603D5013CE4B2002CF7D1F8BDFFFF02
:1023800073B58823A02480223F4D9B012406E25090
:1023900028003E4900F002FD28000022082100F03C
:1023A000F1FC842364259B01E358013DEDB2FFF766
:1023B0009DFF002DF9D129004020FFF7A1FF040067
:1023C00001284BD1D52148204900FFF799FF01286A
:1023D00015D1FFF78BFF01AC28550135042DF8D13D
:1023E000A378012B3AD1E378AA2B37D1284D80214D
:1023F000E920C905FFF784FF011E11D115E029006E
:10240000E920FFF77DFF4126012801D80224E926B3
:10241000204D00213000FFF773FF002820D116E087
:10242000013DADB2002D19D0E1E77A20FFF768FF3A
:10243000002813D10500FFF759FF60550135042D21
:10244000F9D123780C245B060FD42C000DE08021F9
:1024500050208900FFF754FF002806D0002404E034
:10246000013DADB2002DF9D0D3E70B4BA0221C707B
:10247000882380219B011206D150FFF737FF60426D
:102480006041C0B276BDC046B8060010002D3101D3
:10249000E02E0000A861000008060010F8B51D003D
:1024A000244B07001B7816001B0700D4490251205B
:1024B000FFF726FF002801D0012431E01E4CFFF772
:1024C00015FFFF2804D1013CA4B2002CF7D1F3E79B
:1024D000FE28F1D1194C641BA41BA4B2002E07D115
:1024E000002F11D0013DADB201353E007D1904E051
:1024F000013EFFF7FBFEB6B2F0E7FFF7F7FE3070E4
:102500000136B542F9D105E0013DADB2FFF7EEFE6F
:10251000002DF9D1013CA4B2FFF7E8FE002CF9D15F
:102520008823A02280219B011206D150FFF7DEFEF6
:102530002000F8BD080600103075000002020000FF
:10254000064B1A68831ED168002002398B4203D2E1
:1025500050784343906918187047C0460C06001025
:102560000F4B10B51A68002303808368040018001D
:10257000012B13D0D16801208B420FD2002B03D145
:102580001178032900D15369E360002B03D01800B0
:10259000FFF7D6FF00E050692061002010BDC04663
:1025A0000C060010F0B5040085B0012854D92C4B5E
:1025B0001D68EB6898424FD22E78022E32D0032E3F
:1025C00038D0012E48D181B24B08C91889B24B0AC4
:1025D0000193244BCA05D20D296903AF9A4204D056
:1025E000019B3800591802230EE0019B380059184E
:1025F0003300FFF753FF021E2ED12969019B0131E1
:10260000C918330002A80530FFF748FF002823D17E
:102610007B7838781B0203431811E2071DD4180594
:10262000000D1AE02B69C2B2010AC918520003ADAD
:10263000330007E07F22042329690240C409920085
:10264000611803AD2800FFF729FF002804D168783E
:102650002B780002184300E0012005B0F0BDC04611
:102660000C060010FF01000070B50488050001345D
:10267000A4B2002C01D1032322E00369002BFAD07D
:1026800022071BD101330F4A0361C0681668002876
:1026900003D1B388A342EED910E073782209013B3D
:1026A0001A420BD1FFF77EFF0123984208D9F36845
:1026B0009842E0D2E860FFF743FF286100232C80B6
:1026C000180070BD0C060010F7B504000D000023C3
:1026D000EB56202B01D10135F9E72F3B5A425341EC
:1026E0000027ED18A7602B78202B01D901972EE049
:1026F0002000FFF735FF404B06001B689B681F70EA
:1027000078E0009B1B78002B68D00822009BDB7AC6
:1027100013405BD162680099581CC956D356994240
:1027200054D103000B28F6D1D37A002B62D13B6839
:102730009868C37ADB0656D5437D017D1B020B43A7
:10274000C27E1904837E120213430B43A3606068A8
:10275000020003000B32934203D100220821130030
:1027600013E0202119700133F5E72F2B12D02E2B07
:102770003BD091420ED91F00613F192F01D8203B59
:10278000DBB2571C8354FAB233005E1CEB5CF6B22A
:10279000202BEAD8AD192026019A9E425241C272DE
:1027A0002000FFF7DDFE061E16D1134F3B689B6825
:1027B00000930F23228821691A4052011133009897
:1027C000FFF76CFE00289CD0012613E02000FFF7E5
:1027D0004BFF0028EDD00600032E0BD163680326C3
:1027E000DB7A002B06D1042604E00829D2D10A00A6
:1027F0000331C9E73000FEBD0C06001070B5164B62
:1028000001001C6890B00620002C23D00023A37088
:102810006B4608ADA56003A80493FFF755FF002899
:1028200018D12B780330002B14D01023EE7A1E40E1
:1028300010D16B7D297D1B02EA7E0B431904AB7E10
:10284000120213430B4363620F9B30002362012388
:10285000E661A37010B070BD0C0600102F4BF7B5E9
:102860001C68002307000D000192138006209C4283
:1028700053D0A3780138DB074FD5236AE2699B1A4E
:102880008B4200D29DB20097002D45D0E669F3053A
:102890001BD1700A617806F0EBFC00290BD1002EE9
:1028A00001D1606A02E0A06AFFF77CFE01282FD9FF
:1028B0000023A062E370A06AFFF742FE002827D041
:1028C000E3785A1C1818E270E062E3692E1CDA05FE
:1028D0008023D20D9B009B1A9BB29D4200D91E1CE7
:1028E000B6B2381E00D000983300E16AFFF7D6FD7B
:1028F00000280DD1E369AD1B9B19E361009BADB2CC
:102900009B190093019B1B88F618019B1E80BBE757
:1029100000230120A37000E02800FEBD0C0600107B
:10292000294BF7B51C680623002C4AD0A278013B3E
:10293000D20746D5256A854200D905000022E36901
:10294000E261954238D066787602002B12D03100D1
:10295000681E5F1E06F006FC31000190380006F08C
:1029600001FC019B834205D373423B40E361ED1AB6
:10297000A06A01E0606AA062B5420CD9FFF712FEBE
:1029800001281BD9E368984218D2E369A0629B1919
:10299000E361AD1BF0E7E3695B19E361FFF7D0FD8D
:1029A00000280BD06B0ADAB2ED0501D1E27003E02A
:1029B0000132C318E270E362002302E00023A37037
:1029C00001331800FEBDC0460C06001030B5154B93
:1029D00004001B688DB00620002B20D004AD9D6044
:1029E00001AB63602000FFF76FFE002815D12B7844
:1029F000002B0FD0EB7ADB0601D404200FE06B7DB7
:102A0000297D1B020B43EA7E1904AB7E120213439D
:102A10000B43A3602000FFF7A3FD0328EDD00DB00A
:102A200030BDC0460C06001010B513000A000100AE
:102A3000014800F003F810BD5BC600000FB404B0FD
:102A40007047FFFF036870B504000D00013304D127
:102A5000242206490648FFF7E7FF6368002D01D0EE
:102A6000E26800E02269136070BDC0468CC60000B9
:102A7000D6C6000070B50D000400160000F098FBEB
:102A80006B1C07D00021200000F0BAFB31002000B1
:102A900000F0B0FB70BD10B50122FFF7EBFF10BDD9
:102AA00070B50D000400160000F082FB6B1C0BD00B
:102AB00031002000FFF7C6FF0121200000F0A0FB3D
:102AC0000021200000F096FB70BD10B50022FFF73A
:102AD000E7FF10BD10B50400034B083303601C3042
:102AE00000F068FC200010BDF0C6000010B5040026
:102AF000FFF7F0FF200000F067FA200010BDFFFF95
:102B0000036810B50400013304D12C22054906489E
:102B1000FFF78AFF636960681B681840431E98418D
:102B200010BDC0468CC60000D6C6000070B50500BA
:102B300004000E4B0E00083308C52800182200219F
:102B400006F0C3F9002320003100E36123626363D0
:102B5000A363E364064A23001C3000F0C9FB28008D
:102B60003100FFF798FF200070BDC046F0C600009E
:102B7000D92B000010B50430FFF7C2FF10BD0300D1
:102B80000A0010B51C300121002A04D01A6200226C
:102B90005A630132110000F021FC10BD030010B592
:102BA0000A001C30002903D000229963DA64013244
:102BB000022100F013FC10BD436910B50100002B89
:102BC00004D10368002B06D0984704E00068002871
:102BD00001D00431984710BD10B5012903D0022956
:102BE00004D1383000E02030FFF7E6FF10BDFFFFD2
:102BF00010B50400431C12D00B685A1C0CD09C4228
:102C000008D12000896800F00FFC0021200000F0AE
:102C100027FC04E00C31EFE70148FFF70FFF10BD80
:102C200000C7000010B5030088420AD00B00421C08
:102C300007D003004A1C04D00348FFF7FFFE01231E
:102C40005B42180010BDC04611C700000B685A1C3B
:102C500005D0834201D1486802E00C31F6E7180044
:102C60007047FFFF10B50400431C07D0FFF7EEFFCD
:102C70000400431C02D10248FFF7E0FE200010BD13
:102C800022C70000074A13681818EFF3088188422A
:102C900005D30C220120044B40421A6001E0106071
:102CA0001800704704010010302E0010064B10B5BC
:102CB0001B680400002B00D09847044B1B68002BB6
:102CC00001D02000984710BD080100101401001029
:102CD000094B10B51B680400002B04D0984700284E
:102CE00001D1FFF7E3FF054B1B68181E00D0984782
:102CF000002C00D0206010BD0C010010100100104D
:102D0000704710B5040000F05FF9200010BDFFFF10
:102D100073B504000E480025083020600820E060EC
:102D20000C48261D6061069865602572256100903B
:102D3000300000F003FD2B0030002269E16800F054
:102D40007DFD3000616900F0AFFD200076BDC0461A
:102D500060C7000040420F0070B5094D04002B68A9
:102D600083420BD0061D0269C1680023300000F0C9
:102D700065FD6169300000F097FD2C6070BDC046B4
:102D8000100600100261002210B5034BC1601A60EA
:102D9000FFF7E2FF10BDC04610060010002210B57C
:102DA000024B41611A60FFF7D7FF10BD10060010FB
:102DB00070B50D000400FFF7CFFF2900201D00F0C3
:102DC000B7FD70BD036870B5DB68040098476368A1
:102DD0005A682368002A02D19B68984713E05B6811
:102DE0001568984763682D1A5A68002D07DC9168AA
:102DF00059601B68002BEAD050689847E7E72368C2
:102E000010681B69984770BD10B50248FFF7DAFFDC
:102E100010BDC04688C7000070B5040000F0C4FDB6
:102E2000050000F0C1FD401BA042FAD370BDFA239B
:102E300010B59B005843FFF7EFFF10BD70B50A4C6B
:102E4000A568A3682A00002B0AD180225E5952058A
:102E50009A1804331660C02BF7D180225205A26065
:102E600010308000815070BD00ED00E07FB5802003
:102E70003F494002CA6F8E240243CA6723220020C2
:102E800020253C4B3C499A60223A0A603B49A40009
:102E90000A60186219593A4A114001910199A943EF
:102EA000C825019101992D022943195100903548F7
:102EB0000099814204D8C046009901310091F7E79A
:102EC0000121002019645964586459645C6C2948D4
:102ED0000C42FBD08E218026C825890044582D0243
:102EE00014400394039C34430394039C2C434450A8
:102EF00023248460445822400292029CB4430294EA
:102F0000029A2A4342500120DC681A4901220442F5
:102F1000FAD00320086700204A67486710004A6714
:102F20005C6F144A01210442FAD08E209167800020
:102F30001558154C2C4014501558144C2C40145056
:102F400000209164D164D064D164DA6C0A42FCD070
:102F50002321084A1161012259691142FCD0002243
:102F60000B4B1A601A600B4B01321A607FBDC046D2
:102F70000480044000800440F0400440F4400440D9
:102F8000FF250000C3090000FFFBFFFFFFFEFFFF5E
:102F9000C0800440C8800440704770477047704745
:102FA0007047002310B5934203D21C585C50043381
:102FB000F9E710BD00231A008B4202D21A500433E5
:102FC000FAE770470020704710B505F06BFF10BDA1
:102FD00013B501210F4B9A68120B12039A60027805
:102FE0009C6891402143996099680B48014399601E
:102FF00018690849019001980028F9DA083292000E
:10300000535801938B685B005B088B600198000448
:10301000000D16BD00C001400000088470B5060018
:10302000FFF7D6FF04003000FFF7D2FF05003000A5
:10303000FFF7CEFFAC4202D923002C001D00030095
:10304000A84200D92B0020009C4200D2180070BD7D
:1030500073B50C00214D060029002000FFF702FE89
:10306000C0B23070FF2804D135221D491D48FFF73A
:10307000DBFC20002900FFF7BBFD80221A4BE40592
:10308000E40DE418236819499343B9322360FF32F1
:103090008858174B034010200193019B8343C8209D
:1030A0000193019B000203438B508021114A890147
:1030B000D36F0B43D367104B1049186806F052F8D2
:1030C0008023DB051A000138C0B20D49184308609F
:1030D0000B681340FCD10A4A136073BDF4C70000AB
:1030E00090C70000DBC7000000400440008004409F
:1030F000FF250000048004401801001020A10700F3
:1031000000C0014010B5FFF789FF07F0A1F80249A0
:1031100006F09AFD10BDC0460108803910B50400C4
:10312000431C04D11E2217491748FFF77DFC174B9B
:103130001A68002A06D101321A60154A1549D36F60
:103140000B43D3670122002C12D0134B9C420FD0AB
:10315000124B9C420CD0124B9C4209D0114B9C420A
:1031600006D0114B9C4203D0104BE1184A424A4111
:103170002000110000F058F90120A404E40EA04042
:1031800010BDC04690C80000DBC600001C06001041
:103190000480044040000100281400002C160000A8
:1031A00030180000341A0000381C0000C4E1FFFF92
:1031B00070B505000C0029604B1C11D00800FFF70A
:1031C000ADFF2414074BA400E318EB60064B6860C6
:1031D000E3182B61054BE3186B61054BE418AC60F9
:1031E00070BDC046002200A0802200A0002100A0E7
:1031F000002000A010B5006800F032F910BDFFFFFC
:10320000036870B504000D00013304D1432209495D
:103210000948FFF709FC002D06D0012D09D1A2684D
:10322000636811680B4303E0A268616813688B430D
:10323000136070BD90C80000D6C60000F7B501212C
:103240000D008540134C636A2B4221D0124B86003F
:10325000F058019300281BD023682B4218D16368D3
:103260002B4206D0E3692B4203D00C4B1B689847D6
:10327000E5612369074F2B4209D03B6A2B4206D0F8
:10328000064B019A1B680221905998473D6265627E
:10329000F7BDC046004000A0240600102006001024
:1032A00010B50020FFF7CAFF10BD10B50120FFF7D1
:1032B000C5FF10BD10B50220FFF7C0FF10BD10B54F
:1032C0000320FFF7BBFF10BD10B50420FFF7B6FFCA
:1032D00010BD10B50520FFF7B1FF10BD10B50620D9
:1032E000FFF7ACFF10BD10B50720FFF7A7FF10BD1B
:1032F000F7B505002748814202DD0120404248E041
:103300002548264C02600020820016590096002EA7
:103310003BD11351224C2860E36F224F224E3B4396
:10332000E3671F248B0349120C401821A4460400B4
:103330009B0F59435E346144A400A15181210124B3
:10334000890071589B000F00210081400F43390014
:103350008127BF00F151A021802609065B18B60124
:1033600099592700019161468F40019940B2B943B4
:1033700099510E4BD158FFF761FD1F222B68009821
:1033800013409C400A4B1C6003E001300828BBD16D
:10339000B3E7FEBD13110200200600102406001042
:1033A000048004408000090000800440D8C8000068
:1033B00000E100E000210368064A9B0010B5995027
:1033C000012281210068044C8240890063589343A4
:1033D000635010BD240600100080044003680120E3
:1033E000984070B50F4C2368034200D16062C5431A
:1033F00026680C4B2E402660012909D1002A03D0F3
:103400005A68104358600CE05A6815405D6008E047
:10341000002A03D01A691043186102E01A691540A6
:103420001D6170BD004000A070B504000D00431C7C
:1034300004D1152207490848FFF7F6FA074BE405BF
:10344000E40DE418072322681D409A4315432560C4
:1034500070BDC046F8C80000DBC600000040044054
:1034600070B504000D00431C05D11D220F49104802
:10347000FFF7DAFA06E081231B01984214D00D4BC6
:10348000984211D00C4BE405E40DE4182368042D98
:1034900004D18022D2001343236005E01822ED00FE
:1034A000934315401D43256070BDC046F8C8000019
:1034B000DBC60000140A00000040044070B50C1C7C
:1034C00005000021201C06F013F8002809D1FE2178
:1034D000201C890506F020F8002803D0FE24A4054E
:1034E00000E0002480232D689B00E85806F0B0FE21
:1034F000211C06F0A9FB06F04FF881239B00E85041
:1035000070BD8023F7B5812704689B00E258BF0097
:10351000E059E15001920D0006F09AFE061C019858
:1035200006F096FE011C301C06F0C4F9061C2800AB
:1035300006F046FE011C301C06F086FB06F02CF857
:10354000E051F7BDF7B50F00060050493800FFF70E
:1035500089FBC3B20500FF2B02D14D48FFF76EFA7D
:103560004C4B01211A78019310000840031E04D02F
:103570000A410B000A4200D081E001242100994059
:10358000019A4548127873600A4301990A70434AC8
:1035900099008A5809333260C26F110080221206E6
:1035A0001143C1672000984003003D4A380052682B
:1035B000364913433A4A5360FFF71AFB3768394AD2
:1035C0003B68394913430C223B607B6813437B60A3
:1035D0007A68364B13407B607B680193344B1868E4
:1035E00005F0C0FDFE2301381B0140011840019B7E
:1035F00018437860E8B207281DD805F0A9FD040A31
:103600001016040A1016A023DB00FC500222294BDE
:1036100010E0A123DB00FC500222274B0AE0A2238A
:10362000DB00FC500222254B04E0A3230222DB0036
:10363000FC50234BFA508022C12352019B00FA50C8
:103640000123C0225B4292001E49BB500C32B9508C
:10365000043ABB5080231C499B00F950FB58053AA3
:103660009B08FF3ABB5004227B68300093437B6089
:10367000FFF747FF30000021FFF720FFF7BD134899
:10368000FFF7DCF901235B4277E7C04640C9000041
:10369000ACC900004406001004800440D8C90000F2
:1036A000008004400100060040420F001FF0FFFFB1
:1036B00018010010040500000C05000014050000AE
:1036C0001C05000001100000204E0000C6C90000CB
:1036D00080210A4AC905D36F80200B430121D3679B
:1036E000074B1A680A431A6000229A601A6802435C
:1036F0001A601A688A431A607047C0460480044002
:1037000000400240024B18680006C00F7047C046D8
:1037100000400240014B98687047C046004002409C
:1037200010B58024044B1968A143196098601A6889
:1037300022431A6010BDC04600400240F0B5334E2F
:1037400087B0009104003100009801920293FFF7C6
:1037500089FA2F4D070029000198FFF783FA2D49B8
:1037600003900298FFF77EFA2B4904900C98FFF71C
:1037700079FA039905903800FFF754FA0599070084
:103780000498FFF74FFA01003800FFF74BFA20606A
:10379000431C04D1482221492148FFF745F92368F9
:1037A000204A93420FD0204A934219D180201F49CA
:1037B000C002CB6F1E4A0343CB6701211D4B19602A
:1037C000536803310AE0802018490001CB6F184A82
:1037D0000343CB670121184B196053680B435360B7
:1037E00031000098FFF704FA29000198FFF700FA6A
:1037F00008490298FFF7FCF90C9B013303D00649F6
:103800000C98FFF7F5F907B0F0BDC04624CB0000D7
:10381000E0C900001CCA000060CB000064CA0000C0
:10382000AACA000000000440008005400480044053
:10383000008004409C80044094800440F8B50E0051
:103840000221140002681D00536807008B43536077
:10385000331F0C2B06D9032C04D9652210491148BB
:10386000FFF7E2F88023E0010340013E1E43A30777
:1038700034003968DB0F0A689B01120C12041C43E8
:1038800014430D220C604B6893436A1E954102223B
:10389000AD001D434D604B6813434B60F8BDC046FF
:1038A00064CA0000BECA0000F7B5022405000E007D
:1038B00002685368A34353601A4B1B6801932100AD
:1038C000019805F04FFC06F07BFC071C300006F069
:1038D00077FC011C381C05F0EDFFFC21890505F083
:1038E00073FE08F0A9FA05F0B7F808F02DFAFF28E2
:1038F0000FDC2B680C4A1C61196801380A40022150
:103900001A601A680002104318605A680A435A6025
:1039100007E0802302345B009C42D0D10348FFF7CC
:103920008DF8F7BD18010010FF0000FFFCCA000071
:1039300002220368D8681042FCD004229960D9683A
:103940001142FCD098687047104B70B51A68002A75
:103950001AD1012580210E4A1D60D36FC9000B4387
:10396000D3670C4B0C4C186802230C49636005F0BC
:10397000F9FB0138E0600A4965601320FFF75EFA41
:103980008022084B12031A6070BDC0464806001022
:1039900004800440180100100080014040420F00E4
:1039A000092E000000E100E0044B10B51B68002B5D
:1039B00001D1FFF7C9FF024B986810BD48060010FF
:1039C000008001400121034B98615A690A435A6102
:1039D0007047C046008001400121024A53698B4371
:1039E00053617047008001400122014B1A6070470B
:1039F00000800140704770477047FFFF10B50548D1
:103A0000FFF780FB044906F01FF905F0C5FD034BE5
:103A1000187010BD4D06001000007F434C060010CA
:103A200010B5FFF7EBFF10BD10B502490248FFF7D4
:103A30000FFB10BD5C2E00004D06001010B503F00A
:103A40004BFB10BD70B50023FF2402250B480C4A28
:103A5000C15C002906D0D15C0131C9B2FF2906D171
:103A6000D55407E0D65C002E04D0FF2E01D1D154EE
:103A700000E0D4540133072BEAD170BD612B001054
:103A800050060010034B185C013843425841C0B245
:103A90007047C0465006001010B50B4B1B5C012947
:103AA00006D80020FD22013BDBB29A42404109E0EA
:103AB0000020FF2B07D0180005F0DAFBC8B2013850
:103AC00041424841C0B210BD50060010024B185C84
:103AD000FF2800D10020704750060010002210B5CA
:103AE0001D4B19781A701D4A5078002801D001200A
:103AF0001870D078002803D002241878204318705A
:103B00001078002803D00424187820431870907887
:103B1000002803D008241878204318701079002852
:103B200003D010241878204318705079002803D04F
:103B300020241878204318709279002A03D040205E
:103B40001A7802431A701B78054A180008409943F6
:103B5000044B1070197010BD4F060010612B00103F
:103B60005806001057060010014B18797047C046E0
:103B7000612B0010014B58787047C046612B001034
:103B8000014BD8787047C046612B00100023094ACA
:103B90001380094A1370094A1370094A13700122ED
:103BA000084B52421A80084A084B1A600922084BF7
:103BB0001A707047600600105F060010680600105B
:103BC000590600105C06001008D4000064060010BE
:103BD0005E06001010B50248FFF7D8FF10BDC046C2
:103BE0005A06001037B572B600210422244B8025F6
:103BF00059601961234BED001A608E22224B92000E
:103C00009C582C4380259C509C586D002C439C5004
:103C100001225A671400596719004B6F1A4D01228F
:103C20002340FAD114002B676A676B674B6F164A03
:103C30002340FBD18E245364516CA400936013671E
:103C40005360155911492940802501910199294353
:103C5000C825019101992D0229431151A0228421E7
:103C60001206890153500A4953500A4953500A4BCE
:103C70009860001C01688D464068804737BDC0468B
:103C8000004000A010E000E000800440FF2500009C
:103C9000042100000821000000ED00E070B50400E0
:103CA0000D0005F0F5F9291B05F0CCFB081970BDD6
:103CB0007047FFFFF0B5C1B00E0000F05BFF00F0F1
:103CC00065FF8023DB029B1B0400984200D91C0087
:103CD00000F046FF8027134802F068FC00257F00B3
:103CE000A5421CD280216846490000F01DFFFF2834
:103CF00004D8631BBB4201D90B4806E0A8196946EA
:103D000004F0C4FB002804D0084802F04FFC012056
:103D100006E001350648FF3502F03CFCE0E70020F4
:103D200041B0F0BD72D500007ED5000099D50000ED
:103D3000EBD50000F7B501260024514B514D1E7004
:103D4000514B1C80FC23DB002B8000F04BFF21003B
:103D5000200000F077FF300002F06EFB0094019429
:103D60000AF049FA0421494800F0B8FEA0420FD1F8
:103D700000F000FF0820404200F0DEFE042168460B
:103D800000F0D2FE042101A800F0CEFE00F0E8FE13
:103D900001273F4E7F423F4C2368B34200D03E4C48
:103DA0002368B34200D03D4C2368B34200D03C4C62
:103DB0002368B34217D020233A485B422B8002F09D
:103DC000F5FB009B002B03D0374B019A9A4240D859
:103DD000364802F0EBFB364802F0E8FBFC23DB0040
:103DE0002B80344820E0344B34482B8002F0D2FB47
:103DF0000A2160682F8002F05AFC6368009A93429F
:103E000027D3A068FFF7EEFE17E0FFF7B9FE002802
:103E100034D1FFF7AFFE0028F7D001990098FFF7E3
:103E200049FF002826D0264802F0C0FB05E0FFF736
:103E300055FEFFF799FE002804D1FFF795FE0028F4
:103E4000F5D01BE0FFF790FE002817D0FFF746FEE5
:103E5000F8E71C4B1C482B8002F09CFB00980A21C1
:103E60002F8002F024FCFC231848DB002B8002F09A
:103E70009DFBCEE7164802F099FB8CE7F7BDC046E4
:103E8000280100101E010010820900105FD60000FA
:103E90001EAB07B0F4FF030004FF030004FE0300A1
:103EA00004F0030067D60000FF7F03007BD600000C
:103EB0008BC6000092D60000FF070000ADD60000C0
:103EC000B7D600001FF8FFFFDDD60000F1D60000D6
:103ED000D3D60000F8B50026012002F0ADFA4A4B17
:103EE000FC271E8000F07EFE484D494B49482B8040
:103EF00001F0A6FE0123484C30212370474BFF0000
:103F00001E70474B60201E702F8002F055FB454805
:103F100002F040FB3821602002F04EFB424802F0E4
:103F200039FB4021602002F047FB404802F032FBA1
:103F30004821602002F040FB3D4802F02BFB60214D
:103F4000282002F039FB3B4802F024FB013E3A48AE
:103F50002E8002F01FFB39482F8002F01BFB02234A
:103F6000374823702E8004F043FB8319DBB2250011
:103F70000324042B00D8040004F064FB86B2FFF78E
:103F8000ADFD7821682002F017FB0A21200002F025
:103F900063FB04F057FBFA239B00F318984203D904
:103FA00004F050FB013C86B203F038F9002808D039
:103FB00003F034F9041E02D0FFF790FDF8E7FFF795
:103FC000B9FE03F01FF9002807D003F01BF9002801
:103FD00002D0FFF783FDF8E7040003F019F9002889
:103FE00002D1002CCBD106E003F012F9002802D058
:103FF000FFF774FDF8E701232B7000F0F3FD0020BC
:1040000002F01AFAF8BDC046820900101E01001025
:1040100000F8FFFFA4D000002801001029010010C3
:104020002201001016D700001BD7000020D7000087
:1040300025D700002AD7000030D7000034D7000071
:10404000A20F0000F0B5984D1E002B888BB0040025
:10405000049109935711002E06D0002032230090BE
:104060001A00010000F0E2FD6A461021525E8E4BFC
:10407000029222B20392032F02DCFC22D20022E041
:10408000042F1DD120235B422B80002E00D102E1A2
:1040900002F0CAF90500012002F0CEF902F0B0FEEC
:1040A000049902001439601EC9B20A23C0B202F09A
:1040B000D7FA7E4802F06EFA280002F0BDF905E05A
:1040C000042F01DD7A4A1A80002EE1D1002F02DC94
:1040D000784A754B1A800123774A00930299039816
:1040E00000F0BAFD012F02DC724A6F4B1A80A3B2B6
:1040F0001D000126704C08352DB2039322003300B9
:1041000002992800009600F0A7FD6B461B8A22004A
:104110000493043B1BB205930096330005992800D5
:1041200000F09AFD022F02DC624A5F4B1A800125E3
:10413000039E2B00103636B2220002993000009503
:1041400000F08AFD2B00220005993000009500F058
:1041500083FD049B0095083B1BB2069322002B00B5
:104160000699300000F078FD032F02DC514A4E4BD7
:104170001A800124039D504E18352DB223003200C1
:1041800002992800009400F067FD23003200059991
:104190002800009400F060FD2300320006992800FA
:1041A000009400F059FD049B00940C3B1BB2079354
:1041B000320023000799280000F04EFD042F02DC96
:1041C0003C4A394B1A800124039D3B4E20352DB2C9
:1041D0002300320002992800009400F03DFD2300E6
:1041E000320005992800009400F036FD23003200CB
:1041F00006992800009400F02FFD23003200079953
:104200002800009400F028FD049B0094103B1BB292
:104210000893320023000899280000F01DFD052FA7
:1042200002DC244B204A13800125039C224E2834B3
:1042300024B22B00320002992000009500F00CFD02
:104240002B00320005992000009500F005FD2B00A1
:10425000320006992000009500F0FEFC2B00320091
:1042600007992000009500F0F7FC2B003200089918
:104270002000009500F0F0FC04992B001439320066
:1042800009B20095200000F0E7FC6A46064B928CCC
:104290001A800BB0F0BD0123074A009302990398DE
:1042A00000F0DAFC23E7C0461E010010C3D700006F
:1042B00000F8FFFF8A5200006EDD0000F0B501201B
:1042C00087B002F0B9F800229B4B1A7002F098FDFB
:1042D000FA20000104F08CF9040005F0B9FF974BB7
:1042E00097491C80051C05F017F9002801D0FF2014
:1042F00000E07F2002F070FD0024200005F060FF48
:10430000011C281C05F012F9002805D020B2013448
:1043100002F01CFDE4B2F0E78A4B18708A4804F002
:1043200067F9431EDBB20400092B00D9874C04F067
:1043300089F983B204930123FC271D000393FF0036
:10434000834B1B78002B03D0002D01D0002C22D1F1
:1043500002F056FD0400FA20000104F049F90600BD
:10436000200005F075FF051C300005F029FF011C39
:10437000281C05F0B7F8002804D1FA20E1B20001AA
:1043800004F03FF920B202F0E1FC0021080000F047
:1043900059FC07B0F0BD04F055F9FA22049B9200D5
:1043A0009B18984208D904F04DF983B20493694BE5
:1043B000E3185A1E9341E41A012D03D0022D00D1B7
:1043C00098E0BDE7039B644D002B32D0012600F03E
:1043D00009FC7642102120202E8000F033FC5F483B
:1043E00002F0D8F89921282000F02CFC5C4802F05B
:1043F000D1F85C482F8002F0CDF85B482E8002F0A7
:10440000C9F8582100202F8000F01CFC574802F00A
:10441000CDF8574E300002F0C9F8300002F0C6F86F
:10442000300002F0C3F8300002F0C0F8514802F04A
:10443000BDF89921302000F005FC4F4E3378032B56
:1044400002D801235B4200E04C4B2B8002234C4AF4
:1044500000933021013BA42000F0FEFB3621182000
:1044600000F0F0FB474802F095F81820422100F0D8
:10447000E9FB33784448032B00D8444802F08AF81B
:104480000223434A2F8060210093A420013B00F0C7
:10449000E3FB6621182000F0D5FB3E4802F07AF8D5
:1044A0007221182000F0CEFB02F0AAFC7F2802DD6A
:1044B000324B2B8000E02F802F4B274D1A78042A97
:1044C00002D1243A2A8003E0072A01D1013A1A7066
:1044D00018780A2102F0C0F82F4802F05BF82F800C
:1044E00002F08EFC0023020077217020FFF7AAFD66
:1044F000022525E7FFF7F2FAFFF7A4FA02F082FEA1
:104500000590002801D000251AE72800FFF7BAFA25
:10451000061E05D002F032FC059B0C4C039308E00C
:10452000FFF7B0FA002800D10AE7084C02F03EFC81
:104530000396012504E7C0462901001092290010C6
:104540000000FE4273060010A30F0000FFFF0000F2
:10455000710600100100FFFF1E0100103FD7000090
:1045600058D6000053D7000055D7000060D7000090
:104570007BD7000096D70000AC29001000F8FFFFA1
:104580002ADD000013D60000B1D70000BBD7000021
:104590004CDD0000C6D70000C3D70000012210B5D3
:1045A000084B00201A7001F047FF074801F048FB54
:1045B00004F038F804F060F802F08EFD04F04CF8D6
:1045C00010BDC046710600109CCB0000014B18784E
:1045D0007047C04671060010F7B50024FC2725007F
:1045E0005826FF00292D48D804F02CF8234B1A68D0
:1045F0009042F7D91E301860012D0BD0002D02D04B
:10460000022D22D035E01E4B28001D8000F0F8FA64
:1046100001252EE0FC21E2B2C900002002F074F86E
:10462000184B194A18806E235178107849084008B1
:104630001C34181A711A00952B00A4B200F00CFB60
:10464000FE2C16D90024022513E00E4B0E4A1F80C3
:104650006E23107851784008181A49086D3B009372
:10466000711A00F0F9FA3F34084BA4B29C4200D909
:10467000FF25FFF779FA0028B4D0F7BD202E0010EF
:10468000820900101E01001020D80000FF03000066
:1046900010B57F2002F0A0FB7F22034B1A80034B52
:1046A00080321A7010BDC0469229001070060010AA
:1046B000F7B5FFF773FF32220127FF24334B1A703F
:1046C000334B1F60334B1C70FFF7E2FFFFF792F98B
:1046D00020000024FFF78FF9FFF7B0F9FFF7B2F9D8
:1046E000FFF79EF900F0A9FAFFF776FF380001F016
:1046F000A3FE294E348000F075FA284D280001F001
:104700009FFA380001F098FEFC22254BD2001A8057
:10471000348000F067FA280001F092FA214E224D11
:1047200034702F70FFF7D6FBFFF7C8FD00F06EFC6A
:1047300030232200009321002433200000F0BEFC2F
:104740001A4B1C79002C02D0FFF77CF9F8E7200007
:1047500001F072FE0123164A16481370164A337090
:104760002B70137001F06CFA02F01EF8FFF746F997
:104770000520FFF787F9011E03D0200002F0E6FABA
:1047800002E00E4802F006F9F7BDC04672060010BE
:10479000780600107006001082090010A4D00000F6
:1047A0001E01001029010010220100105006001007
:1047B00028010010A0CD00002401001012D8000034
:1047C000F0B51F4B85B01A780393002A36D0002429
:1047D0000B2A02D80C239C1AE4B20127194B0020A3
:1047E0002D251F7000F088FC0322174EA4B23178EB
:1047F0000020CB1C691A61180092513201F0E3F9D4
:10480000380000F079FC032231780020CB1C691AB3
:1048100061180092513201F070F904220B4B1A809A
:104820003378E41A0A4B2F341C800A4B186801F0C5
:10483000B1FE039B039A1B78013B137005B0F0BDDA
:104840008406001028010010F50600101809001059
:104850000C0900107C060010F0B587B005930CAB76
:10486000039104921F78060003F0ECFE194B1A49DD
:104870001B780A68194C121A9A4212D92268002A27
:104880000FD0174AC3180B6013680125013313605A
:1048900000232360FFF7B0F8FFF7D4F8FFF7AEF876
:1048A00014E000252368AB4210D102F0ABF802F00F
:1048B00009F902F0FBF9FFF783FF059B0097049AC3
:1048C0000399300000F0FAFB01232360280007B0B1
:1048D000F0BDC04672060010800600107806001079
:1048E0006C060010F0B587B002905148039101F0BA
:1048F000A7F9FFF739F9031E03D00A2003F0A8FE39
:10490000F7E74C4A11780492002900D18DE001208C
:10491000494A4A4C10704A4A23701370494A13702E
:1049200000F0EAFB0594484B1B78002B7AD030232B
:1049300000220093110024331000FFF78DFF0028A0
:10494000F1D00024029B414F1B785BB2A34200D000
:104950003C78012000F03CF9032000F0CDFB012061
:1049600000F0CAFB039B002B05D021001A000C317C
:10497000002001F0ABFC0023354D364C2B80029813
:104980000C33238001F006FE334E344833789A000E
:104990009B1A53332B803B789A009B1A2D3323802C
:1049A0002F4B1B68DB0600D42E4801F0FFFD337847
:1049B0002D489A009B1A53332B8023880133238080
:1049C0002A4B1B88002B00D1294801F0EFFD224B18
:1049D00005201B789A009B1A53332B8023880133C0
:1049E0002380FFF74FF8002807D002F009FA0130C2
:1049F00000B202F0ABF902F0A1F90420FFF742F88F
:104A0000002807D1049B164A1B78126893428AD863
:104A1000FF2B88D0FF23049A0020137001F088FF39
:104A200002F084F90123059A137007B0F0BDC04667
:104A3000A0CD000070060010280100104E060010E6
:104A4000240100100409001071060010F506001082
:104A5000180900100C0900100E090010D1D7000031
:104A60006C060010D5D70000D9D70000922900109D
:104A7000DDD7000010B501000148FFF733FF10BD7E
:104A80008BC6000010B503F0E7FD10BDF0B50600C1
:104A900005A80025455F06A80024045F07A8002795
:104AA000C05F9219844608A80027C75F002095427E
:104AB0000BDA6544AE4208DA5B189C4205DA3C1911
:104AC0000123A14200DB031CD8B2F0BD10B502489F
:104AD00001F0C8F810BDC0467406001070B50F4D47
:104AE00006002B780C00102B0BD030002C70FDF73B
:104AF00085FE041E0DD13100094804F017FB20008B
:104B00000AE0084809F0B6FA03000120002BECD0B7
:104B100002E0082301202B7070BDC0461C0100106C
:104B2000D00600108806001013B56B469C1D2200AD
:104B3000FDF794FE208816BD10B5074B002804DA57
:104B4000DA6941428A4200D25042DB69C018FDF75F
:104B5000E7FE024B187010BD88060010DF0600103B
:104B600010B50020FDF7DCFE014B187010BDC046EB
:104B7000DF060010034B10B5186AFDF7D1FE024B9B
:104B8000187010BD88060010DF060010014BD869B0
:104B90007047C046880600100123812213B5074CD8
:104BA0005B4200935201064B06492000FEF7B0F825
:104BB000054A06492000FEF705FA13BDB8060010A5
:104BC000180C00002412000000010010012D00004C
:104BD000031C042800D90423014A13707047C046FF
:104BE000FC06001010B5002002F0E8FB0023024A8A
:104BF0001380024A138010BD180900100C09001020
:104C000010B502F0DBFB10BD064B10B51B880F2B57
:104C100004D8054C5B001B5B934201D002F03AFDC7
:104C200010BDC0462E0100100007001013B504ACE3
:104C30002488009402F05EFD13BD10B502F01EFC46
:104C400010BDFFFF024B1880024B19807047C04611
:104C5000180900100C090010F0B58FB00B9114A9C1
:104C600009780A90089111780591517802320991DA
:104C70000092012B76D1059B0733DB100C936B461A
:104C80001B8D07930493002303936B460C21595EFD
:104C9000059B8B4200DCF0E00723CA171A4052182C
:104CA000D21053B20A93764B0B4004D50822013B35
:104CB00052421343013380221BB21A416B469B8D33
:104CC0000D9206930293002301936B4604229B5E90
:104CD000099A93423EDA0C9A0A995343009A521861
:104CE000D35C0D9A1A422DD0089B664C012B09D13A
:104CF000069B019903985918079B2288181809B236
:104D000000B21DE06B461027DF5F6B4608269E5FF2
:104D1000228831003800FFF777FF049B31005D1CCB
:104D20002DB222882800FFF76FFF029B22885E1CAD
:104D300036B231003800FFF767FF310028002288C3
:104D4000FFF762FF019B01330193029B02339BB289
:104D50000293BAE7039B01330393049B02339BB294
:104D6000049392E7042B00D087E00023099A934232
:104D700000DB82E09BB202936B469B8D002507937C
:104D8000029B079A5B00D3189BB21AB201331BB285
:104D900004936B461B8D039206930193059BAB42D4
:104DA00067DD009B384A1B7812681B115B009E5A16
:104DB000089B022B19D1069B6C001C19A4B227B2C8
:104DC000013432000399380024B2FFF71DFF32008E
:104DD00003992000FFF718FF320004992000FFF725
:104DE00013FF32000499380007E0029B079A9918D4
:104DF0006B4632000420185E09B2FFF705FF0F2250
:104E0000009B1B781340204A5B0012689E5A089B47
:104E1000022B1AD1069B6C001C19A4B2A71C3FB22E
:104E2000033432000399380024B2FFF7EDFE32005C
:104E300003992000FFF7E8FE320004992000FFF7F5
:104E4000E3FE32000499380007E0029B079A9918A4
:104E50003200019B09B2581C00B2FFF7D5FE009B3F
:104E6000023501330093019B2DB202339BB20193B3
:104E700094E7029B01331BB278E70FB0F0BDC04648
:104E8000070000801E01001008090010F0B5130093
:104E9000574A8DB014680F00627811000192F72212
:104EA00008390A40511E8A410199C91052180892C6
:104EB000089922784A43511C4B431A00A2181279D0
:104EC000053352B2099282B20B9206920022E31885
:104ED00005926A46127D099952B2914200DC7CE04B
:104EE00008991A78022903D00133079393B204E09A
:104EF000991C5B7807911B02134300240293059BC6
:104F00000B9A5B00D3189BB21AB201331BB2039207
:104F10000493019BA34257DD0122029B134217D049
:104F2000344B1B78022B07D16500ED19ADB2324E20
:104F30002BB20A9332881AE06946304B18254D5F30
:104F40001A782D4B002A01D01A882BE01A8830E0FD
:104F50002B4E2C4B32881B8893422FD0254B1B782D
:104F6000022B18D16500ED19ADB22BB20A931900CE
:104F700003980135FFF748FE2DB232880A9904984C
:104F8000FFF742FE328829000398FFF73DFE328882
:104F90002900049810E06946184B18254D5F1B78CE
:104FA000002B06D0019B2900581EC019031B18B204
:104FB00002E02800E11909B2FFF726FE029B013446
:104FC0005B08029364B2A4E7059B01330593069B3B
:104FD00001339BB20693079B7BE700200A4B1856D0
:104FE000099BC018034B1B7858430DB0F0BDC04659
:104FF00014090010280100101E0100108009001083
:10500000820900102E01001029010010F8B5264970
:10501000264F09783B88264CDAB2264E264D0129C8
:1050200003D1FE31002B35D12FE0022907D1032314
:105030001A401100930019430A0111432AE0032981
:1050400023D1FC22023919405200002900D0FF214F
:10505000206803F03AFF0223FC2220683988F930E7
:105060001940FF305200002900D0FF2103F02DFF2E
:1050700004233988FC221940FC2320689B00C018B7
:105080005200002909D0FF2107E00F210B40110138
:105090001943C9B280222068920103F016FF002351
:1050A00033802B80F8BDC04623010010100900108A
:1050B000F8060010180900100C09001010B500289F
:1050C00005D1064B1968064B186802F077FB054BB3
:1050D0001B78002B01D1FFF799FF10BD08090010C4
:1050E000F80600100409001010B5024801F0F6FAA5
:1050F00010BDC04642D500000F231840014B188058
:105100007047C046260100100F23034A1840108044
:10511000024A0B401380704726010010100900104E
:105120001E4BF7B51B88934236D01D4B1C7883B2BB
:105130009C4231D91B4B1C788BB29C422CD9072343
:10514000CC17234054245B18DB106343C018164B64
:10515000194004D5082301395B4219430131012468
:10516000230009B28B40FC215BB2DF43C9000F4D25
:105170004618019401990A4204D129680C18217833
:10518000394003E029680C1821781943F930FF30C1
:1051900021705208B042EDD1F7BDC0462E0100107B
:1051A0002C0100103001001007000080F8060010EC
:1051B000F0B513004B4A8DB00B90106808914278FF
:1051C00011000492F72208390A40511E8A410499BD
:1051D000C91052180A920A9902784A43511C4B434B
:1051E0001A0082181279053352B205920022C318B0
:1051F00003926A46127B059952B2914266DD0A9982
:105200001A78022903D00133099393B204E0991C60
:105210005B7809911B02134300936B469B89002521
:1052200006936B469B8D0793069B079A5B00D318EA
:105230009BB21AB201331BB201920293049BAB42A0
:105240003FDB294B1B78022B24D10122009B6C00F1
:10525000134205D0089B254EE418A4B227B204E0FF
:10526000089B234EE418A4B227B232783900019883
:105270000134FFF755FF24B2327839000298FFF766
:105280004FFF327821000198FFF74AFF3278210062
:1052900002980EE00122089BE918009B134201D0FE
:1052A000124B00E0124B1A780798069B09B21818A7
:1052B00000B2FFF735FF009B01355B0800936DB22C
:1052C000BCE7039B01330393099B92E70020064B45
:1052D0001A78084B1856059BC018022A00D14000C6
:1052E0000DB0F0BD140900102801001026010010B7
:1052F0001009001029010010F0B5174B00221C788E
:1053000083B29C4225D9154B1C788BB29C4220D984
:10531000134B07321C68CB1713405B18DB104D3260
:10532000534318180F4B194004D5082301395B4229
:10533000194301310025FC232A00012709B2DB00B3
:105340002618765DF9350E41FF353E4032439D42C9
:10535000F6D11000F0BDC0462C0100103001001045
:10536000F806001007000080F7B5214B05001A78F9
:1053700083B20C009A4239D91E4B1A788BB29A42EA
:1053800034D91D4B1B78FF2B04D1FFF7B5FF4342E7
:105390004341DBB20722E01710400019C0104D3224
:1053A000504316492818214003D501395C3A11436E
:1053B00001310124220009B28A40FC2152B2D743B4
:1053C000C9000F4D4618019401990B4204D1296878
:1053D0000C182178394003E029680C182178114312
:1053E000F930FF3021705B088642EDD1F7BDC04631
:1053F0002C01001030010010260100100700008071
:10540000F8060010F0B585B0019313000C0000926F
:1054100000229A5E0021435E05009A4204DA2300CE
:10542000009D019C009001930023EE5E444B1B788D
:1054300002939E4201DB00277FE0002E15DA009BDD
:105440000021595E0029F6DB0023E75E019B891BE2
:105450000020185E7642C01B000403F00DFF0023FD
:1054600070430014C71927802B80009B00269E5F85
:10547000029BB34215DC019B0027DF5F0023E05E47
:105480000023E95E381A711A000403F0F5FE029B4E
:10549000019A013B9E1B70430014C7191780009AA4
:1054A0001380019B00229A5E0021635E9A4205DA16
:1054B0002300019C01932B00009D00930023E65ED6
:1054C000204B1B7802939E42B5DA002E15DA019B21
:1054D0000021595E0029AEDB0023EF5E009B891B93
:1054E0000020185E7642C01B000403F0C5FE0023B6
:1054F00070430014C7192F802380019B01270026C9
:105500009E5F029BB34218DC009B00229B5E0393CC
:105510000023E85E039B181A0023E15E0004711A61
:1055200003F0AAFE029B039A013B9E1B70430014EA
:105530008018009A1080019A1380380005B0F0BDE1
:105540002C0100103001001070B50F4B15001B78B6
:105550008AB20600934202D8AAB2934212D90B4BE8
:105560001A78B3B29A420DD9A94202DD0B00290084
:105570001D000C00A54205DB21B23000FFF7F4FE50
:105580000134F7E770BDC046300100102C01001057
:1055900070B50F4B16001B7882B20D00934202D8F3
:1055A0008AB2934212D90B4B1A78B3B29A420DD9F0
:1055B000A84202DD030028001D000400A54205DB0F
:1055C00020B23100FFF7D0FE0134F7E770BDC046CE
:1055D0002C01001030010010F0B589B006ACA61DFA
:1055E00007AC218006A90B803D4B8D1C2A801A78C0
:1055F000308080B2904219D23A4B21881B78994270
:1056000014D22988914211D206AA12889A420DD248
:105610000023F05E0023E95E884210D106AB002231
:105620009A5E0023E15EFFF78FFF56E006AB2A008B
:1056300021003000FFF7E6FE0028E9D14DE000230D
:10564000E25E06AB00241B5F9A4202D1FFF7A0FF87
:1056500043E005001600884203DD441A0121494257
:1056600001E00C1A012103919A4203DDD21A0123B1
:105670005B4201E09A1A0123019300230293A242A4
:1056800004DD230014001A00012302935300049345
:105690001F1B6300059300230093009B9C421CDBAF
:1056A00031B228B2FFF760FE002F09DB029B012B0D
:1056B00002D1039BED1801E0019BF618059BFF1A30
:1056C000029B012B02D1019BF61801E0039BED1810
:1056D000049BFF18009B0133DEE709B0F0BDC04614
:1056E0002C0100103001001010B5002A04DA92B22B
:1056F0005118524209B212B28A1812B2FFF724FFAF
:1057000010BD10B50B00002A04DA92B210185242F4
:1057100000B212B28218013A11B21A00FFF738FF34
:1057200010BDF8B5060014000F00CB181DB23419D7
:105730002A0024B2FFF708FF2A0039002000FFF7F3
:1057400003FF3A0030002100FFF722FF2A0030005B
:105750002100FFF71DFFF8BDF8B58218CB18050032
:105760000C0012B21BB2002801DA002A2DDB174907
:1057700009788D4201DB914227DD002C01DA002BF4
:1057800023DB134909788C4201DB99421DDD9542E8
:1057900002DC11002A000D009C4202DC19002300EB
:1057A0000C00161C002A00DA002636B2191C002B49
:1057B00000DA00210FB2AE4207DA300022003900D1
:1057C0000136FFF7C1FE36B2F5E7F8BD2C01001037
:1057D00030010010F0B5030085B0002879D03E4AB2
:1057E0001478A04201DB631E1BB23C4A10780428E7
:1057F00007D13B4A11785943CA0F5118491089B251
:105800000AE0022865D10321354A12785A43D51798
:1058100029408A18921091B2324A15880195324D6A
:105820002D8815802E4A002B28DD1278E31AD50822
:10583000684300252E0002900393039B9D4216DAD5
:10584000891B89B233008C466146981B80B20700E1
:105850000298591889B2874205DA244F581C795C9E
:10586000F95483B2F0E70135ADB21E00E5E72049F7
:1058700023B20020095E12B2002024E01278A4B204
:105880005043C010029000209DB20394039CAC4290
:1058900016D9401A80B20C0084466046661AB6B229
:1058A0003700029E001980B2B74205DA0F4F661C1E
:1058B000385C3855B4B2F0E70135ADB22100E5E708
:1058C0000021080012B2FFF747FF6A46054B928895
:1058D0001A8005B0F0BDC046300100102301001051
:1058E0002C0100102601001010090010870900107B
:1058F0000C09001010B5FFF72FFF10BD10B5FFF712
:1059000010FF10BDF0B587B004936B4601240092E0
:105910001B880290E21AA3405B4212B21BB20391B1
:1059200001920593631E009A1BB29A4267DD019BA8
:10593000002B0CDB1300013B1BB20093059B0233D1
:105940009BB21AB20592019A9B181BB20193019A5D
:10595000630001339B1804221BB20193049B134282
:105960000FD06B461F899D891E883819A91909B265
:1059700000B22D19BE19FFF7F7FC29B230B2FFF7BC
:10598000F3FC0222049B13420FD06B461F899D89B2
:105990001E88E019A91B09B200B2FFF7E5FCBE1989
:1059A000291B09B230B2FFF7DFFC049B1B070FD5A0
:1059B0006B461D891F889E89E81BA11909B200B298
:1059C000FFF7D2FCBE19281B31B200B2FFF7CCFCA6
:1059D000049BDB0702D40134A4B2A3E76B461D8904
:1059E0001F889E89E81B311B09B200B2FFF7BCFC7F
:1059F000F61B281B31B200B2FFF7B6FCEBE707B08D
:105A0000F0BDF0B58BB01600089393B20122079059
:105A1000D01A93405B421BB206938BB20493013BB6
:105A20009BB2029310AB1B8800B2059302339BB26A
:105A300001930023009003930992039BB3425ADA27
:105A4000009B002B0ADB069B013E02339BB21AB27D
:105A50000692009A36B29B181BB20093039C009AE0
:105A60000134A4B223B20393630001339B181BB229
:105A70000093099A089B134217D06B46B5B29F8BCF
:105A8000059B6A009A18049B3819591B12B209B277
:105A900000B2FFF729FE6B4604229A5E6B467D1921
:105AA0000821595E28B2FFF71FFE0222089B13420D
:105AB00008D1029B013B9BB20293019B02339BB234
:105AC0000193BAE76B46B7B29D8B059B7A009A1893
:105AD000049B281BD91B12B209B200B2FFF704FEC7
