:1000000000800010FD0000002316000025160000EF
:10001000000000000000000000000000BB52FFEFE5
:100020000000000000000000000000002716000093
:1000300000000000000000002916000069540000C4
:1000400021160000211600002116000021160000D4
:1000500021160000211600002116000021160000C4
:1000600021160000211600002116000021160000B4
:1000700021160000211600002116000021160000A4
:100080002116000021160000211600002116000094
:100090002116000021160000211600002116000084
:1000A0002116000021160000211600002116000074
:1000B000211600002116000021160000000000009B
:1000C000689E000000010010B0000000689E000063
:1000D0000000002000000000689E0000004000209A
:1000E00000000000B001001050530000000000208C
:1000F00000000000004000200000000010B5104C7F
:10010000104B9C4206D2A2686168206801F08DFA0B
:100110000C34F5E70C4B9C4205D26168206801F075
:100120008DFA0834F6E701F0E5F9084B002B02D010
:1001300000E000BF03E005F053FB00F07DF8FEE7B0
:10014000C0000000E4000000FC000000000000000F
:1001500010B5064C2378002B07D1054B002B02D09D
:10016000044800E000BF0123237010BDB00100105F
:1001700000000000689E0000084B10B5002B03D063
:100180000749084800E000BF07480368002B00D17A
:1001900010BD064B002BFBD09847F9E7000000008C
:1001A000B4010010689E0000B001001000000000C3
:1001B00070B5037904000848002B00D1074801F00E
:1001C000E5FA051C206806F071FC291C06F0B2F95E
:1001D00006F04AFC70BDC046A5540010A45400109F
:1001E00037B503790400002B04D0114801F0CEFA92
:1001F000051C13E000250F49684601F06DFA6846BA
:10020000019501F0C3FA01900198291C05F000FD49
:10021000002802D1013001F04EF9019D206806F05E
:1002200045FC291C06F086F906F01EFC3EBDC046C2
:10023000A454001030180000F0B585B002F060FD45
:100240009B4804F093FA0F2003F0DEFA022101200C
:1002500003F0CEFAB02402F0E1FC002800D124E142
:1002600000220094DC231100100002F009FE002897
:10027000F1D0002600238F4C8F4D904A20002E6035
:100280001360FFF7ADFF0396502801DD8C4B2B6008
:100290002000FFF7A5FF132801DC8A4B2B602D6897
:1002A0000021281C05F0CEFC0223002806D10021E5
:1002B000281C05F0B3FC002802D001237F4A1360FC
:1002C000814E291C306805F0F5FD804D039B3060A0
:1002D00020002B60FFF76CFF502801DD7C4B2B606A
:1002E0002000FFF765FF132801DC7A4B2B602E6896
:1002F000794D311C286806F031FA00212860071C6E
:10030000301C05F09FFC754C002805D0FE212068AC
:10031000890505F0CFFD0AE00021301C05F07EFCC8
:10032000002805D0FE212068890506F017FA206014
:100330006B4E381C311C05F071FC002800D02E607B
:10034000684E2868311C05F07DFC002800D02E6026
:10035000654D2068291C05F075FC002800D025603B
:1003600000252068291C05F059FC002800D02560D4
:1003700020277F42380006F099FB5C4C5C4D26003C
:100380002968029005F096FD06F06EFB8736FF3671
:10039000320000B2002104F087F8822329689B0014
:1003A0000298E61805F086FD8321C90505F082FD57
:1003B00006F05AFB203700B23200002104F074F836
:1003C000E02FD7D120267642300006F06FFB296857
:1003D00005F070FD270006F047FB823700B23A00B7
:1003E0001021103604F060F8E02EEDD1013EFF3E02
:1003F000300006F05BFB296805F05CFD06F034FB7D
:10040000103600B22200902104F04EF8E02EEFD119
:1004100020277F42380006F049FB354C061C216836
:1004200005F048FD06F020FB324A00B2A0212F4D16
:1004300004F03AF8822321689B00301CED1805F087
:1004400039FD8321C90505F035FD06F00DFB203788
:1004500000B22A00A02104F027F8E02FDAD11F4BC8
:100460002068196805F026FD8421C905051C05F0E2
:10047000F3FB002801D1256001E0039B23600F4BB3
:100480001B685C005B02E3181B4CE4180E4B1868F9
:1004900006F0EAFA104B05B2186806F0E5FA2200F9
:1004A00000B2290004F000F8D4E605B0F0BDC04663
:1004B000AE80000040010010D8010010E0010010E3
:1004C00000004040000040C008010010D4010010AE
:1004D0000000E0400000E0C004010010D001001066
:1004E00000009242000025430000C0419A7B0000BA
:1004F000CC010010207D00009475000010B5034869
:1005000001F0F6FE024803F099FC10BDDC0100107A
:10051000DD010010022307490A7806481A42FBD081
:10052000FF22054B1A70FB3A01781142FCD0187873
:10053000C0B270470C000440080004400223074981
:100540000A7806481A42FBD0FF22054B1A70FB3A84
:1005500001781142FCD01878C0B270470C000440FA
:100560000800044010B50100014800F08FFE10BDE6
:1005700090020010F8B543B204000D00002B07DA1A
:1005800000217720FFF7F6FF012831D87F231C4098
:10059000A026882380279B013606F750FFF7BAFF75
:1005A0008A239B01F750FFF7B5FF2000FFF7DAFF22
:1005B000280EFFF7D7FF280CC0B2FFF7D3FF280A99
:1005C000C0B2FFF7CFFFE8B2FFF7CCFF9520402C79
:1005D00003D09438482C00D18630FFF7C3FF0A249B
:1005E000FFF798FF030603D5013CE4B2002CF7D1D6
:1005F000F8BDFFFFF8B51D002F4B07001B78160054
:100600001B0700D449025120FFF7B4FF002801D096
:10061000012447E0294CFFF77DFFFF2804D1013C6E
:10062000A4B2002CF7D1F3E7FE28F1D1244C641BCF
:10063000A41BA4B2002E06D1224B002F1AD02248B0
:100640000426007811E0013EFFF778FFB6B2F1E72B
:100650001E4A10701A783242FCD01C4A013D1278B2
:10066000ADB23A700137002D16D002211A780A4235
:10067000FBD0EDE702210427134A144816781A78B4
:100680000A42FCD006701A783A42FCD00F4A013D6B
:10069000ADB21278002DF2D1013CA4B2FFF74EFFAB
:1006A000002CF9D18823A02280219B011206D15071
:1006B000FFF730FF2000F8BDE601001030750000A4
:1006C000020200000C000440CE800000080004403C
:1006D000144B10B51C880234A4B2002C04D00020A6
:1006E000FFF740FF013CF7E7FFF714FF1F2301244A
:1006F000184005280CD10C4CFFF70CFFFF2804D044
:10070000002C02D0013CA4B2F6E763425C41E4B2A3
:100710008823A02280219B011206D150FFF7FAFE08
:10072000200010BDE4010010E8FD000073B588232F
:10073000A0258024404E9B012D06EC503F493000FF
:1007400000F09AFD00220821300000F089FD84238A
:100750009B01EB58234201D1FFF7BAFF6425013D0D
:10076000EDB2FFF7D7FE002DF9D129004020FFF7A9
:1007700001FF0400012848D1D52148204900FFF796
:10078000F9FE012815D1FFF7C5FE01AC285501354A
:10079000042DF8D1A378012B37D1E378AA2B34D1DB
:1007A000274D8021E920C905FFF7E4FE011E11D184
:1007B00015E02900E920FFF7DDFE4126012801D8D8
:1007C0000224E9261F4D00213000FFF7D3FE002848
:1007D00017D11CE0013DADB2002D16D0E1E77A2023
:1007E000FFF7C8FE002810D10500FFF793FE605503
:1007F0000135042DF9D123780C245B060ED42C008E
:100800000CE0013DADB2002DDDD1002406E08021D9
:1008100050208900FFF7AEFE0028F6D10A4BA02237
:100820001C70882380219B011206D150FFF772FEB5
:1008300060426041C0B276BD90020010002D3101CF
:10084000E02E0000A8610000E6010010064B1A68C7
:10085000831ED168002002398B4203D25078434373
:10086000906918187047C046E80100100F4B10B58A
:100870001A6800230380836804001800012B13D03A
:10088000D16801208B420FD2002B03D111780329AC
:1008900000D15369E360002B03D01800FFF7D6FFA7
:1008A00000E050692061002010BDC046E801001042
:1008B000F0B5040085B0012854D92C4B1D68EB68B5
:1008C00098424FD22E78022E32D0032E38D0012EED
:1008D00048D181B24B08C91889B24B0A0193244B05
:1008E000CA05D20D296903AF9A4204D0019B380092
:1008F000591802230EE0019B380059183300FFF706
:1009000079FE021E2ED12969019B0131C9183300DD
:1009100002A80530FFF76EFE002823D17B783878D7
:100920001B0203431811E2071DD41805000D1AE03D
:100930002B69C2B2010AC918520003AD330007E0A7
:100940007F22042329690240C4099200611803AD83
:100950002800FFF74FFE002804D168782B780002AA
:10096000184300E0012005B0F0BDC046E8010010CA
:10097000FF01000070B5048805000134A4B2002C0A
:1009800001D1032322E00369002BFAD022071BD1F7
:1009900001330F4A0361C0681668002803D1B38889
:1009A000A342EED910E073782209013B1A420BD121
:1009B000FFF77EFF0123984208D9F3689842E0D2FE
:1009C000E860FFF743FF286100232C80180070BD0A
:1009D000E8010010FF2270B50223520004000D0050
:1009E000FFF708FE032300282AD162782378120239
:1009F0001A43144912B202238A4221D13622290015
:100A00002000FFF7F7FD002809D1637822781B0248
:100A100013430D4A1BB2934201D1002310E002237D
:100A2000522229002000FFF7E5FD002807D1637856
:100A300022781B021343044A1BB29342EDD00123D8
:100A4000180070BD55AAFFFF46410000F7B504002D
:100A50000D002B78202B01D10135FAE72F3B5A42AC
:100A600053410027ED18A7602B78202B01D901975F
:100A70002EE02000FFF7FAFE404B06001B689B6843
:100A80001F7078E0009B1B78002B68D00822009B29
:100A9000DB7A13405BD162680099581CC95CD35C57
:100AA000994254D103000B28F6D1D37A002B62D19E
:100AB0003B689868C37ADB0656D5437D017D1B02EF
:100AC0000B43C27E1904837E120213430B43A360BF
:100AD0006068020003000B32934203D10022082118
:100AE000130013E0202119700133F5E72F2B12D0EA
:100AF0002E2B3BD091420ED91F00613F192F01D8F8
:100B0000203BDBB2571C8354FAB233005E1CEB5C13
:100B1000F6B2202BEAD8AD192026019A9E42524106
:100B2000C2722000FFF7A2FE061E16D1134F3B68CB
:100B30009B6800930F23228821691A4052011133C8
:100B40000098FFF757FD00289CD0012613E02000F5
:100B5000FFF710FF0028EDD00600032E0BD16368CD
:100B60000326DB7A002B06D1042604E00829D2D123
:100B70000A000331C9E73000FEBDC046E80100109D
:100B80000022F0B5504B8DB006001A60904200D1A3
:100B900097E0FFF7CBFD0123184005000220002D50
:100BA00000D08EE003AF29003800FFF713FF0128C3
:100BB00014D1DF221023520029003800FFF71AFD5C
:100BC000002801D001207CE03B79002B01D10720D7
:100BD00077E0059D38002900FFF7FCFE0328F1D0DF
:100BE0000028F4D124230D2229003800FFF702FD4C
:100BF0000028E7D1BC7A7B7A24021C430ED102ABD9
:100C00001B30C0184378017884781B020B432404FE
:100C10001A002300C478134324061C43FB78B878D9
:100C20005C437B780002184339782D183561717068
:100C30007A793B7912021A436B4601929B88B38002
:100C4000FB79BF791B023B430ED102AA17339B18D5
:100C50001F78BC4662465F783F0217439A78DB787C
:100C6000120417431B063B43019A181A1709001B6D
:100C7000C01B04F0F7FE154A0230F06001239042D9
:100C800004D9134A82429B415B4202333370032BE7
:100C90000ED102AA20339B185A7818781202024308
:100CA00011009A78DB7812040A431B06134300E014
:100CB000631900207361ED19034B2C19B461B070F6
:100CC0001E600DB0F0BDC046E8010010F60F000038
:100CD000F6FF000070B5164B01001C6890B00620AE
:100CE000002C23D00023A3706B4608ADA56003A899
:100CF0000493FFF7ABFE002818D12B780330002BAC
:100D000014D01023EE7A1E4010D16B7D297D1B027A
:100D1000EA7E0B431904AB7E120213430B4363625A
:100D20000F9B300023620123E661A37010B070BDF9
:100D3000E80100102F4BF7B51C68002307000D00D9
:100D40000192138006209C4253D0A3780138DB0720
:100D50004FD5236AE2699B1A8B4200D29DB200975D
:100D6000002D45D0E669F3051BD1700A617804F0C7
:100D7000FFFE00290BD1002E01D1606A02E0A06ABB
:100D8000FFF796FD01282FD90023A062E370A06A27
:100D9000FFF75CFD002827D0E3785A1C1818E27092
:100DA000E062E3692E1CDA058023D20D9B009B1ABA
:100DB0009BB29D4200D91E1CB6B2381E00D00098CE
:100DC0003300E16AFFF716FC00280DD1E369AD1B83
:100DD0009B19E361009BADB29B190093019B1B889B
:100DE000F618019B1E80BBE700230120A37000E0E2
:100DF0002800FEBDE8010010294BF7B51C6806234A
:100E0000002C4AD0A278013BD20746D5256A8542FC
:100E100000D905000022E369E261954238D0667886
:100E20007602002B12D03100681E5F1E04F01AFEFD
:100E300031000190380004F015FE019B834205D378
:100E400073423B40E361ED1AA06A01E0606AA06270
:100E5000B5420CD9FFF72CFD01281BD9E368984255
:100E600018D2E369A0629B19E361AD1BF0E7E36967
:100E70005B19E361FFF7EAFC00280BD06B0ADAB2DA
:100E8000ED0501D1E27003E00132C318E270E362C4
:100E9000002302E00023A37001331800FEBDC0460A
:100EA000E801001030B5154B04001B688DB006201A
:100EB000002B20D004AD9D6001AB63602000FFF7E4
:100EC000C5FD002815D12B78002B0FD0EB7ADB065F
:100ED00001D404200FE06B7D297D1B020B43EA7EC9
:100EE0001904AB7E120213430B43A3602000FFF7EB
:100EF000BDFC0328EDD00DB030BDC046E8010010A8
:100F000010B513000A000100014800F003F810BDFD
:100F1000CF8000000FB404B07047FFFF036870B5C6
:100F200004000D00013304D1242206490648FFF7CE
:100F3000E7FF6368002D01D0E26800E022691360DA
:100F400070BDC046008100004A81000070B50D00F0
:100F50000400160000F070FC6B1C07D0002120007C
:100F600000F092FC3100200000F088FC70BD10B54C
:100F70000122FFF7EBFF10BD70B50D000400160055
:100F800000F05AFC6B1C0BD031002000FFF7C6FFAD
:100F90000121200000F078FC0021200000F06EFC10
:100FA00070BD10B50022FFF7E7FF10BD10B50400BB
:100FB000034B083303601C3000F040FD200010BDDF
:100FC0006481000010B50400FFF7F0FF200000F07E
:100FD0003FFB200010BDFFFF036810B50400013384
:100FE00004D12C2205490648FFF78AFF636960682F
:100FF0001B681840431E984110BDC0460081000088
:101000004A81000070B5050004000E4B0E00083345
:1010100008C528001822002104F01CFC0023200031
:101020003100E36123626363A363E364064A230040
:101030001C3000F0A1FC28003100FFF798FF2000D1
:1010400070BDC04664810000B110000010B50430CE
:10105000FFF7C2FF10BD03000A0010B51C300121CC
:10106000002A04D01A6200225A630132110000F0F3
:10107000F9FC10BD030010B50A001C30002903D094
:1010800000229963DA640132022100F0EBFC10BD0A
:10109000436910B50100002B04D10368002B06D072
:1010A000984704E00068002801D00431984710BD3B
:1010B00010B5012903D0022904D1383000E02030D6
:1010C000FFF7E6FF10BDFFFF10B50400431C12D070
:1010D0000B685A1C0CD09C4208D12000896800F093
:1010E000E7FC0021200000F0FFFC04E00C31EFE7FA
:1010F0000148FFF70FFF10BD7481000010B5030019
:1011000088420AD00B00421C07D003004A1C04D0BE
:101110000348FFF7FFFE01235B42180010BDC046E5
:10112000858100000B685A1C05D0834201D14868B4
:1011300002E00C31F6E718007047FFFF10B504001D
:10114000431C07D0FFF7EEFF0400431C02D1024806
:10115000FFF7E0FE200010BD968100007047FFFF02
:10116000074A13681818EFF30881884205D30C2248
:101170000120044B40421A6001E0106018007047E3
:101180000C010010FC540010064B10B51B68040045
:10119000002B00D09847044B1B68002B01D0200087
:1011A000984710BD100100101C010010094B10B52C
:1011B0001B680400002B04D09847002801D1FFF7DA
:1011C000E3FF054B1B68181E00D09847002C00D089
:1011D000206010BD1401001018010010704710B5F8
:1011E000040000F035FA200010BDFFFF73B50400C5
:1011F0000E480025083020600820E0600C48261DBD
:10120000606106986560257225610090300000F0ED
:10121000E1FD2B0030002269E16800F05BFE300048
:10122000616900F08DFE200076BDC046D4810000CB
:1012300040420F0070B5094D04002B6883420BD06B
:10124000061D0269C1680023300000F043FE616999
:10125000300000F075FE2C6070BDC046EC0100103F
:101260000261002210B5034BC1601A60FFF7E2FF74
:1012700010BDC046EC010010002210B5024B4161C8
:101280001A60FFF7D7FF10BDEC01001070B50D001C
:101290000400FFF7CFFF2900201D00F095FE70BD70
:1012A00010B5040043684269991800F0D3F8E36A66
:1012B000002B04D1A369002B07D0984705E0A06953
:1012C000002802D021001C31984710BD10B5040041
:1012D00000F0C8F80023A361E36210BD10B504005C
:1012E000044B08330360FFF7F1FF200000F0C0F863
:1012F000200010BDE881000010B50400FFF7EEFFEC
:10130000200000F0A5F9200010BD70B504000D000C
:1013100003681B68984763681D6070BD036870B5FB
:10132000DB680400984763685A682368002A02D182
:101330009B68984713E05B681568984763682D1AA7
:101340005A68002D07DC916859601B68002BEAD0B1
:1013500050689847E7E7236810681B69984770BD95
:1013600070B50D0072B64B60002346680A60746861
:10137000002C05D02168511A02D42300A468F7E795
:10138000002B05D1036875601B691000984700E0C9
:101390009D60AC6062B670BD10B572B642685368AD
:1013A0008B420CD19B6853600268002B02D193687A
:1013B00098470BE012691868904707E01300002B6C
:1013C00004D09A689142F9D18A689A6062B610BDD9
:1013D000C36A10B50100002B04D18369002B06D02D
:1013E000984704E08069002801D01C31984710BD5F
:1013F00010B50400044B0360FFF768FF200000F005
:1014000037F8200010BDC046F081000010B5040080
:10141000FFF7EEFF200000F01BF9200010BD10B513
:1014200003689B68984710BD084B10B508330360EC
:10143000002343608360C360040000F025F8044982
:101440002061FFF762FF200010BDC046108200003F
:101450001F14000010B50A000300011D0069FFF70A
:101460007FFF10BD10B5011D0069FFF795FF10BD8E
:1014700010B50400034B08330360FFF7F3FF2000AF
:1014800010BDC0461082000000487047388200003E
:1014900010B50248FFF742FF10BDC0463882000079
:1014A00070B5040000F0CCFD050000F0C9FD401B44
:1014B000A042FAD370BDFA2310B59B005843FFF742
:1014C000EFFF10BD70B50A4CA568A3682A00002B79
:1014D0000AD180225E5952059A1804331660C02B37
:1014E000F7D180225205A26010308000815070BD7B
:1014F00000ED00E07FB580203F494002CA6F8E2496
:101500000243CA672522002020253C4B3C499A60B3
:10151000243A0A603B49A4000A60186219593A4A01
:10152000114001910199A943C825019101992D020A
:1015300029431951009035480099814204D8C0468A
:10154000009901310091F7E70121002019645964E5
:10155000586459645C6C29480C42FBD08E2180266B
:10156000C825890044582D0214400394039C344339
:101570000394039C2C434450252484604458224007
:101580000292029CB4430294029A2A4342500120E0
:10159000DC681A4901220442FAD0032008670020BF
:1015A0004A67486710004A675C6F144A0121044289
:1015B000FAD08E20916780001558154C2C4014509D
:1015C0001558144C2C40145000209164D164D06400
:1015D000D164DA6C0A42FCD02521084A116101224B
:1015E00059691142FCD000220B4B1A601A600B4B58
:1015F00001321A607FBDC046048004400080044070
:10160000F0400440F4400440FF250000C3090000FE
:10161000FFFBFFFFFFFEFFFFC0800440C8800440C7
:1016200070477047704770477047002310B593426A
:1016300003D21C585C500433F9E710BD00231A0094
:101640008B4202D21A500433FAE7704700207047E9
:1016500010B504F0F5F810BD13B501210F4B9A68D1
:10166000120B12039A6002789C68914021439960A2
:1016700099680B48014399601869084901900198DD
:101680000028F9DA08329200535801938B685B0006
:101690005B088B6001980004000D16BD00C001407E
:1016A0000000088470B50600FFF7D6FF0400300084
:1016B000FFF7D2FF05003000FFF7CEFFAC4202D9A2
:1016C00023002C001D000300A84200D92B0020009D
:1016D0009C4200D2180070BD73B50C00214D06006D
:1016E00029002000FFF72AFDC0B23070FF2804D186
:1016F00035221D491D48FFF703FC20002900FFF794
:10170000E3FC80221A4BE405E40DE4182368194930
:101710009343B9322360FF328858174B034010209F
:101720000193019B8343C8200193019B0002034363
:101730008B508021114A8901D36F0B43D367104B23
:101740001049186804F08EF98023DB051A0001386F
:10175000C0B20D49184308600B681340FCD10A4A17
:10176000136073BDA4820000408200008B820000E1
:101770000040044000800440FF2500000480044035
:101780002001001020A1070000C0014010B5FFF7A4
:1017900089FF05F0D3F9024904F0CCFE10BDC04624
:1017A0000108803910B50400431C04D11E221749DA
:1017B0001748FFF7A5FB174B1A68002A06D101321C
:1017C0001A60154A1549D36F0B43D3670122002CC9
:1017D00012D0134B9C420FD0124B9C420CD0124B98
:1017E0009C4209D0114B9C4206D0114B9C4203D025
:1017F000104BE1184A424A412000110000F058F90C
:101800000120A404E40EA04010BDC04640830000A7
:101810004F810000F80100100480044040000100E6
:10182000281400002C16000030180000341A0000A4
:10183000381C0000C4E1FFFF70B505000C002960F2
:101840004B1C11D00800FFF7ADFF2414074BA40078
:10185000E318EB60064B6860E3182B61054BE31857
:101860006B61054BE418AC6070BDC046002200A05F
:10187000802200A0002100A0002000A010B5006878
:1018800000F032F910BDFFFF036870B504000D00D1
:10189000013304D1432209490948FFF731FB002DE8
:1018A00006D0012D09D1A268636811680B4303E0DB
:1018B000A268616813688B43136070BD40830000A9
:1018C0004A810000F7B501210D008540134C636A81
:1018D0002B4221D0124B8600F058019300281BD0D8
:1018E00023682B4218D163682B4206D0E3692B4250
:1018F00003D00C4B1B689847E5612369074F2B42C7
:1019000009D03B6A2B4206D0064B019A1B68022184
:10191000905998473D626562F7BDC046004000A0FF
:1019200000020010FC01001010B50020FFF7CAFFF4
:1019300010BD10B50120FFF7C5FF10BD10B5022086
:10194000FFF7C0FF10BD10B50320FFF7BBFF10BDB0
:1019500010B50420FFF7B6FF10BD10B50520FFF746
:10196000B1FF10BD10B50620FFF7ACFF10BD10B5DC
:101970000720FFF7A7FF10BDF7B5050027488142F4
:1019800002DD0120404248E02548264C026000204C
:10199000820016590096002E3BD11351224C28602C
:1019A000E36F224F224E3B43E3671F248B03491210
:1019B0000C401821A44604009B0F59435E34614437
:1019C000A400A15181210124890071589B000F00BE
:1019D000210081400F4339008127BF00F151A02130
:1019E000802609065B18B6019959270001916146C6
:1019F0008F40019940B2B94399510E4BD158FFF72E
:101A000061FD1F222B68009813409C400A4B1C600C
:101A100003E001300828BBD1B3E7FEBD131102007B
:101A2000FC01001000020010048004408000090046
:101A3000008004408883000000E100E0002103688A
:101A4000064A9B0010B59950012281210068044C80
:101A50008240890063589343635010BD0002001018
:101A60000080044003680120984070B50F4C236843
:101A7000034200D16062C54326680C4B2E402660AD
:101A8000012909D1002A03D05A68104358600CE09C
:101A90005A6815405D6008E0002A03D01A691043B7
:101AA000186102E01A6915401D6170BD004000A078
:101AB00070B504000D00431C04D1152207490848E5
:101AC000FFF71EFA074BE405E40DE418072322682C
:101AD0001D409A431543256070BDC046A883000091
:101AE0004F8100000040044070B504000D00431C0D
:101AF00005D11D220F491048FFF702FA06E08123A5
:101B00001B01984214D00D4B984211D00C4BE405A8
:101B1000E40DE4182368042D04D18022D20013437D
:101B2000236005E01822ED00934315401D43256016
:101B300070BDC046A88300004F810000140A000059
:101B40000040044070B50D1C04680021281C04F0FE
:101B500065F8002809D1FE21281C890504F072F8D7
:101B6000002803D0FE25AD0500E0002580239B0062
:101B7000E058013004F0E2FF291C04F0DBFC04F023
:101B8000C1F8002808D0812304229B000138E050CE
:101B900063689343636004E00C22636813436360EB
:101BA000206570BDF7B580260468B600A3590A0009
:101BB000019381239B00E758194B1868CB1700212C
:101BC00004F074F8174A002304F050F80500781C5C
:101BD00004F0B4FF019B071C581C04F0AFFF011C6C
:101BE000381C04F0DDFA071C280004F0A7FF011CD4
:101BF000381C04F09FFC04F085F8013DA551002835
:101C000008D0812304229B000138E050636893438D
:101C1000636004E00C226368134363602065F7BDD2
:101C20002001001040420F00F7B50F0006004049A8
:101C30003800FFF783FAC3B20500FF2B02D13D48FD
:101C4000FFF768F93C4B01211A7801931000084016
:101C5000031E03D00A410B000A4262D10124210075
:101C60009940019A3548127873600A4301990A70C5
:101C7000334A99008A5809333260C26F11008022BA
:101C800012061143C1672000984003002D4A2849DD
:101C90005268380013432B4A5360FFF715FA336834
:101CA00029491A68E8B20A430C211A605A680A43A3
:101CB0005A6007281DD803F0CBFE040A1016040A48
:101CC0001016A022D2009C500221204A10E0A1222E
:101CD000D2009C5002211E4A0AE0A222D2009C504F
:101CE00002211C4A04E0A3220221D2009C501A4A7D
:101CF00099508021C1224901920099500122C021AE
:101D00005242890015485A500C31585004395A50E3
:101D100030001349FFF746FF30000021FFF712FFA4
:101D2000F7BD1048FFF7F6F801235B4296E7C0467F
:101D3000F08300005C840000200200100480044056
:101D400088840000008004400100060004050000B3
:101D50000C050000140500001C0500000110000027
:101D6000204E00007684000080210A4AC905D36F06
:101D700080200B430121D367074B1A680A431A607E
:101D800000229A601A6802431A601A688A431A602D
:101D90007047C0460480044000400240024B18686F
:101DA0000006C00F7047C04600400240014B9868D3
:101DB0007047C0460040024010B58024044B1968AB
:101DC000A143196098601A6822431A6010BDC0468A
:101DD00000400240F0B5334E87B00091040031005E
:101DE000009801920293FFF7A9F92F4D07002900EF
:101DF0000198FFF7A3F92D4903900298FFF79EF988
:101E00002B4904900C98FFF799F903990590380035
:101E1000FFF774F9059907000498FFF76FF90100BF
:101E20003800FFF76BF92060431C04D14822214998
:101E30002148FFF765F82368204A93420FD0204AD3
:101E4000934219D180201F49C002CB6F1E4A034321
:101E5000CB6701211D4B1960536803310AE08020D4
:101E600018490001CB6F184A0343CB670121184B77
:101E7000196053680B43536031000098FFF724F951
:101E800029000198FFF720F908490298FFF71CF98B
:101E90000C9B013303D006490C98FFF715F907B0E6
:101EA000F0BDC046D485000090840000CC840000C2
:101EB00010860000148500005A85000000000440D0
:101EC0000080054004800440008004409C80044061
:101ED00094800440F8B50E000221140002681D0031
:101EE000536807008B435360331F0C2B06D9032C18
:101EF00004D9652210491148FFF702F88023E00158
:101F00000340013E1E43A30734003968DB0F0A6813
:101F10009B01120C12041C4314430D220C604B68ED
:101F200093436A1E95410222AD001D434D604B68EC
:101F300013434B60F8BDC046148500006E85000059
:101F4000F7B5022405000E0002685368A3435360EE
:101F50001A4B1B6801932100019803F083FD04F0E4
:101F6000EDFD071C300004F0A1FD011C381C04F03D
:101F700017F9FC21890503F09DFF05F08DFA03F0A8
:101F800097FB05F053FAFF280FDC2B680C4A1C6105
:101F9000196801380A4002211A601A6800021043C9
:101FA00018605A680A435A6007E0802302345B00D5
:101FB0009C42D0D10348FEF7ADFFF7BD20010010D1
:101FC000FF0000FFAC85000002220368D8681042C1
:101FD000FCD004229960D9681142FCD098687047FF
:101FE000104B70B51A68002A1AD1012580210E4ABB
:101FF0001D60D36FC9000B43D3670C4B0C4C1868A2
:1020000002230C49636003F02DFD0138E0600A49AA
:1020100065601320FFF756FA8022084B12031A60FE
:1020200070BDC0462402001004800440200100104E
:102030000080014040420F009114000000E100E0E8
:10204000044B10B51B68002B01D1FFF7C9FF024BF1
:10205000986810BD24020010008001400121034B4C
:1020600098615A690A435A617047C046008001402E
:102070000121024A53698B4353617047008001403C
:102080000122014B1A607047008001407047704781
:102090007047FFFF10B50548FFF778FB044904F0CF
:1020A00049FA03F02FFE034B187010BD29020010EF
:1020B00000007F432802001010B5FFF7EBFF10BDB2
:1020C00010B502490248FFF707FB10BD5C2E000067
:1020D0002902001010B502F009FD10BD70B50023F3
:1020E000FF2402250B480C4AC15C002906D0D15CB4
:1020F0000131C9B2FF2906D1D55407E0D65C002EC4
:1021000004D0FF2E01D1D15400E0D4540133072B69
:10211000EAD170BD995200102B020010034B185CDD
:10212000013843425841C0B27047C0462B020010EC
:10213000002210B51D4B19781A701D4A50780028DE
:1021400001D001201870D078002803D0022418781C
:10215000204318701078002803D0042418782043F6
:1021600018709078002803D008241878204318703D
:102170001079002803D01024187820431870507963
:10218000002803D020241878204318709279002A60
:1021900003D040201A7802431A701B78054A1800B1
:1021A00008409943044B1070197010BD2A020010AA
:1021B000995200103302001032020010014B1879BE
:1021C0007047C04699520010014B58787047C0467E
:1021D00099520010014BD8787047C04699520010B0
:1021E0000023094A1380094A1370094A1370094AE7
:1021F00013700122084B52421A80084A084B1A6099
:102200000922084B1A7070473A0200103902001078
:102210004002001034020010360200101890000036
:102220003C0200103802001010B50248FFF7D8FF3A
:1022300010BDC0463502001037B572B60021042229
:10224000244B802559601961234BED001A608E22C2
:10225000224B92009C582C4380259C509C586D002A
:102260002C439C5001225A671400596719004B6F88
:102270001A4D01222340FAD114002B676A676B675D
:102280004B6F164A2340FBD18E245364516CA4003B
:1022900093601367536015591149294080250191B6
:1022A00001992943C825019101992D022943115112
:1022B000A02284211206890153500A4953500A4929
:1022C00053500A4B9860001C01688D464068804757
:1022D00037BDC046004000A010E000E00080044090
:1022E000FF250000042100000821000000ED00E0AF
:1022F0007047FFFFF0B5C1B00E0000F08FFE00F098
:1023000099FE8023DB029B1B0400984200D91C002D
:1023100000F07AFE8027134802F0A6F900257F001E
:10232000A5421CD280216846490000F051FEFF28DA
:1023300004D8631BBB4201D90B4806E0A8196946C3
:1023400002F0CEFF002804D0084802F08DF90120E9
:1023500006E001350648FF3502F07AF9E0E7002093
:1023600041B0F0BD829100008E910000A991000063
:10237000FB910000F7B501260024514B514D1E7012
:10238000514B1C80FC23DB002B8000F0ABFE2100B6
:10239000200000F0D7FE300002F0AEF80094019467
:1023A00000F0CEFD0421494800F0ECFDA0420FD121
:1023B00000F034FE0820404200F012FE042168467E
:1023C00000F006FE042101A800F002FE00F01CFE51
:1023D00001273F4E7F423F4C2368B34200D03E4C22
:1023E0002368B34200D03D4C2368B34200D03C4C3C
:1023F0002368B34217D020233A485B422B8002F077
:1024000033F9009B002B03D0374B019A9A4240D8F6
:10241000364802F029F9364802F026F9FC23DB00A1
:102420002B80344820E0344B34482B8002F010F9E4
:102430000A2160682F8002F08AF96368009A93424B
:1024400027D3A068FFF7F8FE17E0FFF7C3FE0028C8
:1024500034D1FFF7B9FE0028F7D001990098FFF7B3
:1024600049FF002826D0264802F0FEF805E0FFF7D5
:102470005FFEFFF7A3FE002804D1FFF79FFE0028B0
:10248000F5D01BE0FFF79AFE002817D0FFF750FEAB
:10249000F8E71C4B1C482B8002F0DAF800980A2160
:1024A0002F8002F054F9FC231848DB002B8002F047
:1024B000DBF8CEE7164802F0D7F88CE7F7BDC04648
:1024C00030010010260100105A0500106F92000024
:1024D0001EAB07B0F4FF030004FF030004FE03007B
:1024E00004F0030077920000FF7F03008B9200004E
:1024F000FF800000A2920000FF070000BD920000D4
:10250000C79200001FF8FFFFED920000019300004A
:10251000E3920000F8B50024012001F0EDFF484BE4
:10252000FC271C8000F0DEFD464D474B47482B80C2
:1025300001F072FC0123464E30213370454BFF0001
:102540001C70454B60201C702F8002F093F84348AC
:1025500002F07EF83821602002F08CF8404802F04A
:1025600077F84021602002F085F83E4802F070F8CC
:102570004821602002F07EF83B4802F069F86021B3
:10258000282002F077F8394802F062F8013C384818
:102590002C8002F05DF837482F8002F059F80223B2
:1025A00035482C80337002F04DFF03190434042B9E
:1025B00000D8040002F070FF85B2002C38D0FFF77D
:1025C000B7FD7821682002F055F80A21200002F0BA
:1025D000A1F802F061FFFA239B00EB18984203D99F
:1025E00002F05AFF013C85B202F022FB002808D01D
:1025F00002F01EFB041E02D0FFF79AFDF8E7FFF77A
:10260000B9FE02F009FB002807D002F005FB002804
:1026100002D0FFF78DFDF8E7040002F003FB00286D
:10262000CBD002F0FFFA002802D0FFF781FDF8E7D7
:102630000123337000F056FD002001F05DFFF8BD6E
:102640005A0500102601001000F8FFFFB48C0000AE
:1026500030010010250100102A010010269300000F
:102660002B93000030930000359300003A93000054
:102670004093000044930000A20F0000F0B5984D75
:102680001E002B888BB00400049109935711002E73
:1026900006D00020322300901A00010000F046FD11
:1026A0006A461021525E8E4B029222B20392032F91
:1026B00002DCFC22D20022E0042F1DD120235B4249
:1026C0002B80002E00D102E101F00EFF0500012059
:1026D00001F012FF02F0F4F8049902001439601EB0
:1026E000C9B20A23C0B202F019F87E4801F0B0FF67
:1026F000280001F001FF05E0042F01DD7A4A1A806D
:10270000002EE1D1002F02DC784A754B1A8001239C
:10271000774A00930299039800F01EFD012F02DC16
:10272000724A6F4B1A80A3B21D000126704C083507
:102730002DB203932200330002992800009600F086
:102740000BFD6B461B8A22000493043B1BB20593CE
:10275000009633000599280000F0FEFC022F02DCF1
:10276000624A5F4B1A800125039E2B00103636B259
:10277000220002993000009500F0EEFC2B002200B0
:1027800005993000009500F0E7FC049B0095083B9C
:102790001BB2069322002B000699300000F0DCFCEF
:1027A000032F02DC514A4E4B1A800124039D504EE8
:1027B00018352DB22300320002992800009400F051
:1027C000CBFC2300320005992800009400F0C4FCE3
:1027D0002300320006992800009400F0BDFC049B01
:1027E00000940C3B1BB2079332002300079928008A
:1027F00000F0B2FC042F02DC3C4A394B1A80012461
:10280000039D3B4E20352DB2230032000299280053
:10281000009400F0A1FC23003200059928000094E8
:1028200000F09AFC2300320006992800009400F082
:1028300093FC2300320007992800009400F08CFCE0
:10284000049B0094103B1BB20893320023000899AC
:10285000280000F081FC052F02DC244B204A138065
:102860000125039C224E283424B22B003200029909
:102870002000009500F070FC2B003200059920002C
:10288000009500F069FC2B003200069920000095AD
:1028900000F062FC2B00320007992000009500F048
:1028A0005BFC2B00320008992000009500F054FCDE
:1028B00004992B001439320009B20095200000F071
:1028C0004BFC6A46064B928C1A800BB0F0BD01237C
:1028D000074A00930299039800F03EFC23E7C046A4
:1028E00026010010D393000000F8FFFF8A52000079
:1028F0006F990000F0B5012087B001F0FDFD0022C6
:10290000A14B1A7001F0DCFFFA20000102F09AFDE1
:10291000040004F013F99D4B9D491C80051C03F035
:1029200091F9002801D0FF2000E07F2001F0B4FFE2
:10293000FA21281C890503F0FDFD04F095F800B28A
:1029400001F06EFFFC21281C890503F0F3FD04F063
:102950008BF800B201F064FF20B201F061FF0022A9
:102960008C4B64111C708C4B8C481A7002F06AFD01
:10297000431E0400092B00D9894C02F08DFD83B25F
:1029800004930123FC271D000393FF00854B1B7854
:10299000002B00D1D5E0002D00D1D2E0002C00D1D9
:1029A000CFE002F079FDFA22049B92009B18984236
:1029B00008D902F071FD83B204937B4BE3185A1ED1
:1029C0009341E41A012D03D0022D00D198E0DDE7F8
:1029D000039B764D002B32D0012600F083FB76421C
:1029E000102120202E8000F0ADFB714801F030FE58
:1029F0009921282000F0A6FB6E4801F029FE6E48C0
:102A00002F8001F025FE6D482E8001F021FE582117
:102A100000202F8000F096FB694801F025FE694EEA
:102A2000300001F021FE300001F01EFE300001F008
:102A30001BFE300001F018FE634801F015FE9921DD
:102A4000302000F07FFB534E3378032B02D8012354
:102A50005B4200E05D4B2B8002235D4A00933021F6
:102A6000013BA42000F078FB3621182000F06AFB1F
:102A7000584801F0EDFD1820422100F063FB337847
:102A80005548032B00D8554801F0E2FD0223544A73
:102A90002F8060210093A420013B00F05DFB6621A4
:102AA000182000F04FFB4F4801F0D2FD7221182092
:102AB00000F048FB01F004FF7F2802DD434B2B8030
:102AC00000E02F80334B394D1A78042A02D1243A82
:102AD0002A8003E0072A01D1013A1A7018780A21E6
:102AE00001F018FE404801F0B3FD2F8001F0E8FE30
:102AF0000023020077217020FFF7C0FD022545E783
:102B0000FFF716FBFFF7EAFA02F086F805900028B7
:102B100001D000253AE72800FFF700FB061E05D08C
:102B200001F08CFE059B1E4C039308E0FFF7F6FABC
:102B3000002800D12AE71A4C01F098FE03960125DF
:102B400024E701F0BDFE0400FA20000102F07AFC47
:102B50000600200003F0F2FF051C300003F0A6FF82
:102B6000011C281C03F054F8002804D1FA20E1B21B
:102B7000000102F070FC20B201F052FE00210800BA
:102B800000F0E0FA07B0F0BD250100100051001080
:102B90000000FE42025100104B020010A30F000083
:102BA000FFFF0000490200100100FFFF2601001096
:102BB0004F9300006892000063930000659300004B
:102BC000709300008B930000A693000000F8FFFFB5
:102BD0002B99000023920000C1930000CB930000CA
:102BE0004D990000D6930000D3930000012210B548
:102BF000084B00201A7001F07FFC074801F00CF927
:102C000002F03AFC02F05EFC01F070FF02F04AFCB8
:102C100010BDC046490200104C860000014B1878D8
:102C20007047C04649020010F7B50024FC27250074
:102C30005826FF00292D48D802F02EFC234B1A6895
:102C40009042F7D91E301860012D0BD0002D02D014
:102C5000022D22D035E01E4B28001D8000F050FAD6
:102C600001252EE0FC21E2B2C900002001F0AAFDFE
:102C7000184B194A18806E2351781078490840087B
:102C80001C34181A711A00952B00A4B200F064FAD3
:102C9000FE2C16D90024022513E00E4B0E4A1F808D
:102CA0006E23107851784008181A49086D3B00933C
:102CB000711A00F051FA3F34084BA4B29C4200D97B
:102CC000FF25FFF77BFA0028B4D0F7BD7054001041
:102CD0005A0500102601001021940000FF03000097
:102CE00010B57F2001F0D8FD7F22034B1A80034BE3
:102CF00080321A7010BDC04600510010480200100A
:102D0000F7B5FFF773FF21220127FF242A4B1A7022
:102D10002A4B1F602A4B1C70FFF7E2FFFFF7B6F942
:102D200020000024FFF7B3F9FFF7D4F9FFF7D6F935
:102D3000FFF7C2F900F001FAFFF776FF380001F063
:102D4000DBFB204E348000F0CDF91F4D280001F050
:102D500063F8380001F0D0FBFC221C4BD2001A8033
:102D6000348000F0BFF9280001F056F8184E194DD4
:102D700034702F70FFF7CEFBFFF7BCFD00F0BAFCFC
:102D8000B0232200009321002C33200000F00AFD24
:102D9000114B1879002802D0FFF7A0F9F8E701F0ED
:102DA000ABFB01230D4A0E4813700E4A33702B7093
:102DB000137001F031F8F7BD4A0200105002001004
:102DC000480200105A050010B48C000026010010C3
:102DD000250100102A0100102B0200103001001004
:102DE000508900002C010010F0B51F4B85B01A78F7
:102DF0000393002A36D000240B2A02D80C239C1AF5
:102E0000E4B20127194B0020AD251F7000F0E8FC4B
:102E10000322174EA4B231780020CB1C691A611826
:102E20000092513200F0BBFF380000F0D9FC0322C1
:102E300031780020CB1C691A61180092513200F0E1
:102E400048FF04220B4B1A803378E41A0A4BAF3444
:102E50001C800A4B186801F0FBFB039B039A1B784C
:102E6000013B137005B0F0BD5C0200103001001092
:102E7000CD02001052050010E004001054020010B2
:102E8000F0B587B005930CAB039104921F78060050
:102E900002F002FB164B17491B780A68164C121AEF
:102EA0009A4212D92268002A0FD0144AC3180B6024
:102EB000136801250133136000232360FFF7E8F84E
:102EC000FFF70CF9FFF7E6F80EE000252368AB42A8
:102ED0000AD1FFF789FF059B0097049A03993000F8
:102EE00000F060FC01232360280007B0F0BDC0465D
:102EF0004A02001058020010500200104402001054
:102F000010B5024800F09AFF10BDC0464C020010F8
:102F1000A0228023802012069B01D158800001430B
:102F2000D150D1580138FF380143D150D158C03861
:102F30000143D150D15840300143D1507047FFFF79
:102F400010B5FFF7E5FFFDF7F1FB094C20700948CC
:102F5000FDF716FE084920700848FDF7A3FF084B4F
:102F600020700022002800D101221A7010BDC04636
:102F7000B702001060020010FF800000B8020010CD
:102F8000CC02001070B50F4D06002B780C00102BF2
:102F90000BD030002C70FDF79DFE041E0DD13100CA
:102FA000094802F04BFD20000AE00848FDF7E8FD63
:102FB00003000120002BECD002E0082301202B703D
:102FC00070BDC04624010010A8020010600200106D
:102FD00013B56B469C1D2200FDF7ACFE208816BD84
:102FE00010B5074B002804DADA6941428A4200D260
:102FF0005042DB69C018FDF7FFFE024B187010BD90
:1030000060020010B702001010B50020FDF7F4FEBA
:10301000014B187010BDC046B7020010034B10B52D
:10302000186AFDF7E9FE024B187010BD600200102F
:10303000B7020010014BD8697047C046600200100B
:103040000123812213B5074C5B4200935201064BCA
:1030500006492000FEF7CAF8054A06492000FEF797
:10306000F5FA13BD90020010180C000024120000A5
:1030700000010010DD1100007047FFFF10B50B4B81
:103080001B785B1059434310C918094B89B21B6860
:1030900059180C780F23C00702D59C43224303E044
:1030A000234012011A43D2B20A7010BD340100103D
:1030B000D0020010084B10B51B8893420BD0074B71
:1030C0001C7883B29C4206D9054B1C788BB29C427B
:1030D00001D9FFF7D3FF10BD3601001034010010F5
:1030E0003801001010B5002001F072FE0023024AE2
:1030F0001380024A138010BD52050010E004001036
:1031000010B501F065FE10BD064B10B51B880F2BE6
:1031100004D8054C5B001B5B934201D001F0C4FF57
:1031200010BDC04636010010D402001013B504AC27
:103130002488009401F0E8FF13BD10B501F0A8FE4B
:1031400010BDFFFF024B1880024B19807047C0462C
:1031500052050010E0040010F0B58FB00B9114A9D7
:1031600009780A90089111780591517802320991F5
:103170000092012B76D1059B0733DB100C936B4635
:103180001B8D07930493002303936B460C21595E18
:10319000059B8B4200DCF0E00723CA171A40521847
:1031A000D21053B20A93764B0B4004D50822013B50
:1031B00052421343013380221BB21A416B469B8D4E
:1031C0000D9206930293002301936B4604229B5EAB
:1031D000099A93423EDA0C9A0A995343009A52187C
:1031E000D35C0D9A1A422DD0089B664C012B09D155
:1031F000069B019903985918079B2288181809B251
:1032000000B21DE06B461027DF5F6B4608269E5F0D
:10321000228831003800FFF777FF049B31005D1CE6
:103220002DB222882800FFF76FFF029B22885E1CC8
:1032300036B231003800FFF767FF310028002288DE
:10324000FFF762FF019B01330193029B02339BB2A4
:103250000293BAE7039B01330393049B02339BB2AF
:10326000049392E7042B00D087E00023099A93424D
:1032700000DB82E09BB202936B469B8D0025079397
:10328000029B079A5B00D3189BB21AB201331BB2A0
:1032900004936B461B8D039206930193059BAB42EF
:1032A00067DD009B384A1B7812681B115B009E5A31
:1032B000089B022B19D1069B6C001C19A4B227B2E3
:1032C000013432000399380024B2FFF71DFF3200A9
:1032D00003992000FFF718FF320004992000FFF740
:1032E00013FF32000499380007E0029B079A9918EF
:1032F0006B4632000420185E09B2FFF705FF0F226B
:10330000009B1B781340204A5B0012689E5A089B62
:10331000022B1AD1069B6C001C19A4B2A71C3FB249
:10332000033432000399380024B2FFF7EDFE320077
:1033300003992000FFF7E8FE320004992000FFF710
:10334000E3FE32000499380007E0029B079A9918BF
:103350003200019B09B2581C00B2FFF7D5FE009B5A
:10336000023501330093019B2DB202339BB20193CE
:1033700094E7029B01331BB278E70FB0F0BDC04663
:103380000700008026010010DC040010F0B51300D7
:10339000574A8DB014680F00627811000192F7222D
:1033A00008390A40511E8A410199C91052180892E1
:1033B000089922784A43511C4B431A00A2181279EB
:1033C000053352B2099282B20B9206920022E318A0
:1033D00005926A46127D099952B2914200DC7CE066
:1033E00008991A78022903D00133079393B204E0B5
:1033F000991C5B7807911B02134300240293059BE1
:103400000B9A5B00D3189BB21AB201331BB2039222
:103410000493019BA34257DD0122029B134217D064
:10342000344B1B78022B07D16500ED19ADB2324E3B
:103430002BB20A9332881AE06946304B18254D5F4B
:103440001A782D4B002A01D01A882BE01A8830E018
:103450002B4E2C4B32881B8893422FD0254B1B7848
:10346000022B18D16500ED19ADB22BB20A931900E9
:1034700003980135FFF748FE2DB232880A99049867
:10348000FFF742FE328829000398FFF73DFE32889D
:103490002900049810E06946184B18254D5F1B78E9
:1034A000002B06D0019B2900581EC019031B18B21F
:1034B00002E02800E11909B2FFF726FE029B013461
:1034C0005B08029364B2A4E7059B01330593069B56
:1034D00001339BB20693079B7BE700200A4B1856EB
:1034E000099BC018034B1B7858430DB0F0BDC04674
:1034F000E8040010300100102601001058050010EB
:103500005A0500103601001025010010F0B5130017
:103510006D4A91B0029010680691427811000192B4
:10352000F72208390A40511E8A410199C9105218E0
:10353000017807924A4301325A43531D8218127987
:10354000C31852B20592029A6048002A1DDB069AFF
:10355000002A1ADB029A51185D4A1278914214DA55
:103560000199069A52185B4909788A420DDA5A4A3B
:1035700000881188594A814200D0594A59490C881B
:10358000564984420ED056490CE0534A00881188AF
:10359000524A814200D0544A52490C884F498442D1
:1035A00000D051490E914F490F9209880DAA117010
:1035B0004949029D0988002751704C4A1278022A15
:1035C00030D0029A0599AA1A52B2914222DD079A86
:1035D0001C78022A02D05F1CA4B203E09F1C5B7817
:1035E0001B021C430026019BB3420FDB01230699FB
:1035F00023400DAAD25C71180EA89B001B5809B27B
:10360000280001369847640876B2ECE701352DB200
:103610003B00D6E70020364B1856059BC01850E0FB
:10362000089B013705997AB2914244DD07991A78CF
:10363000022903D00133089393B204E0991C5B780C
:1036400008911B021343029A04937B009B189BB2C0
:103650001AB201331BB20B93002309920393039A0E
:10366000019B9342DCDB0122049B099813400DAAC5
:10367000D65C9B000EAA9D58039B32005C00069B03
:10368000E418A4B223B2190001340A9324B2A84763
:1036900032000A990B98A847320021000998A847E0
:1036A000320021000B98A847049B5B080493039BFE
:1036B00001335BB2D2E700200D4B1856059BC018B2
:1036C000400011B0F0BDC046E80400103601001003
:1036D00034010010380100102E0100107930000074
:1036E0007D300000E4040010B5300000300100100F
:1036F00025010010F8B5234A234D12782B88234C5E
:10370000D9B2234F234E012A03D1002B31D0FF2100
:103710002FE0022A06D1032319408B0019430B0125
:10372000194326E0032A1DD101211B4A194000D06C
:10373000FF21206802F08EF802232988164A1940DA
:1037400023689818002900D0FF2102F083F8042391
:10375000298820681940114B0F4AC01800290AD047
:10376000FF2108E0042A04D10B3213400901194358
:10377000C9B20B4A206802F06DF800233B80338009
:10378000F8BDC0462B010010E4040010D002001068
:1037900052050010E0040010E8120000D0250000DF
:1037A000A04B000010B5002805D1064B1968064B48
:1037B000186801F00DFD054B1B78002B01D1FFF7B8
:1037C00099FF10BDD0020010DC040010D8040010D6
:1037D00010B5024800F0E0FF10BDC0465291000055
:1037E0000F231840014B18807047C0462E0100106F
:1037F0000F23034A18401080024A0B401380704781
:103800002E010010E4040010014B18807047C046E0
:103810003601001010B5074B1A7883B29A4208D9C6
:10382000054B1A788BB29A4203D9044B1A78FFF7EA
:1038300025FC10BD34010010380100102E010010CD
:1038400070B50F4B15001B788AB20600934202D860
:10385000AAB2934212D90B4B1A78B3B29A420DD93D
:10386000A94202DD0B0029001D000C00A54205DB6A
:1038700021B23000FFF7CEFF0134F7E770BDC0463C
:10388000380100103401001070B50F4B16001B7882
:1038900082B20D00934202D88AB2934212D90B4BE6
:1038A0001A78B3B29A420DD9A84202DD030028006B
:1038B0001D000400A54205DB20B23100FFF7AAFF7E
:1038C0000134F7E770BDC046340100103801001024
:1038D00010B5002A04DA92B25118524209B212B25B
:1038E0008A1812B2FFF7ACFF10BD10B50B00002A0A
:1038F00004DA92B21018524200B212B28218013A9F
:1039000011B21A00FFF7C0FF10BDF8B50600140091
:103910000F00CB181DB234192A0024B2FFF790FF14
:103920002A0039002000FFF78BFF3A003000210009
:10393000FFF7AAFF2A0030002100FFF7A5FFF8BD1E
:10394000F8B58218CB1805000C0012B21BB2002883
:1039500001DA002A2DDB174909788D4201DB9142FB
:1039600027DD002C01DA002B23DB134909788C4278
:1039700001DB99421DDD954202DC11002A000D0099
:103980009C4202DC190023000C00161C002A00DAFD
:10399000002636B2191C002B00DA00210FB2AE420D
:1039A00007DA3000220039000136FFF749FF36B24E
:1039B000F5E7F8BD3401001038010010F0B5030040
:1039C00085B0002879D03E4A1478A04201DB631EFE
:1039D0001BB23C4A1078042807D13B4A117859435E
:1039E000CA0F5118491089B20AE0022865D1032193
:1039F000354A12785A43D51729408A18921091B245
:103A0000324A15880195324D2D8815802E4A002B9B
:103A100028DD1278E31AD508684300252E000290AD
:103A20000393039B9D4216DA891B89B233008C46AF
:103A30006146981B80B207000298591889B28742E4
:103A400005DA244F581C795CF95483B2F0E701354C
:103A5000ADB21E00E5E7204923B20020095E12B294
:103A6000002024E01278A4B25043C010029000203D
:103A70009DB20394039CAC4216D9401A80B20C004C
:103A800084466046661AB6B23700029E001980B2BC
:103A9000B74205DA0F4F661C385C3855B4B2F0E710
:103AA0000135ADB22100E5E70021080012B2FFF7B1
:103AB00047FF6A46054B92881A8005B0F0BDC046A4
:103AC000380100102B010010340100102E010010ED
:103AD000E404001060050010E0040010F0B587B0A9
:103AE00004936B46012400921B880290E21AA340C3
:103AF0005B4212B21BB2039101920593631E009ABE
:103B00001BB29A4267DD019B002B0CDB1300013BCB
:103B10001BB20093059B02339BB21AB20592019A25
:103B20009B181BB20193019A630001339B18042276
:103B30001BB20193049B13420FD06B461F899D89D2
:103B40001E883819A91909B200B22D19BE19FFF73C
:103B500061FE29B230B2FFF75DFE0222049B1342E0
:103B60000FD06B461F899D891E88E019A91B09B2D9
:103B700000B2FFF74FFEBE19291B09B230B2FFF7A2
:103B800049FE049B1B070FD56B461D891F889E8924
:103B9000E81BA11909B200B2FFF73CFEBE19281BB1
:103BA00031B200B2FFF736FE049BDB0702D40134CA
:103BB000A4B2A3E76B461D891F889E89E81B311BB1
:103BC00009B200B2FFF726FEF61B281B31B200B285
:103BD000FFF720FEEBE707B0F0BDF0B58BB01600A5
:103BE000089393B201220790D01A93405B421BB214
:103BF00006938BB20493013B9BB2029310AB1B88DC
:103C000000B2059302339BB201930023009003930B
:103C10000992039BB3425ADA009B002B0ADB069BF6
:103C2000013E02339BB21AB20692009A36B29B183A
:103C30001BB20093039C009A0134A4B223B20393F5
:103C4000630001339B181BB20093099A089B13422F
:103C500017D06B46B5B29F8B059B6A009A18049BE0
:103C60003819591B12B209B200B2FFF731FE6B4688
:103C700004229A5E6B467D190821595E28B2FFF72F
:103C800027FE0222089B134208D1029B013B9BB2F4
:103C90000293019B02339BB20193BAE76B46B7B222
:103CA0009D8B059B7A009A18049B281BD91B12B286
:103CB00009B200B2FFF70CFE6B4604229A5E6B4617
:103CC000ED1B0821595E28B2FFF702FEDDE70BB0BD
:103CD000F0BDF0B587B01F000CAB00241C5F019055
:103CE0000E00012C03DC3B00FFF70FFE55E06B4696
:103CF0009B88A1B202935B181BB2009393B203930B
:103D00004B009BB20493049A039B31009D1A2DB281
:103D10002A000098BFB2FFF7E8FDB6B27B1EF31889
:103D20009BB205936B462A001421595E0098FFF759
:103D3000DCFDA3B29E19049B36B2FF1A3FB23100DC
:103D40003A000198FFF7C4FD039B31005D1E029B02
:103D50003A005D19ADB228B2FFF7BAFD3100012378
:103D600022000098FFF7BAFEA3B2ED1A2DB231007F
:103D7000022322002800FFF7B1FE059BA2B29E1A83
:103D800036B20423220031002800FFF7A7FE0823E3
:103D9000220031000098FFF7A1FE07B0F0BDF0B59A
:103DA00087B00C000CA900268E5F012E03DC2100D9
:103DB000FFF7C6FD2DE0B7B281B292B27D0004924A
:103DC0000291AAB2C919059209B20391049A059900
:103DD000013B9DB2521A2BB2210012B20398FFF799
:103DE000AFFD059B3C19ED1A049B24B2581E029BA3
:103DF0002DB21818C01B00B201233200210000951B
:103E0000FFF7EBFE00950223320021000398FFF735
:103E1000E4FE07B0F0BDFFFF054B064A18600378CB
:103E2000013313704378044A013313707047C0465E
:103E3000E8040010E2040010CD020010124A134BF7
:103E400010B504001A60FFF7C3FC0122104B1148A3
:103E50001A70114BDB321A80104B2C3A1A80FFF784
:103E6000DBFF11220E4B04211A8000230D4A200093
:103E700013800D4A11700D4A13600D4A136093614F
:103E80001363936410BDC04660050010D00200109B
:103E9000500500104C86000056050010EE0400107E
:103EA00036010010E4040010EC040010D4040010EB
:103EB000F0040010F0B58FB000935B4204000D00D9
:103EC0001700994200DAE4E2D44B1A78914200DDFF
:103ED000DFE27B42984200DADBE2D14B1B7898426A
:103EE00000DDD6E2CF490978012936D80026FB1D2E
:103EF000DB10029331B2B94200DBCAE20723CA17D2
:103F00001A405218D3100393C74B0B4004D5082214
:103F1000013B52421343013380221BB21A4100235A
:103F2000049201936B4604229B5E009A934212DA3C
:103F3000029A03995343149A5218D35C049A1A4272
:103F400006D0019BA019E91809B200B2FFF762FC84
:103F5000019B0133E5E70136CCE7022900D0BCE044
:103F6000B24B00229A5E002A6EDDB14B061C002186
:103F70005B5E81B20191984200DA1E1CA1B2761AF2
:103F8000AC49E4190020095E36B2CB18A34200DD2B
:103F9000230001995B1A1BB20393A74B00215B5EC0
:103FA000A9B20291291C9D4200DA191CA8B2091A73
:103FB00009B2049100999B186D18AB4200DD2B00EB
:103FC000029A9B1A1BB20093BB100593039B9E425F
:103FD00000DB5EE20322F31713409B19974C9B1002
:103FE0000693344004D50423013C5B421C43013456
:103FF000C02324B2640023410F275BB2049D0793C2
:10400000009B9D421DDA149B069A9A18059B6B43F0
:10401000D35C079A13400622121B1341884A118869
:104020009AB291420AD0874A3B401380029B5919A9
:10403000019B09B2981900B2FFF7ECFB01352DB2D4
:10404000DEE7013636B2C1E7BB10049300230193CB
:104050006B4604229A5EBA4200DB1AE2774B1340A9
:1040600004D50421013B49420B4301331BB25B00E1
:104070000393C0230399D6170B415BB20593032327
:104080001E40B618149BB6109B1900260293009A86
:1040900033B29A421EDD029B059A1B7803991340A6
:1040A0000622521A1341664A11889AB291420AD0E6
:1040B0000F221340634AA9191380019B09B2E0182B
:1040C00000B2FFF7A7FB049A029B944663440136B3
:1040D0000293DCE7019B0133B9E7032974D107227E
:1040E000FB1DDB100893009B0D927B43D9171140F9
:1040F000CB18DB101BB20693009B0099DB17134013
:104100005B18DB100993069B5B000A930023019365
:104110006B4604229B5EBB4200DBBAE10D99DA17C5
:104120000A40D318DB100293029A0A9B9446634418
:104130000B93ABB21E000C930C9B099AF31A1BB2A3
:104140009A423DDB089A02995343149A0698D21872
:10415000515C0096039114990918CB1802995B5C85
:1041600004930B9BD35C0593330008339BB20793F6
:10417000049B04215A0002231A40059B9B000B401C
:104180001A43012303990B401A434B080393049BE2
:104190005B080493059B5B0805936B460021595E01
:1041A000019B181900B2FEF785FF009B01339BB2FB
:1041B0000093009A079B9342DAD10136B6B2BBE76F
:1041C000019B01330193A3E7042900D0FCE000998F
:1041D0006918002D08DA0AB200927A105543149A31
:1041E000521B1492002506E08A4204DA0099521804
:1041F000521B12B20092002C26DAA2B26442641062
:104200005000D21917B222B20392149A0221121945
:10421000002408400290149204942BE0380100100E
:1042200034010010EC04001007000080320100107F
:1042300054050010280100105C05001003000080E8
:10424000360100102E010010E21993420EDA02200E
:104250006100014002910121D21A214052105218EE
:1042600012B203921A1B049117B203E000220492C7
:10427000039202925B106B4362109B18864A0F26D2
:1042800012680695D3180122224001930892009BE0
:10429000069A9A18954200DBFBE0804A1278954214
:1042A00000DBF6E0089B002B05D0029B3A19D31ADD
:1042B0002100079374E02000029B3A19D31A079358
:1042C000079B98422ADA149B1A78029B002B05D090
:1042D000149B1201597809110A43D2B2019B197833
:1042E0006F4B1B88059313119C46059B9C4503D07F
:1042F00013003140B3431943059B3240934202D02F
:10430000B1431143C9B2019B02301970149B00B232
:1043100001331493019B01330193D1E7029B002BDE
:1043200041D001231F420CD0149B5D491A780988A3
:1043300010003040884204D0019B120119780A43D2
:104340001A70149B01331493019B013301932AE0EB
:10435000149B1A78019B187813119C46504B1B88AC
:104360000593059B9C4502D06346B0431843019BCF
:104370001870013301931878494B1B88059313007B
:1043800033409C46059B9C4503D0304012011043AE
:10439000C0B2019B02311870149B09B2013314930F
:1043A000079B9942D4DB039A149B94463D4A63448D
:1043B00012781493D21B049B5210D218019B013522
:1043C0009B1801932DB262E7082962D10099691800
:1043D000002D07DA7D430AB20092149A521B149200
:1043E000002506E08A4204DA00995218521B12B2E4
:1043F0000092002C09DAA4B2E2191499644217B2AF
:1044000022B28918149100240AE0E219934209DAD1
:1044100098B2A1B23A1A8A188A18411A12B20FB287
:10442000200001E0002002006B431B491B190968B2
:10443000CB18009949190191E119029101998D4216
:1044400027DA164909788D4223DA2100029EB1420B
:1044500014DA149E3678B4461E780096104E3688CC
:10446000664501D0664600966E46367801311E706C
:10447000149E01330136149609B2E7E71499013509
:104480008918149107492DB20978C91B09185B18BE
:10449000D4E70FB0F0BDC046D002001038010010C4
:1044A000360100103401001037B51578941C53788C
:1044B0002A000094FFF7FEFC37BDFFFF10B5084B44
:1044C00009B21B6800B29B78D21A064BD2B21B7895
:1044D000002B02D0FEF75AFF01E0FFF717F810BDDE
:1044E000E804001050050010024B1878431E984154
:1044F000C0B270475005001009490A4A0A4B00280B
:1045000005D001200870DC211180B02205E0087080
:10451000064909781180064A12781A807047C04609
:104520005005001056050010EE0400103401001074
:104530003801001010B50B4C0B490023E25E0B4B09
:1045400009881B685B785800091A0948007840B24E
:104550008A4203DDC018FFF731FA02E0C3189B1846
:10456000238010BDE0040010EE040010E8040010E9
:104570002A01001070B52B4B04001A68D378002B69
:1045800003D0602801D9203CE4B20E2C21D82000B1
:1045900001F05EFA461F1F1F1F1F1F1F0E1F081F5F
:1045A0001F1B46000022204B1A80FFF7C3FF37E095
:1045B0001D4910780B882022181A1C4B80B20880E5
:1045C0001978C0B2FFF77AFF2AE00022164B1A8052
:1045D00026E0154D12780023E85E154B1B889B1AC8
:1045E00098420BDB00232B80124B1B78002B17D03B
:1045F000FFF7A0FF0D4B2878197802E00B4BC0B2F3
:1046000019782200FFF75AFF202C06D10A4B1B789D
:104610005BB2002B01D0401001302B881818288085
:1046200070BDC046E804001052050010E004001000
:10463000560500102C0100102501001010B50400D3
:104640002078002803D00134FFF794FFF8E710BD6D
:1046500010B5FFF7F3FF10BD10B50D20FFF78AFF6F
:104660000A20FFF787FF10BD10B5FFF7E7FFFFF740
:10467000F3FF10BD024B1880024B19807047C046F3
:1046800052050010E00400100023F0B5050089B0C9
:104690000E00984203D13020FFF76CFF1CE05C1C39
:1046A00028006B4431001F0001F062FA28003970C5
:1046B000310001F0D7F92300051EF0D16B46013C13
:1046C0001B5D18003730C0B2092B01D83033D8B287
:1046D000FFF750FF002CF1D109B0F0BD10B5041E5A
:1046E00003DA2D20FFF746FF64420A212000FFF77E
:1046F000CBFF10BD10B5002903D1C0B2FFF73AFFC0
:1047000007E00A2902D1FFF7E9FF02E0C9B2FFF78B
:10471000BBFF10BD10B5FFF7EDFF10BD10B5044C89
:1047200020800448018019001000FFF7E3FF10BD4E
:1047300052050010E004001010B5002903D1C0B2EA
:10474000FFF718FF02E0C9B2FFF79EFF10BD10B5DA
:10475000FFF7F2FFFFF780FF10BDFFFF10B5024823
:10476000FDF7C6FD10BDC0465E0500100023044ADB
:10477000C15AD1520233202BFAD1024B1A60704732
:10478000D4020010DC04001089104901D210C010BE
:104790000A43C0021043704770B504000025074E5D
:1047A000A27861782078FFF7EFFF6B000135F052B7
:1047B0000334102DF4D1024B1E6070BDD4020010E2
:1047C000DC04001070B51F24050025400C40641B5C
:1047D00023B253431B12EB183F2544114E112C40BA
:1047E000C00A3540C9122D1B091A55434A431212FB
:1047F0002D1280181BB26419021C002800DA002256
:1048000012B2D202181C002B00DA00201043231C25
:10481000002C00DA00231BB25B01184380B270BD8C
:10482000031C002800DA0023024A1380024A5B09B5
:1048300013707047005100100251001010B5084B62
:104840001A780132D2B2072A00D907221A701B78CF
:10485000044AD05C044B188000B2FFF7E1FF10BDA2
:1048600002510010759900000051001010B5074B5F
:104870001A78002A01D0013A1A701B78044AD05CD9
:10488000044B188000B2FFF7CBFF10BD025100109F
:10489000759900000051001010B5002803DBFF28B7
:1048A00002DDFF2000E00020034B1880034B0020B6
:1048B000185EFFF7B5FF10BD3A010010005100105F
:1048C000014B18887047C0460051001010B50248CF
:1048D000FDF70EFD10BDC046035100100122014B33
:1048E0001A717047995200100022014B1A717047DB
:1048F000995200100122014B5A71704799520010D1
:104900000022014B5A717047995200100122014B4D
:104910009A717047995200100022014B9A717047AA
:10492000995200100122014B5A70704799520010A1
:104930000022014B5A707047995200100122014B1E
:10494000DA707047995200100022014BDA707047FC
:10495000995200100022014B9A7070479952001032
:104960000022014B1A7070479952001010B5054B88
:104970009A79002A02D0FFF761FF01E001229A70C4
:1049800010BDC0469952001010B5054B9A79002A07
:1049900002D0FFF76BFF01E001221A7010BDC04684
:1049A0009952001010B50448FCF750FB0122034B4C
:1049B0001871034B5A6210BDA0520010995200109A
:1049C000004000A010B50448FCF740FB0222034B56
:1049D0005871034B5A6210BDF052001099520010EA
:1049E000004000A010B50448FCF730FB0422034B44
:1049F0009871034B5A6210BD045100109952001077
:104A0000004000A010B50448FCF720FB0822034B2F
:104A10005870034B5A6210BD485200109952001052
:104A2000004000A010B50448FCF710FB1022034B17
:104A3000D870034B5A6210BD5451001099520010A7
:104A4000004000A070B50F48FCF700FB0E4CA071B1
:104A50000E48FCF7FBFAA379C0B220700C4D002B76
:104A60000AD0002808D02B78002B01D1FFF7FEFEDA
:104A700000232370013300E0002320222B70054B1C
:104A80005A6270BD0451001099520010A8510010D4
:104A900098520010004000A070B50F48FCF7D6FAFD
:104AA0000E4CA0710E48FCF7D1FAA379C0B2A070E9
:104AB0000C4D002B0AD0002808D02B78002B01D1F8
:104AC000FFF7BCFE0023A370013300E00023402267
:104AD0002B70054B5A6270BD0451001099520010A2
:104AE000F851001098520010004000A010B52E4C54
:104AF0002E492000FCF7BEFA20002D49FCF7ABFA46
:104B00002C4C2D492000FCF7B5FA20002B49FCF76E
:104B1000A2FA2B4C2B492000FCF7ACFA20002A49C2
:104B2000FCF799FA294C2A492000FCF7A3FA200047
:104B30002849FCF790FA284C28492000FCF79AFAFB
:104B400020002749FCF787FA264C27492000FCF76C
:104B500091FA20002549FCF77EFA254C25492000D2
:104B6000FCF788FA20002449FCF775FA2349002055
:104B7000FCF7A8FC22490120FCF7A4FC21490220F3
:104B8000FCF7A0FC20490320FCF79CFC1F490420F3
:104B9000FCF798FC1E490520FCF794FC1D490620F3
:104BA000FCF790FC10BDC046A0520010E948000080
:104BB000DD480000F052001001490000F5480000F7
:104BC00004510010194900000D490000485200101E
:104BD00031490000254900005451001049490000A6
:104BE0003D490000A85100106149000089490000BA
:104BF000F8510010554900006D490000A54900001A
:104C0000C5490000E5490000054A0000254A0000AA
:104C1000454A0000994A0000014B18797047C04688
:104C200099520010014B58797047C04699520010B4
:104C3000014B98797047C0469952001070B52648CC
:104C4000FFF7FCF8254E26493000FCF7DBF9254D2F
:104C5000254C2A0021003000FCF7F8FC234E2449A3
:104C60003000FCF7CFF92A0021003000FCF7EEFC01
:104C7000204E21493000FCF7C5F92A002100300000
:104C8000FCF7E4FC1D4E1E493000FCF7BBF92A007E
:104C900021003000FCF7DAFC1A4E1B493000FCF70B
:104CA000B1F92A0021003000FCF7D0FC174E18495A
:104CB0003000FCF7A7F92A0021003000FCF7C6FC01
:104CC000144E15493000FCF79DF92A0030002100F0
:104CD000FCF7BCFC70BDC046A4510010A0520010EF
:104CE0008412010000010010AD0F0000F05200100E
:104CF000700801000451001088140100485200108F
:104D0000941A0100545100106C060100A8510010C3
:104D1000C4320100F85100107C0E0100A023054AA6
:104D200005491B0699500549C0005850002199506B
:104D30007047C046882000000700F8FF8821000067
:104D400070B58A23A024042224069B01E25080230C
:104D5000064D5B046351FFF7E1FF8023044A5B01CA
:104D6000A350C046C046635170BDC0460422000037
:104D70008422000070B58823A024042224069B010D
:104D8000E2508023054D5B046351FFF7C7FF80238A
:104D9000034A5B01A350C046635170BD042200006A
:104DA0008422000010B5074C07492000FCF73CFFA7
:104DB00020000521FCF7F6FE04492000FCF7C2FEA6
:104DC00010BDC04640530010FC0402009A99993E61
:104DD00010B504002020FFF7B3FF0020FFF7CAFF43
:104DE0002120FFF7ADFF0020FFF7C4FF2220FFF7CF
:104DF000A7FF2000FFF792FFA023882204211B06B3
:104E0000920199508021074A49049950802106480F
:104E10004901064C99501951C04601389950002853
:104E2000F9D110BD04220000409700008422000048
:104E300010B52020FFF784FF0020FFF79BFF212003
:104E4000FFF77EFF0020FFF795FF2220FFF778FF96
:104E50000020FFF763FFA023882204211B06920194
:104E600099508021074A49049950802106484901F8
:104E7000064C99501951C046013899500028F9D173
:104E800010BDC046042200004097000084220000AC
:104E900070B5A0250124784E2D06FFF783FFAC5195
:104EA0000A20FCF708FB754B0A20EC50FCF703FBCB
:104EB000AC510A20FCF7FFFA2000FFF741FF8E20DB
:104EC0004000FFF757FF0220FFF73AFF8020400025
:104ED000FFF750FF0320FFF733FF6948FFF74AFF52
:104EE0000820FFF72DFF6748FFF744FF0C20FFF76E
:104EF00027FF0020FFF73EFF0F20FFF721FF2000D4
:104F0000FFF738FF2020FFF71BFF0020FFF732FFDD
:104F10002120FFF715FF0020FFF72CFF1020FFF7DF
:104F20000FFF0020FFF726FF1120FFF709FF802069
:104F30004001FFF71FFF0A20FCF7BDFA3020FFF702
:104F4000FFFE0020FFF716FF3120FFF7F9FEDB2000
:104F5000FFF710FF3220FFF7F3FE0020FFF70AFFF4
:104F60003320FFF7EDFE0020FFF704FF3420FFF7AA
:104F7000E7FEDB20FFF7FEFE3520FFF7E1FE002015
:104F8000FFF7F8FE3620FFF7DBFEAF20FFF7F2FE5B
:104F90003720FFF7D5FE0020FFF7ECFE3820FFF7A3
:104FA000CFFEDB20FFF7E6FE3920FFF7C9FE002029
:104FB000FFF7E0FE0A20FCF77EFAFF20FFF7C0FEB5
:104FC0000320FFF7D7FE5020FFF7BAFE2E48FFF769
:104FD000D1FE5120FFF7B4FE2C48FFF7CBFE522044
:104FE000FFF7AEFE2A4D0520FFF7C4FE5320FFF762
:104FF000A7FE2800FFF7BEFE5420FFF7A1FE2548BC
:10500000FFF7B8FE5520FFF79BFE234C0320FFF768
:10501000B1FE5620FFF794FE2000FFF7ABFE5720AD
:10502000FFF78EFE1D48FFF7A5FE5820FFF788FE0C
:105030002800FFF79FFE5920FFF782FE2000FFF7B0
:1050400099FEB020FFF77CFE1548FFF793FEFF2086
:10505000FFF776FE0020FFF78DFE0720FFF770FEBA
:105060001048FFF787FEC820FCF725FA2220FFF73B
:1050700067FEFFF7DDFE70BD042200008422000001
:10508000301000000808000003020000090A0000B8
:1050900021100000020600000307000007050000C1
:1050A0000125000017100000F8B584B21500DB2CB4
:1050B00025D88EB2AF2E22D82020FFF741FE300037
:1050C000FFF758FE2120FFF73BFE2000FFF752FEBE
:1050D0002220FFF735FEA0248823042224069B010A
:1050E000E25080278023064E5B047F01A3512800F5
:1050F000A751FFF713FE034BE750C046A751F8BD79
:105100000422000084220000F0B587B00CAC248893
:105110000494904202DD040010002200994202DD56
:105120000C0019002300DC284CDCB0294ADC141CDC
:10513000DC2A00DDDC2422B203921A1CB02B00DD35
:10514000B02213B20293061C002800DA002636B201
:105150000C1C002900DA0024A02524B22D06039B94
:105160009E422FDC2020FFF7EBFDA0B2FFF702FEEE
:105170002120FFF7E5FDB3B218000193FFF7FAFD18
:105180002220FFF7DDFD882204239201AB50802707
:10519000802226000C4B52047F01EA50EF50059309
:1051A000029B9E420ADA0498FFF7B8FD074BEF50C6
:1051B000C046059B0136EF5036B2F1E7019E01363D
:1051C00036B2CCE707B0F0BD042200008422000014
:1051D0003D4B70B5CE180C00002390B06D465A00C0
:1051E000825A9900D20001334A51102BF6D1032084
:1051F000FFF7A6FD3548FFF7BDFD2120FFF7A0FD15
:105200000020FFF7B7FD2020FFF79AFD0020FFF7F1
:10521000B1FD2220FFF794FDA0228823042112066D
:105220009B01D15080232A495B04535080235B01AA
:10523000535028482849B44650500022274E1100A8
:10524000FC2002CCF0220A409208AA583260335067
:105250000F220A40F3679200AA5832603350F022BE
:10526000090AF3670A409208AA58326033500F22A5
:105270000A40F3679200AA5832603350F022090ABC
:10528000F3670A409208AA58326033500F220A404E
:10529000F3679200AA5832603350F022090AF3678C
:1052A0000A409208AA58326033500F220A40F3672E
:1052B0009200AA583260335002CCF022F367A44522
:1052C000C1D110B070BDC046A44B00003810000022
:1052D000042200000700F8FF88200000882100A0B9
:1052E000F0B585B00600029172B64C4B984202D8D8
:1052F000050B020511E04A4B1C2598420CD8494B7E
:10530000013D984208D8484B013D984204D8474D8A
:105310008542AD416D421835720453425341DBB2B0
:1053200001933223424C434F23606560424BA5609A
:10533000390020009847404A3B680392002B01D077
:10534000012068E0E422920296425FD0019A002A8E
:1053500021D001933423FA212360384B8900186847
:105360006560A56000F07EFB324FE060324B390093
:10537000200098473B68002BE2D132332360656000
:105380002D4BA5603900200098473B68002BD7D1F2
:10539000019B002B18D133232360029BFA21A360C9
:1053A00080235B00E360254B89001868666000F08D
:1053B00059FB204D2061290020001F4B9847286889
:1053C0000028BDD162B626E03B232360E023FA210A
:1053D0009B0063601A4B8900A360184B186800F0AB
:1053E00041FB144FE060144B3900200098473B68A4
:1053F000002BA5D13233236065600F4BA5603900C7
:10540000200098473B68002BC5D099E7019B002BF3
:10541000DAD001239DE705B0F0BDC046FF7F010053
:10542000FF7F0300FFFF0200FF7F0200FFFF01007C
:10543000485400105C540010F11FFF1F20010010A1
:10544000FF03000013B56B46DC1D0122210004F0B0
:1054500005FC207816BD07B56B46D97107330122CC
:10546000190004F0D5FB07BD024A13680A33136024
:105470007047C0466C540010044B054A07215A601F
:1054800000229A601960034B1A60704710E000E038
:105490007FFC0A006C540010014B18687047C0462E
:1054A0006C54001010B50020FBF780FE0400FCF7E0
:1054B000F1FD034B1878001900F080FA10BDC046CA
:1054C00028020010A023802104201B0689015A58BD
:1054D00010B5024380205A50294A4001995801438F
:1054E00080209950995840040143012099509958BF
:1054F00001439950234924485A5802435A5023489B
:105500000021FCF7F1FA00212148FCF7EDFA002117
:105510002048FCF7E9FA00211F48FCF7E5FA0021D2
:105520001E48FCF7E1FA00211D48FCF7DDFA0021D6
:105530001C48FCF7D9FA00211B48FCF7D5FA0021DA
:105540001A48FCF7D1FA00211948FCF7CDFA0021DE
:105550001848FCF7C9FA00211748FCF7C5FA0021E2
:105560001648FCF7C1FA00211548FCF7BDFA0021E6
:105570001448FCF7B9FA00211348FCF7B5FA10BD3E
:105580000420000008200000F8FF070000070200C8
:1055900004090200080B02000C0D0200100F0200AB
:1055A00014110200181302001C150200201702003B
:1055B00024190200281B02002C1D0200301F0200CB
:1055C00034210200382302003C25020070B5182463
:1055D0001A4D22000021280000F03CF9280018494B
:1055E000FBF7DFFC174D22000021280000F032F904
:1055F00028001549FBF7BBFC144D220028000021B0
:1056000000F028F928001249FBF7B1FC11491248B3
:10561000FCF762F811491248FCF75EF8114C2000C3
:10562000FBF702FF0023A361E3620F4B0F4A10490F
:1056300020002360FCF70AF870BDC04674540010C7
:10564000AC2601008C540010C8340100A85400108E
:105650008010010030180000A55400102C16000026
:10566000A4540010C0540010048200000001001077
:10567000F113000010B50A4B187801F05FFA011C15
:10568000084800F08DFD084900F054FFF621890517
:1056900000F050FF00F036FB044B188010BDC046F0
:1056A00048010010000070420044AC46F054001065
:1056B000454AF8B5564692464B005B0D9A444D4616
:1056C0005F4644465246F0B4894605000C000E0081
:1056D0000700132A22DC002A47DB52463B4B1341CA
:1056E00098460B0042461340034311D0384A394BC9
:1056F00001F062FA0022002300F06AFA002805D0C7
:10570000002C41DB4E46434600279E4338003100C3
:105710003CBC90469946A246AB46F8BD5246332A59
:1057200008DD8023DB009A45F2D102000B0001F076
:1057300043FAEDE7284A9446012263445242DA4094
:1057400093460242E4D0224A224B01F035FA00226D
:10575000002300F03DFA0028D8D0002C1ADB5B466D
:105760004E469F4338003100D2E7194A194B01F0E9
:1057700023FA0022002300F02BFA0028C6D0002CC8
:1057800016DB00270026C1E7802352465B03134146
:105790009944B7E75346142B12D0342352460127BD
:1057A0009B1A9F407F19AF429B415B429944D6E7C9
:1057B0006400640825430027002DA7D0074EA5E705
:1057C000133B9C46E144CAE701FCFFFFFFFF0F00CB
:1057D0009C7500883CE4377EEDFBFFFF0000F0BFC6
:1057E0000E4B70B500251E000D4CE41AA410A54206
:1057F00004D0AB00F35898470135F8E704F050F9AE
:10580000084B00251E00084CE41AA410A54204D041
:10581000AB00F35898470135F8E770BDAC9A00002B
:10582000AC9A0000AC9A0000D89A000010B5034B67
:105830000100186800F062F810BDC046AC0100100D
:1058400010B5034B0100186800F00CF810BDC046FD
:10585000AC01001003008218934202D0197001338A
:10586000FAE7704770B50500002944D00C1F236883
:10587000002B00DAE418280000F0E8F81E4A13684C
:105880001100002B02D16360146031E0A3420DD9F6
:105890002268A018834203D118685B6882182260CE
:1058A00063600C6024E0A24203D813005A68002A07
:1058B000F9D11E689819A0420BD1216871185818A7
:1058C0001960824214D110685268411819605A60F8
:1058D0000EE0A04202D90C232B6009E02168601879
:1058E000824203D1106852684118216062605C6096
:1058F000280000F0ACF870BDF8540010032370B518
:10590000CD1C9D43083506000C2D01D20C2501E06D
:10591000002D01DBA94202D90C23336048E030009E
:1059200000F094F8234B1C681A002100002913D0C2
:105930000B685B1B0DD40B2B02D90B60CC181EE03F
:105940008C4202D1636813601AE04B6863600C00FC
:1059500016E00C004968E9E7174C2368002B03D1D7
:10596000300000F059F820602900300000F054F8B1
:10597000431C18D00323C41C9C43A0420DD12560B6
:10598000300000F064F8200007220B30231D904304
:10599000C31A0ED05A42E2500BE0211A300000F038
:1059A0003BF8431CEBD10C233000336000F04FF880
:1059B000002070BDF8540010F4540010104B70B566
:1059C0001C680500A36B002B15D11820FFF72EFFD4
:1059D0000C4BA06303800C4B012243800B4B838054
:1059E0000B4BC3800B4B038105234381063383811B
:1059F0000023026143610022A36B1D615A6170BDE7
:105A0000AC0100100E330000CDABFFFF34120000DC
:105A10006DE6FFFFECDEFFFF002370B5064C0500CE
:105A200008002360FBF79CFB431C03D12368002B79
:105A300000D02B6070BDC046FC540010031C0A78D7
:105A400001311A700133002AF9D17047704770474D
:105A500002B4714649084900095C49008E4402BC01
:105A60007047C046002243088B4274D303098B421F
:105A70005FD3030A8B4244D3030B8B4228D3030C1E
:105A80008B420DD3FF22090212BA030C8B4202D3C0
:105A90001212090265D0030B8B4219D300E0090AE8
:105AA000C30B8B4201D3CB03C01A5241830B8B42F1
:105AB00001D38B03C01A5241430B8B4201D34B03DA
:105AC000C01A5241030B8B4201D30B03C01A52413F
:105AD000C30A8B4201D3CB02C01A5241830A8B42C4
