:1000000000800010FD0000008D1200008F12000023
:1000100000000000000000000000000000000000E0
:10002000000000000000000000000000911200002D
:100030000000000000000000931200004157000083
:100040009512000095120000951200009512000014
:100050009512000095120000951200009512000004
:1000600095120000951200009512000095120000F4
:1000700095120000951200009512000095120000E4
:100080009512000095120000155500009512000011
:1000900095120000951200009512000095120000C4
:1000A00095120000951200009512000095120000B4
:1000B000B50100009512000095120000000000003C
:1000C000CCA1000000010010F0030000CCA1000052
:1000D0000000002000000000CCA100000040002033
:1000E0000000000000050010044300000000002094
:1000F00000000000004000200000000010B5114C7E
:10010000114B9C4207D2206861680C34231F1A6887
:1001100001F0C1F8F4E70D4B9C4205D220686168FC
:1001200001F0C2F80834F6E701F01EF8084B002B86
:1001300002D000E000BFFEE706F08EF900F062F8A2
:10014000F9E7C046C0000000E4000000FC00000029
:100150000000000010B5064C2378002B07D1054B9A
:10016000002B02D0044800E000BF0123237010BD23
:100170000005001000000000CCA1000008B5084BED
:10018000002B03D00748084900E000BF0748036878
:10019000002B03D0064B002B00D0984708BDC0466B
:1001A00000000000CCA1000004050010F0040010C5
:1001B00000000000094A5368590709D501239362DA
:1001C000906B012305491842FAD18B670B640B62CF
:1001D00001239365024A13707047C04600400050E7
:1001E0001C05001010B500240020FF2101F0C8FDFF
:1001F000034BE054802301345B009C42F4D110BDDA
:1002000027050010F0B500208BB0FFF7EBFF02F0E0
:1002100085FADA4B8022D96F92050A43DA67D8490A
:10022000D84B01221A6099601A62D7499A648022D9
:10023000D2009950D54A0024FF320792D44A09943B
:100240000892D44A1D1C1168802149051160D24EC4
:100250000027201C3770FFF7C5FF06AAC948391CC4
:1002600004F0C2F90123AB66CC4A8123DB00EA50DB
:100270003278D2B2002A0FD158230093101C111CDF
:100280006E2302F071FB0028F2D0C54B0322C54853
:100290001A8003F0D5FCEBE70134642CD7D103F0CE
:1002A000BBFD00B204F094F8BF4CC04B012722788C
:1002B0001F70BB4BD2191A80BD4B00221A80BD4B58
:1002C000381C1B789B08BB40059304F02BF9BA48F7
:1002D000BA4D0178BA4E2A7823780091381C3168DB
:1002E00004F0C8F8B44F316838782A7823780C3194
:1002F0000090022004F0BEF802F052FEB14803F074
:100300009FFCB14F3178381C05F078FC381C03F0A5
:1003100013FDAE4803F094FC0A21287803F012FD87
:10032000AB4803F08DFC20780A2103F0EBFC207829
:10033000052811D806F0C6F9030507090B0DA548D5
:1003400008E0A54806E0A54804E0A54802E0A54865
:1003500000E0A54803F0F0FCA44803F071FC04F0B1
:1003600083F80A2103F0EEFC0027A148002103F0E6
:10037000F5FC0397049702F05DF9002800D143E1F2
:100380009C4C2368002B00D0A5E001F067FC0028FE
:1003900006D08A4B1A7801321A7080235B002360E2
:1003A00001F062FC002806D0844B1A78013A1A70DA
:1003B00080235B00236001F045FC002804D0804BC3
:1003C0001A68002A00DDC1E001F042FC002804D0D8
:1003D0007B4B1A68572A00DCBEE0042001F0DCFBEE
:1003E000714D002803D02B78002B00D0BAE00520F7
:1003F00001F0D2FB002803D02B78042B00D8B7E003
:1004000004F032F8049FB84202D080235B002360DE
:100410002368002B61D002F0C3FD0024604E6D22E2
:10042000211C201C2223348003F07AF82B786548A5
:10043000013333805E4B1C8003F002FC624E604C43
:10044000301C217805F0DAFB301C03F075FC5F48A6
:1004500003F0F6FB594B0A21187803F073FC5C4853
:1004600003F0EEFB28780A2103F04CFC28780528DD
:1004700011D806F027F9030507090B0D554808E0C8
:10048000554806E0554804E0554802E0554800E06C
:10049000554803F051FC554803F0D2FB03F0E4FF4C
:1004A0000A2103F04FFC444D444F3F4E29783A78DF
:1004B000337800912168012003F0DCFF03F0D4FFC2
:1004C0002168049028783A7833780C310090022023
:1004D00003F0D0FF01E0013B2360474D354B304E28
:1004E00000241A7828782621348002F00DFF2E4B44
:1004F000039F1B78059801333380404B2A78DB5DDE
:100500008027FF1ABF103E4B3F18BFB2501E19780C
:1005100000B212B23BB202F03FFF58230093221CFC
:100520006E23201C211C02F01FFA2B78354A344818
:1005300001331278DBB2348007702B709A4200DCF2
:100540002C70039B0233DBB2039314E7013A1A6069
:1005500080235B00236037E701321A6080235B0051
:1005600023603AE7013B2B70A0231B0123603EE789
:1005700001332B70A0231B01236041E7048004405A
:10058000004700100040005012070000270500102F
:100590009B0A001000E100E01C0500101510FF0090
:1005A000220100102C810000100100102009001011
:1005B0002C0900102A010010090100100801001088
:1005C00004010010348100001F0500103981000073
:1005D0003E810000438100004881000050810000FE
:1005E000558100005D810000648100006C81000085
:1005F0009C0900100C01001026050010681F001057
:100600001D050010260100100BB0F0BD08B5034811
:1006100001F0C1FB024803F00FFA08BD25050010E8
:100620001E05001008B5011C014800F03DFD08BD85
:10063000D406001008B50348FF2100F035FDC0B214
:1006400008BDC046D4060010F8B543B2041C0D1C0A
:10065000002B07DA77200021FFF7F6FF012832D8B8
:100660007F231C40A02688239B0136068027F75055
:10067000FFF7E0FF8A239B01F750FFF7DBFF201C09
:10068000FFF7D0FF280EFFF7CDFF280CC0B2FFF711
:10069000C9FF280AC0B2FFF7C5FFE8B2FFF7C2FFE3
:1006A000402C04D08720482C02D0012000E0952067
:1006B000FFF7B8FF0A24FFF7BDFF030603D5013C8F
:1006C000E4B2002CF7D1F8BD73B58823404DA024C7
:1006D0009B0180222406E250281C3E4900F0DAFCEF
:1006E000281C0821002200F0C9FC84239B01E35848
:1006F0006425013DEDB2FFF79DFF002DF9D14020AB
:10070000291CFFF7A1FF041E012C35D1D52148205B
:100710004900FFF799FF012815D1FFF78BFF01AEC4
:10072000A8550135042DF8D1B378012B24D1F378E5
:10073000AA2B21D1284C8021C905E920FFF784FF8D
:10074000011E3BD11AE0E920291CFFF77DFF41265D
:10075000012801D80224E926204D301C0021FFF792
:1007600073FF00282FD1002D06D080215020890052
:10077000FFF76AFF002813D0002411E0002CFBD003
:100780007A20FFF761FF0028F6D1041CFFF752FF23
:1007900030550134042CF9D133785A0600D50C2495
:1007A0000F4BA0221C70882380219B011206D15080
:1007B000FFF740FF60426041C0B276BD013CA4B289
:1007C000002CD9D0B7E7013DADB2002DD4D0C4E79D
:1007D000D4060010801A0600E02E0000A861000078
:1007E00027060010F8B51D1C234B071C1B78141C92
:1007F0001A0700D449025120FFF726FF002801D034
:1008000001262FE01D4EFFF715FFFF2804D1013E02
:10081000B6B2002EF4D0F6E7FE28F1D1184E761BC2
:10082000361BB6B2002C02D13C1E05D10EE0013CB5
:10083000FFF700FFA4B2F5E7FFF7FCFE7A1920707E
:10084000013492B2A3B29A42F6D105E0013DADB2B5
:10085000FFF7F0FE002DF9D1013EB6B2FFF7EAFE38
:10086000002EF9D18823A02280219B011206D150AD
:10087000FFF7E0FE301CF8BD2706001030750000C1
:1008800002020000064B821E1B680020D968023954
:100890008A4203D258789B695043C0187047C046BB
:1008A000280600100F4B10B51A68002303808368D8
:1008B000041C012B14D0D16801208B4211D2002BD3
:1008C00003D11178032900D15369E360002B03D0D1
:1008D000181CFFF7D7FF00E050692061002000E0FE
:1008E000181C10BD28060010F0B5324B85B0041C52
:1008F0001D6801285AD9EA68904257D22E78022EF4
:1009000032D0032E40D0012E50D183B25A08D318D2
:100910009BB2DA055B0A0193274BD20D03AF29691D
:100920009A4204D0019B381C591802230EE0019B07
:10093000381C5918331CFFF755FF021E36D12969A0
:10094000019B01316846C9180D30331CFFF74AFF7F
:1009500000282BD17B7838781B0203431811E2075B
:1009600025D41805000D22E02B69010AC4B203AF9B
:10097000C9186200381C331CFFF734FF002815D15A
:1009800078783B7800020FE02B697F22C10903AE23
:100990001440C918A200301C0423FFF723FF0028CD
:1009A00004D1707833780002184300E0012005B0CC
:1009B000F0BDC04628060010FF01000070B5058894
:1009C000154B0135ADB2041C1E68002D01D103206A
:1009D00021E00369002BFAD02A0718D10133036103
:1009E000C068002803D1B388AB42F0D90FE0727819
:1009F0002B09013A1A420AD1FFF776FF012809D9DB
:100A0000F3689842E3D2E060FFF73CFF2061258065
:100A1000002000E0012070BD28060010F8B5041C7D
:100A20000D1C2B78202B01D10135FAE72F3B5A42C0
:100A300053410026ED18A6602B78202B2BD8201CC4
:100A4000FFF730FF3E4B1B689B681E7076E03378E3
:100A5000002B65D0F27A082313405AD16268F15C0A
:100A60000133D01801380078884252D10B2BF6D1CF
:100A7000D37A002B61D13B689B68DA7AD1065AD5CC
:100A80005A7D197D12020A43D97E9B7E0902120407
:100A90000B431343A3606068021C031C0B32934298
:100AA00003D0202119700133F9E70022131C08211B
:100AB0005E1CEB5CF6B2202B10D92F2B0ED02E2B08
:100AC00034D08A420AD21F1C613F192F01D8203B23
:100AD000DBB2571C8354FAB2331CE9E70022202111
:100AE00099425241C272201CAD19FFF7DBFE00286B
:100AF00014D1134F3B689E6822880F231A4052017D
:100B0000301C21692023FFF76DFE00289FD00120B3
:100B100014E0201CFFF752FF0028EDD003280DD170
:100B20006368D87A43425841033007E00829D5D199
:100B30000A1C0B21D0E7042000E00020F8BDC046CD
:100B40002806001030B51B4B011C1D6891B0062013
:100B5000002D2CD0002308ACAB70AC6000AB03A818
:100B60000493FFF75BFF002821D123780320002B9B
:100B70001DD0E27A1023134019D1617D227D090234
:100B80001143E27EA07E1202090402430A436A6214
:100B9000E17FA27F090612040A43217F181C0A4341
:100BA000617FEB6109020A432A620122AA7011B037
:100BB00030BDC04628060010F7B5314B01901C68C7
:100BC00000230D1C171C13809C4257D0A3780520CE
:100BD000D90754D5226AE169531A9D4200D99DB2C2
:100BE000019A0092002D43D0E669F3051BD1700AEB
:100BF000617805F0B5FD00290BD1002E01D1606AA6
:100C000002E0A06AFFF770FE012833D90023A0623A
:100C1000E370A06AFFF736FE00282BD0E3785A1C59
:100C2000C318E270E362E3692E1CDA058023D10D5C
:100C30009B005B1A9BB29D4200D91E1C0198009933
:100C4000431E9841B6B240420840D20DE16A331CBF
:100C5000FFF7C8FD00280DD1E269AD1B9319E361D0
:100C6000009BADB29B1900933B88F6183E80B9E714
:100C7000281C04E00023A370012000E00620FEBD34
:100C8000280600102A4BF7B51C68002C4CD0A2781F
:100C90000523D10749D5236A051E9D4200D91D1C95
:100CA0000022E369E261954238D066787602002B33
:100CB00012D0311C681E5F1E05F00EFD311C019024
:100CC000381C05F009FD019A824205D373423B406E
:100CD000E361ED1AA06A0EE0606AA0620BE0FFF724
:100CE00003FE01281CD9E368984219D2E169A06289
:100CF0008B19E361AD1BB542F1D8E2695319E36189
:100D0000FFF7C0FD00280BD06B0ADAB2ED0501D168
:100D1000E27003E001321818E270E062002304E0A0
:100D20000023A370012300E00623181CFEBDC0466B
:100D30002806001030B5154B051C1B688DB0062029
:100D4000002B20D004AC9C6001AB6B60281CFFF72B
:100D500065FE002814D12378002B0ED0E37A0420FE
:100D6000DA0610D5627D237D12021A43E37EA17E4E
:100D70001B0212040B431343AB60281CFFF792FDC8
:100D8000032800D104200DB030BDC0462806001055
:100D900038B5051C0C1C131C291C0248221C00F031
:100DA00003F838BD738100000FB404B07047000031
:100DB00038B50368041C0D1C013304D106480749EB
:100DC0002422FFF7E5FF6368002D01D0E26800E010
:100DD0002269136038BDC046A4810000BC810000B8
:100DE00070B50D1C041C161C00F0B4FA013507D0B8
:100DF000201C002100F0D6FA201C311C00F0CCFA97
:100E000070BD08B50122FFF7EBFF08BD70B50D1CE2
:100E1000041C161C00F09EFA01350BD0201C311C5E
:100E2000FFF7C6FF201C012100F0BCFA201C0021A6
:100E300000F0B2FA70BD08B50022FFF7E7FF08BD69
:100E400010B5044B041C083303601C3000F082FB17
:100E5000201C10BD0882000010B5041CFFF7F0FF35
:100E6000201C00F02BFA201C10BD00000F4B70B5A9
:100E70000833051C08C5041C0E1C281C0021182260
:100E800005F024FB0023201C311CE3612362636313
:100E9000A363E364064A231C1C3000F0F9FA281C03
:100EA000311CFFF7AEFF201C70BDC0460882000059
:100EB000150F000008B50A1C031C1C30002905D0C2
:100EC0000022196201215A630A1C00E0012100F08E
:100ED00055FB08BD08B50A1C031C1C30002905D0B1
:100EE00000229963DA640221012200E0022100F06D
:100EF00045FB08BD08B54369011C002B04D10368FC
:100F0000002B06D0984704E00068002801D0043187
:100F1000984708BD08B5012903D0022904D138300B
:100F200000E02030FFF7E6FF08BD000010B5041C0C
:100F3000421C12D00B685A1C0CD0A34208D1201CB2
:100F4000896800F041FB201C002100F059FB04E0FF
:100F50000C31EFE70148FFF727FF10BD18820000B2
:100F600008B588420AD0431C07D0013106D0044896
:100F7000FFF71AFF0120404200E0081C08BDC046F0
:100F8000298200000B685A1C05D0834201D14868B1
:100F900002E00C31F6E7181C7047000010B5041C85
:100FA000431C07D0FFF7EEFF041C431C02D102488C
:100FB000FFF7FAFE201C10BD3A820000074A1368B2
:100FC0001818EFF30881884205D3054B0C22012045
:100FD0001A60404201E01060181C704714010010B4
:100FE00000480010014B083303607047788200000E
:100FF00010B5044B041C0833036000F05FF9201C9B
:1010000010BDC0467882000073B5041C0E48002550
:10101000083020600820E0600C48261D60610698BA
:101020006560257225610090301C00F027FC301CA3
:101030002B1CE168226900F0A1FC301C616900F002
:10104000D3FC201C76BDC0467882000040420F00D1
:1010500070B5094D041C2B6883420BD0061D301C53
:10106000E1682269002300F089FC301C616900F00E
:10107000BBFC2C6070BDC0462C06001008B5044BAC
:101080000261C16000221A60FFF7E2FF08BDC0469E
:101090002C06001008B5034B002241611A60FFF7CF
:1010A000D7FF08BD2C06001038B50D1C041CFFF737
:1010B000CFFF291C201D00F0DDFC38BD38B50368CA
:1010C000041CDB68984763685A682368002A02D1C9
:1010D0009B68984714E05B681568984763682D1A09
:1010E000002D08DC5A68916859601B68002BEAD013
:1010F00050689847E7E75B68226818681369984763
:1011000038BD000008B50248FFF7D8FF08BDC0464B
:10111000A482000038B5041C00F0E8FC051C00F0B7
:10112000E5FC401BA042FAD338BD08B5FA239B006A
:101130005843FFF7EFFF08BD0A4A70B595689368FA
:101140002C1C002B0AD1802676059C195E5904338D
:101150002660C02BF7D18024640594601030800095
:10116000015170BD00ED00E07FB53E4A8021D06F97
:1011700049023D4B0143D16723223C499A60012239
:101180000A603B493B4D0A6000228E211A628900A9
:1011900058582024284001900198A0430190019CB8
:1011A000C82000022043585000920099324A9142D0
:1011B00003D8C046009A0132F6E7012200211A64E2
:1011C0005A6459645A64596C274AC807FBD58E2162
:1011D00089005058802428400290029820430290B1
:1011E000029EC82000020643565023269660565899
:1011F00035400395039DA5430395039C2043505020
:10120000D8680121184A0842FAD00320106700204C
:10121000516750675167586F0121134A0842FAD04D
:101220008E20916780001558144C2C40145015588E
:10123000134C2C40145000209164D164D064D164CC
:10124000DA6CD107FCD5084A2321116159690122C2
:101250001142FBD00B4B0021196019600A4B1A6038
:101260007FBDC0460480044000800440F04004403C
:10127000F4400440FF250000C3090000FFFBFFFF0E
:10128000FFFEFFFFC0800440C880044070477047E5
:1012900070477047704710B50023934203D21C5823
:1012A0005C500433F9E710BD00238B4203D20022C7
:1012B0001A500433F9E770470020704708B505F06D
:1012C000FBF808BD10B5041C421C04D11648174990
:1012D0001E22FFF75DFD164B1A68002A06D1012277
:1012E0001A60144B1449DA6F0A43DA670121002CA3
:1012F00012D0124B9C420FD0114B9C420CD0114B80
:101300009C4209D0104B9C4206D0104B9C4203D00B
:101310000F4BE1184B425941201CA40400F054F932
:10132000E40E0120A04010BDA9810000AC820000A5
:10133000380600100480044040000100281400001A
:101340002C16000030180000341A0000381C000071
:10135000C4E1FFFF38B5041C0D1C21604A1C11D0EC
:10136000081CFFF7AFFF2D14074AAD00AB18074A62
:10137000E360AB18064A2361AB186361054B6060FC
:10138000ED18A56038BDC046002200A0802200A054
:10139000002100A0002000A008B5006800F030F98E
:1013A00008BD000038B50368041C0D1C013304D1CE
:1013B00009480A494322FFF7EBFC002D06D0012D16
:1013C00009D1A368626819680A4303E0A3686168E9
:1013D0001A688A431A6038BDA4810000AC820000FC
:1013E000F8B5144D01210C1C6B6A8440234220D0B7
:1013F000114B8700F85800281BD02B68234218D1C6
:101400006B68234206D0EB69234203D00B4B1B6869
:101410009847EC612B69074E234209D0336A234277
:1014200006D0054B0221D859044B1B6898473462FB
:101430006C62F8BD004000A0400600103C060010A1
:1014400008B50020FFF7CCFF08BD08B50120FFF765
:10145000C7FF08BD08B50220FFF7C2FF08BD08B5E9
:101460000320FFF7BDFF08BD08B50420FFF7B8FF54
:1014700008BD08B50520FFF7B3FF08BD08B5062075
:10148000FFF7AEFF08BD08B50720FFF7A9FF08BDAD
:10149000F0B5061C274885B0814202DD012040429C
:1014A00046E0254802600022244895002C5802940A
:1014B000002C39D12B5022483260C46F214F224B6F
:1014C0003C43C4678803800F1824444349121F27F4
:1014D0000F40111CBC465E31644489000090CC5022
:1014E0008121890001245858271C974038435850BF
:1014F0000099A02388001B06C01880239B01C758B1
:1015000061460397271C8F400399B943C1500F4B85
:1015100050B2E958FFF710FE33681F2213409C4079
:101520000B4B02981C6003E00132082ABCD1B5E7DE
:1015300005B0F0BD131102003C060010400600107B
:10154000048004408000090000800440F482000010
:1015500000E100E0036800219A00064B10B5D1506D
:10156000054A81239B000068D15801248440A1438F
:10157000D15010BD4006001000800440036870B5D3
:10158000104D012098402B68034200D168622E68FC
:10159000C44326400B4B2E60012909D1002A03D0F9
:1015A0005A68104358600CE05A6814405C6008E0C8
:1015B000002A03D01A691043186102E01A69144026
:1015C0001C6170BD004000A038B5041C0D1C431CFC
:1015D00004D1084808491522FFF7DAFB074BE40558
:1015E000E40DE418226807239A431D40131C2B4383
:1015F000236038BDA981000014830000004004402E
:1016000038B5041C0D1C431C05D1114811491D227D
:10161000FFF7BEFB06E081231B01984216D00E4B5C
:10162000984213D0E4050D4BE40DE4182268042D14
:1016300004D18023DB001343236007E018239A437F
:1016400003231D40EB00151C1D43256038BDC0461B
:10165000A981000014830000140A00000040044027
:1016600038B5051C0C1C081C002105F035F90028B4
:1016700009D1FE21201C890505F042F9002803D07C
:10168000FE24A40500E000242D6880239B00E85878
:1016900005F0F0FF211C05F0D1FC05F067F981236E
:1016A0009B00E85038BDF7B580238122046895007F
:1016B0009B00E758081C6659E15005F07FFF019038
:1016C000301C05F0D7FF061C381C05F0D3FF011CA9
:1016D000301C05F0CFFA011C019805F0AFFC05F0B5
:1016E00045F96051F7BD0000F7B5041C0F1C081C3C
:1016F0005149FFF753FCC3B2061CFF2B02D14F48E0
:10170000FFF752FB4E4801230178051C0A1C1A40C2
:1017100000D18EE01941194200D084E02A780121DD
:1017200099400A432A70474A9900895863602160AA
:1017300045498025C86F454A01902806019D093317
:101740000543CD67012051689840031C0B4353604B
:10175000381C3949FFF7EAFB27683D4A3B683D4999
:1017600013433B607B680C2213437B607A683A4BDF
:1017700013407B60394B7D68186804F0ADFF7F2310
:1017800001381840400128437860F0B2012507284D
:101790001DD804F097FF040A1016040A1016A0239F
:1017A000DB00FD5002222E4B10E0A123DB00FD5098
:1017B00002222C4B0AE0A223DB00FD5002222A4B1E
:1017C00004E0A323DB00FD50284B0222FA508022C4
:1017D000C12352019B00FA500123C0225B429200B8
:1017E000BB502349C3229200B95080252149C2220F
:1017F000AD009200BB5079517B598126B6009B0801
:10180000BB517B68042293437B60201CFFF74BFF96
:101810002468605905F02EFF002105F00FFC05F04B
:10182000A5F8A051F7BD1448FFF7BEFA01235B42AB
:1018300074E7131C72E7C0465C830000C883000095
:1018400060060010F483000004800440008004401F
:101850000100060040420F001FF0FFFF18010010BA
:10186000040500000C050000140500001C05000024
:1018700001100000204E0000E2830000F0B587B0A8
:10188000041C0091081C314901920293FFF786FB6A
:101890002F49071C0198FFF781FB2E4D0390291C4F
:1018A0000298FFF77BFB2C4E0490311C0C98FFF73D
:1018B00075FB03990590381CFFF752FB0599071C2F
:1018C0000498FFF74DFB011C381CFFF749FB204F24
:1018D0002060013004D1214821494822FFF758FAFD
:1018E0002368204A93420FD01F4A934219D11F4ABE
:1018F0008021D06FC9020143D1671D4A01211D4BD0
:1019000011605A6804210AE0184A8021D06F090149
:101910000143D1671849174B01220A6059680A43ED
:101920005A6000980949FFF701FB0198391CFFF73D
:10193000FDFA0298291CFFF7F9FA0C9B013303D03A
:101940000C98311CFFF7F2FA07B0F0BD408500009B
:10195000FC830000388400007C8500008084000047
:10196000948400000000044000800540048004408E
:101970009C8004400080044094800440F8B51F1C03
:101980000368151C5A680E1C02218A435A60331FD3
:10199000041C0C2B06D9032D04D9114811496522CA
:1019A000FFF7F6F923680122281C1968D54010407A
:1019B000C0012A40013E06439201090C0904164366
:1019C0000E431E605A680D218A43791E8F41BF0065
:1019D00017435F60236802215A680A435A60F8BDC2
:1019E000DA84000094840000F7B5036802245A6882
:1019F000051CA2435A601C4B0E1C1B680193211C42
:101A0000019804F069FE05F0D9FD071C301C05F0B3
:101A1000D5FD011C381C05F02DF9FC21890504F0C9
:101A2000BDFF06F013FB04F05FFC06F0DBFAFF28B5
:101A300010DC2B680D4A1C61196801380A401A60D5
:101A40001A680002104318602B6802215A680A4382
:101A50005A6007E0802302345B009C42CFD10448E7
:101A6000FFF7A2F9F7BDC04618010010FF0000FF04
:101A70001885000010B50368DA689407FCD59960F2
:101A80000368DA685107FCD5986810BD38B5104B6B
:101A90001A68002A1AD101251D600E4B8022D96FC9
:101AA000D2000A43DA670C4B0C4C186802236360BF
:101AB0000B4904F011FE0138E0600A49656013200B
:101AC000FFF73AFB8022084B12031A6038BDC0466C
:101AD00064060010048004401801001000800140DA
:101AE00040420F000511000000E100E008B5044B82
:101AF0001B68002B01D1FFF7C9FF024B986808BD96
:101B00006406001000800140034B012198615A696E
:101B10000A435A617047C04600800140024B0121D0
:101B20005A698A435A61704700800140014B012283
:101B30001A607047008001407047704770477047D7
:101B4000014BFF221A7070476A06001008B502F0B8
:101B5000C1FD08BD0023094AD15C094A002902D011
:101B6000D15C013105E0D05C002803D0FF2800D013
:101B7000FF21D1540133072BEDD17047E01E001037
:101B80006D060010034B185C013843425841C0B247
:101B90007047C0466D060010034B185CFF38434287
:101BA0005841C0B27047C0466D06001010B51E4BBC
:101BB000002219781A701D4A5078002801D001209F
:101BC0001870D078002803D01878022420431870A9
:101BD0001078002803D018780424204318709078D7
:101BE000002803D0187808242043187010790028A2
:101BF00003D018781024204318705079002803D09F
:101C000018782024204318709279002A03D01A787B
:101C1000402002431A701B78081C18409943044A5C
:101C2000044B1070197010BD6C060010E01E0010FF
:101C30007506001074060010014B18797047C046F5
:101C4000E01E0010014B18787047C046E01E0010DF
:101C5000014B98787047C046E01E0010014B587841
:101C60007047C046E01E0010014BD8787047C04650
:101C7000E01E0010094A00231380094A1370094A24
:101C80001370094A1370094B012252421A80084A04
:101C9000084B1A60084B09221A7070477C06001026
:101CA0007B060010840600107606001078060010EF
:101CB000848F0000800600107A06001008B50248E4
:101CC000FFF7D8FF08BDC0467706001037B572B6DB
:101CD000244B002159601961234B04221A60234BC5
:101CE0008E2292009D588024E4002C439C509D58E5
:101CF000802464002C439C5001225A671C1C5967A5
:101D0000616F0123194A1940FAD11167536751676E
:101D1000616F0123154A0B40FAD15364516C8E2137
:101D200093608900136753605558114C2C400194FF
:101D3000019C80252C430194019DC82424022C433E
:101D40005450A0228421120689015350094953504E
:101D500009495350094B9860001C01688D46406842
:101D6000804737BD004000A010E000E00080044044
:101D7000FF250000042100000821000000ED00E024
:101D800038B5041C0D1C2D1B04F046FC691C04F026
:101D900047FD081938BD7047F0B5C1B00E1C00F002
:101DA00081FE00F08BFE8023DB029B1B051E9D4203
:101DB00000D91D1C00F06CFE134801F0BDFF00248B
:101DC000AC421DD280277F006846391C00F044FEDB
:101DD000FF2804D82B1BBB4201D90C4806E0A019F0
:101DE000694603F0EDFB002804D0094801F0A4FF88
:101DF000012006E001340748FF3401F021FFDFE74E
:101E0000002041B0F0BDC046EE900000FA90000006
:101E10001591000067910000534B73B501261E70A9
:101E2000524B00241C80524DFC23DB002B8000F021
:101E300067FE211C201C00F093FE301C01F056FEB2
:101E40000094019407F0D9FF4A48042100F0DEFD18
:101E5000A0420FD100F026FE0820404200F004FE10
:101E60000421684600F0F8FD042101A800F0F4FD0B
:101E700000F00EFE404C414B22689A4200D0404C8C
:101E800022689A4200D03F4C22689A4200D03E4CD1
:101E900022689A4217D020235B423C482B8001F0F5
:101EA0004BFF009B002B03D0394B019A9A4242D83A
:101EB000384801F041FF384801F03EFFFC23DB00C9
:101EC0002B80364822E0364B36482B8001F0B8FE96
:101ED00001235B4260680A212B8001F039FF009BDF
:101EE0006268934227D8A068FFF7F0FE17E0FFF77B
:101EF000BBFE002836D1FFF7B1FE0028F7D00098CE
:101F00000199FFF749FF002828D0274801F014FF66
:101F100005E0FFF74BFEFFF78FFE002804D1FFF727
:101F20008BFE0028F5D01DE0FFF786FE002819D0B3
:101F3000FFF73CFEF8E71D4B1D482B8001F080FEAB
:101F400001235B4200980A212B8001F001FFFC2352
:101F5000DB0018482B8001F0EFFECCE7164801F0BB
:101F6000EBFE87E773BDC046240100109A090010FC
:101F70001E010010DB910000F4FF03001EAB07B050
:101F800004FF030004FE030004F00300E3910000DB
:101F9000FF7F0300F7910000A38100000E92000074
:101FA000FF07000029920000339200001FF8FFFF96
:101FB000599200006D9200004F920000F8B5012088
:101FC00001F094FD454B00261E8000F099FD444C25
:101FD000444B4548238001F01DFD444D01232B70E7
:101FE000434BFC271E70434B3021FF0060201E70C6
:101FF000278001F029FE404801F022FE38216020B0
:1020000001F022FE3D4801F01BFE4021602001F05E
:102010001BFE3B4801F014FE4821602001F014FE35
:10202000384801F00DFE6021282001F00DFE012648
:10203000354801F005FE76423448268001F000FE66
:102040003348278001F0FCFD022326802B7003F02B
:102050008FFB032486B2FFF7A9FD6820782101F0E9
:10206000F3FD201C0A2101F04DFE03F081FBFA2252
:102070009200B318984203D903F07AFB013C86B270
:1020800002F0A0FB002808D002F09CFB041E02D046
:10209000FFF78CFDF8E7FFF7BFFE02F087FB002893
:1020A00007D002F083FB002802D0FFF77FFDF8E79E
:1020B000041C02F081FB002806D002F07DFB002802
:1020C00004D0FFF773FDF8E7002CC4D101232B7077
:1020D00000F016FD002001F009FDF8BD9A0900107E
:1020E0001E01001000F8FFFF208C000024010010EA
:1020F000250100102001001092920000979200002C
:102100009C920000A1920000A6920000AC920000F8
:10211000B0920000F0B56E4E8BB004923288071C6E
:102120000D1C1C1C099206D0002132220091081CB3
:10213000131C00F009FDFC23DB003380002C16D0BB
:1021400001F0CCFC041C012001F0D0FC02F08CF961
:10215000291C021C1439781EC0B2C9B20A2301F02E
:10216000D5FD5C4801F06CFD201C01F0BFFC049B18
:10217000574C0B2B01DC584B2380ADB2574E0395C7
:1021800001232DB2321C38B20093291C00F0F2FC5E
:10219000049A0795172A01DC4F4B2380BFB205979D
:1021A000083701253FB2381C0799321C2B1C0095BB
:1021B00000F0E0FC039B0095043B1AB20692111C50
:1021C0002B1C381C321C00F0D5FC049B2F2B01DD8E
:1021D000434B00E0404B059E404D1036238036B205
:1021E0000124301C07992A1C231C009400F0C2FC17
:1021F000301C06992A1C231C009400F0BBFC039B96
:102200000094083B1AB20892111C231C301C2A1C93
:1022100000F0B0FC049B5F2B02DC2F4A2C4B1A8091
:10222000059F012418373FB2381C07992A1C231C2C
:10223000009400F09FFC381C06992A1C231C009473
:1022400000F098FC381C08992A1C231C009400F00C
:1022500091FC039E2A1C0C3E36B20094381C311CA3
:10226000231C00F087FC049A9F2A02DC1A4A184BB0
:102270001A80059F194D203701243FB2381C079959
:102280002A1C231C009400F075FC381C06992A1C9B
:10229000231C009400F06EFC381C08992A1C231C97
:1022A000009400F067FC381C311C2A1C231C00948D
:1022B00000F060FC03992A1C1039231C09B2009419
:1022C000381C00F057FC024B099A1A800BB0F0BD85
:1022D0001E0100103F9300008A520000FC9800008D
:1022E00000F8FFFFF7B5012001F000FCAC4B002225
:1022F0001A7002F0B9F8FA20000103F00FFA05F0A5
:10230000B9F98421C905041C04F0FAFA002801D0A7
:10231000FF2000E0202002F077F80025281C05F0BF
:102320004DF9211C04F0D8FA002805D028B2013557
:1023300002F04EF8EDB2F1E79A4B01261870012534
:10234000994B1B78002B00D10CE1002D00D109E145
:10235000012D00D095E0954D002E36D000F0D0FB39
:1023600001235B42102120202B8000F0F9FB9048D4
:1023700001F066FC9921282000F0F2FBFC278D4833
:1023800001F05EFCFF008C482F8001F059FC012316
:102390005B428A482B8001F053FC582100202F809B
:1023A00000F0DEFB864801F0C7FC864F381C01F0C8
:1023B000C3FC381C01F0C0FC381C01F0BDFC381C0B
:1023C00001F0BAFC804801F0B7FC3020992100F000
:1023D000C7FB02F049F8252802DC01235B4200E03C
:1023E0007A4B2B8002237A4A0093A42001233021C8
:1023F00000F0C0FB3621182000F0B2FB754801F058
:102400001FFC1820422100F0ABFB02F02DF8282819
:1024100001DD714800E07148FC2701F011FCFF006C
:1024200002236F4A2F80A42000936021012300F033
:10243000A1FB6621182000F093FB6A4801F000FC24
:102440001820722100F08CFB02F00EF8252802DD26
:102450005E4B2B8000E02F8002F006F80A2101F08D
:1024600051FC614801F0ECFBFC23DB002B8001F008
:10247000FBFF7621021C00237020FFF74BFE022594
:102480005EE7022D00D05DE7FFF790FB02F08EF9CA
:10249000002808D002F08AF9002802D0FFF786FB56
:1024A000F8E7051C4CE702F099F900282ED08421AA
:1024B000201CC90504F02EFA002808D0201C4B4926
:1024C00004F00AFA002809D0201C49490BE08421B5
:1024D000201CC90504F01EFA002802D0201C454922
:1024E00001E04549201C04F059FA4449041C04F059
:1024F00007FA002802D0FF2001F086FF201C404987
:1025000004F0FEF9002825D03D4C23E002F060F9EC
:10251000002800D114E78421201CC90504F0FAF931
:10252000002802D0201C334901E03349201C04F06C
:10253000AFFE8421C905041C04F0D8F9002802D09C
:10254000202001F061FF201C002104F0C5F90028C3
:1025500000D00024201C05F011F800B201F038FF73
:102560000026ECE6FA20000103F0D8F805F026F882
:10257000011C201C04F0AAF9002807D1201C04F03B
:10258000F5F9C1B2FA20000103F0D1F8201C04F0E3
:10259000F5FF00B201F01CFF01F04AFFF7BDC04695
:1025A0002501001096060010940600101E01001070
:1025B000BB920000D4910000CF920000D1920000A5
:1025C000DC920000F79200001293000000F8FFFF79
:1025D000B89800008F9100002D9300003793000001
:1025E000DA980000429300003F930000000004428C
:1025F000CDCC4C3C0000484100002040000050423F
:1026000000007F4308B5094B012200201A7001F039
:102610006DFA074801F0FEF903F09AF803F0B0F8FC
:1026200002F058F803F0AAF808BDC046940600105E
:10263000B8850000014B18787047C046940600101A
:1026400037B50024251C03F093F8274B1A689042F5
:10265000F9D91E301860012C0BD0002C02D0022CAE
:1026600023D039E0214B201C1C8000F057FA0124B4
:1026700032E0FC21EAB2C900002001F0A3FB1C4BB0
:102680001C4A1880107851786E234008181A49089F
:1026900058231C35591A0094231CADB200F06AFA75
:1026A000FE2D19D90025022416E0114BFC22D20080
:1026B0001A80104A6E23107851784008181A490879
:1026C0005823591A0123009300F054FA3F350A4B5E
:1026D000ADB29D4200D9FF24FFF7AEFA002801D128
:1026E000292CB0D937BDC046744200109A09001099
:1026F0001E010010AE930000FF03000008B520206B
:1027000001F082FE034B10221A80034BFF221A7045
:1027100008BDC046E61C00108C060010F8B5FFF797
:1027200071FF2E4B32221A702D4B01241C602D4B51
:10273000FF251D70FFF7E2FFFFF7FEF9281CFFF7EA
:10274000FCF9FFF703FAFFF705FAFFF7F8F900F0D5
:1027500002FAFFF775FF201C01F0C8F9224F00258F
:102760003D8000F0CDF9214E301C01F053F9201CC2
:1027700001F0BCF91E4BFC22D2001A803D8000F013
:10278000BFF9301C01F046F91A4F1B4E3D703470F2
:10279000FFF714FCFFF7A6FD01F04AFE281C01F02C
:1027A000A5F9164B16481C70164B3C701C70347003
:1027B00001F030F901F07CFB01F03AFEFFF7C0F9BF
:1027C0000520FFF7DFF9A84203D10F4B1B78AB427E
:1027D00002D1002001F0FCFDF8BDC04695060010B6
:1027E000980600108C0600109A090010208C00003A
:1027F0001E0100102501001020010010240100100E
:10280000BC8800001D0100106A060010F7B5284BB7
:10281000284E1B786F22D31A37883380264B274CDB
:102820001B78002125882180042B34D8181C03F044
:1028300049FF03212A2A2A0001F079FC0020FFF732
:102840007CF900F0ADFB1E4B01221E481A7001F00E
:10285000F7F91D4B0A21188801F054FA1B4801F0C2
:10286000EFF9002058230093011C021C6E2300F096
:10287000C9FB17E0164B07201A680F231340072BDC
:1028800007D9782005E0134A1278002A0AD00533C8
:10289000D8B2002104E00F4B1B78002B02D02F2070
:1028A00001F02CFAFF231F401D4037802580F7BD23
:1028B0002B090010340900106A06001028090010C6
:1028C000240100104D930000680600105A93000088
:1028D000880600106B060010F7B51D4A1378002B10
:1028E00034D000240B2B02D80C24E41AE4B2194B88
:1028F000012700201F7000F0A3FB174D55262B78F1
:102900000322F11A6118033300920020542201F0CF
:1029100044F8381C00F094FB2B780322F61AA11916
:10292000033300920020542200F0D3FF0B4B04220B
:102930001A802B78E41A0A4B57341C80094B18680C
:1029400001F07EF9024A1378013B1370F7BDC046CF
:10295000A006001024010010110700103409001017
:102960002809001090060010F0B587B005930CAB55
:10297000039104921F78061C01F054FA02F0F8FE4D
:102980001A4B1A781A4B1C68211A1A4C914212D908
:10299000216800290FD082181A60174B01251A6888
:1029A00001321A6000232360FFF7C8F8FFF7D2F85E
:1029B000FFF7C6F816E022680025AA4212D101F0FE
:1029C000B1FB01F00DFC01F0FDFCFFF785FFFFF707
:1029D0001DFF059B0097301C0399049A00F012FB21
:1029E00001232360281C07B0F0BDC04695060010E7
:1029F0009C060010980600108806001008B50248D2
:102A000001F01AF808BDC0469706001070B50F4CCB
:102A1000061C23780D1C102B0BD0301C2570FEF7E4
:102A200091F8051E0CD10A48311C03F043FE2B1C03
:102A300009E0084807F01EF901230028EDD002E064
:102A4000082323700123181C70BDC0461C01001010
:102A5000EC060010A406001013B56C460634221CC8
:102A6000FEF7AAF8208816BD08B5074B002804DA3F
:102A7000DA6941428A4200D25042DB69C018FEF74F
:102A800001F9024B187008BDA4060010FB060010E7
:102A900008B50020FEF7F6F8014B187008BDC046D7
:102AA000FB06001008B5034B186AFEF7EBF8024B63
:102AB000187008BDA4060010FB060010014BD86971
:102AC0007047C046A406001013B50123074C5B42B3
:102AD00081220093201C064B06495201FEF794FA0E
:102AE000201C0549054AFEF7E7FB13BDD40600107C
:102AF000180C000024120000E50F00000001001077
:102B000008B5002001F042FF024A00231380024A68
:102B1000138008BD340900102809001008B501F021
:102B200035FF08BD064B10B51B880F2B04D8054C8C
:102B30005B001B5B934201D002F09EF810BDC046C3
:102B4000280100101C07001013B504AC2488009461
:102B500002F0C4F813BD08B501F082FF08BD000003
:102B6000024B1880024B19807047C0463409001090
:102B700028090010F0B593B00B9118A909780E90B0
:102B80000C9111780A91517802320D910792012B24
:102B900074D10A9B00220733DB100893019201993C
:102BA0000A9A0BB2934200DB02E1DA17520FD218F5
:102BB000D210D2B209927F4A134004D50822013BB9
:102BC0005242134301331BB280221A410E9B0199DA
:102BD0009BB289B2029303914B0002999BB20F9270
:102BE0005A1892B210920A1C01329B189BB2119390
:102BF00000240D9923B28B423DDA089A0999534378
:102C00004AB20799CB189B5C0F9A1A4231D00C9BA1
:102C1000694D012B08D10399029A0B9B8818E11882
:102C200000B209B22A8822E00B9963008EB29BB2EF
:102C3000109A9F1904933FB213B2181C2A88391CAA
:102C40000593FFF76FFF11992A880BB2181C391CE6
:102C50000693FFF767FF049A0136961936B22A8861
:102C60000598311CFFF75EFF2A880698311CFFF794
:102C700059FF0134BDE7019A01328FE7042B00D0E0
:102C800096E00023039303990D9A0BB2934200DB65
:102C90008EE00B9B89B29BB20593059A4B00D3182B
:102CA0009BB206910E9A99B201339BB292B20993EC
:102CB0000023089104920292019301990A9A0BB29F
:102CC000934272DA07993D4B0A781B681211520041
:102CD000D45A0C9A022A1ED1019B04995E00089ACC
:102CE0008E19B6B235B217B2013636B2281C391C6D
:102CF000221CFFF717FF301C391C221CFFF712FFA4
:102D00000999301C0BB21E1C191C221CFFF70AFF6C
:102D1000281C311C05E0029A069B10B2059A9918EE
:102D200009B2221CFFF7FEFE079B0C991A780F23AD
:102D30001A40224B52001B68D45A02291FD1019A13
:102D4000049B56009E190899B6B2B51C2DB20FB25D
:102D5000033636B2281C391C221CFFF7E3FE301C58
:102D6000391C221CFFF7DEFE099A301C13B21E1C10
:102D7000191C221CFFF7D6FE281C311C06E0029805
:102D8000069B059A0130991800B209B2221CFFF780
:102D9000C9FE079B01330793019B02339BB201934A
:102DA000029B02339BB2029387E7039B013369E7DF
:102DB00013B0F0BD070000801E01001024090010B0
:102DC000F0B5704B8FB01B680D905C78019118784E
:102DD0000094082C05D0211C10394C1EA141C9B209
:102DE00000E00021009DEC100C19211C4143013131
:102DF0004A4304329B185F1C1B78089400240C93F0
:102E00000694069C0C9D62B26BB29A4200DBAFE066
:102E1000089D3B78022D02D00137059304E07A78B3
:102E2000023712021A430592069D0D9CADB2A4B260
:102E30006B00E3189BB202949CB2013303959BB2E2
:102E4000002509940A930795079D009C6EB2A6423F
:102E500000DB89E0059CE4073BD54B4B4B4C1B78D2
:102E6000022B1ED1019D760076190999B6B232B2B5
:102E70000DB20492281C22880499FFF753FE0A9988
:102E800001360BB2181C2288049936B20B93FFF757
:102E900049FE2288281C311CFFF744FE22880B982B
:102EA00040E03B4B1B78002B0AD00098019D013875
:102EB0004019029A039D861BA91830B209B206E098
:102EC000039D02996818019D00B2761931B22288DB
:102ED00040E0304C304B22881B8893423CD02A4B38
:102EE0001B78022B20D1019D7600099C7619B6B281
:102EF00025B234B2281C211C0494FFF713FE0A9952
:102F0000244B0CB21A88201C0499FFF70BFE0136E3
:102F1000204936B20A88281C311CFFF703FE1D4DDC
:102F2000201C2A88311C15E0194B1B78002B0AD075
:102F30000098019C01380019039D029C861B2919E9
:102F400030B209B206E0039D029C2819019D00B22F
:102F5000761931B2FFF7E6FD079B059C0133640843
:102F6000DBB2059407936FE7069D0135069548E7A8
:102F70000A4A00201056044A1B18107858430FB014
:102F8000F0BDC04630090010240100101E010010E1
:102F9000990900109A09001028010010250100105D
:102FA00008B51249124B09781B88DAB2012903D1FE
:102FB000FF21002B09D00DE0022906D103210A4090
:102FC00091000A431101114304E011010F22134043
:102FD0000B43D9B2074B084A186803F077FA074A3F
:102FE00000231380064A138008BDC046210100104B
:102FF0002C090010140700101F13000034090010E2
:103000002809001008B5002805D1064B1868064BA2
:10301000196801F0C1FE054B1B78002B01D1FFF7A9
:10302000BFFF08BD1407001024090010200900107C
:1030300008B5024800F0AEFE08BDC046BE900000D4
:103040000F231840014B18807047C0462201001022
:10305000114B30B51B8893421DD0104B84B21B78A6
:103060009C4218D20E4D89B22D788D4213D95B1037
:1030700059430C4B401040181B6880B21818017857
:103080000F23E50702D599430A4303E00B401201E1
:103090001A43D2B2027030BD280100102601001080
:1030A0002A01001014070010F0B5284B87B01B68E8
:1030B00003905E7805911878082E05D0311C1039E0
:1030C0004C1EA141C9B200E00021F4100C19211CD2
:1030D000414301314A4304329B18029403995C1C1A
:1030E0001B788DB2049303996A1A049952B24BB2B9
:1030F0009A4224DA029B2778022B01D0013403E0A4
:10310000637802341B021F4300210191019B59B2D5
:10311000B14211DC059B28B2C91809B2FB0701D5E1
:103120000B4B00E00B4B1A78FFF792FF019B7F08D7
:103130000133DBB20193E9E70135ADB2D3E7064ACB
:1031400000201056181807B0F0BDC0463009001016
:10315000220100102C0900102501001030B5114B80
:1031600084B21B789C421BD20F4A89B212788A42E1
:1031700016D95B1059430D4B401040181B6880B2A4
:10318000181803780F210A4AE50703D512788B43F4
:10319000134304E012880B4012011343DBB20370A7
:1031A00030BDC046260100102A010010140700108F
:1031B00022010010F0B585B00F1C00920193002190
:1031C000525E0021435E041C9A4204DA3B1C009CC0
:1031D000019F009001934A4A238812781DB20292FF
:1031E000954201DB002588E0002D18DA009A11884D
:1031F0000AB2002AF6DB019A3E880020105E32B245
:10320000801AC91A000200B209B203F0B3FA6D4283
:1032100000B245432D12AE1900233E802380009951
:10322000029A0B881EB2964217DB01990D88002185
:103230007A5E28B22188801A5B1A000219B200B2A5
:1032400003F098FA029B00B2013B9E1B4643019A91
:1032500036120099751915800B80019B00229A5E29
:1032600000217B5E9A4205DA3B1C019F0193231CDF
:10327000009C0093234A3B8812781DB2029295422B
:10328000B0DA002D18DA019A11880AB2002AA9DBF7
:10329000009A26880020105E32B2801AC91A0002F5
:1032A00000B209B203F066FA6D4200B245432D1236
:1032B000AE19002326803B80019901250B880299D5
:1032C0001AB203928A4218DB009A16880021625EC5
:1032D00030B23988801A5B1A000219B200B203F0CA
:1032E00049FA029B039A013B9F1A00B24743009997
:1032F0003F12019ABE190E801380281C05B0F0BD44
:10330000260100102A01001070B50F4B141C1B7809
:103310008AB2061C9A4202D3A2B29A4212D20B4B34
:103320001A78B3B29A420DD9A14202DD0B1C211CBE
:103330001C1C0D1CA54205DC29B2301CFFF70EFF3A
:103340000135F7E770BDC0462A01001026010010C4
:1033500070B50F4B161C1B7882B20C1C9A4202D31C
:103360008AB29A4212D20B4B1A78B3B29A420DD952
:10337000A04202DD031C201C1C1C051CA54205DC10
:1033800028B2311CFFF7EAFE0135F7E770BDC046F1
:10339000260100102A010010F0B589B007AD298080
:1033A00069466E460B83404B6C461A361E3432809B
:1033B0001A78208080B2904219D23C4B29881B7821
:1033C000994214D23188914211D269460A8B9A42AD
:1033D0000DD20022A05E0023F15E884210D16B4620
:1033E0000022A95E18229A5EFFF78EFF5AE0201C89
:1033F000291C321C06ABFFF7DDFE0028E9D151E0A5
:103400000023EA5E6B4618255D5FAA4202D1FFF7F2
:103410009FFF47E0041C171C814202DA411AFF2378
:1034200001E0091A01230193954203DA551BFF229B
:10343000029202E00123AD1A0293012203928D420F
:1034400004DC2B1C0D1C191C002303934900049160
:103450004E1B0022690005910092009AAA4221DCCD
:1034600039B220B2FFF77AFE03994BB2002E0ADB85
:10347000012B03D101994AB2A41802E002994AB281
:10348000BF18059AB61A012B03D102994BB2FF1847
:1034900002E0019A53B2E4180099049B0131F61836
:1034A0000091DAE709B0F0BD260100102A010010F2
:1034B00008B5002A04DA92B25118524209B212B287
:1034C000521812B2FFF720FF08BD10B50C1C002ADD
:1034D00004DA93B218185A4200B212B281180139B4
:1034E00009B2221CFFF734FF10BDF8B5CE18041C3A
:1034F000171C36B2E7190D1C3FB2321CFFF704FF50
:10350000381C291C321CFFF7FFFE391C2A1C201C0A
:10351000FFF71EFF391C321C201CFFF719FFF8BDF6
:10352000F8B58418CD1824B22DB2002801DA002C89
:103530002BDB164B1B78984201DB9C4225DA0029D5
:1035400001DA002D21DB124B1B78994201DB9D42F1
:103550001BDAA04202DD031C201C1C1CA94202DD58
:103560000B1C291C1D1CC643CF43F617FF17304008
:10357000394006B20FB2A64207DA301C391C2A1CA9
:103580000136FFF7C1FE36B2F5E7F8BD260100109F
:103590002A010010F0B5031C85B0002876D03C4A03
:1035A0001078834201DB431E1BB23A4A1278042A88
:1035B00006D1394909785943CC0F6118491008E000
:1035C000022A63D134490C785C43E117890F091949
:1035D0008910324C304E258889B20395304DB4465F
:1035E0002D882580002B28DD34780025E4086243EF
:1035F0002C1C0192C21A954217DA221C0E1BB61817
:10360000B6B20096171B019EBFB2B74208DA561C2D
:10361000244F0296009EBE5DBE54029FBAB2EDE7F3
:103620000135ADB20099141CE4E71F4B0027D95FA8
:1036300063461A7803B2002023E034789DB26243D7
:10364000D21001920024854217D2221C0E1BB618FC
:10365000B6B20096171B019EBFB2B74208DA571CDC
:103660000297104F009EBA5CBA55029FBAB2EDE7BE
:103670000135ADB20099141CE5E7674600203A78A1
:10368000011CFFF74DFF054B039C1C8005B0F0BDEE
:103690002A01001021010010260100102201001053
:1036A0002C0900109C09001028090010F0B589B001
:1036B0000192069393B20122D21A5B0092B25B424E
:1036C00002929BB200220490059107930392039A01
:1036D00013B2019A934278DA029A13B2002B0CDBF0
:1036E000019B013B1AB2079B019202339BB29AB233
:1036F0000792029A9B189BB20293039B029A9CB278
:1037000063000333D3189BB20293069B5B0713D568
:10371000049A059B96B2019A9DB297B2701C20182C
:10372000791900B209B2FFF719FD691CBE196118B9
:1037300030B209B2FFF712FD069B9B0713D5049A1E
:10374000059B96B2019A9DB297B2701C2018E91B96
:1037500000B209B2FFF702FD691EBE19091B30B2A3
:1037600009B2FFF7FBFC069B1B0713D5049A019BCC
:1037700097B2059A9EB295B2691CB81B611800B247
:1037800009B2FFF7EBFC781E001B751900B229B2D5
:10379000FFF7E4FC069BDB0713D5049A019B97B265
:1037A000059A9DB296B2711E781B091B013F00B2AB
:1037B00009B23C1B751BFFF7D1FC20B229B2FFF701
:1037C000CDFC039B0133039381E709B0F0BDF0B555
:1037D0008BB0089310AB009207910022995E0122F2
:1037E0000991009906908BB2D21A5B0092B25B42AB
:1037F00001929BB2002205930392039A009913B29F
:103800008B4264DA01990BB2002B0CDB009B013B6D
:103810001AB2059B00920233019A9BB299B29B188F
:103820009BB205910193039B01999BB25D00ADB2E0
:1038300002932B1C0333CB18089A9BB20495019377
:10384000D2071ED5069B0799009A9FB2099B8EB29C
:1038500094B202999DB26200781C0818AA18311B14
:1038600000B209B212B2FFF723FE029A711E049B46
:10387000891AAA1CE4199A1820B209B212B2FFF7E9
:1038800017FE089989071ED5069A079B009997B2DB
:10389000099A9EB28CB2029B95B2781E6200C01A41
:1038A000311BAA1800B209B212B2FFF701FE029A48
:1038B000711E049B891AAA1C3C1B9A1820B209B2DB
:1038C00012B2FFF7F5FD03990131039195E70BB0B3
:1038D000F0BDF0B589B01F1C0EAB061C00201C5EAD
:1038E0000D1C012C04DC301C3B1CFFF7FEFD52E0DC
:1038F000B1B2A3B20391019359185B005B4292B23B
:103900009BB205939B1808B219B207910492291C27
:10391000079ABFB20290ADB2FFF7D7FD7B1EEB183E
:103920009BB219B20298079A0693FFF7CEFD059B4A
:10393000019ADF1955192DB23FB2301C291C3A1CCF
:10394000FFF7B6FD049E0398013E8619B6B230B269
:10395000291C3A1CFFF7ACFD291C0298221C0123EC
:10396000FFF7A4FE0199221C761A36B2291C301CDE
:103970000223FFF79BFE069A019B301CD51A2DB23D
:10398000291C221C0423FFF791FE0298291C221CEB
:103990000823FFF78BFE09B0F0BDF0B587B00E1C11
:1039A0000CA900254C5F012C03DC311CFFF7B8FD8E
:1039B0002EE0A5B292B203926A0080B203995242FD
:1039C0002F1892B2013B04929BB23FB25218029060
:1039D000311C059312B21BB2381CFFF7A1FD049AEB
:1039E000059903985318029A01381018AE19451B0F
:1039F00028B236B21DB2311C221C01230095FFF7FC
:103A0000E6FE0095381C311C221C0223FFF7DFFE66
:103A100007B0F0BD054B18600278054B01321A70F3
:103A20004278044B01321A707047C04630090010CA
:103A30002B09001011070010124A134B10B5041C7B
:103A40001A60FFF7F5FA114B01221A70104BDC22B5
:103A50001A80104BB02210481A80FFF7DBFF0F4B83
:103A600011221A800E4A002313800E4A042111707D
:103A70000D4A201C13600D4A136093611363936415
:103A800010BDC0469C0900101407001098090010D2
:103A90001A07001036090010B88500002801001030
:103AA0002C090010180700101C090010380900101C
:103AB00008B5084B00B21B6809B29B78D21A064BB6
:103AC000D2B21B78002B02D0FFF77AF901E0FFF7A2
:103AD000EBFA08BD3009001098090010024B187865
:103AE000431E9841C0B270479809001009490A4A1C
:103AF0000A4B002805D001200870DC211180B0227B
:103B000005E00870064909781180064A12781A8083
:103B10007047C046980900101A07001036090010B7
:103B2000260100102A01001038B50B4B0B481B680A
:103B300004885B780A4A5800241A0A4811880078D9
:103B40000DB240B2A54203DDC018FFF723FD02E02D
:103B5000C3185918118038BD3009001036090010FB
:103B6000280900102001001038B52A4B041C1B68DE
:103B7000DA78002A03D0602801D9203CE4B20E2C68
:103B800021D8201C02F09EFD441F1F1F1F1F1F1F56
:103B90000E1F081F1F1B44001F4B00221A80FFF737
:103BA000C3FF35E01C4A1B781088C01A1B4B80B23B
:103BB000108019782022C0B2FFF77AFF28E0164B58
:103BC00000221A8024E0144D1549288809881B78A2
:103BD00002B2CB1A9A4209DB00232B80114B1B78CF
:103BE000002B15D0FFF7A0FF287800E0C0B20B4BE8
:103BF000221C1978FFF75CFF202C06D10A4B1B789A
:103C00005BB2002B01D0401001302B88C0182880F7
:103C100038BDC046300900103409001028090010D2
:103C20001A0700101D0100102501001010B5041C1A
:103C30002078002803D00134FFF796FFF8E710BD85
:103C400008B5FFF7F3FF08BD024B1880024B19803F
:103C50007047C0463409001028090010F0B5002450
:103C600089B0051C0E1CA04203D13020FFF77CFF59
:103C70001BE000AB281C0134311C1F1902F070FD41
:103C8000013F3970281C311C02F026FD051EF0D1C1
:103C9000013C6B46185D092801D8303000E0373010
:103CA000C0B2FFF761FF002CF2D109B0F0BD08B53A
:103CB000002903D1C0B2FFF757FF02E0C9B2FFF7F6
:103CC000CDFF08BD10B5041E03DA2D20FFF74CFF11
:103CD0006442201C0A21FFF7C1FF10BD08B500296E
:103CE00003D1C0B2FFF740FF07E00A2902D1FFF776
:103CF000E9FF02E0C9B2FFF7B1FF08BD08B5FFF761
:103D0000EDFF08BD08B5FFF7E9FF08BD10B5044C8D
:103D1000208004480180101C191CFFF7DFFF10BD34
:103D2000340900102809001008B50D20FFF71CFF0A
:103D30000A20FFF719FF08BD08B5FFF777FFFFF767
:103D4000F3FF08BD08B5FFF7C9FFFFF7EDFF08BD9A
:103D500008B5FFF7ACFFFFF7E7FF08BD08B500297E
:103D600003D1024B196801F017F808BD24090010AF
:103D700008B50248FEF70FF808BDC0462A09001032
:103D80008910D21049011143C010C302081C184306
:103D90007047000038B5041C0025A27820786178AF
:103DA000FFF7EEFF054B8022585302350334920093
:103DB0009542F2D1024A136038BDC0461C0700107C
:103DC0002409001070B5031C1F2423400C40E41A82
:103DD00024B2544324124E111C193F2543112B4089
:103DE000C00A3540C912091AED1A55434A43121246
:103DF0008018C243A4B2D217104022B2D2432D126F
:103E0000D2175B191440C0022043DC43E41723405F
:103E10005B01184380B270BD014B18887047C046E3
:103E20002C01001070B5184B184D19682A681E1C1B
:103E3000174C91421AD02B68002B01D115480AE08B
:103E40002B68012B01D1144805E02B68022B01D10E
:103E5000124800E0124880210901FEF7FDFD2B68A1
:103E600021688022120133608B1823600D4B0E49AC
:103E70001B6A22685B189A4205D900252560FEF767
:103E800007FE0A4B1D7070BD082100109C20001019
:103E9000284100100E3900100E2100100E290010CC
:103EA0000E310010A406001000F8FFFFEC200010F7
:103EB00008B501F02BFA012001F0B0F908BD0000AF
:103EC00000B5002B3ED104283CD802F0FBFB0310C8
:103ED000262D3400C9B24BB2002B04DB0A2B00DDC7
:103EE0000A21C9B200E00021174B19702AE0174BD4
:103EF00089001B68164ACB58164819881360164B60
:103F00001A780B1C5343DBB2037009128B4200DD9D
:103F10000B1C534311490B7014E00F4B1B78594392
:103F20000F4B19700F4B0CE00B4B1B7859430E4B8A
:103F300019700E4B05E0084B1B7859430C4B197058
:103F40000C4B1A7000BDC046F81C0010F41C001089
:103F5000D81C0010E41C0010C01C0010C11C001074
:103F6000ED1C0010BC1C0010F91C0010D41C00102B
:103F7000E51C0010BD1C0010002A11D1094B18705F
:103F8000094B1B785943094B1970094B09491A70A1
:103F9000094B1A8001230B7008490B70084B1A70EB
:103FA0007047C046C31C0010C01C0010D11C00107C
:103FB000E11C0010BF1C0010FA1C0010BE1C0010F9
:103FC000C41C00100E4B10B51B780024A34201D076
:103FD0000C4B1C780C4B1B78002B0AD00B4B187821
:103FE00003F048FB0A4902F045FE011C0948FDF7B1
:103FF00037FB201C01F02CF9074B1C8010BDC0467C
:10400000BE1C0010E21C001080200010E81C0010F4
:1040100000007F43441F00100E41001008B5002827
:104020000FD1084B1870084B1870084B1880084BBC
:104030001870084B1870084B1870084B1870FFF771
:10404000C1FF08BDBF1C0010D11C0010FA1C0010DD
:10405000C41C0010E21C0010C51C0010BE1C001087
:1040600010B5041E03D1FFF7D9FF014B1C7010BD22
:10407000BB1C001038B5051C0C1E12D1081CFFF724
:10408000EFFF084B01221D60074B1C80074B1A7085
:10409000074B09221A70074B1C70074B1C70074B0B
:1040A0001C7038BDCC1C0010D21C0010BB1C0010B2
:1040B000F81C0010ED1C0010F91C0010E51C00108D
:1040C00010B500281FD1104A1378002B1BD00F4BBE
:1040D0001978002917D10E4C0E4B20781B68400030
:1040E000C35A0D48834201D111700CE00B4A1812DB
:1040F00010700B4ADBB212689B009858FFF7BAFFAA
:1041000023780133237010BDC81C0010BB1C0010A5
:10411000EB1C0010F01C0010FFFF0000E91C001059
:10412000DC1C001008B50020FFF7CAFF08BD08B569
:104130000020FFF795FF08BD38B5002842D1224A7C
:104140001378002B3ED0214B1B78002B3AD1204C0A
:10415000204D238829685B005B5A002B13D11E4831
:104160000078002802D023800B880CE013701B4AD3
:104170001078002804D0181CFFF7A2FF238815E050
:10418000FFF74CFF1EE001221A409910002A11D0BF
:10419000DA120F200840103A5905C90E002352B216
:1041A000FFF78EFE238801339BB223802A685B00D1
:1041B0009B5AE8E73F200840190AFFF7DDFE2388F5
:1041C0000133238038BDC046BB1C0010D11C001039
:1041D000D21C0010CC1C0010EA1C0010C81C0010DF
:1041E00008B50020FFF7A8FF08BD0000F7B50028BC
:1041F00000D0AAE0554B1B78002B00D1A5E0544B12
:104200001878002802D1FFF709FF9EE0514C0138D1
:1042100018702378002B26D14F4A504B11881B6809
:1042200001314800C35A4E4D0720184028704D48B0
:104230009D1205704C4D98052D78800E68431B0724
:1042400020704A48DB0F0370494B89B21B781180FC
:10425000994208D347490878002802D0181A1080DC
:1042600001E0FFF7DBFE2378013B2370424B434C18
:104270001D780135EDB21D70414B1B780193394B10
:1042800001991E783F4B8E191B78F6183E4BF6B2FB
:1042900019782670002907D068B202F06BFA3B4B00
:1042A0001B7858433618267020782421243002F0D9
:1042B000B7FA374B21701F78364B0E1C364C1978E5
:1042C0002770002908D068B249B202F053FA334B84
:1042D0001B7858433F182770314B1978002910D0AC
:1042E00068B202F047FA2F4B184004D50223013878
:1042F0005B42184301302C4B1B7858432378C0187D
:104300002070019D22783F2D09D0131C52B2092A3A
:1043100000DD09235AB2D243D217134000E0002334
:104320002370224B0E4D9A5D214B1A7022782B7808
:104330005343204A127853431F4A12885211534361
:104340001E4ADBB213701E4A1370F7BDBF1C00106B
:10435000D11C0010E11C0010FA1C0010D81C001029
:10436000D01C0010EE1C0010C01C0010EC1C001033
:10437000E41C0010C11C0010C41C0010E31C001041
:10438000C31C0010E91C0010F91C0010D41C001004
:10439000F81C0010ED1C0010C61C0010BC1C001006
:1043A000E51C001001000080BD1C001002990000F7
:1043B000C71C0010C21C0010E61C0010C51C001019
:1043C000E21C001008B50020FFF710FF08BD000038
:1043D00008B5C343DB171840094B1B88984200DD22
:1043E00018B2084B1880C30F181840100A3800B2D2
:1043F000C343DB171840C0B200F0E4FE08BDC0465E
:104400002C010010E61C001008B5002803DBFF2873
:1044100002DDFF2000E00020034B1880034B002248
:10442000985EFFF7D5FF08BD2C010010E61C0010B8
:1044300008B5054B1888202801D9103000E0083055
:1044400000B2FFF7C5FF08BDE61C001008B5054B1C
:104450001888202801D9203800E0083800B2FFF77A
:10446000B7FF08BDE61C0010014B18887047C04616
:10447000E61C001070B58EB0161C1A1C12AB051C81
:1044800005241878002394425B415B421A40031CC8
:10449000102800D91023DBB2012D12D10024C9B29B
:1044A00002910A930094019403960494059406944F
:1044B0000794089409940B940C941748291C2B1CFE
:1044C00026E0022D10D10020C9B200900190049086
:1044D000059006900790089009900B900C9002911F
:1044E00003960A930D4811E0032D13D1002000908C
:1044F0000190C9B204900590069007900890099029
:104500000B900C900648029103960A9301210B1C14
:1045100001F020FD0EB070BD7C420010E84200109A
:10452000B042001008B500F079FE08BD08B5024899
:10453000FDF731FC08BDC046E01C001008B5074B74
:104540001F215B6ADA050B40591C120F044B9200C5
:104550004900D05802F0C0F808BDC04600800440B1
:1045600028990000064B186C03231840012804DD2D
:10457000033843425841C00300E002487047C04638
:1045800000800440001BB700044B10B59C68FFF787
:10459000E9FF1F231C400134604310BD008004402C
:1045A00008B50A4B1A6F03231340022B06D0032BC6
:1045B00007D0012B08D1FFF7D5FF06E0FFF7BEFFBC
:1045C00003E0FFF7E1FF00E0014808BD0080044080
:1045D000001BB70008B5FFF7E3FF024B996F02F02D
:1045E0007BF808BD00800440012370B584681D1C61
:1045F000066B8D4000202E4206D10901091931CAEF
:1046000031C11268181C0A6070BD0000014B012204
:104610001A717047E01E0010014B00221A7170479A
:10462000E01E0010014B01225A717047E01E00107D
:10463000014B00225A717047E01E0010014B01220D
:104640009A717047E01E0010014B00229A7170476A
:10465000E01E0010014B01225A707047E01E00104E
:10466000014B00225A707047E01E0010014B0122DE
:10467000DA707047E01E0010014B0022DA707047BC
:10468000E01E0010014B00229A707047E01E0010DF
:10469000014B00221A707047E01E001008B5054B50
:1046A0009A79002A02D0FFF7C3FE01E001229A7036
:1046B00008BDC046E01E001008B5054B9A79002AD7
:1046C00002D0FFF7C3FE01E001221A7008BDC04608
:1046D000E01E001010B5204C2049201CFCF7FAFB0E
:1046E000201C1F49FCF7E6FB1E4C1F49201CFCF751
:1046F000F1FB201C1D49FCF7DDFB1D4C1D49201C56
:10470000FCF7E8FB201C1C49FCF7D4FB1B4C1C49A4
:10471000201CFCF7DFFB201C1A49FCF7CBFB1A4CD2
:104720001A49201CFCF7D6FB201C1949FCF7C2FBD8
:10473000184C1949201CFCF7CDFB201C1749FCF72D
:10474000B9FB174C1749201CFCF7C4FB201C164969
:10475000FCF7B0FB10BDC046E81E00101946000073
:104760000D460000901E0010314600002546000056
:10477000FC1C0010494600003D460000401E001091
:1047800061460000554600004C1D001079460000AF
:104790006D460000A01D001091460000B9460000C3
:1047A000F01D0010854600009D460000014B187961
:1047B0007047C046E01E0010014B58797047C04654
:1047C000E01E0010014B98797047C046E01E0010B3
:1047D000014B18787047C046E01E0010014B9878D6
:1047E0007047C046E01E001070B52648FFF724F958
:1047F000254E2649301CFCF739FB254D254C291C3C
:10480000221C301CFCF758FD234E2449301CFCF7B9
:104810002DFB291C221C301CFCF74EFD204E21498B
:10482000301CFCF723FB291C221C301CFCF744FD28
:104830001D4E1E49301CFCF719FB291C221C301C84
:10484000FCF73AFD1A4E1B49301CFCF70FFB291CE4
:10485000221C301CFCF730FD174E1849301CFCF7A9
:1048600005FB291C221C301CFCF726FD144E1549A3
:10487000301CFCF7FBFA301C291C221CFCF71CFD29
:1048800070BDC0469C1D0010E81E0010841201007F
:10489000410E000000010010901E00107008010081
:1048A000FC1C001088140100401E0010941A010026
:1048B0004C1D00106C060100A01D0010C432010048
:1048C000F01D00107C0E0100074B1A8882420AD0AE
:1048D0001880064A0649A0231B0699500549C000C6
:1048E0005850002199507047381F00108820000050
:1048F0000700F8FF8821000038B5A0248A23240689
:1049000004229B01E250074D80235B046351FFF7B3
:10491000DBFF054A80235B01A350C046C0466351BC
:1049200038BDC046042200008422000038B5A0240F
:104930008823240604229B01E250074D80235B0458
:104940006351FFF7C1FF054A80235B01A350C046B6
:10495000C046635138BDC0460422000084220000D6
:1049600010B5074C0749201CFCF7BEFE201C052192
:10497000FCF799FE201C0449FCF772FE10BDC046EE
:104980003C1F0010FC0402009A99993E10B5041CCB
:104990002020FFF7B1FF0020FFF7C8FF2120FFF71D
:1049A000ABFF0020FFF7C2FF2220FFF7A5FF201C6E
:1049B000FFF78AFFA02388221B0604219201995049
:1049C0000A4A802149049950802149019950084B95
:1049D000084CA0218020090640010851C046C0466D
:1049E000013B8850002BF3D110BDC04604220000CB
:1049F000409700008422000010B52020FFF77CFFC4
:104A00000020FFF793FF2120FFF776FF0020FFF73C
:104A10008DFF2220FFF770FF0020FFF755FFA02336
:104A200088221B060421920199500A4A80214904D8
:104A30009950802149019950074B084CA0218020B2
:104A4000090640010851C046C046013B8850002B72
:104A5000F3D110BD04220000409700008422000022
:104A600070B5794EA02501242D06FFF779FFAC51D2
:104A70000A20FCF75AFB754B0A20EC50FCF755FB5B
:104A8000AC510A20FCF751FB201CFFF735FF8E20AC
:104A9000A040FFF74BFF0220FFF72EFF8020A04031
:104AA000FFF744FF0320FFF727FF6948FFF73EFFAA
:104AB0000820FFF721FF6748FFF738FF0C20FFF7BA
:104AC0001BFF0020FFF732FF0F20FFF715FF201C10
:104AD000FFF72CFF2020FFF70FFF0020FFF726FF36
:104AE0002120FFF709FF0020FFF720FF1020FFF72C
:104AF00003FF0020FFF71AFF1120FFF7FDFE8020C3
:104B00004001FFF713FF0A20FCF70FFB3020FFF7EF
:104B1000F3FE0020FFF70AFF3120FFF7EDFEDB2058
:104B2000FFF704FF3220FFF7E7FE0020FFF7FEFE4D
:104B30003320FFF7E1FE0020FFF7F8FE3420FFF7F7
:104B4000DBFEDB20FFF7F2FE3520FFF7D5FE00206D
:104B5000FFF7ECFE3620FFF7CFFEAF20FFF7E6FEB3
:104B60003720FFF7C9FE0020FFF7E0FE3820FFF7EF
:104B7000C3FEDB20FFF7DAFE3920FFF7BDFE002081
:104B8000FFF7D4FE0A20FCF7D0FAFF20FFF7B4FEAF
:104B90000320FFF7CBFE5020FFF7AEFE2E48FFF7B5
:104BA000C5FE5120FFF7A8FE2C48FFF7BFFE52209C
:104BB000FFF7A2FE2A4D0520FFF7B8FE5320FFF7AE
:104BC0009BFE281CFFF7B2FE5420FFF795FE2548F8
:104BD000FFF7ACFE5520FFF78FFE234C0320FFF7B5
:104BE000A5FE5620FFF788FE201CFFF79FFE5720EA
:104BF000FFF782FE1D48FFF799FE5820FFF77CFE65
:104C0000281CFFF793FE5920FFF776FE201CFFF7C4
:104C10008DFEB020FFF770FE1548FFF787FEFF20DE
:104C2000FFF76AFE0020FFF781FE0720FFF764FE12
:104C30001048FFF77BFEC820FCF777FA2220FFF729
:104C40005BFEFFF7D9FE70BD042200008422000045
:104C5000301000000808000003020000090A0000EC
:104C600021100000020600000307000007050000F5
:104C70000125000017100000F8B584B2171CDB2CCA
:104C800026D88DB2AF2D23D82020FFF735FE281C63
:104C9000FFF74CFE2120FFF72FFE201CFFF746FEFA
:104CA0002220FFF729FEA0248823240604229B014A
:104CB000E250084D802380265B0476016351381C46
:104CC0006651FFF701FE044BE650C046C0466651F0
:104CD000F8BDC0460422000084220000F7B51C1C69
:104CE00008AB1B880193904202DD031C101C1A1CA8
:104CF000A14202DD0B1C211C1C1CDC2847DCB02956
:104D000045DC131CDC2A00DDDC231AB20092B02C37
:104D100000DDDC24CE43F617C743FF1731400740C0
:104D20000EB2009A974232DC2020FFF7E5FDB0B2C8
:104D3000FFF7FCFDBFB22120FFF7DEFD381CFFF7B7
:104D4000F5FD2220FFF7D8FDA022882312060421BA
:104D50009B01D1500E4B80214904D1508021490143
:104D6000D150351CA5420FDA0198FFF7ADFD094976
:104D7000A02380221B0652015A50C046C046044957
:104D800001355A502DB2EDE701373FB2C9E7F7BD03
:104D90000422000084220000F0B5DFB0059020203E
:104DA0000491FFF7A9FD0020FFF7C0FD2120FFF7C8
:104DB000A3FD0020FFF7BAFD2220FFF79DFDA023F1
:104DC00088221B06920104219950BB4C8022520478
:104DD0001A518022520100251A510395039E059D08
:104DE0007210AA1800231178049E08114000805BFD
:104DF0001825ED186E46A85306ADE8180F25294072
:104E0000049E4900895BB030023301803732B02BF9
:104E1000E9D100250295029D06AEA85B8027A74D2B
:104E2000A02636067F01FFF74FFD7751C046C046EA
:104E300037517751C046C046029B06AAD218375157
:104E400050880192FFF740FD7751C046C046375168
:104E50007751C046C046019A37519088FFF734FD1C
:104E60007751C046C04637517751C046C046019B76
:104E70003751D888FFF728FD7751C046C0463751D3
:104E80007751C046C046019A37511089FFF71CFD83
:104E90007751C046C04637517751C046C046019B46
:104EA00037515889FFF710FD7751C046C04637513A
:104EB0007751C046C046019A37519089FFF704FDEB
:104EC0007751C046C04637517751C046C046019B16
:104ED0003751D889FFF7F8FC7751C046C0463751A3
:104EE0007751C046C0463751029E10360296B02E0A
:104EF00000D090E700260296029E06AAB05A8027AC
:104F0000A02636067F01FFF7DFFC7751C046C0467A
:104F100037517751C046C046029B06AAD218375176
:104F200050880192FFF7D0FC7751C046C0463751F8
:104F30007751C046C046019A37519088FFF7C4FCAC
:104F40007751C046C04637517751C046C046019B95
:104F50003751D888FFF7B8FC7751C046C046375163
:104F60007751C046C046019A37511089FFF7ACFC13
:104F70007751C046C04637517751C046C046019B65
:104F800037515889FFF7A0FC7751C046C0463751CA
:104F90007751C046C046019A37519089FFF794FC7B
:104FA0007751C046C04637517751C046C046019B35
:104FB0003751D889FFF788FC7751C046C046375132
:104FC0007751C046C0463751029E10360296B02E29
:104FD00000D091E75EAE029632AE0196019E802728
:104FE0003088A02636067F01FFF76EFC7751C04659
:104FF000C04637517751C046C046019A3751508854
:10500000FFF762FC7751C046C04637517751C04622
:10501000C046019B37519888FFF756FC7751C04630
:10502000C04637517751C046C046019A3751D088A3
:10503000FFF74AFC7751C046C04637517751C0460A
:10504000C046019B37511889FFF73EFC7751C04697
:10505000C04637517751C046C046019A37515089F2
:10506000FFF732FC7751C046C04637517751C046F2
:10507000C046019B37519889FFF726FC7751C046FF
:10508000C04637517751C046C046019A3751D08942
:10509000FFF71AFC7751C046C04637517751C046DA
:1050A000C0463751019E029A10360196964200D0B2
:1050B00094E732AE019603E004220000842200004F
:1050C000019E80273088A02636067F01FFF7FCFB73
:1050D0007751C046C04637517751C046C046019A05
:1050E00037515088FFF7F0FB7751C046C046375123
:1050F0007751C046C046019B37519888FFF7E4FBC3
:105100007751C046C04637517751C046C046019AD4
:105110003751D088FFF7D8FB7751C046C04637518A
:105120007751C046C046019B37511889FFF7CCFB29
:105130007751C046C04637517751C046C046019AA4
:1051400037515089FFF7C0FB7751C046C0463751F1
:105150007751C046C046019B37519889FFF7B4FB91
:105160007751C046C04637517751C046C046019A74
:105170003751D089FFF7A8FB7751C046C046375159
:105180007751C046C0463751019E029A10360196AB
:10519000964200D094E7039D023503956E2D00D012
:1051A0001CE65FB0F0BDC04638B51822041C0D1CCB
:1051B000002101F08BF9201C291CFBF73CFE201C70
:1051C00038BD000010B57F230A4C8EB018408121F5
:1051D000207009016846084A00F016FC22786846EB
:1051E0005E2100F05CFC6846247800F057FC201C2F
:1051F0000EB010BD0D210010140A000008B5054BBB
:1052000000221A70044B012210201A70FFF7DAFFF7
:1052100008BDC0460D2100102C41001038B5094CC6
:10522000051C2368013304D1074808492422FBF7F1
:10523000AFFD002D01D0E36800E0236962681A60C9
:1052400038BDC046F0200010A4810000BC810000E1
:10525000A02380221B065205C10701D5274900E083
:1052600027495A50A023802142101B068905D007E8
:1052700001D5224800E0224819505210A023802175
:105280001B06C905D00701D51C4800E01C48195071
:105290005210A02380211B060906D00701D517480C
:1052A00000E0174819505210A02380211B06490323
:1052B000D00701D5134800E0134819505210A0231D
:1052C00080211B068903D00701D50E4800E00E4857
:1052D00019505210A02380211B06C903D00701D505
:1052E000084800E008481950511080221204002993
:1052F00001D0044900E004495A50704704220000DC
:1053000084220000082200008822000038B51B4CCF
:105310001B49201CFCF7E8F9201C0F21FCF7C3F9FE
:10532000201C184C1849FCF79BF9201C00F0D2FBFC
:10533000FFF750F9051C201C00F0ECFB6369082204
:1053400013436361281C114901F0C6F9E0616369E8
:105350001022134363616368012213436360802555
:105360000B4CC023ED029340E55012200949FBF796
:10537000E3FE2560FFF742FF38BDC046441F001022
:105380004027020000400140CDCCCC3D2256000019
:1053900000E100E015550000F8B54A4B4A4F1A7875
:1053A00001231340494A137026D0494A1368591CF7
:1053B00011601878474BC0B21B78002B04D05BB249
:1053C0000324E31A1841031C3B70434B1C68181C50
:1053D000A14211D3414B19680131196019680429A0
:1053E00001D1002119601B683D49DB02CB188021E7
:1053F000090113605B1803603A4B1B78002B09D03E
:10540000394B1A8801321A80384B18880723184004
:1054100000F044FE364E374DB1683369364C5A18A9
:105420002221735EA9681B11D318B3602B695A1827
:1054300022216B5EA1681B11D318AB6023695A1837
:105440002221635E1B11D318A3602C4B1A782C4BBE
:105450009200D358984729490B78013B0B70B289C9
:10546000B38A12125A43AB89A98A1B124B4392B2D8
:105470009BB25B12520AD218A389A18A1B124B431A
:105480009BB25B12D418114AE4B21378002B02D0FD
:105490003878FFF7DDFE1B4B80221B68920099587D
:1054A000812261439200090A99503B78164AE41818
:1054B000164B64101C801378591C1170144AD45474
:1054C000F8BDC046EC2000100C2100108020001018
:1054D0004C1F00102E010010E82000109C2000102E
:1054E0000E21001078420010E6420010E442001045
:1054F0007C420010E8420010B0420010340100105D
:105500007C040010441F0010484100100E410010A0
:10551000681F001008B5044B02221968114202D01E
:105520001A60FFF739FF08BD0040014008B5124975
:105530001248FFF739FE12491248FFF735FE1249AB
:105540001248FFF731FE12491248FFF72DFE1249AB
:105550001248FFF729FE12491248FFF725FE1249AB
:105560001248FFF721FE12491248FFF71DFE1248AC
:105570001249FFF719FE08BDD0380100682000105D
:10558000D43A010030410010D83C010084200010C2
:10559000DC3E01001041001044290200501F0010A1
:1055A000482B0200A02000104C2D0200B820001053
:1055B000502F0200D0200010F0200010A422010083
:1055C000F0B585B0061C039172B6494B984202D8DB
:1055D000050B2B0314E0474B1C2598420DD8464B76
:1055E0001B25984209D8454B1A25984205D8444BAB
:1055F000002583426D4119235D1B424AAB189B0372
:10560000F31A414C414F5A425341DBB232220293CA
:1056100022606560A560201C391C3D4B98473A68A4
:10562000002A01D0012060E0029B002B04D1E4237A
:105630009B029E4220D040E0364A34231268FA2171
:10564000101C236089006560A560019201F044F898
:10565000391CE0602E4B201C98473A68002AE1D1A3
:10566000322323606560A560201C391C284A9047BE
:105670003B68002BDBD0D5E73B232360E0239B0076
:105680006360254BFA21A360224B8900186801F062
:1056900023F81E4FE060391C201C1D4A90473B68D0
:1056A000002BBFD1322323606560194BA560201CFD
:1056B000391C98473B68002BB4D133232360039BEC
:1056C000144AA36080235B00FA21E360106889001C
:1056D000666001F001F80D4D2061291C201C0C4B67
:1056E0009847286800289DD162B605B0F0BDC04635
:1056F000FF7F0100FF7F0300FFFF0200FF7F02002A
:10570000FFFF0100EEFF03004C420010604200105A
:10571000F11FFF1F18010010FF03000013B56C46B6
:105720000734211C012204F03FFC207816BD07B588
:105730006B46D9710733191C012204F00FFC07BD19
:10574000024B1A680A321A607047C0467042001055
:10575000044B054A07215A6000229A601960034BE6
:105760001A60704710E000E0FF520700704200101E
:10577000014B18687047C046704200107047000027
:1057800008B58022A0231B069201995804200143EA
:1057900099502A4A802198584901014399509858B4
:1057A000802149040143995099580120014399509F
:1057B000234A244899580143995023480021FBF774
:1057C0001FFF22480021FBF71BFF21480021FBF7A8
:1057D00017FF20480021FBF713FF1F480021FBF7AC
:1057E0000FFF1E480021FBF70BFF1D480021FBF7B0
:1057F00007FF1C480021FBF703FF1B480021FBF7B4
:10580000FFFE1A480021FBF7FBFE19480021FBF7B9
:10581000F7FE18480021FBF7F3FE17480021FBF7BD
:10582000EFFE16480021FBF7EBFE15480021FBF7C1
:10583000E7FE14480021FBF7E3FE08BD042000004A
:1058400008200000F8FF070000070200040902001A
:10585000080B02000C0D0200100F020014110200D0
:10586000181302001C150200201702002419020060
:10587000281B02002C1D0200301F020034210200F0
:10588000382302003C25020038B50368041C0D1CB7
:10589000013304D1064807492422FBF779FA6368EB
:1058A000002D01D0E26800E02269136038BDC046D7
:1058B000A4810000BC810000036810B5041C013302
:1058C00004D1064806492C22FBF762FA6369606836
:1058D0001B681840431E984110BDC046A4810000BB
:1058E000BC81000008B50121FBF75CFD08BD38B59F
:1058F000041C251CFFF7F6FF1835606BFBF70AFC4C
:10590000281C0121FFF7C0FF201C0121FFF7BCFF6D
:10591000606BFBF7FFFB201C0021FFF7B5FF606BFE
:10592000FBF7F8FB281C0021FFF7AEFF606BFBF7CD
:10593000F1FB38BD10B5041CFFF7D4FF606BFBF71B
:10594000E9FB201C0021FFF79FFF606BFBF7E2FBE8
:10595000201C01211830FFF797FF606BFBF7DAFB83
:10596000201C0121FFF790FF10BDF7B5041C019129
:10597000FFF7B8FF0825606B0126FBF7CBFB013D65
:10598000019B311CA940271C1940201C1837FFF728
:105990007BFF311C381CFFF777FF606BFBF7BAFB0E
:1059A000381C0021FFF770FF002DE4D1311C201CB2
:1059B000FFF76AFFF7BD38B5041C251CFFF792FFFF
:1059C0001835201C0121FFF75FFF281C0121FFF77C
:1059D0005BFF201C0021FBF7E5FC0421201CFBF7EA
:1059E000DBFC606BFBF796FB281C0021FFF74CFFEC
:1059F000201CFFF761FF0023984203D1606BFBF787
:105A000089FB0123181C38BDF8B51826041C0D1C91
:105A1000171C0021321C00F059FD201C291CA5195F
:105A2000FBF7EFF9321C281C002100F04FFD281C69
:105A3000391CFBF7E6F9281CFFF754FF281C04214A
:105A4000FBF7AAFC201CFFF74DFF0421201CFBF7ED
:105A5000A3FC231C3033002601271E70281C67631B
:105A6000FFF740FF201CFFF73DFF391C201CFFF70C
:105A70000BFF311C281CFFF707FF606BFBF74AFB8D
:105A8000201CFFF757FF201CFFF754FF201CFFF7D7
:105A900051FF201CFFF74EFF201CF8BD704770B56A
:105AA0000E1C151C041CFFF722FF0123311C994317
:105AB000201CFFF75AFF201CFFF77DFF291C201C2C
:105AC000FFF753FF201CFFF776FF201CFFF732FF84
:105AD00070BD00000B4B984208D00B4B984207D08A
