:1000000000800010FD0000003F12000041120000BF
:1000100000000000000000000000000000000000E0
:10002000000000000000000000000000431200007B
:10003000000000000000000045120000DD57000035
:100040003D1200003D1200003D1200003D12000074
:100050003D1200003D1200003D1200003D12000064
:100060003D1200003D1200003D1200003D12000054
:100070003D1200003D1200003D1200003D12000044
:100080003D1200003D120000A95500003D12000085
:100090003D1200003D1200003D1200003D12000024
:1000A0003D1200003D1200003D1200003D12000014
:1000B0003D1200003D1200003D1200000000000053
:1000C000E4A400000001001000040000E4A400000B
:1000D0000000002000000000E4A400000040002018
:1000E0000000000000050010143700000000002090
:1000F00000000000004000200000000010B5104C7F
:10010000104B9C4206D2A2686168206801F09BF8FF
:100110000C34F5E70C4B9C4205D26168206801F075
:100120009BF80834F6E700F0F3FF084B002B02D0F1
:1001300000E000BF03E006F055FA00F039F8FEE7F2
:10014000C0000000E4000000FC000000000000000F
:1001500010B5064C2378002B07D1054B002B02D09D
:10016000044800E000BF0123237010BD000500100B
:1001700000000000E4A40000084B10B5002B03D0E1
:100180000749084800E000BF07480368002B00D17A
:1001900010BD064B002BFBD09847F9E7000000008C
:1001A00004050010E4A40000000500100000000099
:1001B000F0B5CA4C87B02368013304D12422C84962
:1001C000C84800F083FD0127236962681A6002F0C5
:1001D000ABFBC54CC54BC64A1F7023783800DB19F2
:1001E00013800022C34B1A80C34B1B789B08BB4073
:1001F000059304F0CDF9C149C14D0978C14E23786A
:100200002A7800913168380004F06CF9BB483168F5
:10021000007823782A780C310090022004F062F9EB
:1002200002F02AFFB84803F08DFD3168B74EC9B21D
:10023000300005F045FD300003F090FDB44E300075
:1002400003F080FD0A21287803F0E2FDB14803F0B5
:1002500079FD20780A2103F0D7FD2078052811D8F0
:1002600006F0F8FA030507090B0DAB4808E0AB48A8
:1002700006E0AB4804E0AB4802E0AB4800E0AB4826
:1002800003F06CFD300003F05DFD05F041F80A213C
:1002900003F0BAFDA64803F055FD04F01DF90A214C
:1002A00003F0B6FD0021A34803F0D8FD002302931C
:1002B000039302F0C7FA002800D10DE19E4C236899
:1002C000002B00D0B0E001F09BFD002806D08C4A46
:1002D00013780133137080235B00236001F096FDD7
:1002E000002806D0864A1378013B137080235B00F8
:1002F000236001F079FD002804D0824A1368002BA6
:1003000000DDD1E001F076FD002804D07D4A1368BD
:10031000572B00DCCEE0042001F010FD724D0028C8
:1003200003D02B78002B00D0CAE0052001F006FD99
:10033000002803D02B78042B00D8C7E004F0CCF8B9
:10034000039B834202D080235B0023602368002B41
:100350006CD0002402F090FE654E6D22210020003A
:100360002223348003F06AF92B7867480133338005
:10037000604B1C8003F0E6FC624B644C1968200063
:10038000C9B205F09DFC200003F0E8FC604C2000A1
:1003900003F0D8FC5A4B0A21187803F039FD5D4868
:1003A00003F0D0FC28780A2103F02EFD28780528D8
:1003B00011D806F04FFA030507090B0D564808E05F
:1003C000564806E0564804E0564802E0564800E029
:1003D000564803F0C3FC200003F0B4FC04F098FF7F
:1003E0000A2103F011FD524803F0ACFC04F074F84C
:1003F0000A2103F00DFD414C3B4F414E2178414D08
:100400003B78327800912968012004F06BF804F001
:1004100063F82968039020783B7832780C3100909B
:10042000022004F05FF801E0013B23600024434D0B
:10043000314B2F4F1A78287826213C8002F0F6FFA6
:10044000294B029A1B78287801333B803C4B3D4E68
:100450009A5C80239B1A059A9B109B189BB204936D
:100460006B4610229B5E02B20138317800B203F075
:1004700025F858232200009321001633200002F0B3
:100480001FFB6B461B7C304A33702B78127801338C
:10049000DBB23C802B709A4204DD029B0233DBB25C
:1004A000029306E72C70F8E7013B136080235B00A2
:1004B000236027E70133136080235B0023602AE772
:1004C000013B2B70A0231B0123602EE701332B700F
:1004D000A0231B01236031E707B0F0BD2805001001
:1004E0003C830000868300001001001038080010D3
:1004F00034010010440800103C01001009010010F4
:1005000008010010040100109E8300001F05001068
:10051000A3830000A8830000AD830000B283000025
:10052000BA830000BF830000C7830000CE830000B1
:10053000D6830000B50800100C0100101C05001047
:10054000121F00101D0500103801001010B50848DA
:1005500001F0EAFC074803F0EFFA074C18220021EB
:10056000200006F079F80549200000F000FC10BDDD
:10057000250500101E05001028050010381C00007D
:1005800010B50100014800F065FD10BDEC0500103C
:1005900010B5FF21024800F05DFDC0B210BDC0469D
:1005A000EC050010F8B543B204000D00002B07DA8B
:1005B00000217720FFF7F6FF012831D87F231C4068
:1005C000A026882380279B013606F750FFF7E0FF1F
:1005D0008A239B01F750FFF7DBFF2000FFF7D0FFD6
:1005E000280EFFF7CDFF280CC0B2FFF7C9FF280A7D
:1005F000C0B2FFF7C5FFE8B2FFF7C2FF9520402C5D
:1006000003D09438482C00D18630FFF7B9FF0A2474
:10061000FFF7BEFF030603D5013CE4B2002CF7D17F
:10062000F8BDFFFF73B58823A02480223F4D9B01B6
:100630002406E25028003E4900F002FD2800002276
:10064000082100F0F1FC842364259B01E358013D5F
:10065000EDB2FFF79DFF002DF9D129004020FFF7F3
:10066000A1FF040001284BD1D52148204900FFF704
:1006700099FF012815D1FFF78BFF01AC28550135F3
:10068000042DF8D1A378012B3AD1E378AA2B37D1E6
:10069000284D8021E920C905FFF784FF011E11D1F3
:1006A00015E02900E920FFF77DFF4126012801D848
:1006B0000224E926204D00213000FFF773FF0028B7
:1006C00020D116E0013DADB2002D19D0E1E77A202E
:1006D000FFF768FF002813D10500FFF759FF6055A9
:1006E0000135042DF9D123780C245B060FD42C009E
:1006F0000DE0802150208900FFF754FF002806D02C
:10070000002404E0013DADB2002DF9D0D3E70B4B3E
:10071000A0221C70882380219B011206D150FFF774
:1007200037FF60426041C0B276BDC046EC050010A4
:10073000002D3101E02E0000A861000040050010EE
:10074000F8B51D00244B07001B7816001B0700D4CA
:1007500049025120FFF726FF002801D0012431E093
:100760001E4CFFF715FFFF2804D1013CA4B2002C5A
:10077000F7D1F3E7FE28F1D1194C641BA41BA4B2F6
:10078000002E07D1002F11D0013DADB201353E0042
:100790007D1904E0013EFFF7FBFEB6B2F0E7FFF77C
:1007A000F7FE30700136B542F9D105E0013DADB23A
:1007B000FFF7EEFE002DF9D1013CA4B2FFF7E8FEF1
:1007C000002CF9D18823A02280219B011206D15050
:1007D000FFF7DEFE2000F8BD400500103075000078
:1007E00002020000064B1A68831ED16800200239FD
:1007F0008B4203D250784343906918187047C04623
:10080000440500100F4B10B51A680023038083685D
:1008100004001800012B13D0D16801208B420FD2A5
:10082000002B03D11178032900D15369E360002B19
:1008300003D01800FFF7D6FF00E0506920610020C8
:1008400010BDC04644050010F0B5040085B0012875
:1008500054D92C4B1D68EB6898424FD22E78022E4B
:1008600032D0032E38D0012E48D181B24B08C9189E
:1008700089B24B0A0193244BCA05D20D296903AFF3
:100880009A4204D0019B3800591802230EE0019BC4
:10089000380059183300FFF753FF021E2ED1296983
:1008A000019B0131C918330002A80530FFF748FF4A
:1008B000002823D17B7838781B0203431811E20704
:1008C0001DD41805000D1AE02B69C2B2010AC9181F
:1008D000520003AD330007E07F2204232969024060
:1008E000C4099200611803AD2800FFF729FF002812
:1008F00004D168782B780002184300E0012005B08D
:10090000F0BDC04644050010FF01000070B504882A
:1009100005000134A4B2002C01D1032322E00369B5
:10092000002BFAD022071BD101330F4A0361C068A4
:100930001668002803D1B388A342EED910E073787B
:100940002209013B1A420BD1FFF77EFF0123984297
:1009500008D9F3689842E0D2E860FFF743FF2861C6
:1009600000232C80180070BD44050010F7B504006A
:100970000D002B78202B01D10135FAE72F3B5A428D
:1009800053410027ED18A7602B78202B01D9019740
:100990002EE02000FFF736FF404B06001B689B68E7
:1009A0001F7078E0009B1B78002B68D00822009B0A
:1009B000DB7A13405BD162680099581CC95CD35C38
:1009C000994254D103000B28F6D1D37A002B62D17F
:1009D0003B689868C37ADB0656D5437D017D1B02D0
:1009E0000B43C27E1904837E120213430B43A360A0
:1009F0006068020003000B32934203D100220821F9
:100A0000130013E0202119700133F5E72F2B12D0CA
:100A10002E2B3BD091420ED91F00613F192F01D8D8
:100A2000203BDBB2571C8354FAB233005E1CEB5CF4
:100A3000F6B2202BEAD8AD192026019A9E425241E7
:100A4000C2722000FFF7DEFE061E16D1134F3B6870
:100A50009B6800930F23228821691A4052011133A9
:100A60000098FFF76DFE00289CD0012613E02000BF
:100A7000FFF74CFF0028EDD00600032E0BD1636872
:100A80000326DB7A002B06D1042604E00829D2D104
:100A90000A000331C9E73000FEBDC046440500101E
:100AA00070B5164B01001C6890B00620002C23D0B6
:100AB0000023A3706B4608ADA56003A80493FFF75D
:100AC00055FF002818D12B780330002B14D01023A9
:100AD000EE7A1E4010D16B7D297D1B02EA7E0B430E
:100AE0001904AB7E120213430B4363620F9B300069
:100AF00023620123E661A37010B070BD44050010AD
:100B00002F4BF7B51C68002307000D0001921380DE
:100B100006209C4253D0A3780138DB074FD5236AC7
:100B2000E2699B1A8B4200D29DB20097002D45D0FE
:100B3000E669F3051BD1700A617805F01BFF0029F7
:100B40000BD1002E01D1606A02E0A06AFFF77CFEA3
:100B500001282FD90023A062E370A06AFFF742FEAC
:100B6000002827D0E3785A1C1818E270E062E36985
:100B70002E1CDA058023D20D9B009B1A9BB29D424E
:100B800000D91E1CB6B2381E00D000983300E16AAE
:100B9000FFF7D6FD00280DD1E369AD1B9B19E3617A
:100BA000009BADB29B190093019B1B88F618019B1B
:100BB0001E80BBE700230120A37000E02800FEBDDB
:100BC00044050010294BF7B51C680623002C4AD0B9
:100BD000A278013BD20746D5256A854200D9050097
:100BE0000022E369E261954238D066787602002BF4
:100BF00012D03100681E5F1E05F036FE31000190F4
:100C0000380005F031FE019B834205D373423B401F
:100C1000E361ED1AA06A01E0606AA062B5420CD9F6
:100C2000FFF712FE01281BD9E368984218D2E36946
:100C3000A0629B19E361AD1BF0E7E3695B19E36117
:100C4000FFF7D0FD00280BD06B0ADAB2ED0501D119
:100C5000E27003E00132C318E270E362002302E0B5
:100C60000023A37001331800FEBDC04644050010E8
:100C700030B5154B04001B688DB00620002B20D02A
:100C800004AD9D6001AB63602000FFF76FFE00289C
:100C900015D12B78002B0FD0EB7ADB0601D4042082
:100CA0000FE06B7D297D1B020B43EA7E1904AB7EAE
:100CB000120213430B43A3602000FFF7A3FD032898
:100CC000EDD00DB030BDC0464405001010B5130086
:100CD0000A000100014800F003F810BDD9830000AC
:100CE0000FB404B07047FFFF036870B504000D0037
:100CF000013304D1242206490648FFF7E7FF636861
:100D0000002D01D0E26800E02269136070BDC0468A
:100D10003C8300008683000070B50D0004001600BF
:100D200000F098FB6B1C07D00021200000F0BAFBFC
:100D30003100200000F0B0FB70BD10B50122FFF7BC
:100D4000EBFF10BD70B50D000400160000F082FB33
:100D50006B1C0BD031002000FFF7C6FF01212000E3
:100D600000F0A0FB0021200000F096FB70BD10B544
:100D70000022FFF7E7FF10BD10B50400034B083356
:100D800003601C3000F068FC200010BD0C840000E3
:100D900010B50400FFF7F0FF200000F067FA200014
:100DA00010BDFFFF036810B50400013304D12C22ED
:100DB00005490648FFF78AFF636960681B681840A9
:100DC000431E984110BDC0463C830000868300004E
:100DD00070B5050004000E4B0E00083308C528004E
:100DE0001822002105F038FC002320003100E361C7
:100DF00023626363A363E364064A23001C3000F0AC
:100E0000C9FB28003100FFF798FF200070BDC046E5
:100E10000C8400007D0E000010B50430FFF7C2FF07
:100E200010BD03000A0010B51C300121002A04D0B7
:100E30001A6200225A630132110000F021FC10BD39
:100E4000030010B50A001C30002903D0002299636A
:100E5000DA640132022100F013FC10BD436910B5C1
:100E60000100002B04D10368002B06D0984704E052
:100E70000068002801D00431984710BD10B5012941
:100E800003D0022904D1383000E02030FFF7E6FF1C
:100E900010BDFFFF10B50400431C12D00B685A1C94
:100EA0000CD09C4208D12000896800F00FFC002182
:100EB000200000F027FC04E00C31EFE70148FFF7C9
:100EC0000FFF10BD1C84000010B5030088420AD03B
:100ED0000B00421C07D003004A1C04D00348FFF754
:100EE000FFFE01235B42180010BDC0462D840000A8
:100EF0000B685A1C05D0834201D1486802E00C31CE
:100F0000F6E718007047FFFF10B50400431C07D038
:100F1000FFF7EEFF0400431C02D10248FFF7E0FE9A
:100F2000200010BD3E840000074A13681818EFF334
:100F30000881884205D30C220120044B40421A60EC
:100F400001E010601800704714010010103C001000
:100F5000064B10B51B680400002B00D09847044BCB
:100F60001B68002B01D02000984710BD180100100D
:100F700024010010094B10B51B680400002B04D09D
:100F80009847002801D1FFF7E3FF054B1B68181EA7
:100F900000D09847002C00D0206010BD1C0100102C
:100FA00020010010704710B5040000F05FF9200028
:100FB00010BDFFFF73B504000E4800250830206007
:100FC0000820E0600C48261D606106986560257267
:100FD00025610090300000F003FD2B0030002269F5
:100FE000E16800F07DFD3000616900F0AFFD200098
:100FF00076BDC0467C84000040420F0070B5094DAC
:1010000004002B6883420BD0061D0269C1680023CF
:10101000300000F065FD6169300000F097FD2C6044
:1010200070BDC046480500100261002210B5034B98
:10103000C1601A60FFF7E2FF10BDC046480500100E
:10104000002210B5024B41611A60FFF7D7FF10BDB7
:101050004805001070B50D000400FFF7CFFF290010
:10106000201D00F0B7FD70BD036870B5DB6804009B
:10107000984763685A682368002A02D19B6898479A
:1010800013E05B681568984763682D1A5A68002D4D
:1010900007DC916859601B68002BEAD050689847BC
:1010A000E7E7236810681B69984770BD10B50248D0
:1010B000FFF7DAFF10BDC046A484000070B504003D
:1010C00000F0C4FD050000F0C1FD401BA042FAD3B2
:1010D00070BDFA2310B59B005843FFF7EFFF10BD1A
:1010E00070B50A4CA568A3682A00002B0AD180229B
:1010F0005E5952059A1804331660C02BF7D180222E
:101100005205A26010308000815070BD00ED00E0FB
:101110007FB580203F494002CA6F8E240243CA67D0
:101120002322002020253C4B3C499A60223A0A6049
:101130003B49A4000A60186219593A4A11400191CA
:101140000199A943C825019101992D0229431951FB
:10115000009035480099814204D8C0460099013179
:101160000091F7E70121002019645964586459641B
:101170005C6C29480C42FBD08E218026C825890052
:1011800044582D0214400394039C34430394039C5D
:101190002C43445023248460445822400292029CF1
:1011A000B4430294029A2A4342500120DC681A494F
:1011B00001220442FAD00320086700204A674867EA
:1011C00010004A675C6F144A01210442FAD08E2055
:1011D000916780001558154C2C4014501558144C2C
:1011E0002C40145000209164D164D064D164DA6C36
:1011F0000A42FCD02321084A116101225969114297
:10120000FCD000220B4B1A601A600B4B01321A60A3
:101210007FBDC0460480044000800440F04004408C
:10122000F4400440FF250000C3090000FFFBFFFF5E
:10123000FFFEFFFFC0800440C88004407047704735
:10124000704770477047002310B5934203D21C5873
:101250005C500433F9E710BD00231A008B4202D220
:101260001A500433FAE770470020704710B505F0B4
:10127000E9F910BD13B501210F4B9A68120B120347
:101280009A6002789C6891402143996099680B4864
:101290000143996018690849019001980028F9DA1A
:1012A00008329200535801938B685B005B088B6097
:1012B00001980004000D16BD00C001400000088424
:1012C00070B50600FFF7D6FF04003000FFF7D2FF2D
:1012D00005003000FFF7CEFFAC4202D923002C00FE
:1012E0001D000300A84200D92B0020009C4200D220
:1012F000180070BD73B50C00214D060029002000B8
:10130000FFF702FEC0B23070FF2804D135221D491C
:101310001D48FFF7DBFC20002900FFF7BBFD802202
:101320001A4BE405E40DE418236819499343B932D4
:101330002360FF328858174B034010200193019B14
:101340008343C8200193019B000203438B508021FB
:10135000114A8901D36F0B43D367104B10491868AA
:1013600005F082FA8023DB051A000138C0B20D496E
:10137000184308600B681340FCD10A4A136073BD20
:1013800010850000AC840000F78400000040044099
:1013900000800440FF250000048004402801001064
:1013A00020A1070000C0014010B5FFF789FF06F03B
:1013B000A5FA024905F09EFF10BDC046010880391C
:1013C00010B50400431C04D11E2217491748FFF72B
:1013D0007DFC174B1A68002A06D101321A60154AA3
:1013E0001549D36F0B43D3670122002C12D0134B46
:1013F0009C420FD0124B9C420CD0124B9C4209D005
:10140000114B9C4206D0114B9C4203D0104BE1186B
:101410004A424A412000110000F058F90120A4047A
:10142000E40EA04010BDC046AC8500008B830000D8
:1014300054050010048004404000010028140000FE
:101440002C16000030180000341A0000381C000070
:10145000C4E1FFFF70B505000C0029604B1C11D0E2
:101460000800FFF7ADFF2414074BA400E318EB605E
:10147000064B6860E3182B61054BE3186B61054B65
:10148000E418AC6070BDC046002200A0802200A01D
:10149000002100A0002000A010B5006800F032F983
:1014A00010BDFFFF036870B504000D00013304D1C7
:1014B000432209490948FFF709FC002D06D0012DF8
:1014C00009D1A268636811680B4303E0A2686168F0
:1014D00013688B43136070BDAC85000086830000E9
:1014E000F7B501210D008540134C636A2B4221D0D2
:1014F000124B8600F058019300281BD023682B4222
:1015000018D163682B4206D0E3692B4203D00C4B01
:101510001B689847E5612369074F2B4209D03B6A56
:101520002B4206D0064B019A1B680221905998471E
:101530003D626562F7BDC046004000A05C0500103A
:101540005805001010B50020FFF7CAFF10BD10B5F8
:101550000120FFF7C5FF10BD10B50220FFF7C0FF47
:1015600010BD10B50320FFF7BBFF10BD10B5042060
:10157000FFF7B6FF10BD10B50520FFF7B1FF10BD96
:1015800010B50620FFF7ACFF10BD10B50720FFF720
:10159000A7FF10BDF7B505002748814202DD0120F5
:1015A000404248E02548264C02600020820016593F
:1015B0000096002E3BD11351224C2860E36F224F3E
:1015C000224E3B43E3671F248B0349120C40182132
:1015D000A44604009B0F59435E346144A400A1510A
:1015E00081210124890071589B000F002100814056
:1015F0000F4339008127BF00F151A0218026090641
:101600005B18B60199592700019161468F400199F5
:1016100040B2B94399510E4BD158FFF761FD1F22DB
:101620002B68009813409C400A4B1C6003E001307B
:101630000828BBD1B3E7FEBD131102005805001006
:101640005C05001004800440800009000080044014
:10165000F485000000E100E000210368064A9B00D9
:1016600010B59950012281210068044C8240890004
:1016700063589343635010BD5C0500100080044024
:1016800003680120984070B50F4C2368034200D1D5
:101690006062C54326680C4B2E402660012909D1A3
:1016A000002A03D05A68104358600CE05A6815406D
:1016B0005D6008E0002A03D01A691043186102E057
:1016C0001A6915401D6170BD004000A070B504008E
:1016D0000D00431C04D1152207490848FFF7F6FA0C
:1016E000074BE405E40DE418072322681D409A43E4
:1016F0001543256070BDC046148600008B83000032
:101700000040044070B504000D00431C05D11D22AB
:101710000F491048FFF7DAFA06E081231B019842CF
:1017200014D00D4B984211D00C4BE405E40DE41895
:101730002368042D04D18022D2001343236005E0E6
:101740001822ED00934315401D43256070BDC0462F
:10175000148600008B830000140A0000004004403F
:1017600070B50C1C05000021201C05F043FA002870
:1017700009D1FE21201C890505F050FA002803D06C
:10178000FE24A40500E0002480232D689B00E85877
:1017900006F0B4F8211C05F0ADFD05F053FA8123E5
:1017A0009B00E85070BD8023F7B5812704689B003B
:1017B000E258BF00E059E15001920D0006F09EF89A
:1017C000061C019806F09AF8011C301C05F0C8FBB5
:1017D000061C280006F04AF8011C301C05F08AFDA2
:1017E00005F030FAE051F7BDF7B50F00060050499B
:1017F0003800FFF789FBC3B20500FF2B02D14D482B
:10180000FFF76EFA4C4B01211A7801931000084043
:10181000031E04D00A410B000A4200D081E00124DB
:1018200021009940019A4548127873600A43019952
:101830000A70434A99008A5809333260C26F110016
:10184000802212061143C1672000984003003D4AE0
:1018500038005268364913433A4A5360FFF71AFB7F
:101860003768394A3B68394913430C223B607B682F
:1018700013437B607A68364B13407B607B6801932F
:10188000344B186804F0F0FFFE2301381B014001BF
:101890001840019B18437860E8B207281DD804F06F
:1018A000D9FF040A1016040A1016A023DB00FC500E
:1018B0000222294B10E0A123DB00FC500222274B1F
:1018C0000AE0A223DB00FC500222254B04E0A32304
:1018D0000222DB00FC50234BFA508022C12352012C
:1018E0009B00FA500123C0225B4292001E49BB506C
:1018F0000C32B950043ABB5080231C499B00F9506C
:10190000FB58053A9B08FF3ABB5004227B68300025
:1019100093437B60FFF747FF30000021FFF720FF74
:10192000F7BD1348FFF7DCF901235B4277E7C046B8
:101930005C860000C88600007C050010048004401E
:10194000F4860000008004400100060040420F00C1
:101950001FF0FFFF28010010040500000C05000027
:10196000140500001C05000001100000204E0000BE
:10197000E286000080210A4AC905D36F80200B430C
:101980000121D367074B1A680A431A6000229A6044
:101990001A6802431A601A688A431A607047C04680
:1019A0000480044000400240024B18680006C00F4B
:1019B0007047C04600400240014B98687047C046DF
:1019C0000040024010B58024044B1968A1431960FF
:1019D00098601A6822431A6010BDC0460040024059
:1019E000F0B5334E87B000910400310000980192A9
:1019F0000293FFF789FA2F4D070029000198FFF79E
:101A000083FA2D4903900298FFF77EFA2B49049040
:101A10000C98FFF779FA039905903800FFF754FA0C
:101A2000059907000498FFF74FFA01003800FFF707
:101A30004BFA2060431C04D1482221492148FFF77A
:101A400045F92368204A93420FD0204A934219D186
:101A500080201F49C002CB6F1E4A0343CB67012180
:101A60001D4B1960536803310AE0802018490001BA
:101A7000CB6F184A0343CB670121184B1960536899
:101A80000B43536031000098FFF704FA29000198D6
:101A9000FFF700FA08490298FFF7FCF90C9B0133A5
:101AA00003D006490C98FFF7F5F907B0F0BDC04622
:101AB00040880000FC860000388700007C88000019
:101AC00080870000C68700000000044000800540B9
:101AD00004800440008004409C80044094800440C2
:101AE000F8B50E000221140002681D0053680700BB
:101AF0008B435360331F0C2B06D9032C04D965226A
:101B000010491148FFF7E2F88023E0010340013E4D
:101B10001E43A30734003968DB0F0A689B01120CCF
:101B200012041C4314430D220C604B6893436A1E3D
:101B300095410222AD001D434D604B6813434B603D
:101B4000F8BDC04680870000DA870000F7B50224A0
:101B500005000E0002685368A34353601A4B1B68CC
:101B600001932100019804F07FFE05F07FFE071C21
:101B7000300005F07BFE011C381C05F0F1F9FC215A
:101B8000890505F077F806F067FB04F093FC06F092
:101B90002DFBFF280FDC2B680C4A1C6119680138EB
:101BA0000A4002211A601A680002104318605A683D
:101BB0000A435A6007E0802302345B009C42D0D184
:101BC0000348FFF78DF8F7BD28010010FF0000FF64
:101BD0001888000002220368D8681042FCD0042252
:101BE0009960D9681142FCD098687047104B70B565
:101BF0001A68002A1AD1012580210E4A1D60D36F70
:101C0000C9000B43D3670C4B0C4C186802230C49DA
:101C1000636004F029FE0138E0600A496560132022
:101C2000FFF75EFA8022084B12031A6070BDC046AF
:101C3000800500100480044028010010008001404D
:101C400040420F00AD10000000E100E0044B10B571
:101C50001B68002B01D1FFF7C9FF024B986810BD2C
:101C600080050010008001400121034B98615A69F2
:101C70000A435A617047C046008001400121024A70
:101C800053698B4353617047008001400122014B2F
:101C90001A60704700800140704770477047FFFF2F
:101CA00010B50548FFF780FB044905F023FB04F05D
:101CB000C9FF034B187010BD8505001000007F435D
:101CC0008405001010B5FFF7EBFF10BD10B50249F9
:101CD0000248FFF70FFB10BD5C2E000085050010C9
:101CE00010B502F0BFFD10BD70B50023FF24022522
:101CF0000B480C4AC15C002906D0D15C0131C9B245
:101D0000FF2906D1D55407E0D65C002E04D0FF2E63
:101D100001D1D15400E0D4540133072BEAD170BD76
:101D2000AD1D001087050010034B185C01384342BD
:101D30005841C0B27047C04687050010034B185C7D
:101D4000FF3843425841C0B27047C0468705001073
:101D5000002210B51D4B19781A701D4A50780028C2
:101D600001D001201870D078002803D00224187800
:101D7000204318701078002803D0042418782043DA
:101D800018709078002803D0082418782043187021
:101D90001079002803D01024187820431870507947
:101DA000002803D020241878204318709279002A44
:101DB00003D040201A7802431A701B78054A180095
:101DC00008409943044B1070197010BD860500102F
:101DD000AD1D00108F0500108E050010014B187905
:101DE0007047C046AD1D0010014B18787047C046C3
:101DF000AD1D0010014B98787047C046AD1D001016
:101E0000014B58787047C046AD1D0010014BD87883
:101E10007047C046AD1D00100023094A1380094ACF
:101E20001370094A1370094A13700122084B524279
:101E30001A80084A084B1A600922084B1A7070472A
:101E400096050010950500109C05001090050010E7
:101E5000920500108492000098050010940500106F
:101E600010B50248FFF7D8FF10BDC046910500101D
:101E700037B572B600210422244B802559601961C0
:101E8000234BED001A608E22224B92009C582C436B
:101E900080259C509C586D002C439C5001225A6711
:101EA0001400596719004B6F1A4D01222340FAD1D3
:101EB00014002B676A676B674B6F164A2340FBD190
:101EC0008E245364516CA4009360136753601559BA
:101ED000114929408025019101992943C825019183
:101EE00001992D0229431151A02284211206890152
:101EF00053500A4953500A4953500A4B9860001CEA
:101F000001688D464068804737BDC046004000A04C
:101F100010E000E000800440FF25000004210000E4
:101F20000821000000ED00E07047FFFFF0B5C1B0F0
:101F30000E0000F05FFE00F069FE8023DB029B1BB9
:101F40000400984200D91C0000F04AFE8027134884
:101F500001F004FF00257F00A5421CD280216846C5
:101F6000490000F021FEFF2804D8631BBB4201D9C1
:101F70000B4806E0A819694603F06CFB002804D062
:101F8000084801F0EBFE012006E001350648FF3568
:101F900001F0D8FEE0E7002041B0F0BDEE93000074
:101FA000FA9300001594000067940000F7B501262D
:101FB0000024514B514D1E70514B1C80FC23DB0003
:101FC0002B8000F045FE2100200000F071FE300063
:101FD00001F00CFE0094019408F0A5F80421494892
:101FE00000F0BCFDA0420FD100F004FE08204042EA
:101FF00000F0E2FD0421684600F0D6FD042101A8AE
:1020000000F0D2FD00F0ECFD01273F4E7F423F4C37
:102010002368B34200D03E4C2368B34200D03D4C0D
:102020002368B34200D03C4C2368B34217D020232E
:102030003A485B422B8001F091FE009B002B03D0BD
:10204000374B019A9A4240D8364801F087FE36480D
:1020500001F084FEFC23DB002B80344820E0344B6D
:1020600034482B8001F06EFE0A2160682F8001F059
:10207000EEFE6368009A934227D3A068FFF7F8FE4C
:1020800017E0FFF7C3FE002834D1FFF7B9FE0028A0
:10209000F7D001990098FFF749FF002826D026487D
:1020A00001F05CFE05E0FFF753FEFFF797FE002806
:1020B00004D1FFF793FE0028F5D01BE0FFF78EFE5A
:1020C000002817D0FFF744FEF8E71C4B1C482B8074
:1020D00001F038FE00980A212F8001F0B8FEFC23A1
:1020E0001848DB002B8001F039FECEE7164801F0DE
:1020F00035FE8CE7F7BDC046360100102E010010FA
:10210000B2080010DB9400001EAB07B0F4FF030020
:1021100004FF030004FE030004F00300E394000046
:10212000FF7F0300F7940000098400000E95000073
:10213000FF07000029950000339500001FF8FFFFFE
:10214000599500006D9500004F950000F8B50026E8
:10215000012001F04BFD4A4BFC271E8000F078FD6A
:10216000484D494B49482B8001F0D4FC0123484C91
:1021700030212370474BFF001E70474B60201E70BC
:102180002F8001F0F1FD454801F0DCFD3821602091
:1021900001F0EAFD424801F0D5FD4021602001F048
:1021A000E3FD404801F0CEFD4821602001F0DCFD58
:1021B0003D4801F0C7FD6021282001F0D5FD3B48D6
:1021C00001F0C0FD013E3A482E8001F0BBFD3948C8
:1021D0002F8001F0B7FD0223374823702E8003F0D3
:1021E000EBFA8319DBB225000324042B00D804008A
:1021F00003F00CFB86B2FFF7ABFD7821682001F0FD
:10220000B3FD0A21200001F0FFFD03F0FFFAFA23DD
:102210009B00F318984203D903F0F8FA013C86B208
:1022200002F0C2FB002808D002F0BEFB041E02D060
:10223000FFF78EFDF8E7FFF7B9FE02F0A9FB0028D3
:1022400007D002F0A5FB002802D0FFF781FDF8E7D8
:10225000040002F0A3FB002802D1002CCBD106E041
:1022600002F09CFB002802D0FFF772FDF8E7012383
:102270002B7000F0EDFC002001F0B8FCF8BDC0466A
:10228000B20800102E01001000F8FFFF208F0000A0
:102290003601001037010010300100109295000047
:1022A000979500009C950000A1950000A695000060
:1022B000AC950000B0950000A20F0000F0B5984D5D
:1022C0001E002B888BB00400049109935711002E37
:1022D00006D00020322300901A00010000F0DCFC40
:1022E0006A461021525E8E4B029222B20392032F55
:1022F00002DCFC22D20022E0042F1DD120235B420D
:102300002B80002E00D102E101F068FC05000120C5
:1023100001F06CFC02F0E0F8049902001439601E30
:10232000C9B20A23C0B201F079FD7E4801F00AFD6E
:10233000280001F05BFC05E0042F01DD7A4A1A80D9
:10234000002EE1D1002F02DC784A754B1A80012360
:10235000774A00930299039800F0B4FC012F02DC45
:10236000724A6F4B1A80A3B21D000126704C0835CB
:102370002DB203932200330002992800009600F04A
:10238000A1FC6B461B8A22000493043B1BB20593FD
:10239000009633000599280000F094FC022F02DC1F
:1023A000624A5F4B1A800125039E2B00103636B21D
:1023B000220002993000009500F084FC2B002200DE
:1023C00005993000009500F07DFC049B0095083BCA
:1023D0001BB2069322002B000699300000F072FC1D
:1023E000032F02DC514A4E4B1A800124039D504EAC
:1023F00018352DB22300320002992800009400F015
:1024000061FC2300320005992800009400F05AFC7A
:102410002300320006992800009400F053FC049B2E
:1024200000940C3B1BB2079332002300079928004D
:1024300000F048FC042F02DC3C4A394B1A8001248E
:10244000039D3B4E20352DB2230032000299280017
:10245000009400F037FC2300320005992800009416
:1024600000F030FC2300320006992800009400F0B0
:1024700029FC2300320007992800009400F022FC78
:10248000049B0094103B1BB2089332002300089970
:10249000280000F017FC052F02DC244B204A138093
:1024A0000125039C224E283424B22B0032000299CD
:1024B0002000009500F006FC2B003200059920005A
:1024C000009500F0FFFB2B003200069920000095DC
:1024D00000F0F8FB2B00320007992000009500F077
:1024E000F1FB2B00320008992000009500F0EAFB78
:1024F00004992B001439320009B20095200000F035
:10250000E1FB6A46064B928C1A800BB0F0BD0123AA
:10251000074A00930299039800F0D4FB23E7C046D2
:102520002E0100103F96000000F8FFFF8A520000C5
:10253000DB9B0000F0B5012087B001F057FB0022C3
:102540009B4B1A7001F0C8FFFA20000103F034F928
:10255000040005F0D3F9974B97491C80051C04F043
:102560005DFB002801D0FF2000E07F2001F0A0FFEC
:102570000024200005F07AF9011C281C04F058FB07
:10258000002805D020B2013401F04CFFE4B2F0E79E
:102590008A4B18708A4803F00FF9431EDBB204001F
:1025A000092B00D9874C03F031F983B2049301233E
:1025B000FC271D000393FF00834B1B78002B03D0E7
:1025C000002D01D0002C22D101F086FF0400FA205A
:1025D000000103F0F1F80600200005F08FF9051C5A
:1025E000300005F043F9011C281C04F0FDFA002816
:1025F00004D1FA20E1B2000103F0E7F820B201F0C3
:1026000011FF0021080000F053FB07B0F0BD03F0FC
:10261000FDF8FA22049B92009B18984208D903F017
:10262000F5F883B20493694BE3185A1E9341E41AF8
:10263000012D03D0022D00D198E0BDE7039B644D2E
:10264000002B32D0012600F003FB7642102120201F
:102650002E8000F02DFB5F4801F074FB99212820AB
:1026600000F026FB5C4801F06DFB5C482F8001F018
:1026700069FB5B482E8001F065FB582100202F800C
:1026800000F016FB574801F069FB574E300001F08F
:1026900065FB300001F062FB300001F05FFB3000B1
:1026A00001F05CFB514801F059FB9921302000F00A
:1026B000FFFA4F4E3378032B02D801235B4200E030
:1026C0004C4B2B8002234C4A00933021013BA42029
:1026D00000F0F8FA3621182000F0EAFA474801F035
:1026E00031FB1820422100F0E3FA33784448032BF1
:1026F00000D8444801F026FB0223434A2F80602182
:102700000093A420013B00F0DDFA6621182000F0C0
:10271000CFFA3E4801F016FB7221182000F0C8FAEB
:1027200001F0DAFE7F2802DD324B2B8000E02F80A3
:102730002F4B274D1A78042A02D1243A2A8003E02D
:10274000072A01D1013A1A7018780A2101F05CFBBE
:102750002F4801F0F7FA2F8001F0BEFE002302009F
:1027600077217020FFF7AAFD022525E7FFF7F0FA91
:10277000FFF7BAFA02F00CF90590002801D0002505
:102780001AE72800FFF7D0FA061E05D001F062FE16
:10279000059B0C4C039308E0FFF7C6FA002800D114
:1027A0000AE7084C01F06EFE0396012504E7C046D7
:1027B00037010010E01B00100000FE42A7050010CA
:1027C000A30F0000FFFF0000A50500100100FFFFA0
:1027D0002E010010BB950000D4940000CF9500009E
:1027E000D1950000DC950000F795000012960000DE
:1027F000F41B001000F8FFFF979B00008F9400006F
:102800002D96000037960000B99B0000429600000C
:102810003F960000012210B5084B00201A7001F00D
:10282000E5F9074801F076F902F0E0FF03F004F85B
:1028300002F018F802F0F0FF10BDC046A505001028
:10284000B8880000014B18787047C046A5050010F5
:10285000F7B50024FC2725005826FF00292D48D86D
:1028600002F0D4FF234B1A689042F7D91E3018604B
:10287000012D0BD0002D02D0022D22D035E01E4BB1
:1028800028001D8000F0F2F901252EE0FC21E2B2C3
:10289000C900002001F014FB184B194A18806E2360
:1028A00051781078490840081C34181A711A00959C
:1028B0002B00A4B200F006FAFE2C16D90024022543
:1028C00013E00E4B0E4A1F806E231078517840089B
:1028D000181A49086D3B0093711A00F0F3F93F3460
:1028E000084BA4B29C4200D9FF25FFF777FA0028D5
:1028F000B4D0F7BD74280010B20800102E010010EB
:102900008D960000FF03000010B57F2001F0D0FD80
:102910007F22034B1A80034B80321A7010BDC046D1
:10292000E01B0010A4050010F7B5FFF773FF32227B
:102930000127FF24314B1A70314B1F60314B1C7043
:10294000FFF7E2FFFFF7A8F920000024FFF7A5F941
:10295000FFF7C6F9FFF7C8F9FFF7B4F900F0A3F9DC
:10296000FFF776FF380001F041F9274E348000F080
:102970006FF9264D280001F0CDF8380001F036F946
:10298000FC22234BD2001A80348000F061F9280029
:1029900001F0C0F81F4E204D34702F70FFF7D6FBAA
:1029A000FFF7C8FD00F068FB5823220000932100C8
:1029B0001633200000F0B6FB0420FFF7BFF9002813
:1029C00002D1FFF791F9F7E7002001F00FF9012399
:1029D000124A13481370134A33702B70137001F0AE
:1029E00099F801F09BFAFFF75BF90520FFF79CF9D6
:1029F000002802D0002001F015FDF7BDA60500104B
:102A0000AC050010A4050010B2080010208F0000D3
:102A10002E010010370100103001001036010010A7
:102A2000BC8B000032010010F0B51F4B85B01A7846
:102A30000393002A36D000240B2A02D80C239C1AB8
:102A4000E4B20127194B002055251F7000F088FBC8
:102A50000322174EA4B231780020CB1C691A6118EA
:102A60000092513201F019F8380000F079FB03228E
:102A700031780020CB1C691A61180092513200F0A5
:102A8000A6FF04220B4B1A803378E41A0A4B573402
:102A90001C800A4B186801F055F9039B039A1B78B8
:102AA000013B137005B0F0BDB805001036010010F1
:102AB000290600104C08001040080010B005001056
:102AC000F0B587B005930CAB039104921F78060014
:102AD00002F09CFE194B1A491B780A68194C121A0D
:102AE0009A4212D92268002A0FD0174AC3180B60E5
:102AF000136801250133136000232360FFF7CEF82C
:102B0000FFF7F2F8FFF7CCF814E000252368AB429A
:102B100010D101F02DFB01F08BFB01F07DFCFFF7E4
:102B200083FF059B0097049A0399300000F0FAFA9E
:102B300001232360280007B0F0BDC046A6050010A1
:102B4000B4050010AC050010A005001010B5024837
:102B500000F0F2FF10BDC046A805001070B50F4D83
:102B600006002B780C00102B0BD030002C70FDF7DA
:102B700097FF041E0DD13100094803F061FE2000CB
:102B80000AE0084807F00EFA03000120002BECD001
:102B900002E0082301202B7070BDC0462C010010FC
:102BA00004060010BC05001013B56B469C1D2200E6
:102BB000FDF7A6FF208816BD10B5074B002804DAE4
:102BC000DA6941428A4200D25042DB69C018FDF7FF
:102BD000F9FF024B187010BDBC0500101306001061
:102BE00010B50020FDF7EEFF014B187010BDC04678
:102BF00013060010034B10B5186AFDF7E3FF024BF4
:102C0000187010BDBC05001013060010014BD869E8
:102C10007047C046BC0500100123812213B5074C44
:102C20005B4200935201064B06492000FEF7C2F9B1
:102C3000054A06492000FEF717FB13BDEC050010FE
:102C4000180C00002412000000010010A50F000065
:102C500010B5002001F078FF0023024A1380024AD9
:102C6000138010BD4C0800104008001010B501F092
:102C70006BFF10BD064B10B51B880F2B04D8054CFD
:102C80005B001B5B934201D002F0CAF810BDC04646
:102C90003A0100103406001013B504AC24880094E7
:102CA00002F0EEF813BD10B501F0AEFF10BDFFFF4E
:102CB000024B1880024B19807047C0464C08001028
:102CC00040080010F0B58FB00B9114A909780A9054
:102CD0000891117805915178023209910092012BE7
:102CE00076D1059B0733DB100C936B461B8D079346
:102CF0000493002303936B460C21595E059B8B4282
:102D000000DCF0E00723CA171A405218D21053B261
:102D10000A93764B0B4004D50822013B52421343E1
:102D2000013380221BB21A416B469B8D0D92069394
:102D30000293002301936B4604229B5E099A9342FF
:102D40003EDA0C9A0A995343009A5218D35C0D9AB2
:102D50001A422DD0089B664C012B09D1069B019984
:102D600003985918079B2288181809B200B21DE071
:102D70006B461027DF5F6B4608269E5F2288310076
:102D80003800FFF777FF049B31005D1C2DB22288CD
:102D90002800FFF76FFF029B22885E1C36B23100CD
:102DA0003800FFF767FF310028002288FFF762FF35
:102DB000019B01330193029B02339BB20293BAE75A
:102DC000039B01330393049B02339BB2049392E76A
:102DD000042B00D087E00023099A934200DB82E0B5
:102DE0009BB202936B469B8D00250793029B079A2B
:102DF0005B00D3189BB21AB201331BB204936B462B
:102E00001B8D039206930193059BAB4267DD009BEC
:102E1000384A1B7812681B115B009E5A089B022BD4
:102E200019D1069B6C001C19A4B227B201343200E0
:102E30000399380024B2FFF71DFF320003992000E8
:102E4000FFF718FF320004992000FFF713FF32004C
:102E50000499380007E0029B079A99186B463200E4
:102E60000420185E09B2FFF705FF0F22009B1B78B4
:102E70001340204A5B0012689E5A089B022B1AD10D
:102E8000069B6C001C19A4B2A71C3FB2033432008D
:102E90000399380024B2FFF7EDFE320003992000B9
:102EA000FFF7E8FE320004992000FFF7E3FE32004E
:102EB0000499380007E0029B079A99183200019B99
:102EC00009B2581C00B2FFF7D5FE009B0235013352
:102ED0000093019B2DB202339BB2019394E7029BB6
:102EE00001331BB278E70FB0F0BDC0460700008089
:102EF0002E0100103C080010F0B51300574A8DB0A9
:102F000014680F00627811000192F72208390A4014
:102F1000511E8A410199C9105218089208992278C5
:102F20004A43511C4B431A00A2181279053352B27E
:102F3000099282B20B9206920022E31805926A4629
:102F4000127D099952B2914200DC7CE008991A780E
:102F5000022903D00133079393B204E0991C5B78F4
:102F600007911B02134300240293059B0B9A5B00FD
:102F7000D3189BB21AB201331BB203920493019B84
:102F8000A34257DD0122029B134217D0344B1B781A
:102F9000022B07D16500ED19ADB2324E2BB20A9368
:102FA00032881AE06946304B18254D5F1A782D4B50
:102FB000002A01D01A882BE01A8830E02B4E2C4BC7
:102FC00032881B8893422FD0254B1B78022B18D1B7
:102FD0006500ED19ADB22BB20A93190003980135C3
:102FE000FFF748FE2DB232880A990498FFF742FE97
:102FF000328829000398FFF73DFE328829000498A3
:1030000010E06946184B18254D5F1B78002B06D041
:10301000019B2900581EC019031B18B202E02800AA
:10302000E11909B2FFF726FE029B01345B08029307
:1030300064B2A4E7059B01330593069B01339BB261
:103040000693079B7BE700200A4B1856099BC01884
:10305000034B1B7858430DB0F0BDC0464808001024
:10306000360100102E010010B1080010B208001047
:103070003A01001037010010F8B52249224F0978B3
:103080003B88224CDAB2224E224D012903D1FE3177
:10309000002B2FD129E0022907D103231A40110068
:1030A000930019430A01114324E003291DD1023979
:1030B0001940194A00D0FF21206803F0CDFA0223FD
:1030C0003988154A194023689818002900D0FF2133
:1030D00003F0C2FA04233988206819400F4B0E4AC6
:1030E000C018002908D0FF2106E00F210B40110174
:1030F0001943C9B20A4A206803F0AEFA00233380AC
:103100002B80F8BD31010010440800102C0600107F
:103110004C08001040080010BA04000074090000B8
:103120001F13000010B5002805D1064B1968064B87
:10313000186801F009FF054B1B78002B01D1FFF740
:103140009BFF10BD3C0800102C0600103808001032
:1031500010B5024800F09CFE10BDC046BE930000B2
:103160000F231840014B18807047C04634010010EF
:10317000114B30B51B8893421DD0104B84B21B7885
:10318000A34218D90E4D89B22D788D4213D95B1008
:103190004B43401018180B4B80B219680F230818C6
:1031A0000178E40702D599430A4303E00B4012017A
:1031B0001A43D2B2027030BD3A010010380100103B
:1031C0003C0100102C060010F0B51300274A87B010
:1031D0000490106805914778F722390008390A40B1
:1031E000511E8A41F91052180292029902784A43FC
:1031F000511C4B431A0082181279053352B20392C4
:103200006A46158AC318049A0399AA1A52B29142BF
:1032100024DD029A1C78022A03D001330193A4B260
:1032200004E09A1C5B7801921B021C430026B74203
:1032300010DB059B28B2F11801231C4201D00C4B76
:1032400000E00C4B1A7809B20136FFF791FF6408D1
:1032500076B2ECE70135ADB2019BD4E70020064B16
:103260001856039BC01807B0F0BDC04648080010B0
:1032700034010010440800103701001010B5114B44
:1032800084B21B78A3421CD90F4A89B212788A42B1
:1032900017D95B104B43401018180C4B80B21968BB
:1032A0000F22081801780A4BE40704D591431C78D3
:1032B0000B00234304E01B880A401B011A43D3B2CE
:1032C000037010BD380100103C0100102C060010E6
:1032D00034010010F0B585B0019313000C0000928A
:1032E00000229A5E0021435E05009A4204DA230020
:1032F000009D019C009001930023EE5E494B1B78DA
:1033000002939E4201DB002789E0002E18DA009B21
:103310000021595E0029F6DB0023E75E019B891B33
:103320000020185E09B2C01B000200B203F026FBA9
:10333000002300B2764246433612F71927802B80CD
:10334000009B00269E5F029BB34217DC019B2988ED
:103350000027DF5F0023E05E711A381A000200B216
:1033600009B203F00BFB029B00B2013B9E1B4643DC
:10337000019A3612F7191780009A1380019B0022D8
:103380009A5E0021635E9A4205DA2300019C019354
:103390002B00009D00930023E65E234B1B780293D5
:1033A0009E42B0DA002E18DA019B0021595E0029F6
:1033B000A9DB0023EF5E009B891B0020185E09B289
:1033C000C01B000200B203F0D9FA002300B276421B
:1033D00046433612F7192F802380019B01270026D0
:1033E0009E5F029BB3421ADC009B218800229B5EF9
:1033F000711A03930023E85E039B09B2181A0002B6
:1034000000B203F0BBFA029B00B2013B9E1B464395
:10341000039A3612B618009A1680019A1380380063
:1034200005B0F0BD380100103C01001070B50F4B25
:1034300015001B788AB20600934202D8AAB29342C2
:1034400012D90B4B1A78B3B29A420DD9A94202DDB8
:103450000B0029001D000C00A54205DB21B2300045
:10346000FFF70CFF0134F7E770BDC0463C010010C8
:103470003801001070B50F4B16001B7882B20D009A
:10348000934202D88AB2934212D90B4B1A78B3B244
:103490009A420DD9A84202DD030028001D00040055
:1034A000A54205DB20B23100FFF7E8FE0134F7E763
:1034B00070BDC046380100103C010010F0B589B065
:1034C00006ACA61D07AC218006A90B803D4B8D1CC8
:1034D0002A801A78308080B2904219D23A4B2188E3
:1034E0001B78994214D22988914211D206AA1288D7
:1034F0009A420DD20023F05E0023E95E884210D18B
:1035000006AB00229A5E0023E15EFFF78FFF56E0D4
:1035100006AB2A0021003000FFF7DCFE0028E9D1CD
:103520004DE00023E25E06AB00241B5F9A4202D10D
:10353000FFF7A0FF43E005001600884203DD441AB0
:103540000121494201E00C1A012103919A4203DD55
:10355000D21A01235B4201E09A1A0123019300234E
:103560000293A24204DD230014001A0001230293F7
:10357000530004931F1B6300059300230093009BDB
:103580009C421CDB31B228B2FFF778FE002F09DB2A
:10359000029B012B02D1039BED1801E0019BF61861
:1035A000059BFF1A029B012B02D1019BF61801E03B
:1035B000039BED18049BFF18009B0133DEE709B065
:1035C000F0BDC046380100103C01001010B5002AC3
:1035D00004DA92B25118524209B212B28A1812B2E7
:1035E000FFF724FF10BD10B50B00002A04DA92B2D9
:1035F0001018524200B212B28218013A11B21A00E7
:10360000FFF738FF10BDF8B5060014000F00CB1807
:103610001DB234192A0024B2FFF708FF2A0039002E
:103620002000FFF703FF3A0030002100FFF722FFE0
:103630002A0030002100FFF71DFFF8BDF8B5821801
:10364000CB1805000C0012B21BB2002801DA002AC8
:103650002DDB174909788D4201DB914227DD002CD3
:1036600001DA002B23DB134909788C4201DB9942F4
:103670001DDD954202DC11002A000D009C4202DC97
:10368000190023000C00161C002A00DA002636B2AE
:10369000191C002B00DA00210FB2AE4207DA30000D
:1036A000220039000136FFF7C1FE36B2F5E7F8BD5A
:1036B000380100103C010010F0B5030085B000286F
:1036C00079D03E4A1478A04201DB631E1BB23C4A0B
:1036D0001078042807D13B4A11785943CA0F511872
:1036E000491089B20AE0022865D10321354A1278CF
:1036F0005A43D51729408A18921091B2324A158838
:103700000195324D2D8815802E4A002B28DD127828
:10371000E31AD508684300252E0002900393039B0B
:103720009D4216DA891B89B233008C466146981B8C
:1037300080B207000298591889B2874205DA244FEF
:10374000581C795CF95483B2F0E70135ADB21E0024
:10375000E5E7204923B20020095E12B2002024E0F0
:103760001278A4B25043C010029000209DB203947E
:10377000039CAC4216D9401A80B20C0084466046C5
:10378000661AB6B23700029E001980B2B74205DA57
:103790000F4F661C385C3855B4B2F0E70135ADB256
:1037A0002100E5E70021080012B2FFF747FF6A4653
:1037B000054B92881A8005B0F0BDC0463C01001050
:1037C00031010010380100103401001044080010CD
:1037D000B508001040080010F0B587B004936B46A0
:1037E000012400921B880290E21AA3405B4212B2AD
:1037F0001BB2039101920593631E009A1BB29A4279
:1038000067DD019B002B0CDB1300013B1BB2009317
:10381000059B02339BB21AB20592019A9B181BB208
:103820000193019A630001339B1804221BB2019398
:10383000049B13420FD06B461F899D891E8838193F
:10384000A91909B200B22D19BE19FFF717FD29B247
:1038500030B2FFF713FD0222049B13420FD06B46D8
:103860001F899D891E88E019A91B09B200B2FFF7C4
:1038700005FDBE19291B09B230B2FFF7FFFC049BFE
:103880001B070FD56B461D891F889E89E81BA11950
:1038900009B200B2FFF7F2FCBE19281B31B200B228
:1038A000FFF7ECFC049BDB0702D40134A4B2A3E7CE
:1038B0006B461D891F889E89E81B311B09B200B227
:1038C000FFF7DCFCF61B281B31B200B2FFF7D6FC79
:1038D000EBE707B0F0BDF0B58BB01600089393B2DC
:1038E00001220790D01A93405B421BB206938BB221
:1038F0000493013B9BB2029310AB1B8800B205936B
:1039000002339BB201930023009003930992039B1F
:10391000B3425ADA009B002B0ADB069B013E0233BE
:103920009BB21AB20692009A36B29B181BB2009351
:10393000039C009A0134A4B223B2039363000133C1
:103940009B181BB20093099A089B134217D06B4631
:10395000B5B29F8B059B6A009A18049B3819591BB6
:1039600012B209B200B2FFF731FE6B4604229A5E32
:103970006B467D190821595E28B2FFF727FE022207
:10398000089B134208D1029B013B9BB20293019B0F
:1039900002339BB20193BAE76B46B7B29D8B059B8E
:1039A0007A009A18049B281BD91B12B209B200B2E4
:1039B000FFF70CFE6B4604229A5E6B46ED1B082156
:1039C000595E28B2FFF702FEDDE70BB0F0BDF0B59F
:1039D00087B01F000CAB00241C5F01900E00012C6F
:1039E00003DC3B00FFF70FFE55E06B469B88A1B25E
:1039F00002935B181BB2009393B203934B009BB2EC
:103A00000493049A039B31009D1A2DB22A0000985A
:103A1000BFB2FFF7E8FDB6B27B1EF3189BB2059369
:103A20006B462A001421595E0098FFF7DCFDA3B213
:103A30009E19049B36B2FF1A3FB231003A0001983A
:103A4000FFF7C4FD039B31005D1E029B3A005D1928
:103A5000ADB228B2FFF7BAFD310001232200009871
:103A6000FFF7BAFEA3B2ED1A2DB2310002232200F5
:103A70002800FFF7B1FE059BA2B29E1A36B20423BE
:103A8000220031002800FFF7A7FE082322003100A2
:103A90000098FFF7A1FE07B0F0BDF0B587B00C00AD
:103AA0000CA900268E5F012E03DC2100FFF7C6FD66
:103AB0002DE0B7B281B292B27D0004920291AAB217
:103AC000C919059209B20391049A0599013B9DB267
:103AD000521A2BB2210012B20398FFF7AFFD059BDB
:103AE0003C19ED1A049B24B2581E029B2DB21818E3
:103AF000C01B00B20123320021000095FFF7EBFE4E
:103B000000950223320021000398FFF7E4FE07B07E
:103B1000F0BDFFFF054B064A1860037801331370B0
:103B20004378044A013313707047C04648080010B8
:103B30004208001029060010124A134B10B5040069
:103B40001A60FFF705FB0122104B11481A70114B48
:103B5000DB321A80104B2C3A1A80FFF7DBFF112260
:103B60000E4B04211A8000230D4A200013800D4AB9
:103B700011700D4A13600D4A1360936113639364CF
:103B800010BDC046B50800102C060010B00800108B
:103B9000B8880000320600104E0800103A010010EC
:103BA00044080010300600103408001050080010BF
:103BB00010B5084B09B21B6800B29B78D21A064BAD
:103BC000D2B21B78002B02D0FFF796F901E0FFF785
:103BD000FBFA10BD48080010B0080010024B18781E
:103BE000431E9841C0B27047B008001009490A4A04
:103BF0000A4B002805D001200870DC211180B0227A
:103C000005E00870064909781180064A12781A8082
:103C10007047C046B0080010320600104E08001071
:103C2000380100103C01001010B50B4C0B4900236B
:103C3000E25E0B4B09881B685B785800091A09483B
:103C4000007840B28A4203DDC018FFF735FD02E07C
:103C5000C3189B18238010BD400800104E080010A8
:103C6000480800103001001070B52B4B04001A6892
:103C7000D378002B03D0602801D9203CE4B20E2C6D
:103C800021D8200002F0E6FD461F1F1F1F1F1F1F27
:103C90000E1F081F1F1B46000022204B1A80FFF733
:103CA000C3FF37E01D4910780B882022181A1C4BDF
:103CB00080B208801978C0B2FFF77AFF2AE00022AC
:103CC000164B1A8026E0154D12780023E85E154B3E
:103CD0001B889B1A98420BDB00232B80124B1B780E
:103CE000002B17D0FFF7A0FF0D4B2878197802E0C2
:103CF0000B4BC0B219782200FFF75AFF202C06D1D7
:103D00000A4B1B785BB2002B01D0401001302B888E
:103D10001818288070BDC046480800104C080010D4
:103D20004008001032060010320100103701001068
:103D300010B504002078002803D00134FFF794FF69
:103D4000F8E710BD10B5FFF7F3FF10BD10B50D205B
:103D5000FFF78AFF0A20FFF787FF10BD10B5FFF7B6
:103D6000E7FFFFF7F3FF10BD024B1880024B1980ED
:103D70007047C0464C080010400800100023F0B502
:103D8000050089B00E00984203D13020FFF76CFF88
:103D90001CE05C1C28006B4431001F0002F0EAFDAF
:103DA00028003970310002F05FFD2300051EF0D1BC
:103DB0006B46013C1B5D18003730C0B2092B01D89F
:103DC0003033D8B2FFF750FF002CF1D109B0F0BD6D
:103DD00010B5041E03DA2D20FFF746FF64420A21C6
:103DE0002000FFF7CBFF10BD10B5002903D1C0B2F2
:103DF000FFF73AFF07E00A2902D1FFF7E9FF02E0E7
:103E0000C9B2FFF7BBFF10BD10B5FFF7EDFF10BD46
:103E100010B5FFF7E9FFFFF799FF10BD10B5044C8F
:103E200020800448018019001000FFF7DDFF10BD5D
:103E30004C0800104008001010B5002903D1C0B292
:103E4000FFF712FF02E0C9B2FFF798FF10BD10B5EF
:103E5000FFF7F2FFFFF77AFF10BDFFFF10B5002953
:103E600003D1024B196801F06FF810BD3C08001037
:103E700010B50248FEF758F810BDC046B40800104F
:103E800089104901D210C0100A43C0021043704784
:103E9000F8B5802704000025074E7F00A2786178DE
:103EA0002078FFF7EDFF6B000135F0520334BD427F
:103EB000F4D1024B1E60F8BD340600103C0800101F
:103EC00070B51F24050025400C40641B23B25343EA
:103ED0001B12EB183F2544114E112C40C00A3540EF
:103EE000C9122D1B091A55434A4312122D1280186C
:103EF0001BB26419021C002800DA002212B2D2029E
:103F0000181C002B00DA00201043231C002C00DAC0
:103F100000231BB25B01184380B270BD10B501F0E5
:103F200077FA012001F0FAF910BDFFFF00B5002B70
:103F30003CD104283AD802F08DFC030E242B320029
:103F4000002349B2994204DB0B1C0A2900DD0A2335
:103F5000DBB2174A13E0174B89001B68164ACB588F
:103F6000164813601B88164A11781A004A43D2B2C9
:103F700002701B12934200DD13004B43114A137071
:103F800014E00F4B1B7859430F4B19700F4B0CE08B
:103F90000B4B1B7859430E4B19700E4B05E0084B29
:103FA0001B7859430C4B19700C4B1A7000BDC0465E
:103FB000D71B0010001C0010E81B0010EC1B0010A9
:103FC000DE1B0010051C0010EF1B0010111C001060
:103FD000141C0010F91B0010F61B0010FA1B001037
:103FE000002A11D1094B1870094B1B785943094B12
:103FF0001970094B09491A70094B1A8001230B707B
:1040000008490B70084B1A707047C046D51B00104A
:10401000DE1B0010E41B0010D41B0010121C00104B
:10402000FC1B0010E51B0010DA1B001010B500246B
:10403000084B1B78A34201D0074B1C78074B084A5A
:104040001B78D35C5C43240AE0B201F081F9054B94
:104050001C8010BDE51B0010041C0010F41B001098
:10406000159C00002C27001010B500280FD1084B1C
:104070001870084B1870084B1880084B1870084BC4
:104080001870084B1870084B1870FFF7CFFF10BD61
:10409000121C0010E41B0010FC1B0010DA1B0010A7
:1040A000041C0010101C0010E51B001010B5041EAD
:1040B00003D1FFF7D9FF014B1C7010BDD81B0010B6
:1040C00070B505000C1E12D10800FFF7EFFF0122AA
:1040D000074B1D60074B1C80074B1A70074B0832BB
:1040E0001A70074B1C70074B1C70074B1C7070BD7F
:1040F0000C1C0010DC1B0010D81B0010D71B00107C
:10410000EF1B0010141C0010F61B001010B5002847
:104110001FD1104A1378002B1BD00F4B19780029A0
:1041200017D10E4C0E48237800685B001B5A0D48CF
:10413000834201D111700CE00B4A181210700B4A27
:10414000DBB212689B009858FFF7BAFF237801335F
:10415000237010BD061C0010D81B0010D91B0010C6
:10416000081C0010FFFF0000E61B0010F01B0010F1
:1041700010B50020FFF7CAFF10BDFFFFF8B50028FB
:1041800048D1254A1378002B44D0244B1B78002BB0
:1041900040D1234C234D238828685B00195A0029FD
:1041A00012D1214B1B78002B02D0218001880BE01B
:1041B0001E4B11701878002809D00800FFF7A6FFE1
:1041C00023882A685B00995A01271F2602E0FFF71F
:1041D0004BFF1FE00A008B103A4013D08811C91220
:1041E0000A0001000F20103A52B23140184000235B
:1041F000FFF79CFE23882A6801339BB223805B0073
:10420000995AE7E73F20090A1840FFF7E9FE23889B
:1042100001332380F8BDC046D81B0010E41B0010FA
:10422000DC1B00100C1C0010F81B0010061C0010FA
:1042300010B50020FFF7A2FF10BDFFFFF7B5002863
:1042400000D0ABE0564B1B78002B00D1A6E0554BBD
:104250001878002802D1FFF707FF9FE0524C013881
:1042600018702378002B26D1504D51482B885A1CAA
:10427000504B51001B68CB5A0721194001704E4921
:10428000981208704D4899050078890E41431B0724
:1042900021704B49DB0F0B7093B24A4A2B80127886
:1042A000934208D3484B1878002802D0121A2A806B
:1042B00001E0FFF7D9FE2378013B2370434B444CC8
:1042C0001D7801356DB21D70424B1B7801933A4B3E
:1042D0001E78019B9E19404B1B78F6183F4BF6B297
:1042E00019782670002907D0280002F047FB3C4BC4
:1042F0001B7858433618267020782421243002F089
:1043000023FC002721700E000021364B364CDF576E
:10431000364B27705956002907D0280002F02EFB93
:10432000334B1B7858433F182770324B19780029BC
:1043300010D0280002F022FB2F4B184004D5022396
:1043400001385B42184301302C4B1B7858432378CB
:10435000C0182070019B3F2B0AD02278131C52B248
:10436000092A01DD092304E01A0602D5002300E032
:1043700000232370224B9A5D224B1A700C4A23783B
:1043800012785343204A12785A43204B1B885B1102
:1043900053431F4ADBB213701E4A1370F7BDC04669
:1043A000121C0010E41B0010D41B0010FC1B00109A
:1043B000E21B0010E81B0010131C0010DE1B001095
:1043C000E31B0010EC1B0010051C0010DA1B001092
:1043D000F71B0010D51B0010E61B0010141C00106A
:1043E000F91B0010D71B0010EE1B0010EF1B001074
:1043F000111C0010F61B001001000080FA1B0010B9
:10440000E19B0000ED1B0010D61B0010E01B00100C
:10441000101C0010041C001010B50020FFF70EFF48
:1044200010BDFFFF10B5021C002800DA002206496B
:1044300013B20A80054A5B111370054ADBB2D05CE7
:1044400000F046FF10BDC046E01B0010F41B00103A
:104450000D9C000010B5084B1A780132D2B2072A21
:1044600000D907221A701B78044AD05C044B1880CC
:1044700000B2FFF7D7FF10BDF41B0010059C000031
:10448000E01B001010B5074B1A78002A01D0013A42
:104490001A701B78044AD05C044B188000B2FFF7F6
:1044A000C1FF10BDF41B0010059C0000E01B0010B4
:1044B00010B5002803DBFF2802DDFF2000E000200C
:1044C000034B1880034B0020185EFFF7ABFF10BDB5
:1044D0003E010010E01B0010014B18887047C046D9
:1044E000E01B001030B58FB015001A0012AB1B781E
:1044F000052A00D900221C1C102B00D91024E4B27C
:10450000012812D10023C9B20C930B93099308938D
:10451000079306930593049302910193009301007E
:1045200003000A940395174828E0022812D10023BB
:10453000C9B20C930B9309930893079306930593C1
:10454000049301930093013302910A940395190097
:104550000D4813E0032813D10023C9B20C930B9329
:10456000099308930793069305930493019300938B
:1045700001330291190005480A94039501F040FDAA
:104580000FB030BD7C370010FC370010B83700107A
:1045900010B500F0C3FE10BD10B50248FDF7C4FC15
:1045A00010BDC046F51B0010074B10B5596A1F23FC
:1045B000CA05120F1940054B920001314900D0582D
:1045C00002F052F910BDC04600800440209C00005B
:1045D000064B186C03231840012804DD03384342BE
:1045E0005841C00300E002487047C04600800440C4
:1045F000001BB700044B10B59C68FFF7E9FF1F23B1
:1046000023400133584310BD008004400A4B10B5CD
:104610001A6F03231340022B06D0032B07D0012B64
:1046200008D1FFF7D5FF06E0FFF7BEFF03E0FFF775
:10463000E1FF00E0014810BD00800440001BB7000E
:1046400010B5FFF7E3FF024B996F02F00DF910BDB3
:10465000008004400122014B1A717047AD1D00100B
:104660000022014B1A717047AD1D00100122014B51
:104670005A717047AD1D00100022014B5A717047EE
:10468000AD1D00100122014B9A717047AD1D001045
:104690000022014B9A717047AD1D00100122014BA1
:1046A0005A707047AD1D00100022014B5A707047C0
:1046B000AD1D00100122014BDA707047AD1D0010D6
:1046C0000022014BDA707047AD1D00100022014B33
:1046D0009A707047AD1D00100022014B1A70704790
:1046E000AD1D001010B5054B9A79002A02D0FFF7D6
:1046F000B1FE01E001229A7010BDC046AD1D001050
:1047000010B5054B9A79002A02D0FFF7BBFE01E0F5
:1047100001221A7010BDC046AD1D001010B504482E
:10472000FCF77AFB0122034B1871034B5A6210BD50
:10473000B41D0010AD1D0010004000A010B50448CD
:10474000FCF76AFB0222034B5871034B5A6210BDFF
:10475000041E0010AD1D0010004000A010B504485C
:10476000FCF75AFB0422034B9871034B5A6210BDAD
:10477000181C0010AD1D0010004000A010B504482A
:10478000FCF74AFB0822034B5870034B5A6210BDDA
:104790005C1D0010AD1D0010004000A010B50448C5
:1047A000FCF73AFB1022034BD870034B5A6210BD42
:1047B000681C0010AD1D0010004000A070B50F482F
:1047C000FCF72AFB0E4CA0710E48FCF725FBA379E1
:1047D000C0B220700C4D002B0AD0002808D02B78D6
:1047E000002B01D1FFF74EFE00232370013300E0C0
:1047F000002320222B70054B5A6270BD181C00103C
:10480000AD1D0010BC1C0010AC1D0010004000A02D
:1048100070B50F48FCF700FB0E4CA0710E48FCF77A
:10482000FBFAA379C0B2A0700C4D002B0AD000286F
:1048300008D02B78002B01D1FFF70CFE0023A370CA
:10484000013300E0002340222B70054B5A6270BDFB
:10485000181C0010AD1D00100C1D0010AC1D001028
:10486000004000A010B52E4C2E492000FCF7E8FABD
:1048700020002D49FCF7D5FA2C4C2D492000FCF7DF
:10488000DFFA20002B49FCF7CCFA2B4C2B492000F7
:10489000FCF7D6FA20002A49FCF7C3FA294C2A492A
:1048A0002000FCF7CDFA20002849FCF7BAFA284C82
:1048B00028492000FCF7C4FA20002749FCF7B1FA88
:1048C000264C27492000FCF7BBFA20002549FCF7BD
:1048D000A8FA254C25492000FCF7B2FA200024490B
:1048E000FCF79FFA23490020FCF7FAFB224901203C
:1048F000FCF7F6FB21490220FCF7F2FB20490320DC
:10490000FCF7EEFB1F490420FCF7EAFB1E490520DB
:10491000FCF7E6FB1D490620FCF7E2FB10BDC04694
:10492000B41D00106146000055460000041E001032
:10493000794600006D460000181C001091460000EA
:10494000854600005C1D0010A94600009D46000041
:10495000681C0010C1460000B5460000BC1C0010D9
:10496000D9460000014700000C1D0010CD46000094
:10497000E54600001D4700003D4700005D47000080
:104980007D4700009D470000BD4700001148000022
:10499000014B18797047C046AD1D0010014B587986
:1049A0007047C046AD1D0010014B98797047C04656
:1049B000AD1D001070B52648FFF7BEF8254E2649FC
:1049C0003000FCF705FA254D254C2A002100300067
:1049D000FCF74AFC234E24493000FCF7F9F92A0081
:1049E00021003000FCF740FC204E21493000FCF74C
:1049F000EFF92A0021003000FCF736FC1D4E1E495D
:104A00003000FCF7E5F92A0021003000FCF72CFC0F
:104A10001A4E1B493000FCF7DBF92A002100300058
:104A2000FCF722FC174E18493000FCF7D1F92A0098
:104A300021003000FCF718FC144E15493000FCF73B
:104A4000C7F92A0030002100FCF70EFC70BDC046FB
:104A5000B81C0010B41D00108412010000010010E9
:104A6000790D0000041E001070080100181C0010D1
:104A7000881401005C1D0010941A0100681C0010CD
:104A80006C060100BC1C0010C43201000C1D00109B
:104A90007C0E0100A023054A05491B0699500549D3
:104AA000C0005850002199507047C046882000002F
:104AB0000700F8FF8821000070B58A23A024042293
:104AC00024069B01E2508023064D5B046351FFF7EF
:104AD000E1FF8023044A5B01A350C046C0466351F6
:104AE00070BDC046042200008422000070B58823F7
:104AF000A024042224069B01E2508023054D5B0480
:104B00006351FFF7C7FF8023034A5B01A350C046F0
:104B1000635170BD042200008422000010B5074CD0
:104B200007492000FCF760FE20000521FCF73BFE52
:104B300004492000FCF714FE10BDC046541E0010AE
:104B4000FC0402009A99993E10B504002020FFF75A
:104B5000B3FF0020FFF7CAFF2120FFF7ADFF0020C1
:104B6000FFF7C4FF2220FFF7A7FF2000FFF792FF07
:104B7000A023882204211B06920199508021074A14
:104B800049049950802106484901064C9950195111
:104B9000C046013899500028F9D110BD0422000008
:104BA000409700008422000010B52020FFF784FF0A
:104BB0000020FFF79BFF2120FFF77EFF0020FFF77B
:104BC00095FF2220FFF778FF0020FFF763FFA02367
:104BD000882204211B06920199508021074A49042A
:104BE0009950802106484901064C99501951C046F8
:104BF000013899500028F9D110BDC04604220000A8
:104C0000409700008422000070B5A0250124784E52
:104C10002D06FFF783FFAC510A20FCF75AFA754BBB
:104C20000A20EC50FCF755FAAC510A20FCF751FA77
:104C30002000FFF741FF8E204000FFF757FF0220C2
:104C4000FFF73AFF80204000FFF750FF0320FFF7F7
:104C500033FF6948FFF74AFF0820FFF72DFF674839
:104C6000FFF744FF0C20FFF727FF0020FFF73EFF70
:104C70000F20FFF721FF2000FFF738FF2020FFF76C
:104C80001BFF0020FFF732FF2120FFF715FF002058
:104C9000FFF72CFF1020FFF70FFF0020FFF726FF84
:104CA0001120FFF709FF80204001FFF71FFF0A20B6
:104CB000FCF70FFA3020FFF7FFFE0020FFF716FF8A
:104CC0003120FFF7F9FEDB20FFF710FF3220FFF75E
:104CD000F3FE0020FFF70AFF3320FFF7EDFE002070
:104CE000FFF704FF3420FFF7E7FEDB20FFF7FEFEAF
:104CF0003520FFF7E1FE0020FFF7F8FE3620FFF732
:104D0000DBFEAF20FFF7F2FE3720FFF7D5FE0020D5
:104D1000FFF7ECFE3820FFF7CFFEDB20FFF7E6FEC3
:104D20003920FFF7C9FE0020FFF7E0FE0A20FCF75C
:104D3000D0F9FF20FFF7C0FE0320FFF7D7FE502079
:104D4000FFF7BAFE2E48FFF7D1FE5120FFF7B4FE61
:104D50002C48FFF7CBFE5220FFF7AEFE2A4D052070
:104D6000FFF7C4FE5320FFF7A7FE2800FFF7BEFEA3
:104D70005420FFF7A1FE2548FFF7B8FE5520FFF7A6
:104D80009BFE234C0320FFF7B1FE5620FFF794FE55
:104D90002000FFF7ABFE5720FFF78EFE1D48FFF700
:104DA000A5FE5820FFF788FE2800FFF79FFE592038
:104DB000FFF782FE2000FFF799FEB020FFF77CFE90
:104DC0001548FFF793FEFF20FFF776FE0020FFF760
:104DD0008DFE0720FFF770FE1048FFF787FEC82002
:104DE000FCF777F92220FFF767FEFFF7DDFE70BDC5
:104DF0000422000084220000301000000808000097
:104E000003020000090A0000211000000206000051
:104E1000030700000705000001250000171000002F
:104E2000F8B584B21500DB2C25D88EB2AF2E22D86F
:104E30002020FFF741FE3000FFF758FE2120FFF74A
:104E40003BFE2000FFF752FE2220FFF735FEA02494
:104E50008823042224069B01E25080278023064EEB
:104E60005B047F01A3512800A751FFF713FE034BFA
:104E7000E750C046A751F8BD04220000842200007C
:104E8000F0B587B00CAC24880494904202DD040095
:104E900010002200994202DD0C0019002300DC28DA
:104EA0004CDCB0294ADC141CDC2A00DDDC2422B2F4
:104EB00003921A1CB02B00DDB02213B20293061C21
:104EC000002800DA002636B20C1C002900DA002483
:104ED000A02524B22D06039B9E422FDC2020FFF745
:104EE000EBFDA0B2FFF702FE2120FFF7E5FDB3B214
:104EF00018000193FFF7FAFD2220FFF7DDFD88225D
:104F000004239201AB508027802226000C4B5204D0
:104F10007F01EA50EF500593029B9E420ADA049803
:104F2000FFF7B8FD074BEF50C046059B0136EF5029
:104F300036B2F1E7019E013636B2CCE707B0F0BDDC
:104F40000422000084220000F0B5DFB0059020208C
:104F50000491FFF7B1FD0020FFF7C8FD2120FFF706
:104F6000ABFD0020FFF7C2FD2220FFF7A5FDA02426
:104F70008823042224069B01E25080239B4E5B047D
:104F80008025A35100236D01A5510393039B0022AB
:104F90005910059B59180F239C460B78049F181134
:104FA0004000C05B06AFD053674610003B40049FF3
:104FB0005B00DB5BB03006AF02323B523731B02AC8
:104FC000EBD10223DB1901930293029B884F023B32
:104FD0001888FFF75FFDE551C046A551E551C04671
:104FE000029BA5511888FFF755FDE551C046A55114
:104FF000E551C046029BA5515888FFF74BFDE5518E
:10500000C046A551E551C046029BA5519888FFF7BF
:1050100041FDE551C046A551E551C046029BA55151
:10502000D888FFF737FDE551C046A551E551C04688
:10503000029BA5511889FFF72DFDE551C046A551EA
:10504000E551C046029BA5515889FFF723FDE55164
:10505000C046A551E551C046029BA5519889FFF76E
:1050600019FDE551C046A551E551C046029BA55129
:1050700010330293B22306AA9B18029A9342A4D13A
:10508000019B023B1888FFF705FDE551C046A5517D
:10509000E551C046019BA5511888FFF7FBFCE5517F
:1050A000C046A551E551C046019BA5515888FFF760
:1050B000F1FCE551C046A551E551C046019BA55103
:1050C0009888FFF7E7FCE551C046A551E551C04679
:1050D000019BA551D888FFF7DDFCE551C046A551DD
:1050E000E551C046019BA5511889FFF7D3FCE55156
:1050F000C046A551E551C046019BA5515889FFF70F
:10510000C9FCE551C046A551E551C046019BA551DA
:105110009889FFF7BFFCE551C046A551E551C0464F
:10512000019BA55110330193B22306AA9B18019A43
:105130009342A5D132AB01930293029B1888FFF7EB
:10514000A9FCE551C046A551E551C046029BA551B9
:105150005888FFF79FFCE551C046A551E551C04670
:10516000029BA5519888FFF795FCE551C046A551D3
:10517000E551C046029BA551D888FFF78BFCE5514D
:10518000C046A551E551C046029BA5511889FFF7BD
:1051900081FCE551C046A551E551C046029BA55191
:1051A0005889FFF777FCE551C046A551E551C04647
:1051B000029BA5519889FFF76DFCE551C046A551AA
:1051C000E551C046029BA551D889FFF763FCE55124
:1051D000C046A551E551C046029BA551103302932C
:1051E000029A5EAB9342A8D104E0C04604220000BC
:1051F00084220000019B1888FFF74CFCE551C04653
:10520000A551E551C046019BA5515888FFF742FCC6
:10521000E551C046A551E551C046019BA55198886E
:10522000FFF738FCE551C046A551E551C046019B4A
:10523000A551D888FFF72EFCE551C046A551E55190
:10524000C046019BA5511889FFF724FCE551C046D3
:10525000A551E551C046019BA5515889FFF71AFC9D
:10526000E551C046A551E551C046019BA55198891D
:10527000FFF710FCE551C046A551E551C046019B22
:10528000A551D889FFF706FCE551C046A551E55167
:10529000C046019BA55110330193019A5EAB934226
:1052A000A8D1039B023303936E2B00D06EE65FB050
:1052B000F0BDC04670B504000D001822002101F0B9
:1052C000CBF929002000FBF752FD200070BDFFFF45
:1052D00010B543B28EB00C4C002B01DB207001E006
:1052E0007F2323708121094A0901684600F0E6FB0B
:1052F00022785E21684600F02CFC2478684600F095
:1053000027FC20000EB010BD48270010140A000032
:10531000014B18787047C0464827001070B5094CFB
:1053200005002368013304D1242207490748FBF70D
:10533000CDFC002D01D0E36800E0236962681A60AB
:1053400070BDC0465C1E00103C83000086830000D8
:10535000A0228021030012064905D80701D528485C
:1053600000E028481150A02280215B101206890518
:10537000D80701D5224800E022481150A022802100
:105380005B101206C905D80701D51D4800E01D486D
:105390001150A02280215B1012060906D80701D502
:1053A000174800E017481150A02280215B10120618
:1053B0004903D80701D5144800E014481150A02231
:1053C00080215B1012068903D80701D50E4800E042
:1053D0000E481150A02280215B101206C903D80785
:1053E00001D5094800E00948115080215B100904EB
:1053F000002B01D0044B00E0044BD1507047C04655
:1054000004220000842200000822000088220000FC
:1054100070B51B4C1B492000FCF7E6F920000F215A
:10542000FCF7C1F92000184C1849FCF799F9200045
:1054300000F0AAFBFFF704F90500200000F0C2FB12
:1054400008226369124913436361280001F00CFAD2
:105450001022E061636980251343636163680F3A3A
:1054600013436360C0230B4CED025B00E5500A4917
:105470001220FBF735FE256000F080FE70BDC046AF
:10548000D81E00104027020000400140CDCCCC3D8A
:105490002256000000E100E0A95500000122F8B505
:1054A000324B1A70324B1B78002B05D0314A1388CF
:1054B0000133138000F0BEFE2F4E304DB3683269C9
:1054C0002F4C9A18736A2F4F1B11D318B3602A6997
:1054D000AB689A186B6A1B11D318AB602269A3687A
:1054E0009A18636A1B11D318A3603B78264A9B0065
:1054F0009B5898473B78013B3B70B289B08AAB8997
:1055000012124243A88A1B124343510A5B0A5A18DB
:10551000A389A18A1B124B435B0A9B181B4A1C4997
:1055200012781C4C8A5C1C495343086880211B0A72
:10553000DBB25A4389004158120A4A438121120AB8
:1055400089004250154A164912780888D318154A1E
:105550005B08138023548023421C92B20A805B00B4
:105560009A4201D100230B80F8BDC0462E270010BF
:1055700079280010F63700107C370010FC37001037
:10558000B8370010440100108C040010F41B001008
:10559000159C0000121F0010D81E00108C1E001059
:1055A000101F00102C2700100222044B10B51968A0
:1055B000114202D01A60FFF771FF10BD0040014098
:1055C00010B512491248FFF775FE12491248FFF74D
:1055D00071FE12491248FFF76DFE12491248FFF79B
:1055E00069FE12491248FFF765FE12491248FFF79B
:1055F00061FE12491248FFF75DFE12491248FFF79B
:1056000059FE12491248FFF755FE10BDD03801006F
:10561000C01E0010D43A010030270010D83C010011
:10562000E01E0010DC3E0100F81E001044290200BC
:10563000741E0010482B0200901E00104C2D02001A
:10564000A81E0010502F020014270010A4220100F1
:105650005C1E0010F0B585B00600029172B64C4B8E
:10566000984202D8050B020511E04A4B1C259842CE
:105670000CD8494B013D984208D8484B013D98420F
:1056800004D8474D8542AD416D42183572045342EE
:105690005341DBB201933223424C434F2360656098
:1056A000424BA560390020009847404A3B6803926E
:1056B000002B01D0012068E0E422920296425FD0E4
:1056C000019A002A21D001933423FA212360384B18
:1056D000890018686560A56001F0C6F8324FE06087
:1056E000324B3900200098473B68002BE2D132331F
:1056F000236065602D4BA5603900200098473B680A
:10570000002BD7D1019B002B18D133232360029BA0
:10571000FA21A36080235B00E360254B89001868B1
:10572000666001F0A1F8204D2061290020001F4B88
:10573000984728680028BDD162B626E03B23236045
:10574000E023FA219B0063601A4B8900A360184B89
:10575000186801F089F8144FE060144B39002000FC
:1057600098473B68002BA5D13233236065600F4B0F
:10577000A5603900200098473B68002BC5D099E709
:10578000019B002BDAD001239DE705B0F0BDC04698
:10579000FF7F0100FF7F0300FFFF0200FF7F020089
:1057A000FFFF01004C28001060280010F11FFF1FB0
:1057B00028010010FF03000013B56B46DC1D012219
:1057C000210004F08DFD207816BD07B56B46D97118
:1057D00007330122190004F05DFD07BD024A13687A
:1057E0000A3313607047C04670280010044B054A06
:1057F00007215A6000229A601960034B1A607047B3
:1058000010E000E0FF52070070280010014B1868FC
:105810007047C0467028001010B50020FBF7AAFBA7
:105820000400FCF73DFA034B1878001900F0C8FF9C
:1058300010BDC04684050010A023802104201B0653
:1058400089015A5810B5024380205A50294A400114
:1058500099580143802099509958400401430120F0
:105860009950995801439950234924485A58024362
:105870005A5023480021FBF745FF00212148FBF740
:1058800041FF00212048FBF73DFF00211F48FBF7A7
:1058900039FF00211E48FBF735FF00211D48FBF7AB
:1058A00031FF00211C48FBF72DFF00211B48FBF7AF
:1058B00029FF00211A48FBF725FF00211948FBF7B3
:1058C00021FF00211848FBF71DFF00211748FBF7B7
:1058D00019FF00211648FBF715FF00211548FBF7BB
:1058E00011FF00211448FBF70DFF00211348FBF7BF
:1058F00009FF10BD0420000008200000F8FF070089
:105900000007020004090200080B02000C0D02004F
:10591000100F020014110200181302001C150200DF
:105920002017020024190200281B02002C1D02006F
:10593000301F020034210200382302003C250200FF
:10594000036870B504000D00013304D12422064918
:105950000648FBF7BBF96368002D01D0E26800E060
:105960002269136070BDC0463C830000868300003E
:10597000036810B50400013304D12C220549064800
:10598000FBF7A4F9636960681B681840431E9841DF
:1059900010BDC0463C8300008683000010B5012185
:1059A000FBF780FD10BD70B504002500FFF7F6FF82
:1059B0001835606BFBF782FB28000121FFF7C0FF61
:1059C00001212000FFF7BCFF606BFBF777FB002194
:1059D0002000FFF7B5FF606BFBF770FB280000218C
:1059E000FFF7AEFF606BFBF769FB70BD10B50400FD
:1059F000FFF7D4FF606BFBF761FB00212000FFF78E
:105A00009FFF606BFBF75AFB200001211830FFF766
:105A100097FF606BFBF752FB01212000FFF790FF1F
:105A200010BDF8B504000F000825FFF7B7FF606B45
:105A3000FBF744FB0121013DA9402600394020002D
:105A40001836FFF77DFF01213000FFF779FF606B0B
:105A5000FBF734FB00213000FFF772FF002DE6D189
:105A600001212000FFF76CFFF8BD70B50400250090
:105A7000FFF794FF183501212000FFF761FF012196
:105A80002800FFF75DFF00212000FBF70BFD04213C
:105A90002000FBF701FD606BFBF710FB00212800E5
:105AA000FFF74EFF2000FFF763FF0023984203D16A
:105AB000606BFBF703FB0123180070BDF8B51826D7
:105AC00004000D0017000021320000F0C5FD290080
:105AD0002000A519FBF731F932002800002100F061
