:1000000000800010FD0000006B4100006D41000009
:100010000000000000000000000000002BFCFEEFCC
:100020000000000000000000000000006F41000020
:10003000000000000000000071410000F9A700006E
:100040006941000069410000694100006941000008
:1000500069410000694100006941000069410000F8
:1000600069410000694100006941000069410000E8
:1000700069410000694100006941000069410000D8
:100080006941000069410000C5A500006941000008
:1000900069410000694100006941000069410000B8
:1000A00069410000694100006941000069410000A8
:1000B0006941000069410000694100000000000042
:1000C00038630100000100104003000038630100A4
:1000D0000000002000000000386301000040002004
:1000E00000000000400400107450000000000020D8
:1000F00000000000004000200000000010B5104C7F
:10010000104B9C4206D2A2686168206804F031F866
:100110000C34F5E70C4B9C4205D26168206804F072
:1001200031F80834F6E703F089FF084B002B02D0C2
:1001300000E000BF03E00EF037FF00F031FEFEE705
:10014000C0000000E4000000FC000000000000000F
:1001500010B5064C2378002B07D1054B002B02D09D
:10016000044800E000BF0123237010BD40040010CC
:100170000000000038630100084B10B5002B03D0CD
:100180000749084800E000BF07480368002B00D17A
:1001900010BD064B002BFBD09847F9E7000000008C
:1001A0004404001038630100400400100000000007
:1001B00010B5384B1B785BB2092B0AD10022364BA5
:1001C0009A563C235343354AD318598B0818588301
:1001D0005EE00A2B0AD100222F4B9A563C23534350
:1001E0002E4AD318998B0818988351E00B2B0AD10B
:1001F0000022294B9A563C235343284AD318D98BC3
:100200000818D88344E00C2B0AD10022224B9A56BE
:100210003C235343214AD318198C0818188437E01B
:100220000D2B10D100241C4B64221C573C235C4333
:100230001A4B52421C19E36AC1186423184801F092
:1002400025FDE06224E00E2B10D10024124B5A222F
:100250001C573C235C43114B52421C19A36AC11822
:10026000BE230F4801F012FDA06211E00F2B0FD149
:100270000024094B00221C573C235C43074B1C19EC
:100280009623A1895B000918054801F0FFFCA081B5
:1002900010BDC046760400105C040010E45000104D
:1002A00020060010F8B5012007F072F800210220A6
:1002B00006F002FEA84808F0B1F80020A74E0A2177
:1002C000305608F01FF9A64C022021780A27013188
:1002D00006F0F2FDA34808F0A1F800203056A24B2A
:1002E00078431818A14B3C25C01808F097F82178DE
:1002F00002200131490006F0DFFD9D4808F08EF82C
:100300000023F3569B4A6B43D3185B789A4A9B00B1
:10031000985808F083F803232178022001315943CB
:1003200006F0CAFD954808F079F80023F356914A83
:100330006B43D31831331B78914A9B00985808F0CF
:100340006DF8217802200131890006F0B5FD8D4855
:1003500008F064F80023F356864A6B43D31839003B
:10036000987808F0CFF8052321780220013159430D
:1003700006F0A2FD844808F051F80023F3567D4AA8
:100380006B43D3183900D87808F0BCF806232178DD
:1003900002200131594306F08FFD7C4808F03EF8F9
:1003A0000023F356734A6B43D3183433390018785B
:1003B00008F0A8F80723217802200131594306F0FC
:1003C0007BFD734808F02AF80023F356694A6B4313
:1003D000D31835331878390008F094F821780220C2
:1003E0000131C90006F068FD6A4808F017F80023DB
:1003F000F356604A6B43D3183900587908F082F8F5
:100400000923217802200131594306F055FD624845
:1004100008F004F80023F356564A6B43D318588B60
:10042000390008F06FF8217802200131794306F095
:1004300043FD5A4807F0F2FF0023F3564D4A6B4341
:10044000D3183900988B08F05DF80B23217802202F
:100450000131594306F030FD514807F0DFFF00231A
:10046000F356444A6B43D3183900D88B08F04AF846
:100470000C23217802200131594306F01DFD494823
:1004800007F0CCFF0023F3563A4A6B43D3183900E8
:10049000188C08F037F80D232178022001315943D8
:1004A00006F00AFD404807F0B9FF0023F356314A31
:1004B0006B43D3183900D86A08F010F80E2321785E
:1004C00002200131594306F0F7FC384807F0A6FF37
:1004D0000023F356274A6B43D3183900986A07F074
:1004E000FDFF0F23217802200131594306F0E4FC7F
:1004F0002F4807F093FF0023F35639005D431D4B4F
:100500005D19A88907F0FEFF217802200131090159
:1005100006F0D2FC274807F081FF11232178022042
:100520000131594306F0C8FC234807F077FF122336
:10053000217802200131594306F0BEFC1F4807F024
:100540006DFF1323217802200131594306F0B4FCDA
:100550001B4807F063FFF8BDD42F01005C040010B6
:100560005F010010DC2F0100200600104E0F00007C
:10057000E32F0100E450001004010010EA2F0100F5
:100580001C010010F52F0100FC2F010003300100B9
:100590000A30010011300100183001002130010043
:1005A00029300100333001003D3001004F3001009F
:1005B00060300100693001007930010089300100AC
:1005C0009330010010B5074B074A1978074B0131EA
:1005D0001B786E205BB25943013109B207F044FE2B
:1005E00010BDC0465F0100104F2F010076040010BF
:1005F000F8B50400584F594B594DFF183B78002B64
:1006000000D1A2E0390020000EF000FC5549200086
:100610000EF0FCFB544920000EF0F8FB534E2A78F4
:10062000310020000EF0F2FB514920000EF0EEFBED
:100630002B000B331A88310020000EF0E7FB4D49E8
:1006400020000EF0E3FB2B002B331A683100200052
:100650000EF0DCFB484920000EF0D8FB2B002733BE
:100660001A68310020000EF0D1FB444920000EF042
:10067000CDFB434920000EF0C9FB424920000EF09B
:10068000C5FB2B0030331A78310020000EF0BEFB82
:100690003D4920000EF0BAFB2A79310020000EF00F
:1006A000B5FB3A4920000EF0B1FB2B0019331A8834
:1006B000310020000EF0AAFB354920000EF0A6FB09
:1006C0002B001B331A88310020000EF09FFB3149AC
:1006D00020000EF09BFB2B001D331A8831002000F8
:1006E0000EF094FB2C4920000EF090FB2B001F33E2
:1006F0001A88310020000EF089FB284920000EF0F6
:1007000085FB6A78310020000EF080FB2449200030
:100710000EF07CFBAA78310020000EF077FB214917
:1007200020000EF073FB2B0033331A7831002000C9
:100730000EF06CFB1C4920000EF068FB2B003433DC
:100740001A78310020000EF061FB184B3C350A3757
:100750009D4200D052E7F8BD20060010580F00005F
:1007600021510010733201005B2F0100363201006D
:10077000532E01001F2F0100832F0100752F010050
:10078000A0300100D82D0100302E0100362E0100CE
:100790006E2F0100652F0100042E01004D2E010077
:1007A000472E0100E72D0100A12F0100A5540010E4
:1007B00070B5364804F0C2FFFF230024344D2B806F
:1007C000FC3B2B713D336B712D3B2B72AB7229338C
:1007D000EB812B826B1CDC772E4B6C801E78AB1C64
:1007E0000136F6B270000130C0B2D87709235E43FB
:1007F000F6B2711CCAB28018C1B28A18EB1CD97744
:10080000D3B22A1DD377F318DBB2591C6A1DD177F6
:100810000333AA1DD377EB1DDC771F4B1E22E8188C
:100820002100AC71EC716C72EC722C736C612C76E3
:100830006C76AC76EC76EC610EF07FFD2222174BE5
:10084000EC54174BEC54174BEC54174BEA54174B22
:10085000213AEA54164B174AEC54174BEC54130048
:10086000AF320A33FF321C705C709C70DC701C71FC
:100870005C719C71DC711C725C729C729C81DC816D
:100880001C821C339342EED170BDC0465D04001043
:10089000200600105C010010270F0000450F00002B
:1008A000460F0000470F00004C0F00004D0F0000E6
:1008B000E40F000078040010E50F0000F0B5B84D1B
:1008C000B84C2978A544012004F022FC2C00061E17
:1008D0000AD00021B44C1323615600220139B348D9
:1008E00001F0D4F9207044E004F072FC002807D035
:1008F0002978300004F00CFC002801D00A2029E0FF
:1009000004F066FC002805D02178022004F000FCE9
:1009100000280BD104F062FC00281DD021780020B3
:1009200004F0F6FB002817D0642013E00A201EE034
:10093000022A31D100249E4B00221C573C235C43E9
:100940009C4B9A481C1961780523013901F09EF9E6
:100950006070012040420AE004F040FC00280AD008
:100960002178022004F0D4FB002804D06420FFF793
:100970001FFC0124C9E12178002004F0C9FB051EF9
:100980006CD00022884B9A56002AD1D10021884C85
:100990000F23615601390DE0032A10D10024844B46
:1009A0001C573C235C43834B1C190F2331342178A3
:1009B000013900227D4801F069F92070C9E7042A55
:1009C0000FD100247A4B00221C573C235C43794B07
:1009D00076481C19A1780123013901F057F9A0705C
:1009E000B7E7052A0FD10024714B00221C573C2386
:1009F0005C43704B6D481C19E1780123013901F00B
:100A000045F9E070A5E7062A08D10024684B1C5779
:100A10003C235C43674B1C19343409E0072A0BD193
:100A20000024634B1C573C235C43624B1C19353438
:100A3000217801230139BCE7082A8AD100245C4BC4
:100A400000221C573C235C435A4B58481C196179BF
:100A50000123013901F01AF960717AE72178022047
:100A600004F056FB041E00D17FE000224E4B9A5644
:100A7000002A05D100214E4C0F23615601311FE0A1
:100A8000022A0FD100244A4B2A001C573C235C4306
:100A9000484B46481C1961780523013101F0F6F8EE
:100AA000607060E0032A10D10024414B1C573C23A6
:100AB0005C43404B1C190F233134217801312A004B
:100AC0003A4801F0E3F820704DE0042A0FD10024E9
:100AD000374B2A001C573C235C43364B33481C19C8
:100AE000A1780123013101F0D1F8A0703BE0052A83
:100AF0000FD100242E4B2A001C573C235C432D4B66
:100B00002A481C19E1780123013101F0BFF8E07097
:100B100029E0062A08D10024254B1C573C235C43BE
:100B2000244B1C19343409E0072A0BD10024204B34
:100B30001C573C235C431F4B1C193534217801237F
:100B40000131BCE7082A0ED10024194B00221C57A2
:100B50003C235C43174B15481C1961790123013173
:100B600001F094F86071012001E7042004F0BCFA60
:100B7000002800D1BAE0002000260D4B0B4D18567E
:100B80000D4B2F00E854084B9E57012E18D10A2117
:100B900048430A4B2818C01805F0E4FD3400B4E0BF
:100BA0001C060010FCFCFFFF76040010200600105D
:100BB0005C040010E45000104D0F00004E0F0000C8
:100BC000122E7DD1534B8122049301235B42029369
:100BD000514B03940193514B520100935049514B97
:100BE00007A80CF0DDFB504B1A780134E4B22E2A32
:100BF00002D00133082CF7D10021013C4B4BE4B269
:100C0000621C1C196176D4B21E000E2CF8D100248F
:100C10000821454805F0A6FD2300F218557E013451
:100C2000E4B2002DF8D1012CF2D92E215176722296
:100C3000341962769A1CD2B2B218343151765C1DE6
:100C4000DA1C0433D2B2DBB2B2181131F318517688
:100C50005D76374B3000B36204F07CFC354BE4B278
:100C60001800AC4204DD7219527E5A550135F7E77F
:100C70000D33421E1978013B59719342FAD1732208
:100C80002F2342702C490F3A03708270C3700EF00C
:100C9000B3F80500041E0AD00100380001F0BCF9C9
:100CA0002800FFF7A5FC28000DF0F6FE0124234BD9
:100CB000A8A8079302F06AFE07A80CF04FFB24E0F7
:100CC000132E0FD11E4805F049FB03780600002BB8
:100CD00001D1002419E015F050F93100280001F08D
:100CE00023F812E0280000F0F5F90EE0062004F0E9
:100CF000FBF90028EDD0134A1378002BE9D1012429
:100D0000114914700B7011490B702000C1239B0016
:100D10009D44F0BD40420F00A33001001C0E0000B6
:100D200024120000180C0000251600100C160010EC
:100D30004E61BC005E040010A6300100DC590100C9
:100D4000A93001005D0100100816001076040010A3
:100D500010B5062004F0D2F9002802D000220C4B76
:100D60001A700C4B0320197804F0D2F900280BD02C
:100D70000021094C1323615600220131074800F07D
:100D800085FF2070012001E0FFF798FD10BDC046EF
:100D90005D0100101C0600107604001020060010F3
:100DA0000123F0B5604A614D614E85B06149137011
:100DB00033702C222B00280004F03EFC05F0BAF919
:100DC00015F0DBF85C4C200000F0F6F9200000F094
:100DD00049F95A4BAA6A03969A421FD10025B026B8
:100DE00005F036F9002813D000220096DC2311000C
:100DF000100005F06DFA0028F2D00221504805F0ED
:100E0000D3FB002800D085E0642009F013FD012504
:100E1000002D03D04B49200000F086FF4A4B4B4881
:100E20001A784B4B01251A704A4BB0271A784A4B57
:100E30001A7006F0D1FE494B187805F069FE05F0EE
:100E400007F900286ED0464E3378002B1AD00322C3
:100E5000039B01201A7000220097DC23110005F08B
:100E600037FA00280ED0FFF773FF200000F0D4F807
:100E700006F006FAFFF716FAFFF7A4FB200000F0D1
:100E8000CFFA01253378002B3AD10122039B1A7047
:100E9000344BE35C002B05D0200000F0C1FE00289D
:100EA00000D0012500220097DC231100012005F06D
:100EB0000FFA002805D0200001F00EFA002800D01B
:100EC00001253378002B1BD1002D01D10025B6E779
:100ED000200000F0A1F806F0D3F9200000F018FB84
:100EE000200000F095F9200000F02EFB200000F01B
:100EF00081FD200000F00CFA200000F091FA01E0E2
:100F0000002DE3D000220097DC231100100006F032
:100F10000BFADBE7012800D062E7642009F08AFCC5
:100F2000002575E705B0F0BD404000100C1600101C
:100F30001C060010AD300100200600104E61BC0000
:100F4000B83001002516001061010010983C010026
:100F50008C01001060010010900100105E01001073
:100F600008160010E40F0000002210B5214B9A561D
:100F7000214B0276C35C002B10D1033353431F492E
:100F8000C3185B181B781E4C5BB29BB29B01C11847
:100F90002731A1621B49C3185B1863631A4BC35CFA
:100FA000002B10D1033353431849C3185B181B7827
:100FB000134C5BB29BB29B01C1182731E16211490E
:100FC000C3185B18A363124BC35C002B10D103330F
:100FD0005A43104B8218D2180023D35608499BB2AB
:100FE0009B01C218C018074B2732C0180A63C86398
:100FF00010BDC046DC4F0010450F0000270F000059
:101000009C500010A7070000460F0000280F0000AA
:10101000470F0000290F0000C06910B503281CD835
:101020000E4B10F065F90C0213071C68F5222E21F7
:10103000B0200FE01C6881222E2112200AE0084A0D
:101040001278002A02D11B681A8006E0642211007F
:1010500010001C6807F082FA208010BD4440001088
:1010600008160010F7B5020000277F24A032019275
:1010700001263A00A4461449144B0024144D651966
:10108000451901342F700A2CF8D10C0065460B3439
:101090000E7025801C0012342260083C22606260C1
:1010A00032249A75DA750E715C80019C0A301A80C0
:1010B0009A80DA804A708A709A76DA763C313C33CC
:1010C000A042DAD1F7BDC046E5500010FE50001036
:1010D0004E0F0000F0B5324B99B01790C2563C232A
:1010E0005343304A179CD118C8788B7810904879B0
:1010F0000F9311902C484A78205C2823CD5E1290E3
:1011000088890C8C1390488B2C23CE5E1490888B8E
:101110001590C88B169008003531097831308C460F
:10112000179907788979033049B20078002918D1D6
:1011300061460C9116990B90069115990A970591A5
:10114000149909960491139908950391129907949B
:10115000029111990F9B019110991448009101215E
:101160001AE063460C93169B0B900693159B0A9707
:101170000593149B09960493139B08950393129B64
:1011800007940293119B0A480193109B00930F9BB5
:10119000012901D0012107480DF044F919B0F0BD33
:1011A0004D0F0000E45000104C0F0000E04F001005
:1011B000605000101C500010F022F0B50300002514
:1011C000FF26D2008418002299180F0027373D709F
:1011D0000B4F0132C9190E70402AF5D140339C42A1
:1011E000F1D10022012382760F32C2762D32C281E4
:1011F000044A43761370044A1370044A1370F0BD16
:10120000A70700009C0100109B010010990100102D
:10121000F8B50400032006F0BBF8344DA71CE61C0B
:101220002A78F87F002106F02BFAF07F2A78002137
:1012300006F026FA231DD87F2A78002106F020FA2E
:101240002A78651DE87F002106F01AFA284BEA7F0C
:1012500019780020013106F020FA012006F098F8F4
:10126000F87F0021013005F027FE224807F0D6F86C
:10127000182303250020E3561F4A6B43E3189B18ED
:1012800018560A2107F03EF91C4F380007F0C6F83F
:10129000F07F0021013005F00FFE194807F0BEF87D
:1012A00018230020E356174A6B43E3189B1818567F
:1012B0000A2107F027F9380007F0B0F8231DD87F7E
:1012C0000021013005F0F8FD0F4807F0A7F81823BA
:1012D0000020E3560A215D430C4B6419E4182056A4
:1012E00007F010F9380007F099F8F8BD6001001018
:1012F0005F010010C0300100270F0000F23901002B
:10130000C8300100280F0000D0300100290F000074
:1013100070B50400022006F03BF8E369002B14D1FD
:101320003D4B3E4A19781278481C09214A430B214B
:10133000615603B201314143062020560A3220187B
:10134000023009B2C07F06F0A5FAE369012B36D15D
:101350001F23651CEB56002B14D12F4B2F4A1978F5
:101360001278481C03214A430B21615603B2013114
:1013700041430620205605322018023009B2C07FB2
:1013800006F088FA1F23EB56012B18D10B25224BB0
:1013900065571978013588B20131694306256557CB
:1013A000431C65190235EE7F03251C4A68431278F9
:1013B00001305200053209B2301806F06BFAE369C9
:1013C000022B14D1144B154A19781278481C0621A7
:1013D0004A43611CC97F03B249B24900013141430C
:1013E000601DC07F073209B2013006F053FAE3698D
:1013F000032B10D1A31CD87F074B621D1978D27F15
:101400004D1C0B216156121A013169432BB209B2EE
:1014100000B206F03FFA70BD5F0100105C010010E1
:10142000F8B50500032005F0B3FF294C294B2178BE
:101430001A78294E07390A23013209B20020378869
:1014400006F024FA0321002005F0AAFF234806F045
:10145000C3FBEB69002B0BD1214B21781B7806399C
:10146000C9B2204A002B00D01F4A022006F0F2FF2A
:10147000EB69012B06D121781C4A0639C9B202203A
:1014800006F0E8FFE869022805D12178184A0639F4
:10149000C9B206F0DFFFEB69032B14D1154B21789D
:1014A0001A78154B0639EB5CC9B2002A04D0134AEE
:1014B000002B05D0124A03E0124A002B00D0124A3A
:1014C000022006F0C7FF1148378006F085FBF8BD03
:1014D00060010010610100104C400010943A0100BE
:1014E00008160010D8300100003101000F31010052
:1014F0002D310100DD4F0010E40F00003E310100EE
:101500006131010085310100AA310100983C0100E0
:1015100010B5084B084AC35C002B05D1074B084A9D
:10152000C35C002B00D1074A0121022006F09CFE7B
:1015300010BDC046E50F0000AC2F0100E40F000015
:101540003C2F0100302F0100F7B5437A04001D0045
:1015500003270193019BEE1A0A23E356F6B29D423C
:1015600000DD3BE2CD4B02201B78002B03D0032093
:101570003D4200D0012005F00BFF731C0093C84BC7
:1015800000201978731C01315943013109B205F06B
:1015900093FC092020560A21801906F0B3FFC04BA6
:1015A0001978009B01315943A31CD87F01310230C7
:1015B00009B205F081FC18230020E356B94A7B43A9
:1015C000E3189B181B78B84A5BB29B01E3185B19C0
:1015D0009B181856431C03D1B44806F01FFF39E08E
:1015E0000C210FF0FFFFB24E49B24900885D002187
:1015F00006F084FF18230020E356AA4A7B43E31831
:101600009B181B78A84A5BB29B01E3185B199B18D7
:1016100018560C210FF0E6FF49B249007618707891
:10162000002106F06BFF18230020E3569D4A7B4300
:10163000E3189B181B789C4A5BB29B01E3185B196B
:101640009B180C2118560FF0E7FE40B201300A211A
:1016500006F058FF974E300006F0E0FE1823E356E0
:10166000904A7B43E3189B181B785BB29B01E318FD
:101670005B190833DB7F5BB25A1C03D18E4806F03E
:10168000CDFE15E0092B02DC8C4806F0C7FE1823BE
:101690001F20E356834A7B43E3189B181B780A21DB
:1016A0005BB29B01E3185B190833185606F02AFF5A
:1016B000300006F0B3FE18230020E356794A7B433E
:1016C000E3189B181B78784A5BB29B01E3185B19FF
:1016D0009B181856431C03D1774806F09FFE02E082
:1016E0000A2106F00FFF764B02201B78002B03D057
:1016F00003203D4200D0012005F04AFE684B1978D6
:10170000009B01315943E31CD87F0131023009B2FB
:1017100005F0D2FB18230020E3566A4A7B43E31806
:101720009B181B78604A5BB29B01E3185B199B18FE
:101730001856431C03D15D4806F070FE39E00C21B9
:101740000FF050FF5A4E49B24900885D002106F063
:10175000D5FE18230020E3565A4A7B43E3189B1812
:101760001B78514A5BB29B01E3185B199B18185612
:101770000C210FF037FF49B249007618707800212C
:1017800006F0BCFE18230020E3564E4A7B43E318C4
:101790009B181B78444A5BB29B01E3185B199B18AA
:1017A0000C2118560FF038FE40B201300A2106F025
:1017B000A9FE404E300006F031FE1823E356414AA0
:1017C0007B43E3189B181B785BB29B01E3185B1902
:1017D0000833DB7F5BB25A1C03D1374806F01EFE8C
:1017E00015E0092B02DC354806F018FE18231F20EF
:1017F000E356344A7B43E3189B181B780A215BB2FB
:101800009B01E3185B190833185606F07BFE300085
:1018100006F004FE18230020E3562A4A7B43E3180F
:101820009B181B78204A5BB29B01E3185B199B183D
:101830001856431C03D1204806F0F0FD02E00A21AF
:1018400006F060FE204B02201B78002B03D0032003
:101850003D4200D0012005F09BFD114B1978009B03
:1018600001315943231DD87F0131023009B205F0FF
:1018700023FB18230020E356144A7B43E3189B18EC
:101880001B78094A5BB29B01E3185B199B18185639
:10189000431C1DD1054806F0C1FD54E09C01001019
:1018A0005F010010270F0000A7070000D0310100E2
:1018B0005B2E0100334A0100D1310100275801009D
:1018C0009B010010280F000099010010290F000053
:1018D0000C210FF087FE424B49B24900C85C002141
:1018E00006F00CFE18230020E3563E4A7B43E31823
:1018F0009B181B783C4A5BB29B01E3185B199B1851
:1019000018560C210FF06EFE354B49B249005B189A
:101910005878002106F0F2FD18230020E356314AE2
:101920007B43E3189B181B782F4A5BB29B01E3189B
:101930005B199B180C2118560FF06EFD40B2013058
:101940000A2106F0DFFD300006F068FD1823E3569B
:10195000244A7B43E3189B181B785BB29B01E31876
:101960005B190833DB7F5BB25A1C03D11F4806F0BA
:1019700055FD15E0092B02DC1D4806F04FFD18232C
:101980001F20E356174A7B43E3189B181B780A2154
:101990005BB29B01E3185B190833185606F0B2FDE1
:1019A000300006F03BFD18230020E3560D4A7B4330
:1019B000E3189B181B780C4A5BB29B01E3185B1978
:1019C0009B181856431C03D1084806F027FD02E077
:1019D0000A2106F097FD0135EDB2BBE5F7BDC04623
:1019E0005B2E0100290F0000A7070000D131010084
:1019F00027580100F8B506000120B41D05F0C8FC09
:101A0000E07F012105F058FA744806F007FD744D97
:101A1000E07F29780A27023105F04EFA0E23F05EA6
:101A20000A2106F06FFD2978E07F4900033105F0B7
:101A300043FA6C4806F0F2FC03232978E07F59430F
:101A4000043105F039FA18200A21305606F05AFD03
:101A50002978E07F8900053105F02EFA624806F00A
:101A6000DDFC05212B78E07F5943063105F024FA8F
:101A700019200A21305606F045FD06212B78E07F1B
:101A80005943073105F018FA584806F0C7FC0721FA
:101A90002B78E07F5943083105F00EFA1A200A210D
:101AA000305606F02FFD2978E07FC900093105F096
:101AB00003FA4F4806F0B2FC09212B78E07F594326
:101AC0000A3105F0F9F9182303220020F3560A2100
:101AD0005343484AF3189B18185606F013FD29780B
:101AE000E07F79430B3105F0E7F9434806F096FCB7
:101AF0000B212B78E07F59430C3105F0DDF91823D9
:101B000003220020F356390053433C4AF3189B1834
:101B1000185606F0F7FC0C212B78E07F59430D3165
:101B200005F0CAF9364806F079FC0D212B78E07FE4
:101B300059430E3105F0C0F9182303220020F35653
:101B400039005343F6182F4BF618305606F0DAFCDE
:101B50000E212B78E07F59430F3105F0ADF92A486B
:101B600006F05CFC0F2101262B78E07F59431031F1
:101B700005F0A2F9254B39001878704006F0C2FC38
:101B80002978E07F0901113105F096F9204806F027
:101B900045FC11212B78E07F5943123105F08CF977
:101BA0001C4B39001878704006F0ACFC12212B78E1
:101BB000E07F5943133105F07FF9174806F02EFCFA
:101BC00013212B78E07F5943143105F075F9134B3D
:101BD00039001878704006F095FCF8BDD43101004A
:101BE0005F010010DA310100E1310100E83101004C
:101BF000EF310100270F0000F6310100280F00002F
:101C0000FD310100290F0000043201009C01001089
:101C10000B3201009B0100101232010099010010EB
:101C200010B5184A1849127804880988030002760A
:101C300000208C4225D008205C8892B21856D971B9
:101C4000944205D05A8000229872DA715A72DA7280
:101C500007229A560A2A0ADDD2B214000B3C2B2C1A
:101C600007D80932D2B2101A9A720A225872DA725E
:101C700005E02C3ADA722C225A7213329A72012041
:101C8000198010BDDC4F0010585000101800914210
:101C900003DB1300814200DC0B0018007047FFFFDC
:101CA0000123F0B587B01A00303A0C00092A06D992
:101CB00001314B1E1B78002BF5D118002FE08A1E36
:101CC00000211278019203AA1D00303D092D09D888
:101CD00001314D1E01345355631E1B78002B01D07A
:101CE0000A29F1D100260A2501273200AC46013E1F
:101CF000F543A94208DD03AD6D18AD5D303D7D4370
:101D0000521965466F43F2E701992D2900D15242DD
:101D10000449002B01D1435000E04450100007B0AB
:101D2000F0BDC046480F0000F0B50C009DB00700A4
:101D30000221200004F0D8FF03000120002B00D076
:101D400051E1AA48E15CC218013351760E2BF9D15A
:101D5000A74B0326836203F0FDFB502108A805F082
:101D600031F8502108A805F02DF8502108A805F0F9
:101D700029F808A93800FFF793FF5021F88108A837
:101D800005F020F808A93800FFF78AFF994C78760B
:101D9000E071502108A805F015F808A93800FFF7F0
:101DA0007FFF40B22072B876502108A805F00AF8EB
:101DB00008A93800FFF774FF0024F876029419236D
:101DC000FB569C421FDC502108A804F0FBFF08A929
:101DD0003800FFF765FF3300002563430393864B0C
:101DE0003800F958FFF75CFF029B984201DDC3B24F
:101DF0000293039B814AEB189B180135F854032D7D
:101E0000EDD10134DBE700257D4BFE18B023002225
:101E1000009311002C33100004F05AFA00280DD062
:101E20000021080005F048F8764806F003FB28007A
:101E30000A2106F067FB744806F0F0FA3400403CD3
:101E4000502108A804F0BEFF029BAB4206DAFF2334
:101E5000002223706D4BE3181A7016E008A93800B1
:101E6000FFF71EFF644B3800F958FFF719FF624B6C
:101E70003800F958FFF714FF5F4B2070F95838000D
:101E8000FFF70EFF614BE31818700134A642D7D15B
:101E9000013540361E2DB9D101265D4B5D4CFD1834
:101EA0001B23FB563C349E4200DD99E00A2105A825
:101EB00004F088FF05A928000EF052F8502108A868
:101EC00004F080FF08A93800FFF7EAFE5021607097
:101ED00008A804F077FF08A93800FFF7E1FE5021B9
:101EE000A08108A804F06EFF08A93800FFF7D8FE0B
:101EF0005021E06208A804F065FF08A93800FFF748
:101F0000CFFE5021A06208A804F05CFF08A93800A9
:101F1000FFF7C6FE230030331870502108A804F0E4
:101F200051FF08A93800FFF7BBFE230031331870BA
:101F3000502108A804F046FF08A93800FFF7B0FEBA
:101F40005021607108A804F03DFF08A93800FFF790
:101F5000A7FE5021608308A804F034FF08A93800C8
:101F6000FFF79EFE5021A08308A804F02BFF08A9CC
:101F70003800FFF795FE5021E08308A804F022FF07
:101F800008A93800FFF78CFE5021208408A804F02F
:101F900019FF08A93800FFF783FE5021A07008A898
:101FA00004F010FF08A93800FFF77AFE5021E07016
:101FB00008A804F007FF08A93800FFF771FE230006
:101FC00034331870502108A804F0FCFE08A938002A
:101FD000FFF766FE23003533187001360A355FE7D8
:101FE00004F0A8FE00201DB0F0BDC0460C16001085
:101FF0004E61BC009C500010480F0000270F0000ED
:10200000E7070000193201002432010080F8FFFFC9
:10201000580F0000E4500010F0B50C00060085B029
:10202000554920000CF0F2FE544920000CF0EEFE61
:10203000534D200029000CF0E9FE524920000CF01D
:10204000E5FE514F0E23F25E390020000CF0DEFE5B
:10205000290020000CF0DAFE4C4920000CF0D6FEDE
:1020600019223900B25620000CF0D0FE29002000C1
:102070000CF0CCFE464920000CF0C8FE1A223900B4
:10208000B25620000CF0C2FE290020000CF0BEFE6B
:10209000404920000CF0BAFE39000F2220000CF05D
:1020A000B5FE290020000CF0B1FE002503970327A0
:1020B0001923F356AB421FDB374920000CF0A6FE74
:1020C0002A00364920000CF0A1FE3900694334484B
:1020D000344B354A7118CB188A18091809781B78BF
:1020E000127849B200915BB252B2304920000135FA
:1020F0000CF08CFEEDB2DBE700252D4BF3180293BC
:102100000026029F2B4920000CF080FE2A00039934
:1021100020000CF07BFE284920000CF077FE3200F6
:102120001E4920000CF072FE0022BA56531C04D146
:10213000224920000CF06AFE03E0214920000CF047
:1021400065FE00221F4BFB189A56531C04D11E49F2
:1021500020000CF05BFE03E01C4920000CF056FE52
:1021600001360137402ECDD1029B01354033029319
:102170001E2DC5D105B0F0BD132E01003E2E01006D
:10218000733201002B2E010028320100932F010031
:10219000FB2D0100F22D01000F2F01002B32010059
:1021A000290F0000280F0000270F00003032010027
:1021B000A7070000482F01000D2E01003A32010050
:1021C0003F32010080F8FFFF27580100363201003E
:1021D00030B505008FB00E23C05E10F095F8011CDD
:1021E00030480FF00BFC30490FF0D2FDF621890585
:1021F0000FF0CEFD0FF074FA00242C4B80B2188043
:102200002B4B82011A602B4B21001C802A7E2A4B0B
:102210001A700322294B1880294B1A7023002200C0
:102220000C940B940A9409940894079406940594CA
:102230000494039402940194009422480CF0F2F860
:102240002300220021000C940B940A940994089412
:1022500007940694059404940394029401940094C2
:1022600019480CF0DFF82300220021000C940B9495
:102270000A9409940894079406940594049403948A
:1022800002940194009411480CF0CCF82800FEF759
:102290006BFE0F480CF0BEFA01220E4B1A700FB005
:1022A00030BDC0460000704200442C47E050001092
:1022B000DC50001058500010DC4F00105A50001035
:1022C00098010010E04F0010605000101C500010EA
:1022D000690F0000DD4F0010F0B5C76991B0040030
:1022E000002F00D0EFE0C44D3800297802F010FF35
:1022F0003E0000280CD006222379A256013B013A69
:1023000004D49A4201DC130000E03B000126A371D3
:102310002978022002F0FCFE00280CD00622237946
:10232000A256013B013204D49A4201DC130000E0C2
:1023300000230126A3712978012002F0E9FE00287C
:1023400027D00B20E37920566179013B421E52B21F
:102350004E1E5BB2E2723700002B04DBB34201DC9D
:102360001E0000E000260923E671E356D2189342CE
:1023700005DD013B6372A37AE072013BA372637ACD
:1023800001267F2B05D9237AA772C91A013B6172F6
:10239000E3722978032002F0BBFE002827D00B202F
:1023A000E37920560133421C617952B25BB2E2728A
:1023B0004E1E002B04DBB34201DC1E0000E00026B1
:1023C000E67109260A23A657E35692199A4204DDBC
:1023D000013601336672A372E0720A23E3560126C6
:1023E000994204DC0023227A6372A272E372042011
:1023F00002F07AFE002801D00126E661062002F0F4
:1024000073FE002802D003230126E361297805200A
:102410000131C9B202F07CFE051E01D100F0BAFC08
:102420001821032306226156A2564B43E3189B183A
:10243000724A00269B1800229A5607239201E356FF
:10244000A418FF22E4186E4B3100E31808341A7008
:102450006C48E677330032000B960A960996089688
:1024600007960696059604960396029601960096A0
:102470000C960BF0D7FF3300320031000C960B9610
:102480000A96099608960796069605960496039668
:102490000296019600965C480BF0C4FF0C960B96D2
:1024A0000A96099608960796069605960496039648
:1024B00002960196009633003200310053480BF02B
:1024C000B1FF00F068FC012F00D027E1052002F0E9
:1024D0000BFE0026B04203D0631CE661DE773E00AF
:1024E000002002F001FE00280BD01F23621CD356EF
:1024F000013B03D4012B02DD002300E00123012670
:10250000D377022002F0F0FD00280BD01F23621CBD
:10251000D356013303D4012B02DD002300E0012355
:102520000126D377344D0120297802F0F1FD0F9573
:10253000002800D17CE01F25631C5D57002D32D19F
:102540001821032306226156A2564B430021E318AB
:102550009B182A4A2E4F9B1807225956284BA256E1
:102560009C46890160188018844463461B785BB2DE
:102570005E1C07D16246E35D08301370254BE35CB7
:10258000C37751E0013303D4632B02DD2B0000E05D
:10259000632361188A181A495BB251180B7008320C
:1025A000E355D37F3EE0012D3FD1182103230622BE
:1025B0006156A2564B43E3189B1800210F4A002591
:1025C0009B1807225956A25689010D4863189B187B
:1025D0001B185D570E486E1C02D1205C187000E07D
:1025E000255463189B180833DB7F5BB2013313D487
:1025F0000E2B12DD002310E01C060010270F000038
:10260000A7070000E04F0010605000101C500010A1
:102610004C0F00004D0F00000E2361188A185BB2AA
:102620000832D377BA4AA35401262000FEF752FDA0
:102630000F9B0320197802F06BFD051E00D1A9E362
:102640001F26631C9E57002E33D118210323062218
:102650006156A2564B430021E3189B18AD4A9B18C4
:1026600007225956AC4BA2569C4689016018801827
:10267000844463461B785BB25F1C08D16246A74B5B
:102680000830E35C1370A24BE35CC37742E0013B8C
:1026900003D4632B02DD330000E0632361188A1842
:1026A0009D495BB251180B709C4908326354D37F2B
:1026B0002EE0012E2ED11821032306226156A256A8
:1026C0004B43E3189B180021924A00269B180722CF
:1026D0005956A2568901904863189B181B189E579B
:1026E0008E48771C02D1205C187000E026546318D5
:1026F0009B180833DB7F5BB2013B03D40E2B02DD5A
:10270000002300E00E2361188A185BB20832D377E9
:102710007F4AA3542000FEF7DDFC3CE3022F00D0EB
:1027200020E2062002F0E0FC051E07D001227C4BCF
:102730001A700023E361A418E3772CE3012002F070
:10274000D3FC2E0000280BD01F23621CD356013B64
:1027500003D4092B02DD2B0000E009230126D377E7
:10276000032002F0C1FC00280BD01F23621CD356AB
:10277000013303D4092B02DD002300E009230126E5
:10278000D377684D0020297802F0C2FC002800D1E0
:10279000F5E0631CDB7F5BB2002B11D10E23E15E01
:1027A000962301395B00002903DD994202DD0121F6
:1027B00000E01900E1815C480EF02EFE20826CE002
:1027C000012B0AD11823E356013B03D4092B02DD68
:1027D000002300E0092323765FE0022B0AD11923AE
:1027E000E356013B03D4092B02DD002300E009235B
:1027F000637652E0032B0AD11A23E356013B03D43C
:10280000092B02DD002300E00923A37645E0042B19
:1028100014D11821013B1A0061563E484A43A218C0
:102820001218127852B2013A03D41D2A02DD002296
:1028300000E01D224B433749E3182CE0052B14D14F
:102840001821023B1A00615638484A43A218121850
:10285000127852B2013A03D41D2A02DD002200E0B0
:102860001D224B433149E31815E0062B17D11821DF
:10287000033B1A0061562E484A43A21812181278D8
:1028800052B2013A03D41D2A02DD002200E01D22CB
:102890004B432749E3185B181A7001266FE0072B9A
:1028A00017D1244B01261A78002A67D0002122482C
:1028B00019700A000C910B910A91099108910791E6
:1028C00006910591049103910291019100910B00F1
:1028D00017E0082B36D1194B1A78002A14D00021A2
:1028E00019700A000B0016480C910B910A9109917E
:1028F000089107910691059104910391029101912C
:1029000000910BF08FFDC8E701221A70160036E027
:102910004D0F0000270F0000A70700004C0F00001C
:10292000081600101C060010983A0000280F00003E
:10293000290F00009C010010E04F00109B010010C7
:10294000605000100126092B19D17C4B1A78002AFF
:1029500014D000217A4819700A000C910B910A9149
:1029600009910891079106910591049103910291B3
:10297000019100910B000BF055FD00E01E702978CD
:10298000022002F0C5FB051E00D103E2631CDB7FC1
:102990005BB2002B11D10E23E15E962301315B0067
:1029A000002903DD994202DD012100E01900E181E7
:1029B00064480EF031FD2082EDE1012B0AD118238D
:1029C000E356013303D4092B02DD002300E0092381
:1029D0002376E0E1022B0AD11923E356013303D415
:1029E000092B02DD002300E009236376D3E1032BEA
:1029F0000AD11A23E356013303D4092B02DD002345
:102A000000E00923A376C6E1042B14D11821013B71
:102A10001A0061564C484A43A2181218127852B252
:102A2000013203D41D2A02DD002200E01D224B43A7
:102A3000E418454B2CE0052B14D11821023B1A0059
:102A4000615642484A43A2181218127852B2013213
:102A500003D41D2A02DD002200E01D224B43E418AE
:102A60003A4B15E0062B16D11821033B1A0061568C
:102A700037484A43A2181218127852B2013203D4CE
:102A80001D2A02DD002200E01D224B43E418304BDA
:102A9000E41822707FE1072B16D12E4B1C78002CF6
:102AA00048D000212C4819700A000C910B910A9112
:102AB0000991089107910691059104910391029162
:102AC000019100910B0031E0082B16D1234B1C78AB
:102AD000002C2FD00021224819700A000C910B9174
:102AE0000A9109910891079106910591049103912A
:102AF0000291019100910B0018E0092B00D04AE1EE
:102B00000E4B1C78002C15D0002119700A000B0008
:102B10000B480C910B910A9109910891079106912C
:102B20000591049103910291019100910BF07AFCBF
:102B3000250030E101221A702DE1C04699010010F4
:102B40001C500010983A0000270F0000280F0000CA
:102B5000290F00009C010010E04F00109B010010A5
:102B6000605000100025032F00D014E1042002F073
:102B7000BBFA2E00A84213D0884B894AE554A35CC7
:102B800001367340A354AB420AD007F04DFE237ABE
:102B90006061E571E5726572A3722000FFF718FBB2
:102BA000002002F0A1FA002817D001217D4A7E48BA
:102BB00013784B40002113700C910B910A910991ED
:102BC0000891079106910591049103910291019159
:102BD00000910B000A000BF025FC012002F084FAA2
:102BE000002817D00121714A714813784B40002109
:102BF00013700C910B910A9109910891079106911C
:102C00000591049103910291019100910B000A003A
:102C10000BF008FC022002F067FA002817D001210F
:102C2000644A654813784B40002113700C910B9156
:102C30000A910991089107910691059104910391D8
:102C40000291019100910B000A000BF0EBFB0320B5
:102C500002F04AFA002806D00123564A1370534A5C
:102C60001370504A1370052002F03EFA00284BD032
:102C7000524B1A781E00002A00D1E26100254A4812
:102C80002B002A0029000C950B950A9509950895AB
:102C90000795069505950495039502950195009570
:102CA0000BF0C0FB2B002A00290041480C950B9526
:102CB0000A95099508950795069505950495039538
:102CC0000295019500950BF0ADFB2B000C950B9533
:102CD0000A95099508950795069505950495039518
:102CE0000295019500952A00290033480BF09AFBC4
:102CF00035700126294BE654294BE554237A257675
:102D0000E571E5726572A372062002F0EDF9051E09
:102D100040D0002624483300320031000C960B9638
:102D20000A960996089607960696059604960396BF
:102D30000296019600960BF075FB330032003100CD
:102D40001B480C960B960A960996089607960696C7
:102D50000596049603960296019600960BF062FB88
:102D600033000C960B960A960996089607960696D7
:102D7000059604960396029601960096320031005D
:102D80000D480BF04FFB0D4B1E70054BE654022314
:102D9000E36100E03500280011B0F0BDE50F000050
:102DA000E40F00009C010010E04F00109B01001098
:102DB00060500010990100101C500010DD4F0010F1
:102DC00010B5074C200002F047FA00231900E21862
:102DD000013351760E2BFAD10023A36210BDC046F9
:102DE0000C160010022307490A7806481A42FBD045
:102DF000FF22054B1A70FB3A01781142FCD018787B
:102E0000C0B270470C000440080004400223074988
:102E10000A7806481A42FBD0FF22054B1A70FB3A8B
:102E200001781142FCD01878C0B270470C00044001
:102E30000800044010B50100014801F051F810BD30
:102E40001C180010F8B543B204000D00002B07DA7F
:102E500000217720FFF7F6FF012831D87F231C409F
:102E6000A026882380279B013606F750FFF7BAFF7C
:102E70008A239B01F750FFF7B5FF2000FFF7DAFF29
:102E8000280EFFF7D7FF280CC0B2FFF7D3FF280AA0
:102E9000C0B2FFF7CFFFE8B2FFF7CCFF9520402C80
:102EA00003D09438482C00D18630FFF7C3FF0A24A2
:102EB000FFF798FF030603D5013CE4B2002CF7D1DD
:102EC000F8BDFFFFF8B51D002F4B07001B7816005B
:102ED0001B0700D449025120FFF7B4FF002801D09E
:102EE000012447E0294CFFF77DFFFF2804D1013C76
:102EF000A4B2002CF7D1F3E7FE28F1D1244C641BD7
:102F0000A41BA4B2002E06D1224B002F1AD02248B7
:102F10000426007811E0013EFFF778FFB6B2F1E732
:102F20001E4A10701A783242FCD01C4A013D1278B9
:102F3000ADB23A700137002D16D002211A780A423C
:102F4000FBD0EDE702210427134A144816781A78BB
:102F50000A42FCD006701A783A42FCD00F4A013D72
:102F6000ADB21278002DF2D1013CA4B2FFF74EFFB2
:102F7000002CF9D18823A02280219B011206D15078
:102F8000FFF730FF2000F8BD3A1600103075000042
:102F9000020200000C00044043320100080004401B
:102FA000144B10B51C880234A4B2002C04D00020AD
:102FB000FFF740FF013CF7E7FFF714FF1F23012451
:102FC000184005280CD10C4CFFF70CFFFF2804D04B
:102FD000002C02D0013CA4B2F6E763425C41E4B2AB
:102FE0008823A02280219B011206D150FFF7FAFE10
:102FF000200010BD38160010E8FD000073B58823CE
:10300000A0258024404E9B012D06EC503F49300006
:1030100000F05CFF00220821300000F04BFF842309
:103020009B01EB58234201D1FFF7BAFF6425013D14
:10303000EDB2FFF7D7FE002DF9D129004020FFF7B0
:1030400001FF0400012848D1D52148204900FFF79D
:10305000F9FE012815D1FFF7C5FE01AC2855013551
:10306000042DF8D1A378012B37D1E378AA2B34D1E2
:10307000274D8021E920C905FFF7E4FE011E11D18B
:1030800015E02900E920FFF7DDFE4126012801D8DF
:103090000224E9261F4D00213000FFF7D3FE00284F
:1030A00017D11CE0013DADB2002D16D0E1E77A202A
:1030B000FFF7C8FE002810D10500FFF793FE60550A
:1030C0000135042DF9D123780C245B060ED42C0095
:1030D0000CE0013DADB2002DDDD1002406E08021E1
:1030E00050208900FFF7AEFE0028F6D10A4BA0223F
:1030F0001C70882380219B011206D150FFF772FEBD
:1031000060426041C0B276BD1C180010002D310134
:10311000E02E0000A86100003A160010064B1A6865
:10312000831ED168002002398B4203D2507843437A
:10313000906918187047C0463C1600100F4B10B528
:103140001A6800230380836804001800012B13D041
:10315000D16801208B420FD2002B03D111780329B3
:1031600000D15369E360002B03D01800FFF7D6FFAE
:1031700000E050692061002010BDC0463C160010E0
:10318000F0B5040085B0012854D92C4B1D68EB68BC
:1031900098424FD22E78022E32D0032E38D0012EF4
:1031A00048D181B24B08C91889B24B0A0193244B0C
:1031B000CA05D20D296903AF9A4204D0019B380099
:1031C000591802230EE0019B380059183300FFF70D
:1031D00079FE021E2ED12969019B0131C9183300E5
:1031E00002A80530FFF76EFE002823D17B783878DF
:1031F0001B0203431811E2071DD41805000D1AE045
:103200002B69C2B2010AC918520003AD330007E0AE
:103210007F22042329690240C4099200611803AD8A
:103220002800FFF74FFE002804D168782B780002B1
:10323000184300E0012005B0F0BDC0463C16001068
:10324000FF01000070B5048805000134A4B2002C11
:1032500001D1032322E00369002BFAD022071BD1FE
:1032600001330F4A0361C0681668002803D1B38890
:10327000A342EED910E073782209013B1A420BD128
:10328000FFF77EFF0123984208D9F3689842E0D205
:10329000E860FFF743FF286100232C80180070BD11
:1032A0003C160010F7B504000D002B78202B01D13F
:1032B0000135FAE72F3B5A4253410027ED18A7602A
:1032C0002B78202B01D901972EE02000FFF736FF45
:1032D000404B06001B689B681F7078E0009B1B78C2
:1032E000002B68D00822009BDB7A13405BD1626818
:1032F0000099581CC95CD35C994254D103000B2837
:10330000F6D1D37A002B62D13B689868C37ADB068A
:1033100056D5437D017D1B020B43C27E1904837E7B
:10332000120213430B43A3606068020003000B32D8
:10333000934203D100220821130013E020211970C9
:103340000133F5E72F2B12D02E2B3BD091420ED913
:103350001F00613F192F01D8203BDBB2571C83545B
:10336000FAB233005E1CEB5CF6B2202BEAD8AD1942
:103370002026019A9E425241C2722000FFF7DEFED3
:10338000061E16D1134F3B689B6800930F232288BB
:1033900021691A40520111330098FFF793FD00286C
:1033A0009CD0012613E02000FFF74CFF0028EDD051
:1033B0000600032E0BD163680326DB7A002B06D1AF
:1033C000042604E00829D2D10A000331C9E73000FD
:1033D000FEBDC0463C16001070B5164B01001C68BF
:1033E00090B00620002C23D00023A3706B4608ADBC
:1033F000A56003A80493FFF755FF002818D12B7888
:103400000330002B14D01023EE7A1E4010D16B7DB8
:10341000297D1B02EA7E0B431904AB7E1202134383
:103420000B4363620F9B300023620123E661A370AC
:1034300010B070BD3C1600102F4BF7B51C68002370
:1034400007000D000192138006209C4253D0A37800
:103450000138DB074FD5236AE2699B1A8B4200D201
:103460009DB20097002D45D0E669F3051BD1700A87
:1034700061780DF0CDFF00290BD1002E01D1606ADB
:1034800002E0A06AFFF77CFE01282FD90023A0628A
:10349000E370A06AFFF742FE002827D0E3785A1CA9
:1034A0001818E270E062E3692E1CDA058023D20D61
:1034B0009B009B1A9BB29D4200D91E1CB6B2381EBF
:1034C00000D000983300E16AFFF7FCFC00280DD122
:1034D000E369AD1B9B19E361009BADB29B1900939F
:1034E000019B1B88F618019B1E80BBE7002301206F
:1034F000A37000E02800FEBD3C160010294BF7B574
:103500001C680623002C4AD0A278013BD20746D57E
:10351000256A854200D905000022E369E2619542EF
:1035200038D066787602002B12D03100681E5F1EFC
:103530000DF0E8FE3100019038000DF0E3FE019B34
:10354000834205D373423B40E361ED1AA06A01E078
:10355000606AA062B5420CD9FFF712FE01281BD9A0
:10356000E368984218D2E369A0629B19E361AD1B3E
:10357000F0E7E3695B19E361FFF7D0FD00280BD0AA
:103580006B0ADAB2ED0501D1E27003E00132C31833
:10359000E270E362002302E00023A370013318000D
:1035A000FEBDC0463C16001030B5154B04001B682C
:1035B0008DB00620002B20D004AD9D6001AB636070
:1035C0002000FFF76FFE002815D12B78002B0FD0BD
:1035D000EB7ADB0601D404200FE06B7D297D1B0212
:1035E0000B43EA7E1904AB7E120213430B43A36024
:1035F0002000FFF7A3FD0328EDD00DB030BDC0467D
:103600003C160010F0B5444E040033688DB00D0038
:103610000620002B7ED004AF9F6001AB63600338AF
:10362000002917D12000FFF789FD73E00F232288BE
:1036300038001A4052011133FFF744FC002866D1CC
:103640003B78002B61D0E52B58D12000FFF7FAFD25
:10365000002804D121690029E8D1002803D00023E3
:103660002361032856D1280023690930002B3BD061
:103670000200002133689B685E5C202E07D0052E77
:1036800000D1E0364654013101320829F4D1197ACB
:10369000202910D02E2010701800511C0830043240
:1036A0000678202E06D001314F1E3E700130914227
:1036B000F6D100E00A00D97A2972587F1F7F997FDE
:1036C00000023843090401430800D97F0906014379
:1036D0002960597E187E090201431000A980D97D16
:1036E0009B7D09020B43EB80002505702000FFF74E
:1036F000A9FD03280ED1256128000BE02E2BA4D0B4
:103700000822FB7A1342A0D1ADE72361ABE7002387
:10371000012023610DB0F0BD3C16001010B5130060
:103720000A000100014800F003F810BD4432010016
:103730000FB404B07047FFFF0A4B0833036083687F
:10374000002B0DD0084A1368984202D143681360D9
:1037500006E05A68904201D01300FAE742685A60C6
:103760007047C046783201004016001010B50400C2
:10377000FFF7E2FF200000F013FD200010BDFFFF67
:10378000064B816008330360002302734360994253
:1037900003D0034B1A68186042607047783201000A
:1037A0004016001070B506000D000B4B1C68002C75
:1037B0000FD0A06800280AD02A0031000CF0DFFBEF
:1037C000002804D1A0680CF0D3FB854201D06468C6
:1037D000EDE7200070BDC04640160010007B70472A
:1037E000036870B51B690122002104009847060098
:1037F000431C0DD0236802221B690021200098473A
:103800000500236800221B6931002000984728002A
:1038100070BD002310B5036043600A7804002F2AAE
:1038200015D14A789A4212D0481C190020602368AA
:103830001A782F2A02D10133236005E0002A03D031
:10384000013301312360F2E7FFF7ACFF6060200035
:1038500010BD00687047436810B5181E05D0FFF70B
:10386000BDFF013843425841C0B210BD10B504003D
:10387000FFF7F1FF031E00D06368180010BD436816
:1038800010B5181E04D0FFF7A9FF43425841C0B23B
:1038900010BD10B50400FFF7F2FF031E03D06268ED
:1038A000131E00D0131F180010BD4068431E98411E
:1038B000C0B270470120404270470120404270472B
:1038C00000207047012040427047FFFF10B5040000
:1038D0000122FFF755FF024B20000833236010BD83
:1038E0008832010010B50400034B08330360FFF772
:1038F00023FF200010BDC04688320100036870B568
:1039000004000D00013304D1242206490648FFF7C4
:1039100005FF6368002D01D0E26800E022691360B2
:1039200070BDC046AC320100F632010070B50D002A
:103930000400160000F028FD6B1C07D000212000B9
:1039400000F04AFD3100200000F040FD70BD10B5D0
:103950000122FFF7EBFF10BD70B50D00040016004B
:1039600000F012FD6B1C0BD031002000FFF7C6FFEA
:103970000121200000F030FD0021200000F026FD94
:1039800070BD10B50022FFF7E7FF10BD10B50400B1
:10399000034B083303601C3000F0F8FD200010BD1D
:1039A0001033010010B50400FFF7F0FF200000F015
:1039B000F7FB200010BDFFFF036810B504000133C2
:1039C00004D12C2205490648FFF7A8FE6369606808
:1039D0001B681840431E984110BDC046AC32010020
:1039E000F632010070B5050004000E4B0E000833DE
:1039F00008C52800182200210BF09FFC002320009E
:103A00003100E36123626363A363E364064A230036
:103A10001C3000F059FD28003100FFF798FF20000E
:103A200070BDC04610330100A53A000010B5043047
:103A3000FFF7C2FF10BD10B5043000F0C7FC10BD89
:103A400003000A0010B51C300121002A04D01A62BC
:103A500000225A630132110000F0ACFD10BD0300DA
:103A600010B50A001C30002903D000229963DA64E3
:103A70000132022100F09EFD10BD10B50430FFF7A9
:103A80009BFF10BD436910B50100002B04D10368F2
:103A9000002B06D0984704E00068002801D00431CC
:103AA000984710BD10B5012903D0022904D1383040
:103AB00000E02030FFF7E6FF10BDFFFF10B5040067
:103AC000431C12D00B685A1C0CD09C4208D1200019
:103AD000896800F095FD0021200000F0ADFD04E0B4
:103AE0000C31EFE70148FFF723FE10BD2033010042
:103AF00010B5030088420AD00B00421C07D0030017
:103B00004A1C04D00348FFF713FE01235B42180050
:103B100010BDC046313301000B685A1C05D08342EA
:103B200001D1486802E00C31F6E718007047FFFF4A
:103B300010B50400431C07D0FFF7EEFF0400431C40
:103B400002D10248FFF7F4FD200010BD423301000E
:103B5000054B10B51B68002B04D1044A04490548E5
:103B600001F026F810BDC0467C1700104824000064
:103B70004C260000A4540010084B80210833036039
:103B8000002330B51C00064A49009D58A84200D1C8
:103B90009C5004338B42F8D130BDC046A83301009D
:103BA00044160010F0B50F0085B02F4905000CF049
:103BB000CDF9041E02D1FFF7CBFF51E02B492800BD
:103BC0000CF0C4F9002803D1FFF7C2FF012447E03D
:103BD000274928000CF0BAF90024264BA04206D150
:103BE000FFF7B6FF02343BE00134402C0DD0A600B5
:103BF000F258002AF8D10BE0290002A8FFF709FECD
:103C000002A8FFF752FE00280CD10124644227E0ED
:103C10002B783A2BF0D102AA174928000CF020F992
:103C2000029818E002A8FFF72AFE002803D002A895
:103C3000FFF72FFE0FE002A8FFF718FE051EE4D0E5
:103C4000036802A89B680193FFF703FE3A00010096
:103C5000019B280098470028D7D0064B0334985181
:103C6000200005B0F0BDC046803301009D33010047
:103C700087330100441600108F330100030010B594
:103C80000020022B0DDD0749033B9B005A5858507A
:103C9000824204D0136810005B68984701E001205D
:103CA000404210BD4416001070B50C0015000228EB
:103CB00010DC0F4B1B68002B01D1FFF749FF661981
:103CC000B44205D021780B4801F059F80134F7E7E8
:103CD00028000BE00338084B8000C058002803D0B0
:103CE00003681B68984701E00120404270BDC04650
:103CF0007C170010A45400104416001010B50C00DE
:103D000002280BDC0C4B1B68002B01D1FFF720FFB6
:103D10000A4801F018F8207001200BE00338084B26
:103D20008000C058002803D003689B68984701E0D2
:103D30000120404210BDC0467C170010A454001062
:103D400044160010030010B50120022B0BDD033BCD
:103D5000054A9B009858002803D00368DB68984701
:103D600001E00120404210BD44160010030010B5D0
:103D70000020022B0BDD033B05489B001858002850
:103D800003D003681B69984701E00120404210BD41
:103D90004416001010B5022804D880239B014B6004
:103DA000002005E00AF01AFE0923036001204042CA
:103DB00010BD7047074A13681818EFF3088188424E
:103DC00005D30C220120044B40421A6001E0106030
:103DD0001800704764010010B0540010064B10B575
:103DE0001B680400002B00D09847044B1B68002B75
:103DF00001D02000984710BD680100107401001028
:103E0000094B10B51B680400002B04D0984700280C
:103E100001D1FFF7E3FF054B1B68181E00D0984740
:103E2000002C00D0206010BD6C010010700100104B
:103E3000704710B5040000F0B3F9200010BDFFFF7B
:103E400073B504000E480025083020600820E060AB
:103E50000C48261D606106986560257225610090FA
:103E6000300000F09DFF2B0030002269E16801F076
:103E700017F83000616901F049F8200076BDC046AE
:103E8000D433010040420F0070B5094D04002B6887
:103E900083420BD0061D0269C1680023300000F088
:103EA000FFFF6169300001F031F82C6070BDC04641
:103EB000441700100261002210B5034BC1601A6064
:103EC000FFF7E2FF10BDC04644170010002210B5F6
:103ED000024B41611A60FFF7D7FF10BD4417001075
:103EE00070B50D000400FFF7CFFF2900201D01F081
:103EF00051F870BD036870B5DB68040098476368CB
:103F00005A682368002A02D19B68984713E05B68CF
:103F10001568984763682D1A5A68002D07DC916868
:103F200059601B68002BEAD050689847E7E7236880
:103F300010681B69984770BD10B503685B689847A7
:103F400010BD036810B50400002B05D1C068FFF751
:103F5000F3FF01236060236010BD10B5040000680A
:103F6000002804D0E068FFF7E7FF6368C01A10BDBF
:103F700010B50400FFF7F1FFA36818180023A06034
:103F8000236010BD10B58468FFF7E7FF201810BD4F
:103F900010B5FFF7F7FFFA2189000DF03DFA10BDCB
:103FA00010B50400C068FFF7C7FF00236060A3607E
:103FB00010BD002310B5036043608360040000F06F
:103FC00007F8E0602000FFF7EBFF200010BDFFFFC7
:103FD00000487047FC33010010B50248FFF78AFF24
:103FE00010BDC046FC33010070B5040001F00EF8AE
:103FF000050001F00BF8401BA042FAD370BDFA2374
:1040000010B59B005843FFF7EFFF10BD70B50A4C89
:10401000A568A3682A00002B0AD180225E595205A8
:104020009A1804331660C02BF7D180225205A26083
:1040300010308000815070BD00ED00E07FB5802021
:104040003F494002CA6F8E240243CA6725220020DE
:1040500020253C4B3C499A60243A0A603B49A40025
:104060000A60186219593A4A114001910199A9430D
:10407000C825019101992D02294319510090354815
:104080000099814204D8C046009901310091F7E7B8
:104090000121002019645964586459645C6C2948F2
:1040A0000C42FBD08E218026C825890044582D0261
:1040B00014400394039C34430394039C2C434450C6
:1040C00025248460445822400292029CB443029406
:1040D000029A2A4342500120DC681A490122044214
:1040E000FAD00320086700204A67486710004A6733
:1040F0005C6F144A01210442FAD08E20916780003F
:104100001558154C2C4014501558144C2C40145074
:1041100000209164D164D064D164DA6C0A42FCD08E
:104120002521084A1161012259691142FCD000225F
:104130000B4B1A601A600B4B01321A607FBDC046F0
:104140000480044000800440F0400440F4400440F7
:10415000FF250000C3090000FFFBFFFFFFFEFFFF7C
:10416000C0800440C8800440704770477047704763
:104170007047002310B5934203D21C585C5004339F
:10418000F9E710BD00231A008B4202D21A50043303
:10419000FAE770470020704710B50BF091F810BD9A
:1041A00010B50BF097F810BD13B501210F4B9A68AD
:1041B000120B12039A6002789C6891402143996027
:1041C00099680B4801439960186908490190019862
:1041D0000028F9DA08329200535801938B685B008B
:1041E0005B088B6001980004000D16BD00C0014003
:1041F0000000088470B50600FFF7D6FF0400300009
:10420000FFF7D2FF05003000FFF7CEFFAC4202D926
:1042100023002C001D000300A84200D92B00200021
:104220009C4200D2180070BD73B50C00214D0600F1
:1042300029002000FFF77CFCC0B23070FF2804D1B9
:1042400035221D491D48FFF769FA20002900FFF7B4
:1042500035FC80221A4BE405E40DE4182368194963
:104260009343B9322360FF328858174B0340102024
:104270000193019B8343C8200193019B00020343E8
:104280008B508021114A8901D36F0B43D367104BA8
:10429000104918680DF036F88023DB051A00013844
:1042A000C0B20D49184308600B681340FCD10A4A9C
:1042B000136073BD68340100043401004F34010001
:1042C0000040044000800440FF25000004800440BA
:1042D0007801001020A1070000C0014010B5FFF7D1
:1042E00089FF0EF059F802490DF052FD10BDC0468D
:1042F0000108803910B50400431C04D11E2217495F
:104300001748FFF70BFA174B1A68002A06D101323B
:104310001A60154A1549D36F0B43D3670122002C4D
:1043200012D0134B9C420FD0124B9C420CD0124B1C
:104330009C4209D0114B9C4206D0114B9C4203D0A9
:10434000104BE1184A424A412000110000F058F990
:104350000120A404E40EA04010BDC04604350100B5
:10436000FB3201005017001004800440400001009F
:10437000281400002C16000030180000341A000029
:10438000381C0000C4E1FFFF70B505000C00296077
:104390004B1C11D00800FFF7ADFF2414074BA400FD
:1043A000E318EB60064B6860E3182B61054BE318DC
:1043B0006B61054BE418AC6070BDC046002200A0E4
:1043C000802200A0002100A0002000A010B50068FD
:1043D00000F032F910BDFFFF036870B504000D0056
:1043E000013304D1432209490948FFF797F9002D09
:1043F00006D0012D09D1A268636811680B4303E060
:10440000A268616813688B43136070BD04350100B6
:10441000F6320100F7B501210D008540134C636AA7
:104420002B4221D0124B8600F058019300281BD05C
:1044300023682B4218D163682B4206D0E3692B42D4
:1044400003D00C4B1B689847E5612369074F2B424B
:1044500009D03B6A2B4206D0064B019A1B68022109
:10446000905998473D626562F7BDC046004000A084
:10447000581700105417001010B50020FFF7CAFF9E
:1044800010BD10B50120FFF7C5FF10BD10B502200B
:10449000FFF7C0FF10BD10B50320FFF7BBFF10BD35
:1044A00010B50420FFF7B6FF10BD10B50520FFF7CB
:1044B000B1FF10BD10B50620FFF7ACFF10BD10B561
:1044C0000720FFF7A7FF10BDF7B505002748814279
:1044D00002DD0120404248E02548264C02600020D1
:1044E000820016590096002E3BD11351224C2860B1
:1044F000E36F224F224E3B43E3671F248B03491295
:104500000C401821A44604009B0F59435E346144BB
:10451000A400A15181210124890071589B000F0042
:10452000210081400F4339008127BF00F151A021B4
:10453000802609065B18B60199592700019161464A
:104540008F40019940B2B94399510E4BD158FFF7B2
:104550005DFD1F222B68009813409C400A4B1C6095
:1045600003E001300828BBD1B3E7FEBD1311020000
:1045700054170010581700100480044080000900F0
:10458000008004404C35010000E100E00021036898
:10459000064A9B0010B59950012281210068044C05
:1045A0008240890063589343635010BD5817001030
:1045B0000080044003680120984070B50F4C2368C8
:1045C000034200D16062C54326680C4B2E40266032
:1045D000012909D1002A03D05A68104358600CE021
:1045E0005A6815405D6008E0002A03D01A6910433C
:1045F000186102E01A6915401D6170BD004000A0FD
:1046000070B504000D00431C04D115220749084869
:10461000FFF784F8074BE405E40DE418072322684C
:104620001D409A431543256070BDC0466C3501009E
:10463000FB3201000040044070B504000D00431C33
:1046400005D11D220F491048FFF768F806E08123C5
:104650001B01984214D00D4B984211D00C4BE4052D
:10466000E40DE4182368042D04D18022D200134302
:10467000236005E01822ED00934315401D4325609B
:1046800070BDC0466C350100FB320100140A000009
:104690000040044070B50C1C05000021201C0CF0EB
:1046A000F7FF002809D1FE21201C89050DF004F830
:1046B000002803D0FE24A40500E0002480232D68F8
:1046C0009B00E8580DF068FE211C0DF061FB0DF019
:1046D00007F881239B00E85070BD8023F7B5812740
:1046E00004689B00E258BF00E059E15001920D00C0
:1046F0000DF052FE061C01980DF04EFE011C301C00
:104700000DF07CF9061C28000DF0FEFD011C301C8C
:104710000DF03EFB0CF0E4FFE051F7BDF7B50F00E4
:10472000060050493800FFF703FAC3B20500FF2B1B
:1047300002D14D48FEF7FCFF4C4B01211A78019342
:1047400010000840031E04D00A410B000A4200D0AA
:1047500081E0012421009940019A45481278736054
:104760000A4301990A70434A99008A580933326012
:10477000C26F1100802212061143C16720009840C9
:1047800003003D4A38005268364913433A4A5360A1
:10479000FFF794F93768394A3B68394913430C22CB
:1047A0003B607B6813437B607A68364B13407B60C9
:1047B0007B680193344B18680CF0A4FDFE2301388C
:1047C0001B0140011840019B18437860E8B207289C
:1047D0001DD80CF08DFD040A1016040A1016A02333
:1047E000DB00FC500222294B10E0A123DB00FC502F
:1047F0000222274B0AE0A223DB00FC500222254BB9
:1048000004E0A3230222DB00FC50234BFA50802259
:10481000C12352019B00FA500123C0225B42920047
:104820001E49BB500C32B950043ABB5080231C497E
:104830009B00F950FB58053A9B08FF3ABB500422F5
:104840007B68300093437B60FFF747FF3000002117
:10485000FFF720FFF7BD1348FEF76AFF01235B4215
:1048600077E7C046B4350100203601007817001004
:10487000048004404C360100008004400100060022
:1048800040420F001FF0FFFF7801001004050000F8
:104890000C050000140500001C05000001100000BC
:1048A000204E00003A36010080210A4AC905D36F24
:1048B00080200B430121D367074B1A680A431A6013
:1048C00000229A601A6802431A601A688A431A60C2
:1048D0007047C0460480044000400240024B186804
:1048E0000006C00F7047C04600400240014B986868
:1048F0007047C0460040024010B58024044B196840
:10490000A143196098601A6822431A6010BDC0461E
:1049100000400240F0B501256A4B6B4A91B001910D
:104920001D601560037A060003930399674B002905
:1049300000D089E01B680293019B02981F01390097
:104940000CF0E0FC390084B202980CF061FD002903
:1049500063D0029B2F00AB400D93029B0A959B00F6
:104960000F93019B0B930F9B0C930D9B0593029B45
:104970000793019B0E93039B09930025FBB20393BE
:104980000B9B08940693EBB20493059B0699002BAE
:1049900004DA18000CF0B6FC040903E00C980CF0E3
:1049A000B1FC440901346408A4B2002C6BD0002D82
:1049B00002D0012C00D10134791961430798C90054
:1049C0000CF0A0FC019B01304008C01A0AF002F86C
:1049D0000E9B98420FDA019B834206D10F2F1ED106
:1049E000039B0A93049B099312E0039B0E900A9386
:1049F000049B08940993019A069B944601356344ED
:104A0000039A0693EBB29342BDD30F2F40D1089C7B
:104A10000A9B0393099B049301E003950491802171
:104A20003368DA680A43DA60220A92B25A6033685D
:104A3000E4B21C60039A3368049E15012E439E6203
:104A4000DA688A43DA603AE01168456818680CF061
:104A500059FC0409019920000CF054FCFF221C4B66
:104A6000013828621A601868296A1D68019B0131A3
:104A70004B430130190060430CF044FCED43154BEF
:104A8000401918601BE06C426C4102231C1B93E729
:104A9000029A079B94460D9A6344944607930F9A93
:104AA000059B0137634494460593019A0C9B089C2F
:104AB000634494460C930B9B63440B935DE711B0E6
:104AC000F0BDC04698800440A080044078010010EA
:104AD000F0800440F4800440F8B55E1E07000D002D
:104AE0001400012E05D904222B49FF322B48FEF772
:104AF00015FE3B7A002B2CD1053D032D05D98422D0
:104B0000254952002648FEF709FE042C05D98522C6
:104B1000214952002348FEF701FE042C3BD8200017
:104B20000CF0E6FB0C0305070900002204E001225B
:104B300005E0022200E00322012101E00022110031
:104B4000B6003543C90038680D4312012A43C260DC
:104B500021E0073D022D05D920220F49FF321248DE
:104B6000FEF7DCFD022C05D990220B4952000F48BC
:104B7000FEF7D4FD012C04D0002C03D0022C0AD166
:104B800000E003240123AD001D43B6017A682E43E3
:104B9000240134431460F8BDCC3601001537010000
:104BA0003A3701005D370100E137010005380100A7
:104BB000F7B50E00514F0500390030000092FEF7A6
:104BC000B7FF4F4904000098FEF7B2FF0100200034
:104BD000FEF78EFF019704004A4F431C05D1572270
:104BE00049494A48FEF79AFD49E0494B98422DD081
:104BF00011D8B84221D0474B984240D1042380209D
:104C000045492B72CB6FC0030343CB678021434AD6
:104C10004900536831E0424B984223D0414B9842BF
:104C20002DD1032380203C492B72CB6FC00303435B
:104C30003A4ACB67536880211FE000238021364A1F
:104C40002B72D36F49010B43D36718E001238020F7
:104C500031492B72CB6F40030343304ACB67536813
:104C600020210AE0022380202B492B72CB6F800386
:104C70000343CB674021294A53680B4353602B7A87
:104C8000002B05D101222C60A2602A68536007E046
:104C9000822301221B016C60A360236813432360FD
:104CA000962128008901FFF735FE01230022082103
:104CB0002800FFF711FF01993000FEF7FFFE1049B1
:104CC0000098FEF7FBFE731C03D002213000FFF7B3
:104CD000B3FC009B013303D002210098FFF7ACFC2A
:104CE000BC420AD12B7A002B07D101220E4B29009E
:104CF0001A600E480B320AF002FBF7BD6038010063
:104D00005436010000800040CC3601004F380100CD
:104D100000C0064000C004400480044000800440FD
:104D200000000740004007407C170010A45400100A
:104D3000027A0123002A02D10268506901E0426828
:104D400090681840704710B504002000FFF7F0FF8E
:104D50000028FAD0237A002B02D12368186801E0DA
:104D60006368586910BD037A002B03D10368586942
:104D7000202302E04368986804231840704770B508
:104D800004000D002000FFF7EEFF0028FAD0237A80
:104D9000002B02D123681D6001E06368DD6170BDF6
:104DA000F0B5334E87B000910400310000980192B5
:104DB0000293FEF7BDFE2F4D070029000198FEF774
:104DC000B7FE2D4903900298FEF7B2FE2B490490DE
:104DD0000C98FEF7ADFE039905903800FEF788FEAB
:104DE000059907000498FEF783FE01003800FEF7DE
:104DF0007FFE2060431C04D1482221492148FEF750
:104E00008DFC2368204A93420FD0204A934219D147
:104E100080201F49C002CB6F1E4A0343CB6701218C
:104E20001D4B1960536803310AE0802018490001C6
:104E3000CB6F184A0343CB670121184B19605368A5
:104E40000B43536031000098FEF738FE29000198AB
:104E5000FEF734FE08490298FEF730FE0C9B013342
:104E600003D006490C98FEF729FE07B0F0BDC046F6
:104E70001C3A0100D838010014390100583A0100E9
:104E80005C390100A23901000000044000800540A7
:104E900004800440008004409C80044094800440CE
:104EA000F8B50E000221140002681D0053680700C7
:104EB0008B435360331F0C2B06D9032C04D9652276
:104EC00010491148FEF72AFC8023E0010340013E0F
:104ED0001E43A30734003968DB0F0A689B01120CDC
:104EE00012041C4314430D220C604B6893436A1E4A
:104EF00095410222AD001D434D604B6813434B604A
:104F0000F8BDC0465C390100B6390100F7B502248E
:104F100005000E0002685368A34353601A4B1B68D8
:104F20000193210001980CF0EDF90DF0EDF9071C4B
:104F300030000DF0E9F9011C381C0CF05FFDFC217C
:104F400089050CF0E5FB0DF0D5FE09F0ABFC0DF08A
:104F50009BFEFF280FDC2B680C4A1C611968013886
:104F60000A4002211A601A680002104318605A6849
:104F70000A435A6007E0802302345B009C42D0D190
:104F80000348FEF7D5FBF7BD78010010FF0000FFD6
:104F9000F439010002220368D8681042FCD00422D0
:104FA0009960D9681142FCD098687047104B70B571
:104FB0001A68002A1AD1012580210E4A1D60D36F7C
:104FC000C9000B43D3670C4B0C4C186802230C49E7
:104FD00063600CF097F90138E0600A4965601320BE
:104FE000FFF714F88022084B12031A6070BDC04608
:104FF00080170010048004407801001000800140F8
:1050000040420F00D93F000000E100E0044B10B522
:105010001B68002B01D1FFF7C9FF024B986810BD38
:1050200080170010008001400121034B98615A69EC
:105030000A435A617047C046008001400121024A7C
:1050400053698B4353617047008001400122014B3B
:105050001A60704700800140704770477047FFFF3B
:1050600010B50548FFF73AF904490CF091FE0CF031
:1050700037FB034B187010BD8517001000007F43ED
:105080008417001010B5FFF7EBFF10BD10B50249F3
:105090000248FFF7C9F810BD5C2E0000851700100C
:1050A00010B503F029FF10BD70B50023FF240225C1
:1050B0000B480C4AC15C002906D0D15C0131C9B251
:1050C000FF2906D1D55407E0D65C002E04D0FF2E70
:1050D00001D1D15400E0D4540133072BEAD170BD83
:1050E0000543001087170010034B185C013843423A
:1050F0005841C0B27047C04687170010034B185C78
:10510000FF3843425841C0B27047C046871700106D
:1051100010B50B4B1B5C012906D80020FD22013B7A
:10512000DBB29A42404109E00020FF2B07D0180073
:105130000CF06EF9C8B2013841424841C0B210BD0E
:1051400087170010002210B51D4B19781A701D4AE0
:105150005078002801D001201870D078002803D0A2
:1051600002241878204318701078002803D00424F3
:105170001878204318709078002803D008241878F5
:10518000204318701079002803D010241878204389
:1051900018705079002803D0202418782043187004
:1051A0009279002A03D040201A7802431A701B78A3
:1051B000054A180008409943044B1070197010BD3F
:1051C00086170010054300108F1700108E1700106F
:1051D000014B18797047C04605430010014B5879C0
:1051E0007047C04605430010014B58787047C046D1
:1051F00005430010014BD8787047C04605430010A6
:105200000023094A1380094A1370094A1370094A96
:1052100013700122084B52421A80084A084B1A6048
:105220000922084B1A707047961700109517001046
:105230009C17001090170010921700106446010090
:10524000981700109417001010B50248FFF7D8FF08
:1052500010BDC0469117001000234372FF33037244
:105260007047F7B50F000024E500280005F0B2FAFA
:105270003B78834204D00134302CF5D1FF2015E077
:105280002B000026083300937B1B0193280005F0B8
:10529000A1FA019B5B5D01351B1A58424341F61888
:1052A000009BAB42F2D1082EE5D12000FEBD10B527
:1052B0000024E00005F08EFA002803D00134302CE1
:1052C000F7D1CF34200010BD10B500206F2907DCC6
:1052D0008131FF31080005F07DFAC043C0B2C0093A
:1052E00010BD70B500240600250021003000FFF736
:1052F000EBFF431E984101342D18702CF5D1280086
:1053000070BD70B505000C006F2901DD00200FE0B5
:10531000FFF7DAFF0028F9D120008130FF3005F0D7
:1053200059FA7F2318402B7AC01A43425841C0B221
:1053300070BD70B500240600250021003000FFF785
:10534000E0FF431E984101342D18702CF5D1280040
:1053500070BD70B50C0015006F2901DD002010E054
:105360002F2AFBDCFFF7B0FF0028F7D120008130A7
:10537000FF3005F02FFA7F231840401B434258416D
:10538000C0B270BDF8B5D5002E000F002C00083655
:105390007B1B195D2000013405F025FAB442F7D1DA
:1053A000F8BD70B50600002421003000FFF78CFF27
:1053B000051E08D020008023317A81301943FF3048
:1053C00005F011FA02E00134702CEDD1280070BD17
:1053D00070B52F2900DD2F21CC00250008352000D5
:1053E0000021013405F0FFF9AC42F8D170BDF8B5E9
:1053F00006000024E00005F0EDF900280ED000259D
:10540000220029003000FFF7A4FF002806D1013553
:10541000702DF5D121003000FFF7DAFF0134302C78
:10542000E8D15134FF347F252600200005F0D2F961
:10543000A843C0B200280BD00027380005F0CAF9F5
:10544000011E05D10837B742F7D1200005F0CBF98E
:10545000F82301345B009C42E7D1F8BD70B5437A74
:105460000500002B0AD0047E6F2C0BDC21002800E5
:10547000FFF747FF002804D10134F5E7012040423F
:1054800000E0200070BDFFFF70B50400007E104BEF
:10549000400102006069F132FF32184004D5202338
:1054A00001385B4218430130101805F093F9636925
:1054B000050001336361DA0608D1002B06D0237E94
:1054C000200001332376FFF7C9FF2076280070BD46
:1054D0001F000080002370B5427A04009A4202D077
:1054E00006699E4201D100200FE043610376FFF779
:1054F000B5FF35002076E268AB1B9A4205DD20003F
:10550000FFF7C2FF28700135F5E770BD10B5040044
:10551000007E0F4B400102006069F132FF321840FB
:1055200004D5202301385B4218430130101805F0E0
:105530005AF9636901336361DA0608D1002B06D09A
:10554000237E200001332376FFF788FF207610BDED
:105550001F000080002370B5427A04009A4215D0E3
:1055600006699E4212D043610376FFF777FF35004C
:105570002076E268AB1B9A4205DD29782000FFF710
:10558000C5FF0135F5E7012004F040FF002070BDA4
:1055900070B501000400C568FFF763FEC0B2207259
:1055A0002F2825D82000FFF7C4FE40012D1A002D1A
:1055B00005DC012320006372FFF78CFF2FE0200041
:1055C000FFF7EFFE002801D1022034E0203D002D3E
:1055D000F5DC0123217A63722000FFF7F9FE200039
:1055E000227A2100FFF7CEFE2000FFF7B3FF16E07E
:1055F0002000FFF75CFEC3B2237201202F2B1AD8C4
:105600002000FFF76EFE40018542DDDC002D06DD47
:105610002000FFF7C6FE0028D6D0203DF6E7012384
:10562000217A63722000FFF7D3FE2000227A210046
:10563000FFF7A8FE002070BD13B504000020193A42
:105640001933E260236120220300607268461A5415
:105650000133082BFAD10023CA5C002A04D0684623
:10566000C2540133082BF7D12000FFF7C0FE0822F7
:105670006946200009F043FE2000FFF789FF002063
:1056800016BDFFFF37B572B600210422244B8025DA
:1056900059601961234BED001A608E22224B920053
:1056A0009C582C4380259C509C586D002C439C504A
:1056B00001225A671400596719004B6F1A4D0122D5
:1056C0002340FAD114002B676A676B674B6F164A49
:1056D0002340FBD18E245364516CA4009360136764
:1056E0005360155911492940802501910199294399
:1056F000C825019101992D0229431151A02284212D
:105700001206890153500A4953500A4953500A4B13
:105710009860001C01688D464068804737BDC046D0
:10572000004000A010E000E000800440FF250000E1
:10573000042100000821000000ED00E07047FFFF99
:10574000F0B5C1B00E0001F02BFB01F035FB80235A
:10575000DB029B1B0400984200D91C0001F016FBE1
:105760008027134802F066FE00257F00A5421CD268
:1057700080216846490001F0EDFAFF2804D8631B38
:10578000BB4201D90B4806E0A819694604F070FF36
:10579000002804D0084802F04DFE012006E0013543
:1057A0000648FF3502F03AFEE0E7002041B0F0BDC8
:1057B000CE470100DA470100F5470100223201001F
:1057C000F7B501260024514B514D1E70514B1C80E2
:1057D000FC23DB002B8001F03FFB2100200001F0C7
:1057E0006BFB300002F06EFD0094019410F0C5FBDD
:1057F0000421494801F078FAA0420FD101F0D0FA13
:105800000820404201F0AEFA0421684601F0A2FAF5
:10581000042101A801F09EFA01F0B8FA01273F4ED9
:105820007F423F4C2368B34200D03E4C2368B342D2
:1058300000D03D4C2368B34200D03C4C2368B342B7
:1058400017D020233A485B422B8002F0F3FD009BE7
:10585000002B03D0374B019A9A4240D8364802F0C9
:10586000E9FD364802F0E6FDFC23DB002B803448DE
:1058700020E0344B34482B8002F0D0FD0A216068D0
:105880002F8002F05CFE6368009A934227D3A068E1
:10589000FFF7F8FE17E0FFF7ADFC002834D1FFF763
:1058A000A3FC0028F7D001990098FFF749FF0028D2
:1058B00026D0264802F0BEFD05E0FFF743FCFFF7C7
:1058C00087FC002804D1FFF783FC0028F5D01BE0FB
:1058D000FFF77EFC002817D0FFF734FCF8E71C4BDD
:1058E0001C482B8002F09AFD00980A212F8002F0BC
:1058F00026FEFC231848DB002B8002F09BFDCEE740
:10590000164802F097FD8CE7F7BDC04688010010ED
:105910007E010010BC400010BB4801001EAB07B068
:10592000F4FF030004FF030004FE030004F003007F
:10593000C3480100FF7F0300D74801007432010013
:10594000EE480100FF07000009490100134901006A
:105950001FF8FFFF394901004D4901002F4901009F
:10596000F8B50024012002F0ADFC484BFC271C8058
:1059700001F072FA464D474B47482B8002F02CF954
:105980000123464E30213370454BFF001C70454BC0
:1059900060201C702F8002F053FD434802F03EFD52
:1059A0003821602002F04CFD404802F037FD4021D4
:1059B000602002F045FD3E4802F030FD48216020A5
:1059C00002F03EFD3B4802F029FD6021282002F054
:1059D00037FD394802F022FD013C38482C8002F0A6
:1059E0001DFD37482F8002F019FD022335482C8019
:1059F000337004F0EFFE03190434042B00D80400C4
:105A000004F012FF85B2002C38D0FFF79BFB782101
:105A1000682002F015FD0A21200002F073FD04F059
:105A200003FFFA239B00EB18984203D904F0FCFE15
:105A3000013C85B203F002FB002808D003F0FEFA17
:105A4000041E02D0FFF77EFBF8E7FFF7B9FE03F074
:105A5000E9FA002807D003F0E5FA002802D0FFF7A2
:105A600071FBF8E7040003F0E3FA0028CBD003F061
:105A7000DFFA002802D0FFF765FBF8E70123337057
:105A800001F0EAF9002002F01DFCF8BDBC40001056
:105A90007E01001000F8FFFF0043010088010010A4
:105AA000890100108201001072490100774901004C
:105AB0007C49010081490100864901008C490100AF
:105AC00090490100A20F0000F0B5984D1E002B88F0
:105AD0008BB00400049109935711002E06D00020CA
