:1000000000800010FD000000FD190000FF19000035
:1000100000000000000000000000000000000000E0
:10002000000000000000000000000000011A0000B5
:100030000000000000000000031A00001D61000025
:10004000051A0000051A0000051A0000051A000034
:10005000051A0000051A0000051A0000051A000024
:10006000051A0000051A0000051A0000051A000014
:10007000051A0000051A0000051A0000051A000004
:10008000051A0000051A0000BD5C0000051A0000FA
:10009000051A0000051A0000051A0000051A0000E4
:1000A000051A0000051A0000051A0000051A0000D4
:1000B000051A0000051A0000051A000000000000E3
:1000C0004CBE000000010010AC0000004CBE00005F
:1000D00000000020000000004CBE00000040002096
:1000E00000000000AC01001084230000000000208C
:1000F00000000000004000200000000010B5114C7E
:10010000114B9C4207D2206861680C34231F1A6887
:1001100001F079FCF4E70D4B9C4205D22068616840
:1001200001F07AFC0834F6E701F0D6FB084B002B0F
:1001300002D000E000BFFEE706F0C2FA00F0ACF823
:10014000F9E7C046C0000000E4000000FC00000029
:100150000000000010B5064C2378002B07D1054B9A
:10016000002B02D0044800E000BF0123237010BD23
:10017000AC010010000000004CBE000008B5084BA8
:10018000002B03D00748084900E000BF0748036878
:10019000002B03D0064B002B00D0984708BDC0466B
:1001A000000000004CBE0000B0010010AC010010C7
:1001B000000000000B4B0C4A13600C4A13600C4B00
:1001C0000C4A1A600C4B0D4A1A600D4A002313604A
:1001D0000C4A13600C4A002313700C4A13600C4A3B
:1001E0001370704700000842080100101C01001045
:1001F00010010010000050421401001000003042B5
:10020000D0010010D4010010E4010010C80100105A
:10021000DA010010104B114A1360114A1360114BA0
:10022000114A1A60114B124A1A60124A00231360D5
:10023000114A1360114A00231380114A1380114A96
:100240001370114A1370114A1360114A1370114B45
:100250003C221A807047C046000008420801001086
:100260001C01001010010010000050421401001089
:1002700000003042D0010010D4010010DC01001059
:10028000E2010010E4010010E0010010C8010010BC
:10029000DA01001018010010F0B5724C724B227890
:1002A00085B01A70714B72481A78724B1A7004F04C
:1002B000F9FB3C2002F0FEFF02F0F6FE6E4803F070
:1002C0000DFF02F07DFE002801D100F01BFD582338
:1002D00000200093011C021C6E2302F0A5FF0028E1
:1002E000EFD0664F3B78002B51D1654C2378002B23
:1002F00001D11E232370032002F0B8F8002804D097
:100300002378312B01D800F0E5FC012002F0AEF893
:10031000002804D023781E2B01D900F0DFFC042034
:1003200002F0AEF800280AD020780A2106F034FB4B
:1003300002383870002301202370FFF76BFF002084
:10034000504A011C04F0DCF91E21142003F07CF853
:100350004D4804F0A7FA2821142003F075F84B4803
:1003600004F0A0FA3221142003F06EF8484804F09B
:1003700099FA50215A2003F067F8464804F092FA9F
:100380000A20217803F060F8434804F08BFA3B78A8
:10039000022B00D027E13A4C2378002B01D1142303
:1003A0002370032002F062F8002808D023783B2B4A
:1003B00005D8142B01D000F095FC282323700120D0
:1003C00002F054F8002808D02378142B05D9282BE4
:1003D00001D000F08AFC14232370052002F046F8B7
:1003E000002802D000233B702370002002F03EF86A
:1003F0002A4E2B4D00281BD02378142B05D133789F
:10040000002B15D0013B337012E0282B03D1254877
:10041000002303700CE0322B03D1234900230B701F
:1004200006E03C2B04D12B784F2B01D80A332B70DC
:10043000022002F01BF800283FD02378142B05D1AE
:100440003378032B39D80133337036E0282B03D1AE
:10045000144A0123137030E0322B27D112480123B4
:1004600003702AE00C010010360100101A01001080
:10047000E09C00003A010010B0A20000D901001079
:10048000DF01001022970000AC9B0000B19B000030
:10049000BA9B0000C09B0000C49B0000D801001064
:1004A00004010010CC010010E10100103C2B04D12C
:1004B0002B78282B01D90A3B2B700120011C02F05C
:1004C000C3FFA94804F0EEF90F20142102F0BCFF8D
:1004D000A64804F0E7F93378002B09D13220152122
:1004E000A34A04F00DF93A201521A24A04F008F9B4
:1004F0003378012B04D1322015219F4A04F000F9F2
:100500003378022B04D1322015219C4A04F0F8F8EC
:100510003378032B04D132201521994A04F0F0F8E6
:100520003378042B04D132201521964A04F0E8F8E0
:1005300028210F2002F088FF934804F0B3F9934973
:100540000B78002B02D1924804F0ACF98F4A137853
:10055000002B02D08F4804F0A5F90F20322102F0C1
:1005600073FF8D4804F09EF98C480378002B02D16C
:10057000874804F097F989490B78002B02D0854809
:1005800004F090F90F203C2102F05EFF844804F053
:1005900089F92B78502B02D1824804F083F92B780B
:1005A000462B02D1804804F07DF92B783C2B02D1F8
:1005B0007E4804F077F92B78322B02D17C4804F086
:1005C00071F92B78282B02D17A4804F06BF90220BC
:1005D0004C21794A04F094F80520217802F034FF88
:1005E000764804F05FF93B78032B46D1052001F0F3
:1005F0003DFF002806D0724A002301203B70137093
:10060000FFF708FE0220011C6E4A04F079F80D2065
:1006100002216D4A04F074F818200221544A04F0B3
:100620006FF823200221534A04F06AF82E20022199
:10063000514A04F065F839200221504A04F060F86C
:10064000442002214E4A04F05BF84E4A4F2002211A
:1006500004F056F83721052002F0F6FE5B4804F05E
:1006600021F94121052002F0EFFE594804F01AF962
:1006700002204C21504A04F043F83878012800D079
:1006800020E3002101F010FF002800D130E3514A9F
:1006900000211468201C06F093FA002800D127E3FB
:1006A0004D480378002B00D122E38021201CC9058E
:1006B00006F070FF474AFF2310604848037003208C
:1006C000002101F0F1FE002800D115E341490C683A
:1006D0004349201C06F060FA002800D10CE33E4A92
:1006E0001378002B00D107E38021201CC90506F0F8
:1006F000D7FA384A0123106038480370042001F00B
:10070000B5FE00280ED034480378002B0AD1354BB3
:100710001A78354B002A00D0F2E2344A2E491A608A
:1007200001230B7006200F2101F0B4FE002804D035
:10073000002301203B70FFF76DFD2D4C2368013332
:10074000022B05D802204042022101F0A7FF2060C1
:10075000284B00201A5E0A2A01D0642A4CD10120BD
:10076000FFF758FD54E0C046C69B0000D09B000038
:10077000709B0000B79C0000989B0000A39C0000A9
:10078000849B0000CB9C0000D79B0000CC01001094
:10079000E59B00006D9E0000E99B0000E101001058
:1007A000F69B0000049C0000059C0000C29B00001A
:1007B000089C0000079C0000009D0000C49B0000F6
:1007C000DF010010E4960000319C00000A9C00004C
:1007D000159C000008010010E4010010DA0100106F
:1007E00000008642E0010010D001001000004040EF
:1007F000C801001018010010AD4A0020115EAD4A7A
:100800000020125E8A1AAC49520009788A181A80B0
:10081000AA490B78002B00D178E1A94BA94D1968A2
:10082000286806F03DFAA84AA84E14682860211CE2
:10083000306806F035FAA64B3060186807F040F8CB
:10084000A44F011C386806F02BFA00213860201CE8
:1008500006F09CF9002808D001200121404201F057
:100860001DFF07F02DF8984B18602C68FE218905B4
:10087000201C06F08FFE984906F098F900282FD02A
:100880009648366805689449301C06F009FA291C18
:1008900006F0A0F9002823D09149281C06F000FAA0
:1008A000011C301C06F082F9002819D08D498E4AAF
:1008B000834B08781A60400807F002F8291C03905F
:1008C000301C06F067FE864906F056FB011C0398B3
:1008D00006F0E6F97C4F011C386806F0E1F9386053
:1008E0008249201C06F0DCF9814A051C1078063884
:1008F00006F0E6FF011C281C06F06CF9002833D036
:10090000724B75491E68734B301C1D6806F0C8F9A0
:10091000291C06F05FF9002826D07149281C06F032
:10092000BFF9011C301C06F041F900281CD0714AA7
:10093000634B654F1A60664B1B68D817800FC3184E
:10094000981006F0BDFF291C0390301C06F022FE13
:10095000634906F011FB011C039806F0A1F9011C84
:10096000386806F09DF93860584E00213568281C1B
:1009700006F01CF9002808D15749281C06F090F908
:100980005D4906F027F9002805D04F4B80211868F3
:10099000090642181A60201C002106F007F9444C91
:1009A000002808D02388002201332380534B0120E4
:1009B0001A70FFF7FFFB434F4749386806F070F99C
:1009C0004B4A051C107806F07BFF011C281C06F022
:1009D00001F9384D002807D02B88012001332B80E6
:1009E000464B1870FFF7E6FB00202B5E642B03D00C
:1009F0000021635E642B02D10120FFF70BFC404B0A
:100A00000022985E06F05CFF011C386806F0D8F8FA
:100A1000304D002830D02A4B0021186806F0D0F85D
:100A2000002829D036682C68301C211C06F0B4F848
:100A300000280AD0FE21201C890506F0C1F80028F4
:100A400003D00222224B52421A60201C244906F095
:100A500027F92149041C301C06F022F9211C06F05C
:100A6000AFF8002808D0201C264906F095F8002889
:100A700002D0174B02221A602C68FE218905201C27
:100A800006F088FD002106F091F8002802D0104BF6
:100A900002221A601C49201C06F002F9194906F0CE
:100AA00099F800283ED00222094B52421A6039E0E0
:100AB000E2010010DC01001004010010E40100104C
:100AC000D001001010010010D4010010140100101A
:100AD000C80100101C0100100000C04008010010F7
:100AE0000000A041DA010010000040400000E0409A
:100AF0000C010010000040C00000B042E0010010F6
:100B0000180100100000AC420000A8411A211E206C
:100B100002F09AFC7D4803F0C5FE462018217C4A6D
:100B200003F0EEFD7B4B1B78002B09D051210120F7
:100B300002F08AFC784B0021585E0A2103F010FF76
:100B4000764B1B78002B0AD00120011C02F07CFCA4
:100B5000734B186808F056FD022203F095FF714CA4
:100B60002B200022A35E092B00DD2520052102F0A9
:100B70006BFC0023E05E0A2103F0F2FE6A4803F0FA
:100B800091FE6A4B0021585E0A2103F0E9FE684A93
:100B9000106806F075FE674A01B2002003F0B0FD50
:100BA000654B1C78654B063C186806F069FE24B25C
:100BB00001B2634A201C03F0A3FD624C2378002B92
:100BC0001CD1614B0021186805F0E6FF002807D111
:100BD0005E4B1B78002B11D05D480378002B0DD1A4
:100BE0005C4B186806F04CFE5B4B05B2186806F0CB
:100BF00047FE5A4A01B2281C03F082FD2378002BDD
:100C00001CD1514B0021186805F0DAFF002807D1EC
:100C10004E4B1B78002B11D14D490B78002B0DD179
:100C20004C4B186806F02CFE4B4B05B2186806F0CA
:100C300027FE4B4A01B2281C03F062FD2378012BEA
:100C40000DD1444B186806F01BFE434B05B21868E3
:100C500006F016FE434A01B2281C03F051FD23782A
:100C6000022B0DD13B4B186806F00AFE3A4B05B239
:100C7000186806F005FE3C4A01B2281C03F040FD4E
:100C80002378032B0DD1334B186806F0F9FD324B56
:100C900005B2186806F0F4FD344A01B2281C03F0CE
:100CA0002FFD2378042B0DD12A4B186806F0E8FDA0
:100CB000294B04B2186806F0E3FD2D4A01B2201C4E
:100CC00003F01EFD2B4B0E221A802B4B0F221A8095
:100CD000FFF7F7FA0A332370FFF717FB0A3B23707D
:100CE000FFF71DFB0A33FFF769FB0A3BFFF774FBB5
:100CF000224900230B70E2E4204900230B70FDE43D
:100D00001F4A0BE5012005B0F0BDC046269C00003F
:100D10006F9C0000E101001018010010CC010010D0
:100D2000D4010010DC0100102D9C0000E201001035
:100D300008010010E49600000C0100101C010010D6
:100D4000319C0000D8010010D0010010E00100101B
:100D5000E40100101001001014010010B79C000005
:100D6000709B0000989B0000A39C0000849B0000E7
:100D7000CB9C0000E804001030010010DA010010E4
:100D8000000040C008B5024801F093FC08BDC04611
:100D9000DE01001008B5011C014800F03DFD08BD52
:100DA0009002001008B50348FF2100F035FDC0B2E5
:100DB00008BDC04690020010F8B543B2041C0D1CDB
:100DC000002B07DA77200021FFF7F6FF012832D841
:100DD0007F231C40A02688239B0136068027F750DE
:100DE000FFF7E0FF8A239B01F750FFF7DBFF201C92
:100DF000FFF7D0FF280EFFF7CDFF280CC0B2FFF79A
:100E0000C9FF280AC0B2FFF7C5FFE8B2FFF7C2FF6B
:100E1000402C04D08720482C02D0012000E09520EF
:100E2000FFF7B8FF0A24FFF7BDFF030603D5013C17
:100E3000E4B2002CF7D1F8BD73B58823404DA0244F
:100E40009B0180222406E250281C3E4900F0DAFC77
:100E5000281C0821002200F0C9FC84239B01E358D0
:100E60006425013DEDB2FFF79DFF002DF9D1402033
:100E7000291CFFF7A1FF041E012C35D1D5214820E4
:100E80004900FFF799FF012815D1FFF78BFF01AE4D
:100E9000A8550135042DF8D1B378012B24D1F3786E
:100EA000AA2B21D1284C8021C905E920FFF784FF16
:100EB000011E3BD11AE0E920291CFFF77DFF4126E6
:100EC000012801D80224E926204D301C0021FFF71B
:100ED00073FF00282FD1002D06D0802150208900DB
:100EE000FFF76AFF002813D0002411E0002CFBD08C
:100EF0007A20FFF761FF0028F6D1041CFFF752FFAC
:100F000030550134042CF9D133785A0600D50C241D
:100F10000F4BA0221C70882380219B011206D15008
:100F2000FFF740FF60426041C0B276BD013CA4B211
:100F3000002CD9D0B7E7013DADB2002DD4D0C4E725
:100F400090020010002D3101E02E0000A861000089
:100F5000E5010010F8B51D1C234B071C1B78141C61
:100F60001A0700D449025120FFF726FF002801D0BC
:100F700001262FE01D4EFFF715FFFF2804D1013E8B
:100F8000B6B2002EF4D0F6E7FE28F1D1184E761B4B
:100F9000361BB6B2002C02D13C1E05D10EE0013C3E
:100FA000FFF700FFA4B2F5E7FFF7FCFE7A19207007
:100FB000013492B2A3B29A42F6D105E0013DADB23E
:100FC000FFF7F0FE002DF9D1013EB6B2FFF7EAFEC1
:100FD000002EF9D18823A02280219B011206D15036
:100FE000FFF7E0FE301CF8BDE50100103075000091
:100FF00002020000064B821E1B680020D9680239DD
:101000008A4203D258789B695043C0187047C04643
:10101000E80100100F4B10B51A68002303808368A5
:10102000041C012B14D0D16801208B4211D2002B5B
:1010300003D11178032900D15369E360002B03D059
:10104000181CFFF7D7FF00E050692061002000E086
:10105000181C10BDE8010010F0B5324B85B0041C1F
:101060001D6801285AD9EA68904257D22E78022E7C
:1010700032D0032E40D0012E50D183B25A08D3185B
:101080009BB2DA055B0A0193274BD20D03AF2969A6
:101090009A4204D0019B381C591802230EE0019B90
:1010A000381C5918331CFFF755FF021E36D1296929
:1010B000019B01316846C9180D30331CFFF74AFF08
:1010C00000282BD17B7838781B0203431811E207E4
:1010D00025D41805000D22E02B69010AC4B203AF24
:1010E000C9186200381C331CFFF734FF002815D1E3
:1010F00078783B7800020FE02B697F22C10903AEAC
:101100001440C918A200301C0423FFF723FF002855
:1011100004D1707833780002184300E0012005B054
:10112000F0BDC046E8010010FF01000070B5058861
:10113000154B0135ADB2041C1E68002D01D10320F2
:1011400021E00369002BFAD02A0718D1013303618B
:10115000C068002803D1B388AB42F0D90FE07278A1
:101160002B09013A1A420AD1FFF776FF012809D963
:10117000F3689842E3D2E060FFF73CFF20612580EE
:10118000002000E0012070BDE8010010F8B5041C4B
:101190000D1C2B78202B01D10135FAE72F3B5A4249
:1011A00053410026ED18A6602B78202B2BD8201C4D
:1011B000FFF730FF3E4B1B689B681E7076E033786C
:1011C000002B65D0F27A082313405AD16268F15C93
:1011D0000133D01801380078884252D10B2BF6D158
:1011E000D37A002B61D13B689B68DA7AD1065AD555
:1011F0005A7D197D12020A43D97E9B7E0902120490
:101200000B431343A3606068021C031C0B32934220
:1012100003D0202119700133F9E70022131C0821A3
:101220005E1CEB5CF6B2202B10D92F2B0ED02E2B90
:1012300034D08A420AD21F1C613F192F01D8203BAB
:10124000DBB2571C8354FAB2331CE9E70022202199
:1012500099425241C272201CAD19FFF7DBFE0028F3
:1012600014D1134F3B689E6822880F231A40520105
:10127000301C21692023FFF76DFE00289FD001203C
:1012800014E0201CFFF752FF0028EDD003280DD1F9
:101290006368D87A43425841033007E00829D5D122
:1012A0000A1C0B21D0E7042000E00020F8BDC04656
:1012B000E801001030B51B4B011C1D6891B00620E1
:1012C000002D2CD0002308ACAB70AC6000AB03A8A1
:1012D0000493FFF75BFF002821D123780320002B24
:1012E0001DD0E27A1023134019D1617D227D0902BD
:1012F0001143E27EA07E1202090402430A436A629D
:10130000E17FA27F090612040A43217F181C0A43C9
:10131000617FEB6109020A432A620122AA7011B0BF
:1013200030BDC046E8010010F7B5314B01901C6894
:1013300000230D1C171C13809C4257D0A378052056
:10134000D90754D5226AE169531A9D4200D99DB24A
:10135000019A0092002D43D0E669F3051BD1700A73
:10136000617805F05DFB00290BD1002E01D1606A88
:1013700002E0A06AFFF770FE012833D90023A062C3
:10138000E370A06AFFF736FE00282BD0E3785A1CE2
:10139000C318E270E362E3692E1CDA058023D10DE5
:1013A0009B005B1A9BB29D4200D91E1C01980099BC
:1013B000431E9841B6B240420840D20DE16A331C48
:1013C000FFF7C8FD00280DD1E269AD1B9319E36159
:1013D000009BADB29B1900933B88F6183E80B9E79D
:1013E000281C04E00023A370012000E00620FEBDBD
:1013F000E80100102A4BF7B51C68002C4CD0A278ED
:101400000523D10749D5236A051E9D4200D91D1C1D
:101410000022E369E261954238D066787602002BBB
:1014200012D0311C681E5F1E05F0B6FA311C019007
:10143000381C05F0B1FA019A824205D373423B4051
:10144000E361ED1AA06A0EE0606AA0620BE0FFF7AC
:1014500003FE01281CD9E368984219D2E169A06211
:101460008B19E361AD1BB542F1D8E2695319E36111
:10147000FFF7C0FD00280BD06B0ADAB2ED0501D1F1
:10148000E27003E001321818E270E062002304E029
:101490000023A370012300E00623181CFEBDC046F4
:1014A000E801001030B5154B051C1B688DB00620F7
:1014B000002B20D004AC9C6001AB6B60281CFFF7B4
:1014C00065FE002814D12378002B0ED0E37A042087
:1014D000DA0610D5627D237D12021A43E37EA17ED7
:1014E0001B0212040B431343AB60281CFFF792FD51
:1014F000032800D104200DB030BDC046E801001023
:1015000038B5051C0C1C131C291C0248221C00F0B9
:1015100003F838BD669D00000FB404B070470000AA
:1015200038B50368041C0D1C013304D10648074973
:101530002422FFF7E5FF6368002D01D0E26800E098
:101540002269136038BDC046979D0000AF9D000022
:1015500070B50D1C041C161C00F05AFB013507D099
:10156000201C002100F07CFB201C311C00F072FBD1
:1015700070BD08B50122FFF7EBFF08BD70B50D1C6B
:10158000041C161C00F044FB01350BD0201C311C40
:10159000FFF7C6FF201C012100F062FB201C002188
:1015A00000F058FB70BD08B50022FFF7E7FF08BD4B
:1015B00010B5044B041C083303601C3000F028FCF9
:1015C000201C10BD009E000010B5041CFFF7F0FFAA
:1015D000201C00F02BFA201C10BD00000F4B70B532
:1015E0000833051C08C5041C0E1C281C00211822E9
:1015F00005F0A0F80023201C311CE3612362636323
:10160000A363E364064A231C1C3000F09FFB281CE4
:10161000311CFFF7AEFF201C70BDC046009E0000CD
:101620008516000008B50A1C031C1C30002905D0D3
:101630000022196201215A630A1C00E0012100F016
:10164000FBFB08BD08B50A1C031C1C30002905D093
:1016500000229963DA640221012200E0022100F0F5
:10166000EBFB08BD08B54369011C002B04D10368DE
:10167000002B06D0984704E00068002801D0043110
:10168000984708BD08B5012903D0022904D1383094
:1016900000E02030FFF7E6FF08BD000010B5041C95
:1016A000421C12D00B685A1C0CD0A34208D1201C3B
:1016B000896800F0E7FB201C002100F0FFFB04E03C
:1016C0000C31EFE70148FFF727FF10BD109E000027
:1016D00008B588420AD0431C07D0013106D004481F
:1016E000FFF71AFF0120404200E0081C08BDC04679
:1016F000219E00000B685A1C05D0834201D1486826
:1017000002E00C31F6E7181C7047000010B5041C0D
:10171000431C07D0FFF7EEFF041C431C02D1024814
:10172000FFF7FAFE201C10BD329E0000074A136826
:101730001818EFF30881884205D3054B0C220120CD
:101740001A60404201E01060181C70472001001030
:101750002C250010014B083303607047709E000079
:1017600010B5044B041C0833036000F05FF9201C23
:1017700010BDC046709E000073B5041C0E480025C5
:10178000083020600820E0600C48261D6061069843
:101790006560257225610090301C00F0CDFC301C86
:1017A0002B1CE168226900F047FD301C616900F0E4
:1017B00079FD201C76BDC046709E000040420F009F
:1017C00070B5094D041C2B6883420BD0061D301CDC
:1017D000E1682269002300F02FFD301C616900F0F0
:1017E00061FD2C6070BDC046EC01001008B5044BD3
:1017F0000261C16000221A60FFF7E2FF08BDC04627
:10180000EC01001008B5034B002241611A60FFF79C
:10181000D7FF08BDEC01001038B50D1C041CFFF704
:10182000CFFF291C201D00F083FD38BD38B50368AB
:10183000041CDB68984763685A682368002A02D151
:101840009B68984714E05B681568984763682D1A91
:10185000002D08DC5A68916859601B68002BEAD09B
:1018600050689847E7E75B682268186813699847EB
:1018700038BD000008B50248FFF7D8FF08BDC046D4
:101880009C9E000038B5041C00F08EFD051C00F085
:101890008BFD401BA042FAD338BD08B5FA239B004C
:1018A0005843FFF7EFFF08BD0A4A70B59568936883
:1018B0002C1C002B0AD1802676059C195E59043316
:1018C0002660C02BF7D1802464059460103080001E
:1018D000015170BD00ED00E07FB53E4A8021D06F20
:1018E00049023D4B0143D16723223C499A600122C2
:1018F0000A603B493B4D0A6000228E211A62890032
:1019000058582024284001900198A0430190019C40
:10191000C82000022043585000920099324A914258
:1019200003D8C046009A0132F6E7012200211A646A
:101930005A6459645A64596C274AC807FBD58E21EA
:101940008900505880242840029002982043029039
:10195000029EC82000020643565023269660565821
:1019600035400395039DA5430395039C20435050A8
:10197000D8680121184A0842FAD0032010670020D5
:10198000516750675167586F0121134A0842FAD0D6
:101990008E20916780001558144C2C401450155817
:1019A000134C2C40145000209164D164D064D16455
:1019B000DA6CD107FCD5084A23211161596901224B
:1019C0001142FBD00B4B0021196019600A4B1A60C1
:1019D0007FBDC0460480044000800440F0400440C5
:1019E000F4400440FF250000C3090000FFFBFFFF97
:1019F000FFFEFFFFC0800440C8800440704770476E
:101A000070477047704710B50023934203D21C58AB
:101A10005C500433F9E710BD00238B4203D200224F
:101A20001A500433F9E770470020704708B504F0F6
:101A300077FE08BD104B13B59A680178120B12039C
:101A40009A609C6801228A4022439A609A680B48F7
:101A500002439A601869084A019001980028F9DA4F
:101A6000083189008B58019393685B005B08936091
:101A700001980004000D16BD00C00140000008845C
:101A800070B5061CFFF7D6FF041C301CFFF7D2FF11
:101A9000051C301CFFF7CEFFAC4202D9231C2C1CC6
:101AA0001D1C854200D9051C281EA04200D2201C06
:101AB00070BD000073B5224D061C0C1C081C291CAF
:101AC000FFF724FEC3B23370FF2B04D11D481E491B
:101AD0003522FFF715FD201C291CFFF7DFFDE4056B
:101AE0001A4BE40DE4182368802293432360184ABC
:101AF0008E239B00D0581749014001910199102075
:101B0000814301910198C82109020143D150124B30
:101B10008022D96F92010A43DA67104B1049186886
:101B200004F03AFF802201380E4BC0B2D2051043B8
:101B30001860191C0B681340FCD10A4A136073BD6E
:101B4000089F0000A49E0000BC9E000000400440CE
:101B500000800440FF2500000480044024010010A0
:101B600020A1070000C0014008B5FFF789FF05F07C
:101B700003FF024905F0E4FB08BDC04601088039B7
:101B800010B5041C421C04D1164817491E22FFF749
:101B9000B7FC164B1A68002A06D101221A60144BB2
:101BA0001449DA6F0A43DA670121002C12D0124B74
:101BB0009C420FD0114B9C420CD0114B9C4209D03F
:101BC000104B9C4206D0104B9C4203D00F4BE118A7
:101BD0004B425941201CA40400F054F9E40E0120AA
:101BE000A04010BD9C9D0000A49F0000F8010010C3
:101BF0000480044040000100281400002C1600005E
:101C000030180000341A0000381C0000C4E1FFFF47
:101C100038B5041C0D1C21604A1C11D0081CFFF7AC
:101C2000AFFF2D14074AAD00AB18074AE360AB18AD
:101C3000064A2361AB186361054B6060ED18A5602F
:101C400038BDC046002200A0802200A0002100A0D4
:101C5000002000A008B5006800F030F908BD0000C1
:101C600038B50368041C0D1C013304D109480A4926
:101C70004322FFF745FC002D06D0012D09D1A368B2
:101C8000626819680A4303E0A36861681A688A43B6
:101C90001A6038BD979D0000A49F0000F8B5144D50
:101CA00001210C1C6B6A8440234220D0114B870019
:101CB000F85800281BD02B68234218D16B682342A8
:101CC00006D0EB69234203D00B4B1B689847EC61AD
:101CD0002B69074E234209D0336A234206D0054BB5
:101CE0000221D859044B1B68984734626C62F8BDD6
:101CF000004000A000020010FC01001008B5002008
:101D0000FFF7CCFF08BD08B50120FFF7C7FF08BDEE
:101D100008B50220FFF7C2FF08BD08B50320FFF792
:101D2000BDFF08BD08B50420FFF7B8FF08BD08B522
:101D30000520FFF7B3FF08BD08B50620FFF7AEFF8B
:101D400008BD08B50720FFF7A9FF08BDF0B5061CC0
:101D5000274885B0814202DD0120404246E0254807
:101D600002600022244895002C580294002C39D19E
:101D70002B5022483260C46F214F224B3C43C46732
:101D80008803800F1824444349121F270F40111C59
:101D9000BC465E31644489000090CC5081218900AA
:101DA00001245858271C9740384358500099A023C5
:101DB00088001B06C01880239B01C7586146039703
:101DC000271C8F400399B943C1500F4B50B2E958BB
:101DD000FFF76AFD33681F2213409C400B4B0298AB
:101DE0001C6003E00132082ABCD1B5E705B0F0BDA4
:101DF00013110200FC0100100002001004800440D6
:101E00008000090000800440EC9F000000E100E039
:101E1000036800219A00064B10B5D150054A812372
:101E20009B000068D15801248440A143D15010BDCB
:101E30000002001000800440036870B5104D0120BE
:101E400098402B68034200D168622E68C443264044
:101E50000B4B2E60012909D1002A03D05A68104388
:101E600058600CE05A6814405C6008E0002A03D017
:101E70001A691043186102E01A6914401C6170BDB0
:101E8000004000A038B5041C0D1C431C04D10848B8
:101E900008491522FFF734FB074BE405E40DE4186D
:101EA000226807239A431D40131C2B43236038BD2F
:101EB0009C9D00000CA000000040044038B5041CAC
:101EC0000D1C431C05D1114811491D22FFF718FBB9
:101ED00006E081231B01984216D00E4B984213D086
:101EE000E4050D4BE40DE4182268042D04D1802391
:101EF000DB001343236007E018239A4303231D40AC
:101F0000EB00151C1D43256038BDC0469C9D00009C
:101F10000CA00000140A00000040044038B5051C65
:101F20000C1C081C002104F037FE002809D1FE21FA
:101F3000201C890504F044FE002803D0FE24A405DB
:101F400000E000242D6880239B00E85805F014FD74
:101F5000211C05F0F5F904F069FE81239B00E8508F
:101F600038BDF7B580238122046895009B00E758AF
:101F7000081C6659E15005F0A3FC0190301C05F0E7
:101F8000FBFC061C381C05F0F7FC011C301C04F09F
:101F9000F3FF011C019805F0D3F904F047FE6051EE
:101FA000F7BD0000F7B5041C0F1C081C5149FFF7D2
:101FB000ADFBC3B2061CFF2B02D14F48FFF7ACFAB2
:101FC0004E4801230178051C0A1C1A4000D18EE0FE
:101FD0001941194200D084E02A78012199400A432E
:101FE0002A70474A990089586360216045498025D5
:101FF000C86F454A01902806019D09330543CD6706
:10200000012051689840031C0B435360381C394928
:10201000FFF744FB27683D4A3B683D4913433B605B
:102020007B680C2213437B607A683A4B13407B60D9
:10203000394B7D68186804F0AFFC7F2301381840E5
:10204000400128437860F0B2012507281DD804F02C
:1020500099FC040A1016040A1016A023DB00FD5098
:1020600002222E4B10E0A123DB00FD5002222C4B5C
:102070000AE0A223DB00FD5002222A4B04E0A32346
:10208000DB00FD50284B0222FA508022C12352016E
:102090009B00FA500123C0225B429200BB502349AF
:1020A000C3229200B95080252149C222AD0092007E
:1020B000BB5079517B598126B6009B08BB517B6888
:1020C000042293437B60201CFFF74BFF2468605978
:1020D00005F052FC002105F033F904F0A7FDA051F2
:1020E000F7BD1448FFF718FA01235B4274E7131C8D
:1020F00072E7C04654A00000C0A0000020020010FB
:10210000ECA00000048004400080044001000600B0
:1021100040420F001FF0FFFF2401001004050000E3
:102120000C050000140500001C0500000110000053
:10213000204E0000DAA00000F0B587B0041C00912A
:10214000081C314901920293FFF7E0FA2F49071C5E
:102150000198FFF7DBFA2E4D0390291C0298FFF738
:10216000D5FA2C4E0490311C0C98FFF7CFFA039946
:102170000590381CFFF7ACFA0599071C0498FFF787
:10218000A7FA011C381CFFF7A3FA204F206001308A
:1021900004D1214821494822FFF7B2F92368204A97
:1021A00093420FD01F4A934219D11F4A8021D06F0A
:1021B000C9020143D1671D4A01211D4B11605A68B4
:1021C00004210AE0184A8021D06F09010143D16738
:1021D0001849174B01220A6059680A435A6000984F
:1021E0000949FFF75BFA0198391CFFF757FA029883
:1021F000291CFFF753FA0C9B013303D00C98311CB8
:10220000FFF74CFA07B0F0BD38A20000F4A00000C0
:1022100030A1000074A2000078A100008CA1000091
:102220000000044000800540048004409C8004407D
:102230000080044094800440F8B51F1C0368151CFE
:102240005A680E1C02218A435A60331F041C0C2B4F
:1022500006D9032D04D9114811496522FFF750F919
:1022600023680122281C1968D5401040C0012A406B
:10227000013E06439201090C090416430E431E60F9
:102280005A680D218A43791E8F41BF0017435F6052
:10229000236802215A680A435A60F8BDD2A100009F
:1022A0008CA10000F7B5036802245A68051CA243FC
:1022B0005A601C4B0E1C1B680193211C019804F0F2
:1022C0006BFB05F0FDFA071C301C05F0F9FA011C48
:1022D000381C04F051FEFC21890504F0E1FC07F0F4
:1022E00091F904F035F907F0E7F8FF2810DC2B68C6
:1022F0000D4A1C61196801380A401A601A68000208
:10230000104318602B6802215A680A435A6007E09C
:10231000802302345B009C42CFD10448FFF7FCF8D5
:10232000F7BDC04624010010FF0000FF10A200000E
:1023300010B50368DA689407FCD599600368DA6819
:102340005107FCD5986810BD38B5104B1A68002AA3
:102350001AD101251D600E4B8022D96FD2000A438D
:10236000DA670C4B0C4C1868022363600B4904F0CD
:1023700013FB0138E0600A4965601320FFF794FA07
:102380008022084B12031A6038BDC0462402001098
:1023900004800440240100100080014040420F00EE
:1023A0007518000000E100E008B5044B1B68002B25
:1023B00001D1FFF7C9FF024B986808BD2402001045
:1023C00000800140034B012198615A690A435A6118
:1023D0007047C04600800140024B01215A698A4380
:1023E0005A61704700800140014B01221A6070471A
:1023F00000800140704770477047704708B5054836
:10240000FFF7B2FB044904F09BFF04F00FFC034B01
:10241000187008BD2902001000007F432802001038
:1024200008B502480249FFF745FB08BD2902001024
:102430005C2E000008B502F023FF08BD0023094A06
:10244000D15C094A002902D0D15C013105E0D05CA1
:10245000002803D0FF2800D0FF21D1540133072BDF
:10246000EDD17047A01A00102B020010034B185C2E
:10247000013843425841C0B27047C0462B02001099
:10248000034B185CFF3843425841C0B27047C04606
:102490002B020010034B0131185C401A4342584193
:1024A000C0B270472B02001008B50C4B012907D8A9
:1024B0001B5CFD22013BDBB200209A42404108E058
:1024C000185CFF2807D004F0ABFAC8B201384342C9
:1024D0005841C0B200E0002008BDC0462B020010E9
:1024E00010B51E4B002219781A701D4A507800282A
:1024F00001D001201870D078002803D01878022469
:10250000204318701078002803D018780424204342
:1025100018709078002803D0187808242043187089
:102520001079002803D018781024204318705079AF
:10253000002803D018782024204318709279002AAC
:1025400003D01A78402002431A701B78081C1840E8
:102550009943044A044B1070197010BD2A020010F0
:10256000A01A00103302001032020010014B18793B
:102570007047C046A01A0010014B58787047C046FB
:10258000A01A0010014BD8787047C046A01A00105E
:10259000094A00231380094A1370094A1370094A33
:1025A0001370094B012252421A80084A084B1A60E4
:1025B000084B09221A7070473A02001039020010C5
:1025C0004002001034020010360200107CAC000003
:1025D0003C0200103802001008B50248FFF7D8FF8F
:1025E00008BDC0463502001037B572B6244B002135
:1025F00059601961234B04221A60234B8E229200EA
:102600009D588024E4002C439C509D5880246400F5
:102610002C439C5001225A671C1C5967616F01238F
:10262000194A1940FAD1116753675167616F012345
:10263000154A0B40FAD15364516C8E219360890086
:10264000136753605558114C2C400194019C802510
:102650002C430194019DC82424022C435450A022F1
:102660008421120689015350094953500949535096
:10267000094B9860001C01688D464068804737BD53
:10268000004000A010E000E000800440FF250000B2
:10269000042100000821000000ED00E038B5041C12
:1026A0000D1C2D1B04F018F9691C04F019FA081907
:1026B00038BD7047F0B5C1B00E1C00F067FE00F0E9
:1026C00071FE8023DB029B1B051E9D4200D91D1C51
:1026D00000F052FE134802F05DF90024AC421DD216
:1026E00080277F006846391C00F02AFEFF2804D8A6
:1026F0002B1BBB4201D90C4806E0A019694603F028
:1027000053FC002804D0094802F044F9012006E0F7
:1027100001340748FF3402F0C5F8DFE7002041B07C
:10272000F0BDC046E6AD0000F2AD00000DAE000009
:1027300001B10000534B73B501261E70524B0024AB
:102740001C80524DFC23DB002B8000F04DFE211C31
:10275000201C00F079FE301C01F0FAFF0094019477
:1027600009F08BF94A48042100F0C4FDA0420FD1C2
:1027700000F00CFE0820404200F0EAFD042168460B
:1027800000F0DEFD042101A800F0DAFD00F0F4FD08
:10279000404C414B22689A4200D0404C22689A42F9
:1027A00000D03F4C22689A4200D03E4C22689A42A8
:1027B00017D020235B423C482B8002F0EBF8009BB3
:1027C000002B03D0394B019A9A4242D8384802F084
:1027D000E1F8384802F0DEF8FC23DB002B803648B5
:1027E00022E0364B36482B8002F05CF801235B4236
:1027F00060680A212B8002F0D3F8009B6268934244
:1028000027D8A068FFF7F0FE17E0FFF7BBFE00280F
:1028100036D1FFF7B1FE0028F7D000980199FFF7F5
:1028200049FF002828D0274802F0B4F805E0FFF758
:1028300057FEFFF79BFE002804D1FFF797FE002804
:10284000F5D01DE0FFF792FE002819D0FFF748FEF3
:10285000F8E71D4B1D482B8002F024F801235B4252
:1028600000980A212B8002F09BF8FC23DB0018481B
:102870002B8002F08FF8CCE7164802F08BF887E740
:1028800073BDC046320100105A0500102A01001025
:10289000D3AE0000F4FF03001EAB07B004FF03003B
:1028A00004FE030004F00300DBAE0000FF7F030022
:1028B000EFAE0000969D000006AF0000FF0700008D
:1028C00021AF00002BAF00001FF8FFFF51AF000049
:1028D00065AF000047AF0000F8B5012001F038FFF8
:1028E000494B00261E8000F07FFD484C484B49486C
:1028F000238001F0F3FB484D01232B70474BFC274D
:102900001E70474B3021FF0060201E70278001F0B1
:10291000CDFF444801F0C6FF3821602001F0C6FF1A
:10292000414801F0BFFF4021602001F0BFFF3F4858
:1029300001F0B8FF4821602001F0B8FF3C4801F0E9
:10294000B1FF6021282001F0B1FF0126394801F0D4
:10295000A9FF76423848268001F0A4FF3748278037
:1029600001F0A0FF0223364826802B7003F0C4FB41
:10297000431EDBB20324042B00D8041C03F0E6FB47
:1029800086B2FFF7ADFD6820782101F08FFF201C93
:102990000A2101F0E5FF03F0D9FBFA229200B318F7
:1029A000984203D903F0D2FB013C86B202F0E0FC6E
:1029B000002808D002F0DCFC041E02D0FFF790FDD6
:1029C000F8E7FFF7B7FE02F0C7FC002807D002F0D7
:1029D000C3FC002802D0FFF783FDF8E7041C02F0D7
:1029E000C1FC002806D002F0BDFC002804D0FFF78F
:1029F00077FDF8E7002CC4D101232B7000F0F4FC24
:102A0000002001F0A5FEF8BD5A0500102A010010B3
:102A100000F8FFFF18A90000320100103301001078
:102A20002E010010B7B00000BEB00000C5B000001D
:102A3000CCB000008AAF000090AF000094AF00005F
:102A4000A20F0000F0B56E4E8BB004923288071CC6
:102A50000D1C1C1C099206D0002132220091081C7A
:102A6000131C00F0E5FCFC23DB003380002C16D0A7
:102A700001F066FE041C012001F06AFE02F038FB42
:102A8000291C021C1439781EC0B2C9B20A2301F0F5
:102A90006BFF5C4801F006FF201C01F059FE049B0F
:102AA000574C0B2B01DC584B2380ADB2574E03958E
:102AB00001232DB2321C38B20093291C00F0CEFC49
:102AC000049A0795172A01DC4F4B2380BFB2059764
:102AD000083701253FB2381C0799321C2B1C009582
:102AE00000F0BCFC039B0095043B1AB20692111C3B
:102AF0002B1C381C321C00F0B1FC049B2F2B01DD79
:102B0000434B00E0404B059E404D1036238036B2CB
:102B10000124301C07992A1C231C009400F09EFC01
:102B2000301C06992A1C231C009400F097FC039B80
:102B30000094083B1AB20892111C231C301C2A1C5A
:102B400000F08CFC049B5F2B02DC2F4A2C4B1A807C
:102B5000059F012418373FB2381C07992A1C231CF3
:102B6000009400F07BFC381C06992A1C231C00945E
:102B700000F074FC381C08992A1C231C009400F0F7
:102B80006DFC039E2A1C0C3E36B20094381C311C8E
:102B9000231C00F063FC049A9F2A02DC1A4A184B9B
:102BA0001A80059F194D203701243FB2381C079920
:102BB0002A1C231C009400F051FC381C06992A1C86
:102BC000231C009400F04AFC381C08992A1C231C82
:102BD000009400F043FC381C311C2A1C231C009478
:102BE00000F03CFC03992A1C1039231C09B2009404
:102BF000381C00F033FC024B099A1A800BB0F0BD70
:102C00002A01001023B000008A52000060B60000C4
:102C100000F8FFFFF0B5012085B001F099FDC14B30
:102C200000221A7002F064FAFA20000103F064FA3C
:102C300004F0A2FEBC49041C03F0C2FF002801D02E
:102C4000FF2000E07F2002F023FA0025281C04F07A
:102C500037FE211C03F0A0FF002805D028B2013563
:102C600002F0F0F9EDB2F1E7B04B0A261870B04867
:102C700003F042FA002803D0061E0A2E00DD0A26C1
:102C800003F064FA012180B2039002910125A94B5F
:102C90001B78002B03D0002D01D0002E21D1FA206B
:102CA000000103F029FA04F00BFE011C201C03F0C4
:102CB0006DFF002807D1201C03F0B8FFC1B2FA2035
:102CC000000103F022FA201C04F0DAFD00B202F049
:102CD000B9F902F0F1F90020011C00F0B5FB05B0D4
:102CE000F0BD03F033FA0399FA2292008B18984250
:102CF00004D903F02BFA80B20390013E012D03D0DA
:102D0000022D00D198E0C2E7029A8B4D002A36D0FE
:102D100000F06AFB01235B42102120202B8000F091
:102D200093FB864801F0BEFD9921282000F08CFB22
:102D3000FC27834801F0B6FDFF0082482F8001F098
:102D4000B1FD012149428048298001F0ABFD5821A5
:102D500000202F8000F078FB7C4801F01BFE7C4FA8
:102D6000381C01F017FE381C01F014FE381C01F06D
:102D700011FE381C01F00EFE764801F00BFE3020EB
:102D8000992100F061FB02F0B3F9842802DC0123F1
:102D90005B4200E0704B2B800223704A0093A4201A
:102DA0000123302100F05AFB3621182000F04CFBA3
:102DB0006B4801F077FD1820422100F045FB02F03E
:102DC00097F9872801DD674800E06748FC2701F094
:102DD00069FDFF000223654A2F80A4200093602133
:102DE000012300F03BFB6621182000F02DFB60481A
:102DF00001F058FD1820722100F026FB02F078F94E
:102E0000842802DD544B2B8000E02F8002F070F903
:102E10000A2101F0A5FD574801F044FD464BFC2274
:102E2000D2001A8002F064F97621021C002370207F
:102E3000FFF708FE02252AE7FFF752FB02F08CFAA3
:102E4000002808D002F088FA002802D0FFF748FBDB
:102E5000F8E7051C1BE702F097FA002836D0201C83
:102E6000314903F0B7FE002809D08621201CC9058E
:102E700003F092FE002808D0201C3F490AE0201CE5
:102E8000294903F0A7FE002802D0201C3B4901E09D
:102E90003B49201C03F004FF3A49041C03F090FE58
:102EA000002802D0FF2002F0F3F8201C364903F07E
:102EB00087FE002800D0344C201C04F0E1FC00B256
:102EC00002F0C0F80022314E0292DFE602F056FA1C
:102ED000002800D1DBE6201C134903F07BFE00280C
:102EE00002D0201C254901E02549201C04F052FB9A
:102EF0000D49041C03F05AFE002802D07F2002F086
:102F0000C7F8201C002103F047FE002800D0002451
:102F1000201C04F0B5FC00B202F094F800231B4E14
:102F20000293B3E6330100100000FE42520200108B
:102F3000A30F0000500200102A0100109FAF0000F4
:102F4000CCAE0000B3AF0000B5AF0000C0AF0000D2
:102F5000DBAF0000F6AF000000F8FFFF1CB600007A
:102F600087AE000011B000001BB000003EB60000AC
:102F700026B0000023B00000CDCC4C3C00004841FE
:102F8000000020400000134300007F43FFFF0000CB
:102F900008B5094B012200201A7001F0D9FB07483F
:102FA00001F09CF803F0C2F803F0DEF802F068F9D3
:102FB00003F0D2F808BDC04650020010B0A20000D5
:102FC000014B18787047C0465002001037B50024F6
:102FD000251C03F0BBF8274B1A689042F9D91E3024
:102FE0001860012C0BD0002C02D0022C23D039E029
:102FF000214B201C1C8000F005FA012432E0FC214A
:10300000EAB2C900002001F07FFD1C4B1C4A188069
:10301000107851786E234008181A490858231C3537
:10302000591A0094231CADB200F018FAFE2D19D9DC
:103030000025022416E0114BFC22D2001A80104A0F
:103040006E23107851784008181A49085823591AE5
:103050000123009300F002FA3F350A4BADB29D42C6
:1030600000D9FF24FFF782FA002801D1292CB0D91A
:1030700037BDC0461C2500105A0500102A0100105B
:1030800012B10000FF03000008B57F2002F000F835
:10309000034B7F221A80034BFF221A7008BDC046E3
:1030A000A618001048020010F8B5FFF771FF2E4B6C
:1030B00032221A702D4B01241C602D4BFF251D70F0
:1030C000FFF7E2FFFFF796F9281CFFF794F9FFF7E7
:1030D000B1F9FFF7B3F9FFF790F900F0B0F9FFF796
:1030E00075FF201C01F034FB224F00253D8000F0CD
:1030F0007BF9214E301C00F0F1FF201C01F028FB71
:103100001E4BFC22D2001A803D8000F06DF9301C6D
:1031100000F0E4FF1A4F1B4E3D703470FFF7DCFBEC
:10312000FFF778FD01F0C8FF281C01F011FB164BDA
:1031300016481C70164B3C701C70347000F0CEFFAB
:1031400001F00CFD01F0B8FFFFF758F90520FFF77B
:103150008DF9A84203D10F4B1B78AB4202D100205E
:1031600001F070FFF8BDC04651020010540200107B
:10317000480200105A05001018A900002A0100108A
:10318000330100102E01001032010010B4A5000020
:103190002901001028020010F7B51D4A1378002BF2
:1031A00034D000240B2B02D80C24E41AE4B2194BBF
:1031B000012700201F7000F0DDFB174D55262B78EE
:1031C0000322F11A6118033300920020542200F008
:1031D00048FF381C00F0CEFB2B780322F61AA11909
:1031E000033300920020542200F0D7FE0B4B042240
:1031F0001A802B78E41A0A4B57341C80094B186844
:1032000001F050FB024A1378013B1370F7BDC04632
:103210005C02001032010010CD020010F00400101A
:10322000E40400104C020010F0B587B005930CAB1D
:10323000039104921F78061C02F088FF194B1A783C
:10324000194B1C68211A194C914212D92168002986
:103250000FD082181A60164B01251A6801321A60C5
:1032600000232360FFF7C8F8FFF7E8F8FFF7C6F878
:1032700014E022680025AA4210D101F091FD01F06E
:10328000E9FD01F0D9FEFFF787FF059B0097301C91
:103290000399049A00F050FB01232360281C07B017
:1032A000F0BDC04651020010580200105402001038
:1032B0004402001010B5041CFA20211C800003F009
:1032C000B9FB064B14211870201C03F065FBC0B23B
:1032D000002800D10120024B187010BD51020010CF
:1032E0008218001008B5024800F00AFF08BDC04669
:1032F0005302001070B50F4C061C23780D1C102BC8
:103300000BD0301C2570FDF7D5FF051E0CD10A48E7
:10331000311C03F02FFB2B1C09E0084808F0EAFAE7
:1033200001230028EDD002E0082323700123181C9C
:1033300070BDC04628010010A802001060020010F5
:1033400013B56C460634221CFDF7EEFF208816BD2F
:1033500008B5074B002804DADA6941428A4200D2F4
:103360005042DB69C018FEF745F8024B187008BDE3
:1033700060020010B702001008B50020FEF73AF80E
:10338000014B187008BDC046B702001008B5034BCA
:10339000186AFEF72FF8024B187008BD6002001083
:1033A000B7020010014BD8697047C0466002001098
:1033B00013B50123074C5B4281220093201C064B6E
:1033C00006495201FEF7D8F9201C0549054AFEF7C7
:1033D0002BFB13BD90020010180C000024120000FB
:1033E000551700000001001008B5002002F09CF8FD
:1033F000024A00231380024A138008BDF004001023
:10340000E404001008B502F08FF808BD064B10B5B3
:103410001B880F2B04D8054C5B001B5B934201D02B
:1034200002F0F6F910BDC04638010010D8020010B5
:1034300013B504AC2488009402F01AFA13BD08B541
:1034400002F0DAF808BD0000024B1880024B198028
:103450007047C046F0040010E4040010F0B593B0CB
:103460000B9118A909780E900C9111780A91517856
:1034700002320D910792012B74D10A9B002207336F
:10348000DB100893019201990A9A0BB2934200DB78
:1034900002E1DA17520FD218D210D2B209927F4A43
:1034A000134004D50822013B5242134301331BB29F
:1034B00080221A410E9B01999BB289B2029303911B
:1034C0004B0002999BB20F925A1892B210920A1CAA
:1034D00001329B189BB2119300240D9923B28B42A9
:1034E0003DDA089A099953434AB20799CB189B5C75
:1034F0000F9A1A4231D00C9B694D012B08D10399C8
:10350000029A0B9B8818E11800B209B22A8822E0BF
:103510000B9963008EB29BB2109A9F1904933FB22D
:1035200013B2181C2A88391C0593FFF76FFF1199F5
:103530002A880BB2181C391C0693FFF767FF049A00
:103540000136961936B22A880598311CFFF75EFFBE
:103550002A880698311CFFF759FF0134BDE7019A0C
:1035600001328FE7042B00D096E0002303930399E8
:103570000D9A0BB2934200DB8EE00B9B89B29BB29B
:103580000593059A4B00D3189BB206910E9A99B2F7
:1035900001339BB292B209930023089104920292E4
:1035A000019301990A9A0BB2934272DA07993D4B43
:1035B0000A781B6812115200D45A0C9A022A1ED1A2
:1035C000019B04995E00089A8E19B6B235B217B203
:1035D000013636B2281C391C221CFFF717FF301C9D
:1035E000391C221CFFF712FF0999301C0BB21E1C5C
:1035F000191C221CFFF70AFF281C311C05E0029A47
:10360000069B10B2059A991809B2221CFFF7FEFE1C
:10361000079B0C991A780F231A40224B52001B6803
:10362000D45A02291FD1019A049B56009E19089969
:10363000B6B2B51C2DB20FB2033636B2281C391CF7
:10364000221CFFF7E3FE301C391C221CFFF7DEFEB4
:10365000099A301C13B21E1C191C221CFFF7D6FE3F
:10366000281C311C06E00298069B059A0130991827
:1036700000B209B2221CFFF7C9FE079B0133079372
:10368000019B02339BB20193029B02339BB20293D4
:1036900087E7039B013369E713B0F0BD07000080A3
:1036A0002A010010E0040010F0B5704B8FB01B68C9
:1036B0000D905C78019118780094082C05D0211C9D
:1036C00010394C1EA141C9B200E00021009DEC1050
:1036D0000C19211C414301314A4304329B185F1CE1
:1036E0001B78089400240C930694069C0C9D62B2EF
:1036F0006BB29A4200DBAFE0089D3B78022D02D00E
:103700000137059304E07A78023712021A430592D2
:10371000069D0D9CADB2A4B26B00E3189BB202945F
:103720009CB2013303959BB2002509940A93079537
:10373000079D009C6EB2A64200DB89E0059CE40771
:103740003BD54B4B4B4C1B78022B1ED1019D760079
:1037500076190999B6B232B20DB20492281C2288A9
:103760000499FFF753FE0A9901360BB2181C228800
:10377000049936B20B93FFF749FE2288281C311CAE
:10378000FFF744FE22880B9840E03B4B1B78002B50
:103790000AD00098019D01384019029A039D861BAA
:1037A000A91830B209B206E0039D02996818019D7C
:1037B00000B2761931B2228840E0304C304B22887A
:1037C0001B8893423CD02A4B1B78022B20D1019DB1
:1037D0007600099C7619B6B225B234B2281C211C99
:1037E0000494FFF713FE0A99244B0CB21A88201C8C
:1037F0000499FFF70BFE0136204936B20A88281CCF
:10380000311CFFF703FE1D4D201C2A88311C15E0DA
:10381000194B1B78002B0AD00098019C0138001925
:10382000039D029C861B291930B209B206E0039D54
:10383000029C2819019D00B2761931B2FFF7E6FD0E
:10384000079B059C01336408DBB2059407936FE77F
:10385000069D0135069548E70A4A00201056044A9D
:103860001B18107858430FB0F0BDC046EC04001090
:10387000320100102A010010580500105A050010EE
:103880003801001033010010F8B5234A234F127895
:103890003B88234CD8B2234E234D012A03D1FF216C
:1038A000002B31D12BE0022A06D1032108408100F0
:1038B00008430101014327E0032A20D101211940D7
:1038C000206800D0FF21194A02F034FF3988022312
:1038D00019402268154BD018002900D0FF211A1C6E
:1038E00002F028FF398804231940206803D0104AC9
:1038F000FF21801801E00E4BC0180C4A06E00101C0
:103900000F2003400B43D9B220680A4A02F012FF8D
:10391000002333802B80F8BD2F010010E804001035
:10392000D0020010F0040010E4040010BA040000FB
:10393000740900001F13000008B5002805D1064BCC
:103940001868064B196801F0F5FF054B1B78002B32
:1039500001D1FFF799FF08BDD0020010E00400106C
:10396000DC04001008B5024801F0B6F808BDC046F6
:10397000B6AD00000F231840014B18807047C046B9
:1039800030010010114B30B51B8893421DD0104BF5
:1039900084B21B789C4218D20E4D89B22D788D428C
:1039A00013D95B1059430C4B401040181B6880B270
:1039B000181801780F23E50702D599430A4303E05D
:1039C0000B4012011A43D2B2027030BD3801001010
:1039D000360100103A010010D0020010F0B5284B5B
:1039E00087B01B6803905E7805911878082E05D083
:1039F000311C10394C1EA141C9B200E00021F41065
:103A00000C19211C414301314A4304329B18029492
:103A100003995C1C1B788DB2049303996A1A04996C
:103A200052B24BB29A4224DA029B2778022B01D081
:103A3000013403E0637802341B021F43002101912B
:103A4000019B59B2B14211DC059B28B2C91809B2D9
:103A5000FB0701D50B4B00E00B4B1A78FFF792FFE9
:103A6000019B7F080133DBB20193E9E70135ADB279
:103A7000D3E7064A00201056181807B0F0BDC0461C
:103A8000EC04001030010010E804001033010010B5
:103A900030B5114B84B21B789C421BD20F4A89B2BD
:103AA00012788A4216D95B1059430D4B40104018CA
:103AB0001B6880B2181803780F210A4AE50703D55E
:103AC00012788B43134304E012880B401201134316
:103AD000DBB2037030BDC046360100103A01001061
:103AE000D00200103001001070B50F4B141C1B7871
:103AF0008AB2061C9A4202D3A2B29A4212D20B4B4D
:103B00001A78B3B29A420DD9A14202DD0B1C211CD6
:103B10001C1C0D1CA54205DC29B2301CFFF7B8FFA8
:103B20000135F7E770BDC0463A01001036010010BC
:103B300070B50F4B161C1B7882B20C1C9A4202D334
:103B40008AB29A4212D20B4B1A78B3B29A420DD96A
:103B5000A04202DD031C201C1C1C051CA54205DC28
:103B600028B2311CFFF794FF0135F7E770BDC0465E
:103B7000360100103A01001008B5002A04DA92B2AA
:103B80005118524209B212B2521812B2FFF7ACFFEA
:103B900008BD10B50C1C002A04DA93B218185A425A
:103BA00000B212B28118013909B2221CFFF7C0FF1E
:103BB00010BDF8B5CE18041C171C36B2E7190D1C41
:103BC0003FB2321CFFF790FF381C291C321CFFF754
:103BD0008BFF391C2A1C201CFFF7AAFF391C321C42
:103BE000201CFFF7A5FFF8BDF8B58418CD1824B246
:103BF0002DB2002801DA002C2BDB164B1B789842E3
:103C000001DB9C4225DA002901DA002D21DB124B71
:103C10001B78994201DB9D421BDAA04202DD031CA6
:103C2000201C1C1CA94202DD0B1C291C1D1CC643A8
:103C3000CF43F617FF173040394006B20FB2A64205
:103C400007DA301C391C2A1C0136FFF74DFF36B24B
:103C5000F5E7F8BD360100103A010010F0B5031C7D
:103C600085B0002876D03C4A1078834201DB431EA1
:103C70001BB23A4A1278042A06D1394909785943C5
:103C8000CC0F6118491008E0022A63D134490C783E
:103C90005C43E117890F09198910324C304E258891
:103CA00089B20395304DB4462D882580002B28DD40
:103CB00034780025E40862432C1C0192C21A954214
:103CC00017DA221C0E1BB618B6B20096171B019EFF
:103CD000BFB2B74208DA561C244F0296009EBE5D62
:103CE000BE54029FBAB2EDE70135ADB20099141C83
:103CF000E4E71F4B0027D95F63461A7803B2002020
:103D000023E034789DB26243D210019200248542B0
:103D100017D2221C0E1BB618B6B20096171B019EB6
:103D2000BFB2B74208DA571C0297104F009EBA5C28
:103D3000BA55029FBAB2EDE70135ADB20099141C35
:103D4000E5E7674600203A78011CFFF74DFF054B79
:103D5000039C1C8005B0F0BD3A0100102F0100103B
:103D60003601001030010010E80400105E0500105C
:103D7000E4040010F0B589B00192069393B20122D9
:103D8000D21A5B0092B25B4202929BB20022049074
:103D9000059107930392039A13B2019A934278DA3A
:103DA000029A13B2002B0CDB019B013B1AB2079B5A
:103DB000019202339BB29AB20792029A9B189BB26D
:103DC0000293039B029A9CB263000333D3189BB205
:103DD0000293069B5B0713D5049A059B96B2019A42
:103DE0009DB297B2701C2018791900B209B2FFF782
:103DF0004FFE691CBE19611830B209B2FFF748FEC8
:103E0000069B9B0713D5049A059B96B2019A9DB217
:103E100097B2701C2018E91B00B209B2FFF738FEF8
:103E2000691EBE19091B30B209B2FFF731FE069BAD
:103E30001B0713D5049A019B97B2059A9EB295B2BF
:103E4000691CB81B611800B209B2FFF721FE781E89
:103E5000001B751900B229B2FFF71AFE069BDB079B
:103E600013D5049A019B97B2059A9DB296B2711E22
:103E7000781B091B013F00B209B23C1B751BFFF701
:103E800007FE20B229B2FFF703FE039B0133039321
:103E900081E709B0F0BDF0B58BB0089310AB00928C
:103EA00007910022995E01220991009906908BB238
:103EB000D21A5B0092B25B4201929BB20022059340
:103EC0000392039A009913B28B4264DA01990BB200
:103ED000002B0CDB009B013B1AB2059B00920233C6
:103EE000019A9BB299B29B189BB205910193039BD7
:103EF00001999BB25D00ADB202932B1C0333CB182A
:103F0000089A9BB204950193D2071ED5069B079988
:103F1000009A9FB2099B8EB294B202999DB2620040
:103F2000781C0818AA18311B00B209B212B2FFF7A8
:103F300023FE029A711E049B891AAA1CE4199A187E
:103F400020B209B212B2FFF717FE089989071ED5F1
:103F5000069A079B009997B2099A9EB28CB2029B6F
:103F600095B2781E6200C01A311BAA1800B209B2BD
:103F700012B2FFF701FE029A711E049B891AAA1C55
:103F80003C1B9A1820B209B212B2FFF7F5FD039953
:103F90000131039195E70BB0F0BDF0B589B01F1C5E
:103FA0000EAB061C00201C5E0D1C012C04DC301C1A
:103FB0003B1CFFF7FEFD52E0B1B2A3B203910193A7
:103FC00059185B005B4292B29BB205939B1808B2F2
:103FD00019B207910492291C079ABFB20290ADB2A0
:103FE000FFF7D7FD7B1EEB189BB219B20298079A18
:103FF0000693FFF7CEFD059B019ADF1955192DB2E7
:104000003FB2301C291C3A1CFFF7B6FD049E0398F2
:10401000013E8619B6B230B2291C3A1CFFF7ACFD3E
:10402000291C0298221C0123FFF7A4FE0199221CDF
:10403000761A36B2291C301C0223FFF79BFE069A23
:10404000019B301CD51A2DB2291C221C0423FFF71A
:1040500091FE0298291C221C0823FFF78BFE09B051
:10406000F0BDF0B587B00E1C0CA900254C5F012CEB
:1040700003DC311CFFF7B8FD2EE0A5B292B203922B
:104080006A0080B2039952422F1892B2013B049207
:104090009BB23FB252180290311C059312B21BB270
:1040A000381CFFF7A1FD049A059903985318029A4A
:1040B00001381018AE19451B28B236B21DB2311C9A
:1040C000221C01230095FFF7E6FE0095381C311CE9
:1040D000221C0223FFF7DFFE07B0F0BD054B18607E
:1040E0000278054B01321A704278044B01321A7083
:1040F0007047C046EC040010E7040010CD02001029
:10410000124A134B10B5041C1A60FFF72BFC114B1D
:1041100001221A70104BDC221A80104BB02210487A
:104120001A80FFF7DBFF0F4B11221A800E4A002383
:1041300013800E4A042111700D4A201C13600D4A91
:10414000136093611363936410BDC0465E05001055
:10415000D002001054050010D6020010F204001026
:10416000B0A2000038010010E8040010D4020010D2
:10417000D8040010F4040010F0B58DB001935B4238
:10418000041C0F1C0092994200DAAEE2CE4B1A7862
:10419000914200DDA9E2009D6B42984200DAA4E260
:1041A000CA4B1B78984200DD9FE2C9490978012972
:1041B0002BD82B1C0733DB1002930026B2B2009DD4
:1041C00013B2AB4200DB90E2DB109BB203930723F8
:1041D0001A40802313410493002501982BB2834297
:1041E00011DA029A03986A43129903B28A18D35CCF
:1041F000049A1A4205D03019E91900B209B2FFF742
:1042000047FC0135E9E70136D8E7022900D0B3E0E1
:10421000B04B0026995F002973DDAF4BA5B200209B
:104220001A5E0295251C944200DA151C029EAB4BC7
:10423000AD1B00201B5E009ED218A419ADB29442A3
:1042400000DD141C029EA64BA41B00201B5EA4B222
:10425000BEB2049403963A1C9F4200DA1A1C039ED5
:10426000921B019E92B205925A18BB19934200DD2F
:10427000131C039E9B1B009E9FB2B6100096049ECB
:104280002BB232B2934200DB2FE2DA17920FD21830
:104290009210944E92B201921E4004D50423013E26
:1042A0005B421E43013636B27600C0233341DBB297
:1042B000059C069323B23AB293421FDA0098019903
:1042C000434312980AB2C3189B5C069906220B401E
:1042D000921B1341844A11889AB291420BD00F224B
:1042E0001340824A1380029A039B5019191900B295
:1042F00009B2FFF7CDFB0134A4B2DBE70135ADB263
:10430000BDE7009DAD1004950025ABB2009E19B22B
:10431000B14200DBE9E1032213405B000393039EFB
:10432000C0233341DBB2129E05938B10F318029326
:104330000026019833B283421CDA0298059903786B
:10434000039806220B40121A1341674A11889AB249
:10435000914209D00F2213402819644AF11900B282
:1043600009B21380FFF794FB0299049A0136891869
:104370000291DEE70135C8E7032961D1009B009D6A
:104380000733DB100793019B019E6B43DA17520F33
:10439000D318F217520F9219DB101DB2D2106E0013
:1043A00092B20996089206950026009D33B2AB4260
:1043B00000DB9AE1099DDB105D190A950193002548
:1043C0000395039DABB2089D1AB229B28A4235DC2F
:1043D000079D6A43129DAA18019D555D0295019D96
:1043E0005119069D495D0A9D0491525D0592BAB22C
:1043F0009D1808329B189BB20B93ADB20499059A95
:104400000123029819401A409940920003400A4340
:1044100004991A434008059B0290490830190491F9
:104420005B0800B229B205930135FFF7ABFA0B9890
:10443000ADB28542E2D1039D0135C1E70136B4E753
:10444000042900D0ECE0019EB919002F09DA009E82
:104450000DB272107A430195129D0027AD1A129584
:1044600006E0914204DD019E9219D21B15B201951E
:10447000002C13DA009EA2B201211140921915B24C
:1044800000956442129D64104900A6B22D1989B2AC
:104490000024029103961295A4462DE0009EA119D6
:1044A000994225DDA2B20120151C05408540C91A9C
:1044B000204084464910ADB261449A1A029589B2EF
:1044C00015B20391009517E03A0100103601001073
:1044D000D402001034010010560500102C01001009
:1044E0005C0500100300008038010010300100104E
:1044F0000026B446039602965B107B4362109B181D
:104500007B4A05971268D3180598019D4219974276
:1045100000DBEAE0774A1278974200DBE5E0029E92
:10452000221C36B20496E00765D4201C009D049E30
:104530002A19921B904227DA129D029E2978002E9A
:1045400004D06D7809012D112943C9B26A4D1A783A
:104550002E880D11B54208D00F25154007950A1C6D
:104560000F25AA43151C079A2A430F252940B1425B
:1045700002D0AA430A43D2B2129E023001361A7008
:104580001296013300B2D1E70298002811D0ED074E
:104590000BD5129D58492A7809880F20104088426F
:1045A00003D0197812010A431A70129E01330136A2
:1045B0001296039802B226E0129E197830784E4E79
:1045C00005113688B54202D00F26B14329434A4E21
:1045D0001970368801330F2519780540B54204D08B
:1045E0000F26000131400143C9B2129D023201354C
:1045F0001970129512B2009E04983119091A8A4254
:10460000DADB03990AB2129D009EAD183B4A12955F
:104610001278921B521062449B187A1C17B273E7EF
:10462000082962D1019EB919002F08DA009A129E5A
:104630007A430DB2B61A01951296002706E0914210
:1046400004DD019D5219D21B16B20196002C0BDA23
:10465000009DA4B261196442129D0EB221B26D1880
:104660000096129500240BE0009EA2199A4209DDE3
:10467000A2B2F11A511851189A1A15B209B200953E
:10468000201C01E00020011C7B43194A1B19126801
:10469000BC46D318019E321C6244974225DA154A63
:1046A0001278974221DA129A129D661B961935B23A
:1046B000009E02953519029EAE420BDA1E781578DF
:1046C00003960D4E3688AE4200D1039D1D70013217
:1046D0000133E9E752181292084A009D1278521BE2
:1046E00012189B187A1C17B2D4E70DB0F0BDC04663
:1046F000D00200103A0100103801001036010010FD
:1047000013B51478537802320092221CFFF734FD5F
:1047100013BD000008B5084B00B21B6809B29B78B6
:10472000D21A064BD2B21B78002B02D0FEF7BCFF88
:1047300001E0FFF753F908BDEC0400105405001028
:10474000024B1878431E9841C0B2704754050010C0
:1047500009490A4A0A4B002805D001200870DC21CB
:104760001180B02205E00870064909781180064AD8
:1047700012781A807047C04654050010D602001007
:10478000F2040010360100103A01001038B50B4B4E
:104790000B481B6804885B780A4A5800241A0A48A8
:1047A000118800780DB240B2A54203DDC018FFF7B2
:1047B00055FA02E0C3185918118038BDEC040010F6
:1047C000F2040010E40400102E01001038B52A4B4A
:1047D000041C1B68DA78002A03D0602801D9203C29
:1047E000E4B20E2C21D8201C02F0CCF8441F1F1F6D
:1047F0001F1F1F1F0E1F081F1F1B44001F4B0022DF
:104800001A80FFF7C3FF35E01C4A1B781088C01AD6
:104810001B4B80B2108019782022C0B2FFF77AFFBC
:1048200028E0164B00221A8024E0144D15492888F0
:1048300009881B7802B2CB1A9A4209DB00232B802D
:10484000114B1B78002B15D0FFF7A0FF287800E054
:10485000C0B20B4B221C1978FFF75CFF202C06D14D
:104860000A4B1B785BB2002B01D0401001302B8823
:10487000C018288038BDC046EC040010F0040010B9
:10488000E4040010D60200102901001033010010CA
:1048900010B5041C2078002803D00134FFF796FFE0
:1048A000F8E710BD08B5FFF7F3FF08BD024B18800D
:1048B000024B19807047C046F0040010E404001059
:1048C000F0B5002489B0051C0E1CA04203D1302095
:1048D000FFF77CFF1BE000AB281C0134311C1F19C3
:1048E00002F09EF8013F3970281C311C02F054F888
:1048F000051EF0D1013C6B46185D092801D8303007
:1049000000E03730C0B2FFF761FF002CF2D109B0F0
:10491000F0BD08B5002903D1C0B2FFF757FF02E090
:10492000C9B2FFF7CDFF08BD10B5041E03DA2D2074
:10493000FFF74CFF6442201C0A21FFF7C1FF10BDA6
:1049400008B5002903D1C0B2FFF740FF07E00A29EC
:1049500002D1FFF7E9FF02E0C9B2FFF7B1FF08BDDE
:1049600008B5FFF7EDFF08BD10B5044C20800448E2
:104970000180101C191CFFF7E3FF10BDF0040010AC
:10498000E404001008B50D20FFF720FF0A20FFF710
:104990001DFF08BD08B5FFF77BFFFFF7F3FF08BD5C
:1049A00008B5FFF7B6FFFFF7EDFF08BD00000000F8
:1049B000F8B5171C2D4B2C4A061C0C1C02F0B2F843
:1049C000002805D02D20FFF701FF80231B06E418E7
:1049D0000025274A274BBD420AD0101C191C264A25
:1049E000264B03F03BFB0135021C0B1CEDB2F2E73A
:1049F000301C211C03F010F80D1C041C02F030F9CF
:104A0000061C04F0CBFD021C0B1C201C291C04F00E
:104A10001FFA041C0D1C301C0A21FFF751FF002F48
:104A200002D01748FFF734FF002F1AD0124A134B59
:104A3000201C291C03F07CFF0D1C041C04F03CFD11
:104A4000061CFFF771FF301C04F06AFD021C0B1CF2
:104A5000201C291C04F0FCF9013F041C0D1CFFB2B2
:104A6000E2E7F8BDC046C0460000000000000000BC
:104A7000000000000000E03F0000000000002440B3
:104A800001B10000C046C04608B5D2B2FFF790FFA2
:104A900008BD000008B50248FDF70BFE08BDC04682
:104AA000E60400100023C15A044AD1528021023387
:104AB00089008B42F7D1024B1A607047D802001070
:104AC000E00400108910D21049011143C010C30244
:104AD000081C18437047000038B5041C0025A27854
:104AE00020786178FFF7EEFF054B8022585302359E
:104AF000033492009542F2D1024A136038BDC04699
:104B0000D8020010E004001070B5031C1F242340DD
:104B10000C40E41A24B2544324124E111C193F25B0
:104B200043112B40C00A3540C912091AED1A5543EA
:104B30004A4312128018C243A4B2D217104022B2C4
:104B4000D2432D12D2175B191440C0022043DC431C
:104B5000E41723405B01184380B270BD08B501F033
:104B600093F9012001F018F908BD000000B5002BF1
:104B70003ED104283CD801F005FF0310262D340057
:104B8000C9B24BB2002B04DB0A2B00DD0A21C9B2EB
:104B900000E00021174B19702AE0174B89001B68B1
:104BA000164ACB58164819881360164B1A780B1CF6
:104BB0005343DBB2037009128B4200DD0B1C5343DD
:104BC00011490B7014E00F4B1B7859430F4B1970B0
:104BD0000F4B0CE00B4B1B7859430E4B19700E4BCF
:104BE00005E0084B1B7859430C4B19700C4B1A709D
:104BF00000BDC046B8180010B41800109818001076
:104C0000A41800108218001083180010AC180010AF
:104C10007E180010B918001094180010AD1800107C
:104C20007F180010002A11D1094B1870094B1B780E
:104C30005943094B1970094B09491A70094B1A80DD
:104C400001230B7008490B70084B1A707047C0465F
:104C5000851800108218001091180010A11800107B
:104C600081180010BA180010801800108618001063
:104C7000064B10B51B780024A34201D0044B1C78CE
:104C8000201C01F0A3F8034B1C8010BD80180010FD
:104C9000A2180010B823001008B500280FD1084B47
:104CA0001870084B1870084B1880084B1870084B88
:104CB0001870084B1870084B1870FFF7D9FF08BD23
:104CC0008118001091180010BA18001086180010F2
:104CD000A2180010A51800108018001010B5041EAE
:104CE00003D1FFF7D9FF014B1C7010BD7D180010D8
:104CF00038B5051C0C1E12D1081CFFF7EFFF084B3E
:104D000001221D60074B1C80074B1A70074B0922BC
:104D10001A70074B1C70074B1C70074B1C7038BD7A
:104D20008C180010921800107D180010B818001090
:104D3000AC180010B9180010AD18001010B50028FC
:104D40001FD1104A1378002B1BD00F4B1978002964
:104D500017D10E4C0E4B20781B684000C35A0D48EB
:104D6000834201D111700CE00B4A181210700B4AEB
:104D7000DBB212689B009858FFF7BAFF2378013323
:104D8000237010BD8A1800107D180010AA1800109A
:104D9000B0180010FFFF0000A91800109C180010A8
:104DA00008B50020FFF7CAFF08BD000038B500288D
:104DB00042D1224A1378002B3ED0214B1B78002B86
:104DC0003AD1204C204D238829685B005B5A002B88
:104DD00013D11E480078002802D023800B880CE0F5
:104DE00013701B4A1078002804D0181CFFF7A6FF88
:104DF000238815E0FFF750FF1EE001221A409910AA
:104E0000002A11D0DA120F200840103A5905C90EB5
:104E1000002352B2FFF7AAFE238801339BB22380FE
:104E20002A685B009B5AE8E73F200840190AFFF711
:104E3000F9FE23880133238038BDC0467D18001059
:104E400091180010921800108C180010871800108C
:104E50008A18001008B50020FFF7A8FF08BD000061
:104E6000F7B5002800D0AAE0554B1B78002B00D1E5
:104E7000A5E0544B1878002802D1FFF70DFF9EE003
:104E8000514C013818702378002B26D14F4A504BD3
:104E900011881B6801314800C35A4E4D0720184045
:104EA00028704D489D1205704C4D98052D78800E48
:104EB00068431B0720704A48DB0F0370494B89B2D7
:104EC0001B781180994208D347490878002802D0FE
:104ED000181A108001E0FFF7DFFE2378013B2370F2
:104EE000424B434C1D780135EDB21D70414B1B7890
:104EF0000193394B01991E783F4B8E191B78F61898
:104F00003E4BF6B219782670002907D068B201F03E
:104F100091FD3B4B1B78584336182670207824218E
:104F2000243001F0DDFD374B21701F78364B0E1C0D
:104F3000364C19782770002908D068B249B201F0C0
:104F400079FD334B1B7858433F182770314B197844
:104F5000002910D068B201F06DFD2F4B184004D528
:104F6000022301385B42184301302C4B1B78584315
:104F70002378C0182070019D22783F2D09D0131C82
:104F800052B2092A00DD09235AB2D243D217134084
:104F900000E000232370224B0E4D9A5D214B1A70C6
:104FA00022782B785343204A127853431F4A1288A1
:104FB000521153431E4ADBB213701E4A1370F7BDE1
:104FC0008118001091180010A1180010BA180010D4
:104FD0009818001090180010A818001082180010DF
:104FE000AB180010A41800108318001086180010C9
:104FF000A318001085180010A9180010B918001087
:1050000094180010B8180010AC1800108818001080
:105010007E180010AD180010010000807F180010ED
:1050200066B600008918001084180010A618001039
:10503000A5180010A218001008B50020FFF710FFF7
:1050400008BD000008B5C343DB1718400D4B1B8893
:10505000984200DD18B20C4B02227F2800DD0022AE
:105060001A700A4A1B781080C20F101840100A38B4
:1050700000B2C243D21710409840C0B200F060FEA8
:1050800008BDC0463C0100103E010010A6180010EB
:1050900008B5002803DBFF2802DDFF2000E0002028
:1050A000034B1880034B0022985EFFF7CBFF08BD2F
:1050B0003C010010A618001008B5054B18887F2881
:1050C00001D9103000E0083000B2FFF7BBFF08BD87
:1050D000A618001008B5054B18887F2801D920387C
:1050E00000E0083800B2FFF7ADFF08BDA6180010B9
:1050F000014B18887047C046A618001008B5024832
:10510000FDF7D7FA08BDC046A018001008B5074B38
:105110001F215B6ADA050B40591C120F044B9200E9
:105120004900D05801F038FC08BDC046008004405A
:105130008CB60000064B186C03231840012804DDD0
:10514000033843425841C00300E002487047C0465C
:1051500000800440001BB700044B10B59C68FFF7AB
:10516000E9FF1F231C400134604310BD0080044050
:1051700008B50A4B1A6F03231340022B06D0032BEA
:1051800007D0012B08D1FFF7D5FF06E0FFF7BEFFE0
:1051900003E0FFF7E1FF00E0014808BD00800440A4
:1051A000001BB70008B5FFF7E3FF024B996F01F052
:1051B000F3FB08BD00800440014B01221A717047C7
:1051C000A01A0010014B00221A717047A01A00109B
:1051D000014B01225A717047A01A0010014B0022A6
:1051E0005A717047A01A0010014B01229A71704742
:1051F000A01A0010014B00229A717047A01A0010EB
:10520000014B01225A707047A01A0010014B002276
:105210005A707047A01A0010014B0122DA707047D3
:10522000A01A0010014B0022DA707047A01A00107B
:10523000014B00229A707047A01A0010014B002207
:105240001A707047A01A001008B5054B9A79002A09
:1052500002D0FFF731FF01E001229A7008BDC0467D
:10526000A01A001008B5054B9A79002A02D0FFF762
:1052700031FF01E001221A7008BDC046A01A0010DB
:1052800010B5204C2049201CFCF7DCF9201C1F49DC
:10529000FCF7C8F91E4C1F49201CFCF7D3F9201C51
:1052A0001D49FCF7BFF91D4C1D49201CFCF7CAF92C
:1052B000201C1C49FCF7B6F91B4C1C49201CFCF7B0
:1052C000C1F9201C1A49FCF7ADF91A4C1A49201CE7
:1052D000FCF7B8F9201C1949FCF7A4F9184C194936
:1052E000201CFCF7AFF9201C1749FCF79BF9174C61
:1052F0001749201CFCF7A6F9201C1649FCF792F967
:1053000010BDC046A81A0010C5510000B9510000D8
:10531000501A0010DD510000D1510000BC180010DF
:10532000F5510000E9510000001A00100D52000074
:10533000015200000C190010255200001952000003
:10534000601900103D52000065520000B0190010B5
:105350003152000049520000014B18797047C04695
:10536000A01A0010014B58797047C046A01A0010CF
:10537000014B98797047C046A01A0010014B18786D
:105380007047C046A01A0010014B98787047C0467D
:10539000A01A001070B52648FEF7B2FE254E264929
:1053A000301CFCF71BF9254D254C291C221C301CF8
:1053B000FCF73AFB234E2449301CFCF70FF9291C5B
:1053C000221C301CFCF730FB204E2149301CFCF71E
:1053D00005F9291C221C301CFCF726FB1D4E1E491A
:1053E000301CFCF7FBF8291C221C301CFCF71CFBB2
:1053F0001A4E1B49301CFCF7F1F8291C221C301CEA
:10540000FCF712FB174E1849301CFCF7E7F8291C73
:10541000221C301CFCF708FB144E1549301CFCF70D
:10542000DDF8301C291C221CFCF7FEFA70BDC046BA
:105430005C190010A81A001084120100B1150000B8
:1054400000010010501A001070080100BC18001074
:1054500088140100001A0010941A01000C190010A1
:105460006C06010060190010C4320100B019001070
:105470007C0E0100054A0649A0231B0699500549E8
:10548000C0005850002199507047C0468820000045
:105490000700F8FF8821000038B5A0248A232406DD
:1054A00004229B01E250074D80235B046351FFF708
:1054B000E1FF054A80235B01A350C046C04663510B
:1054C00038BDC046042200008422000038B5A02464
:1054D0008823240604229B01E250064D80235B04AE
:1054E0006351FFF7C7FF044A80235B01A350C04606
:1054F000635138BD042200008422000010B5074C1F
:105500000749201CFCF74EFD201C0521FCF729FD56
:10551000201C0449FCF702FD10BDC046F81A00101B
:10552000FC0402009A99993E10B5041C2020FFF754
:10553000B3FF0020FFF7CAFF2120FFF7ADFF0020D7
:10554000FFF7C4FF2220FFF7A7FF201CFFF792FF01
:10555000A02388221B06042192019950094A802128
:1055600049049950802149019950074B074CA021CB
:105570008020090640010851C046013B8850002B9D
:10558000F4D110BD042200004097000084220000E6
:1055900010B52020FFF780FF0020FFF797FF2120A4
:1055A000FFF77AFF0020FFF791FF2220FFF774FF3B
:1055B0000020FFF75FFFA02388221B060421920131
:1055C00099500A4A802149049950802149019950F3
:1055D000074B084CA0218020090640010851C04615
:1055E000013B8850002BF4D110BDC04604220000BE
:1055F000409700008422000070B5794EA025012458
:105600002D06FFF77BFFAC510A20FCF746F9754BDE
:105610000A20EC50FCF741F9AC510A20FCF73DF9A7
:10562000201CFFF739FF8E20A040FFF74FFF02201C
:10563000FFF732FF8020A040FFF748FF0320FFF76D
:105640002BFF6948FFF742FF0820FFF725FF674857
:10565000FFF73CFF0C20FFF71FFF0020FFF736FF8E
:105660000F20FFF719FF201CFFF730FF2020FFF766
:1056700013FF0020FFF72AFF2120FFF70DFF002076
:10568000FFF724FF1020FFF707FF0020FFF71EFFA2
:105690001120FFF701FF80204001FFF717FF0A20CC
:1056A000FCF7FBF83020FFF7F7FE0020FFF70EFFB6
:1056B0003120FFF7F1FEDB20FFF708FF3220FFF774
:1056C000EBFE0020FFF702FF3320FFF7E5FE00208E
:1056D000FFF7FCFE3420FFF7DFFEDB20FFF7F6FECE
:1056E0003520FFF7D9FE0020FFF7F0FE3620FFF748
:1056F000D3FEAF20FFF7EAFE3720FFF7CDFE0020F4
:10570000FFF7E4FE3820FFF7C7FEDB20FFF7DEFEE1
:105710003920FFF7C1FE0020FFF7D8FE0A20FCF772
:10572000BCF8FF20FFF7B8FE0320FFF7CFFE5020A4
:10573000FFF7B2FE2E48FFF7C9FE5120FFF7ACFE7F
:105740002C48FFF7C3FE5220FFF7A6FE2A4D052086
:10575000FFF7BCFE5320FFF79FFE281CFFF7B6FEA5
:105760005420FFF799FE2548FFF7B0FE5520FFF7BC
:1057700093FE234C0320FFF7A9FE5620FFF78CFE73
:10578000201CFFF7A3FE5720FFF786FE1D48FFF7FA
:105790009DFE5820FFF780FE281CFFF797FE59203A
:1057A000FFF77AFE201CFFF791FEB020FFF774FE92
:1057B0001548FFF78BFEFF20FFF76EFE0020FFF776
:1057C00085FE0720FFF768FE1048FFF77FFEC82020
:1057D000FCF763F82220FFF75FFEFFF7D9FE70BDEC
:1057E000042200008422000030100000080800009D
:1057F00003020000090A0000211000000206000058
:105800000307000007050000012500001710000035
:10581000F8B584B2171CDB2C25D88DB2AF2D22D859
:105820002020FFF739FE281CFFF750FE2120FFF74C
:1058300033FE201CFFF74AFE2220FFF72DFEA02496
:105840008823240604229B01E250074D80238026F2
:105850005B0476016351381C6651FFF70BFE034B66
:10586000E650C0466651F8BD0422000084220000C4
:10587000F0B585B00AAC24880394904202DD041C84
:10588000101C221C994202DD0C1C191C231CDC2854
:1058900049DCB02947DC141CDC2A00DDDC2422B200
:1058A00002921A1CB02B00DDB022CD43ED17C64387
:1058B00013B2F6172940019306400DB2029B9E4297
:1058C00031DC2020FFF7E8FDA8B2FFF7FFFDB6B2FC
:1058D0002120FFF7E1FD301CFFF7F8FD2220FFF744
:1058E000DBFDA02388221B069201042199500F4F53
:1058F00080225204DA5180225201DA512C1C019A82
:1059000094420DDA0398FFF7B5FD0949A0238022E0
:105910001B0652015A50C0460134DA5124B2EEE758
:10592000013636B2CAE705B0F0BDC0460422000019
:1059300084220000F0B5DFB0059020200491FFF72D
:10594000ABFD0020FFF7C2FD2120FFF7A5FD0020E1
:10595000FFF7BCFD2220FFF79FFDA02388221B0636
:10596000920104219950A24C802252041A518022A3
:10597000520100251A510395039E059D7210AA1825
:1059800000231178049E08114000805B1825ED1853
:105990006E46A85306ADE8180F252940049E49001D
:1059A000895BB030023301803732B02BE9D100255A
:1059B0000295029D06AEA85B80278E4DA026360676
:1059C0007F01FFF757FD7751C04637517751C046E9
:1059D000029B06AAD218375150880192FFF74AFD60
:1059E0007751C04637517751C046019A3751908858
:1059F000FFF740FD7751C04637517751C046019BB4
:105A00003751D888FFF736FD7751C0463751775167
:105A1000C046019A37511089FFF72CFD7751C046D7
:105A200037517751C046019B37515889FFF722FD06
:105A30007751C04637517751C046019A3751908906
:105A4000FFF718FD7751C04637517751C046019B8B
:105A50003751D889FFF70EFD7751C046375177513E
:105A6000C0463751029E10360296B02EA1D10026B4
:105A70000296029E06AAB05A8027A02636067F010B
:105A8000FFF7F8FC7751C04637517751C046029B6B
:105A900006AAD218375150880192FFF7EBFC7751D4
:105AA000C04637517751C046019A37519088FFF769
:105AB000E1FC7751C04637517751C046019B3751C1
:105AC000D888FFF7D7FC7751C04637517751C04689
:105AD000019A37511089FFF7CDFC7751C0463751F5
